:100000006F00A06613000000130000001300000042
:100010001300000013000000130000001300000094
:100020001300000013000000130000001300000084
:08003000130000007300100032
:100038006FF09FFC000000006F0060236F00E02558
:1000480000000000000000000000000000000000A8
:100058000000000000000000000000000000000098
:100068006F30B003000000006F3000610000000036
:100078006F00205A6F00005A6F00E0596F00C05996
:100088006F00A0596F0080596F00A03E6F00405963
:100098006F0020596F0000596F00E0586F00C0587A
:1000A8006F00A0586F0080586F0060586F0040586C
:1000B8006F0020586F0000586F00E05700000000E4
:1000C8000000000000000000000000006F00C056A3
:1000D8006F00A0566F0080566F0060566F00405644
:1000E8006F0020566F0000566F00E0556F00C05536
:1000F8006F00A0556F0080556F0060556F00405528
:100108006F0020556F0000556F00E0546F00C05419
:100118006F00A0546F0080546F0060546F0040540B
:1001280000000000000000000000000000000000C7
:080138000000000000000000BF
:1001400073250030A14273B00230828073250030E5
:10015000A14273A0023082807310053082800100BA
:1001600097520020938202EA739002349732002063
:100170009382826103A302000321030082427390F1
:100180001234D652739002309240A2423243C2439C
:100190005244E244724582551256A2563257C25713
:1001A0005258E25872598649164AA64A364BC64BEF
:1001B000564CE64C764D865D165EA65E365FC65F93
:1001C00013018107730020300000000000003D4350
:1001D0002A876373C3029377F700BDEFADE593768B
:1001E00006FF3D8ABA960CC34CC30CC74CC74107E7
:1001F000E36BD7FE11E28280B306C3408A06970202
:10020000000096966780A6002307B700A306B700F4
:100210002306B700A305B7002305B700A304B70062
:100220002304B700A303B7002303B700A302B7005A
:100230002302B700A301B7002301B700A300B70052
:100240002300B700828093F5F50F93968500D58D36
:1002500093960501D58D61B793962700970200000C
:1002600096968682E78086FA9680C1171D8F3E9605
:10027000E374C3F8A5B7397106DE16DC1ADA1ED8A6
:100280002AD62ED432D236D03ACE3ECC42CA46C836
:1002900072C676C47AC27EC073110134EF30405307
:1002A00001A0397106DE16DC1ADA1ED82AD62ED441
:1002B00032D236D03ACE3ECC42CA46C872C676C496
:1002C0007AC27EC073110134EF308050EF30304C71
:1002D000AA85376500001305C5AAEF40501DEF3011
:1002E000704BAA85376500001305C5ABEF40301C85
:1002F000EF309049AA85376500001305C5ACEF4083
:10030000101B01A0411122C406C63764000013056A
:10031000803EEF30E0081305803EEF3060081305A3
:10032000803EEF30E0071305803EEF306007130595
:10033000803EEF30E006EF305046AA85130584B8C2
:10034000EF40F016E9B7411122C406C63764000039
:100350001305803EEF30C004EF303044AA8513050A
:1003600004B6EF40D014EDB739718545154506DE6A
:1003700022DC592D854737150140231AF1004C081E
:1003800093078004130505803ECEE52E8145014587
:1003900055290544B147081022D03ED422D602D2B6
:1003A000812ED9472316F1006800914722C8230700
:1003B000F100E121F250625421618280797181451E
:1003C00049461305E10006D61935B70700009387A3
:1003D00067343EC4930700503ECAB7670000938756
:1003E00007B13ECC2C0099470A852316F100EF2077
:1003F000D05A19C537650000130545B2EF40101DEE
:10040000B7070000938747303EC4930700503ECAA9
:10041000B7670000938787B33ECC2C009D47480008
:100420002316F100EF20705719C53765000013053A
:10043000C5B4EF40B0190D3FB2500145456182800F
:100440004111014506C622C4252171651305052009
:10045000EF30B028B707002083A5070737650000F5
:10046000130505B0EF40B004EF10201D2A84B93702
:1004700019E0EF10C01B0100FDBF5D7186C696C478
:100480009AC29EC022DE2ADC2EDA32D836D63AD480
:100490003ED242D046CE72CC76CA7AC87EC673119E
:1004A0000134EF30E03205454D2C0DC937040020F2
:1004B000EF30B02E1304840808C037650000130520
:1004C00085ADEF40C07E0C4037650000130585AE5A
:1004D000EF40E07DEF30C0270545792CEF3000304C
:1004E000731101347254B640A642164386436255D6
:1004F000D2554256B256225792570258F248624E8F
:10050000D24E424FB24F616173002030B7170240A4
:100510009843B706FFF841111367170098C3D843F3
:1005200037060200758FD8C39843B706F7FEFD164D
:10053000758F98C39843B706FCFFFD16758F98C357
:10054000D843B70681FFFD16758FD8C337079F00C4
:1005500098C702C402C69843C166558F98C3B716A0
:100560000240130700509C42F18F3EC6A247850708
:100570003EC4B24781E7A247E397E7FEB7170240C0
:100580009C431397E7006354070885473EC63247EC
:100590008547631CF706B72702409843B706C1FF9B
:1005A000FD161367070198C39843719B98C398433E
:1005B0001367270098C3B7170240D843D8C3D8435E
:1005C000D8C3D84313670740D8C3D843758FD8C35F
:1005D000D843B7061D00558FD8C39843B70600010E
:1005E000558F98C3984393166700E3DD06FED84302
:1005F000B7160240719BD8C3D84313672700D8C3EE
:100600002147DC42B18BE39EE7FE4101828002C6B6
:10061000BDBF01A001A001A001A001A001A001A0F7
:1006200001A001A001A001A001A001A001A001A0C2
:1006300001A001A001A001A001A001A001A001A0B2
:1006400001A001A001A001A001A001A001A001A0A2
:1006500001A001A001A001A001A001A001A001A092
:1006600001A001A001A001A001A097010020938199
:100670006120175100201301E19817650000130550
:10068000E5DC970500209385E5971386818163FA61
:10069000C5008322050023A0550011059105E3EA5A
:1006A000C5FE170500201305659E9735002093852C
:1006B00065106377B500232005001105E36DB5FED5
:1006C000B72200009382828873A002309702000054
:1006D0009382C29693E2120073905230EFF01FE3C0
:1006E00097020000938202D6739012347300203078
:1006F0005841032805004C45370601409307064042
:100700003E979346F8FFB1C583250640F58D23201B
:10071000B640D043F18ED4C31443B3E6060114C3EC
:10072000184190479346F7FF758E90C7D047F18EDA
:10073000D4C7144541466399C6009447D98E94C7DF
:10074000D447558FD8C78280B6979443558F98C3A6
:1007500082801C43F58F1CC38280B707014013873A
:10076000074083A70740584B698F09C77D8D3335F4
:10077000A000828001458280B707014023AAA740DC
:1007800082809C4513F7070113F8F70001C7D84191
:100790003368E80083D5050013F7F50F39C3184116
:1007A0008146854E3D4F930F800293028004214E77
:1007B0003396DE00B3F8C500631116039398260044
:1007C00033131F011343F3FF3377E300B31818010A
:1007D00033E7E800639FF70550C98506E39AC6FD35
:1007E00018C11307F00F6375B70454412146854EB5
:1007F0003D4F930F800293028004414EB398CE0088
:1008000033F715016392E80213172600011733131B
:10081000EF001343F3FFB376D3003317E800D98E0C
:10082000639DF701232A15010506E319C6FD54C18E
:100830008280E39457FA10C94DB7E39757FE2328F7
:100840001501DDB713F7C50F93F73500B705014064
:10085000BA9594458A073D473317F7001347F7FFCA
:10086000758F98C598453315F500598D88C58280D8
:10087000B707002023A6A7088280B7070020938728
:10088000C70894430347050089E68347250092077C
:1008900031A8944305466391C60483472500034667
:1008A000150092076314D60093E707F8B7E600E057
:1008B00093F7F70FBA962380F64085469357570073
:1008C0003397E6005441ADC6938707048A07B7E61D
:1008D00000E0B69798C382808C4389466393D50223
:1008E00083461500834725006365D6008A06B697C0
:1008F00079BF9386E6038A06B69793F7F70F9207B8
:1009000065B790438D46631ED60083461500834726
:1009100025006364D6008606D9BF9386C60786067F
:10092000E1BF94439147E39AF6F88347150085B7F2
:10093000B7E600E093870706B042C1458A07ACC21C
:10094000B69798C3B0C28280371702405C43914685
:10095000B18B6385D700A1466388D706B7177A00A5
:10096000938707201CC1371602405C4237070020DE
:10097000130707009183BD8BBA9783C607001C41FC
:10098000B3D7D7005CC15442A1829D8ABA9683C670
:100990000600B3D6D70014C55442AD829D8A36975F
:1009A00003470700B3D7E7005CC558423983937605
:1009B000370037070020130747073697034707001C
:1009C000B3D7E7021CC982805C435443C983BD8B03
:1009D0001396F6008907634D060037470240032748
:1009E0000780418B19CB37177A001307072011A80E
:1009F00058439316E700E3D806FE37173D00130768
:100A00000790B387E702B9BF99C5371702401C4F5B
:100A10005D8D08CF8280B7170240984F1345F5FFD0
:100A2000798D88CF828083560501F577FD17F58F84
:100A300083D66500397122DC06DED58F03D7C50069
:100A40002318F5008356C500FD779387379FF58FF0
:100A500083D645002A842EC6D58F83D68500D58FB0
:100A600083D6A500D58F2316F50083574501C2070D
:100A7000C18393F7F7CFD98F231AF5006808E935BA
:100A8000B747014093870780B245631EF404A2571D
:100A90008356C4006547B387E702C206C186984102
:100AA00063D5060406070356C4004206B3D7E7021F
:100AB000130740064186B3D6E702B3F7E702920672
:100AC000635706028E0793872703B3D7E70213F70E
:100AD0007700B367D700C207C1832314F400F25034
:100AE000625421618280925765B70A076DBF9207F1
:100AF00093872703B3D7E702BD8BD58FE9BF81C9A1
:100B00008357C5000967D98F2316F50082800357E4
:100B1000C500F977FD17F98FC5BF93F5F51F2312AF
:100B2000B5008280035505006D8D3335A0008280AD
:100B3000411122C426C206C6AA84EFF06FE0B707AF
:100B4000002083A707092A8499C3268582972285D6
:100B50002244B240924441016FF00FE0411122C49F
:100B600006C68947054463C7A70079158D4763F812
:100B7000A70001442285B2402244410182800545FC
:100B8000F13F2A847DF5B765000037650000938545
:100B900005BB130545BBEF408011E9BF635EB004A0
:100BA000AA87594821CD4111328706C62E8611EBFE
:100BB0008145EFF0CFE113086009B2404285410161
:100BC000828063F8D5008145EFF06FE01308200ABA
:100BD000EDB76376A700B305D7006368B500014899
:100BE000E3FDE7FCBE96E37AD7FC81453E85EFF056
:100BF0000FDE1308600BD1B71308200242858280F4
:100C000063E3D5020DC105C263CF050089CE6376CB
:100C1000A600B307D6006379F5006376C500B30775
:100C2000D5006373F6009DBF4111B285368606C6B6
:100C3000EF301065B240014541018280AE8763CB41
:100C400005021DC1011106CEB285368663E7D702C3
:100C5000B70700009387E71C3EC6B247829701475B
:100C6000F2403A85056182801307200291C15947FD
:100C70003A85828013072002E5BF13072002EDD3D7
:100C80003E86EFF0CFD41307200AD9BF9307200286
:100C90006359B000D94711C519E623000500930731
:100CA00060093E85828063D7060023000500930714
:100CB000200AC5BF85E2230005008147DDB785070F
:100CC0003307F6000307070001CBE380F5FEE39846
:100CD000F6FEE5B78147EDB7E391F5FEF9B763544A
:100CE000B00851C149C26350D008411122C406C6A0
:100CF00032843307B60063FCB602B2968307040061
:100D000081C70504E31CD4FE118C6370A604B307ED
:100D1000860063FBA704B2852286EF3070562295C9
:100D200023000500014531A805046305E40083079D
:100D30000400FDFB118CE31AB4FC2300050013052D
:100D4000200AB240224441018280637BC500B30780
:100D50008500E3E2C7FC230005001305600BD5B74F
:100D6000E30BC5FACDBF1DB7E363C5FEEDB71C416C
:100D70005441D8433697D8C358413A951CC1828014
:100D80001307C53A5C4163E6E5003E9533B5A5001F
:100D900082800145828083A6C5FF9397160063D1A8
:100DA0000706011106CE22CC63D90602094536C6D4
:100DB0007533B24619C58145F24062442E850561FE
:100DC00082801306E04E996537650000938505F330
:100DD000130545C6EF30B06DF9BF370400C07D1470
:100DE000758C8D8A99E63385A5406115818DE375F3
:100DF00085FC0945A53361F1A2861306604FE1B772
:100E00002E858280139725002A97145B5C46639495
:100E1000C6021CDB91EF93D755008A073E958547A4
:100E2000B397B7004C4993C7F7FFED8F5CC9828039
:100E300023A40700828018465CC791C398C78280AC
:100E40006364B502AA8701456362F602D84305458B
:100E5000634E07008C434111368506C61537B240F4
:100E60003335A000410182800145828082800111DA
:100E700022CC40414EC65AC06114AE89130BC53A0C
:100E80002A944AC8AA862A892286DA854E8552C4BF
:100E900006CE26CA56C26D37054A21C983A4490029
:100EA000054A63D40404B70A0040FD1AB3F45401A0
:100EB000CE94CA862286DA85268559371DC5844098
:100EC00063953403630E9B0283A90400CA862286BD
:100ED000DA854E85B53711C983A74900B3FA5701A2
:100EE000D699B3843441333A9000F240624452853B
:100EF000D2444249B249224A924A024B0561828059
:100F0000014AE5B7011106CE22CCF94763F6B700D6
:100F10009307F00763E5A7022AC409452EC63D39A9
:100F200001442246B24519E537650000130585ECFA
:100F3000EF30F0572285F2406244056182800E0551
:100F4000A1153355B500130485FFEDB7411126C235
:100F500006C622C49307F007AA8463EDA70009819F
:100F60007D15F9477D5463EEA700B24022449244B8
:100F700041018280EF30A0027D44098C420441800F
:100F80006104A2852685BD3F05140E047D052295CA
:100F9000E9BF011122CC2A84C8412EC606CE7D3776
:100FA0009307E00DB24563F8A700AA8537650000F6
:100FB000130585E9B12593172500A297985B11C306
:100FC0000CC723A40500D8C58CDB935755008A07AE
:100FD0003E948547B397A7004848F2405D8D48C8C6
:100FE000624405618280011122CC2A84C84106CE68
:100FF0002EC6A93FAA85228562443246F240056189
:1010000011B5DC41411122C426C24AC0B384C500D7
:1010100006C6918FDCC08CC0D0C1C0402A890A04AA
:10102000098026945C4004C063C60700A285653F22
:101030002285353B2244B240A6854A859244024926
:10104000410181BF011126CA4AC84EC606CE22CC34
:101050002A89AE84293DAA8915C10945013619E5B9
:1010600037650000130505E8EF305056F240624442
:101070004E85D2444249B24905618280DC40032753
:10108000090180408A0789831D8F2328E900DCC07D
:1010900011C85C4063C80700A2854A85A937268528
:1010A000F931A284C0400A040980269409C85C4032
:1010B00063C707004A85A2853D3722854D39A6853D
:1010C0004A85C13D65B719E17D55828001114AC845
:1010D00006CE22CC26CA4EC61309403B6374B90221
:1010E000B367B5008D8B2A84AE848DC70945BD34A6
:1010F00011E93765000091462686A285130545C093
:10110000EF30F03A7D55F2406244D2444249B24950
:10111000056182809306C03A01469305C03A393E84
:101120001C4444C09309C43AF19B1CC49387C4C4B3
:10113000E114A2942328F43A228500C02326943A8D
:10114000CE85813DB707008023A03401DCC0232871
:1011500024012326240101457DB7011126CA06CEAC
:1011600022CC4AC8854415CD8DCDB367B5008D8B93
:101170008DEB1C452A84898B91E72EC6EFE05FFC3E
:10118000B2452A8922850139854411C5930585FF19
:1011900022854D3DAA841C44898B81E74A85EFE076
:1011A000BFFBF240624426854249D24405618280F9
:1011B000411106C622C426C24AC085E50945EFF0A2
:1011C000FF9909C905442285B2402244924402494C
:1011D00041018280376500001305C5BBEF30103F29
:1011E000D5B7AA8401C51C416380A7020945EFF069
:1011F000FF9669F9376500001306F075A68513059B
:1012000005BEEF30D02A7DBF2E84E1460146E14580
:1012100022852D349C44898B81E7EFE07FF22A8977
:10122000DC40370600401387C43AE117A6977D16C5
:10123000636BF700DC445CC88044098821EC4A8574
:10124000EFE09FF149B75443B3F5C60063CF060200
:10125000AE86854801430145032804002A982320CF
:101260000401032844003698232204010328840043
:101270006373D800368848441448232404011A951F
:10128000C69648C414C82E9765B72E858148054375
:101290008146D9B7014405BF5D71AD05A6C2CAC07C
:1012A0004EDE86C6A2C452DC13F9C5FF9307F007D1
:1012B000AA84B28963EE2711135429007D14F947DB
:1012C000130AF00D63FD87007D54A2854A8505143D
:1012D00015390E042A94130AF401130404029357D7
:1012E000540091078A07A697C8438547B39787009C
:1012F000B307F040E98F8DC33305F0407D8DEF20BB
:10130000104AFD45898DC205C181137504FEAA9559
:101310009307F00D6399F50E93051400130404026E
:10132000814763F38500FD47BE9513F405FE13075F
:10133000E00D6378870A9307F00D6309FA009307BD
:10134000CA008A07A6978043631404100945EFF08A
:10135000FF8019E537650000130505C8EF30102739
:101360009C44898B81E74E85EFE01FDF6146814514
:101370002808EFE0DFE52C0826851D3D8547631032
:10138000F50E9C44898B99E3EFE09FDB0945EFF074
:10139000EFFC19E99965376500004A86938545F2A7
:1013A000130545E4EF30B0100945EFF02FFB014481
:1013B00019E537650000130505C8EF303021228597
:1013C000B640264496440649F259625A61618280C9
:1013D0004A85EF20D03C7D44098C42044180610461
:1013E000EDB59357540091078A07A697DC43B1CF18
:1013F0003305F0407D8DEF20903AFD47B385A7403F
:10140000C205C181A2959387C5008A07A69780432C
:1014100015DC22862685FD32584093070901636654
:10142000F7004A86A2852685E93E5C4037070080A2
:101430005D8F58C098488A078983BA97D8449CC85A
:101440006373F700DCC421049DBF13040402D5B507
:101450005C4063F427014044C5BDD2855DBF0545AE
:10146000EFF0CFEF19E5376500001305C5CEEF307B
:10147000F0150545EFF08FEE19E53765000013050F
:1014800005D7EF30B0140545EFF04FEDE31B05EE47
:10149000B257A25812583EC072478257E246D04017
:1014A0008C4037650000130545DFEF305000D1BD9B
:1014B000011126CA06CE22CC4AC8814429C1A1C145
:1014C000A14763F3F500A1451C452A840149898B96
:1014D00091E72EC6EFE0DFC6B2452A89814463CA90
:1014E00005009397150063C607004A8622856D3371
:1014F000AA841C44898B81E74A85EFE0FFC5F2404E
:10150000624426854249D24405618280797122D4A1
:1015100006D626D24AD04ECE014451C1C9C141C2DD
:101520009309F6FF93E73900F18FB5EBA14763F319
:10153000F500A1459307C6FF13C7F5FF014463609B
:10154000F706BE9563CD0504B7040040ED8CA1E815
:101550001C4532842A89898B91E72EC6EFE05FBE55
:10156000B245AA8426864A85053BAA993304804061
:1015700033F48900630E85000327C5FFB7060040DA
:10158000B307A440558F232EE5FED58F232EF4FEFE
:1015900083278900898B81E72685EFE0FFBB2285C1
:1015A000B250225492540259F2494561828041114D
:1015B00022C426C237050020370400208D6493071B
:1015C00085111304440993850450130585114AC0FD
:1015D00006C61CC0CD3C2A891145EFF02FD811E971
:1015E0000C403765000013860450130585EFEF307B
:1015F000006CB24022444A859244024941018280F3
:10160000397122CC3EDA2A845C10094506CE2ED2EE
:1016100032D436D63AD842DC46DE3EC6EFF00FD49E
:1016200009E5B2452285EF308068EF101076373536
:101630000000130545556F10307B4111054506C666
:1016400022C4EFF0AFD119E537650000130505F4AA
:10165000EF30C077B7370020354723ACE778813FBC
:101660002A840DC10945EFF06FCF01E9376500000D
:10167000A285130585F5EF3080632285B2402244B0
:1016800041018280EF101071EF10F0002A8401CD2B
:101690000945EFF0AFCC75F137650000130545F74C
:1016A000EF30C072D9BFEF00906F2A8479F5A92876
:1016B0002A8461F565282A8411C90945EFF00FCA0B
:1016C0004DFD37650000130585F8D9BFEF10605652
:1016D0002A8411C90945EFF06FC845F1376500004C
:1016E0001305C5F975BFEF10F0242A8459F5EF20D2
:1016F000A0742A8459D10945EFF04FC63DFD3765E6
:101700000000130505FB69BF411122C437340020D6
:101710009307847506C6DCC3232CF474B707002036
:1017200003A547099305000F6133B707002023ACD9
:10173000A70805C9210581472946230C05FE032773
:101740008475232EF5FE8507544318C154C188C201
:1017500048C36105E393C7FE0145B24022444101FD
:10176000828037250002130505D0C5BFB7070020CA
:1017700003A54709411122C49305801037040020B6
:1017800006C61304C4092D3308C021C9930680106E
:10179000014693058010EFF06FCAB736002093879B
:1017A0000676DCC323A0F6761C4001471945F107F5
:1017B00003A606762397E7FE05074C4290C342072F
:1017C000CCC39CC15CC241839387C702E312A7FECE
:1017D0000145B240224441018280370500021305D1
:1017E0001560C5BF61C6C167ED1763E6E70CE9C9BF
:1017F00061CB0111110726CA93140701C1804AC8A1
:101800002E89B385950256C2B70A002003A54A095E
:101810004EC652C406CE22CCB28959392A8A55C541
:10182000EFE01F92B737002093870776C043631617
:10183000F402EFE07F9203A54A09D285EFF0FF9111
:101840003705000213054560F2406244D244424924
:10185000B249224A924A056182801C4058401CC30A
:10186000D8C385472314F4FE930784FF232EF4FE88
:10187000232CF4FE930784005CC41CC4231524FFAE
:10188000231694FE232244FF231A04FE231B24FF65
:10189000231804FE231904FE40C000C0EFE0DF8BD4
:1018A0008357E4FE014523A0F90079BF3705000204
:1018B0001305C560828037050002130535608280FC
:1018C000370500021305D560828037050002130535
:1018D00025609DBF797122D426D24AD04ECE52CCFB
:1018E00056CA2A8406D65AC82E89B28AB6893AC6FA
:1018F00013FA1500EFE0DF849307C0023304F4020B
:10190000B707002083A7C709AA843E9483574400E1
:10191000638D071E8357840083A609003247F117A1
:1019200063190A0063F9F600370400021304F46136
:1019300005A063E1D71E93171A00A29783D607016B
:10194000A5E619EB37040002630B0A1C130464615B
:101950002685EFE07F807DA0B737002083D707780A
:101960006392071C13052A000E051105B7370020E6
:10197000BA85229503AB4778EF00207E2685EFE0FD
:10198000AFFDEF007040EFE0AFFB83574B00AA8440
:1019900013F7070409CF93F7F7FB3704000223126C
:1019A000FB00130474606DB7FD162398D70093777E
:1019B00039000547638FE708ADC30D476386E70A23
:1019C0000945EFF0AF9919E537650000130505FCEF
:1019D000EF30C03F1349F9FF13791900930729002D
:1019E0008E073307F40008479107A2976306F510A6
:1019F000130585FBEF00C0792685EFE0EFF5014484
:101A0000EF0090382285B250225492540259F24984
:101A1000624AD24A424B456182800355C400035753
:101A20006400930715006393E7022316040003572D
:101A300084001C403305E5023E9593774900B9C701
:101A400063120A041C4123A0FA0069B72316F400AC
:101A5000F9BF0355C40019E1035564007D15420523
:101A600041812316A400E1B70355E4000357640045
:101A7000930715006395E700231704004DBF231754
:101A8000F40075B783A70A001CC1A9B79307C7FF65
:101A9000AA9783A50900631F0A0203AA07002A86E2
:101AA0005685D286EFF0CF951DC12AC60945EFF0C5
:101AB000EF8AB2461306600F11FD99653765000085
:101AC000938545001305C5FDEF30601E21B723A0A7
:101AD000490109B78CC3AE865686BA85EFF04F929E
:101AE000E30A05EE2AC60945EFF04F87B246E31335
:101AF00005EE1306F00FD1B706094A948357040187
:101B000085072318F4000144A1B53704000213042B
:101B1000A4603DBD370400021304546115BD1304D5
:101B2000D4613DB5370400021304646015B59547D0
:101B300063E7A704B1C929CA1C42A1CF011122CC75
:101B400026CA06CE328436872E86AA8489EAA286E1
:101B50006244F2402685D24481450561A5BB36C664
:101B60002EC4EF1070482246324775D1F2406244CD
:101B700037050002D244130585610561828037056F
:101B800000021305E5608280370500021305F56049
:101B9000828037050002130505618280011106CE9F
:101BA00022CC32C6954763ECA7029DCD39C2368759
:101BB0002E862A8489EA74008D452285213BF240D5
:101BC00062440561828036C42EC2EF10F041124695
:101BD000224775D13705000213059560CDB737054B
:101BE00000021305E560E1BF37050002130525611A
:101BF000F9B73705000213053561D1B74111054525
:101C000006C6EFE0FFF2EFE0AFD30945EFE01FF5C6
:101C100005E19966B7650000376500009386060AFE
:101C20001306A0079385050313054505EF3020082B
:101C300001A019C5B707002023A0A70A014582808B
:101C400005458280011181470148280006CE3EC427
:101C500042C6EF105053938701849843A246D04365
:101C6000B245BA96F24033B7E6002E96329794C347
:101C7000D8C3056182801387018458439387018408
:101C80006362B7046315B7009843636DA7024111FF
:101C9000054506C6EFE0DFE9EFE08FCA0945EFE052
:101CA000FFEB05E19966B765000037650000938694
:101CB0000607130650059385050313054505EF2018
:101CC000107F01A088C3CCC37956FD5623A4C180E0
:101CD00023A6D180828083A70188011106CE22CC61
:101CE00026CA4AC8F9C3814701483EC442C6EFE04C
:101CF0002FC52A892800EF10104993870184984343
:101D000083A84700B304A700B387B80033B4E40046
:101D10003E949387018503A8470003A30700138619
:101D2000018493860185636604016313880663F169
:101D30006406A2473244BA9733B7E700A2984697A1
:101D4000B384A7001CC258C2B3B7F4002E973384E3
:101D5000E70063660401631D880263FB64020545B6
:101D6000EFE01FDDEFE0CFBD0945EFE03FDF05E12C
:101D70009966B765000037650000938686081306EC
:101D800000079385050313054505EF20507201A058
:101D90004A8584C2C0C2EFE02FBCA285F2406244F3
:101DA00026854249D2440561828081440144F5B7C9
:101DB00039714AD84ED652D45AD036C63AC406DE05
:101DC00022DC26DA56D25ECE62CC2A89AE89328AED
:101DD0003E8BEF0090222247B2466368B700AA8785
:101DE0002E866392E50C63F0A60CB6873A86854A88
:101DF000938681809842D442938481806366D60022
:101E00006394C60E63F2E70EB705002003A805072A
:101E10000965130505F43358A8023305F740333735
:101E2000A700918EAE8B6394E600636F050B33853C
:101E3000274133B7A700B3053641998D2A842E8CEC
:101E400089E5370700016362E506B707002083A72D
:101E5000070A91C38297370400017D14B3078900F4
:101E600033B627014E96014C63930A007D5A37071B
:101E700000202324470B9CC0D0C063070B00A13D6A
:101E800023A0A18423A2B18422856254F250D254AB
:101E90004259B259225A925A025BF24BE285624C85
:101EA00021616F101025814AA1B7E37F05FBB707B9
:101EB000002083A7070A81C701458145829703A4B3
:101EC0000B078967938707F43354F402D840014C19
:101ED000B307890033B627014E96E367E6F863152A
:101EE000C7009840E3E2E7F8F2506254D2544259F6
:101EF000B259225A925A025BF24B624C21618280A3
:101F0000373700200327477837380020B287032867
:101F10004879105BB706002083A606076300060514
:101F200037D89A3B130808A08D82B356D80231687F
:101F30001308083518473358D8026348E800373784
:101F40003101130707D03357D7021358F741B306AF
:101F5000A70033B7E6002E98429799BD096713078B
:101F600007F4B3D6E6027957B306D7403337D70024
:101F70001347F7FFDDB7035745009377470085CF39
:101F80004111054506C6EFE0BFBAEFE06F9B09457A
:101F9000EFE0DFBC05E19966B7650000376500003A
:101FA0009386460B1306D01193850503130545054B
:101FB000EF20F04F01A0B7370020145983A74779CD
:101FC000638DF606B707002083A60707B1659385E2
:101FD000053593D73600B7D69A3B938606A0B3D67D
:101FE000F6020353650037360020832E85009307E1
:101FF0008661131E3300F2971308850483A84700F7
:1020000013068661B3D5D50263D0D505639FF8006A
:10201000B70500209385450AB7060080B3D6660051
:1020200003A30500B3E6660094C1232615053CC54D
:1020300023A00801729623220601137757F5136730
:1020400047002312E500828037363101130606D09F
:10205000B356D60214C5639DF80037060020130658
:10206000460A0C42B7060080B3D66600CD8E14C275
:102070009C43D4433CC574C523A0060123A2070199
:102080006DBF8356450093F74600A1CFB7370020B8
:10209000185983A747796303F70478453C450356ED
:1020A00065001CC3D8C337370020931736001307C9
:1020B0008761232605043E975C4323240504639F20
:1020C000E700370700201307470AB7070080B3D798
:1020D000C700104393C7F7FFF18F1CC3ED9A23127B
:1020E000D500828083574500411122C406C613F7EC
:1020F00047002A840DC771378357440093F7070AB6
:1021000099CB8545130504018D258357440093F72A
:10211000F7F52312F400B24022444101828013F704
:10212000870079DB74453845DD9B98C254C323266C
:102130000504232405042312F5007DBFB7370020D2
:1021400083A7477823A407008280835745004CC5A6
:1021500093E707022312F5008280B737002083A798
:10216000477803D747001386870493668700239236
:10217000D7001441C842B4C7E8C710C1D0C2FD5649
:102180006387D500136787082392E700CCC7828056
:1021900078453C45411122C406C61CC3D8C38357A9
:1021A0004500232605042324050413F777FF231293
:1021B000E50093F707082A8491CB854541057523EF
:1021C0008357440093F7F7F72312F4008357440032
:1021D000C98B91E722852244B240410169BBB240DC
:1021E00022444101828041BB09C523A4A184014549
:1021F000828005458280B73700204111938787612F
:1022000006C613870710DCC39CC3A107E39DE7FE46
:10221000B7070020054523A2070A4D2323A6A18462
:10222000854709C985217956FD5623A4C18023A677
:10223000D1808147B2403E8541018280B7070020AE
:1022400003A5470A0DC1411106C6EF105055B73717
:1022500000200E0593878761AA97C843B2401305F3
:1022600085FB41018280B737002083A7477913059A
:102270008007B307F50203A5C1873E95828041110F
:1022800006C622C4EFD0DFEB553F835745002A84B2
:1022900093E707012312F500B7370020138747782B
:1022A00048C323A2A778054723A0E188EFF0BFA287
:1022B00008D04CD02285F1337956FD5623A4C18035
:1022C00023A6D1807D57B707002023A4E70A085032
:1022D00018444C508547B306A7001356F7412E9675
:1022E00033B7E60032971058EFF09FAC0545EFE0AA
:1022F000FF8611E92244B240376500001305C5018D
:1023000041016F20B02CB240224441018280011172
:1023100026CAB734002022CC03A4447806CE4AC88B
:102320004EC6EFF05F9B58501C5063E7E5002E86C9
:102330006316B7006374F500EFF05F8CB7390020C7
:10234000145803A749796388E6001844B307F54099
:10235000B307F7401CC48357440008D050D013F78C
:10236000070A59C35444AA85054713050401252EBD
:10237000F13593844478C8C02A8981446302A40259
:102380008357440018508544BD9B2312F4008357A3
:10239000450093E707012312F5005C5018D15CD18A
:1023A0004A85C5310326090383A749796304F604E6
:1023B0000327890083260902832549029357F741A1
:1023C000BA9633B7E600AE973E97032509028325F8
:1023D00049028547EFF0DF9DF2406244268542497D
:1023E000D244B24905618280AD8BD9F32285EFF0EA
:1023F0009FB8BDBFB707002083A6070789679387EB
:1024000007F4B3D6F6027957B306D7403337D7006F
:102410001347F7FF5DBF83A70188797106D622D4E1
:1024200026D24AD04ECE52CC56CA5AC85EC695EB7A
:102430000545EFE0EFEFEFD0BFD00945EFE00FF239
:1024400005E19966B7650000376500009386860C44
:10245000130620219385050313054505EF2030055C
:1024600001A0EFD0FFCDB707002003A7870AFD57D3
:102470002A898144631BF70683A7818499C38297C5
:10248000AA8483A9C184814B138AC18403A449000F
:10249000638B8904EFF03F842A8BAE8A5C4463E44B
:1024A000FA04639557011C44636FFB0203250A007D
:1024B000A285E92A835744FF13F787020DC313F758
:1024C00077F5420793F687004183B9EA231AE4FEC1
:1024D000898B91E7130504FFEFF0FFA9854B03A457
:1024E0004900E39D89FAB3E474017956FD5623A4AB
:1024F000C18023A6D180B1C4B737002083D7077825
:10250000A9E3EF1080112254B2509254F249624A6A
:10251000D24A424BB24B4A85025945616FD0DFC364
:1025200013670704231AE4FE545C185C98C254C372
:10253000232E0402232C0402232604022324040253
:1025400041BFEFF04FF9B737002083A74778D45346
:10255000985363E6D5006396B6006374E500EFF028
:10256000EFE9B7360020905B83A646796308D60072
:1025700094473307E5403387E64098C788D3CCD3E8
:102580000546EFF0FF9741B783A7018881CBB737A6
:10259000002083D7077899E36F10200882804111CB
:1025A00022C4373400209307847606C6DCC3232474
:1025B000F476B707002003A5470993050030EFE044
:1025C0003FEF23ACA1841DC92105814713060003F9
:1025D00003278476231FF5FE231C05FE544385073D
:1025E00018C154C188C2C20748C3C1834105E391E1
:1025F000C7FE0145B24022444101828037050002F6
:1026000013050570C5BF03284500AA886314050398
:10261000B707002003A507078967938707F4335599
:10262000F502F9573385A740B3B7A70093C7F7FF63
:10263000BE858280014581470327C8008326880024
:10264000636DE6006314C70063E9D5000328480002
:102650002E85B287E39208FFE1BF3366F50005C21D
:1026600033E6E60071D63386A640B3B5C60033081C
:10267000F740E31FB8FA9305803EE3EBC5FA3685D1
:10268000BA877DB748C108C101458280D8419C41C5
:102690001CC3D8C37D57FD5723A2050023A0050006
:1026A00098C5DCC58280011122CC06CE26CA85479A
:1026B0002A84630CF70089476305F7063765000035
:1026C000BA851305050EEFE0BFF39384418632C649
:1026D0002EC436C2EFD0DFA6B707002003A7070736
:1026E0008967938707F43357F7029246A24532462B
:1026F000B307D7023337D702BE95B3B7F5000CC482
:1027000032973386E700DC4050C4639FF40044C036
:1027100004C080C0C0C06244F240D24405616FD0A2
:10272000BFA39384C18565B7D84794476366E60025
:102730006318C70063F6D5005CC004C080C3D9BF6E
:10274000639AD5006318E600D8431CC058C000C384
:10275000C0C3D1B79C40D8476367E600E316C7FE05
:102760009847E3F3E5FE9C43FDB7411106C622C43A
:102770001387F5FF854763F8E70037650000130509
:10278000050EEFE0FFE72A84EFD09F9B1C447D57A6
:102790006395E7005844630EF70058401C401CC383
:1027A000D8C37D57FD57232204002320040018C4FA
:1027B0005CC42244B24041016FD01F9A411106C649
:1027C00022C485476305F50289476305F50209457B
:1027D000EFE0CFB8014419E5376500001305C50FD8
:1027E000EF20C05E2285B2402244410182801384E2
:1027F0004186CDBF1384C185F5B7011106CE22CC29
:1028000026CA4AC84EC62A89AE8952C4EFD05F9301
:102810002A8A4E86CA8513854186F533AA842E847A
:102820004E86CA851385C185F93BAA892E895285B2
:10283000EFD09F92636889002685A28563162401E4
:1028400063F499004E85CA85F2406244D2444249FD
:10285000B249224A056182805C46184663E6F5006B
:102860006390B704637EE5023305A7403337A700C2
:102870008D8F998F1307803EB335A702B7060020CE
:1028800003A60607411181460D8206C6B307F7026B
:102890003305A702BE95EF10E077B2404101828078
:1028A000014582803971A1474ED652D456D25AD0B2
:1028B0005ECE06DE22DC26DA4AD83EC2B73A0020D7
:1028C000214B9309803E376A0000854B03A50A77A8
:1028D000FD5650002C00EFF08FA56DF99247E3975D
:1028E00067FFA247E5D7EF00F0472A89A2473245A4
:1028F000AE848297EF001047330925413335250117
:10290000858D3384A54019E0E3F22BFD0D45EFE002
:10291000EFA44DFD338489021306803E8146B3B592
:10292000290333852903A295EF10C06EA2452A869C
:1029300013054A11EF20A03751BF938701879843B1
:1029400023020500914618C188C31C45194501465C
:10295000B3F7A702373500201305857191458A0723
:102960003E956FE0AFAD7971E1460146E145280043
:1029700006D6EFE0AFACB73700009387478A3EC476
:102980009307002D3ECA37350020B76700009387B4
:10299000C7132C00130545773ECC23160100EF002A
:1029A000C07FB2504561828003AF418703284F004A
:1029B00063070F131C461947373E0020B3F7E702A1
:1029C00013078E71011122CC26CA4AC84EC6328422
:1029D00006CE52C456C2FD52FD5F0146814E130E13
:1029E0008E711949B70300FFB70400C08A07BA9770
:1029F00003A30700370700017D17B378E300B3F99D
:102A0000E800832788FEB3F727038A07F2979443E9
:102A1000B3F7E60033FAE700B3F67600B3E6460113
:102A200033FA960063169A04032A0401832A08FFE6
:102A300063964A0142860D3548C495A833737300E6
:102A400033633301131A230063540A02F98E8DC2D3
:102A5000638F0804930608FE63E4170733FA17032D
:102A600063180A00B3D7170363F4F701BE8FB68E5D
:102A700003284800E3170FF9638F0E0404489DC430
:102A800083A78E001947B3F7E70213070003B38744
:102A9000E70203A9C1863E9913060902753B832705
:102AA00009013385A74033759502898C44C4F240EF
:102AB0006244D2444249B249224A924A0561828024
:102AC00033FAF802E3160AFAB3D7F802E3F257FA38
:102AD000BE82368671BF61DE13060602A9BF828000
:102AE000411122C44AC22A844EC006C6EFF0AF9EEE
:102AF0001C4819472A895CC489472302F4001C44F6
:102B0000AE89B3F7E70213972700B7370020938702
:102B10008771BA9798439356E701858A89CA6348B3
:102B20000700B7060080558F98C32286B53D5444F0
:102B30000947CA854E8613050402EFF0DFB6EF00A1
:102B4000102119C92244B2404A85CE8512498249D2
:102B5000054641016FF0CFBAB24022441249824982
:102B60004101828039714AD826DA83A4418722DC68
:102B700006DEC0404ED652D456D25AD05ECE62CC7B
:102B800066CA6AC80145638B8406EFF0CF94AA8AAF
:102B900013894187AE890145373B0020054A894B9F
:102BA000555C994C5C4463EBF904639537011C4414
:102BB00063E6FA0403250900A285130D04FEEFF075
:102BC000FFAC832784FF03250B7781463EC4832710
:102BD00044FF21462C003EC6EFE05FFC834754FED5
:102BE0009DEF6A85993B832784FE6367FC02990702
:102BF0002324F4FEC0400545E39684FAF250625463
:102C0000D2544259B259225A925A025BF24B624C48
:102C1000D24C424D21618280B3F79703D1BF6395B7
:102C200047016A85753DF9B7E39677FD230244FFB6
:102C3000D1B7373500204111E145E1460146130582
:102C4000857126C206C622C4B7040020EFD01FFF3C
:102C500003A5440993050012EFE09F855DC9930623
:102C600000120146930500122A84EFD03FFD23A6EF
:102C7000818623A881862324040093070403054743
:102C8000994698C723A8F7FC050793870703E31A1B
:102C9000D7FE37360020214781461306067799452F
:102CA000014513040412EFE0FFB319CD03A5440955
:102CB000A285EFE08FCA370500021305B530B24098
:102CC0002244924441018280EFF0FFC919C903A553
:102CD0004409A285EFE06FC8370500021305C5302F
:102CE000F9BF0945EFF09FAD23AAA18601E903A52D
:102CF0004409A285EFE06FC60545D1B7EFF09F9874
:102D00007DF537350000130545B6EFF0EFCD45D919
:102D1000F9BF370500021305753055B7011126CAF2
:102D20004AC84EC652C406CE22CC37390020EFD056
:102D30002FC1B7340020AA89130989779384C478F6
:102D4000370A002003244900631C24016244F24036
:102D5000D2444249224A4E85B24905616FD0CFBF65
:102D600058401C40832544FE03254A091CC3D8C390
:102D700023220400DC4004C05CC080C3C0C0EFE07C
:102D8000CFBD232204FE7DBF411122C406C6793780
:102D900083A7818781C705458297D5BFEF00D041C2
:102DA000FDB709C523ACA186014582800545828017
:102DB000937705018DEB937745009DEB93770502A3
:102DC0008DEF9377850089CB1375050805ED376581
:102DD00000001305051B8280098915C937650000AD
:102DE0001305851B828037650000130585198280D5
:102DF000376500001305851A8280376500001305CA
:102E0000051A828037650000130505188280376532
:102E100000001305C5188280411126C29304800763
:102E2000B30495024AC01389C18703270900B7D6A6
:102E3000CCCC06C622C49386C6CC26975C5790435A
:102E4000631BD6020C43B7D6CACA138447009386C5
:102E5000A6AC636DB4001857BA97338487402285B7
:102E6000B240224492440249410182801040E3145E
:102E7000D6FE1104F9BF0945EFD05FCE7D5465F150
:102E800083270900376500001305051CBE94EC403C
:102E9000EF10F061E9B779714AD037390020832605
:102EA00089799307800726D28506B386F602B7078D
:102EB000002003A5470906D622D44ECEB68536C6D5
:102EC000EFE00FDF23AEA1864DC1B24601469384E9
:102ED000C187B685EFD09FD6373700209307C778D4
:102EE000B7360020DCC32326F77893878677DCC3C8
:102EF00023ACF6769C400144054593878704B5458D
:102F00008326C77823A487FE239EA7FAD04294C3C2
:102F10000504D0C31CC2DCC293878707E312B4FE4A
:102F2000B739002013854978A1460146A145EFD065
:102F3000FFD00327897993078007B2503387E702D0
:102F40009C4002599254BA973707200080DB45070E
:102F5000225423A2F978D8C3F249B73700207D570D
:102F600023AAE77845616FF00FA9B25022543705C4
:102F7000000392540259F2491305052045618280ED
:102F8000411122C426C22A84AE840859CC454AC0C5
:102F900006C6328909259C447D5708C03CC0DC44E4
:102FA00023262403232C04021CD489472312F40073
:102FB00083D74400232E0402232404002313F400A7
:102FC0009C4023260400232204065CD8FD573CCCF9
:102FD0009C48B240232604067CC0FD5718CC5CCC2C
:102FE0002244924402490145410182806301051057
:102FF000638405109C496386071098416308071095
:1030000083D64500FD4763E8D7106398F600B737CD
:103010000000938787D86310F710D8458D67938792
:10302000075063EFE70E01E79307002DDCC5DC4591
:10303000E156014763E3F6001D47BA97E19BDCC503
:103040001307F0126373F70E01114AC837390020D5
:1030500006CE22CC26CA4EC62E84AA8952C4130993
:10306000C978EFF0BFCBEFD0AF8D832449006390D8
:103070002403EFD06F8E3705000213051521F240AF
:103080006244D2444249B249224A05618280D84012
:103090009C40138A84FB1CC3D8C323A2040023A032
:1030A0000400EFD06F8BB70700204C4403A54709FD
:1030B0002146EFE0AFC52A8615E1EFD06F88832760
:1030C000490023A02401DCC084C323229900EFD04F
:1030D000AF88370500031305052055B7A285528533
:1030E000453551FD83A784FE23A0F90049BF37056C
:1030F0000002130575208280370500021305152094
:1031000082803705000213055520828037050002B2
:103110001305452082803705000213053520828083
:1031200037050002130505228280370500021305CA
:10313000652082807971E1460146E145280006D686
:1031400022D426D2EFD09FAFB7370000938787D81D
:103150003EC4930700503ECAB76700009387471EDE
:10316000B73400203ECC2C00FD471385447923164C
:10317000F100AD3D2A8401ED03A544799307800752
:10318000B387A70203A5C1873E95EFF0CF852285BF
:10319000B2502254925445618280411122C426C209
:1031A00006C64AC02A849935AA841DE51C4013042A
:1031B0008007B307F40203A4C1873E94EFC05FF811
:1031C0002A892285EFE03FDB4A85EFC0FFF883A71D
:1031D000018899C3EFF04FBBB240224426850249D3
:1031E000924441018280B737002083A74779630862
:1031F000F512B737002083A747776307F51201114F
:103200004AC8373900208327897906CE22CC26CABE
:103210004EC652C456C2637EF51013048007B3072E
:10322000850203A4C187AA8A9384C1873E94EFC014
:103230003FF1835744002A8A13F7170005C3EFC0F4
:10324000BFF1370500021305A520F2406244D244C5
:103250004249B249224A924A05618280C18B9DC38C
:10326000B737002003D70778BE8909CF1145EFD0C3
:10327000FF8E19E53765000013058514EF10103532
:10328000239009782285EFE0FFE5FD573CCC83577A
:1032900044002322040613078404C18B4C54A1CBA1
:1032A00085472312F400B737002083A7877752851C
:1032B000D4433CC474C498C2D8C303278979930704
:1032C00080073387E7029C40BA97373700202322D4
:1032D000F77845472392E700784023A85703CCD7D7
:1032E000F8C3EFC07FE7EFF02FAA0145B9BF8547CC
:1032F0002312F400B73700209387C778D4433CC427
:1033000074C498C2D8C3B707002003A54709EFD0FB
:10331000DFE4528523260402EFC01FE4F9B7370526
:10332000000213054521828037050002130515228E
:103330008280370500021305752001BF411122C4A8
:10334000130480073305850203A4C18706C62A94A7
:103350005C58284082970858793519CD0945EFD037
:10336000EFFF19E90C582244B240376500001305FD
:10337000051F41016F10B013B24022444101828009
:10338000011106CEEFC0DFDB2AC6EFE03FDB32459E
:10339000EFC09FDCEFF04F9FF24001450561828056
:1033A000411126C206C622C44AC0AA84352921E595
:1033B000B737002083D70778A1E799E42244B240C9
:1033C0009244024941016DBF2A84EFC07FD7B737CD
:1033D00000202A8903A54778A685EFE01FD74A85F4
:1033E000EFC09FD7EFF04F9A2285B240224492441B
:1033F000024941018280370400031304D420EDB751
:10340000370400021304E420C5B7411106C6EFC01B
:103410003FD33737002083570778B2408507231002
:10342000F77841016FC05FD3411106C6EFC05FD18D
:103430003737002083570778AA8689CFFD17C20740
:10344000C1832310F77899E7EFC01FD1B240410143
:103450006FF08F93B240368541016FC0FFCFF1CD41
:10346000B737002083A78779637EF50C011126CA40
:1034700093048007B307950283A4C18722CC4AC86E
:103480004EC606CE2E842A89BE94EFC07FCB83D74A
:103490004400AA8913F7170011CFEFC0FFCB3705FF
:1034A00000021305A520F2406244D2444249B249C9
:1034B0000561828098402312F40283D7640078C8A3
:1034C00031462313F4029C54938584051305840329
:1034D0003CC4DC547CC4EF10A05AFC50985C7CC007
:1034E0009307000319C3835767001CD8DC5CA94607
:1034F00091C3D443F0409305000254D818D4FD463C
:103500005CD4232024032285EFD06FFDA30F040099
:103510009854DC544A85BA977848E19B3CC8998F07
:103520003CCCEFF07F8F68CC05051335150028D013
:103530004E85EFC07FC20145BDB7370500021305B8
:10354000152082803705000213057520828003A5AF
:1035500001888280411106C6EFE0CFEEB240410102
:103560006FE07FEB411106C6EFE0EFF6B7070020F2
:1035700003A607078967938707F43356F602814647
:10358000EF005029B24041018280411106C6EFC0D0
:103590003FBB01A07DA2B7D7CCCC9387C7CC910508
:1035A0001CC22E96719A37D7CACA930686F893071B
:1035B000C6F81307A7AC98C39107E31EF6FEB7370A
:1035C00000009387A7582326F6F8B73700009387A3
:1035D000C7332324F6F88967938707882322A6FA3E
:1035E000232EF6FE36858280411106C622C42A8427
:1035F000EFC01FB52285F52A2A8419E9EFE03FC8FC
:103600003765000013050521EF10407CEFC05FB562
:103610002285B240224441018280B7E700E0116771
:1036200023A0E7208280411106C6EFE05FCEB737C6
:103630000020138747785843B24023A2E77841011E
:103640008280000000000000000000000000000078
:10365000000000000000000000000000000000006A
:10366000000000000000000000000000000000005A
:10367000000000000000000000000000000000004A
:10368000130181F806C216C41AC61EC822CA26CC67
:103690002ACE2ED032D236D43AD63ED842DA46DCC2
:1036A0004ADECEC0D2C2D6C4DAC6DEC8E2CAE6CC92
:1036B000EACEEED0F2D2F6D4FAD6FED8F32200301B
:1036C00096DA970200209382220C83A2020023A0A4
:1036D0002200F322103416C0EFF0FFF4970200200E
:1036E0009382820A83A2020003A1020082427390A5
:1036F0001234D652739002309240A2423243C243F7
:103700005244E244724582551256A2563257C2576D
:103710005258E25872598649164AA64A364BC64B49
:10372000564CE64C764D865D165EA65E365FC65FED
:10373000130181077300203000000000000000002A
:103740000000B70705FA37E700E08D073CC7828025
:103750007571054506C722C526C34AC1EFD00FC003
:1037600019E53765000013050522EF1020660545B1
:10377000EFD0CFBE19E53765000013050524EF1023
:10378000E064014437690000B1446C082285EFF021
:103790001FCD15E50545EFD06FBC15E1F255035679
:1037A0002104035501042EC632C4EFF06FE0224617
:1037B000B245AA8678081305C925EF10404F0504C5
:1037C000E31594FCBA402A449A440A49496182802C
:1037D000938741889843050798C3828093874188DF
:1037E00098437D1798C3828003A541883335A00094
:1037F0008280B707002003A70707B737002093563A
:10380000370023AED7788967938707F43357F702D9
:10381000B7370020856623A0E77A23A20188B7E79F
:1038200000E023A0D710916623A0D710FD56238671
:10383000D7402387D74023A4A188B7F700E023A06F
:10384000070023820700A382070023830700A383C6
:10385000070023840700A3840700238507007D1742
:10386000A38507009376F70F2386D700935687002A
:1038700093F6F60FA386D7009356070193F6F60F3B
:103880002387D7006183A387E70023880700A388E5
:10389000070023890700A3890700054798C301454E
:1038A000828039713ECC83A7818806DE16DC1ADA65
:1038B0001ED82AD62ED432D236D03ACE42CA46C8E4
:1038C00072C676C47AC27EC091C38297F250E25229
:1038D0005253C2533255A255125682567247E2478E
:1038E0005248C248324EA24E124F824F216173009D
:1038F0002030B7F700E09843799B98C323820700F4
:10390000A382070023830700A38307002384070003
:10391000A3840700238507001307F5FFA38507008D
:103920009376F70F2386D7009356870093F6F60F0A
:10393000A386D7009356070193F6F60F13351500AB
:103940002387D700898D6183A387E70013F7F50FDD
:103950002388E70013D785001377F70FA388E700C4
:1039600013D705011377F70F2389E700E181A389B6
:10397000B70037E700E085662320D7289843136710
:10398000170098C38280011106CE22CC26CA2A8451
:10399000EFC00FFBB7F700E08C47C443D8479C4B00
:1039A0002EC618C05CC0EFC02FFBF2406244B24587
:1039B0002685D244056182800145828023A8A188A2
:1039C00023AAB1888280397122DC26DA5AD03734B2
:1039D000002006DE4AD84ED652D456D25ECE62CCF5
:1039E00066CA6AC86EC6AA84EFC08FF5130704734F
:1039F0001C432A8B130404735CC381CC0547637496
:103A0000F7002322040083578400B1E75C40B1C76C
:103A100005A8F917854663F2F6026254F250D254B3
:103A20004259B259225A925A025BF24B624CD24C22
:103A3000424DB24D21616FC02FF283578700F1FFD5
:103A400023260400EFF07F9C1C4848409C4382974B
:103A500019C5054A05A623220400014A81A85C4035
:103A60008546184CF91763E2F6041C4B9DCF8297EC
:103A7000054A5C48639D07120545EFD06F8BEFC088
:103A80002FEC0945EFD08F8D05E19966B7650000F1
:103A9000376500009386C62913063009938585276C
:103AA00013054505EF10A02001A0054A0329840154
:103AB000E30109FC83274900CDDF83278900D5DB9B
:103AC0008327C900DDF783290900E38409FA938776
:103AD000018903AD070003AC4700B3678D01D1DB5B
:103AE000B707002083AB070781466A8593DB3B005D
:103AF0005E86E285B7D49A3BEF00500B938404A016
:103B0000B33795025E868146B385950233059502EB
:103B1000BE950923AA8AAE8C5E8681466A85E285B7
:103B2000D529330C950237D69A3B130606A0814659
:103B3000B3859502569CB33A5C0133359502B38444
:103B4000A500E694D6946285A685E921B30A3503DB
:103B500037D69A3B130606A08146B3853503333525
:103B60003503B38BA5006285A685EF003004B3371B
:103B7000350337D69A3B130606A08146B385350335
:103B800033053503BE957921B384AA00AE9BEFE0DF
:103B90008F948327090108D04CD08297B3BA54017F
:103BA00083274900DE9A2685D6858297D9B5584065
:103BB00005EF8443B1E40545EFC09FF7EFC04FD850
:103BC0000945EFC0BFF905E19966B76500003765A3
:103BD00000009386C6291306F009938585271305EF
:103BE0004505EF10C00C01A085466314D70084473B
:103BF000D1B789466314D700844B6DBF844F5DBF36
:103C00005A85EFC06FD563040A005C4491E3829447
:103C1000EFC00FD35C402A8B91EB5C48DC439DC71F
:103C20008297584089476313F70229A8054763958F
:103C3000E7005C48DC47E5B709476399E7005C4863
:103C4000DC4BF9FF1C4CDC4B639A07101C5058509E
:103C5000D98F63860710832A8401EFC06FCEAA8BA9
:103C600083A7CA00B7D49A3B938404A0829783A702
:103C70008A002A8CAE8C8297B707002003A9070719
:103C800081466285135939004A86E685EF00007245
:103C9000B337950203AD0A0081466A86B385950263
:103CA00033059502BE95BD26AA89AE8D6A868146EA
:103CB0006285E6858526B385950237D69A3B13063D
:103CC00006A08146B30C950233359502CE9CB3B95C
:103CD0003C012E95338CAD004E9C6685E2851D2EF1
:103CE000B3852503045037D69A3B130606A08146B8
:103CF000B3392503B3072503AE994C506685AE99B9
:103D0000E285BE94B3B7F400BE994D25B3372503C1
:103D100037D69A3B8146130606A0B38525033305A3
:103D20002503BE95C52C3389A400CE95B3349900E4
:103D3000AE94014881474A85A6851CD023220403FE
:103D4000EFD07FF34A850146A685EFE06F9B83A7FE
:103D50004A0182975E85EFC02FC011A0829748402C
:103D600001C51C48DC438297184089476314F7005B
:103D7000232004005A85EFC02FBE63020A0262545A
:103D8000F250D2544259B259225A925A025BF24B23
:103D9000624CD24C424DB24D21616FF0EFE8F250CF
:103DA0006254D2544259B259225A925A025BF24B8F
:103DB000624CD24C424DB24D21618280B5C5411159
:103DC00022C406C685472E84630BF50219C98947AC
:103DD0006303F504372500021905B240224441016E
:103DE00082809C41B1C7DC41A1C7EFC06FB5B73736
:103DF000002023A08774EFC02FB60145F9BFEFC0A4
:103E00002FB4B7370020938707738146014794D3B7
:103E1000D8D380CFCDB79C4181CFEFC06FB2B73739
:103E2000002023A28774C1BF3725000209058280C4
:103E300037250002090555B741113735002022C446
:103E4000930680021304057301469305800213054F
:103E5000057306C626C24AC0EFC05FDE37450000C4
:103E60001305C59B23200400EFD0BFDC2A8439ED65
:103E7000374500001305659CEFE0BFF22A8439E561
:103E8000370900200325490993050002EFD04FE2CE
:103E90009384818988C0054415C9930600020146B0
:103EA00093050002EFC09FD98C40B747000093876D
:103EB000879B9CC10945EFF07FF02A8401C98C40A3
:103EC00003254909EFD06FA923A004002285B24041
:103ED00022449244024941018280797122D42A8489
:103EE00011658545110506D6EFC01FB29307002066
:103EF0002312F100371501408D473EC44C00E147C5
:103F0000130505803EC6EFC0DF8722C83744014055
:103F1000B70708000C08130504803ECC02CA231E14
:103F20000100EFC05FB0130504808545EFC03FBDC1
:103F3000B250225445618280011126CAB744014023
:103F400022CC4AC84EC606CEAE893289014493843B
:103F50000480634A2401F24062444A85D2444249C3
:103F6000B24905618280930500042685EFC09FBB9E
:103F70007DD9B38789008385070026850504C2059E
:103F8000C181EFC09FB9F1B77325103482807325CA
:103F9000203482807325303482800A858280C16714
:103FA000637EF5029307F00F1307000263ECA7008E
:103FB000972700009387C72FAA9703C507003305EB
:103FC000A74082802181972700009387672EAA97B8
:103FD00003C5070061473305A7408280B70700018A
:103FE000636EF5006181972700009387672CAA977D
:103FF00003C5070021473305A740828041819727E9
:1040000000009387E72AAA9703C5070041473305B5
:10401000A7408280B687B2882A832E88639D0614C3
:1040200063F9C50A4167636EE61AB7070001636367
:10403000F63493568601E1471727000013074727F8
:10404000369703470700BA97130700021D8F19CB55
:104050003398E500B357F500B318E60033E80701DD
:104060003313E50013D608013355C80293960801AF
:10407000C182935703013377C802B385A602420772
:104080003368F700637AB80046989307F5FF6364D6
:1040900018016367B8303E853308B8403357C8020B
:1040A0004203135303013378C802B386E602420881
:1040B00033686800637BD80046989307F7FF636511
:1040C000180179176363D8003E874205598D8145F1
:1040D000828001E60547B358C702416763EAE80EEC
:1040E000B707000163ECF82893D68801E14717274A
:1040F00000001307E71B369783460700BE96930719
:104100000002958FE5EB939E08013387154113DF7D
:10411000080193DE0E018545935703013355E703EC
:104120003377E703B306D5034207D98F63FAD70085
:10413000C6971307F5FF63E4170163E6D7263A85B0
:10414000958F33D7E703420313530301B3F7E70314
:10415000B30ED703C207B3E7670063FBD701C69767
:104160009306F7FF63E51701791763E3D7013687F5
:104170004205598D828063E2D504C16763E2F6048B
:10418000B707000163E4F61E13D78601614897273D
:1041900000009387E711BA9703C70700130E0002C8
:1041A0004297330EEE40631A0E0C63EDB61C3335A6
:1041B000C5001345150081458280814501458280F7
:1041C0009307F00F63F3D71C13D786002148C1B7BC
:1041D0001307F00FC686E37C17F193D68800A1473A
:1041E00039B71307F00FB286E378C7E49356860019
:1041F000A14799B5B398F80033D6D50013DF08016D
:10420000335EE6033397F500B356D500558F939E82
:10421000080193DE0E013313F50093550701B376C1
:10422000E603B387CE03C206CD8E63FBF600C696C7
:104230001306FEFF63E4161763F2F616791EC696A0
:104240009D8E33D6E60393170701C183B3F6E603C9
:104250003385CE02139706015D8F637BA7004697D7
:104260009307F6FF636817136376A71279164697CC
:1042700093150E01098FD18D45B5B357E600B3965E
:10428000C601DD8E33D3E50013DF0601B357E30328
:10429000939E060193DE0E013398C5013357E50066
:1042A00033680701935808013316C6013373E303DB
:1042B000B385FE024203B368130163FBB800B698EE
:1042C0001387F7FF63EAD80C63F8B80CF917B698B0
:1042D000B388B84033D7E803420813580801B3F84D
:1042E000E8033383EE02C208B3E5080163FB65000F
:1042F000B6951308F7FF63EDD50863FB65087917DA
:10430000B695C207416FD98F1307FFFFB3F6E700D9
:1043100093D80701718F4182B38EE602B385654061
:10432000B386C60213D80E013387E802BA96C29646
:104330003386C80263F3E6007A9693D80601469660
:1043400063E2C5026385C5003E8581458280416781
:104350007D17F98EC206B3FEEE003315C501F69641
:10436000E374D5FE1385F7FF8145828013D70601DC
:10437000414831BD93560601C1477DB993D6080126
:10438000C147B5B38145054582803687014801B5EF
:10439000428785BF3E86E9BDBA871DBF328E4DB5C7
:1043A00079154698D5B97915C69759BBB68732881D
:1043B0002A832E872E8E6393061463F1C50A416704
:1043C0006378E61A1307F00FB2866375C700935639
:1043D0008600A14717270000130787ED369703478C
:1043E000070093080002BA97B388F840638C08006E
:1043F000B3951501B357F5003318160133EEB70026
:104400003313150113560801B357CE0213150801D3
:10441000418193560301337ECE02B307F502420E6B
:104420003367DE006378F7004297636507016373C3
:10443000F70042971D8FB356C70293170301C1833C
:104440003377C7023305D5024207D98F63ECA7083B
:104450003385A740335515018145828001E6054724
:104460003358C7024167636CE80EB7070001636504
:10447000F82A93568801E14717270000130747E3FE
:1044800036970347070093080002BA97B388F840AD
:10449000639A081E131E0801B385054113560801CF
:1044A000135E0E0113570301B3D6C502B3F5C5025F
:1044B000B386C603C2054D8F6377D7004297636406
:1044C0000701636AD726158F3355C702420313537A
:1044D00003013377C7023305C5034207B36767009B
:1044E00063F8A700C29763E5070163F3A700C297CB
:1044F0003385A74033551501814582802A88E3EE34
:10450000D5F4C16763E5F604B707000163E2F6205E
:1045100013D38601E14897270000938767D99A97BC
:1045200003CE070013030002469E3303C341631901
:10453000030463E4B6006369C5003308C540958D84
:10454000333705013387E5404285BA85828093077A
:10455000F00F63FBD71C13D38600A1486DBF130770
:10456000F00FC286E37A07F193568800A14729B776
:10457000B70700016366F61A93568601E14799BDB5
:10458000B357C601B3966600DD8EB3D8C50113D705
:104590000601B3DEE802139F0601B357C501135F9E
:1045A0000F01B3956500DD8D13D805013316660044
:1045B00033156500B3F8E802B307DF03C20833E838
:1045C0000801637BF80036989388FEFF6363D81672
:1045D0006371F816F91E36983308F840B357E802AD
:1045E000C205C1813378E802330FFF0213170801B7
:1045F0004D8F637BE70136979385F7FF6369D71289
:104600006377E713F9173697C20EC162B3EEFE0067
:104610001388F2FFB3F80E019355060193DE0E01E5
:1046200033780601B38F08033307E74133880E035D
:1046300093D70F01B388B802C298C697B38EBE0253
:1046400063F30701969E41687D1893D50701B3F780
:104650000701C207B3FF0F01F695FE976362B70A21
:10466000630EB708B307F5403335F500B305B7401F
:10467000898D339EC50133D567003365AE00B3D550
:10468000650082803318180133D7F50013560801EE
:10469000B356C702131E0801B357F500135E0E018F
:1046A000B3951501DD8D93DE0501331315013377C5
:1046B000C702B307DE0293160701B3E6D60163F81B
:1046C000F600C29663E5060163F3F600C2969D8E7E
:1046D00033D7C60293970501C183B3F6C6023307E9
:1046E000EE0293950601DD8D63F8E500C29563E562
:1046F000050163F3E500C295998D6DB3E374F5F69A
:104700003386C740B3B7C700B6979D8DB28799BFB0
:1047100013D30601C14801B593560801C147A9BB8F
:1047200093560601C1477DB136838148EDB3AE870C
:10473000E1BDC68E55B5429779B3411122C406C674
:104740002A842316B5002317C50023200500232241
:104750000500232405002322050623280500232A1B
:104760000500232C0500214681451305C505EFB042
:104770001FA697070000938787695CD09707000002
:104780009387076C1CD497070000938747705CD40D
:10479000970700009387077300D01CD8B2402244CB
:1047A00041018280971500009385C5A991AA411106
:1047B00026C2130680069384F5FFB384C4024AC060
:1047C0002E8922C406C69385440711292A8401CD67
:1047D0002320050023222501310508C41386840601
:1047E0008145EFB0DF9E2285B240224492440249C7
:1047F000410182801C4DA5E7411106C622C49707DE
:104800000000938767FA1CD5938741819C4323243A
:10481000050423260504232805046314F5008547B1
:104820001CCD2A84352848C022851D2808C422852D
:10483000052848C4484001469145EFF01FF0084460
:104840000546A545EFF07FEF48440946C945EFF01E
:10485000DFEE85471CCCB240224441018280828039
:1048600041119387418126C284434AC006C69C4CAD
:1048700022C42A8981E72685EFF0DFF79384840438
:104880008044DC40FD1763D607009C40B9CF8440CC
:10489000C5BF0317C40039E7C17785072322040683
:1048A0002320040023220400232404005CC42328C2
:1048B0000400232A0400232C04002146814513050B
:1048C000C405EFB0DF90232A0402232C0402232422
:1048D0000404232604042285B2402244924402495F
:1048E000410182801304840671BF91454A85EFF02F
:1048F0001FEC88C049FDB1472320F9000144E1BF06
:10490000797122D44AD052CC56CA5AC85EC606D64D
:1049100026D24ECE2A8AAE8A130485040149054B5D
:10492000FD5B09ECB25022544A8592540259F24977
:10493000624AD24A424BB24B456182800444832989
:104940004400FD1963D409000040E1BF83D7C400CF
:10495000637BFB008397E40063877701A68552851C
:10496000829A3369A90093848406E1BF1971A6DA9B
:10497000AE848395E500A2DC86DE328463DC05002C
:1049800083D7C40023A0060093F7070885E79307A1
:1049900000401DA0300836C6EF001011B246E341BA
:1049A00005FE7247BD67F98F7977BA9793B71700FD
:1049B0009CC2F1BF930700041CC0F6506654D65445
:1049C00001450961828083D7C500011122CC06CE42
:1049D00026CA4AC8898B2E8489CF930774041CC0C9
:1049E0001CC885475CC8F2406244D2444249056114
:1049F000828074003000AA84EFF05FF7A2452A8914
:104A00002685F12A01ED8317C40013F7072061FF03
:104A1000F19B93E727002316F400C1B79707000026
:104A2000938787D89CD48357C40008C008C893E7ED
:104A300007082316F400A2475CC8B24791CF83153C
:104A4000E4002685EF00700901C98357C400F19B7B
:104A500093E717002316F4008357C4003369F90065
:104A60002316240149B793F5F50F2A966314C50060
:104A70000145828083470500E38DB7FE0505FDB73C
:104A8000B3C7A5008D8B3307C50081E78D4763EE63
:104A9000C700AA876370E50A83C6050085078505F8
:104AA000A38FD7FEE3EAE7FE828093763500AA87DC
:104AB00091CA83C6050085078505A38FD7FE93F6A7
:104AC0003700FDB79376C7FF138606FE63F0C7066F
:104AD00083A3050083A2450083AF850003AFC50013
:104AE00083AE050103AE450103A3850183A8C5017B
:104AF0009385450223A0770003A8C5FF23A2570092
:104B000023A4F70123A6E70123A8D70123AAC701FD
:104B100023AC670023AE17019387470223AE07FF3C
:104B200075B790419107910523AEC7FEE3EBD7FE21
:104B3000E3E4E7F68280DDC183A7C5FF411122C40B
:104B400006C626C21384C5FF63D307003E94AA8419
:104B5000EF00E07E9387C1899C4381EF232204000C
:104B600023AE81882244B2402685924441016F00E1
:104B7000207D637EF40014403307D4006396E70081
:104B80009843DC43369718C05CC0D9BFBA87D84376
:104B900019C3E37DE4FE94433386D700631F860088
:104BA0001040B29694C33386D700E31DC7FA104372
:104BB0005843B29694C3D8C375B76375C400B14760
:104BC0009CC04DB71040B306C4006316D700144311
:104BD0005843B29614C058C0C0C369B7828001114F
:104BE00026CA93843500F19806CE22CC4AC84EC618
:104BF000A104B14763F2F404B14463E1B4042A8927
:104C0000EF00E0739387C18998433A8431E093873A
:104C1000018A9C4391E781454A857D2A23A0A18A88
:104C2000A6854A85552AFD5963173507B1472320C4
:104C3000F9004A85312729A0E3D104FCB1471CC102
:104C40000145F2406244D2444249B2490561828042
:104C50001C40858F63CE0702AD4663F6F6001CC08C
:104C60003E9404C031A05C406312870223AEF188F9
:104C70004A85F9251305B400930744006199330769
:104C8000F54061D33A94898F1CC065BF5CC3CDB732
:104C900022874040A5BF130435007198E30385FCCB
:104CA000B305A4404A850D2AE31D35FB41B7397190
:104CB0003EDA2ED232D436D63AD842DC46DE93875C
:104CC000018122CC804326CA06CEAA8411C41C4C82
:104CD00081E72285EFF01FB20C445410268622850E
:104CE00036C6F925F2406244D24421618280011126
:104CF00026CA4AC806CE22CC4EC652C4AA842E89E1
:104D000009C51C4D99E3EFF0FFAE9C4C804481E750
:104D10002685EFF03FAE971700009387676B631C03
:104D2000F402C0408357C400A18BB1C71C48A1C77F
:104D3000FD59294A1C4483450900FD17B1E91CC4EB
:104D400063DE07062286A9452685B52AFD57630836
:104D5000F502294535A0971700009387676963140A
:104D6000F4008044C1B79717000093876764E31B82
:104D7000F4FAC04445BFA2852685912455D97D55B6
:104D8000F2406244D2444249B249224A05618280DB
:104D90001CC4050963D70700184C63CBE70063897F
:104DA00045011C401387170018C02380B70059B76E
:104DB00022862685092AE31F35F7D1B71C401387C1
:104DC000170018C029472380E70061B79387018146
:104DD000AA8588436FF0BFF1411122C42A842E8531
:104DE00097F7FF1F23A6079C06C6EF00F049FD5763
:104DF0006319F50097F7FF1F9387879B9C4391C327
:104E00001CC0B240224441018280411122C42E8440
:104E10008395E50006C6EF00F03E634905007C4837
:104E2000AA977CC8B2402244410182808357C400C3
:104E30007D777D17F98F2316F400EDB783D7C50072
:104E4000011122CC26CA4AC84EC606CE93F70710D7
:104E5000AA842E843289B68991C78395E500894654
:104E6000014665218357C4007D777D17F98F23168E
:104E7000F4008315E4006244F240CE864A86B249CB
:104E800042492685D244056101A2411122C42E84E3
:104E90008395E50006C69529FD570357C400631B9B
:104EA000F500FD77FD17F98F2316F400B240224478
:104EB000410182808567D98F2316F40068C8FDB749
:104EC0008395E50031A4011122CC26CA4AC806CE3A
:104ED0004EC6AA842E89328409C51C4D99E3EFF091
:104EE0007F91971700009387A74E6319F406C0407F
:104EF0001C4C1CC48357C400A18BC9C31C48BDCF24
:104F00001C4808409379F90F1379F90F1D8D5C48FF
:104F10006346F500A285268525262DE51C4405055A
:104F2000FD171CC41C401387170018C023803701CD
:104F30005C486389A7008357C400858B81CBA94750
:104F40006316F900A2852685E52C0DEDF24062443A
:104F50004A85D2444249B2490561828097170000D0
:104F6000938707496314F400804459B797170000EA
:104F700093870744E31EF4F6C0449DBFA2852685AF
:104F80003D283DDD7D59D9B7411122C42A842E85A3
:104F9000B285368697F7FF1F23AC078006C6EFE081
:104FA000BFF9FD576319F50097F7FF1F93874780F7
:104FB0009C4391C31CC0B2402244410182804111F4
:104FC0009387018126C2844322C44AC006C62A8927
:104FD0002E8491C49C4C81E72685EFF0BF81971702
:104FE00000009387E73E631CF402C0400317C4002F
:104FF00093170701C18393F68700BDEE93F607016F
:105000009DEEA5472320F900136707042316E4004B
:105010007D55B24022449244024941018280971753
:1050200000009387E73C6314F4008044C1B79717EE
:1050300000009387E737E31BF4FAC04445BF918B28
:1050400095C74C5891C9930744046385F5004A8578
:10505000EFF07FAE232A04028357C400232204000A
:1050600093F7B7FD2316F4001C481CC08357C400F7
:1050700093E787002316F4001C4889EF8357C40088
:105080001307002093F707286386E700A2854A8567
:10509000EFF07F938357C40013F7170005C75C48F0
:1050A00023240400B307F0401CCC1C480145B5F391
:1050B0008317C40013F7070829DF93E707042316B3
:1050C000F400B9B7898B014791E3584818C4F1BF80
:1050D000411122C42A842E8597E7FF1F23AA076C5B
:1050E00006C6EF007015FD576319F50097E7FF1F1F
:1050F0009387076C9C4391C31CC0B240224441017A
:10510000828083D7C500011122CC26CA06CE4AC8A8
:105110004EC613F78700AA842E8479EFD841634DD9
:10512000E000B841634AE0000145F2406244D244E5
:105130004249B2490561828058547DD703A90400D1
:105140009396370123A0040063DE06067048835758
:10515000C400918B99C75C401D8E5C5899C33C403C
:105160001D8E5C540C50814626858297FD5703574F
:10517000C400631DF5009440F54763E9D706B707FF
:1051800040208507B3D7D700858BADC31C482322A9
:1051900004001CC09317370163D80700FD57631440
:1051A000F5009C4091E368C84C5823A02401ADDD74
:1051B000930744046385F5002685EFF0DF97232AE3
:1051C00004029DB70C500146854626850297FD577F
:1051D0002A86E31EF5F69C40BDDB75476385E70034
:1051E00059476394E70423A024013DBF13670704D4
:1051F0002316E4007D5515BF83A90501E38609F256
:1052000003A905008D8B23A03501330939410147DE
:1052100091E3D84918C4E35920F11C540C50CA86B4
:105220004E86268582976349A0008357C40093E782
:1052300007042316F4007DBFAA993309A940E1BFF2
:105240009C49ADC3011122CC06CE2A8419C51C4D40
:1052500089E72EC6EFF00FDAB24597170000938763
:105260002717639CF5004C408397C5009DC7228596
:105270006244F24005616FF0DFE897170000938702
:1052800027176394F5000C44C5B797170000938760
:105290002712E39BF5FC4C44C1BFF2406244014538
:1052A0000561828001458280411122C42A842E85B5
:1052B000B28597E7FF1F23AD074E06C67127FD573E
:1052C0006319F50097E7FF1F9387874E9C4391C3AF
:1052D0001CC0B240224441018280411122C42A8470
:1052E0002E8597E7FF1F23A5074C06C6B527FD5758
:1052F0006319F50097E7FF1F9387874B9C4391C382
:105300001CC0B240224441018280411122C42A843F
:105310002E85B285368697E7FF1F23AB074806C662
:10532000A127FD576319F50097E7FF1F93874748AB
:105330009C4391C31CC0B2402244410182808280C0
:1053400082801C46FD171CC663DA0700184E63C531
:10535000E700A9476394F5006FF0FFB61C422E8565
:105360001387170018C22380B7008280011122CC56
:1053700026CA4AC84EC652C406CE2A89AE8932848D
:10538000B304D6007D5A63149400014511A88345E7
:1053900004004E864A85EFF0DFFA0504E31545FF69
:1053A000F2406244D2444249B249224A05618280B5
:1053B000357122CD26CB4AC94EC706CF52C556C33A
:1053C0005AC1DEDEE2DCE6DAAA89AE8432893684AE
:1053D00009C51C4D99E3EFF0EFC1971700009387C3
:1053E00027FF639DF40C83A4490083D7C400A18BDD
:1053F000E5CB9C48F5C793070002A304F10293078D
:10540000000302D22305F10222C6930B5002971A21
:105410000000938AEAFF054C294B4A848347040025
:1054200099C36392770FB30C2441638E0C00E68618
:105430004A86A6854E85EFF07FF3FD576309F51E7A
:105440009256E69636D2834704006382071EFD57C4
:105450001309140002C802CE3ECA02CCA3090104FB
:1054600082D48345090015465685EFF0CFDF13043B
:105470001900C24759E913F7070109C713070002CA
:10548000A309E10413F7870009C71307B002A309B2
:10549000E104834609001307A0026380E608F2478F
:1054A0004A848146254603470400930514001307E8
:1054B00007FD6379E60AB5CA3ECE85A897170000B6
:1054C000938707F36395F40083A4890039BF971786
:1054D00000009387E7EDE39AF4F083A4C90031B7A5
:1054E000A6854E85EFF0BFAD19D57D55FA406A44CB
:1054F000DA444A49BA492A4A9A4A0A4BF65B665C38
:10550000D65C0D618280050411BF3305554133150A
:10551000AC00C98F3EC82289A9B73247930647001D
:10552000184336C6634907023ACE0347040093077F
:10553000E002631FF704034714009307A002631BF4
:10554000F702B2470904138747009C433AC663C178
:1055500007023ECA35A83307E04093E727003ACE5A
:105560003EC8E1B7B387670385462E84BA9725BF47
:10557000FD57C5B7050402CA814681472546034742
:10558000040093051400130707FD6378E606F1F2A3
:10559000834504000D46171500001305E5E7EFF0FD
:1055A0008FCC11CD97170000938707E71D8D9307C8
:1055B0000004B397A700424505045D8D2AC88345C2
:1055C0000400194617150000130545E513091400DA
:1055D0002304B102EFF02FC93DC197B7FFFF9387B6
:1055E00067A295E74247B2471377071009CF9107A3
:1055F0003EC69257D2973ED20DB5B3876703854614
:105600002E84BA97ADBF9D07E19BA107D5B778005F
:10561000970600009386C6D526860C084E8597000F
:105620000000E7000000FD572A8AE314F5FC83D749
:10563000C40093F70704E39A07EA125545BD7800C2
:10564000970600009386C6D226860C084E85012A4E
:10565000D9BF797156CA9C49BA8A984522D426D2B4
:105660004ECE52CC06D64AD05AC85EC6AA892E84DF
:10567000B284368A63D3E700BA879CC003473404F8
:1056800019C385079CC01C4093F7070281C79C4043
:1056900089079CC00329040013796900631A090073
:1056A000130B9401FD5B5C449840998F634CF904A3
:1056B0001C408346340493F70702B336D000A5EBB1
:1056C00013063404D2854E85829AFD576303F50490
:1056D0001C4011469840998B544481446397C700FD
:1056E000B384E64063D3040081441C4418486354E7
:1056F000F700998FBE94014969047D5B6398240586
:10570000014509A885465A86D2854E85829A631E30
:1057100075017D55B250225492540259F249624AA1
:10572000D24A424BB24B456182800509ADBF330777
:10573000D40013060003A301C7040347540493874E
:105740001600A2978906A381E7049DBF854622869D
:10575000D2854E85829AE30E65FB050945B77971BE
:1057600022D426D24AD04ECE06D652CC56CA5AC8D9
:10577000B68983C685019307E0063289AA842E8400
:10578000138635046381F61E63E2D706930730065D
:105790006382F60A63EDD700638B061E93078005CC
:1057A0006387F616930A24042301D40469A8930797
:1057B00040066386F60093079006E395F6FE1C40CC
:1057C000084393F6070893054500C1C21C410CC36A
:1057D00063D807001307D002B307F040A301E40425
:1057E00097160000938606C4294765A093073007E3
:1057F0006383F61A63EFD7009307F006638FF6040E
:1058000093070007E390F6FA9C4193E707029CC1D7
:1058100009A8930750076382F60493078007E39370
:10582000F6F893078007A302F40497160000938606
:10583000A6C0E5A01C43938A2504938647009C4399
:1058400014C32381F5048547BDA293F607041C41C8
:105850000CC3BDDEC207C187A5BF0C401C4313F8B3
:105860000508138547006305080008C39C4339A059
:1058700093F5050408C3FDD983D707001307F00685
:10588000638BE60C971600009386C6B92947A301DF
:1058900004044C400CC463C5050008406D9908C061
:1058A00099E3B28A91CDB28AB3F5E702FD1AB695B3
:1058B00083C505002380BA00B3D5E70263F3E70A86
:1058C000A147631EF7001C40858B91CB58401C48B4
:1058D00063C7E70093070003A38FFAFEFD1A3306A0
:1058E000564110C84E87CA867000A2852685EFF003
:1058F0005FD67D5A6315450D7D55B25022549254A2
:105900000259F249624AD24A424B45618280A382DF
:10591000D504971600009386E6B00C40084313F8B0
:1059200005081C4111056300080208C313F71500A0
:1059300001C793E505020CC04147B1FB0C4093F54C
:10594000F5FD0CC0A9B713F8050408C3E30008FE71
:10595000C207C183E1BF971600009386A6AC21471A
:105960003DB7AE8791B794411C43CC4913F8060864
:10597000138547006306080008C39C438CC301A835
:1059800008C393F606049C43F5DA2390B700232856
:105990000400B28A81BF1C43D041814593864700F1
:1059A00014C383AA07005685EFF0EF8B01C53305BA
:1059B000554148C05C401CC8A301040425B71448E5
:1059C0005686CA8526858299E30845F31C40898B53
:1059D0008DE7B2474844E352F5F23E8539BF85462C
:1059E0005686CA8526858299E30865F1050A5C44D6
:1059F0003247998FE345FAFEE9BF014A930A9401C1
:105A00007D5BF5B7411122C42A842E85B285368686
:105A100097E7FF1F23AE07D806C6B928FD576319BD
:105A2000F50097E7FF1F9387A7D89C4391C31CC03D
:105A3000B2402244410182809307800517E7FF1F8F
:105A40002328F7D67D5582809307800517E7FF1F2F
:105A50002320F7D67D5582809307800517E7FF1F27
:105A60002328F7D4014582809307800517E7FF1F9D
:105A70002320F7D47D5582809307800517E7FF1F09
:105A80002328F7D27D5582809387418A9C4391C712
:105A90003E9523A2A18A3E85828097E7FF1F9387C8
:105AA00067D13E9523A2A18A3E8582806D63617590
:105AB00073653A253038780D0A0000006D74766100
:105AC0006C3A253038780D0A000000006D6570636F
:105AD0003A253038780D0A0052756E2061742045E1
