:040000006F10806D90
:1000040000000000000000009000002072020020A8
:10001400A9BDF9F5940000200000000000000000D4
:10002400960000209800002000000000000000005E
:100034009A000020000000009C0000200000000046
:100044009E000020A0000020A2000020A4000020A8
:10005400A6000020A8000020F8020020AC00002028
:10006400AE000020B0000020B2000020B400002048
:10007400E2020020B8000020BA000020BC000020EA
:10008400BE000020C0000020C2000020C4000020E8
:1000940001A001A001A001A001A001A001A001A054
:1000A40001A001A001A001A001A001A001A001A044
:1000B40001A001A001A001A001A001A001A001A034
:1000C40001A001A001A0B71700409306700523808A
:1000D400D704130780FA2380E7040100010003C654
:1000E400B7041376F60DA385C7042380070413769B
:1000F400050259CE03C6A700118A1DE22380D70446
:100104002380E7040100010003C7A7001367470029
:100114002385E7009307004B01000100FD17EDFF65
:10012400B7170040930670052380D704130780FA9D
:100134002380E704010001007D892394A7000100C6
:10014400010001000100238007042380D7042380D9
:10015400E704010001003727004093061005A303BC
:10016400D78023800704B717004013077005238046
:10017400E704130780FA2380E7040100010003C7A2
:10018400B70413670708A385E70423800704828064
:100194001376050441C603C6A700418A1DE22380E5
:1001A400D7042380E7040100010003C7A7001367F5
:1001B40007012385E7009307007D01000100FD1777
:1001C400EDFFB7170040930670052380D70413078B
:1001D40080FA2380E704010001001376F501136619
:1001E40006042394C70001000100010001002380DC
:1001F40007042380D704130660042380E7046318EC
:10020400C5000100010037270040894689BF01006D
:100214000100372700409306200591B72380D704B7
:100224002380E7040100010003D787001367070C4C
:100234002394E7000DBF41118146014681451145D4
:1002440006C65922B7170040130770052380E70438
:10025400130780FA2380E7040100010003C7670441
:10026400136717002383E70423800704B240410186
:1002740082808146014681451145B922B717004065
:10028400130770052380E704130780FA2380E7042B
:10029400010001007D572396E70203C76704136733
:1002A40017002383E7042380070401A0BD47330517
:1002B400F50201007D1575FD8280411122C426C21C
:1002C40006C6AA84014463179400B24022449244AF
:1002D4004101828005041305803E4204C13F4180F0
:1002E400DDB7B7170040130700032388E7028547EB
:1002F40023ACF18273002030972000E0E780400AAD
:1003040073002030411106C6852DFDBF23030480F0
:1003140015472303E48001002302A480828083071D
:100324006480E3CE07FE2303048082808307648015
:10033400E3CE07FE03454480828083076480E3CED6
:1003440007FE2302A4808280411126C44AC24EC003
:1003540006C61377F50BAD47AA892E899544630623
:10036400F70019456537653F8D444E854537FD597E
:10037400FD1463983401B240A244124982494101F8
:100384008280135509011375F50F453F2209CDB736
:10039400011126CC06CEB704080051371545BD37E8
:1003A400713769372AC6A53F32459377150089EB23
:1003B400136515001375F50FF240E2440561828060
:1003C400FD14E9FC0145CDBF397126DC4ADA4ED86B
:1003D40052D656D45AD25ED006DE62CE66CCB7E789
:1003E40000E07D5783AA070022C603AA470023A082
:1003F400E71823A2E718B7170040130770052380F6
:10040400E704130780FA2380E70483C74704930BA8
:1004140075FFB684E20793FBFB0F8546AA892E8BF2
:10042400328937240040E187015763FA7601630873
:10043400D5008946130700026313D5000157D98FED
:1004440093F7F70FB71C00402382FC0411472303E2
:10045400E4801305F00F5D3D094CD135636D7C11CB
:10046400B7050700DA9537870700795563F2E50485
:10047400B3879500636EF702370B0800A94733EB87
:1004840065016399F90689E48144513D26850DA0EF
:10049400DA850945553D05090345F9FFFD14050BAA
:1004A400693D81C49377FB0FFDF7DD3569FD7D550B
:1004B400B7170040130770052380E704130780FA79
:1004C4002380E70403C74704418B2382E704F250E7
:1004D400B7E700E023A0571123A24711E2543244A6
:1004E4005259C259325AA25A125B825B724CE24C84
:1004F40021618280A5476395F90685691309F00F88
:10050400B3069900B3742B01B6941349F9FFB3747D
:100514009900856B33796901416B9387F9FFB3F7D0
:10052400270199E363FC340193D94900C147E3E609
:1005340037FF99BF0569C1697D19D9B71305800DC6
:1005440063886901130500026384790113051008A7
:10055400CA85DD3B353D21DD4E99B3843441D9B79D
:10056400DA852D45D533CA94E30099F205097D3B1C
:10057400A30FA9FED5BF9387F9FF93F7F70F636124
:10058400FC0C83C71C0413073008631FF7043707E8
:100594000800636BEB04B3079B00B706100063F518
:1005A400D704334BEB0089476393F9068980D54917
:1005B400E38C04ECDA850945413B11090327C9FFA3
:1005C40091472320E48003076480E34E07FE23035E
:1005D4003481FD17EDFBFD14110B81C49377FB0FE0
:1005E400E9FF7D3371F5E1B5B717004003C7570440
:1005F400B70708001377070219E3B787070079558F
:10060400E378FBEA33079B00E3FFE7F855B585473A
:10061400E382F9F2DA852D45053B9389F4FFE385FE
:1006240004E6293393F7390091EB832604800327EA
:10063400090093074900E39AE6E43E89CE84F1BFBA
:10064400B5476396F9001305900BC93135BDB14721
:100654001305B00AE38BF9FE99476391F904B705D2
:100664000800B365BB002D45C53181448D4BA149BC
:10067400753963967401832704802320F900850467
:10068400E39834FF8327048013172B016355070075
:100694002312F900D5BB2322F900FDB39D476399CA
:1006A400F90281451305B0044531BD4423200900F6
:1006B40023220900FD599D3993F77400CA9703C793
:1006C4000700FD14398D2380A700E39634FF6DBB2A
:1006D400A1476392F9046D398144630D0B008D4782
:1006E4009304C0036308FB009304000563048B01B7
:1006F400930440041375C507E30895D819453931A7
:1007040039390545213126850D3909453D314931B0
:10071400E31C05D669BB91476399F900130560068C
:10072400F536F53E130590090DB7E38F09D4F1545E
:10073400A9BB19CD91CD09CE81473387F5008346F6
:1007440007003307F50085072300D700E397C7FEAA
:10075400828019C991C909CA910583A7C5FF1105EA
:100764007D16232EF5FEC5BF828001C919C62A96BF
:100774000505A30FB5FEE31DA6FE8280814733075E
:10078400F5000307070019E33E8582808507C5BF8E
:1007940001112E8626CAAA84131506019305F004B6
:1007A400418122CC06CE32C6EF0010572A8401C5FF
:1007B4003246A685BD3F2285F2406244D24405619B
:1007C4008280854715C18DC105C28147B306F500F6
:1007D4003387F50083C60600034707006398E600E5
:1007E4008507E315F6FE85473E8582808147EDBF88
:1007F4009307F6FFBE952A966313C5008280FD1504
:1008040083C715000505A30FF5FEFDB7AA870145AB
:1008140081CF09CE3E96850703C7F7FF6317B7005C
:10082400E31BF6FE05458280828001458280797152
:10083400973700009387879F22D4804306D626D219
:100844004AD04ECE52CC56CA5AC85EC662C45DCC9B
:1008540037C9C901814B173A0000130AAAA197347A
:1008640000009384E49C1309F937973A0000938AB3
:10087400AA96B709C0A8370B40578357240095E3BD
:100884005C44639D0B00173700002321F79A032C67
:10089400C4002285EF007055628499A823A6FB004A
:1008A400FDB783270A008297838664011C4463DBB7
:1008B40006063307F5406367E9089737000023A568
:1008C40007928355240003450400972000E0E78045
:1008D40040605C405844A9CF1444B69783866401B1
:1008E40063C5060063E33701DA971CC4A28B3A841C
:1008F40049F4973700009387278E9C4B0947637808
:10090400F706F917173700002320F78EB250225448
:1009140092540259F249624AD24A424BB24B224C97
:1009240045618280E377F5F83387F9402A9761B708
:1009340063970B009737000023AAE78E89BF23A68D
:10094400EB00B1B7D85009CF63DF06003385A74069
:1009540083A70A016376F5009737000023A6A788CA
:10096400A28B404471B7E3F3A7FECE97C5B7973780
:10097400000023AB078659BF411122C4173400007D
:10098400130484881C4006C626C24AC091C78297B5
:100994009737000023AA07865C4091C382971C40C6
:1009A4006390071C9737000083C7178E858B95C704
:1009B40097370000A38A078C173700000347F78C8A
:1009C400914763FCE700812E9737000083C7F78BBC
:1009D400F9178A07A2979C438297173900001309D5
:1009E400698E8347C900918B99C3EF0050261C443C
:1009F40091C3829797340000938404839840172608
:100A040000000346767D9727000083C7E77C939612
:100A14001700BA9683D60600D5CA9727000083C765
:100A2400A77B63EFC70A972700002387077A1C4038
:100A3400639807129737000083C7578591CF97377C
:100A4400000083C7978489EB97370000A38007844D
:100A5400973000E0E780A0129737000093878781E2
:100A64009C43638F070EB707C0A817270000232DE8
:100A7400F776753B972700009387877BDC53EDC39C
:100A84001727000013074775184B9727000083C7E3
:100A9400777B6367F70C172700000347177F91479D
:100AA40063E0E70C8347C900918BDDEB9040972608
:100AB400000083C6767263CBD70A2244B2409244C4
:100AC40002494101172300E06700832D850793F74E
:100AD400F70F972600002381F670E3E6C7F235BFCF
:100AE40086073E97835507002310070097270000C9
:100AF400239A0772972700009387C7709C43172592
:100B040000000345656D13172500BA979C4382972F
:100B14009727000083D70771172700000347C76B87
:100B240093C7F7FF7D8D9317170098403E9783571F
:100B340007005D8D2310A7009727000083C7C769AE
:100B440091C78507172700002308F76817270000B7
:100B5400034787689727000083C71768E375F7EC96
:100B6400B240224492440249410182801397170003
:100B74003297035707006DF7850735BFAD6737C751
:100B84000040BD072326F7200F1000009727000020
:100B940093878764C84F83278726BD66BD0693C79E
:100BA400F7FF99836A052326D7205D8D8280411142
:100BB400B7170040985F3AC6945F3247E39CE6FE5D
:100BC40032454101828082805D713AD2172700004C
:100BD4001307C76A36D414433ED022DE9C5E4ACA49
:100BE40086C6998396C49AC29EC026DC2ADA2ED879
:100BF40032D642CE46CC72C876C67AC47EC2858BC3
:100C04003A841729000013092967D1CB9C5E9724E5
:100C140000009384246793F7F7F99CDE17270000FC
:100C24000347A76693070008631BF700832709009F
:100C34009C4393F70704172700002308F76483C72E
:100C4400040093F707049DC39727000093878762E6
:100C54009C4382979727000023AEA76283C70400B2
:100C640093F7F70B17270000230EF76083C74400A0
:100C740093F707048DE7854717270000A306F7605D
:100C8400972700009387C7619C43096798C7130798
:100C940000FC972600002389E65ED844F8D31C4064
:100CA400985F1183058B09CB985F3D9B98DF0547BF
:100CB40097260000238AE65C985F1D83058B11CB81
:100CC400985F1377F7F798DF854717270000230D00
:100CD400F75A83270900D8430583058B19C7D843DE
:100CE400759BD8C3D843799BD8C37254B640A642E7
:100CF40016438643E2545255C2553256A2561257F1
:100D040082577248E2485249424EB24E224F924FA5
:100D140061617300203097270000938767589443DC
:100D2400972700009387075603C70700058B11CB4D
:100D340097270000238A075497270000A3860754A7
:100D4400828003C71700058B65F7F85271FF83C7CC
:100D54005700DDB71728000013084852032708007E
:100D64001C5F9583858BD5EB1DC697270000938761
:100D7400E75883986704030306001C5BBD83630B79
:100D8400030893F7F71FB38717419A970947B3C727
:100D9400E7022300F60085CA83270800985B46070C
:100DA400935767016356070093E707C0C207C183DF
:100DB40003970600C207C18709C7BA970947B3C793
:100DC400E7022390F6009DC98347150085CB97263B
:100DD400000083C6864B93F6060413879700914759
:100DE40085CA3A950347050085461376F7066311CD
:100DF400D60262076187B147634C07008327080066
:100E04009C5FED838D8B17270000A302F748814771
:100E14003E858280B3871741ADBF8947D5BF411155
:100E240022C406C61724000013048447184049E965
:100E3400AE877453FDFE3E85B28597270000238458
:100E44000744973000E0E78080AD97270000938740
:100E5400E7429C43B70680009843558F98C3D85700
:100E6400719BD8D797270000A380074297270000DB
:100E7400A38A07401C40094798C3B7F700E003A7BB
:100E840007D16D9B23A8E7D003A707D15D9B23A8B7
:100E9400E7D0730050101440172700001307873E53
:100EA40083472700858B89EB83473700858BD9C718
:100EB40097270000238A073CB240224441018280E4
:100EC4008D476310F502972700009387273B9C43C7
:100ED400B70680009843558F98C3D857719BD8D7CD
:100EE4005DBF8547E319F5FAB567BD075CC70F1009
:100EF40000001C400967094698C7130700F89726A5
:100F040000002383E638172700001307273714430C
:100F1400984231830D8B6319C7001307E043F8D35C
:100F24003D673D07D8C785BF984231830D8B01E7E4
:100F340013076019EDB71307E01BD5B7FC52ADF3E7
:100F4400A5BF5D714EDE972900009389293303A75D
:100F5400090086C6A2C4A6C2CAC052DC1C43172913
:100F6400000013092938172A0000130A6A3393F77B
:100F7400F7E793E707081CC3832609003707CEFF6A
:100F84007D179C46130680022A84F98F9CC683270A
:100F94000A00130700082800B8CBAE849305100894
:100FA400EFF0AFFC973000E0E78020BA973000E024
:100FB400E78020C783A709009376F41FB70EFCFFD0
:100FC40023A40700984B130510F8CE851367F70385
:100FD40098CBF84F4A88B70F0400137707E0558F72
:100FE400F8CF9843F576FD16758F98C39843B706E6
:100FF400330091421377F7E798C39843FD1E854366
:101004001377F7E71367071098C303270900130F33
:1010140080021C47D58F1CC783270A001307900D35
:101024003400B8CB014793583700A69883C708000B
:1010340013767700B3D7C740858BDDC79C41032E59
:101044000800239C0704239007060323CE0213738E
:10105400D3FF23266E0203AE07001373F707137E34
:101064000EF833636E0023A0670003A347023363C3
:10107400F30123A26702014303DE07066307C303E8
:1010840003A30703038E06001353F30062031353F1
:10109400834163586E0003A307031353F3002380B3
:1010A400660003D307061373F30F03DE8705E3F526
:1010B400C2FD03A347023373D30123A267028387CC
:1010C4000600635CF40003C308003396C3001346B0
:1010D400F6FF337666002380C8003E8663D3A700FC
:1010E4002A8613158601618505071377F70F850690
:1010F400E31BE7F3B640264496440649F259625A84
:1011040061618280011136C89726000093864619D2
:101114003EC49C423AC632CAD8472ACE2ECC1316B5
:101124001701635506029847131617016350060208
:101134007D57B8D7172700001307070A584F05072C
:10114400172600002328E60A116798C798470D83DD
:10115400058B1DC3172700000347E7121367170009
:10116400172600002301E612130700F817260000D3
:10117400230CE610214798C79847058B09CF1727FA
:101184000000034737101367170017260000A30B4E
:10119400E60E054798C798470983058B09E79847E2
:1011A4000583058B39CF9847172600001306860D53
:1011B400172500001305850C0983058B630C0710A4
:1011C4001841184331830D8B63130710AC4B184E31
:1011D40093F5050203471700E9C57DE71307700679
:1011E400D8CF034706001367170017260000230B08
:1011F400E608114798C718415C57F19B93E717001D
:101204005CD79C4298479316370163D6060297260B
:10121400000083C6A615C18A172700001307070E0E
:10122400E1C6034707071367070297260000238FC9
:10123400E612056798C798479316270163D10602FB
:1012440017270000034747046207618763570700B5
:101254000547972600002389E602096798C798473F
:101264009316070163D606029726000083C616105C
:10127400858A1727000013076708C9C6034717079D
:101284001367270097260000A382E60E216798C7FC
:101294007245E2455246C2463247A2470561730091
:1012A40020300DDF85456315B7001307B0060DBF69
:1012B40089456315B7001307F0061DB78D456315FF
:1012C400B7001307300729BF1307500711BF1307CF
:1012D400600739B703473600136717001726000065
:1012E400A303E6FA094739B7834607070946BD8AC7
:1012F4006388C600034707078D463D8BE31BD7F27F
:10130400114725B783461707918AC9D203471707A0
:101314001367870085BF172700001307A7F88346C4
:10132400B7019727000083C7B7FAB69793F7F70F6B
:10133400FD4663EAF6044C4B97260000A384F6F6B8
:101344009727000083C717F605473317F70097263A
:101354000000A38FF6F66D8F1DEF9726000083C65D
:1013640076F7B3F6D70213050002814733D6F500AA
:10137400058A13F8F70F09CE6399E6009727000052
:10138400A38207F3828081177DB705071377F70FD0
:101394008507E39DA7FC828097270000938787ED4C
:1013A4009C43011122CC4EC606CE26CA4AC852C45A
:1013B40056C28297972700009387C7F080478149D8
:1013C4006305A406BE8497270000938767E6038716
:1013D40067013E8963550706018D1354550097270D
:1013E400000083C7C7ED9379F501636DF402370AF2
:1013F400C0A8B70A405705379C449726000083C607
:1014040006EC139756003E9783076901158C63C554
:1014140007006363470156979727000023A8E7EA6C
:10142400E37BD4FC1604B3693401F24062444E8574
:10143400D2444249B249224A924A05618280E37DFC
:1014440085F8B707C0A833848740229579B79727D2
:101454000000938727E29C43411122C406C626C29A
:101464008297972700009387E7E580476309A406DE
:10147400BE84972700009387A7DB8387670163D81F
:101484000704018D135455009727000083C727E3F1
:101494006367F404493598449727000083C727E21B
:1014A4009396570036971D8C9726000023A0E6E2FA
:1014B400E372F4FE2244B24092441725000003452F
:1014C40075DE81454101173300E067002397E37A15
:1014D40085FAB707C0A833848740229565B7B24020
:1014E400224492444101828097270000938787DF3A
:1014F4009843B75702009387079F832607091396DB
:101504005600635806008326070913966600634451
:101514000600FD17FDF3828071C5AA870145E9C560
:101524008D07C207C183F19BC207C1831307400320
:10153400636FF702172700001307C7DB0843172759
:1015440000001307A7DA14436398A60217270000C4
:10155400130707CE185B014541CB4111C20706C6EC
:101564000545DD8D0297B240014541018280172770
:1015740000001307E7D7D9B70357650035E30357CE
:101584004500636FF704B306F7402146637CD60237
:1015940003280500938687001D8FAA9661171726D6
:1015A40000000356C6C32392E60023A0060123933A
:1015B400060014C12312F500130786FF97260000C6
:1015C400239FE6C02313B5009725000083D525C1CA
:1015D400B387F540172700002313F7C02105828045
:1015E40008419DB70145828082800DC19727000084
:1015F400938747D003A3070097270000938707CF5B
:1016040083A8070081469A8763E31701828003A8B1
:101614000700636DF50A636BA80A13878700E36705
:10162400E5FE03D66700216705076317E60003C7D5
:1016340041810507238AE180972500009385C5B978
:1016440003D6470003D76500239307003297420768
:101654004183172500002314E5B8638A6702172520
:1016640000001305E5C808416303F50203D56600CD
:1016740019ED83D7460023A0060121073E962106D3
:101684002392C60097270000239BE7B4B6879843AC
:10169400E30E17F797260000938686C59442E30766
:1016A400D7F683566700BDF283D64700035647003A
:1016B4001843A106B2962392D70098C383D7650036
:1016C400A10717270000231CF7B08280BE86C287BB
:0416D40025BF00002E
:1016D8009711002093810186177100201301019250
:1016E8001305400097F5FF1F9385459117060020C5
:1016F800130606FE63FAC5008322050023A05500E1
:1017080011059105E3EAC5FE176500001305C51D1F
:10171800970500209385C5FB1386018163FAC500F0
:101728008322050023A0550011059105E3EAC5FEB3
:101738001385018197250020938585CD6377B500B2
:10174800232005001105E36DB5FEFD42739002BC30
:101758008D42739042809302800873A0023097F202
:10176800FF1F9382A28993E232007390523097123E
:1017780000009382623F73901234730020303D431F
:101788002A876373C3029377F700BDEFADE59376BD
:1017980006FF3D8ABA960CC34CC30CC74CC7410719
:1017A800E36BD7FE11E28280B306C3408A06970234
:1017B800000096966780A6002307B700A306B70027
:1017C8002306B700A305B7002305B700A304B70095
:1017D8002304B700A303B7002303B700A302B7008D
:1017E8002302B700A301B7002301B700A300B70085
:1017F8002300B700828093F5F50F93968500D58D69
:1018080093960501D58D61B793962700970200003E
:1018180096968682E78086FA9680C1171D8F3E9637
:10182800E374C3F8A5B7B717004003C77705137764
:10183800E70FA38BE704130700F8A38DE7043D47E0
:10184800238CE70413075003A38CE704828041111B
:1018580022C406C62A84C929371700409306700592
:101868002300D704930780FA2300F704010001003E
:101878000346F70213668600A307C7020346F7026A
:101888001376760FA307C7020346E7021376C60F3F
:101898002307C7020346E702136616002307C70299
:1018A8002300D7042300F70401000100034637058D
:1018B8001376860FA309C704034637051366160077
:1018C800A309C7042300D7042300F704010001007B
:1018D800834737059166130680FA93E70702A30941
:1018E800F70483570705D58F2318F7049306700567
:1018F800B717004003C737051377070261C71308F6
:1019080080C19305803E33480503930750029168D0
:101918002167138E08E8130707D01143B716004054
:101928009162FD18894E930F7005130F80FAB34525
:10193800B5023308F802B387F502334EC5033348BE
:10194800E802B3C7E70203C73605218B6DDF03D76B
:10195800060503C73605218B6DFF03D706053367D8
:1019680057002398E60403C73605218B6DDF03D69D
:10197800060503C7260533F6C8003387E8023A96FA
:101988003306C6416354C800634DF6047D131373D0
:10199800F30F63080304131716003347F702635065
:1019A800C00405072380F6052380E6053347D703DF
:1019B8000100010003D6C6023297420741832396ED
:1019C800E60251B72380D7042380C7040100010031
:1019D80003C7370513670702A389E70421BF7D17EB
:1019E800D1B7B717004083C6370513873705A18AD3
:1019F800FDDA83D6070583D607051166D18E2398AD
:101A0800D704930670052380D704930680FA2380B1
:101A1800D704010001008347070093F7870F2300CD
:101A2800F70083470700C18F93F7F70F2300F700EC
:101A38003717004083473705A18BEDFFB7170040E4
:101A480003C73705218B6DDF37460F0013060624C1
:101A58003345C50283D6070583C7270511677D1758
:101A6800F98E2166130606D03307F7028567BA9602
:101A7800138707FA331787003307A7021305803E39
:101A8800938707C8B3D787403347C7023307A702EE
:101A98003387E64093066055B385D502B3C5C502C2
:101AA800B387E702B3C7B7026354E0048507094761
:101AB80093067005B3C7E702371700402300D70421
:101AC800930680FA2300D704960701000100835685
:101AD800C702B697C207C1832316F70283473705A3
:101AE80093F7F70DA309F704B2402244410182801D
:101AF800FD1775BF41112A83014E930E407E130FC7
:101B08000019930F400663E46E0E9308001913033F
:101B18004006B3781503854E0D4FA14F3373650208
:101B28000D891335150063EEBE0E1308F6FF7946CE
:101B380072984208135808013307C70213D61700D2
:101B4800BE0732976146B3F6C60213068070B386A5
:101B5800C6023697A166F58F42075D8FB71600401B
:101B680083C7F60293F70708A307F1000346F100BD
:101B780083C7F60293F70708E394C7FE8347F1008B
:101B8800B716004093F7F70FFDC7B7170040930645
:101B980070052380D704930680FA2380D7040100B8
:101BA800010023AA070383C6170311667D1693E66F
:101BB8000608A388D702D45BC85F93854703A98E1C
:101BC800F18EF5FA930670052380D704930680FA00
:101BD8002380D7040100010098C103C717031367C6
:101BE8000704A388E70223800704410182807D134C
:101BF8003368E3039308E016630E08003368F303C1
:101C08009308D016630808009378330093B8180037
:101C18009388D81633081E01131E0801135E0E019F
:101C2800DDB56393E503054863860800014863034F
:101C380003002A8871087298FD15131E0801C20551
:101C4800135E0E01C181C5B513F8150063F4BF001A
:101C58007908D5B713381800E5BF83C7F60293F79C
:101C68000708A307F1000346F10083C7F60293F7BC
:101C78000708E394C7FE8347F10093F7F70FF1DFF6
:101C880029B7914763EEB702176700001307479417
:101C98008A05BA959C41BA978287B717004003A76F
:101CA800470B1345F5FF698F23AAE70A03A7070B1C
:101CB800698F23A8E70A03A7070A798D23A0A70A33
:101CC8008280B717004083A6470B1347F5FFF98EAC
:101CD80023AAD70A83A6070B558D23A8A70A83A68C
:101CE800070A758F23A0E70A8280B717004003A769
:101CF800470B498F23AAE70A03A7070B1345F5FFEC
:101D080045BFB717004083A6470B1347F5FF758FEC
:101D180023AAE70A03A7070A598D4DB7B71700404A
:101D280003A7470B498FEDB7B717004003D58700C6
:101D3800420541819377050491EB9377F501375577
:101D4800E801130505803345F50282809377050C79
:101D5800130700046397E7009377F50137459C1C48
:101D6800CDB72165130505D08280B7F700E0884715
:101D7800CC478280814737370040A14663C4C700FB
:101D8800328582800345B740E38EA6FE3385F50091
:101D98000345050085072304A740CDB7411122C498
:101DA80006C62A8451372947B307E502B2408D8316
:101DB800B3D7870222449507B3D7E70237370040E5
:101DC800C207C1832316F740410182807165411122
:101DD8001305052006C6D937B7370040130770F832
:101DE8002381E7400D47A381E74013070004A38040
:101DF800E74005472387E740B24041018280B78723
:101E08000040238007001307C0FC2386E700A38651
:101E1800E70003D7C1822398E70003D70183239AF9
:101E2800E70003D74182239CE70003D78182239EE2
:101E3800E70089462381D70249472383E7022385A0
:101E4800E7022387E7022389D702A3810700130744
:101E580090022380E700B716004003D7A601136756
:101E6800070C239DE6007D572383E700130710F82E
:101E7800A380E7001D472381E7008280B7870040E1
:101E88002382A70203C767021377C70F2383E702DA
:101E98008280B78700402384A70203C7A70213776D
:101EA800C70F2385E7028280B78700402386A702F1
:101EB80003C7E7021377C70F2387E7028280B78734
:101EC80000402388A70203C727031377C70F238976
:101ED800E70282801145A5BA411193962500AA858B
:101EE8002D4506C697E0FF1FE780C04DB24001456B
:101EF80041018280411126C29394250022C44AC020
:101F08002A843289A686AA850146254506C697E011
:101F1800FF1FE780204BA6864A86A285294597E0C1
:101F2800FF1FE780204AB2402244924402490145FB
:101F380041018280011122CC06CE3714004026CA06
:101F48004AC84EC652C483447405034AB40583493B
:101F5800840503499405C1388347A40593F4F40F15
:101F6800137AFA0F93E71700230DF40493F9F90F86
:101F78001379F90FB717004003C7A705058B6DFF45
:101F880003D5C705A38D4705238C3705A38C2705E3
:101F9800A38B9704F2406244D2444249B249224A90
:101FA8000561828041119397050122C406C6C18745
:101FB8002E8463DD0700EF00B04319C1EF009040A5
:101FC8002165218DB24022444101828093F715009A
:101FD80013C51500E5FB9397250163D00702EF10A1
:101FE800504CCD3D37F60200130606E0896503C55F
:101FF8004183EF0050730965E9B7939715010145CF
:10200800E3D207FC1755000013054562EF40203B5B
:1020180013060064916503C54183EF00D070116514
:102028004DB71D714946975500009385A55B175517
:1020380000001305E57F86CE97E0FF1FE780207834
:1020480001E9175500001305255BEF40403701A053
:10205800B7F600E0795798CAFD57DCCA0567B7E7B5
:1020680000E023A0E7101306F00290C223A0E718AF
:10207800010001001306C0038145480897E0FF1FCF
:10208800E780606E97070020938747943ECA896768
:1020980093870780231CF100ED472312F10295472F
:1020A800A301F10285472303F102B5472304F10296
:1020B800A167938707E03ECE97070000938707E262
:1020C800BEC497070000938727E3BEC6856793873A
:1020D80017D02315F10297070000938747C93EDA06
:1020E800B7F5070097070000938707E53EDE8146AE
:1020F80097070000938747DE7000E1051945BEC0C9
:1021080097E0FF1FE780002C580881479946700028
:102118003E960346060085070507A30CC700E3980B
:10212800D7FED24791C70357810185676373F700CC
:1021380001A04808EF106008AA8501C917550000DA
:102148001305C54CEF40601301A0F640256182805D
:10215800411117050000130525E506C622C4EF1036
:102168000002138441832300A400292803450400A6
:102178002244B24037F60200130606E089654101A1
:102188006F00705A411106C6B71700401307700553
:102198002380E704130780FA2380E7040100010085
:1021A80003C7F7021377A70FA387E70203C7F7024E
:1021B80013672700A387E70223800704213B130541
:1021C800407E814701478146054685452532B24014
:1021D800014541016F10402193F7850091CBB7E786
:1021E80000E03707400023A0E71013C58500828070
:1021F800411122C406C693F715002E849DC3938708
:102208004182884311469385919813050504EF3060
:10221800707B1145BD3913451400B2402244410179
:10222800828093F7250085C39387018388432146DD
:102238009385919813050504EF30D07821453D39F1
:1022480013452400D9BF93F7450099CF938781821E
:10225800138781989C430347170005452380E704AB
:10226800A1311345440055BF939735010145E3D685
:1022780007FA89472385F198A385F19893874182C6
:10228800884311469385919813050504EF309073A0
:102298001145013185651306003217F5FF1F034507
:1022A8006549EF00504885653345B400BDB7411115
:1022B80017050000130585F206C622C4EF00306C2E
:1022C80097F7FF1F9387874B23A6F1829387819007
:1022D80023A8F1829387419917F4FF1F13048445BB
:1022E80023A2F182938741A12300A40023A4F182B1
:1022F8003936034504002244B2400146A145410154
:102308006F00704281471386018313F7F70F6363E9
:10231800A700ADB618423E9783460700850793C6C7
:10232800F6FF2300D704D5B781471386418213F7F8
:10233800F70F6363A700B1BE18423E9783460700B4
:10234800850793C6F6FF2300D704D5B781471386C0
:10235800818213F7F70F6363A700B9B618423E9757
:1023680083460700850793C6F6FF2300D704D5B731
:1023780081471386C18213F7F70F6363A70081B6FD
:1023880018423E9783460704850793C6F6FF230045
:10239800D708D5B7B787004003C767001377F70F8B
:1023A80093762700638E0648011106CE22CC26CAF2
:1023B8004AC84EC603C7770093060003137707037E
:1023C800630BD70203C7770091461377F7036301BE
:1023D800D72263E4E60A8546630CD71A6301071817
:1023E80089466301D71C8D466301D71EB787004015
:1023F80009472383E7003787004083477700E207D0
:10240800E18763D1072E930720FC2301F702938607
:10241800C1828842034775008347650022075D8FA4
:10242800239FE182834715002380F1840349050037
:1024380013760906630E061CDD1705476369F7283E
:1024480062091359894181466352090283D7E1839E
:10245800930600043E8763F4F6001307000442075E
:102468004183998F9376F70F239FF182B7870040B6
:102478002380D702130700FCB9AC93062002630D32
:10248800D71263E3E602930600026306D7049306B5
:102498001002E31DD7F403C767021377C70F13674A
:1024A80027002383E70299B7930630026309D712FE
:1024B80093064002E31CD7F203C727031347070418
:1024C8002389E70203C727031377C70F136727007A
:1024D8002389E70221BF03C7018495466303D70612
:1024E8009946631BD7069387E18303D40700130734
:1024F8000004BE8463748700130400049387C182B8
:102508001389418488434204832509004180228637
:10251800EF30504B83D704009379F40F818F239FBA
:10252800F182832709003E9423A28184B787004063
:102538002380370303C72702134707042381E702D1
:1025480075B503C7370083C6E18313770708558F2E
:10255800A381E7000947DDB723800702E5BF83C7EA
:10256800870003C70184A547E312F7E89387C18270
:102578009C4303C541A983C7170081CB23880180E9
:102588002946A145EF00301A95B52388D180CDBFE3
:1025980003C7770013770704E30A07E403C5870036
:1025A8009533A9B503C7770013770704E30007E459
:1025B80003C58700953B1DBD03C7A7021377C70F47
:1025C800136727002385E70215B503C7770013773C
:1025D8000704E30D07E003C587008D3B01BD03C772
:1025E800E7021377C70F136727002387E702FDBBAE
:1025F80003C7770013770704E30A07DE03C7270337
:10260800134707082389E70203C587009533F9BBF9
:102618002946636EF60A17560000130666018A07F4
:10262800B2979C43B297828783473500834625003B
:102638000946A207D58F93D68700638CC60A6369BB
:10264800D6008547638AF6021304F00F81472DA848
:102658008D456383B60E93072002E397F6FE834702
:102668004500D5E397570000938747FF23A2F184DD
:1026780001449307E00309A8975700009387070CC4
:1026880023A2F1840144C947C207C18363F4E70068
:10269800239FF1829387E18303D607009307000401
:1026A80063F4C70013060004938941849314060158
:1026B80083A50900C1802686EF30D03003A6090023
:1026C800269623A2C1849307F00FE31BF4D6B7879D
:1026D80000401307F0FC2381E702B7870040094751
:1026E8002383E700F2406244D2444249B24905617B
:1026F8008280975700009387A7FD23A2F1840144A5
:102708009307B00651B78546639CD70097570000DA
:102718009387C7F823A2F184014493074003ADB718
:10272800639FC704975700009387470423A2F18447
:1027380001449307100289BF93F7F70F8546638E0C
:10274800D7008DC7E392C7F09757000093874701DA
:1027580023A2F1840144A94705BF97570000938736
:1027680027FF23A2F1840144B94739BF97570000D6
:102778009387071723A2F1840144914731B7014495
:102788009307F00F11B783472500239FF1824DB9B6
:1027980083C7C1832300F50003D7E1838547E3F1AD
:1027A800E7CA8547DDB783472500238EF18249B9FB
:1027B8001377F9018947E31CF7F0834745006381E4
:1027C800E704636CF7000547E393E7F037870040B9
:1027D8008347670293F7370799A0130710086388A0
:1027E800E70213072008E394E7EE378700408347A2
:1027F800A70293F7C70B93E727002305F70289B1D0
:10280800378700408347A70293F73707FDB7378715
:1028180000408347670293F7C70B93E7270023031A
:10282800F70239B92300050085BF230005009C4243
:10283800A380070003D7E1838947E3F3E7C0B1B773
:10284800937617008DC2A381070009472381E70209
:1028580049472383E7022385E7022387E7020547E1
:102868002383E700828093764700FDDA03C7570089
:10287800098313471700058BA388E1801147CDB75B
:10288800797122D44AD006D626D24ECE52CC56CA18
:102898008D472A8932846305F50E91476303F5163F
:1028A80089476315F5022EC6EF20003EB2458547DD
:1028B800175500001305C5ED6388F50063972503D8
:1028C80017550000130585EDEF30702F2254B250D4
:1028D8009254F249624AD24ACA85025917550000F1
:1028E800130545F145616F305019830504001755EC
:1028F80000001305E5EB8144EF30301883451400E0
:1029080017550000130505ECEF3030170347140086
:10291800A54763E2E706175A0000130A2AEB938AD1
:1029280081988347140063E6F40283C511818547C3
:10293800639DF50083C78198B395F500C205C181F1
:1029480017F5FF1F034505DFBD2B2945EF30F016AE
:10295800B5BF93892400A29983C509005285EF3039
:10296800D01103C70900B387540185042380E70009
:1029780093F4F40F7DB717550000130565E5A9B763
:102988008547175500001305A5E06387F50A8947B1
:1029980017550000130585E06380F50A83050600D6
:1029A800175500001305C5E38144EF30100D83452A
:1029B8001400175500001305E5E0EF30100C03472D
:1029C8001400A54763E6E706175A0000130A0AE051
:1029D800938A81988347140063EAF40283C51181BE
:1029E8008547639DF50083C78198B395F500C205B7
:1029F800C18117F5FF1F0345E5D3F1212945EF30C4
:102A0800D00B914503C541A97D29C9B593892400F7
:102A1800A29983C509005285EF30300603C7090023
:102A2800B387540185042380E70093F4F40F5DB75E
:102A3800175500001305C5D9EF307018D9B74111E3
:102A48009397050122C406C6C1872E8463DB07005D
:102A5800452211C1852A2165218DB24022444101B8
:102A6800828093F7450095C7EF2000229306F00F68
:102A78001306F00F894513858180EF109028AA85E9
:102A880017550000130505D9EF30207F1345440082
:102A9800E9B793F785000145E9D3EF20E01E938756
:102AA800018183C707009306F00F1306F00F8945CD
:102AB80013858180A382F180EF10B024AA85175571
:102AC8000000130525D5EF30407B1345840071B70E
:102AD80079711306000281450A8506D697E0FF1F23
:102AE800E78060C8170500001305A5F5492D238A5E
:102AF800A1A8B7477671938797123EC4B757550078
:102B0800938757553EC6B7D72500938707783EC2A7
:102B18008567938707842310F10097070000938740
:102B280067D63EC80A85ED57230EF100EF10205FE7
:102B3800AA85175500001305A5CCEF30007493063D
:102B4800F00F1306F00F894513858180EF10701B75
:102B5800AA85175500001305E5CBEF300072B25077
:102B68004561828041111305800406C697D0FF1F76
:102B7800E7802055371700408327870A8D451305BE
:102B8800002093E707202324F70AEFF08F8FEFF058
:102B9800EFA317550000130525C9EF30500217554C
:102BA80000001305E5C8EF309001EFF08FC7EFF094
:102BB8002FDAEF208042293FEFF06FEF97D0FF1F09
:102BC800E78000741DC18346E5FF1307F00F9147A6
:102BD800639EE600411106C697F0FF1FE780A0A09C
:102BE800B24081473E854101828095473E8582807B
:102BF800170700201307875D1C43411122C426C212
:102C08004AC006C601440149BA8489E7A165E52E90
:102C18001DC401A803C7E7FF631AA7020DCCA1656D
:102C28005D249840832784FF6319E4021707002076
:102C3800232EF758FD57232C04FE230FF4FE22857C
:102C4800B2402244924402494101828011E03E8907
:102C580083A787FF5DBF3E84E5BF232CF9FED9BF5C
:102C68009707002023A407568280970700209387A0
:102C7800675B9C4399E33E85828003D727006316F0
:102C8800B70003C70700E308A7FEDC47E5B7C9C1DB
:102C9800797122D406D626D24AD04ECE0144414775
:102CA800B3D78540858BA5C31205314722953305D7
:102CB800E502970700209387E75A03A90700854490
:102CC800B3948400C204C180BE892A9903270900ED
:102CD80011C7032549002EC60297B2453147330470
:102CE800E40283A709003E941C4489E723200900D5
:102CF80023220900B2502254A58D02599254F24958
:102D08002E85456182800504E31CE4F88144DDB723
:102D18002E85828041111397050122C406C626C25A
:102D28004AC041872E84635E0700D93511C1593DD9
:102D3800A1673D8C2285B240224492440249410158
:102D48008280EDD9AA8701474146B356E440858A77
:102D58008DCE9207BA97B146B387D702970600205F
:102D68009386465003A906008544B394E400C20440
:102D7800C1803E99832709000325490082972320B3
:102D8800090023220900258C75B70507E31FC7FA38
:102D98008144D5BF0111680006CE22CC26CAEF00B7
:102DA800207DFD576300F50E324797060020938675
:102DB800A6479707002083C77748B68463F9E70AD0
:102DC800170400201304C44018483706C0A8630E2F
:102DD800C70297070020938767499C438297324729
:102DE8001C486373F700BA87170700200347174585
:102DF800998F3E958387640163CE0700B707C0A803
:102E0800636AF500B7074057A5A88386660163D5AE
:102E180006061D8D17040020130444461C4C81CF60
:102E2800970700209387874B94433707CDFF7D177B
:102E38009C46F98F9CC619E13705C0A89707002062
:102E48009387873EDC53829719E51C4C8DC3EF00AE
:102E5800B078EF00D0201C4C99CB970700209387BF
:102E6800E7479843B70633001C47D58F1CC7F24085
:102E78006244D24405618280E37DF5F8B307F740E8
:102E88003E9549BF97040020938484349C483704B6
:102E9800C0A8E38E87FC970700209387273D9C43B3
:102EA80082979C481707002003475739998F3E950A
:102EB800970700209387473783876701E3CC07F498
:102EC800E36A85F481B79707002083C77730637179
:102ED800F502170700201307A734931715000843B6
:102EE8003E9583570500DD8D2310B500014582808E
:102EF8000D4582809707002083C7972D6373F502DD
:102F0800170700201307C73193171500084393C507
:102F1800F5FF3E9583570500FD8D2310B50001454B
:102F280082800D4582809707002083C7772A6364D3
:102F3800F5000145828097070020938727339C433B
:102F4800EDDB011122CC26CA4AC84EC606CEB2898C
:102F58002E89AA848297170400200354E429330495
:102F6800340393070064130404323354F4029707BC
:102F780000209387672B03876701BE892A946349DA
:102F88000700B707C0A86365F400B70740573E9429
:102F9800CA852685D93901C500C5054515A093E51B
:102FA80004F0C205C181414597E0FF1FE7808056C4
:102FB80019ED83A7090381C7A685114582970145A5
:102FC800F2406244D2444249B2490561828097077F
:102FD8000020938727259C439DE39707002023A380
:102FE800A72485472326050000C5231125012300B2
:102FF8009500A300F5002322050045B7BA87D847F6
:1030080075FFC8C7F9BF411122C426C24AC006C607
:103018002A892E849939AA8419C123110500A28509
:103028004A85C93D9707002083C7871A639B2701F4
:103038009707002083D7871E5D8C97070020239F62
:10304800871C014591E01945B24022449244024947
:1030580041018280411106C69707002023A6A720B8
:103068000295B2409707002023A0A7180145410107
:103078008280994763E9B7008A05970700209387FC
:103088002718BE9588C18280411171468145170570
:1030980000201305E51606C622C426C297D0FF1FD6
:1030A800E780606C1306C0028145170500201305F0
:1030B800251297D0FF1FE780006BEF20B0729707AB
:1030C800002023A107169707002023AF07189707AA
:1030D800002083C7D71613D527008D8B3E958D47C3
:1030E8003305F502170400201304840E994785451B
:1030F800970400209384841039051375F50F230174
:10310800A4003305F5021305052497E0FF1FE780A7
:1031180060409707002023A7A714834724001305BE
:10312800052488C08A073E959707002023AAA70E82
:10313800053EBD2E83471400944017060000130671
:1031480046B513972700369710C3138717001377D0
:10315800F70F0A073697170600001306E6BB10C3D9
:1031680013873700890793F7F70FA300E400B240ED
:1031780022448A07B69790C39244410182809707F8
:10318800002083C7F704170700200347870463F369
:10319800E7021707002013076706184393861700EE
:1031A80017060020A306D60293962700369708C371
:1031B8003E8582809307F00FE5BF1C4163870716A1
:1031C80041777D8FB706002089476311D7160357CB
:1031D8004500630D0714411126C21946AA849305B8
:1031E800F00F690506C622C497D0FF1FE780C061AB
:1031F80005478D476305E512170400201304C40230
:103208001C4481CB58589947631B0710185C6318F6
:1032180007101306C0038145170500201305C500D4
:1032280097D0FF1FE78020541306C003A685170513
:103238000020130565FF97D0FF1FE780404F9707D1
:10324800002083D727FF99E793070010170700206E
:103258002312F7FE9707002083C7E7FD91E785470C
:10326800170700202309F7FC9707002083D7C7FC1E
:1032780091E7ED47170700202310F7FC9707002078
:1032880083C777FB91E7954717070020A305F7FA4F
:103298009707002083C767FA91E78547170700203B
:1032A800230DF7F89707002083C737F999E7834775
:1032B800F40017070020A302F7F89707002083C738
:1032C800E7F791E7B547170700202309F7F69707AF
:1032D800002083C7F7F699E79307800217070020B5
:1032E800A300F7F69707002083C757F599E79307D8
:1032F800D00217070020A303F7F483C7840199E7D6
:103308009307C00317070020230CF7F21C5491C73A
:103318008297970700202391A7ECBD338147B240DD
:10332800224492443E854101828089473E858280BD
:1033380097070020938787F39C43411106C682971D
:1033480093070064B307F5029706002083D6C6EA00
:10335800170700201307C7E7184F0145B3D7D7024F
:103368006300F7023385E7406368F700370500B06C
:103378003355D502198D3E95170700202326F7E609
:10338800B24041018280970700209387E7E9985768
:1033980039CB411122C426C206C6BE84029717073C
:1033A8000020035767E32A8415CBBA876373A70005
:1033B800AA87C207C183BA866373E400A286C206DD
:1033C800C182958F5147635BF700DC5491C38297A4
:1033D800EF00300D97070020239087E0B240224489
:1033E8009244410182808280970700209387C7E337
:1033F800DC57011106CE81C72AC68297324515C50A
:10340800B7873200938727A1170700202326F7DE06
:103418009707002023ACA7E417050000130585F1E2
:103428001539F2400145056182809707002083C75E
:1034380007E1139787016187635C070297070020FC
:1034480023A607DAB7873200938727A1170700203A
:103458002324F7DA7D57B7C7004023A4E72697D778
:10346800FF1F93876771170700202321F7E06DB7C7
:1034780013F7170011CFB7872003938707D01707D3
:103488000020232BF7D697D7FF1F93870772E1BF3A
:103498006177970600202391E6D681CB9307003207
:1034A80017070020231BF7D4F9BF93072003CDBFCC
:1034B800011122CC17040020130404D7084406CEB7
:1034C80026CA4AC801E90545F2406244D244424945
:1034D800056182805C58E5DB185C75D7700085450E
:1034E80082971844B247E300F7FE9305E0041705F6
:1034F8000020035525D497E0FF1FE780A001170798
:1035080000202327A7CE61D117060020035686D2B4
:103518009305F00F97D0FF1FE780E0248144170937
:1035280000201309E9CA9707002083C7C7D00326DC
:10353800090263C1F402328597E0FF1FE780A00A01
:1035480001459707002023A507CA9707002023A352
:1035580007CA9DBF9705002083D5C5CDB3879502BF
:103568000844185C898185043E9508C2029765BFA6
:103578009707002083C7F7C56382071841114AC01F
:1035880006C62A8922C426C27D55630C090E9707F0
:103598000020938727D683A6C708E5C6970400208E
:1035A800938484C88388640137450F00130FF5237B
:1035B80017030020035343C4970F002083CF4FC83D
:1035C8007D54854E13050524370EC0A89D429303EC
:1035D800204EB700405703C7B60083A70609631AF1
:1035E800D70703D7E60703D6A6036378C70A83C5B8
:1035F80006016394D50B83A58611C5E183A5460A08
:10360800C9ED83C5F600639A550883D58603198EDC
:1036180003A74609B385C50233466502B38575021B
:1036280033D7E502B3D5C5027E974207418323927B
:10363800E6083386F50063C508006363C60106968D
:10364800B3076702FA97B3D7A70263D20804B30790
:10365800F64063F387003E849442B5FE9707002046
:103668009387C7C09C4382976368A404B307A440A8
:103678002320F900832709002947636FF7042320D3
:103688000900B24022449244024941018280E37019
:10369800F6FCB307FE40B2976DBF03D74608330761
:1036A80067027A973357A70263D40800998F55B7F2
:1036B800E3FEE7FEF297DDBFB307854063DB070053
:1036C80083876401E3C407FAB707C0A8A297898F64
:1036D80045B72320090079BFD9172320F90083872C
:1036E800640163D50700130564FF61BFA547E3ECD8
:1036F80087FE3705C0A85915229561B77D55828088
:103708004111970700209387E7BE26C2970400203F
:10371800938484B822C4E05B9C4006C64AC09843A0
:103728000D8B05C3B84B619BB8CB984313678700D3
:1037380098C39C438D83858B89C7010001000100D4
:103748000100970700209387E7B2944337C7898E13
:10375800130767ED98C63757550013075755D8C252
:10376800034724029306F00F3E896307D700FD57ED
:10377800A300E4022301F40203451402894763030A
:10378800F500014598405C4393E717005CC3930735
:1037980010FA2305F4009707002083C7B7AE81CF3E
:1037A80017070020034707AE95476316F7009707EA
:1037B8000020A38907AC17070020034797AC9D4753
:1037C8006318F7009307701017070020231CF7AA47
:1037D800954717070020A306F7AA01469707002078
:1037E800238E07A89305F00F97070020238A07A8C0
:1037F800B924904097070020A38407A897070020C2
:10380800A38E07A685471CC283270900B705330086
:1038180098431377F7E798C398431377F7E7136745
:10382800071098C317070020130747AB184314471E
:10383800CD8E14C79306900D34CA5457F59A54D7B1
:10384800034794009376F7079843137707F8558F43
:1038580098C3B2402244924402494101828017062B
:103868000020130626A11C42B7068000B715018068
:103878009843938585E7558F98C39843B7060010FA
:10388800558F98C31307001DD8DB1707002003477F
:10389800E79A93169701CD8ED4D7D457B7050082EF
:1038A8001377F703FD15ED8E6607558FD8D73717B1
:1038B8000040930770052300F704930780FA23005C
:1038C800F7049706002083C66697B54763FBD702BF
:1038D8008357270293E707012311F7021842B70716
:1038E8000900938737081CD337E700E0D147A309BD
:1038F800F70497D7FF1F9387E72C93E717007CD728
:10390800828083572702C207C183BD9BC207C18338
:10391800E1B797070020938727969C4399CB944B50
:10392800D04B9842518F98C294439C479842D98F64
:103938009CC2970700209387E79317060020130679
:10394800A69593762500984303280600970700203C
:1039580083C76793C1C61443F578FD18B3F61601FB
:103968000963B3E6660014C3D1769388F6FF14435F
:103978008E050D4E9385B50293876723B3F616011E
:10398800631CC5031165C98E14C335673D0723261B
:10399800E8000F1000001842930600F8860523245B
:1039A800670017060020230DD68CBE958605BD67D7
:1039B8006CD3BD075CC7828014C335673D072326D7
:1039C800E8000F1000001842930600F8232467004F
:1039D800170600202306D68A8E05C1BFF576938880
:1039E800F6FF144305899387E709B3F6160105C561
:1039F80014C335673D072326E8000F10000018425E
:103A08008966AD0514C7930600F817060020230938
:103A1800D6868A0559BF0565C98E14C335673D0723
:103A28002326E8000F10000018428966A90514C76C
:103A3800930600F8170600202304D68471BF970761
:103A48000020938767839C4389CFD44303A88700CA
:103A580098423367070198C2D447DC4B9842D98F04
:103A68009CC2970700209387E780137725009C4323
:103A780035C39843F576FD16758F8966558F98C3BB
:103A8800370709001307670898D337273700130744
:103A9800F72D98CB372730084517D8CB37170300B1
:103AA8001307976198CF0D671307E78D98D7376786
:103AB8000001130707319E05D8D39385453697F73C
:103AC800FF1F23A3B77C11C6060697F7FF1F23AD78
:103AD800C77A8280370709001307370898D3372732
:103AE800100813071790D8CB37170300130747623E
:103AF80098CF0D671307E78B98D73767000113072F
:103B08000731D8D375779306F7FF9843054895058D
:103B1800758F631C050198C337272D001307072DE0
:103B280098CB8E059385C50359BF8566558F98C375
:103B3800372737001307072D98CB9205E5B797F776
:103B4800FF1F83C737748DE717F7FF1F0347777386
:103B58009307B7FF93F7F70F894663EBF60097F7DC
:103B6800FF1F2381E772854717F7FF1FA30CF77024
:103B78008280411106C617F7FF1F0347A7709D47AC
:103B88006311F70497F7FF1F83C74771858B17F6F3
:103B9800FF1F0346D67297F6FF1F83C64672B5C746
:103BA80097F7FF1F93878771C84325C18345150081
:103BB8000905EF00101511C5854717F7FF1FA30367
:103BC800F76C17F7FF1F0347E76B9547631BF70071
:103BD80097F7FF1F93870772FC5B83C7B7008DCBEE
:103BE800053617F7FF1F0347E76999476312F7027E
:103BF80097F7FF1F9387077083A7470883C7770046
:103C080081CBB24041016F2060458145014555B7E0
:103C1800B2404101828017F7FF1F1307E7671C4373
:103C280094438D8A85C2B44BE19AB4CB944393E60E
:103C3800860094C39C438D83858B89C7010001004E
:103C48000100010097F7FF1F9387C76294439C42C6
:103C580093F7F7E793E707089CC297F7FF1F938747
:103C6800E7679043B706CEFFFD161C46F58F1CC6C6
:103C78001C4313070008B8CB97F7FF1F9387C75F4C
:103C88009C4399CBD44390479842518F98C2944B08
:103C9800DC4B9842D98F9CC297F7FF1FA383075E1E
:103CA800828097F7FF1F9387675D9C4FDDC741119F
:103CB80006C622C426C24AC0052217F9FF1F1309E7
:103CC800695BEF10E039613E83270900F576FD1640
:103CD800984397F4FF1F9384646017F4FF1F13043D
:103CE800A45B758F98C39843B70633001377F7E73B
:103CF80098C398431377F7E71367071098C398405A
:103D08001C47D58F1CC71C401307D00DB8CBEF102C
:103D18000058EF202029EF10E04BEF10A0530327A5
:103D280009001C4393F7F7E793E707081CC394407F
:103D38003707CEFF7D179C46F98F9CC61C4013079A
:103D48000008B8CBED3BB240224497F7FF1FA38A87
:103D580007529244024941018280828097F7FF1FEF
:103D680023AC0750B7C700401387073097F6FF1FEB
:103D780023A0E6501387072097F6FF1F23AEE650CF
:103D88009387071037D70040411197F6FF1F23A7E5
:103D9800E65417F7FF1F232FF74C06C617F7FF1F28
:103DA8001307C74D8547A303F70097F7FF1F9387AE
:103DB800A7479C431CCF938707115CCBDD35B7E73A
:103DC80000E037071000B24023A0E71037072000B3
:103DD80023A0E7104101828097F7FF1F9387C74B05
:103DE8009C431307C00893066007D8CBD4CFD8D319
:103DF8001306C003D0D7D8DBD0DFF8C317F7FF1FEF
:103E08001307C747184FF4C7F8DB41677D1798C7F2
:103E18003D673D07D8C737E700E0D5472309F704D2
:103E280097D7FF1F9387C72D93E717003CD782804A
:103E380097F7FF1F9387874A944397F7FF1F938746
:103E480067439C436387051037B724001307F7E9D6
:103E58006366A7089843137707F81367570298C350
:103E680013F7150001CB93F5050341476390E50E61
:103E780013050583D856370810FE7D1813672700E9
:103E8800D8D64167130707A03356E5023375E50214
:103E98001307A00F7D8A93154601F0423376060179
:103EA8004D8EF0C23706FCFF2A053355E502F8426D
:103EB800718F3A053981598DE8C217F7FF1F0347FB
:103EC800E73D098B19CB98431377F70793660704E7
:103ED8009843137707F8558F98C3828037072500D2
:103EE8001306F7486363A6023767DBFF13070793D8
:103EF8002A971306007D3357C7027D17904313771F
:103F0800F707137606F8518F99BF13070749631807
:103F1800E5009843137707F81367670289B737D71F
:103F280025001307F777636DA7003767DBFF1307D3
:103F380007932A971306007D3357C70279177DBF69
:103F48009843137707F81367770211BF130585C1E4
:103F580015B7D8561375F507759BD8D698431377B8
:103F680007F8598D88C391BF411106C697F7FF1FFF
:103F7800238D07344D3101458145EFF08F8FB240D5
:103F880001454101828097F7FF1F9387E7309843E7
:103F9800797117F5FF1F0345653022D426D206D65E
:103FA8004AD04ECE93761500BE8417F4FF1F130433
:103FB800E42C638C061283472400858B63840710E6
:103FC8001185014697F5FF1F83C5052F0D8997F7C2
:103FD800FF1F2386072AA53497F5FF1F83C5052CE5
:103FE80091851306F00F8D89054597D0FF1FE7804F
:103FF800C0E29D3F17F9FF1F1309492A83270901CA
:10400800014681450545829783473400CA89858BD7
:10401800C1CF084C97F7FF1FA38307268145814628
:104028001306F100A307010097F7FF1F238A07244F
:1040380097D0FF1FE780C0D193158501E1858DE1F9
:104048001C4C9306F00F03C70700630BD70097F7C4
:10405800FF1F83C7B7266385D7006303F700894529
:104068008387090063C707001C4C0347F1002380BE
:10407800E70083A70901104C93F5F50F09458297CE
:1040880097F7FF1F83C74724898B81CB854517F591
:10409800FF1F0345A523EFE01FE3B25022549254BB
:1040A8000259F249456182809C40FC53FDF797F71D
:1040B800FF1F2387071C83270901014681454945BE
:1040C8008297E1BF7C53E39607EE793DEFF0AFAB03
:1040D80097F7FF1F2386071A97F7FF1F9387071C79
:1040E8009C4B014681454545E1BF83473400858B9C
:1040F8009DC39D3D97F7FF1FA383071897F7FF1FE1
:104108002380071897F7FF1F938747199C4B014691
:104118008145054575B77C53E9FBB93555BF1C4941
:10412800638C0710411122C406C6834705002A8400
:1041380093F7070481C75C410945FDCB13060002CC
:10414800814517F5FF1F1305651597C0FF1FE78009
:104158008061A2851306000217F5FF1F13050514D9
:1041680097C0FF1FE780A05C97F7FF1F83C79714CE
:1041780017F4FF1F1304841299E79307800217F7B7
:10418800FF1FA309F71297F7FF1F83C7C71291E70D
:10419800A14717F7FF1F2300F71297F7FF1F83C7E1
:1041A800971191E7C54717F7FF1FA306F71097F771
:1041B800FF1F83C7671091E7ED5717F7FF1F230D00
:1041C800F70E97F7FF1F83C7370F91E7ED5717F7DC
:1041D800FF1FA303F70E97F7FF1F9387270EC84308
:1041E80009C597D0FF1FE780004097F7FF1F23A955
:1041F800070C83470400858B85C317F5FF1F03450C
:10420800B50B93059004090597D0FF1FE780803010
:1042180097F7FF1F23A6A70A83471400014517F73E
:10422800FF1FA304F70A1C4417F7FF1F2322F70AEE
:10423800B24022444101828005458280797122D4AE
:1042480017F4FF1F130484051C4406D626D24AD04F
:104258004ECE52CC56CA5AC85EC662C466C2638085
:10426800072A17FCFF1F130CEC0003270C0017FA92
:10427800FF1F130AAA06B68A1C4397F9FF1F9389E2
:10428800A90117F9FF1F1309690393F7F7E793E7E4
:1042980007081CC383260A003707CEFF7D179C46F4
:1042A800AA8BAE84F98F9CC683A709001307000860
:1042B800328BB8CB8347C900BD4C898B6390071EEE
:1042C80003270C005C57F19B93E717005CD78347E3
:1042D800C900898B6383071E814517F5FF1F0345B6
:1042E800F5FBB93683270C0037063300984313775C
:1042F800F7E798C398431377F7E71367071098C34E
:1043080083260A009846518F98C603A7090093068A
:10431800A00D34CB97F6FF1F83C646F813F60604A4
:104328006306061A4C403796DBFF13060681B295E2
:1043380061661306066A637BB6181306800C70D391
:104348001044858A90C75044D0C354C38347E900BA
:1043580093E7270017F7FF1F2309F7F697F7FF1FC3
:10436800A38E57F597F7FF1F238A67F597FAFF1F64
:10437800938ACAF003A54A01638D0B1423006501D3
:10438800A30095002686DE85090597C0FF1FE780F4
:10439800003A83A7090003A74A01814517050000D1
:1043A8001305A5BEB8DB97F7FF1FA38A07EC97F79D
:1043B800FF1F238707ECEFE0DFCBEFF04FF88D47C7
:1043C80017F7FF1FA30FF7EA8347C900898BA9C70F
:1043D80003A709007C53FDFF97F7FF1F938707E9A1
:1043E8009C43829717F7FF1F130707E4030767012A
:1043F800832789006352070E1D8D034704000D8132
:1044080083A74A01218B6DC3370780006205130714
:10441800F72F598D88C3894497F5FF1F83C505E891
:104428009185014526868D8997D0FF1FE780E09EFC
:1044380003270A0001455C578583858BB9C35C4017
:10444800C165938505A0938787C1B3D6B70237089E
:1044580010FE7D18B3F7B702FD8A13964601744320
:10446800B3F60601D18E74C39306A00F3706FCFF7E
:10447800AA07B3D7D7027443F18EBA07B983D58F89
:104488007CC3B250225492540259F249624AD24A29
:10449800424BB24B224C924C4561828097D0FF1F11
:1044A800E78040EFE3FCACFE97F7FF1F83C7A7E068
:1044B8009607C117E3E4A7FE21B58347040093F7E5
:1044C8000704E38B07E08945484021BD1306000A2D
:1044D800BDB52320650175BDE370F5F23707C0A8A7
:1044E800B307F7403E9511BF890493F4F40FA380F6
:1044F8009700A69723800700A380A70031BF054532
:1045080049B797F7FF1F9387E7DE83A7870991CFFE
:10451800054582800545F2406244D2444249B24989
:10452800224A924A024B05618280011126CA97F4F9
:10453800FF1F9384A4D69C4406CE22CC4AC84EC6FC
:1045480052C456C25AC0F9D717F9FF1F1309C9D464
:104558008327090098430D8B05C3B84B619BB8CBE3
:1045680098431367870098C39C438D83858B89C7BD
:10457800010001000100010017F4FF1F130404D417
:104588008347C400B68A328B918BAE892A8A89EB1D
:1045980097F5FF1F83C585D093F70504639C07141F
:1045A800814517F5FF1F034575CFEFF07F8817F595
:1045B800FF1F0345A5CE1185014697F5FF1F83C54B
:1045C800A5CF0D89EFF0AFC717F7FF1F130787CAED
:1045D80094441C4394C7D444D4C383C7040083269B
:1045E8000900BA84858BDCC297F7FF1FA38967CDC2
:1045F80097F7FF1F238557CDDC42858BB1CF5C40F1
:1046080085E317F5FF1F034535CB9305900409058E
:1046180097D0FF1FE78000F097F7FF1F23A2A7CAD4
:104628005C40E38907EE17F7FF1F034747C923805C
:10463800E7005C4063060A0C6384090CA380370119
:1046480048404E86D285090597C0FF1FE780200E97
:10465800832709005840B8DBEFF06FCE8347E400AA
:1046680093E7470017F7FF1F2301F7C693070004D6
:1046780017F7FF1F2304F7C097F7FF1F238207C010
:104688009D4717F7FF1FA30EF7BE97F7FF1F9387E6
:10469800A7B99C5791CB13060064C14517F5FF1FB6
:1046A8000345C5C2EFE03F8897F7FF1FA38A07BC01
:1046B8008326090097F7FF1FA38207BC9840854708
:1046C8009CC21C4337063300014593F7F7E71CC328
:1046D8001C4393F7F7E793E707101CC397F7FF1FEF
:1046E8009387C7BF98431C47D18F1CC79307900D6A
:1046F800BCCA15B593F5050393E51500C84075B513
:10470800A3800700B1B7797126D297F4FF1F93846D
:10471800E4B883C7040022D406D64AD04ECE52CC81
:10472800858B17F4FF1F130464B563840730834730
:104738000400858B6386072C97F7FF1F938707BABA
:104748009843A3070100032984015C578583858B5F
:10475800A1C3DC40C165938505A0B3D6B702370570
:1047680010FE7D15B3F7B702FD8A13964601744310
:10477800E98ED18E74C39306A00F3706FCFFAA07F3
:10478800B3D7D7027443F18EBA07B983D58F7CC3E8
:1047980081461306F10081454A8597F7FF1F238F4D
:1047A80007AC97C0FF1FE780A05A131A8501135A58
:1047B8008A4163120A0297F7FF1F83C757B093060F
:1047C800F00F638AD700184C034707006305D7002A
:1047D8006303F700094A8387040097F9FF1F938949
:1047E800E9AD63CA0712631A0A128347F10023006E
:1047F800F90083C7C900918B95C783471900CA97E9
:1048080003C7070093070008631EF7005C481307F7
:10481800F00F98C383C7040093E7870017F7FF1FBB
:10482800230EF7A697F7FF1F9387C7A49C43B706E5
:1048380080009843558F98C3D857719BD8D783A7C2
:10484800490017F5FF1F034565A5118583C51700A6
:104858000D89EFF00F8C97C0FF1FE780804BEFF0BA
:104868008FBB97F6FF1F83C626A693F74600638B78
:10487800071417F7FF1F1307279B030667011C4838
:10488800635D060CF11717F7FF1F2321F7A01C48DB
:1048980003A78900635B060C3387E7408347190049
:1048A80093958601E185CA9783C717008E0763DD54
:1048B800050C63F2E70C1D8F9306000263EBE6001C
:1048C8001848635D060AB307F74017F7FF1F232B45
:1048D800F79E894517F5FF1F0345459FEFE0AFDEBB
:1048E80083C70400A18BF1CB03A5490017F6FF1F6E
:1048F8000346F69C97F6FF1F83C6669C45CD834505
:1049080015000905FD3E83C70400DD9B17F7FF1F4F
:104918002306F7981DA8E30E0AECEFF0CFAF104C72
:104928009C480D459375FA0F829703A5490017F621
:10493800FF1F0346D69897F6FF1F83C64698630263
:1049480005268345150009056D3EB2502254925440
:104958000259F249624A456182800D47E364F7F2E1
:104968003707C0A87117BA9739BFE3F7E7F2B70559
:10497800C0A8AE9715B73387E7403DBFE375F7F496
:10498800B706C0A8369781B71848635F0600B30713
:10499800F74093E606F817F7FF1F2325F79297F7D6
:1049A800FF1F2383D79235B7E373F7FE3706C0A8F6
:1049B8003297F1BF81450145B1B783471900F9170F
:1049C800A300F900EFF04FDA9C48104C81450D45E3
:1049D800829783471400858B99CB97F7FF1FA38F86
:1049E80007889C480146814511458297B9BF97F7CA
:1049F800FF1F238707889C48014681455145F5B725
:104A0800EFF0EF9397F7FF1F9387C7869843B70692
:104A180080001C43D58F1CC3EFF00FD597F7FF1FFD
:104A2800938787809C5B89458DD3130510088297EF
:104A380029BF83471400858B6381072297F7FF1FDF
:104A4800A38E078203298401EFF00FD297F6FF1F88
:104A580083C6868793F74600638A071A8347190037
:104A6800CA9703C7070093070008631AF70083C7AC
:104A7800040093E7870017F7FF1F2301F78217E762
:104A8800FF1F1307677A030667011C48635E061059
:104A9800F11717E7FF1F232BF77E1C4817F7FF1F97
:104AA8001307C7811847635906103387E7408347C0
:104AB800190093958601E185CA9783C717008E0769
:104AC80063DB051063F0E7101D8F9306000263EBAC
:104AD800E6001848635B060EB307F74017E7FF1FA9
:104AE8002322F77E894517E5FF1F0345257EEFE062
:104AF8008FBD83C70400A18B6385071097E7FF1F4D
:104B08009387877994439307800C1307F00FFCD29F
:104B18005C4837063300014598C397E7FF1F238099
:104B2800077697E7FF1FA38C077497E7FF1F238972
:104B3800077497E7FF1FA385077497E7FF1F9387FD
:104B4800677398431C4393F7F7E71CC31C4393F719
:104B5800F7E793E707101CC397E7FF1F93870778CA
:104B6800984397E5FF1F83C5657391851C478D8919
:104B7800D18F1CC79307A00DBCCA054697C0FF1F5D
:104B8800E780A02983C7040097E6FF1F83C6267322
:104B980017E6FF1F0346B672DD9B17E7FF1F230FBB
:104BA800F76E814501454DB30D47E363F7EE3707CF
:104BB800C0A87117BA97F1BDE3F9E7EEB705C0A829
:104BC800AE97E5B53387E74009B7E377F7F0B7065F
:104BD800C0A8369711B71848635F0600B307F740B7
:104BE80093E606F817E7FF1F232EF76C97E7FF1FDA
:104BF800238CD76CC5BDE373F7FE3706C0A8329780
:104C0800F1BF83471900F917A300F900084C930670
:104C1800F00F014903470500630BD70097E7FF1F13
:104C280083C7F7696385D7006303F700094983875A
:104C38000400814663D007020146814597C0FF1FE3
:104C4800E78000113365A9009375F50F9C48104C57
:104C58000D4561BB2A868145D5B7EFE05FEE97E742
:104C6800FF1F938727619843B70680001C43D58FA1
:104C78001CC3EFF06FAF97E7FF1F9387E75A9C5B62
:104C8800E38507CC854555B397E7FF1F238F076258
:104C980097E7FF1F93878762C843411106C609C576
:104CA80097D0FF1FE780209497E7FF1F23AA07608C
:104CB80097E7FF1F83C7175D81CF17E7FF1F0347DC
:104CC800675C9D476316F70097E7FF1FA38C075A99
:104CD80097E6FF1F83C6F65A9387B6FF93F7F70F39
:104CE8000547636AF70097E7FF1F238DD75897E7B3
:104CF800FF1FA389E758EFE01FF2C14517E5FF1F23
:104D08000345C55CEFE02FB001458145EFE06FB684
:104D1800B240014541018280411106C622C4AD3727
:104D280097E7FF1F9387875903C7F700DC4BA14517
:104D380017E5FF1F0345855997E6FF1FA380E65631
:104D480017E7FF1F2320F756EFE0EFAB914517E574
:104D5800FF1F0345A557EFE00FAB97E7FF1F83C77A
:104D6800A75613F7270017E4FF1F1304245319CF7E
:104D78001C4801468145130520028297B24022440F
:104D880097E7FF1F2382075441018280918BFDD74B
:104D98001C480146814513054002C5B7797126D2E2
:104DA80097E4FF1F9384845183C7C40006D622D496
:104DB8004AD04ECE52CC56CA5AC85EC6898BE1CB71
:104DC80097EAFF1F83CA8A4D93E79A003569856978
:104DD8003D6A17E7FF1F2303F74C014417EBFF1F3A
:104DE800130BCB4997EBFF1F938B0B4B3D09938913
:104DF80029F93D0A97E6FF1F83C6564C17E6FF1FA1
:104E08000346C64B81450145EFF04FC383472B004E
:104E1800858BEDD317E5FF1F0345454811850146EE
:104E28009305F00F0D8997E7FF1F238A0744EFE0EA
:104E38001FC1F9470100FD17F5FF97E5FF1F83C55F
:104E4800E54591851306F00F8D89054597C0FF1F2D
:104E5800E780A0FC83473B00858BA9C797E7FF1F26
:104E6800A38F0740EFF04F9083C7C400854517E52F
:104E7800FF1F0345A54593E707F817E7FF1F23051D
:104E8800F744EFE04F8497E7FF1F23895741B2505B
:104E9800225492540259F249624AD24A424BB24BC6
:104EA80045618280EFF04F8C05041374F40FA1471D
:104EB8006314F4009535C1BF83A70B0023A627010F
:104EC8000F10000083A70B00096798C7130700F8A5
:104ED80097E6FF1F2386E63A23A2370723A6470152
:104EE800F8537DFF01BF411122C406C693F7150090
:104EF8002E84B9C397E7FF1F83C7073D13F7270021
:104F080015C7E207E18717E5FF1F0345253C130690
:104F1800000563DA070017E6FF1F0346B639930753
:104F2800000A3306F6029145EFD0FFFF134514003F
:104F3800B24022444101828093F72500B1C397E72C
:104F4800FF1F83C7673813F7470005CBE207E187E0
:104F580017E5FF1F034585371306000A63DC0700C2
:104F680017E6FF1F034616359307000A3306F602B5
:104F780013068602A145EFD01FFB134524004DBF41
:104F880093F7450089C7193D1345440055B793F772
:104F9800850099CB97E7FF1F83C70733918B91C390
:104FA800A53B1345840069B793F705010145C9D3AB
:104FB800EFE06FBD17E7FF1F0347B72C9D47631B43
:104FC800F70013060064C14517E5FF1F03450530C8
:104FD800EFD07FF513450401A1BF411106C622C4D5
:104FE800EFE0DFD77146814517E5FF1F1305052D53
:104FF80097B0FF1FE780207717E4FF1F1304042CE6
:10500800FD5717050000130545EE1CC0EFE02F976C
:105018002308A400954517F5FFFF1305056FEFE07A
:105028004F85B240224401454101828097E7FF1F26
:105038009387C72A9443056713071710D8C65147A3
:1050480001007D1775FF984323260700514701008B
:105058007D1775FF98438567938717105CC7828013
:10506800411106C6E13797E7FF1F938727279C431F
:10507800130700483703009098D7B8477D13370EB9
:105088000020337767003367C701B8C7B847B7064A
:1050980000F9FD16758F37060004518FB8C7B84759
:1050A8003706F9FF7D16419B13679700B8C7B847C5
:1050B800B7080080B70E0002718FB8C7B847370627
:1050C80000FF7D1633671701B8C7F84745757D1E81
:1050D800619B13673700F8C7F8471377F7F813672A
:1050E8000703F8C7EC4793F5F58F93E50530ECC750
:1050F800F847718FF8C7F84711663367D701F8C7C3
:1051080003A807051307F5FF7D753378E8003368B2
:10511800C80023A8070503A847057D15137808FFCD
:105128001368480023AA0705F04B13660608F0CB5E
:10513800F04B698EF0CBC85F798D2167598DC8DF38
:10514800CC5F37070040F58DB3E5D501CCDFD05FE4
:10515800B70570003376C601598ED0DFD05709677E
:105168004D8ED0D7D057F18ED4D7D45775767D16BB
:10517800F18ED98ED4D7D4573706FDFF7D16370761
:105188000200F18ED98ED4D7945BC19A94DB945BDC
:1051980093F6F6F094DB945B93F6F68F94DB985BCA
:1051A800B70600504D8F98DB985B33776700558FB3
:1051B80098DB985FB70608FFFD16758FB70688005D
:1051C800558F98DF985FB368170123AC1703B24077
:1051D8004101828017E7FF1F130747101C434176E0
:1051E8007D16B44BF18EB4CB944737062000D18E90
:1051F80094C7D44793E60601D4C7D447BD9AD4C709
:10520800010001000100010014430566DC4693E734
:105218000701DCC6DC42D18FDCC283A7C609A183A3
:10522800858BE5DF01000100010001001C43416698
:1052380003A7C709B44BD18EB4CB9376F701B84B0B
:10524800019B558FB8CB9847B706E0FFFD16758FC1
:1052580098C7828097E7FF1F938747089C43417749
:105268007D17B44F4166F98EB4CF9447D18E94C759
:10527800D44793F6F6EFD4C7D443758FD8C3D44731
:1052880093E60610D4C7D843518FD8C382803971AA
:1052980022DC17E4FF1F130464041C4006DE26DA30
:1052A8004AD84ED652D456D25AD05ECE62CC66CAAE
:1052B8006AC86EC6D843FD76FD161377F7EFD8C3D4
:1052C8009857758F98D7D857B70602003D9BD8D7FF
:1052D8009847558F98C7D84313670701D8C303C7A2
:1052E800218183C63181558F61EFD84381749384BE
:1052F800F40F799BD8C3985FB166938606F0658FE3
:10530800558F98DFD84313671700D8C397C0FF1F7E
:10531800E780401D1C4003A707091377F70323897B
:10532800E18003A7470929831377F707A389E18059
:10533800D843B96693860670799BD8C3985F658F02
:10534800558F98DFD84313671700D8C397C0FF1F3E
:10535800E78040191C4003A707091377F70397E66E
:10536800FF1FA38FE6F603A7470929831377F707DB
:1053780097E6FF1FA382E6F6D843B5669386063004
:10538800799BD8C3985F658F558F98DFD84313678B
:105398001700D8C397C0FF1FE780C01418408327A1
:1053A800070993F7F70397E6FF1F238BF6F2832786
:1053B8004709A98393F7F70717E7FF1F230EF7F0AD
:1053C8001C4017ECFF1F034CACF183C6218103A7D7
:1053D800070AB386864113F6F600419B518F23A036
:1053E800E70A130760023387E6021306700283A5F3
:1053F800070A7D7E130EFE0F93F5F5F013054002A4
:1054080045737D13130430023347C702B708F1FF11
:10541800FD1813082002930E10027D4FF94FF54234
:10542800F1436D4DD14B454BBD443949314AAD4AE5
:10543800B5493D8B12074D8F9305500223A0E70A0B
:105448003387B60283A5070AB3F5C5013347C702F8
:105458003D8B22074D8F23A0E70A3387A60283A539
:10546800070A370500F17D15B3F565003347C70214
:105478003D8B32074D8F23A0E70A3387860283A529
:10548800070A6144B3F515013347C7023D8B42074C
:105498004D8F23A0E70A3387060383A5070A370839
:1054A80010FF7D18B3F505013347C7023D8B52073E
:1054B8004D8F23A0E70A3387D60383A5070AB70EC3
:1054C8000010FD1EE98D3347C7023D8B62074D8FE3
:1054D80023A0E70A139756003347C7029315C7015D
:1054E80003A7070A3377D7014D8F23A0E70A33872D
:1054F800E6035D4F3347C7029375F70003A7470AD2
:10550800419B4D8F23A2E70A3387F60383A5470AF9
:10551800D94F93F5F5F03347C7023D8B12074D8FEE
:1055280023A2E70A3387560283A5470AD542B3F573
:10553800C5013347C7023D8B22074D8F23A2E70AD7
:105548003387760283A5470ACD43B3F56500334711
:10555800C7023D8B32074D8F23A2E70A3387A60384
:1055680083A5470A494DB3F515013347C7023D8B5B
:1055780042074D8F23A2E70A69473387E60283A5CE
:10558800470AB3F505013347C7023D8B52074D8FD4
:10559800E54523A2E70A3387B60283A5470AE98DC2
:1055A8003347C7023D8B62074D8F23A2E70A338733
:1055B80086020D443347C7029315C70103A7470A5C
:1055C8003377D7014D8F23A2E70A3387E603254FA8
:1055D8003347C7029375F70003A7870A419B4D8F8E
:1055E80023A4E70A3387F60383A5870A9D4F93F51B
:1055F800F5F03347C7023D8B12074D8F23A4E70A06
:105608003387560283A5870A9942B3F5C501334704
:10561800C7023D8B22074D8F23A4E70A3387760301
:1056280083A5870AB3F565003347C7023D8B320768
:105638004D8F23A4E70A3387760283A5870A95430B
:10564800B3F515013347C7023D8B42074D8F23A49D
:10565800E70A3387A60383A5870A294DB3F5050111
:105668003347C7023D8B52074D8F23A4E70A338780
:10567800660383A5870AE98D3347C7023D8B620716
:105688004D8F93954600B3C5C50223A4E70A03A727
:10569800870A3377D701F2054D8FB385960223A485
:1056A800E70A03A7C70A419BB3C5C502BD894D8F49
:1056B80023A6E70A3387260383A5C70A93F5F5F0DF
:1056C8003347C7023D8B12074D8FB3C5860223A609
:1056D800E70A03A7C70A3377C701BD89A2054D8F1B
:1056E80023A6E70A3387460383A5C70AB3F56500EF
:1056F8003347C7023D8B32074D8F23A6E70A33870E
:10570800560383A5C70AB3F515013347C7023D8B76
:1057180042074D8F23A6E70A3387A60383A5C70A46
:10572800B3F505013347C7023D8B52074D8F23A6BA
:10573800E70A3387E60383A5C70AE98D3347C7021B
:105748003D8B62074D8F93953600B3C5C50223A6DE
:10575800E70A03A7C70A3377D701F2054D8FB38548
:10576800F60323A6E70A03A7070B419BB3C5C502A7
:10577800BD894D8F23A8E70A3387560283A5070BF7
:1057880093F5F5F03347C7023D8B12074D8F23A8D9
:10579800E70A3387760283A5070BB3F5C5013347BC
:1057A800C7023D8B22074D8F23A8E70A13972600CF
:1057B8003347C70283A5070BB3F565003D8B320756
:1057C8004D8FB3C5360323A8E70A03A7070B337722
:1057D8001701BD89C2054D8F23A8E70A1397160044
:1057E8003347C70283A5070BB3F505013D8B520765
:1057F8004D8FB3C5C60223A8E70A03A7070B698F15
:10580800BD89E2054D8F23A8E70A03A7070B930577
:1058180080023377D70123A8E70A17E7FF1F03475A
:1058280037AC3307EC40B34DB70283AC470B93FC5E
:105838000CFFB34B770393FDFD00B3ECBC0123AA27
:10584800970B83AC470BCD4D93FCFCF093FBFB000F
:10585800920BB3EB7C0123AA770BB30B870283ACC3
:10586800470BB3FCCC01B3CBBB0293FBFB00A20BF1
:10587800B3EB7C01B34CA70323AA770B83AB470B8D
:10588800B3FB6B0093FCFC00B20CB3EB9B0123AAA7
:10589800770BA14BB34B770383AC470BB3FC1C01CD
:1058A80093FBFB00C20BB3EB7C0123AA770BB30B72
:1058B800570283AC470BB3FC0C01B3CBBB0293FB81
:1058C800FB00D20BB3EB7C0123AA770BB30BF703D6
:1058D80083AC470BB3FCAC00B3CBBB0293FBFB0020
:1058E800E20BB3EB7C01B34C770223AA770B83ABB3
:1058F800470BB3FBDB01F20CB3EB9B01B30CE703E3
:1059080023AA770B83AB870B93FB0BFFB3CCBC02AB
:10591800B30A570393FCFC00B3EB9B0123AC770B52
:10592800914B83AC870B93FCFCF0B34B7703330AA2
:10593800470393FBFB00920BB3EB7C0123AC770B83
:1059480083AB870BD54CB3FBCB01B3CABA02B309FF
:10595800370393FAFA00A20AB3EA5B0123AC570BA8
:1059680083AA870BD94BB3FA6A00334ABA023309C0
:105978002703137AFA00320A33EA4A0123AC470BA9
:1059880003AA870BE14A337A1A01B3C9B902B304EF
:10599800970293F9F900C209B3693A0123AC370BAE
:1059A80083A9870B654AB3F909013349B902B3C41E
:1059B800B4021379F900520933E9290123AC270B02
:1059C80003A9870BE9493379A900330B6703BD881D
:1059D800E204B36499001319470023AC970A83A41F
:1059E800870BB3F4D4013349B902334BBB027209B4
:1059F800B3E4240123AC970A83A4C70BC198137B93
:105A0800FB0033EB6401C944B304970223AE670B70
:105A180003A9C70B5D4B1379F9F0B3C4B402BD8871
:105A28009204B364990023AE970AB304B70303A999
:105A3800C70BF54D3379C901B3C4B402BD88A204BC
:105A4800B364990023AE970A8944B344970203A923
:105A5800C70B33796900BD88B204B364990023AEDB
:105A6800970AB304970303A9C70BF94C33791901B3
:105A7800B3C4B402BD88C204B364990023AE970AC4
:105A8800B304770303A9C70BFD4B33790901B3C4EA
:105A9800B402BD88D204B364990023AE970AB30454
:105AA800670303A9C70B130B10023379A900B3C40A
:105AB800B402BD88E204B364990023AE970AB30424
:105AC800570303A9C70B930A20023379D901B3C43A
