:040000006F00807598
:100004000000000000000000900000209802002082
:100014000000000094000020000000000000000028
:10002400960000209800002000000000000000005E
:100034009A000020000000009C0000200000000046
:100044009E000020C6000020CA000020A40000205A
:10005400A6000020A80000201A010020AC00002007
:10006400AE000020B0000020B20000202A030020CF
:10007400B6000020B8000020BA000020BC00002018
:10008400BE000020C0000020C2000020C4000020E8
:1000940001A001A001A001A001A001A001A001A054
:1000A40001A001A001A001A001A001A001A001A044
:1000B40001A001A001A001A001A001A001A001A034
:1000C40001A001A001A073002030397106DE16DC06
:1000D4001ADA1ED82AD62ED432D236D03ACE3ECC14
:1000E40042CA46C872C676C47AC27EC0971000E07F
:1000F400E780A0E7F250E2525253C2533255A25560
:10010400125682567247E2475248C248324EA24EB5
:10011400124F824F216173002030397106DE16DCE4
:100124001ADA1ED82AD62ED432D236D03ACE3ECCC3
:1001340042CA46C872C676C47AC27EC0971000E02E
:10014400E7804007F250E2525253C2533255A2554F
:10015400125682567247E2475248C248324EA24E65
:10016400124F824F216173002030B717004093066D
:1001740070052380D704130780FA2380E704010065
:10018400010003C6B7041376F60DA385C7042380C4
:1001940007041376050235CA03C6A700118A1DE2B7
:1001A4002380D7042380E7040100010003C7A700CC
:1001B400136747002385E7009307004B0100010004
:1001C400FD17EDFFB7170040930670052380D70491
:1001D400130780FA2380E704010001007D8923943A
:1001E400A70001000100010001002380070423800F
:1001F400D7042380E7040100010037270040854627
:10020400A303D7802380070482801376050425CABC
:1002140003C6A700418A1DE22380D7042380E70494
:100224000100010003C7A700136707012385E70046
:100234009307007D01000100FD17EDFFB717004093
:10024400930670052380D704130780FA2380E704FC
:10025400010001007D89136505042394A7000100B2
:10026400010001000100238007042380D7042380B8
:10027400E70401000100372700408D4651B7238071
:10028400D7042380E7040100010003D78700136724
:10029400070C2394E700828039712AD62ED432D2F7
:1002A40036D001468146814511453ACE3ECC06DE24
:1002B40016DC1ADA1ED842CA46C872C676C47AC296
:1002C4007EC01D22B7170040130770052380E70482
:1002D400130780FA2380E704010001007D57239669
:1002E400E70203C76704136717002383E704238027
:1002F400070401A0BD473305F50201007D1575FD16
:100304008280411122C426C206C6AA84014463170E
:100314009400B240224492444101828005041305B2
:10032400803E4204C13F4180DDB773002030230387
:10033400048095472303F4802302A48082808307EA
:100344006480E3CE07FE23030480828083076480F5
:10035400E3CE07FE03454480828083076480E3CEB6
:1003640007FE2302A4808280411126C44AC24EC0E3
:1003740006C61377F50BAD47AA892E899544630603
:10038400F70019456D37653F8D444E854D37FD594E
:10039400FD1463983401B240A244124982494101D8
:1003A4008280135509011375F50F453F2209CDB716
:1003B400011126CC06CEB704080051371545853FF8
:1003C400713769372AC6A53F32459377150089EB03
:1003D400136515001375F50FF240E2440561828040
:1003E400FD14E9FC0145CDBF397126DC4ADA4ED84B
:1003F40052D656D45AD25ED006DE62CE66CCB7E769
:1004040000E07D5783AA070022C603AA470023A061
:10041400E71823A2E718B7170040130770052380D5
:10042400E704130780FA2380E70483C74704930B88
:1004340075FFB684E20793FBFB0F8546AA892E8BD2
:10044400328937240040E187015763FA7601630853
:10045400D5008946130700026313D5000157D98FCD
:1004640093F7F70FB71C00402382FC0411472303C2
:10047400E4801305F00F653D094CD135636D7C11A3
:10048400B7050700DA9537870700795563F2E50465
:10049400B3879500636EF702370B0800A94733EB67
:1004A40065016399F90689E48144513D26850DA0CF
:1004B400DA850945553D05090345F9FFFD14050B8A
:1004C400693D81C49377FB0FFDF7DD3569FD7D55EB
:1004D400B7170040130770052380E704130780FA59
:1004E4002380E70403C74704418B2382E704F250C7
:1004F400B7E700E023A0571123A24711E254324486
:100504005259C259325AA25A125B825B724CE24C63
:1005140021618280A5476395F90685691309F00F67
:10052400B3069900B3742B01B6941349F9FFB3745D
:100534009900856B33796901416B9387F9FFB3F7B0
:10054400270199E363FC340193D94900C147E3E6E9
:1005540037FF99BF0569C1697D19D9B71305800DA6
:100564006388690113050002638479011305100887
:10057400CA85DD3B353D21DD4E99B3843441D9B77D
:10058400DA852D45D533CA94E30099F205097D3BFC
:10059400A30FA9FED5BF9387F9FF93F7F70F636104
:1005A400FC0C83C71C0413073008631FF7043707C8
:1005B4000800636BEB04B3079B00B706100063F5F8
:1005C400D704334BEB0089476393F9068980D549F7
:1005D400E38C04ECDA850945413B11090327C9FF83
:1005E40091472320E48003076480E34E07FE23033E
:1005F4003481FD17EDFBFD14110B81C49377FB0FC0
:10060400E9FF7D3371F5E1B5B717004003C757041F
:10061400B70708001377070219E3B787070079556E
:10062400E378FBEA33079B00E3FFE7F855B585471A
:10063400E382F9F2DA852D45053B9389F4FFE385DE
:1006440004E6293393F7390091EB832604800327CA
:10065400090093074900E39AE6E43E89CE84F1BF9A
:10066400B5476396F9001305900BD13135BDB147F9
:100674001305B00AE38BF9FE99476391F904B705B2
:100684000800B365BB002D45C53181448D4BA1499C
:10069400753963967401832704802320F900850447
:1006A400E39834FF8327048013172B016355070055
:1006B4002312F900D5BB2322F900FDB39D476399AA
:1006C400F90281451305B0044531BD4423200900D6
:1006D40023220900FD599D3993F77400CA9703C773
:1006E4000700FD14398D2380A700E39634FF6DBB0A
:1006F400A1476392F9046D398144630D0B008D4762
:100704009304C0036308FB009304000563048B0196
:10071400930440041375C507E30895D819450139B6
:1007240039390545293126850D3909453D31493188
:10073400E31C05D669BB91476399F900130560066C
:10074400FD36F53E130590090DB7E38F09D4F15436
:04075400A9BB00003D
:100758009711002093818190178100201301018A4D
:10076800130540009705002093854589170600204A
:10077800130606FE63FAC5008322050023A0550070
:1007880011059105E3EAC5FE172500001305C5CE3E
:1007980097050020938585061386818063FAC50036
:1007A8008322050023A0550011059105E3EAC5FE43
:1007B800138581809385C1C86377B5002320050020
:1007C8001105E36DB5FEFD42739002BC93028008EB
:1007D80073A00230970200209382428293E2320093
:1007E80073905230970200009382820B73901234F8
:1007F800730020303D432A876373C3029377F70061
:10080800BDEFADE5937606FF3D8ABA960CC34CC39F
:100818000CC74CC74107E36BD7FE11E28280B306D1
:10082800C3408A069702000096966780A6002307B1
:10083800B700A306B7002306B700A305B700230532
:10084800B700A304B7002304B700A303B70023032A
:10085800B700A302B7002302B700A301B700230122
:10086800B700A300B7002300B700828093F5F50F07
:1008780093968500D58D93960501D58D61B793968E
:1008880027009702000096968682E78086FA96806F
:10089800C1171D8F3E96E374C3F8A5B74111130520
:1008A800800406C622C426C2371400404AC09700F6
:1008B8000020E780408B8327840C8D45054593E70E
:1008C80017002324F40C95228327C40C93E7170000
:1008D8002326F40CEF007001172500001305459638
:1008E800EF00506F854517050020130525F9EF0027
:1008F800407101C917050020130545F8EF00906DF8
:1009080001A01725000013052594EF00B06C93870C
:1009180041A423A8F1A2938741B023AAF1A2938707
:1009280041B823A4F1A2938781C023A6F1A2E52CA4
:10093800B7E700E03707400023A0E7100D44938491
:1009480081A217290000130969B283C7B18085C73E
:10095800A385018083C7A180639E87008840832583
:10096800090011461305050423850180EF00904D09
:100978001145A126D9211305200397000020E780FF
:100988002097E1B7914763EEB702172700001307D6
:10099800678C8A05BA959C41BA978287B717004039
:1009A80003A7470B1345F5FF698F23AAE70A03A797
:1009B800070B698F23A8E70A03A7070A798D23A0E5
:1009C800A70A8280B717004083A6470B1347F5FF95
:1009D800F98E23AAD70A83A6070B558D23A8A70A41
:1009E80083A6070A758F23A0E70A8280B7170040FD
:1009F80003A7470B498F23AAE70A03A7070B134549
:100A0800F5FF45BFB717004083A6470B1347F5FF0F
:100A1800758F23AAE70A03A7070A598D4DB7B71799
:100A2800004003A7470B498FEDB7914763EEB70224
:100A380017270000130747838A05BA959C41BA9780
:100A48008287B717004003A7470D1345F5FF698F45
:100A580023AAE70C03A7070D698F23A8E70C03A7B0
:100A6800070C798D23A0A70C8280B717004083A6B6
:100A7800470D1347F5FFF98E23AAD70C83A6070D58
:100A8800558D23A8A70C83A6070C758F23A0E70C08
:100A98008280B717004003A7470D498F23AAE70CA8
:100AA80003A7070D1345F5FF45BFB717004083A6F9
:100AB800470D1347F5FF758F23AAE70C03A7070C0B
:100AC800598D4DB7B717004003A7470D498FEDB7AC
:100AD8009357E50093F70730C98FC2070547C183CD
:100AE8006382E5048DC10947638DE5040D47638082
:100AF800E50637170040231FF70883562709D58FC7
:100B08002319F7088280371700400356670993C6F0
:100B1800F7FFF18E231BD7088326C70C558D232694
:100B2800A70CC1BF371700400356670993C6F7FFE4
:100B3800F18E231BD7088326870C558D2324A70CF9
:100B48004DBF3717004083566709DD8EE1B7371769
:100B5800004083566709DD8EE9BFB717004003D50B
:100B68008700420541819377050491EB9377F5015E
:100B78003755E801130505803345F50282809377E0
:100B8800050C130700046397E7009377F5013745D1
:100B98009C1CCDB72165130505D082808147373766
:100BA8000040A14663C4C700328582800345B74030
:100BB800E38EA6FE3385F50003450500850723046B
:100BC800A740CDB7411122C406C62A8479372947E0
:100BD800B307E502B2408D83B3D787022244950755
:100BE800B3D7E70237370040C207C1832316F7405F
:100BF80041018280716541111305052006C6D93768
:100C0800B7370040130770F82381E7400D47A381E9
:100C1800E74013070004A380E74005472387E74020
:100C2800B24041018280B787004023800700130744
:100C3800C0FC2386E700A386E70003D701A3239817
:100C4800E70003D741A3239AE70003D781A2239C97
:100C5800E70003D7C1A2239EE70089462381D70274
:100C680049472383E7022385E7022387E70223898D
:100C7800D702A3810700130790022380E700B71665
:100C8800004003D7A6011367070C239DE6007D5794
:100C98002383E700130710F8A380E7001D4723818B
:100CA800E7008280B78700402382A70203C7670254
:100CB8001377C70F2383E7028280B7870040238416
:100CC800A70203C7A7021377C70F2385E70282800D
:100CD800B78700402386A70203C7E7021377C70F29
:100CE8002387E7028280B78700402388A70203C7CB
:100CF80027031377C70F2389E7028280411126C291
:100D08009145AA84116506C622C40533914521651B
:100D1800293B371400408327C40C1167130580074B
:100D2800D98F2326F40C97F0FF1FE780605C832798
:100D3800C40C21672945D98F2326F40C97F0FF1F8F
:100D4800E780005B85451165CD3137170040832763
:100D5800470C93961701E3CC06FEA1460147B71747
:100D68000040A16513F6140045CE03A6870C0507BD
:100D78004D8E23A4C70C858003A6470C13151601B6
:100D8800E35C05FE03A6470C13151601E34C05FEAC
:100D9800FD16E9FA058B59CB03A7C70CA166558F39
:100DA80023A6E70C371700408327470C93961701B3
:100DB800E3DC06FEB717004003A7470C931617019C
:100DC800E3CC06FE03A7870CA166558F23A4E70C86
:100DD800371700408327470C93961701E3DC06FE7C
:100DE800854521659931B717004083A6470C1396AE
:100DF8001601E34C06FE83A7470C05451397070128
:100E0800634B0700371700408327470C9396170159
:100E1800E3DC06FE0145B24022449244410182804F
:100E280003A6C70C4D8E23A6C70CB1B703A7870C22
:100E3800A166558F23A4E70CB5B737170040832761
:100E4800870C91668545D58F2324F70C1165F1BE73
:100E580041119145116506C6C93E371700408327E1
:100E6800C70CB2409166D58F2326F70C41018280CA
:100E7800411126C2AA841305200306C622C497F08E
:100E8800FF1FE780E046553F514597F0FF1FE78079
:100E98002046371700408327470C93961701E3CC69
:100EA80006FEA1470144371700408326470C1396D6
:100EB8001601E35C06FE0326470C93151601E3CCE6
:100EC80005FE8326470C0580139606016356060027
:100ED800136404F81374F40FFD17E1FB371700408F
:100EE8008327470C93961701E3DC06FEB7170040EB
:100EF80083A6470C13961601E34C06FE83A7470CFE
:100F0800371700408327470C93961701E3DC06FE4A
:100F1800371700408327470C93961701E3CC06FE4A
:100F2800053FB24023808400224492440145410198
:100F38008280011122CC06CE2E84C933854719E957
:100F48001305F1003537854711E58347F100818F97
:100F5800B337F000F24062443E850561828037175E
:100F680000408357E7099396170163DB06089167EA
:100F7800231FF70883C78180850793F7F70F23841A
:100F8800F18085466397D700A3840180238601807A
:100F98008280A54663E7F60283C791808583A38490
:100FA800F1800327470C9316070163DB060493E7D8
:100FB80007F8A384F18083C7C18085072386F18061
:100FC80082802D47639EE70283C69180411103C743
:100FD800A18093F7860006C6D98F91CB9307170097
:100FE8002385F18093870181BA972380D7008D35B7
:100FF800B240238401808547A385F1804101828026
:101008008280371700408327870C0111916606CE2E
:10101800D58F26CA4AC822CC2324F70CAA842E8945
:101028001165914519342D3585452165FD3A93059E
:10103800A00F1305F00FF53D9715000093850524C3
:1010480019ED1305F1002D3519E50347F100930754
:10105800A00A6301F702971500009385A52326854A
:10106800EF00207805442285F2406244D244424988
:10107800056182801305F100E53B8347F100971570
:1010880000009385A5225D8D1375F50F69F9930509
:10109800A00F1305600F713D9715000093858522F9
:1010A8005DFD9305A00F1305400F61352A84971540
:1010B80000009385652245F563010902BD3B29457A
:1010C80097F0FF1FE780A023894511651134B7E722
:1010D80000E03707040023A0E71097150000938568
:1010E80025212685EF00E06FBDBF37170040832715
:1010F800870A411106C693E707202324F70A854586
:1011080013050010EFF01F888D4513050020EFF040
:101118007F87B2404101F9BC8147138641A313F789
:10112800F70F6363A700BDBE18423E9783460700CA
:10113800850793C6F6FF2300D704D5B781471386E2
:1011480081A213F7F70F6363A70085BE18423E9785
:1011580083460700850793C6F6FF2300D704D5B753
:1011680081471386C1A213F7F70F6363A7008DB6F3
:1011780018423E9783460700850793C6F6FF23006B
:10118800D704D5B78147138601A313F7F70F636315
:10119800A70091BE18423E9783460704850793C669
:1011A800F6FF2300D708D5B7B787004003C7670005
:1011B8001377F70F93762700638C0644011106CE48
:1011C80022CC26CA4AC84EC603C777009306000336
:1011D80013770703630BD70203C77700914613778A
:1011E800F703630AD71E63E4E60A85466305D71842
:1011F800630007188946630AD7188D46630AD71A09
:10120800B787004009472383E700378700408347B3
:101218007700E207E18763D9072A930720FC2301B7
:10122800F702938601A38842034775008347650048
:1012380022075D8F239DE1A283471500238EF1A22B
:1012480003490500137609066307061ADD170547E3
:101258006361F7266209135989418146635209027D
:1012680083D7A1A3930600043E8763F4F60013070F
:10127800000442074183998F9376F70F239DF1A2CB
:10128800B78700402380D702130700FC3DA49306CC
:1012980020026306D71063E3E602930600026306A2
:1012A800D70493061002E31DD7F403C76702137728
:1012B800C70F136727002383E70299B79306300205
:1012C8006302D71093064002E31CD7F203C7270333
:1012D800134707042389E70203C727031377C70FB8
:1012E800136727002389E70221BF03C7C1A39546D7
:1012F8006302D7069946631AD7069387A1A303D436
:10130800070013070004BE846374870013040004F5
:10131800938701A3138901A4884342048325090004
:1013280041802286052683D704009379F40F818FA4
:10133800239DF1A2832709003E9423A081A4B787A7
:1013480000402380370303C727021347070423817C
:10135800E7027DB503C7370083C6A1A31377070843
:10136800558FA381E7000947DDB723800702E5BF52
:1013780083C7870071B503C7770013770704E301B4
:1013880007E803C58700493BA5BD03C77700137766
:101398000704E30707E603C587004D3395B503C780
:1013A800A7021377C70F136727002385E70289BDB4
:1013B80003C7770013770704E30407E403C587002E
:1013C80045333DBD03C7E7021377C70F13672700EF
:1013D8002387E70235B503C7770013770704E301CE
:1013E80007E203C72703134707082389E70203C552
:1013F8008700493B31B52946636DF60A1716000088
:10140800130606F08A07B2979C43B29782878347F0
:101418003500834625000946A207D58F93D6870055
:10142800638BC60A6369D6008547638AF60213048C
:10143800F00F81472DA88D456388B60C93072002CD
:10144800E397F6FE83474500CDE39717000093879F
:10145800E7ED23A0F1A401449307E00309A8971737
:1014680000009387A7F723A0F1A40144C947C20746
:10147800C18363F4E700239DF1A29387A1A303D658
:1014880007009307000463F4C70013060004938958
:1014980001A49314060183A50900C18026865D2254
:1014A80003A60900269623A0C1A49307F00FE3130F
:1014B800F4DAB78700401307F0FC2381E702B78707
:1014C800004009472383E700F2406244D24442497E
:1014D800B2490561828097170000938767EC23A0C3
:1014E800F1A401449307B00359B785466391D70621
:1014F80097160000938686E723A0D1A4014423828F
:10150800F1C093074003A5B793F7F70F8546638E9D
:10151800D7008DC7E39DC7F097170000938747EE64
:1015280023A0F1A40144A94799B79717000093870E
:1015380027EC23A0F1A40144B94715BF9717000071
:10154800938707F323A0F1A4014491470DB7014401
:101558009307F00F29BF83472500239DF1A2DDB92A
:1015680083C781A32300F50003D7A1A38547E3F32D
:10157800E7CE8547DDB783472500238CF1A2D9B98B
:101588001377F9018947E316F7F28347450063812A
:10159800E704636CF7000547E39DE7F037870040F1
:1015A8008347670293F7370799A0130710086388E2
:1015B800E70213072008E39EE7EE378700408347DA
:1015C800A70293F7C70B93E727002305F70259B142
:1015D800378700408347A70293F73707FDB7378758
:1015E80000408347670293F7C70B93E7270023035D
:1015F800F7028DB12300050085BF230005009C423A
:10160800A380070003D7A1A38947E3F5E7C4B1B7CF
:10161800937617008DC2A381070009472381E7024B
:1016280049472383E7022385E7022387E702054723
:101638002383E700828093764700FDDA03C75700CB
:101648001147FDB7B3C7A5008D8B3307C50081E7E8
:101658008D4763EEC700AA876370E50A83C6050055
:1016680085078505A38FD7FEE3EAE7FE8280937698
:101678003500AA8791CA83C6050085078505A38F0B
:10168800D7FE93F63700FDB79376C7FF138606FE9D
:1016980063F0C70683A3050083A2450083AF8500D6
:1016A80003AFC50083AE050103AE450103A3850161
:1016B80083A8C5019385450223A0770003A8C5FF29
:1016C80023A2570023A4F70123A6E70123A8D701E3
:1016D80023AAC70123AC670023AE170193874702EB
:1016E80023AE07FF75B790419107910523AEC7FE5A
:1016F800E3EBD7FEE3E4E7F68280011126CA4AC885
:1017080006CE22CC4EC652C4AA842E8901C51C4DD1
:1017180091E331239C4C804499E32685092397174C
:1017280000009387A7D0631CF402C0408357C4000D
:10173800A18BB1C71C48A1C7FD59294A1C44834540
:101748000900FD17B1E91CC463DE07062286A94516
:1017580026854D20FD576308F502294535A09717C2
:1017680000009387A7CE6314F4008044C1B797178D
:1017780000009387A7C9E31BF4FAC04445BFA285BC
:1017880026850D2A55D97D55F2406244D2444249F6
:10179800B249224A056182801CC4050963D7070043
:1017A800184C63CBE700638945011C401387170079
:1017B80018C02380B70059B7228626852528E31F3D
:1017C80035F7D1B71C401387170018C02947238065
:1017D800E70061B797F7FF1F93874708AA858843F3
:1017E80029BFAA8703C7050085078505A38FE7FEDC
:1017F80075FB8280011122CC26CA4AC806CE4EC685
:10180800AA842E89328401C51C4D91E309299717B2
:1018180000009387A7C16319F406C0401C4C1CC480
:101828008357C400A18BC9C31C48BDCF1C480840BE
:101838009379F90F1379F90F1D8D5C486346F5000C
:10184800A2852685752C2DE51C440505FD171CC4AD
:101858001C401387170018C0238037015C48638930
:10186800A7008357C400858B81CBA9476316F9006D
:10187800A285268571240DEDF24062444A85D24442
:101888004249B2490561828097170000938707BCD7
:101898006314F400804459B797170000938707B77B
:1018A800E31EF4F6C0449DBFA285268521203DDDB8
:1018B8007D59D9B7411197F7FF1F938727FA26C299
:1018C800844322C44AC006C62A892E8489C49C4CF3
:1018D80099E32685A92697170000938727B5631CE7
:1018E800F402C0400317C40093170701C18393F69D
:1018F8008700B5EE93F607019DEEA5472320F90072
:10190800136707042316E4007D55B240224492442D
:1019180002494101828097170000938727B3631417
:10192800F4008044C1B797170000938727AEE31BE4
:10193800F4FAC04445BF918B8DC74C5889C99307A9
:1019480044046384F5004A858123232A04028357CB
:10195800C4002322040093F7B7FD2316F4001C48A3
:101968001CC08357C40093E787002316F4001C4863
:1019780081EF8357C4001307002093F70728638576
:10198800E700A2854A859D218357C40013F71700F5
:1019980005C75C4823240400B307F0401CCC1C484E
:1019A8000145A5F78317C40013F7070839DF93E744
:1019B80007042316F40089BF898B014791E358482F
:1019C80018C4F1BF83D7C500011122CC26CA06CEA0
:1019D8004AC84EC613F78700AA842E8471EFD841EF
:1019E800634DE000B841634AE0000145F2406244BB
:1019F800D2444249B2490561828058547DD703A92F
:101A080004009396370123A0040063DD060670489E
:101A18008357C400918B99C75C401D8E5C5899C34D
:101A28003C401D8E5C540C50814626858297FD579C
:101A38000357C400631DF5009440F54763E8D706D3
:101A4800B70740208507B3D7D700858BA5C31C48A7
:101A5800232204001CC09317370163D80700FD57E1
:101A68006314F5009C4091E368C84C5823A02401F6
:101A7800ADDD930744046384F50026853121232ACC
:101A88000402A5B70C500146854626850297FD57E6
:101A98002A86E31FF5F69C40A5DF75476385E700B6
:101AA80059476394E70423A0240181B71367070407
:101AB8002316E4007D551DBF83A90501E38709F2BC
:101AC80003A905008D8B23A035013309394101474E
:101AD80091E3D84918C4E35A20F11C540C50CA8623
:101AE8004E86268582976349A0008357C40093E7F2
:101AF80007042316F4007DBFAA993309A940E1BF62
:101B08009C49B9CF011122CC06CE2A8411C51C4D9F
:101B180081E72EC62922B2459717000093870791BF
:101B2800639BF5004C408397C50095C722856244A6
:101B3800F240056141BD9717000093872791639490
:101B4800F5000C44CDB7971700009387278CE39CCA
:101B5800F5FC4C44C9BFF2406244014505618280EE
:101B680001458280411122C406C62A842316B50085
:101B78002317C50023200500232205002324050080
:101B88002322050623280500232A0500232C050007
:101B9800214681451305C505EFE0DFC5970700001D
:101BA800938767485CD0970700009387C74A1CD47F
:101BB800970700009387074F5CD497070000938727
:101BC800C75100D01CD8B2402244410182809705F9
:101BD8000000938525F389AA411126C213068006C1
:101BE8009384F5FFB384C4024AC02E8922C406C672
:101BF80093854407252E2A8401CD2320050023221E
:101C08002501310508C4138684068145EFE09FBE8F
:101C18002285B240224492440249410182801C4DEF
:101C2800BDE3411106C622C497070000938767FAEF
:101C38001CD5971700009387E7839C43232405044A
:101C480023260504232805046314F50085471CCDC5
:101C58002A841D2848C02285052808C422852D20ED
:101C680048C4484001469145F53D08440546A54508
:101C7800D53D48440946C945F53585471CCCB24091
:101C88002244410182808280411197070000938796
:101C9800677E26C284434AC006C69C4C22C42A8951
:101CA80099E32685AD3F938484048044DC40FD1786
:101CB80063D607009C40B9CF8440C5BF0317C40052
:101CC80039E7C1778507232204062320040023224D
:101CD8000400232404005CC423280400232A0400ED
:101CE800232C0400214681451305C405EFE09FB06D
:101CF800232A0402232C0402232404042326040494
:101D08002285B24022449244024941018280130450
:101D1800840671BF91454A85C13588C051FDB147D8
:101D28002320F9000144E9BF797122D44AD052CC6A
:101D380056CA5AC85EC606D626D24ECE2A8AAE8A59
:101D4800130485040149054BFD5B09ECB25022548C
:101D58004A8592540259F249624AD24A424BB24BDE
:101D680045618280044483294400FD1963D4090035
:101D78000040E1BF83D7C400637BFB008397E40086
:101D880063877701A6855285829A3369A90093846F
:101D98008406E1BF1971A6DAAE848395E500A2DC5A
:101DA80086DE328463DC050083D7C40023A00600E6
:101DB80093F707089DE39307004015A0300836C63F
:101DC8008D2EB246E34205FE7247BD67F98F7977DB
:101DD800BA9793B717009CC2F9BF930700041CC0B9
:101DE800F6506654D65401450961828083D7C500F0
:101DF800011122CC06CE26CA4AC8898B2E8489CFE7
:101E0800930774041CC01CC885475CC8F240624430
:101E1800D24442490561828074003000AA849D3F03
:101E2800A2452A892685192201ED8317C40013F7D4
:101E3800072069FFF19B93E727002316F400C9B731
:101E4800970700009387E7D89CD48357C40008C03D
:101E580008C893E707082316F400A2475CC8B247EE
:101E680089CF8315E4002685D52C01C98357C40082
:101E7800F19B93E717002316F4008357C4003369D6
:101E8800F9002316240159B7CDC183A7C5FF411115
:101E980022C406C626C21384C5FF63D307003E9436
:101EA800AA843926938741819C4399EB2322040015
:101EB80023AA81802244B240268592444101D5ACB0
:101EC800637EF40014403307D4006396E700984318
:101ED800DC43369718C05CC0E1BFBA87D84319C342
:101EE800E37DE4FE94433386D700631F86001040E9
:101EF800B29694C33386D700E31EC7FA10435843FB
:101F0800B29694C3D8C37DB76375C400B1479CC06B
:101F180055B71040B306C4006316D700144358439E
:101F2800B29614C058C0C0C371B78280011126CAC6
:101F380093843500F19806CE22CC4AC84EC6A10437
:101F4800B14763F1F404B14463E0B4042A898D24F1
:101F58009387418198433A8431E0938781819C43F8
:101F680091E781454A85512823ACA180A6854A85F9
:101F78006920FD5963173507B1472320F9004A85C1
:101F88000D2C29A0E3D204FCB1471CC10145F24045
:101F98006244D2444249B249056182801C40858F1F
:101FA80063CE0702AD4663F6F6001CC03E9404C03B
:101FB80031A05C406312870223AAF1804A85D52AA2
:101FC8001305B4009307440061993307F54061D3C2
:101FD8003A94898F1CC065BF5CC3CDB72287404047
:101FE800A5BF130435007198E30385FCB305A4402D
:101FF8004A852120E31D35FB41B7411122C42A84BB
:102008002E8523A401C806C6112CFD576317F500B9
:10201800938781C89C4391C31CC0B24022444101AC
:102028008280411122C42E848395E50006C6592278
:10203800634905007C48AA977CC8B2402244410104
:1020480082808357C4007D777D17F98F2316F400AB
:10205800EDB783D7C500011122CC26CA4AC84EC69F
:1020680006CE93F70710AA842E843289B68991C7C1
:102078008395E5008946014631228357C4007D7760
:102088007D17F98F2316F4008315E4006244F240AB
:10209800CE864A86B24942492685D24405613DA882
:1020A800411122C42E848395E50006C6E128FD5718
:1020B8000357C400631BF500FD77FD17F98F23163E
:1020C800F400B2402244410182808567D98F2316EB
:1020D800F40068C8FDB78395E50005A8411122C43E
:1020E8002A842E85B285368623A401C806C6EFE069
:1020F800FFAAFD576317F500938781C89C4391C3D6
:102108001CC0B240224441018280411122C42A8469
:102118002E8523A401C806C6E120FD576317F500E4
:10212800938781C89C4391C31CC0B240224441019B
:102138008280411122C42A842E85B28523A401C835
:1021480006C66D20FD576317F500938781C89C4329
:1021580091C31CC0B240224441018280411122C473
:102168002A842E8523A401C806C67920FD57631743
:10217800F500938781C89C4391C31CC0B240224498
:1021880041018280411122C42A842E85B285368677
:1021980023A401C806C6BD20FD576317F500938721
:1021A80081C89C4391C31CC0B24022444101828033
:1021B80082808280411122C42A842E85B285368687
:1021C80023A401C806C6A920FD576317F500938705
:1021D80081C89C4391C31CC0B24022444101828003
:1021E8009307800523A4F1C87D5582809307800555
:1021F80023A4F1C87D5582809307800523A4F1C8E4
:10220800014582809307800523A4F1C87D5582800B
:102218009307800523A4F1C87D5582809387C181E7
:102228009C4391C73E9523AEA1803E8582809387CB
:10223800C1C83E9523AEA1803E85828068656C6CDE
:102248006F0000006D6F75736520726561647900B9
:102258004CE7FFFF74E7FFFF9CE7FFFFB4E7FFFFD2
:10226800CEE7FFFFDEE7FFFF06E8FFFF2EE8FFFFF0
:1022780046E8FFFF60E8FFFF5B4552524F525D5052
:10228800535F524553455420535445503100000084
:102298005B4552524F525D50535F5245534554204F
:1022A80053544550320000005B4552524F525D5026
:1022B800535F524553455420535445503300000052
:1022C8005B4552524F525D5345545F444546415514
:1022D8004C5400005B4552524F525D454E5F44419D
:1022E80054415F5245504F52540000005B524541E3
:1022F80044595D4D6F75736500000000FEF2FFFFE5
:1023080084F2FFFFB6F1FFFFB6F1FFFFB6F1FFFF62
:102318005AF2FFFF12F1FFFFB6F1FFFF64F2FFFF71
:102328007AF2FFFFF8F2FFFF05010906A101050790
:1023380019E029E715002501750195088102950125
:102348007508810195037501050819012903910292
:102358009505750191019506750826FF0005071971
:102368000029918100C0000005010902A1010901AD
:10237800A100050919012903150025017501950317
:102388008102750595018101050109300931093876
:102398001581257F750895038106C0C009023B0099
:1023A800020100A032090400000103010100092113
:1023B80011010001223E000705810308000A0904F3
:1023C800010001030102000921100100012234006B
:1023D8000705820304000A001201100100000040F2
:1023E8003D41072100000000000100000E036C00C1
:1023F8006100620034003100380000000A03540014
:102408005000380037000000000000000000000005
:1024180000000000000000000000000000000000B4
:1024280000000000000000000000000000000000A4
:102438000000000000000000000000000000000094
:102448000000000000000000000000000000000084
:102458000000000000000000000000000000000074
:1024680000000000000000007008002004030904B8
:042478000008002038
:10247C000000000030240000502400001024000054
:10248C000000000000000000000000000000000040
:10249C000000000000000000000000000000000030
:1024AC000000000000000000000000000000000020
:1024BC000000000000000000000000000000000010
:1024CC000000000000000000000000000000000000
:0824DC000008002000000000D0
:00000001FF
