:040000006F00C07558
:100004000000000000000000900000209C0200207E
:100014000000000094000020000000000000000028
:10002400960000209800002000000000000000005E
:100034009A000020000000009C0000200000000046
:100044001A010020C6000020CA000020A4000020DD
:10005400A6000020A80000201E010020AC00002003
:10006400AE000020B0000020B20000202E030020CB
:10007400B6000020B8000020BA000020BC00002018
:10008400BE000020C0000020C2000020C4000020E8
:1000940001A001A001A001A001A001A001A001A054
:1000A40001A001A001A001A001A001A001A001A044
:1000B40001A001A001A001A001A001A001A001A034
:1000C40001A001A001A073002030397106DE16DC06
:1000D4001ADA1ED82AD62ED432D236D03ACE3ECC14
:1000E40042CA46C872C676C47AC27EC0971000E07F
:1000F400E780C049F250E2525253C2533255A255DE
:10010400125682567247E2475248C248324EA24EB5
:10011400124F824F216173002030730020303971F7
:1001240006DE16DC1ADA1ED82AD62ED432D236D0FF
:100134003ACE3ECC42CA46C872C676C47AC27EC0A3
:10014400971000E0E780206AF250E2525253C25303
:100154003255A255125682567247E2475248C24857
:10016400324EA24E124F824F216173002030B717D6
:100174000040930670052380D704130780FA238078
:10018400E7040100010003C6B7041376F60DA38546
:10019400C704238007041376050235CA03C6A700E3
:1001A400118A1DE22380D7042380E70401000100A3
:1001B40003C7A700136747002385E7009307004B95
:1001C40001000100FD17EDFFB7170040930670050D
:1001D4002380D704130780FA2380E7040100010079
:1001E4007D892394A7000100010001000100238000
:1001F40007042380D7042380E70401000100372784
:1002040000408546A303D7802380070482801376A9
:10021400050425CA03C6A700418A1DE22380D7042A
:100224002380E7040100010003C7A7001367070147
:100234002385E7009307007D01000100FD17EDFF12
:10024400B7170040930670052380D704130780FA7C
:100254002380E704010001007D89136505042394CC
:10026400A70001000100010001002380070423808E
:10027400D7042380E70401000100372700408D469E
:1002840051B72380D7042380E7040100010003D77A
:1002940087001367070C2394E700828039712AD6FC
:1002A4002ED432D236D001468146814511453ACE0C
:1002B4003ECC06DE16DC1ADA1ED842CA46C872C61E
:1002C40076C47AC27EC01D22B7170040130770059A
:1002D4002380E704130780FA2380E7040100010068
:1002E4007D572396E70203C7670413671700238328
:1002F400E7042380070401A0BD473305F50201008C
:100304007D1575FD8280411122C426C206C6AA84C9
:10031400014463179400B240224492444101828014
:1003240005041305803E4204C13F4180DDB77300DC
:1003340020302303048095472303F4802302A48000
:10034400828083076480E3CE07FE230304808280D7
:1003540083076480E3CE07FE0345448082808307DD
:100364006480E3CE07FE2302A4808280411126C468
:100374004AC24EC006C61377F50BAD47AA892E892B
:1003840095446306F70019456D37653F8D444E85E6
:100394004D37FD59FD1463983401B240A24412490B
:1003A400824941018280135509011375F50F453FB8
:1003B4002209CDB7011126CC06CEB7040800513767
:1003C4001545853F713769372AC6A53F324593776E
:1003D400150089EB136515001375F50FF240E2441F
:1003E40005618280FD14E9FC0145CDBF397126DC2D
:1003F4004ADA4ED852D656D45AD25ED006DE62CEEF
:1004040066CCB7E700E07D5783AA070022C603AA9B
:10041400470023A0E71823A2E718B71700401307E3
:1004240070052380E704130780FA2380E70483C759
:100434004704930B75FFB684E20793FBFB0F8546D5
:10044400AA892E8B328937240040E187015763FA49
:1004540076016308D5008946130700026313D500AB
:100464000157D98F93F7F70FB71C00402382FC0480
:1004740011472303E4801305F00F653D094CD13582
:10048400636D7C11B7050700DA9537870700795546
:1004940063F2E504B3879500636EF702370B080037
:1004A400A94733EB65016399F90689E48144513D19
:1004B40026850DA0DA850945553D05090345F9FF53
:1004C400FD14050B693D81C49377FB0FFDF7DD3502
:1004D40069FD7D55B7170040130770052380E704B5
:1004E400130780FA2380E70403C74704418B238260
:1004F400E704F250B7E700E023A0571123A2471105
:10050400E25432445259C259325AA25A125B825BA3
:10051400724CE24C21618280A5476395F906856996
:100524001309F00FB3069900B3742B01B694134961
:10053400F9FFB3749900856B33796901416B938733
:10054400F9FFB3F7270199E363FC340193D9490018
:10055400C147E3E637FF99BF0569C1697D19D9B77A
:100564001305800D63886901130500026384790112
:1005740013051008CA85DD3B353D21DD4E99B38452
:100584003441D9B7DA852D45D533CA94E30099F2BD
:1005940005097D3BA30FA9FED5BF9387F9FF93F708
:1005A400F70F6361FC0C83C71C0413073008631F37
:1005B400F70437070800636BEB04B3079B00B70627
:1005C400100063F5D704334BEB0089476393F906B6
:1005D4008980D549E38C04ECDA850945413B11094E
:1005E4000327C9FF91472320E48003076480E34E77
:1005F40007FE23033481FD17EDFBFD14110B81C4A9
:100604009377FB0FE9FF7D3371F5E1B5B717004030
:1006140003C75704B70708001377070219E3B7871E
:1006240007007955E378FBEA33079B00E3FFE7F81B
:1006340055B58547E382F9F2DA852D45053B938963
:10064400F4FFE38504E6293393F7390091EB83261D
:1006540004800327090093074900E39AE6E43E89EE
:10066400CE84F1BFB5476396F9001305900BD131E1
:1006740035BDB1471305B00AE38BF9FE9947639181
:10068400F904B7050800B365BB002D45C5318144A5
:100694008D4BA14975396396740183270480232007
:1006A400F9008504E39834FF8327048013172B0192
:1006B400635507002312F900D5BB2322F900FDB3CB
:1006C4009D476399F90281451305B0044531BD4442
:1006D4002320090023220900FD599D3993F7740052
:1006E400CA9703C70700FD14398D2380A700E3963A
:1006F40034FF6DBBA1476392F9046D398144630DE6
:100704000B008D479304C0036308FB0093040005AA
:1007140063048B01930440041375C507E30895D85B
:100724001945013939390545293126850D390945D8
:100734003D314931E31C05D669BB91476399F90002
:1007440013056006FD36F53E130590090DB7E38FDA
:0807540009D4F154A9BB000017
:10075C009711002093814190178100201301C189CA
:10076C001305400097050020938505891706002086
:10077C00130606FE63FAC5008322050023A055006C
:10078C0011059105E3EAC5FE172500001305056464
:10079C0097050020938545061386818063FAC50072
:1007AC008322050023A0550011059105E3EAC5FE3F
:1007BC00138581809385C1D96377B500232005000B
:1007CC001105E36DB5FEFD42739002BC93028008E7
:1007DC0073A00230970200209382028293E23200CF
:1007EC0073905230970200009382820B73901234F4
:1007FC00730020303D432A876373C3029377F7005D
:10080C00BDEFADE5937606FF3D8ABA960CC34CC39B
:10081C000CC74CC74107E36BD7FE11E28280B306CD
:10082C00C3408A069702000096966780A6002307AD
:10083C00B700A306B7002306B700A305B70023052E
:10084C00B700A304B7002304B700A303B700230326
:10085C00B700A302B7002302B700A301B70023011E
:10086C00B700A300B7002300B700828093F5F50F03
:10087C0093968500D58D93960501D58D61B793968A
:10088C0027009702000096968682E78086FA96806B
:10089C00C1171D8F3E96E374C3F8A5B7011113055C
:1008AC00800406CE22CC26CA371400404AC84EC655
:1008BC0052C497000020E780008B8327840C8D4561
:1008CC00054593E717002324F40C6D228327C40CF1
:1008DC0093E717002326F40CEF0070631725000034
:1008EC00130505F9EF10E051EF00500F8945130582
:1008FC000004172600001306A6F7EF00F008A1214C
:10090C008545170500201305A5FDEF00705101C9A1
:10091C00170500201305C5FCEF10A04E01A01725EC
:10092C000000130565F5EF10C04D938741B523AC5E
:10093C00F1A8938741C123AEF1A8938741C923A89D
:10094C00F1A8938781D123AAF1A81D26B7E700E06F
:10095C003707400023A0E7100D44938401A9172901
:10096C0000001309E9459729000093892945138A4A
:10097C00C1A983C781818DC7238C018083C77181F5
:10098C00639E8700884083250900114613050504E2
:10099C00A38B0180EF10E02D1145AD26EF00702ADE
:1009AC00252983C7D18091CF03250A0083A509008F
:1009BC00214613050504A3860180EF10802B2145E9
:1009CC003D26294597000020E78060935DB791474D
:1009DC0063EEB702172700001307C7EA8A05BA951A
:1009EC009C41BA978287B717004003A7470B134562
:1009FC00F5FF698F23AAE70A03A7070B698F23A8C2
:100A0C00E70A03A7070A798D23A0A70A8280B717E4
:100A1C00004083A6470B1347F5FFF98E23AAD70A8C
:100A2C0083A6070B558D23A8A70A83A6070A758FE3
:100A3C0023A0E70A8280B717004003A7470B498F12
:100A4C0023AAE70A03A7070B1345F5FF45BFB71702
:100A5C00004083A6470B1347F5FF758F23AAE70ABF
:100A6C0003A7070A598D4DB7B717004003A7470BCB
:100A7C00498FEDB7914763EEB702172700001307B4
:100A8C00A7E18A05BA959C41BA978287B7170040AF
:100A9C0003A7470D1345F5FF698F23AAE70C03A79E
:100AAC00070D698F23A8E70C03A7070C798D23A0EA
:100ABC00A70C8280B717004083A6470D1347F5FF9C
:100ACC00F98E23AAD70C83A6070D558D23A8A70C46
:100ADC0083A6070C758F23A0E70C8280B717004004
:100AEC0003A7470D498F23AAE70C03A7070D13454E
:100AFC00F5FF45BFB717004083A6470D1347F5FF19
:100B0C00758F23AAE70C03A7070C598D4DB7B717A0
:100B1C00004003A7470D498FEDB79357E50093F7B6
:100B2C000730C98FC2070547C1836382E5048DC1B5
:100B3C000947638DE5040D476380E50637170040D0
:100B4C00231FF70883562709D58F2319F7088280AE
:100B5C00371700400356670993C6F7FFF18E231B26
:100B6C00D7088326C70C558D2326A70CC1BF371772
:100B7C0000400356670993C6F7FFF18E231BD70875
:100B8C008326870C558D2324A70C4DBF37170040A7
:100B9C0083566709DD8EE1B7371700408356670926
:100BAC00DD8EE9BFB717004003D5870042054181B0
:100BBC009377050491EB9377F5013755E80113050D
:100BCC0005803345F50282809377050C13070004EA
:100BDC006397E7009377F50137459C1CCDB72165EA
:100BEC00130505D08280814737370040A14663C486
:100BFC00C700328582800345B740E38EA6FE33855D
:100C0C00F5000345050085072304A740CDB7411126
:100C1C0022C406C62A8479372947B307E502B240B5
:100C2C008D83B3D7870222449507B3D7E7023737B2
:100C3C000040C207C1832316F740410182807165D1
:100C4C0041111305052006C6D937B73700401307E5
:100C5C0070F82381E7400D47A381E7401307000498
:100C6C00A380E74005472387E740B24041018280DB
:100C7C00B7870040238007001307C0FC2386E700DA
:100C8C00A386E70003D781A92398E70003D7C1A95E
:100C9C00239AE70003D701A9239CE70003D741A9B6
:100CAC00239EE70089462381D70249472383E70225
:100CBC002385E7022387E7022389D702A381070054
:100CCC00130790022380E700B716004003D7A60154
:100CDC001367070C239DE6007D572383E70013075A
:100CEC0010F8A380E7001D472381E7008280B787B7
:100CFC0000402382A70203C767021377C70F238321
:100D0C00E7028280B78700402384A70203C7A702AB
:100D1C001377C70F2385E7028280B78700402386AD
:100D2C00A70203C7E7021377C70F2387E702828066
:100D3C00B78700402388A70203C727031377C70F81
:100D4C002389E702828041111306800A972500004F
:100D5C00938545B9138501AA06C622C426C2EF00A5
:100D6C005071938401819840B7370F0037140040BD
:100D7C00D98F23A8F1800327840C9145D98F232484
:100D8C00F40C8840C5399C408326840C7D777D17F4
:100D9C00F98FD58F2324F40C138781801C4397265D
:100DAC0000009386A6B0172600001306A6B38C424B
:100DBC009106CD8FE39DC6FE23A4F180B7160040AB
:100DCC0003A6860C2244B240D18F23A4F60C924485
:100DDC00084385454101E5BE5D7156DA938A41832E
:100DEC00CAC04EDE52DC5AD85ED662D466D26AD005
:100DFC0086C6A2C4A6C26ECE97290000938909AB01
:100E0C000149194BD68C938B01AA138AC1811D4CB5
:100E1C00170D0020130D4DA4B307690303C44181C2
:100E2C00B716004003A6090083A6460AF18E338745
:100E3C00FA00229783450700F5E19DEEA2978607FD
:100E4C00DE9717070020034727A183D70700637697
:100E5C00EC009306F00D63F1F602B3066903054648
:100E6C00E696A2962380C600A386C1809306F00F57
:100E7C00639DD7062386C1800509B9479109E31DF7
:100E8C00F9F8130714001377F70F238AE1809727DB
:100E9C0000009387A7AF0A04371600403E948326C0
:100EAC00860C0C40CD8E2324D60C954663F4E600BC
:100EBC00238A018083C641818A0637160040B69783
:100ECC000327C60C9C43B6402644D98F2326F60C28
:100EDC0096440649F259625AD25A425BB25B225C82
:100EEC00925C025DF24D616182809306F00D63FDB0
:100EFC00F6000547938707F2B317F70003470A007C
:100F0C00D98F238EF1808DBF930617005297170649
:100F1C0000202303D6942300F700B9BFB1DEA297BB
:100F2C008607DE9783D40700230007000547A386B6
:100F3C00E1809307F00F6395F400238601802DBFA9
:100F4C009307F00D63FD9700938404F285470347E4
:100F5C000A00B397970093C7F7FFF98F5DB7938D8E
:100F6C00C1818947214783C62D00639F96003306B4
:100F7C00FC4093853D0013852D003EC6EF00704F5D
:100F8C00A3810182B24721478507850DE39DE7FCCC
:100F9C0083470D00FD1717070020230FF78AE9BDC3
:100FAC00B717004003A7870C1367072023A4E70C8F
:100FBC0003A7870C1367071023A4E70C03A7C70C20
:100FCC001367072023A6E70C03A7C70C13670710AA
:100FDC0023A6E70C8280B717004003A7C70C136742
:100FEC00072023A6E70C03A7870C1367071023A47D
:100FFC00E70C03A7870C1367072023A4E70C828058
:10100C00371700408327C70C93E707102326F70CEC
:10101C002147B717004093168501E18663DD06046E
:10102C0083A6870C93E6062023A4D70C03A6870C73
:10103C007D1706051366061023A4C70C03A6C70C60
:10104C001377F70F1375F50F1366061023A6C70C4D
:10105C009386870C9385C70C5DFF83A7870C93E75A
:10106C0007209CC29C4293E707109CC29C4193E7CB
:10107C0007109CC1828083A6C70C93E6062023A68A
:10108C00D70C6DB701112EC606CE22CC2A84093F8F
:10109C0013058007B537B245014599C11305000406
:1010AC0085372285B13F6244F24005612DB741116D
:1010BC0022C42A84138505FB1375F50F814506C6DA
:1010CC00D13713554400814513650501653F1375F0
:1010DC00E4002244B24081451365150041015DB71F
:1010EC00411122C44AC006C626C21304000B1309C0
:1010FC00800B8145228579378145014561378145D2
:10110C00414549379304000885450145FD149D3F31
:10111C00E5FC05041374F40FE31D24FDB2402244D6
:10112C00924402494101828001119317850122CC1E
:10113C00011606CE26CA4AC84EC6E1871374F60FAE
:10114C0063D60700890593F5F50F0145850593F5E1
:10115C00F50FB13F19463304C402814497290000AE
:10116C009389499D1949B3079400CE9703C507008D
:10117C0085458504013FE39824FFF2406244D24444
:10118C004249B24905618280011122CC26CA4AC863
:10119C004EC652C406CE2A842E89B2898144130AC3
:1011AC008007B387990003C6070009EAF24062443E
:1011BC00D2444249B249224A0561828022852104E7
:1011CC00CA851374F40F8D3763768A000909137975
:1011DC00F90F0144850493F4F40FE1B7B7170040FD
:1011EC0003A7870C411106C61367071023A4E70C4D
:1011FC0003A7870C8D45130500101367072023A444
:10120C00E70CEFF03F878D4513050020EFF09F862C
:10121C001305800C97F0FF1FE780600E81451305C6
:10122C00E00A8D35814513050004A93D8145130560
:10123C00000B893D81451305800CA93581451305AB
:10124C001008893581451305F00F2D3D8145130597
:10125C00100A0D3D81451305600A2D358145130596
:10126C00800A0D3581457D45313D81451305300D95
:10127C00113D81450145393581451305500D193511
:10128C0081451305000FFD3B81451305900DDD3B9A
:10129C00814513052002FD3381451305A00DDD3377
:1012AC0081450945C53381451305B00DE13B8145A9
:1012BC0013059004C13B81451305D008E1338145EA
:1012CC005145C93381451305F00A6D3B113DB240C0
:1012DC00814501454101E1BB011122CC371400408D
:1012EC008327840C4EC6916906CEB3E7370126CA14
:1012FC004AC82324F40C8326840C21698D45B3E65B
:10130C0026012324D40CAA841165EFF0AFF68D4589
:10131C002165EFF02FF60327C40C13058007336704
:10132C0037012326E40C97F0FF1FE78060FC83272E
:10133C00C40C2945B3E727012326F40C97F0FF1FB3
:10134C00E78000FB85451165EFF0CFF237170040C1
:10135C008327470C93961701E3CC06FEA146014761
:10136C00B7170040A16513F614005DCE03A6870CD9
:10137C0005074D8E23A4C70C858003A6470C1315B7
:10138C001601E35C05FE03A6470C13151601E34C8E
:10139C0005FEFD16E9FA058B51CF03A7C70CA16614
:1013AC00558F23A6E70C371700408327470C9396DD
:1013BC001701E3DC06FEB717004003A7470C931692
:1013CC001701E3CC06FE03A7870CA166558F23A457
:1013DC00E70C371700408327470C93961701E3DC83
:1013EC0006FE85452165EFF0EFE8B717004083A6B0
:1013FC00470C13961601E34C06FE83A7470C0545D4
:10140C0013970701634B0700371700408327470CDE
:10141C0093961701E3DC06FE0145F2406244D24488
:10142C004249B2490561828003A6C70C4D8E23A6A2
:10143C00C70C99B703A7870CA166558F23A4E70C9B
:10144C009DB7371700408327870C91668545D58F4C
:10145C002324F70C11656FF0EFE1411122C437140E
:10146C0000400327840C26C2916406C6458F2324B2
:10147C00E40C91451165EFF0EFDF8327C40CB2400B
:10148C00C58F2326F40C22449244410182804111E1
:10149C0026C2AA841305200306C622C497F0FF1F98
:1014AC00E78000E5793F514597F0FF1FE78040E466
:1014BC00371700408327470C93961701E3CC06FEA1
:1014CC00A1470144371700408326470C1396160199
:1014DC00E35C06FE0326470C93151601E3CC05FED0
:1014EC008326470C05801396060163560600136489
:1014FC0004F81374F40FFD17E1FB37170040832732
:10150C00470C93961701E3DC06FEB717004083A641
:10151C00470C13961601E34C06FE83A7470C3717AE
:10152C0000408327470C93961701E3DC06FE371720
:10153C0000408327470C93961701E3CC06FE313FFE
:10154C00B2402380840022449244014541018280B0
:10155C00011122CC06CE2E844133854719E913059F
:10156C00F1003537854711E58347F100818FB3379B
:10157C00F000F24062443E850561828037170040DE
:10158C008357E7099396170163DB06089167231FBE
:10159C00F70883C75181850793F7F70FA38AF1806A
:1015AC0085466397D700238B0180A38C01808280B2
:1015BC00A54663E7F60283C761818583238BF1809F
:1015CC000327470C9316070163DB060493E707F820
:1015DC00238BF18083C791818507A38CF180828056
:1015EC002D47639EE70283C66181411103C7718158
:1015FC0093F7860006C6D98F91CB93071700A38B60
:10160C00F18093874182BA972380D700B935B240D5
:10161C00A38A01808547238CF180410182808280DE
:10162C00371700408327870C0111916606CED58FA2
:10163C0026CA4AC822CC2324F70CAA842E89116509
:10164C009145EFF02FC3113D85452165EFF08FC219
:10165C009305A00F1305F00FE53D9715000093853A
:10166C00653419ED1305F1001D3519E50347F1003B
:10167C009307A00A6301F7029715000093850534C0
:10168C002685EF00E07805442285F2406244D2447E
:10169C004249056182801305F100D53B8347F10077
:1016AC0097150000938505335D8D1375F50F69F95A
:1016BC009305A00F1305600F613D971500009385EE
:1016CC00E5325DFD9305A00F1305400F51352A84BB
:1016DC00971500009385C53245F5630209029533D1
:1016EC00294597F0FF1FE78080C189451165EFF010
:1016FC00CFC2B7E700E03707040023A0E710971527
:10170C000000938565312685EF008070B5BF3717D3
:10171C0000408327870A411106C693E7072023243C
:10172C00F70A854513050010EFF06FAA8D451305D8
:10173C000020EFF0CFA9B24041016FF04FD08147AC
:10174C001386C1A913F7F70F6364A7006FF02FDAA4
:10175C0018423E9783460700850793C6F6FF230081
:10176C00D704CDB78147138601A913F7F70F63642C
:10177C00A7006FF02FD918423E97834607008507C4
:10178C0093C6F6FF2300D704CDB78147138641A932
:10179C0013F7F70F6364A7006FF02FD818423E972A
:1017AC0083460700850793C6F6FF2300D704CDB701
:1017BC008147138681A913F7F70F6364A7006FF0B5
:1017CC002FD718423E9783460704850793C6F6FF2A
:1017DC002300D708CDB7B787004003C7670013773E
:1017EC00F70F93762700638C0644011106CE22CCAA
:1017FC0026CA4AC84EC603C7770093060003137760
:10180C000703630BD70203C7770091461377F703DF
:10181C00630AD71E63E4E60A85466305D71863009E
:10182C0007188946630AD7188D46630AD71AB787F3
:10183C00004009472383E700378700408347770040
:10184C00E207E18763D9072A930720FC2301F702FB
:10185C00938681A988420347750083476500220758
:10186C005D8F2395E1B4834715002386F1B40349BA
:10187C000500137609066307061ADD170547636131
:10188C00F72662091359894181466352090283D7AD
:10189C00A1B4930600043E8763F4F600130700041A
:1018AC0042074183998F9376F70F2395F1B4B7874D
:1018BC0000402380D702130700FC3DA493062002AE
:1018CC006306D71063E3E602930600026306D704AF
:1018DC0093061002E31DD7F403C767021377C70FF3
:1018EC00136727002383E70299B79306300263023C
:1018FC00D71093064002E31CD7F203C72703134704
:10190C0007042389E70203C727031377C70F13675D
:10191C0027002389E70221BF03C7C1B495466302A0
:10192C00D7069946631AD7069387A1B403D4070048
:10193C0013070004BE8463748700130400049387A8
:10194C0081A9138901B5884342048325090041808C
:10195C002286052683D704009379F40F818F239573
:10196C00F1B4832709003E9423A881B4B7870040C3
:10197C002380370303C72702134707042381E70299
:10198C007DB503C7370083C6A1B413770708558FFD
:10199C00A381E7000947DDB723800702E5BF83C7B2
:1019AC00870071B503C7770013770704E30107E8D5
:1019BC0003C587006933A5BD03C7770013770704F8
:1019CC00E30707E603C58700713B95B503C7A7027C
:1019DC001377C70F136727002385E70289BD03C759
:1019EC00770013770704E30407E403C58700713B12
:1019FC003DBD03C7E7021377C70F13672700238783
:101A0C00E70235B503C7770013770704E30107E254
:101A1C0003C72703134707082389E70203C5870079
:101A2C00413B31B52946636DF60A171600001306C3
:101A3C00A6FF8A07B2979C43B297828783473500EB
:101A4C00834625000946A207D58F93D68700638B62
:101A5C00C60A6369D6008547638AF6021304F00F41
:101A6C0081472DA88D456388B60C93072002E39718
:101A7C00F6FE83474500CDE397170000938787FD5B
:101A8C0023A8F1B401449307E00309A897170000B9
:101A9C009387470723A8F1B40144C947C207C18300
:101AAC0063F4E7002395F1B49387A1B403D6070040
:101ABC009307000463F4C70013060004938901B56F
:101ACC009314060183A50900C18026865D2203A616
:101ADC000900269623A8C1B49307F00FE313F4DA98
:101AEC00B78700401307F0FC2381E702B78700405B
:101AFC0009472383E700F2406244D2444249B24989
:101B0C000561828097170000938707FC23A8F1B426
:101B1C0001449307B00359B785466391D7069716CE
:101B2C000000938626F723A8D1B40144238AF1D070
:101B3C0093074003A5B793F7F70F8546638ED7003D
:101B4C008DC7E39DC7F0971700009387E7FD23A887
:101B5C00F1B40144A94799B7971700009387C7FBC5
:101B6C0023A8F1B40144B94715BF97170000938718
:101B7C00672523A8F1B4014491470DB7014493079D
:101B8C00F00F29BF834725002395F1B4DDB983C736
:101B9C0081B42300F50003D7A1B48547E3F3E7CE66
:101BAC008547DDB7834725002384F1B4D9B9137772
:101BBC00F9018947E316F7F2834745006381E7048F
:101BCC00636CF7000547E39DE7F0378700408347D8
:101BDC00670293F7370799A0130710086388E70289
:101BEC0013072008E39EE7EE378700408347A702E0
:101BFC0093F7C70B93E727002305F70259B13787F3
:101C0C0000408347A70293F73707FDB7378700409B
:101C1C008347670293F7C70B93E727002303F70269
:101C2C008DB12300050085BF230005009C42A380D5
:101C3C00070003D7A1B48947E3F5E7C4B1B793769E
:101C4C0017008DC2A381070009472381E70249478A
:101C5C002383E7022385E7022387E70205472383D3
:101C6C00E700828093764700FDDA03C757001147DF
:101C7C00FDB7B3C7A5008D8B3307C50081E78D4732
:101C8C0063EEC700AA876370E50A83C60500850763
:101C9C008505A38FD7FEE3EAE7FE828093763500B5
:101CAC00AA8791CA83C6050085078505A38FD7FE31
:101CBC0093F63700FDB79376C7FF138606FE63F0E5
:101CCC00C70683A3050083A2450083AF850003AF3D
:101CDC00C50083AE050103AE450103A3850183A8AE
:101CEC00C5019385450223A0770003A8C5FF23A255
:101CFC00570023A4F70123A6E70123A8D70123AAA1
:101D0C00C70123AC670023AE17019387470223AEAC
:101D1C0007FF75B790419107910523AEC7FEE3EB22
:101D2C00D7FEE3E4E7F68280011126CA4AC806CE44
:101D3C0022CC4EC652C4AA842E8901C51C4D91E3F7
:101D4C0031239C4C804499E3268509239717000086
:101D5C009387C702631CF402C0408357C400A18B55
:101D6C00B1C71C48A1C7FD59294A1C448345090029
:101D7C00FD17B1E91CC463DE07062286A94526853A
:101D8C004D20FD576308F502294535A09717000033
:101D9C009387C7006314F4008044C1B79717000001
:101DAC009387C7FBE31BF4FAC04445BFA285268585
:101DBC000D2A55D97D55F2406244D2444249B2496C
:101DCC00224A056182801CC4050963D70700184CA0
:101DDC0063CBE700638945011C401387170018C0CB
:101DEC002380B70059B7228626852528E31F35F7AF
:101DFC00D1B71C401387170018C029472380E70070
:101E0C0061B797F7FF1F938767A5AA85884329BFFA
:101E1C00AA8703C7050085078505A38FE7FE75FB19
:101E2C008280011122CC26CA4AC806CE4EC6AA848C
:101E3C002E89328401C51C4D91E3092997170000A6
:101E4C009387C7F36319F406C0401C4C1CC483571A
:101E5C00C400A18BC9C31C48BDCF1C480840937952
:101E6C00F90F1379F90F1D8D5C486346F500A285B7
:101E7C002685752C2DE51C440505FD171CC41C403E
:101E8C001387170018C0238037015C486389A700AB
:101E9C008357C400858B81CBA9476316F900A285B3
:101EAC00268571240DEDF24062444A85D2444249A4
:101EBC00B2490561828097170000938727EE63145F
:101ECC00F400804459B797170000938727E9E31E65
:101EDC00F4F6C0449DBFA285268521203DDD7D59A9
:101EEC00D9B7411197F7FF1F9387479726C28443B1
:101EFC0022C44AC006C62A892E8489C49C4C99E304
:101F0C002685A92697170000938747E7631CF402E0
:101F1C00C0400317C40093170701C18393F68700D1
:101F2C00B5EE93F607019DEEA5472320F900136744
:101F3C0007042316E4007D55B24022449244024922
:101F4C004101828097170000938747E56314F400E2
:101F5C008044C1B797170000938747E0E31BF4FA5E
:101F6C00C04445BF918B8DC74C5889C99307440415
:101F7C006384F5004A858123232A04028357C40015
:101F8C002322040093F7B7FD2316F4001C481CC051
:101F9C008357C40093E787002316F4001C4881EF95
:101FAC008357C4001307002093F707286385E700C5
:101FBC00A2854A859D218357C40013F7170005C7D6
:101FCC005C4823240400B307F0401CCC1C4801459A
:101FDC00A5F78317C40013F7070839DF93E7070445
:101FEC002316F40089BF898B014791E3584818C424
:101FFC00F1BF83D7C500011122CC26CA06CE4AC830
:10200C004EC613F78700AA842E8471EFD841634D16
:10201C00E000B841634AE0000145F2406244D2441A
:10202C004249B2490561828058547DD703A9040006
:10203C009396370123A0040063DD0606704883578E
:10204C00C400918B99C75C401D8E5C5899C33C4071
:10205C001D8E5C540C50814626858297FD57035784
:10206C00C400631DF5009440F54763E8D706B70735
:10207C0040208507B3D7D700858BA5C31C482322E6
:10208C0004001CC09317370163D80700FD57631475
:10209C00F5009C4091E368C84C5823A02401ADDDA9
:1020AC00930744046384F50026853121232A040216
:1020BC00A5B70C500146854626850297FD572A8602
:1020CC00E31FF5F69C40A5DF75476385E70059478C
:1020DC006394E70423A0240181B713670704231634
:1020EC00E4007D551DBF83A90501E38709F203A90F
:1020FC0005008D8B23A0350133093941014791E34C
:10210C00D84918C4E35A20F11C540C50CA864E8688
:10211C00268582976349A0008357C40093E7070480
:10212C002316F4007DBFAA993309A940E1BF9C494D
:10213C00B9CF011122CC06CE2A8411C51C4D81E7E2
:10214C002EC62922B24597170000938727C3639B9D
:10215C00F5004C408397C50095C722856244F24038
:10216C00056141BD97170000938747C36394F50041
:10217C000C44CDB797170000938747BEE39CF5FC42
:10218C004C44C9BFF240624401450561828001455F
:10219C008280411122C406C62A842316B500231757
:1021AC00C50023200500232205002324050023223B
:1021BC00050623280500232A0500232C05002146AB
:1021CC0081451305C505EFE0EFE297070000938703
:1021DC0067485CD0970700009387C74A1CD49707C1
:1021EC0000009387074F5CD4970700009387C75173
:1021FC0000D01CD8B24022444101828097050000D7
:10220C00938525F389AA411126C21306800693846F
:10221C00F5FFB384C4024AC02E8922C406C6938536
:10222C004407252E2A8401CD2320050023222501D5
:10223C00310508C4138684068145EFE0AFDB2285A7
:10224C00B240224492440249410182801C4DBDE3BC
:10225C00411106C622C497070000938767FA1CD564
:10226C0097170000938747B69C4323240504232625
:10227C000504232805046314F50085471CCD2A8426
:10228C001D2848C02285052808C422852D2048C455
:10229C00484001469145F53D08440546A545D53DC8
:1022AC0048440946C945F53585471CCCB240224403
:1022BC004101828082804111971700009387C7B03B
:1022CC0026C284434AC006C69C4C22C42A8999E380
:1022DC002685AD3F938484048044DC40FD1763D68F
:1022EC0007009C40B9CF8440C5BF0317C40039E731
:1022FC00C17785072322040623200400232204002F
:10230C00232404005CC423280400232A0400232C67
:10231C000400214681451305C405EFE0AFCD232A07
:10232C000402232C040223240404232604042285FF
:10233C00B240224492440249410182801304840633
:10234C0071BF91454A85C13588C051FDB1472320E5
:10235C00F9000144E9BF797122D44AD052CC56CA53
:10236C005AC85EC606D626D24ECE2A8AAE8A130428
:10237C0085040149054BFD5B09ECB25022544A859A
:10238C0092540259F249624AD24A424BB24B4561CD
:10239C008280044483294400FD1963D40900004061
:1023AC00E1BF83D7C400637BFB008397E4006387A2
:1023BC007701A6855285829A3369A9009384840695
:1023CC00E1BF1971A6DAAE848395E500A2DC86DE46
:1023DC00328463DC050083D7C40023A0060093F786
:1023EC0007089DE39307004015A0300836C68D2ED4
:1023FC00B246E34205FE7247BD67F98F7977BA970B
:10240C0093B717009CC2F9BF930700041CC0F65089
:10241C006654D65401450961828083D7C5000111E9
:10242C0022CC06CE26CA4AC8898B2E8489CF930724
:10243C0074041CC01CC885475CC8F2406244D2447A
:10244C0042490561828074003000AA849D3FA245F8
:10245C002A892685192201ED8317C40013F707205A
:10246C0069FFF19B93E727002316F400C9B7970780
:10247C0000009387E7D89CD48357C40008C008C8D1
:10248C0093E707082316F400A2475CC8B24789CF2C
:10249C008315E4002685D52C01C98357C400F19B14
:1024AC0093E717002316F4008357C4003369F9002F
:1024BC002316240159B7CDC183A7C5FF411122C4EE
:1024CC0006C626C21384C5FF63D307003E94AA84B4
:1024DC003926938781829C4399EB2322040023A401
:1024EC0081822244B240268592444101D5AC637E60
:1024FC00F40014403307D4006396E7009843DC43A0
:10250C00369718C05CC0E1BFBA87D84319C3E37DC6
:10251C00E4FE94433386D700631F86001040B296C6
:10252C0094C33386D700E31EC7FA10435843B296C0
:10253C0094C3D8C37DB76375C400B1479CC055B76D
:10254C001040B306C4006316D70014435843B29628
:10255C0014C058C0C0C371B78280011126CA9384BD
:10256C003500F19806CE22CC4AC84EC6A104B1471C
:10257C0063F1F404B14463E0B4042A898D24938795
:10258C00818298433A8431E09387C1829C4391E7DE
:10259C0081454A85512823A6A182A6854A856920B2
:1025AC00FD5963173507B1472320F9004A850D2CD7
:1025BC0029A0E3D204FCB1471CC10145F24062449E
:1025CC00D2444249B249056182801C40858F63CE5A
:1025DC000702AD4663F6F6001CC03E9404C031A061
:1025EC005C406312870223A4F1824A85D52A130525
:1025FC00B4009307440061993307F54061D33A94D2
:10260C00898F1CC065BF5CC3CDB722874040A5BF76
:10261C00130435007198E30385FCB305A4404A8587
:10262C002120E31D35FB41B7411122C42A842E859C
:10263C0023AC01D806C6112CFD576317F500938700
:10264C0081D99C4391C31CC0B24022444101828079
:10265C00411122C42E848395E50006C65922634994
:10266C0005007C48AA977CC8B24022444101828074
:10267C008357C4007D777D17F98F2316F400EDB7CF
:10268C0083D7C500011122CC26CA4AC84EC606CE35
:10269C0093F70710AA842E843289B68991C7839543
:1026AC00E5008946014631228357C4007D777D17AA
:1026BC00F98F2316F4008315E4006244F240CE86B1
:1026CC004A86B24942492685D24405613DA841114A
:1026DC0022C42E848395E50006C6E128FD570357D6
:1026EC00C400631BF500FD77FD17F98F2316F4006A
:1026FC00B2402244410182808567D98F2316F400B1
:10270C0068C8FDB78395E50005A8411122C42A8449
:10271C002E85B285368623AC01D806C6EFE0AFCC49
:10272C00FD576317F500938781D99C4391C31CC057
:10273C00B240224441018280411122C42A842E8558
:10274C0023AC01D806C6E120FD576317F50093872B
:10275C0081D99C4391C31CC0B24022444101828068
:10276C00411122C42A842E85B28523AC01D806C619
:10277C006D20FD576317F500938781D99C4391C356
:10278C001CC0B240224441018280411122C42A84DF
:10279C002E8523AC01D806C67920FD576317F500AA
:1027AC00938781D99C4391C31CC0B2402244410100
:1027BC008280411122C42A842E85B285368623ACB0
:1027CC0001D806C6BD20FD576317F500938781D944
:1027DC009C4391C31CC0B240224441018280828040
:1027EC008280411122C42A842E85B285368623AC80
:1027FC0001D806C6A920FD576317F500938781D928
:10280C009C4391C31CC0B240224441018280930777
:10281C00800523ACF1D87D5582809307800523ACCD
:10282C00F1D87D5582809307800523ACF1D8014502
:10283C0082809307800523ACF1D87D558280930765
:10284C00800523ACF1D87D558280938701839C430E
:10285C0091C73E9523A8A1823E8582809387C1D9DA
:10286C003E9523A8A1823E858280000068656C6C31
:10287C006F0000006D6F757365207265616479007F
:10288C0066E1FFFF8EE1FFFFB6E1FFFFCEE1FFFF48
:10289C00E8E1FFFFF8E1FFFF20E2FFFF48E2FFFF66
:1028AC0060E2FFFF7AE2FFFF01000000020000007F
:1028BC0004000000080000001000000020000000D0
:1028CC004000000080000000000400000008000030
:1028DC0000100000002000000040000000800000FC
:1028EC00290035002B003900E100E0003A001E0001
:1028FC00140004001D00E3003B001F001A0016002A
:10290C001B00E2003C00200008000700060000004D
:10291C003D0021001500090019002C003E0022008A
:10292C0017000A00050000003F0023001C000000F7
:10293C00000000004000240018000B000000000004
:10294C00410025000C000D00110000004200260083
:10295C0012000E00100000004300270013000F00AF
:10296C003600E60044002D002F0033003700E7004E
:10297C0045002E00300034003800FF004C002A00C7
:10298C0031002800E500E4000010000000200000E9
:10299C00000001000000020000000400000008001C
:1029AC005B4552524F525D50535F52455345542034
:1029BC0053544550310000005B4552524F525D500C
:1029CC00535F524553455420535445503200000038
:1029DC005B4552524F525D50535F52455345542004
:1029EC0053544550330000005B4552524F525D53D7
:1029FC0045545F44454641554C5400005B4552528A
:102A0C004F525D454E5F444154415F5245504F52C9
:102A1C00540000005B52454144595D4D6F75736520
:102A2C000000000004F2FFFF8AF1FFFFBCF0FFFF83
:102A3C00BCF0FFFFBCF0FFFF60F1FFFF18F0FFFFE1
:102A4C00BCF0FFFF6AF1FFFF80F1FFFFFEF1FFFF1B
:102A5C0005010906A101050719E029E71500250163
:102A6C007501950881029501750881019503750121
:102A7C000508190129039102950575019101950627
:102A8C00750826FF000507190029918100C0000078
:102A9C0005010902A1010901A10005091901290378
:102AAC0015002501750195038102750595018101BC
:102ABC0005010930093109381581257F7508950301
:102ACC008106C0C009023B00020100A032090400CB
:102ADC00000103010100092111010001223E000740
:102AEC0005810308000A0904010001030102000921
:102AFC0021100100012234000705820304000A00A2
:102B0C0012011001000000403D41072100000000AF
:102B1C00000100000E036C00610062003400310003
:102B2C00380000000A035400500038003700000041
:102B3C000000000000000000002F00000000070053
:102B4C00070000147F147F1400242A7F2A120062CD
:102B5C006408132300364955225000000503000079
:102B6C0000001C224100000041221C000014083E01
:102B7C0008140008083E0808000000A060000008C7
:102B8C00080808080000606000000020100804021B
:102B9C00003E5149453E0000427F400000426151D9
:102BAC004946002141454B31001814127F10002773
:102BBC0045454539003C4A49493000017109050336
:102BCC0000364949493600064949291E0000363667
:102BDC0000000000563600000008142241000014CA
:102BEC0014141414000041221408000201510906A7
:102BFC0000324959513E007C1211127C007F494928
:102C0C004936003E41414122007F4141221C007F58
:102C1C0049494941007F09090901003E4149497A66
:102C2C00007F0808087F0000417F410000204041E0
:102C3C003F01007F08142241007F40404040007F4C
:102C4C00020C027F007F0408107F003E4141413E90
:102C5C00007F09090906003E4151215E007F0919D8
:102C6C0029460046494949310001017F0101003FD5
:102C7C004040403F001F2040201F003F4038403F55
:102C8C0000631408146300070870080700615149B9
:102C9C00454300007F41410000552A552A5500004C
:102CAC0041417F00000402010204004040404040CA
:102CBC00000001020400002054545478007F484462
:102CCC00443800384444442000384444487F003899
:102CDC005454541800087E0901020018A4A4A47CC2
:102CEC00007F080404780000447D4000004080848C
:102CFC007D00007F102844000000417F4000007CD4
:102D0C0004180478007C08040478003844444438DF
:102D1C0000FC242424180018242418FC007C08042B
:102D2C00040800485454542000043F444020003C04
:102D3C004040207C001C2040201C003C4030403C8B
:102D4C00004428102844001CA0A0A07C004464541B
:102D5C004C4414141414141400000000000000005F
:102D6C000000000000000000000000000000000057
:102D7C000000000000000000000000000000000047
:102D8C000000000000000000000000000000000037
:102D9C000000000000000000000000000000000027
:102DAC000000000000000000000000000000000017
:102DBC0000000000000000007C08002084080020B7
:082DCC000403090400080020C3
:102DD40000000000842D0000A42D0000642D0000DC
:102DE40000000000000000000000000000000000DF
:102DF40000000000000000000000000000000000CF
:102E040000000000000000000000000000000000BE
:102E140000000000000000000000000000000000AE
:102E2400000000000000000000000000000000009E
:082E340002000000000800206C
:00000001FF
