:040000006F208008E5
:100004000000000000000000900000201C020020FE
:10001400A9BDF9F5940000200000000000000000D4
:10002400960000209800002000000000000000005E
:100034009A000020000000009C0000200000000046
:100044009E000020A00000208C020020A4000020BC
:10005400A6000020A8000020B2020020AC0000206E
:10006400AE000020B0000020B2000020B400002048
:1000740098020020B8000020BA000020BC00002034
:10008400BE000020C0000020C2000020C4000020E8
:1000940001A001A001A001A001A001A001A001A054
:1000A40001A001A001A001A001A001A001A001A044
:1000B40001A001A001A001A001A001A001A001A034
:1000C40001A001A001A0B71700409306700523808A
:1000D400D704130780FA2380E7040100010003C654
:1000E400B7041376F60DA385C7042380070413769B
:1000F400050251CE03C6A700118A1DE22380D7044E
:100104002380E7040100010003C7A7001367470029
:100114002385E7009307004B01000100FD17EDFF65
:10012400B7170040930670052380D704130780FA9D
:100134002380E704010001007D892394A7000100C6
:10014400010001000100238007042380D7042380D9
:10015400E70401000100372700408546A303D78048
:1001640023800704B7170040130770052380E704B2
:10017400130780FA2380E7040100010003C7B704D2
:1001840013670708A385E704238007048280137696
:10019400050425CA03C6A700418A1DE22380D704AB
:1001A4002380E7040100010003C7A70013670701C8
:1001B4002385E7009307007D01000100FD17EDFF93
:1001C400B7170040930670052380D704130780FAFD
:1001D4002380E704010001007D891365050423944D
:1001E400A70001000100010001002380070423800F
:1001F400D7042380E7040100010037270040894623
:10020400B1BF2380D7042380E7040100010003D792
:1002140087001367070C2394E700A9B781460146BA
:1002240081451145992AB7170040130770052380AB
:10023400E704130780FA2380E704010001007D57D7
:100244002396E70203C76704136717002383E704B1
:100254002380070401A0BD473305F50201007D1585
:1002640075FD8280411122C426C206C6AA840144B7
:1002740063179400B24022449244410182800504F1
:100284001305803E4204C13F4180DDB7975000E032
:10029400E78080F873002030B7170040130700038D
:1002A4002388E7028547175700002325F784730046
:1002B4002030975000E0E780602D73002030230346
:1002C400048015472303E48001002302A480828074
:1002D40083076480E3CE07FE2303048082808307C0
:1002E4006480E3CE07FE03454480828083076480F4
:1002F400E3CE07FE2302A4808280411126C44AC2B1
:100304004EC006C61377F50BAD47AA892E899544CE
:100314006306F70019456537653F8D444E854537BB
:10032400FD59FD1463983401B240A2441249824934
:1003340041018280135509011375F50F453F2209C8
:10034400CDB7011126CC06CEB704080051371545A8
:10035400BD37713769372AC6A53F324593771500F3
:1003640089EB136515001375F50FF240E24405613E
:100374008280FD14E9FC0145CDBF397126DC4ADADF
:100384004ED852D656D45AD25ED006DE62CE66CC51
:10039400B7E700E07D5783AA070022C603AA4700F7
:1003A40023A0E71823A2E718B71700401307700526
:1003B4002380E704130780FA2380E70483C74704F4
:1003C400930B75FFB684E20793FBFB0F8546AA895E
:1003D4002E8B328937240040E187015763FA760176
:1003E4006308D5008946130700026313D50001573B
:1003F400D98F93F7F70FB71C00402382FC041147F1
:100404002303E4801305F00F5D3D094CD135636D82
:100414007C11B7050700DA9537870700795563F231
:10042400E504B3879500636EF702370B0800A9470C
:1004340033EB65016399F90689E48144513D2685CE
:100444000DA0DA850945553D05090345F9FFFD145D
:10045400050B693D81C49377FB0FFDF7DD3569FD1D
:100464007D55B7170040130770052380E704130771
:1004740080FA2380E70403C74704418B2382E704FF
:10048400F250B7E700E023A0571123A24711E2542A
:1004940032445259C259325AA25A125B825B724C8C
:1004A400E24C21618280A5476395F90685691309A9
:1004B400F00FB3069900B3742B01B6941349F9FFF6
:1004C400B3749900856B33796901416B9387F9FFA4
:1004D400B3F7270199E363FC340193D94900C14779
:1004E400E3E637FF99BF0569C1697D19D9B71305DB
:1004F400800D638869011305000263847901130583
:100504001008CA85DD3B353D21DD4E99B384344165
:10051400D9B7DA852D45D533CA94E30099F2050994
:100524007D3BA30FA9FED5BF9387F9FF93F7F70F80
:100534006361FC0C83C71C0413073008631FF704B2
:1005440037070800636BEB04B3079B00B706100082
:1005540063F5D704334BEB0089476393F90689802D
:10056400D549E38C04ECDA850945413B110903279D
:10057400C9FF91472320E48003076480E34E07FE0C
:1005840023033481FD17EDFBFD14110B81C4937714
:10059400FB0FE9FF7D3371F5E1B5B717004003C7E1
:1005A4005704B70708001377070219E3B787070052
:1005B4007955E378FBEA33079B00E3FFE7F855B589
:1005C4008547E382F9F2DA852D45053B9389F4FFEB
:1005D400E38504E6293393F7390091EB83260480FD
:1005E4000327090093074900E39AE6E43E89CE8491
:1005F400F1BFB5476396F9001305900BC93135BDBA
:10060400B1471305B00AE38BF9FE99476391F904E6
:10061400B7050800B365BB002D45C53181448D4B3A
:10062400A149753963967401832704802320F90056
:100634008504E39834FF8327048013172B01635543
:1006440007002312F900D5BB2322F900FDB39D470F
:100654006399F90281451305B0044531BD44232053
:10066400090023220900FD599D3993F77400CA97A4
:1006740003C70700FD14398D2380A700E39634FFD8
:100684006DBBA1476392F9046D398144630D0B007E
:100694008D479304C0036308FB00930400056304BF
:1006A4008B01930440041375C507E30895D81945D5
:1006B400393139390545213126850D3909453D3111
:1006C4004931E31C05D669BB91476399F9001305C9
:1006D4006006F536F53E130590090DB7E38F09D48E
:1006E400F154A9BB1767000003473707914763E23A
:1006F400E7149767000083C7A708918B639B0712D1
:1007040097670000938707E890439766000083C6C5
:10071400B6E3814763CED706011122CC17640000EB
:10072400130484E2584426CA06CE9767000083C7A0
:1007340017E797640000938464E56365F70C680029
:10074400972001E0E780E053FD57630AF50C324738
:100754009767000083C7B7E463F6E70A5844634128
:1007640007048D2132475C446373F700BA87176727
:1007740000000347D7E2998F3E958387440163C6FF
:100784000702B707C0A86362F502B707405771A014
:100794001397170032970357070041EF85079DBF52
:1007A40003874401635507061D8D17640000130475
:1007B40064FA1C4C81CF976700009387A7FD94438C
:1007C4003707CDFF7D179C46F98F9CC619E1370585
:1007D400C0A8DC50829719E91C4C8DC7979001E0A2
:1007E400E78000A5978001E0E78040F21C4C99CB9C
:1007F40097670000938707FA9843B70633001C47AE
:10080400D58F1CC7F2406244D24405618280E37DE7
:10081400F5F83707C0A8B307F7403E9579B75C44AD
:10082400E3C207FE452617670000034757D75C4419
:1008340099B7828019CD91CD09CE81473387F500D0
:10084400834607003307F50085072300D700E397A5
:10085400C7FE828019C991C909CA910583A7C5FF3A
:1008640011057D16232EF5FEC5BF8280854715C16F
:100874008DC105C28147B306F5003387F50083C6F1
:100884000600034707006398E6008507E315F6FEB4
:1008940085473E8582808147EDBF79719767000067
:1008A400938787CE22D4804306D626D24AD04ECE12
:1008B40052CC56CA5AC85EC67DC08144176B00002C
:1008C400130B0BD117690000130949CC176A0000F8
:1008D400130A8AC7B709C0A8B70A40578357240028
:1008E40085E35C4481EC17670000232FF7C8832B52
:1008F400C4002285EF1080575E8461A0DCC4C5BFAC
:1009040083270B0082971C44636FF5023307F5407D
:10091400635E07020327490219CF03074901635F96
:1009240007003387A7408327CA006376F7009767D9
:10093400000023A1E7C2A2844044A1A00147E384AC
:10094400A7FECE97F9BF898F63DE0706976700007D
:1009540023A207C08355240003450400976000E0E8
:10096400E78000CB5C405844B1C71444B697830673
:10097400490163C5060063E33701D6971CC4A2840A
:100984003A8429FC97670000938707BCDC4711472A
:100994006376F704F11717670000232DF7BAB250F6
:1009A400225492540259F249624AD24A424BB24BFF
:1009B4004561828091E49767000023A7E7BC05BFE7
:1009C400D8C435B7032749023DD70327CA00E3F447
:1009D400E7F617670000232FF7B6B1BF976700004B
:1009E40023AA07B66DBF411122C417640000130483
:1009F400E4B71C4006C626C291C7829797670000D9
:100A040023A607B65C4091C382971C40639E0716D9
:100A14009767000083C757D4858BF9CF9767000089
:100A2400A38C07D217670000034737D3914763FDB0
:100A3400E700EF00B0569767000083C717D2F51799
:100A44008A07A2979C43829797670000938787B38E
:100A5400984317660000034636AFBE8497670000CC
:100A640083C787AE93961700BA9683D60600D1CE75
:100A74009767000083C747AD63E3C70A9767000021
:100A8400238407AC1C40639107109767000083C759
:100A9400F7CC91CF9767000083C737CC89EB976772
:100AA4000000A38D07CA978001E0E78020059767BF
:100AB40000009387E7B19C43E1CBFD571767000023
:100AC400232AF7A8D93B97670000938727ACDC5308
:100AD40091C3093997670000938747AF9C43CDC7FB
:100AE400829797670000938727A69C4B3E9597674C
:100AF400000023A3A7A649A89767000083C747C897
:100B0400918BB9D3EF10601A81B7850793F7F70F6C
:100B140097660000238AF6A2E3E2C7F491BF860732
:100B24003E9797670000938727A4835507009C434B
:100B34002310070017650000034505A113172500BE
:100B4400BA979C4382979767000083C7E79F1397E0
:100B540017009C40BA9703D70700598D2390A7002C
:100B64009767000083C7479E91C7850717670000F2
:100B7400230CF79C176700000347079D9767000045
:100B840083C7979CE37CF7EEB24022449244410130
:100B94008280AD6737C70040BD072326F7200F10BA
:100BA4000000976700009387279A884F832787263A
:100BB400BD66BD0693C7F7FF99836A052326D72030
:100BC4005D8D82804111B7170040985F3AC6945FEB
:100BD4003247E39CE6FE3245410182800327850FBC
:100BE40019E3054582808347C50093F7C70F2306A1
:100BF400F500034687008356C70093158601E185F7
:100C040063D8050A137816008355E51863020806AD
:100C140013E617002306C50063F8D5020348A502AE
:100C2400A30AB50017660000034656976376C8000A
:100C340093E717012306F5008D8E2316D700854709
:100C4400A30CF50001458280104309CE8345A5021B
:100C5400176600000346969463F6C50093E71701F0
:100C64002306F500A30AD5008947A304F700C1BFF2
:100C740013E8270023060501E3F5D5F68D8E130846
:100C840010F813661600A30407012304C7002316F3
:100C9400D7008346A502176700000347379063F621
:100CA400E60093E727012306F500A30AB50041BF38
:100CB400054893E527006314060193E5170023060E
:100CC400B500A30AD5008947A304F7001C43A5DB9C
:100CD4000347A5029767000083C7578CE371F7F6B3
:100CE40093E505012306B50099BF97670000938734
:100CF400E7A29C43411122C406C6858B2A84CDEB0E
:100D04004165130525F5973001E0E78040D04DC1DA
:100D14008347A5002315F50083270410A5E72320A6
:100D2400A4102322A4108547231CF40223200500C9
:100D34008347640154412316F5000347D400230478
:100D4400E500176700001307E7A0184F1385170283
:100D540015811C437D151375F50F9CC25C43DCC2E1
:100D64001C479CC65C47DCC61C4B9CCA5C4BDCCA5B
:100D74001C4F9CCE5C4FDCCE19CD93860602130724
:100D84000702C1BF8327441088C3835784032322E7
:100D9400A410850751BF9767000083D7A7A88507CC
:100DA400176700002310F7A8B24022444101828053
:100DB4008347C40023090400054593C7470023065D
:100DC400F400DDB78347E50193F7E70F91CB0145C5
:100DD40082800145B240224492440249410182800A
:100DE4008347F501EDF7834625010347C50089CA0A
:100DF4000346A5029757000083C7977A6367F600F6
:100E040093770701E9D7814789C6418B8357C51872
:100E140001C703570519BA97DDDB175700000347CD
:100E2400277841111316870106C622C426C24AC078
:100E34006186635006069387C71313D457009767D8
:100E440000009387279C83A687089754000083C4D7
:100E5400C4757D59B705C0A883A7460803D786077C
:100E6400635B06043387E740637327013A8994423E
:100E7400E5F6975700009387A7759C438297E36A2A
:100E8400A9F43305A940269433348500134514008E
:100E940091B7058B9387C71209CB8A071384F7038D
:100EA4009307D0073354F40259BF86071384F7011C
:100EB4009307D003C5BFE3F7E7FAAE9765B71766A4
:100EC40000001306269403278608630407467971F5
:100ED40026D2975400009384646B8388440183254D
:100EE400060906D622D44AD04ECE52CC56CA5AC887
:100EF4005EC601457D583703C0A88326470883573B
:100F0400870763D20812B387F64063F50701BA85F1
:100F14003E880545184375F309C59767000023AB60
:100F2400B796032406098569175900001309496A0D
:100F3400370AC0A8B70A4057054B9389B947832796
:100F44000900832B440882976370752F0357840725
:100F54009757000083C76765B38BAB40BA9763EEBE
:100F6400771F83574403A30E040022858507231AA1
:100F7400F40283470412C5CF8D212285972001E016
:100F8400E780A0F751E58386440123050402832703
:100F940044080355840763DE0608B389A740032782
:100FA4000408232E3407BA9763C90600B706C0A8FD
:100FB40063E5D700B7064057B6978346B4002322AB
:100FC400F4088547639FF6068357240703560403F2
:100FD4006369F606034604016315D6068326840F67
:100FE400ADE283268409B1EE0346F4009306000CB7
:100FF4006319D604B387E70203278408B3D7E7024B
:10100400175700000347575A0507BA97231CF406DD
:10101400B250225492540259F249624AD24A424B83
:10102400B24B45618280E3F0F6EE9A96E9BD19264B
:10103400A9B7E3F4A7F6B709C0A8BE99B389A94034
:10104400B9BF8327090082979757000083C7475584
:10105400139787016187635807083385A94079C1CD
:10106400832604086370D50C635507081605B71763
:10107400004083C7F702E207E18763C30700411515
:10108400175700001307C76E1443B567BD07DCC6C6
:101094000F1000001C4306050967E8D398C713071F
:1010A40000F8975600002389E66A3D673D07D8C7D4
:1010B400978001E0E78040A1978001E0E780A0B13C
:1010C4000347B400854781456313F704177501E0AE
:1010D40013056580976000E0E780A08D930700FD0D
:1010E4002307F40035B7E3FAA9F6B706C0A8B69902
:1010F400ADB7858B99C79307803E3305F5021581FB
:10110400BDB79307D0033305F50205818DB71735B5
:1011140001E01305A536976000E0E7808089930716
:1011240010FC7DBF0347B400854703A30403631782
:10113400F7009545E30E03EC154529A0E30A03ECFB
:10114400954519452254B25092540259F249624AC3
:10115400D24A424BB24B4561028363D60B06835796
:10116400440322858507231AF40283470412B1CB72
:10117400AD242285972001E0E78020D803270408C6
:1011840083274408BA97038744016345070063E350
:101194004701D6972322F4088347B4006397670175
:1011A4002285976001E0E780C01D8347D40185450F
:1011B4008507A30EF4009C58E38307D8154582974E
:1011C400BDBB8D2A7DB783572403175700000347FF
:1011D400273D93168701E1868E0763D7060213071E
:1011E400204EB387E7029583E3F477E3A145228594
:1011F400972001E0E780E0C72302A40203A30403CD
:101204008945E31B03F229B5058B11C71307800237
:10121400B387E702D1BF05671307B747B387E70270
:10122400938707049D83C9B7835724031757000086
:101234000347073793168701E186B30B75418E0781
:1012440063D0060A1307204EB387E702958363F23F
:10125400FB0C83270900829783574403AA8B2285BA
:101264008507231AF40283470412C1CBBD222285C9
:10127400972001E0E78060C8E31C05D80327040831
:1012840083274408BA97038744016345070063E34F
:101294004701D6972322F4088347D40113F7070F95
:1012A40039CF2285971001E0E780E07CA30E04008B
:1012B40083274408E3FFFBF88347B400639567057D
:1012C4000357240783570403E3FBE7C6228597608B
:1012D40001E0E780000B9C58E38307C68D45F9BD08
:1012E400058B11C713078002B387E7028DB7B38755
:1012F4003703938707049D8399BF2D288DBF8507E6
:10130400A30EF40075B79C58E38B07C28D451945AD
:101314007DB5E3CF0BCEA1452285972001E0E78080
:1013240040B52302A40203A30403E30303CE9145BF
:1013340021B58280797126D206D622D44AD04ECEE7
:1013440052CC56CA5AC85EC68347850203447511F7
:10135400AA843E941374F40F9307400263F6870043
:101364001304B4FD1374F40F03AA841183AAC411E3
:10137400A38B841022865285D685971002E0E780DD
:1013840080D6058915E503CBD41001498149337B07
:101394006403930B50024A865285D685971002E067
:1013A400E78060D4058915C5639169031374F90F47
:1013B400238B8410B250225492540259F249624A47
:1013C400D24A424BB24B456182808509E20993D9E6
:1013D40089410509E31179FDE1BF8327C508035657
:1013E4004503797193D60701BD8EC206C182358E3D
:1013F4001357764093575640898B058B5D8F9357CF
:101404003640918B5D8F93571640A18B5D8F931758
:101414001600C18B5D8F9317360093F707025D8F1B
:10142400931756009355860093F707041E065D8FA5
:101434001376F60F518F93D7554013D63540118A42
:10144400898BD18F13D67540D18F13D61540218A3D
:10145400D18F13961500418AD18F139635001376D8
:101464000602D18F13965500137606049E05D18F7C
:1014740093F5F50FCD8FA20745465D8F3307C7025D
:1014840022D42A8426D252CC56CA032A8411832A0F
:10149400C4115AC806D636974207418393577740FA
:1014A400135557400989858BC98F135537401189C6
:1014B400C98F135517402189C98F13151700418906
:1014C400C98F1315370013750502C98F13155700FB
:1014D40093558700137505041E07C98F1377F70FFB
:1014E400D98F13D5354013D755401189098B498FAE
:1014F40013D57540498F13D515402189498F13950C
:1015040015004189498F1395350013750502498FDC
:1015140013955500137505049E05498F93F5F50F32
:101524004D8F2207D98FB387C7024AD04ECE5EC6ED
:1015340062C4B697C207C18313D7774013D5574007
:101544000989058B498F13D537401189498F13D5E4
:1015540017402189498F139517004189498F1395A5
:10156400370013750502498F1395570093D58700EB
:10157400137505049E07498F93F7F70FD98F13D579
:10158400354013D755401189098B498F13D57540C0
:10159400498F13D515402189498F13951500418929
:1015A400498F1395350013750502498F139555001E
:1015B400137505049E05498F93F5F50F4D8F22078A
:1015C400D98FB387C702130650025285D685B697C2
:1015D400BD8E93940601C18033F6C402137BF60FCB
:1015E400971002E0E78020B005890DED8347D41001
:1015F40001498149B3849702130C5002C1804A8681
:101604005285D685971002E0E780E0AD0589937B8B
:10161400F90F11C563863403850993F9F90F050998
:10162400E31F89FD230B6411B250225492540259D2
:10163400F249624AD24A424BB24B224C4561828003
:101644005E8BCDB70111975700009387A71B22CC5F
:1016540003A4C70A26CA06CE2AC42EC6854419E4A2
:101664000145F2406244D24405618280034714007C
:10167400834791006304F7000044D5B719469305E6
:10168400A10013052400EFF06F9EE31795FE0545B6
:10169400C9BF17570000130767091443411122C635
:1016A4009C5E4AC226C49983858B3A8417590000EC
:1016B40013098907C9C39C5E975400009384840965
:1016C40093F7F7F99CDE9757000083C7A70893F7B1
:1016D400070499CB97570000938787EF9C43829721
:1016E4009757000023A0A708854717570000A305B4
:1016F400F70683C7440093F7070491EF9757000058
:10170400938707079C43D844F8D3930700FC1757E3
:1017140000002303F70483C7640013070008631C55
:10172400F700832709009C439983858BADE3975782
:101734000000238407021C40985F1183058B09CBAA
:10174400985F3D9B98DF0547975600002386E60087
:10175400985F1D83058B11CB985F1377F7F798DF9C
:101764008547175700002309F7FE83270900D8434C
:101774000583058B19C7D843759BD8C3D843799B78
:10178400D8C33244A2441249410173002030930764
:1017940000FC175700002302F7FC71BF1757000025
:1017A400130747FB83470700858B89EB83471700A3
:1017B400858B89E783474700858BEDD78280175750
:1017C40000001307A7F614439C5E9583858BC5EF31
:1017D40009C69C5ABD832300F600C5C9834715007A
:1017E400CDC7411106C617560000034606F79306F7
:1017F400000C6304D602975700009387A7F583C5AE
:10180400670097570000938767D89C5B13053008DF
:1018140082970945B240410182803E9583479500F5
:10182400854613F6F706630AD60097570000938798
:10183400E7D59C5B9305D00FD1BFE207E18709454B
:10184400E3CA07FC1C43985B460793576701635937
:10185400070293E707C01387970F42074183930654
:10186400201F0145E3E8E6FA1387219C03170700CC
:1018740009C7BA970947B3C7E7022391F19C59BF37
:10188400C207C187C9BF054582801C43985B4607D0
:10189400935767016359070293E707C01387970FAC
:1018A400420741839306201F014563EDE600138739
:1018B400219C0317070009C7BA970947B3C7E70272
:1018C4002391F19C8280C207C187C9BF49E597571C
:1018D40000009387E7E99443411122C406C62E878A
:1018E4003E84FC52FDFF3A85B285977001E0E780A3
:1018F40060FC97570000938767E39C43B70680001A
:101904009843558F98C3D857719BD8D71C40094723
:1019140098C3B7F700E003A707D16D9B23A8E7D0CE
:1019240003A707D15D9B23A8E7D073005010175776
:101934000000130727E283472700858B89EB834741
:101944003700858B89E783474700858BEDD7B24005
:101954002244410182808D476310F50497570000AB
:101964009387C7DC9C43B70680009843558F98C380
:10197400D857719BD8D7175700001307A7DD8347A3
:101984002700858BBDEF83473700858BBDEB8347ED
:101994004700858BEDD782808547E31EF5FC97577A
:1019A40000009387E7DC944335673D07D8C60F10E2
:1019B400000017570000130767D7144309469842DD
:1019C40031830D8B6313C70298439306E04374D3AA
:1019D400984389671CC7930700F897560000238D26
:1019E400F6D6BD67BD075CC779B798429443318387
:1019F4000D8B09E713076019F8D2D9BF1307E01B51
:101A0400E5BF82805D712AC62EC486C6977001E048
:101A1400E780800B977001E0E780E01B9758000097
:101A24009388C8D083A7080017530000130383D6F4
:101A34003706330023A40700984B370EFCFF370FFB
:101A440004001367F70398CB9843914F7D1E1377D7
:101A5400F7E798C398438542930E80021377F7E71C
:101A64001367071098C38326030032459846518FA5
:101A740098C6175700001307A7CF18439306900D75
:101A8400014634CB1377F51FE84FF576FD16137531
:101A940005E0598DE8CF9843758F98C3A2458147D7
:101AA40003A70800032803009376F60F231C0704FA
:101AB400231007060325C80275992326A8020328C4
:101AC40007001375F607137808F83365A80008C3F0
:101AD40048533365E50148D303558705E3FEAFFE5C
:101AE40048533375C50148D3035707062808329570
:101AF4001377F70F2300E50019EF13D736002E975D
:101B0400034507009D8AB396D2008507C98E93F7D3
:101B1400F70F2300D7000506E314D6F985461148CC
:101B24008548130380026363F8040146814728084B
:101B34003295034505001377F60F63E1A6021355AA
:101B440037002E95034E05001D8B3397E80085075B
:101B54003367C70193F7F70F2300E5000506E31881
:101B640066FC850693F6F60FE39F06FBB6406161BB
:101B74008280175700001307E7BB8346B7019757C6
:101B8400000083C7F7BFB69793F7F70FFD4663EAE4
:101B9400F6044C4B97560000A38EF6B897570000F6
:101BA40083C757B905473317F70097560000A38931
:101BB400F6BC6D8F1DEF9756000083C6B6BCB3F616
:101BC400D70213050002814733D6F500058A13F8BE
:101BD400F70F09CE6399E60097570000A38C07B569
:101BE400828081177DB705071377F70F8507E39D7B
:101BF400A7FC8280975700009387879D9C4301111F
:101C040022CC4EC606CE26CA4AC852C456C28297B1
:101C140097570000938707B6804781496305A40658
:101C2400BE849757000093876796038747013E89D0
:101C340063550706018D135455009757000083C759
:101C440007B19379F501636DF402370AC0A8B70AA6
:101C5400405705379C449756000083C646AF1397F8
:101C640056003E9783074901158C63C507006363DB
:101C7400470156979757000023A2E7B0E37BD4FCB3
:101C84001604B3693401F24062444E85D244424999
:101C9400B249224A924A05618280E37D85F8B707FA
:101CA400C0A833848740229579B79757000093875B
:101CB40027929C43411122C406C626C28297975795
:101CC4000000938727AB80476309A406BE84975717
:101CD40000009387A78B8387470163D80704018D8E
:101CE400135455009757000083C767A66367F4042D
:101CF400493598449757000083C767A593965700C2
:101D040036971D8C9756000023AAE6A6E372F4FECC
:101D14002244B2409244175500000345B5A18145C1
:101D24004101178301E06700036CE37A85FAB70782
:101D3400C0A833848740229565B7B24022449244B8
:101D440041018280975700009387C7A49843B757EF
:101D540002009387079F832607091396560063584A
:101D64000600832607091396660063440600FD17E0
:101D7400FDF3828021670507AA876397E50003C7FF
:101D8400019B014565E382800145E5C3F9CD8D07DB
:101D9400C207C183F19BC207C18313074003636F6A
:101DA400F702175700001307A7A4084317570000AA
:101DB400130787A314436398A60217470000130769
:101DC400E77C185B014555C34111C20706C60545AA
:101DD400DD8D0297B2400145410182801757000012
:101DE4001307C7A0D9B7035765003DEB0357450058
:101DF4006368F706B306F740214617580000130836
:101E0400689F637AD6028328050003260800938618
:101E140087001D8FAA9661172392E60023A016015E
:101E24002393060014C1130786FF2312F500975667
:101E3400000023A1E69C21672313B50005076397DF
:101E4400E50003C7019B7D172388E19A83250800D9
:101E54002105B387F54017570000232DF79882809A
:101E6400084191BF014585F7828082800DC1975753
:101E740000009387E79703A3070097570000938711
:101E8400A79683A8070001479A8763E31701828016
:101E940003A807006369F50A6367A80A93868700A5
:101EA400E367D5FE03D66700A16685066317D600EF
:101EB40083C6019B85062388D19A97550000938594
:101EC4006593944103D6470023930700B2961755B0
:101ED40000002321D592638A670217550000130579
:101EE400E59008416303F5020355670019ED835734
:101EF400470023200701A1063E96210697570000BC
:101F040023AAD78E2312C700BA879843E30117F98F
:101F1400975600009386868D9442E30AD7F683563B
:101F24006700B5F683D64700035647001843A10659
:101F3400B29698C32392D7009C41A107175700007B
:101F4400232AF78A82803E87C28781B70111975777
:101F540000009387278B22CC03A4470B26CA4AC8C8
:101F64004EC606CEAA8413092500854915C083C729
:101F7400140003473400858B6304F700405CFDB70D
:101F84001946930544004A85EFE05F8EE31835FF58
:101F94002285F2406244D2444249B24905618280BA
:101FA4004111975700009387E78522C403A4470B88
:101FB40026C24AC006C693042500054901E82285C5
:101FC400B24022449244024941018280A68513050D
:101FD400A402970002E0E78060C4E30225FF405CAE
:101FE400F1BF4111975700009387C78122C403A40E
:101FF400470B26C24AC006C693042500054901E8DA
:102004002285B24022449244024941018280A6853D
:102014001305A401970002E0E78040C0E30225FF16
:10202400405CF1BF0111974700009387A77D22CC44
:1020340003A4470B26CA4AC806CE2AC42EC6B284B5
:10204400054919E001453DA0034791008347340049
:102054006318F7021946930544001305A100EFE045
:10206400FF80631F2501A6851305A402970002E0E3
:10207400E780C0BAF2406244D2444249056182809A
:04208400405CC1B744
:1020880097110020938101D817610020130101F7EF
:102098001305400097E5FF1F938545F617060020B6
:1020A800130606FE63FAC5008322050023A0550027
:1020B80011059105E3EAC5FE173502001305053B36
:1020C800970500209385C5FB1386818A63FAC500AE
:1020D8008322050023A0550011059105E3EAC5FEFA
:1020E8001385818A97550020938585806377B5008D
:1020F800232005001105E36DB5FEFD42739002BC77
:102108008D42739042809302800873A0023097E258
:10211800FF1F9382A2EE93E23200739052309742EF
:1021280000009382E2FE73901234730020303D4326
:102138002A876373C3029377F700BDEFADE5937603
:1021480006FF3D8ABA960CC34CC30CC74CC741075F
:10215800E36BD7FE11E28280B306C3408A0697027A
:10216800000096966780A6002307B700A306B7006D
:102178002306B700A305B7002305B700A304B700DB
:102188002304B700A303B7002303B700A302B700D3
:102198002302B700A301B7002301B700A300B700CB
:1021A8002300B700828093F5F50F93968500D58DAF
:1021B80093960501D58D61B7939627009702000085
:1021C80096968682E78086FA9680C1171D8F3E967E
:1021D800E374C3F8A5B7B717004003C777051A0516
:1021E80092054D8D1377E70F13653500A38BE70430
:1021F8001375F50FA38CA7048280B717004003C797
:1022080077051377E70FA38BE704130700F8A38D6F
:10221800E7043D47238CE70413075003A38CE70426
:102228008280B7160040130670052380C604930702
:1022380080FA2380F6040100010003C7F602136741
:102248008700A387E60203C7F6021377770FA387F1
:10225800E60203C7E6021377C70F2387E60203C720
:10226800E602136717002387E6022380C60423804B
:10227800F6040100010003C736057D78930E481F58
:102288001377870FA389E60403C73605371600407E
:10229800116E13671700A389E6042380F60483C729
:1022A80036051167130F400893E70702A389F60460
:1022B80083D706051308281B930F3004D98F11679D
:1022C8002398F6047D1791478942130370059308F4
:1022D80080FA83463605A18AEDDE835606058346D5
:1022E8003605A18AEDFE83560605B3E6C601231816
:1022F800D60483463605A18AEDDE83550605834656
:102308002605F98DB306D702B695B386D501637154
:10231800DF04FD1793F7F70F85CFC2959396150045
:10232800B3C6F6036352B0028506858623006604A9
:1023380023001605010001008355C602AE96C206A9
:10234800C1822316D60271B7FD16B3C65602F9BF6D
:10235800B716004083C7360513873605A18BFDDB0A
:1023680083D7060583D706051166D18F2398F6040F
:10237800930770052380F604930780FA2380F604F8
:10238800010001008347070093F7870F2300F70038
:1023980083470700C98F93F7F70F2300F700371714
:1023A800004083473705A18BEDFFB717004003C7EF
:1023B8003705218B6DDF83D6070583C7270511668F
:1023C8007D16F18E3306F60285659307C0031387E1
:1023D80005C83696938605FAB396A600B386F60224
:1023E800A1679385559CB3C6F6029307803EB386D2
:1023F800F602B357A740B306D640B387D702B3C790
:10240800B7026351D0048507094793067005B3C71F
:10241800E702371700402300D704930680FA230009
:10242800D7049607010001008356C702B697C20772
:10243800C1832316F7028347370593F7F70DA309DE
:10244800F7048280FD17C9B741112A83014E930E04
:10245800407E130F0019930F400663E46E0E930835
:10246800001913034006B3781503854E0D4FA14F8D
:10247800337365020D891335150063EEBE0E13081C
:10248800F6FF794672984208135808013307C702C5
:1024980013D61700BE0732976146B3F6C602130675
:1024A8008070B386C6023697A166F58F42075D8FA6
:1024B800B716004083C7F60293F70708A307F10091
:1024C8000346F10083C7F60293F70708E394C7FEB3
:1024D8008347F100B716004093F7F70FFDC7B7170A
:1024E8000040930670052380D704930680FA238062
:1024F800D7040100010023AA070383C61703116646
:102508007D1693E60608A388D702D45BC85F938537
:102518004703A98EF18EF5FA930670052380D70438
:10252800930680FA2380D7040100010098C103C7ED
:10253800170313670704A388E702238007044101F0
:1025480082807D133368E3039308E016630E080066
:102558003368F3039308D0166308080093783300B0
:1025680093B818009388D81633081E01131E080163
:10257800135E0E01DDB56393E50305486386080025
:102588000148630303002A8871087298FD15131E19
:102598000801C205135E0E01C181C5B513F8150007
:1025A80063F4BF007908D5B713381800E5BF83C7AF
:1025B800F60293F70708A307F1000346F10083C763
:1025C800F60293F70708E394C7FE8347F10093F7F1
:1025D800F70FF1DF29B7914763EEB702172702001B
:1025E800130787988A05BA959C41BA978287B717C7
:1025F800004003A7470B1345F5FF698F23AAE70A95
:1026080003A7070B698F23A8E70A03A7070A798D91
:1026180023A0A70A8280B717004083A6470B134759
:10262800F5FFF98E23AAD70A83A6070B558D23A891
:10263800A70A83A6070A758F23A0E70A8280B7171F
:10264800004003A7470B498F23AAE70A03A7070BF4
:102658001345F5FF45BFB717004083A6470B13473F
:10266800F5FF758F23AAE70A03A7070A598D4DB707
:10267800B717004003A7470B498FEDB7914763EEA3
:10268800B702172702001307678F8A05BA959C417E
:10269800BA978287B717004003A7470D1345F5FF80
:1026A800698F23AAE70C03A7070D698F23A8E70CF6
:1026B80003A7070C798D23A0A70C8280B7170040C9
:1026C80083A6470D1347F5FFF98E23AAD70C83A6D7
:1026D800070D558D23A8A70C83A6070C758F23A07B
:1026E800E70C8280B717004003A7470D498F23AA3C
:1026F800E70C03A7070D1345F5FF45BFB7170040C3
:1027080083A6470D1347F5FF758F23AAE70C03A788
:10271800070C598D4DB7B717004003A7470D498FD0
:10272800EDB79357E50093F70730C98FC207054700
:10273800C1836382E5048DC10947638DE5040D47B4
:102748006380E50637170040231FF70883562709DB
:10275800D58F2319F7088280371700400356670979
:1027680093C6F7FFF18E231BD7088326C70C558D18
:102778002326A70CC1BF371700400356670993C625
:10278800F7FFF18E231BD7088326870C558D23244A
:10279800A70C4DBF3717004083566709DD8EE1B798
:1027A8003717004083566709DD8EE9BFB717004029
:1027B80003D7870109C5D98D239CB700828093C5AB
:1027C800F5FFF98DD5BFB717004003D5870042053F
:1027D80041819377050491EB9377F5013755E8012B
:1027E800130505803345F50282809377050C13079E
:1027F80000046397E7009377F50137459C1CCDB734
:102808002165130505D08280B7F700E08847CC47DB
:102818008280814737470040A14663C4C70032859C
:1028280082800345B7C0E38EA6FE3385F5000345D5
:10283800050085072304A7C0CDB712059A054D8D5D
:102848001365C5001375F50FB72700402380A7400F
:102858008280B727004001E5A38007408280239C3F
:10286800B740239EC740154791E20547A380E7403C
:102878008280411122C406C62A84B1372947B3078A
:10288800E502B2408D83B3D7870222449507B3D7B8
:10289800E70237470040C207C1832316F7C041014A
:1028A8008280716541111305052006C6D937B747DF
:1028B8000040130770F82381E7C00D47A381E7C0E4
:1028C80013070004A380E7C005472387E7C0B24089
:1028D80041018280B7870040238007001307C0FCAE
:1028E8002386E700A386E700172700200357C710B1
:1028F8002398E7001727002003574710239AE7007B
:10290800172700200357C70E239CE700172700202E
:102918000357470E239EE70089462381D70249477C
:102928002383E7022385E7022387E7022389D70267
:10293800A3810700130790022380E700B716004021
:1029480003D7A6011367070C239DE6007D57238351
:10295800E700130710F8A380E7001D472381E7006D
:102968008280B78700402382A70203C767021377D4
:10297800C70F2383E7028280B78700402384A7021A
:1029880003C7A7021377C70F2385E7028280B7879B
:1029980000402386A70203C7E7021377C70F2387E0
:1029A800E7028280B78700402388A70203C727036E
:1029B8001377C70F2389E70282809387418B9C4353
:1029C800011106CE22CC91C382979387818F8043D1
:1029D8009387818B9C4313150401418181C72AC6C3
:1029E800829732459707002083D7E7C16379F504BA
:1029F80003D741806378A7049386018B03A306005D
:102A0800630603006244F240056102838507998FDB
:102A1800139507014181935725001315040141813E
:102A28006544198D330585021384F7FF22953345D4
:102A3800F5021375F50FF2406244056182801305B3
:102A48004006D5BF0145C5BF03A84500411126C2B0
:102A580006C622C48347180003480800A944A207F1
:102A6800B3E70701C2070D68C1871308289063966A
:102A7800070385473284EF80A050AA8419ED938715
:102A8800C18A9C4399CB03451400034704002205DF
:102A9800598D1335150005058297B24022442685C5
:102AA8009244410182802D452DEFD841411122C425
:102AB80026C206C68347170003470700B684A20745
:102AC800D98F0D67930697A13284639CD702F53599
:102AD8009707002083C707B36376F50097070020A0
:102AE8002382A7B285472390F4009707002083C765
:102AF80067B12300F4000145B240224492444101E9
:102B08008280130787902945E398E7FECC458947DB
:102B18002390F4000946228597E0FF1FE78040D103
:102B2800D9BF828083474500858BBDC7011122CC60
:102B38002A84035525009385C1A206CEEF80003F65
:102B4800058939C503552400014781460546ED45E9
:102B5800EF7010792AC60DCD97F7FF1F938747525C
:102B680083D7A70201462C002314F10085472315BB
:102B7800F1009707002083C7E7A82300F500035555
:102B88002400EF90C01809C5ED452800EF80000D1E
:102B9800F2406244056182808280416541119385DB
:102BA800C1A27D1506C6EFA02006B24097F6FF1F0A
:102BB800938606524146954517F5FF1F1305454C68
:102BC80041016F90907923A6A18A8280411122C485
:102BD80006C6854709446313F50283470600014486
:102BE8002384F18A170700200347C7A16378F700F9
:102BF80017050000130545F3EFC0A0302285B24049
:102C080022444101828085476303F50209C90947C7
:102C18006304E5020D476308E502094582809707CA
:102C2800002083C7279E2380F50001458280938773
:102C3800818A83C70700C5BF97F7FF1F83D7E7447B
:102C48002390F500DDB7138781800357070023928F
:102C5800E50017F7FF1F1307A7428356A70203577C
:102C6800A7032383F5002390D5002391E50075BFC2
:102C7800411106C699339707002083C7A798637C3C
:102C8800F50097070020238FA79617050000130566
:102C9800A5E9EFC00027B2400145410182804167A4
:102CA8007917630CE502411122C406C685472A84B8
:102CB800639AF50022852244B2409385C1A241015E
:102CC8006F90907489476396F5008545EFC0E01DC5
:102CD80075D1B2402244410182808280CC414111A9
:102CE80006C6328503C6150083C5050022064D8E2B
:102CF80042068D654186138875A2630C060F6348EA
:102D0800C804138845A26306060B634AC800938566
:102D180035A26309B60623900600294679A01388D0
:102D280055A26308060B938565A2E316B6FEC14556
:102D38001D4663ECE5064546198E63F3C7003E86DB
:102D48002390C600971502009385852589A81388C6
:102D580095A26300060F634E060B1388A5A2630AAB
:102D6800060F938505A5E318B6FA99451D4663EE47
:102D7800E502198E63F3C7003E862390C60093854B
:102D8800018131A89D451D4663E1E5022146198E62
:102D980063F3C7003E862390C6009385C18BBA951E
:102DA80097E0FF1FE780C0A80146B2403285410185
:102DB8008280AD451D46E3EAE5FE3146198E63F390
:102DC800C7003E862390C60097150200938505210B
:102DD800F9B7B1451D46E3EAE5FC3546198E63F3BC
:102DE800C7003E862390C6009715020093850520EC
:102DF8007DB7C1451D46E3EAE5FA4546198E63F3FA
:102E0800C7003E862390C600971502009385851A51
:102E180079B7C1451D46E3EAE5F84546198E63F3DF
:102E2800C7003E862390C600971502009385051DAE
:102E3800BDB7C1451D46E3EAE5F64546198E63F37D
:102E4800C7003E862390C600971502009385C517D4
:102E5800B9B7B5451D46E3EAE5F43946198E63F37B
:102E6800C7003E862390C600971502009385451239
:102E78003DB797F6FF1F938666394146CD4517F54E
:102E8800FF1F1305A5256F90504D82809387818D74
:102E98009C4303C7C18C83C6B18201E781473E8545
:102EA800828003D607006316A60003C66700E308FE
:102EB800D6FE7D171377F70FA107C5B7B2862E8602
:102EC800AA8517150200130525186FF0616B01110B
:102ED800930500030D4506CEEF50801493050005B9
:102EE8001145EF50E0139305C0030545EF5040131B
:102EF80085471306F100854513055030A307F100F7
:102F0800EFB0014CF240056182808547631CF500F3
:102F18001166130686A9894517250020034545AE85
:102F28006F30807589476319F5008945172500209A
:102F3800034505AD6F30901C828085476398F50086
:102F480019E22383B18C238EC18C8280094763994F
:102F5800E50019E62383F18C03D5418C6F00F00A54
:102F680082809387018D9C43011122CC06CE2E844A
:102F780081CB9C4791C78297F24062440561828069
:102F88006C0013057040EF907154324681452285DC
:102F9800EFA0816DD5B701119397050126CA06CE1A
:102FA80022CC4AC84EC652C4C187AE8463D907082A
:102FB800172500200345C5A4EF3040262A8439C9C7
:102FC800034705009307000D6313F70483472500A3
:102FD8004547638BE7046547639BE70217150200C3
:102FE80013050503EFF0C159130954009309B40000
:102FF800171A0200130A0A038345090052850509B6
:10300800EFF00158E39A29FF2945EFF0615B22852B
:10301800EF30201A2165258DF2406244D24442499E
:10302800B249224A056182800346650083457500DE
:1030380017150200130585FFEFF08154C9BF93F7F8
:10304800150085C317F6FF1F1306061D9385C1815A
:10305800172500200345C59AEFB0210813C51400B1
:1030680065BF93F725000145C5DB193111661306C5
:1030780086A989451725002003458598EF30C05F4C
:1030880013C5240051BF797126D24ECE06D622D45C
:103098004AD052CC9147AA84AE896314F50483D7E9
:1030A800A5001306E1008545130550302392F18CE5
:1030B800230701002383018CEFB081309387018DB2
:1030C8009C4391C7DC4781C7CE8526858297B2503D
:1030D800225423A4918C02599254F249624A4561C0
:1030E80082801387818C1843E31AF7FC854503D542
:1030F800418C7536854503D5418CEF00C076C16794
:1031080003DA418CF917631BFA0205449305E100C1
:10311800130550412383018CA38581822307010075
:10312800EF90D13A8347E100B1E303C7C18D9147DE
:10313800E316F7F8693B238E018C49B79387818D95
:1031480003A9070003C4C18C69D00355290011C91C
:103158009305E100EF80204409C54C455285EF9066
:10316800B02A7D141374F40F2109F9BF9387418D98
:103178009C4383C74700898BCDDB9305000A0D4527
:10318800EF40106A9305000A1145EF4070698145C8
:103198000545EF40F0681306E100854513055030FA
:1031A80023078100EFB0C12149B7011117050000BD
:1031B8001305A5DE06CE22CCEF30500F17240020D1
:1031C8001304048485471306F10085452300A400F1
:1031D80013054041A307F100EF9051567D55EF705C
:1031E80080597D55EF90301F6931453AF523170511
:1031F80000001305C5D1C13A17050000130525C9FC
:103208001125034504008545EF30C03FF240624474
:103218000561828023A8B18C23AAA18C828023AC6B
:10322800B18C2386A18C82809387818C9C43797191
:1032380006D622D426D24AD04ECE52CC1147639B12
:10324800E70483C7618C414481CF9387818D804394
:10325800B284B68983C7C18C03C7B18299EB554440
:103268002285B250225492540259F249624A456169
:10327800828083464400639AA6008346540063967E
:10328800B600834664006380E606FD1793F7F70FE0
:103298002104E9B709474144E384E7FC2C001305FE
:1032A800504123040100EF907122834781008DCBA8
:1032B800930500020D45EF40B056930500031145F4
:1032C800EF40105695450545EF409055854730002D
:1032D8008545130550302304F100EFB0610E49B75E
:1032E800FD364144B5BF0355240093056100EF80C6
:1032F800802A35D54C4503D5418CEF70304305897C
:1033080039DD1399040113590901014781464A8699
:10331800ED4503D5418C035A0400EF70607C2AC642
:103328004D441DDD2686CE85231441012315210138
:1033380097D0FF1FE780C04F01462C0003D5418C72
:10334800EF80F01C2A84E30D05F0ED452800EF70AE
:10335800F01039B7C841011122CC06CE3284034699
:103368001500034505002206498E19CB0D68130880
:10337800B8A42D4563090607F240624405618280BE
:103388000D651308D5A463000603130825A2630C72
:10339800060175781308E85C32984208135808014A
:1033A800854863EE080303D5A50036C632C4F93C48
:1033B800B24615C19387018D9C432246834555002B
:1033C80003A30700A2876244F240034545003687FD
:1033D80085460561028323900600014571BF1308E5
:1033E800B5A46317060303D621831D45E376C7F802
:1033F800198E63D3C7003E86CC452390C60042068B
:103408004182BA95228597D0FF1FE7806042F1B7C5
:103418009307A5A46318F60091472390F600114678
:10342800CC45CDB7930785906317F600894723905D
:10343800F6000946F5B79307E5A4631AF600DC45DC
:103448002390160183C707002300F40079B71305FA
:103458007590E314A6F8D9BF011122CC06CE26CA6E
:103468004AC82317D1002D4429EBDC412E89B284A8
:1034780003C4170083C7070022045D8C8D679386F9
:10348800D7A46306D400938627A3631FD4020355E9
:10349800A900ED3A19E101440DA09387018D9C43E1
:1034A800834555000345450003A807002286A687E3
:1034B8001307E100814602982A842285F24062447B
:1034C800D2444249056182809386C7A46314D4021A
:1034D8008357E10005473544E391E7FE03450600BD
:1034E80013040008E3EBA7FC9387018D9C43DC439E
:1034F800829755B793862790631AD4028356E100C2
:103508008547EF70F0272A844DF99387818D83567C
:10351800A9009C4303C7C18C3DDF03D62700630283
:10352800D6047D171377F70FA107FDB79387E7A494
:10353800E313F4F68357E10005473544E39FE7F6C4
:103548000345060013040008E3E9A7F6DC452380D9
:10355800A7009387018D9C433335A0000905DC4300
:1035680041BF1387018D184303C5470083C5570022
:1035780083C714000328070003C70400A20789466D
:10358800D98FC207C18705476383E7008D460D665B
:10359800A6871307E10013062690029839BF411148
:1035A80022C441641305F4FF9385C1A506C626C24B
:1035B8004AC0EF9060651305F4FF9385C1A4EF90AE
:1035C800A0641305F4FF9385C1A397F4FF1F9384A8
:1035D80064C5EF90606397F6FF1F9386A6E24146A5
:1035E800F9452685EF906057CC4C2A890945EFF0BC
:1035F8008FE11387C183938741848345070003467E
:10360800170083D7070003D7A4101384C1A6231279
:10361800F4002314E40083D7A40C03D7A411A30651
:10362800C400A30EC40003D6A4172310F400231566
:10363800E40083D7A40D138701848346070003D5CC
:10364800A41403471700231CC40003D6A41823118D
:10365800F40085472303F4002307F400230AD40069
:10366800230BF400231DC4002302D4022306B40054
:10367800A30AE4002318A400230EB40023190400AD
:10368800230F0400A302E40203D7A41A2307F402B9
:10369800231104022310E4021387818303570700D0
:1036A80023030402231504022316E40203D7A41CEF
:1036B8009385C1A90D452314E402EFF0CFD4A28568
:1036C8002145B13EB24022444A8592440249410113
:1036D80082808D67138527A36301A6049387D7A4E7
:1036E8000145631EF6008947639CF500854735450B
:1036F8006397F600834707002381F18E0145828096
:103708008D472945E39DF5FE85473545E399F6FE46
:10371800834707002380F18ED5B785473545E39069
:10372800F6FE83470700A38FF18CC9BF8D67138509
:1037380027A36308A6029387D7A46317F6028947CD
:10374800639BF50083C7218E2300F70085472390EC
:10375800F600014582808D476398F50083C7018E86
:10376800E5B783C7F18DCDB723900600DDB70145D6
:10377800828025E303A84500AE88834718000348E4
:103788000800A207B3E707010D68930EF8A4639A2F
:10379800D70391473548639FF60203A5C800411136
:1037A800B285114606C697D0FF1FE7806008938749
:1037B800018F9C4305458297B240014842854101EB
:1037C80082809308289029486396170185476F706F
:1037D800207B2D4842858280416541119385C1AA8D
:1037E8007D1506C6EF904042B24097F6FF1F9386BC
:1037F80026C84146994517F5FF1F130565C14101C4
:103808006F90A03523A8A18E828001119385C1AA4B
:1038180022CC06CE2A84EF706071058929C1014740
:1038280081460546ED452285EF70802B2AC605C9DD
:1038380097F7FF1F9387C7BD83D7A70501462C00BD
:103848002314F10085472315F10023000500228584
:10385800EF80E04B09C5ED452800EF702040F240AD
:1038680062440561828041677917630CE502411162
:1038780022C406C685472A84639AF5002285224415
:10388800B2409385C1AA41016F9000388947639679
:10389800F5008545EFB0606175D1B2402244410121
:1038A8008280828005679307E7C063F8A7029306C2
:1038B80047CC854763F1A602930697D7894763FCEF
:1038C800A6009306F7E28D4763F7A600930747EE35
:1038D800B3B7A70091073E8582808147EDBFB71730
:1038E8000040171700201307C7112394E70617177E
:1038F8000020130747122396E706130710FCA3803E
:10390800E7068280411181451305001006C6EFE0E5
:103918009FCC89450145EFE01F8CB7170040314720
:10392800238CE7040547238DE704A3810706453F59
:10393800B24003C5418613060064A14541016F20CA
:10394800B053171700201307C70B9716002093864C
:10395800860C8147035607000907B297E31CD7FE78
:103968001387818F184323AAE18E2947B3D7E7022B
:1039780023ACF18E82809387818F944301114AC8CA
:10398800368506CE22CC26CA36C6293F9387418F74
:103998002A898843013F63072505B24617060200B6
:1039A8001306067481450145EF10404517170200BC
:1039B800130707A791461306000881451305C0059C
:1039C800EF10803D854513050006EF10002A0144DD
:1039D80063102403894513050006EF1000290144EC
:1039E800631A2403F2406244D2444249056182804A
:1039F8009144FD1485451305D00F93F4F40FEF108F
:103A08002024E5F8854505450504EF106023137467
:103A1800F40F7DBF9144FD1485451305F00B93F415
:103A2800F40FEF10E021E5F88545130500080504BB
:103A3800EF1000211374F40F65B782803D897D155E
:103A4800954763E4A716170702001307A7690A0535
:103A58003A951C41011106CE22CCBA9782872C00D8
:103A680013054030EFA0D1032C000545EF60601F1F
:103A7800170502001305856BEFE0D14411A803C7B1
:103A880025008D47170502001305456BE306F7FE71
:103A9800F24062440561828003C725009547E31917
:103AA800F7FE83D7A50003C5D18F13845500239C47
:103AB800F1841DED1946A285171500201305C5F5DB
:103AC80097D0FF1FE780C0D60D66130606209145E4
:103AD80003C5A185EF20503A13060064A14503C52C
:103AE800A185EF207039170502001305256669B70F
:103AF80099473305F502971700209387E7F1194690
:103B0800A2853E9597D0FF1FE78000D68547E3033F
:103B1800F5FA1306401FC14503C5A185EF20D0352E
:103B2800170502001305456381BF03C725008D47AC
:103B3800E310F7F6170502001305456335BF83C781
:103B480025001147170502001305C5636383E704C1
:103B580019476399E70283C5650017050200130535
:103B68002564238E018EEFE0B121F957239CF1845F
:103B7800854730008545130550302304F100EFA038
:103B8800310439B71547E395E7FE17050200130519
:103B9800E562EFE03133E9BF83C525001705020070
:103BA80013054563EFE0D11DE5B5828001112305BA
:103BB800A100340021468545094506CE231401009D
:103BC800A305010002C6EFF02FE6F24005618280EE
:103BD800011106CE22CCBA883E8785EE32830D6667
:103BE8001306D6A42A8E2E8883C608006319C3003C
:103BF80089476396F500854735446397F6001A862A
:103C0800C2857285F9342A842285F24062440561AE
:103C18008280054863950601C686093EEDB7894747
:103C28000144E393F6FE1306F10085451305503071
:103C3800238E018FA3070100EFA08178F1B701114E
:103C48009397050122CC06CEC1872E8463DC07003A
:103C580003C5A185EF20805C19C1EF20805521653F
:103C6800218D35A093F7150013C515008DE393F743
:103C7800450095C383C7A1851307401F8146214688
:103C8800A14503D58185EFA0A13E13454400F2402C
:103C980062440561828093F785009DC30147894688
:103CA8000946814503D58185EFA0D11FAA8517054F
:103CB80002001305A544EFE0B10C13458400C1BF11
:103CC80093F7050199CFC16703D58185F917630774
:103CD800F500EFA0F11AF957239CF184134504016C
:103CE8007DB793F72500B9C703C5B185C13583C72B
:103CF800B185850793F7F70F7147636BF7020145A5
:103D0800A38DF1846535B7070200938707207400F7
:103D18001146854505453EC6EFF00FD11306007DD7
:103D2800894503C5A185EF2030151345240085B7C3
:103D38009147F1B79397350163DB0700938681922A
:103D4800114685450545EFF02FCE056511BF9397C0
:103D580025010145E3DD07F2938601922146854559
:103D68000945EFF06FCC0965E5BD011117050000A5
:103D7800130525ED06CE22CC26CAEF2030539384B6
:103D8800A18505442380A4007000854513055030A3
:103D980023068100EFA0C162138681849D45130527
:103DA8006030EFA0E16117E6FF1F1306266ED545C8
:103DB80013057030EFA0C1601706020013068635A0
:103DC800D5450145EF60500DB7170300938767622B
:103DD80070009145130570403EC623048100A3047A
:103DE8008100A305810023050100EF902115300013
:103DF800854513050040EF90611413069100854531
:103E080013051040EF9081131306A1008545130593
:103E18002040EF90A1121306B100854513055040CC
:103E2800EF90C111A9477000854505452306F100AB
:103E3800EFE0DFD9EFF0AFF697E5FF1F9385056454
:103E480013850185EFF00FBD8565930640021716AF
:103E580000201306C6BC938505802D4597C0FF1F1B
:103E6800E780605103C504008545EF20A079F24042
:103E78006244D2440561828099473305F50297155B
:103E88000020938565B94111194606C62E9597D02D
:103E9800FF1FE780E099856593064002171600200A
:103EA8001306E6B793850580294597C0FF1FE7806D
:103EB800804CB2401375F50F410182804111930681
:103EC800400517160020130626BD81452D4506C658
:103ED80097C0FF1FE780204AB24093064005171697
:103EE8000020130626B6930500402D45410117C34F
:103EF800FF1F67004348411193064005171600202D
:103F0800130686B98145294506C622C497C0FF1FF6
:103F1800E78060461374F50F9306400517160020D6
:103F2800130646B293050040294597C0FF1FE78056
:103F38008044418DB24022441375F50F41018280BF
:103F4800411113064005970502009385253B171577
:103F58000020130565B406C6EFE021571306400597
:103F6800970502009385852B17150020130585AD4D
:103F7800EFE0A155B2404101BDBF971700209387DC
:103F8800A7B1971600209386E6AB03C737056318D9
:103F9800B700A389A704FD17E399D7FEA9BFE31CBF
:103FA800A7FEA389B704C5BF83C7619063810716BD
:103FB80003C73192631D07148546238BD19083C7AD
:103FC800219203C7419089EF19C30145828023825A
:103FD800D19083C7519093F7070FA382F190F5B75B
:103FE80089466310D70203C7519091466315D700DD
:103FF800A38BF190D9BFA146E319D7FCA38AF1900E
:10400800E9B71306000E6313C702138727FE137759
:10401800F70F15469306F00F6366E600938747FC93
:1040280093F6F70F2382D190894745BF19466398C5
:10403800C7002382D19083C75190B18B79BF930673
:1040480070026398D70081572382F190A382019070
:10405800ADBF930660026398D7009307100E6305FF
:10406800F70A8557D5B79306C0046399D700930715
:10407800000C630BF708930700FCF9B7F94663983F
:10408800D7009307200E6301F708895775BFFD46CF
:10409800639AD7009307300E6304F7008D576DB706
:1040A80091575DB79306A0036398D7009307000F55
:1040B800630CF704C15749BF9306B0036398D70050
:1040C8009307100F6302F704C557BDBF9306C003DB
:1040D8006398D7009307200F6308F702C957ADB755
:1040E8009306D0036398D7009307300F630EF70049
:1040F800CD5799BF9306E0036398D7009307400F05
:104108006304F700D15789B72382019081B703C7A9
:1041180061910545E31CA7EAE39A07EA4111238B5D
:10412800019006C683C741901307700E6369F704B0
:104138001307200E63F7E71209476388E70C6368E3
:10414800F700638AA708B24001454101828013073E
:10415800000C638AE70E1307100EE396E7FE1306BA
:10416800401FC14503C5A18523820190A38E018EFE
:10417800EF208050170602001306061251A01307FD
:10418800200F6388E714636BF7021307000F638F30
:10419800E7101307100FE398E7FA2386A190170694
:1041A80002001306A6118145014523820190EF0004
:1041B800F044972700009387679509AA1307400FD3
:1041C800638BE71463E8E7121307F00FE39DE7F644
:1041D800A38201907DA883C75190C10793F7F70F79
:1041E800130700056385E700A382F190A9BFA382A6
:1041F800019023820190A93317060200130646078F
:1042080081450145EF00903F3DBF83C7519091071D
:1042180093F7F70F3147E399E7FC03C7519183C63A
:104228007191170602001306E60581450145A38230
:10423800019023820190EF00703C83C5719103C502
:104248005191253B09B7170702001307E748914624
:10425800130600088145014523820190EF00D03301
:10426800DDB51385F70103C7519089471375F50F1D
:104278006314F702A3820190013183C641909386AB
:10428800F6F1170602001306E60181450145EF0025
:10429800F0362382019045BDA38EA18E1306401FE0
:1042A800C14503C5A185EF20203DE5B72386A19030
:1042B8001706020013060600814501452382019076
:1042C800EF00D033971700009387077E23A4F18669
:1042D8009DBD2386A190170602001306E6FE8145C0
:1042E800014523820190EF007031972700009387E2
:1042F8000791E9BF2386A19017060200130686FDE1
:104308008145014523820190EF00502F9727000037
:104318009387679965BF2386A19017060200130645
:1043280026FC8145014523820190EF00302D972717
:104338000000938707A459BF411106C622C426C2AC
:10434800EFF0DFB793840191FD5717070020A30B07
:10435800F7789C4037140040914593E7C70F23A88E
:10436800F1900327840CD98F2324F40C8840EFE0C4
:10437800EFB09C400327840C97060200938686E6DC
:1043880093F7F7F7D98F2324F40C138701901C4374
:1043980017060200130686E88C429106CD8FE39D2E
:1043A800C6FE23A0F190B716004003A6860A224451
:1043B800B240D18F23A4F60A9244084385454101AF
:1043C8006FE06FA103D7A1909307F7FF3971C20778
:1043D80006DE22DC26DA4AD84ED652D456D25AD035
:1043E8005ECE62CC66CA6AC86EC6C183F54663E80B
:1043F800F602F9476310F70297070020938787644E
:1044080017060200130686EE8145014523A0F186B2
:10441800EF00D01E83D7A19085072395F1901384D0
:10442800C1AB170B0200130BEBDB814A2289938B7C
:104438000186138C0192970C0020938CEC659D44A7
:104448009389C185194A338A4A0303C74191B7162C
:10445800004003260B0083A6460AF18EB3074401E9
:10446800BA9783C5070063900518C9E683A70B00B0
:1044780083C5C1853E9A3A9A63F8B40083460A0018
:104488009307F00D63F8D70699463386DA02854715
:10449800B306C900BA962380F600938781869443B1
:1044A8009727000093872780639BF60297060200F0
:1044B800938606EAB296BA9683C606009307F00F6B
:1044C800638FF6000D463386C6029386C1D9B2962D
:1044D8003D462381C600A380C6002380C6008546CA
:1044E800A383D19083470A001306F00F639FC70682
:1044F8002383D190850AB947110BE395FAF403C7D2
:1045080041919306170093F6F60F238AD1909707E7
:104518000200938727E90A07B71500403E9703A6CC
:10452800850C1843518F23A4E50C15476374D700F5
:10453800238A019083C641918A0637160040B697B0
:104548000327C60C9C43F2506254D98F2326F60CDD
:10455800D2544259B259225A925A025BF24B624CD7
:10456800D24C424DB24D216182809306F00E63F425
:10457800F602171702001307A7EA1443938707F1F7
:10458800054703C60600B317F700D18F2380F6004E
:104598002384E19085B79306F00D63FDF600054787
:1045A800938707F2B317F70003470C00D98F2380CE
:1045B800F19289B793871500238EF18483460A0008
:1045C800B307BC002380D7009947B387FA02E69760
:1045D8003E970347070093079003E31DF7F08547CD
:1045E8002395F19001BFE38706F0238007008547F4
:1045F800A383F19083A70B009306F00FD297BA9785
:1046080083C707006395D70023830190E5B5930618
:10461800F00E63F2F60217170200130767E014435F
:10462800938707F1054703C60600B317F70093C73A
:10463800F7FFF18FA1BF9306F00D63FDF600054764
:10464800938707F2B317F70003470C0093C7F7FFE8
:10465800F98FB1BFB3874C013E9703470700930713
:1046680090036313F70203D7A190F94763FCE700AF
:1046780017060200130606C88145014523A0918745
:10468800EF00C07723950190138D0192894D214742
:1046980083A70B0083C64191D297B69783C70700BB
:1046A80083462D00639DF6003386B44193053D0093
:1046B80013052D00EFD071612147A3830192850D69
:1046C800050DE397EDFC83C70900FD17238EF184E0
:1046D80015B511456FD0FFB4411193962500AA85F1
:1046E8002D4506C697C0FF1FE780E0C8B2400145C8
:1046F80041018280411122C426C24AC02A842E89DF
:10470800B284AA85930600200146254506C697C0AF
:10471800FF1FE78040C6931629002686A2852945F3
:1047280097C0FF1FE78020C5B24022449244024947
:10473800014541018280011122CC06CE3714004088
:1047480026CA4AC84EC652C483447405034AB405EF
:104758008349840503499405EFD03FAA8347A405FC
:1047680093F4F40F137AFA0F93E71700230DF40468
:1047780093F9F90F1379F90FB717004003C7A70585
:10478800058B6DFF03D5C705A38D4705238C37051A
:10479800A38C2705A38B9704F2406244D244424974
:1047A800B249224A0561828041119397050122C4CA
:1047B80006C6C1872E8463DA0700EF10302619C1B8
:1047C800EF10301F2165218D21A293F7150013C525
:1047D8001500639F070E93F7250013C525006399FD
:1047E800070E93F7850091CFEFF0AF95EFF0AF98F4
:1047F800EFF0EF8E13060064A14503C54186EF1064
:10480800B06793774400638B071083C7E1918DCF1E
:10481800238F019003C7D1918D476315F702A38EAB
:10482800019083C7A192B307F0402385F19203C793
:10483800C19285476312F70A0946894503C551861F
:10484800EF109063EF00700CB53E83C77190B9C745
:10485800A3830190EFF04FF501CD03C7C1928547BF
:104868006315F7080946914503C55186EF10D060D6
:1048780083C7819085C70D4681451385919223840E
:104888000190EF10D03C03C7C19285476318F70623
:104898000946894503C55186EF10105E83C7C1924A
:1048A80083C6819103C7C18F6383F606238CF19079
:1048B800BE8617060200130626B5814501453D2B25
:1048C8004146914503C54186EF10105B13454400EE
:1048D800B24022444101828003C7C18FE314F7F636
:1048E8000D46856503C5A185A1BF03C7C18FE31127
:1048F800F7F80D46896503C5A1858DBF03C7C18F2C
:10490800E31EF7F80D46856503C5A18571B783C712
:104918009191E387E7FAA38CE19061BF9377040153
:1049280095C303C7C19285476314F700EF10E0777A
:1049380013060006C14503C54186EF10F053134521
:10494800040179B79317240163D00702EF4081541B
:10495800493337F60200130606E0896503C5418628
:10496800EF109051096585B5931714010145E3D1FE
:1049780007F617050200130565AAEFD0B154130610
:104988000064916503C54186EF10104F116525BD80
:104998001D71494697050200938545A21705020037
:1049A8001305455C86CEA2CC97C0FF1FE780C0EBFD
:1049B80001E9170502001305A5A1EFD0B15001A028
:1049C800B7F600E0795798CAFD57DCCA0567B7E71C
:1049D80000E023A0E7101306F00290C223A0E71816
:1049E800010001001306C00381454808EF10302676
:1049F80097070020938787343ECA89679387078083
:104A0800231CF100ED47A301F10235449307501030
:104A180081460146814521452312F1022303810283
:104A280097C0FF1FE7802095A167938707E03ECED8
:104A380097070000938787CABEC49707000093872B
:104A4800A7CBBEC689472304F10297E7FFFF9387E8
:104A5800E7DB3EDAB7F50700970700009387E7CD55
:104A68003EDE8146970700009387E7C67000E105A0
:104A78001945BEC02308810297C0FF1FE780A08F99
:104A880058088147994670003E96034606008507F8
:104A98000507A30AC700E398D7FED24791C7035773
:104AA800810185676373F70001A04808EF20C00300
:104AB800AA8501C9170502001305C592EFD0512C2C
:104AC80001A0F640664425618280130101DE2D466F
:104AD80097F501009385C5282800232E1120232C43
:104AE8008120EFD0911E1306D01F81451305310197
:104AF800EFD0EFE317050000130545CBEF10107B4F
:104B0800138441862300A400EF0050098D26EFE0AE
:104B18007FDFEF00701585452800EF004079EFF042
:104B2800BF81EF00F0790345040037F60200130651
:104B380006E08965EF1050342800EFD0B138340012
:104B4800170602001306068C81450145452C832073
:104B5800C12103248121130101228280B71700405B
:104B680003A7870C1367071023A4E70C03A7870C78
:104B78001367072023A4E70C03A7C70C13670710C4
:104B880023A6E70C03A7C70C1367072023A6E70C87
:104B98008280B717004003A7C70C1367071023A626
:104BA800E70C03A7870C1367072023A4E70C03A7C8
:104BB800870C1367071023A4E70C8280371700407F
:104BC8008327C70C93E707202326F70C2147B7173D
:104BD800004093168501E18663DD060483A6870CF1
:104BE80093E6061023A4D70C03A6870C7D170605A9
:104BF8001366062023A4C70C03A6C70C1377F70F68
:104C08001375F50F1366062023A6C70C9386870C29
:104C18009385C70C5DFF83A7870C93E707109CC299
:104C28009C4293E707209CC29C4193E707209CC1C4
:104C3800828083A6C70C93E6061023A6D70C6DB70F
:104C480001112EC606CE22CC2A84093F13058007FF
:104C5800B537B245014599C113050004853722854A
:104C6800B13F6244F24005612DB7411122C42A8444
:104C7800138505FB1375F50F814506C6D137135506
:104C88004400814513650501653F1375E40022441E
:104C9800B24081451365150041015DB7411122C439
:104CA8004AC006C626C21304000B1309800B8145AF
:104CB8002285793781450145613781454145493725
:104CC8009304000885450145FD149D3FE5FC050456
:104CD8001374F40FE31D24FDB240224492440249A8
:104CE8004101828001119317850122CC011606CE5D
:104CF80026CA4AC84EC6E1871374F60F63D6070062
:104D0800890593F5F50F0145850593F5F50FB13F35
:104D180019463304C402814497F9010093894979FB
:104D28001949B3079400CE9703C507008545850444
:104D3800013FE39824FFF2406244D2444249B24919
:104D480005618280011122CC26CA4AC84EC652C4C7
:104D580006CE2A842E89B2898144130A8007B38734
:104D6800990003C6070009EAF2406244D244424966
:104D7800B249224A0561828022852104CA851374BA
:104D8800F40F8D3763768A0009091379F90F014406
:104D9800850493F4F40FE1B7011122CC26CA4AC85E
:104DA8004EC652C456C206CE5AC02A89AE84328A2A
:104DB800B689BA8A014463EC3401F2406244D244B1
:104DC8004249B249224A924A024B05618280A6852D
:104DD8004A85613D330B8940B3078B0093F7F70F82
:104DE80063E64701850493F4F40FF1B7B3878A00AB
:104DF80003C5070085450504A135F9BF5D7126D2B5
:104E08004AD0AA842E890808B2857018BAC0BEC2D2
:104E180006D636DEC2C4C6C632C622D402C802CA04
:104E280002CC02CEEFD0D10E2A848D3D1008CA855F
:104E38002685093F83C7A19125476376F7029385A5
:104E480011B513060024138501B1EFD001680C08D1
:104E5800138591D5EFD0D1072285B25022549254B0
:104E68000259616182808507238DF190F5B7B717E4
:104E7800004003A7870C411106C61367072023A427
:104E8800E70C03A7870C8D4513050020136707104F
:104E980023A4E70CEFD08FFE8D4513050010EFD04B
:104EA800EFFD1305800C97B0FF1FE780603B81453D
:104EB8001305E00A71338145130500045133814518
:104EC8001305000BB53B81451305800C953B8145C7
:104ED80013051008B53381451305F00F9533814547
:104EE8001305100AB13B81451305600A913B8145C2
:104EF8001305800AB13381457D45993381451305F2
:104F0800300D3D3B81450145253B81451305500D3D
:104F1800053B81451305000F253381451305900D89
:104F28000533814513052002213B81451305A00D5A
:104F3800013B81450945293381451305B00D0933E6
:104F4800814513059004ED3981451305D008CD3905
:104F580081455145F53181451305F00AD5313D3B71
:104F6800B24081450145410109B3411122C4616440
:104F780026C206C61304146AB714004083A7440C5B
:104F880013972701635807000145B2402244924411
:104F9800410182807D1405456DD897B0FF1FE780D9
:104FA800402BE9BF0DC5D1B77D14054501CC97B09D
:104FB800FF1FE780002A83A7440C13972701E345C6
:104FC80007FE0145B24022449244410182804111CA
:104FD80022C4616426C206C61304146AB7140040CA
:104FE800D9BF011122CC371400408327840C4AC84A
:104FF800096906CE26CA4EC6B3E7270152C4232440
:10500800F40C8326840C85648D45C58E2324D40C2A
:10501800AA890965EFD08FE68D450565EFD00FE6C3
:105028000327C40C13058007336727012326E40CE4
:1050380097B0FF1FE780E0218327C40C2945C58F5F
:105048002326F40C97B0FF1FE780A020096585454B
:10505800EFD0CFE20145B93711C90545F2406244A6
:10506800D2444249B249224A056182802149014419
:10507800B7140040056A93F71900B5CB83A7840CD1
:105088000504B3E7470123A4F40C93D91900F13DB3
:1050980069F5093F79F17D19E31F09FC0588371780
:1050A800004029CC8327C70C8566D58F2326F70CAB
:1050B8006D3D45F5C53D55F1371400408327840CF7
:1050C8000567D98F2324F40C4D3541F905658545CD
:1050D800EFD0CFDA0145F93549F18327440C13970E
:1050E8003701E34C07F651353335A00085BF83A758
:1050F800C40CB3E7470123A6F40C41BF8327870CF0
:105108008566D58F2324F70C65B7371700408327AA
:10511800870C89668545D58F2324F70C09656FD0E0
:10512800EFD5411122C4371400400327840C26C24E
:10513800896406C6458F2324E40C91450965EFD0A0
:10514800EFD38327C40CB240C58F2326F40C224426
:1051580092444101828079714AD02A89130520033B
:1051680006D622D426D24ECE97B0FF1FE780600E17
:10517800693F514597B0FF1FE780A00D01451D35D8
:1051880009C90545B250225492540259F249456161
:1051980082802A84A144B7190040C13B7DF11935AA
:1051A8006DF183A7490C05801374F40F1397370129
:1051B8006354070013640408FD14E5F07D3371F1AE
:1051C800D53361F1B717004083A7470C793B55F9F0
:1051D800D13B2AC65DF5B1373245230089005DB75A
:1051E800011122CC06CE2E84ED3B854719E9130523
:1051F800F1009537854711E58347F100818FB33773
:10520800F000F24062443E85056182803717004015
:105218008357E7099396270163DA06088967231FEE
:10522800F70883C7B191850793F7F70FA38DF1901E
:1052380085466397D700238E0190A38F01908280C3
:10524800A54663E7F60283C7C1918583238EF19053
:105258000327470C9316370163DA060493E707F828
:10526800238EF19083C7F1918507A38FF1908280F7
:105278002D47639DE702411106C683C7D19103C735
:10528800C19181EF218B19EF693DB240A38D019047
:105298008547238FF1904101828093868192BE9643
:1052A8002380E6008507A38EF190F9BF8280371727
:1052B80000408327870C0111896606CED58F26CA40
:1052C8004AC822CC2324F70CAA842E890965914563
:1052D800EFD0CFBAB93585450565EFD02FBA93051C
:1052E800A00F1305F00FED3D97F501009385C55EFE
:1052F80019ED1305F100853519E50347F10093070A
:10530800A00A6301F70297F501009385655E26857B
:10531800EFD0013C05442285F2406244D244424920
:10532800056182801305F1003D358347F10097F54B
:1053380001009385655D5D8D1375F50F69F993051A
:10534800A00F1305600F693D97F501009385455D32
:105358005DFD9305A00F1305400F59352A8497F575
:1053680001009385255D45F563020902793B2945CE
:1053780097B0FF1FE780C0EE89450965EFD06FBA87
:10538800B7E700E03707040023A0E71097F501000E
:105398009385C55B2685EFD0A133B5BF411106C6FD
:1053A800B7170040130770052380E704130780FA36
:1053B8002380E70403C7F7021377A70FA387E70241
:1053C80003C7F70213672700A387E702EFF06FB060
:1053D8001305407E81470147814605468545EFD044
:1053E800AF86B240014541016F10F01B93F71500DD
:1053F80091CBB7E700E03707400023A0E71013C5BB
:1054080015008280411122C406C693F725002E8418
:1054180095C797F7FF1F9387A75D88431146938524
:10542800819213050504EFD0410A1145EFD0CFD47E
:1054380013452400B24022444101828093F745007D
:105448000145EDDB97F7FF1F9387475B88432146AC
:105458009385019213050504EFD021072145EFD06C
:105468004FD013454400F9B7411117050000130543
:1054780025F806C622C4EF10606397F7FF1F9387CD
:10548800E76717F7FF1F2329F75697F7FF1F93873B
:10549800E77217F7FF1F2323F75697F7FF1F938726
:1054A800E7791384518617F7FF1F2323F7549707CB
:1054B80000209387A7802300A40017F7FF1F232B42
:1054C800F752EFD02FC1034504002244B2400146F1
:1054D800854541016F10401A814717F6FF1F1306D3
:1054E800E65113F7F70F6364A7006FD08FC7184210
:1054F8003E9783460700850793C6F6FF2300D70427
:10550800CDB7814717F6FF1F1306864E13F7F70F1F
:105518006364A7006FD04FC618423E9783460700C2
:10552800850793C6F6FF2300D704CDB7814717F642
:10553800FF1F1306264C13F7F70F6364A7006FD0FD
:105548000FC518423E9783460700850793C6F6FFA6
:105558002300D704CDB7814717F6FF1F1306C649A6
:1055680013F7F70F6364A7006FD0CFC318423E97B5
:1055780083460704850793C6F6FF2300D708CDB7EF
:10558800B787004003C767001377F70F93762700A4
:10559800638A064C011106CE22CC26CA4AC84EC6DA
:1055A80003C777009306000313770703630BD7023B
:1055B80003C7770091461377F7036306D72263EE94
:1055C800E60A8546630ED71A6309071A89466304F3
:1055D800D71C8D466305D71EB7870040094723832C
:1055E800E7003787004083477700E207E18763D306
:1055F8000730930720FC2301F70297F6FF1F9386D5
:10560800A63F8842034775008347650022075D8FE0
:1056180097F7FF1F239FE74C8347150017F6FF1FD7
:10562800230AF64C0349050013760906630E061C87
:10563800DD1705476365F72A6209135989418146D1
:105648006356090297F7FF1F83D7A74A93060004FA
:105658003E8763F4F6001307000442074183998FDD
:105668009376F70F17F7FF1F2315F748B787004002
:105678002380D702130700FCBDA49306200263070A
:10568800D71263E3E602930600026306D704930683
:105698001002E313D7F403C767021377C70F136722
:1056A80027002383E7020DBF930630026304D71255
:1056B80093064002E312D7F203C7270313470704F0
:1056C8002389E70203C727031377C70F1367270048
:1056D8002389E70211B717F7FF1F0347A74195462C
:1056E800630DD70699466317D70897F7FF1F938767
:1056F800474003D4070013070004BE84637487007F
:105708001304000497F7FF1F9387072F17F9FF1F4C
:105718001309893E88434204832509004180228673
:10572800EFC0B15A83D704009379F40F818F17F72C
:10573800FF1F2310F73C832709003E9497F7FF1FAC
:1057480023AC873AB78700402380370303C7270273
:10575800134707042381E70241B503C7370097F6CB
:10576800FF1F83C6063913770708558FA381E70003
:105778000947CDB723800702E5BF83C78700A9BDC6
:1057880003C7770013770704E30807E403C5870016
:10579800EFF09FD491B503C7770013770704E30DA3
:1057A80007E203C58700EFF0DFD53DB503C7A702C1
:1057B8001377C70F136727002385E70231BD03C797
:1057C800770013770704E30907E003C58700EFF0C4
:1057D800FFD519B503C7E7021377C70F136727006B
:1057E8002387E702D5BB03C7770013770704E305D0
:1057F80007DE03C72703134707082389E70203C502
:105808008700EFF05FD5C9BB2946636AF60C17F627
:1058180001001306A6148A07B2979C43B2978287A1
:1058280083473500834625000946A207D58F93D6BE
:1058380087006388C60C6369D6008547638CF602C7
:105848001304F00F814789A08D456389B60E93072D
:105858002002E397F6FE83474500E1E397F701004E
:105868009387871297F6FF1F23A8F628014493070A
:10587800E00319A897F701009387071C97F6FF1F05
:1058880023ACF6260144C947C207C18363F6E70083
:1058980017F7FF1F231FF72497F7FF1F9387672525
:1058A80003D607009307000463F4C7001306000437
:1058B80097F9FF1F938949249314060183A50900CA
:1058C800C1802686EFC0714003A60900269697F787
:1058D800FF1F23A3C7229307F00FE31FF4D4B78752
:1058E80000401307F0FC2381E702B787004009470F
:1058F8002383E700F2406244D2444249B249056139
:10590800828097F701009387670F97F6FF1F23A5FB
:10591800F61E01449307B00385BF85466399D706F1
:1059280097F601009386460A17F6FF1F2326D61C12
:1059380001442386F19293074003B9B793F7F70F11
:1059480085466380D7028DCBE39CC7EE97F70100AD
:105958009387C71097F6FF1F23A0F61A0144A9479B
:1059680025B797F701009387670E97F6FF1F23A5C2
:10597800F6180144B94709BF97070200938787AA19
:1059880097F6FF1F23AAF61601449147F5BD014477
:105998009307F00FD5BD8347250017F7FF1F231A7C
:1059A800F71459B997F7FF1F83C787142300F50029
:1059B80017F7FF1F0357E7138547E3FFE7C6854738
:1059C800E9BF8347250017F7FF1F2303F712ADB17F
:1059D8001377F9018947E314F7F08347450063819A
:1059E800E704636CF7000547E39BE7EE3787004061
:1059F8008347670293F7370799A01307100863884E
:105A0800E70213072008E39CE7EC37870040834749
:105A1800A70293F7C70B93E727002305F70229B9D5
:105A2800378700408347A70293F73707FDB73787C3
:105A380000408347670293F7C70B93E727002303C8
:105A4800F702DDBE23000500A5B7230005009C4230
:105A5800A380070017F7FF1F0357A7098947E3FD2E
:105A6800E7BC25BF937617008DC2A38107000947BD
:105A78002381E70249472383E7022385E702238737
:105A8800E70205472383E700828093764700FDDA23
:105A980083C75700918B99C323860192B78700402B
:105AA8001147CDB797D7FF1F9387C71D17F7FF1F5C
:105AB800130747DFE14694C39107E39EE7FE828020
:105AC800411122C4371400408327840A06C68D4535
