:040000006F208008E5
:100004000000000000000000900000201C020020FE
:10001400A9BDF9F5940000200000000000000000D4
:10002400960000209800002000000000000000005E
:100034009A000020000000009C0000200000000046
:100044009E000020A00000208C020020A4000020BC
:10005400A6000020A8000020B2020020AC0000206E
:10006400AE000020B0000020B2000020B400002048
:1000740098020020B8000020BA000020BC00002034
:10008400BE000020C0000020C2000020C4000020E8
:1000940001A001A001A001A001A001A001A001A054
:1000A40001A001A001A001A001A001A001A001A044
:1000B40001A001A001A001A001A001A001A001A034
:1000C40001A001A001A0B71700409306700523808A
:1000D400D704130780FA2380E7040100010003C654
:1000E400B7041376F60DA385C7042380070413769B
:1000F400050251CE03C6A700118A1DE22380D7044E
:100104002380E7040100010003C7A7001367470029
:100114002385E7009307004B01000100FD17EDFF65
:10012400B7170040930670052380D704130780FA9D
:100134002380E704010001007D892394A7000100C6
:10014400010001000100238007042380D7042380D9
:10015400E70401000100372700408546A303D78048
:1001640023800704B7170040130770052380E704B2
:10017400130780FA2380E7040100010003C7B704D2
:1001840013670708A385E704238007048280137696
:10019400050425CA03C6A700418A1DE22380D704AB
:1001A4002380E7040100010003C7A70013670701C8
:1001B4002385E7009307007D01000100FD17EDFF93
:1001C400B7170040930670052380D704130780FAFD
:1001D4002380E704010001007D891365050423944D
:1001E400A70001000100010001002380070423800F
:1001F400D7042380E7040100010037270040894623
:10020400B1BF2380D7042380E7040100010003D792
:1002140087001367070C2394E700A9B781460146BA
:1002240081451145992AB7170040130770052380AB
:10023400E704130780FA2380E704010001007D57D7
:100244002396E70203C76704136717002383E704B1
:100254002380070401A0BD473305F50201007D1585
:1002640075FD8280411122C426C206C6AA840144B7
:1002740063179400B24022449244410182800504F1
:100284001305803E4204C13F4180DDB7975000E032
:10029400E78020B273002030B71700401307000333
:1002A4002388E7028547174700002323F77273006A
:1002B4002030975000E0E78000E7730020302303EC
:1002C400048015472303E48001002302A480828074
:1002D40083076480E3CE07FE2303048082808307C0
:1002E4006480E3CE07FE03454480828083076480F4
:1002F400E3CE07FE2302A4808280411126C44AC2B1
:100304004EC006C61377F50BAD47AA892E899544CE
:100314006306F70019456537653F8D444E854537BB
:10032400FD59FD1463983401B240A2441249824934
:1003340041018280135509011375F50F453F2209C8
:10034400CDB7011126CC06CEB704080051371545A8
:10035400BD37713769372AC6A53F324593771500F3
:1003640089EB136515001375F50FF240E24405613E
:100374008280FD14E9FC0145CDBF397126DC4ADADF
:100384004ED852D656D45AD25ED006DE62CE66CC51
:10039400B7E700E07D5783AA070022C603AA4700F7
:1003A40023A0E71823A2E718B71700401307700526
:1003B4002380E704130780FA2380E70483C74704F4
:1003C400930B75FFB684E20793FBFB0F8546AA895E
:1003D4002E8B328937240040E187015763FA760176
:1003E4006308D5008946130700026313D50001573B
:1003F400D98F93F7F70FB71C00402382FC041147F1
:100404002303E4801305F00F5D3D094CD135636D82
:100414007C11B7050700DA9537870700795563F231
:10042400E504B3879500636EF702370B0800A9470C
:1004340033EB65016399F90689E48144513D2685CE
:100444000DA0DA850945553D05090345F9FFFD145D
:10045400050B693D81C49377FB0FFDF7DD3569FD1D
:100464007D55B7170040130770052380E704130771
:1004740080FA2380E70403C74704418B2382E704FF
:10048400F250B7E700E023A0571123A24711E2542A
:1004940032445259C259325AA25A125B825B724C8C
:1004A400E24C21618280A5476395F90685691309A9
:1004B400F00FB3069900B3742B01B6941349F9FFF6
:1004C400B3749900856B33796901416B9387F9FFA4
:1004D400B3F7270199E363FC340193D94900C14779
:1004E400E3E637FF99BF0569C1697D19D9B71305DB
:1004F400800D638869011305000263847901130583
:100504001008CA85DD3B353D21DD4E99B384344165
:10051400D9B7DA852D45D533CA94E30099F2050994
:100524007D3BA30FA9FED5BF9387F9FF93F7F70F80
:100534006361FC0C83C71C0413073008631FF704B2
:1005440037070800636BEB04B3079B00B706100082
:1005540063F5D704334BEB0089476393F90689802D
:10056400D549E38C04ECDA850945413B110903279D
:10057400C9FF91472320E48003076480E34E07FE0C
:1005840023033481FD17EDFBFD14110B81C4937714
:10059400FB0FE9FF7D3371F5E1B5B717004003C7E1
:1005A4005704B70708001377070219E3B787070052
:1005B4007955E378FBEA33079B00E3FFE7F855B589
:1005C4008547E382F9F2DA852D45053B9389F4FFEB
:1005D400E38504E6293393F7390091EB83260480FD
:1005E4000327090093074900E39AE6E43E89CE8491
:1005F400F1BFB5476396F9001305900BC93135BDBA
:10060400B1471305B00AE38BF9FE99476391F904E6
:10061400B7050800B365BB002D45C53181448D4B3A
:10062400A149753963967401832704802320F90056
:100634008504E39834FF8327048013172B01635543
:1006440007002312F900D5BB2322F900FDB39D470F
:100654006399F90281451305B0044531BD44232053
:10066400090023220900FD599D3993F77400CA97A4
:1006740003C70700FD14398D2380A700E39634FFD8
:100684006DBBA1476392F9046D398144630D0B007E
:100694008D479304C0036308FB00930400056304BF
:1006A4008B01930440041375C507E30895D81945D5
:1006B400393139390545213126850D3909453D3111
:1006C4004931E31C05D669BB91476399F9001305C9
:1006D4006006F536F53E130590090DB7E38F09D48E
:1006E400F154A9BB176700000347F7F4914763E28D
:1006F400E7149767000083C767F6918B639B071223
:10070400976700009387C7D590439766000083C618
:1007140076D1814763CED706011122CC176400003D
:10072400130444D0584426CA06CE9767000083C7F2
:10073400D7D497640000938424D36365F70C6800CE
:10074400972001E0E780A0C6FD57630AF50C324705
:100754009767000083C777D263F6E70A584463417A
:1007640007048D2132475C446373F700BA87176727
:100774000000034797D0998F3E958387440163C651
:100784000702B707C0A86362F502B707405771A014
:100794001397170032970357070041EF85079DBF52
:1007A40003874401635507061D8D17640000130475
:1007B40024E81C4C81CF97670000938767EB944330
:1007C4003707CDFF7D179C46F98F9CC619E1370585
:1007D400C0A8DC50829719E91C4C8DC7978001E0B2
:1007E400E780C017977001E0E78000651C4C99CB47
:1007F400976700009387C7E79843B70633001C4701
:10080400D58F1CC7F2406244D24405618280E37DE7
:10081400F5F83707C0A8B307F7403E9579B75C44AD
:10082400E3C207FE452617670000034717C55C446B
:1008340099B7828019CD91CD09CE81473387F500D0
:10084400834607003307F50085072300D700E397A5
:10085400C7FE828019C991C909CA910583A7C5FF3A
:1008640011057D16232EF5FEC5BF8280854715C16F
:100874008DC105C28147B306F5003387F50083C6F1
:100884000600034707006398E6008507E315F6FEB4
:1008940085473E8582808147EDBF79719767000067
:1008A400938747BC22D4804306D626D24AD04ECE64
:1008B40052CC56CA5AC85EC67DC08144176B00002C
:1008C400130BCBBE17690000130909BA176A00009D
:1008D400130A4AB5B709C0A8B70A4057835724007A
:1008E40085E35C4481EC17670000232DF7B6832B66
:1008F400C4002285EF1080575E8461A0DCC4C5BFAC
:1009040083270B0082971C44636FF5023307F5407D
:10091400635E07020327490219CF03074901635F96
:1009240007003387A7408327CA006376F7009767D9
:10093400000023AFE7AEA2844044A1A00147E384B2
:10094400A7FECE97F9BF898F63DE0706976700007D
:1009540023A007AE8355240003450400975000E00C
:10096400E780403E5C405844B1C71444B6978306C0
:10097400490163C5060063E33701D6971CC4A2840A
:100984003A8429FC976700009387C7A9DC4711477D
:100994006376F704F11717670000232BF7A8B2500A
:1009A400225492540259F249624AD24A424BB24BFF
:1009B4004561828091E49767000023A5E7AA05BFFB
:1009C400D8C435B7032749023DD70327CA00E3F447
:1009D400E7F617670000232DF7A4B1BF976700005F
:1009E40023A807A46DBF411122C417640000130497
:1009F400A4A51C4006C626C291C78297976700002B
:100A040023A407A45C4091C382971C40639E0716ED
:100A14009767000083C717C2858BF9CF97670000DB
:100A2400A38A07C0176700000347F7C0914763FD17
:100A3400E700EF00B0569767000083C7D7BFF517EC
:100A44008A07A2979C43829797670000938747A1E0
:100A54009843176600000346F69CBE84976700001F
:100A640083C7479C93961700BA9683D60600D1CEC7
:100A74009767000083C7079B63E3C70A9767000073
:100A84002382079A1C40639107109767000083C76D
:100A9400B7BA91CF9767000083C7F7B989EB976717
:100AA4000000A38B07B8977001E0E780E0779767B1
:100AB40000009387A79F9C43E1CBFD571767000075
:100AC4002328F796D93B976700009387E799DC536F
:100AD40091C30939976700009387079D9C43CDC74D
:100AE4008297976700009387E7939C4B3E9597679F
:100AF400000023A1A79449A89767000083C707B6FD
:100B0400918BB9D3EF10601A81B7850793F7F70F6C
:100B1400976600002388F690E3E2C7F491BF860746
:100B24003E97976700009387E791835507009C439E
:100B340023100700176500000345C58E1317250011
:100B4400BA979C4382979767000083C7A78D139732
:100B540017009C40BA9703D70700598D2390A7002C
:100B64009767000083C7078C91C785071767000044
:100B7400230AF78A176700000347C78A97670000AC
:100B840083C7578AE37CF7EEB24022449244410182
:100B94008280AD6737C70040BD072326F7200F10BA
:100BA4000000976700009387E787884F832787268D
:100BB400BD66BD0693C7F7FF99836A052326D72030
:100BC4005D8D82804111B7170040985F3AC6945FEB
:100BD4003247E39CE6FE3245410182800327850FBC
:100BE40019E3054582808347C50093F7C70F2306A1
:100BF400F500034687008356C70093158601E185F7
:100C040063D8050A137816008355E51863020806AD
:100C140013E617002306C50063F8D5020348A502AE
:100C2400A30AB50017660000034616856376C8005C
:100C340093E717012306F5008D8E2316D700854709
:100C4400A30CF50001458280104309CE8345A5021B
:100C5400176600000346568263F6C50093E7170142
:100C64002306F500A30AD5008947A304F700C1BFF2
:100C740013E8270023060501E3F5D5F68D8E130846
:100C840010F813661600A30407012304C7002316F3
:100C9400D7008346A502175700000347F77D63F684
:100CA400E60093E727012306F500A30AB50041BF38
:100CB400054893E527006314060193E5170023060E
:100CC400B500A30AD5008947A304F7001C43A5DB9C
:100CD4000347A5029757000083C7177AE371F7F615
:100CE40093E505012306B50099BF97670000938734
:100CF400A7909C43411122C406C6858B2A84CDEB60
:100D04004165130525F5972001E0E78000434DC1B7
:100D14008347A5002315F50083270410A5E72320A6
:100D2400A4102322A4108547231CF40223200500C9
:100D34008347640154412316F5000347D400230478
:100D4400E500176700001307A78E184F13851702D5
:100D540015811C437D151375F50F9CC25C43DCC2E1
:100D64001C479CC65C47DCC61C4B9CCA5C4BDCCA5B
:100D74001C4F9CCE5C4FDCCE19CD93860602130724
:100D84000702C1BF8327441088C3835784032322E7
:100D9400A410850751BF9767000083D7279685075E
:100DA40017670000231CF794B2402244410182805B
:100DB4008347C40023090400054593C7470023065D
:100DC400F400DDB78347E50193F7E70F91CB0145C5
:100DD40082800145B240224492440249410182800A
:100DE4008347F501EDF7834625010347C50089CA0A
:100DF4000346A5029757000083C757686367F60048
:100E040093770701E9D7814789C6418B8357C51872
:100E140001C703570519BA97DDDB175700000347CD
:100E2400E76541111316870106C622C426C24AC0CB
:100E34006186635006069387C71313D457009767D8
:100E440000009387A78983A687089754000083C46A
:100E540084637D59B705C0A883A7460803D78607CE
:100E6400635B06043387E740637327013A8994423E
:100E7400E5F697570000938767639C438297E36A7C
:100E8400A9F43305A940269433348500134514008E
:100E940091B7058B9387C71209CB8A071384F7038D
:100EA4009307D0073354F40259BF86071384F7011C
:100EB4009307D003C5BFE3F7E7FAAE9765B71766A4
:100EC40000001306A6810327860863040746797188
:100ED40026D297540000938424598388440183259F
:100EE400060906D622D44AD04ECE52CC56CA5AC887
:100EF4005EC601457D583703C0A88326470883573B
:100F0400870763D20812B387F64063F50701BA85F1
:100F14003E880545184375F309C59767000023A764
:100F2400B784032406098569175900001309095871
:100F3400370AC0A8B70A4057054B9389B947832796
:100F44000900832B440882976370752F0357840725
:100F54009757000083C72753B38BAB40BA9763EE10
:100F6400771F83574403A30E040022858507231AA1
:100F7400F40283470412C5CF8D212285971001E026
:100F8400E780606A51E583864401230504028327D0
:100F940044080355840763DE0608B389A740032782
:100FA4000408232E3407BA9763C90600B706C0A8FD
:100FB40063E5D700B7064057B6978346B4002322AB
:100FC400F4088547639FF6068357240703560403F2
:100FD4006369F606034604016315D6068326840F67
:100FE400ADE283268409B1EE0346F4009306000CB7
:100FF4006319D604B387E70203278408B3D7E7024B
:1010040017570000034717480507BA97231CF4062F
:10101400B250225492540259F249624AD24A424B83
:10102400B24B45618280E3F0F6EE9A96E9BD19264B
:10103400A9B7E3F4A7F6B709C0A8BE99B389A94034
:10104400B9BF8327090082979757000083C70743D6
:10105400139787016187635807083385A94079C1CD
:10106400832604086370D50C635507081605B71763
:10107400004083C7F702E207E18763C30700411515
:10108400175700001307875C1443B567BD07DCC618
:101094000F1000001C4306050967E8D398C713071F
:1010A40000F8975600002387E6583D673D07D8C7E8
:1010B400977001E0E7800014977001E0E7806024F6
:1010C4000347B400854781456313F704176501E0BE
:1010D400130525F3975000E0E780C000930700FD57
:1010E4002307F40035B7E3FAA9F6B706C0A8B69902
:1010F400ADB7858B99C79307803E3305F5021581FB
:10110400BDB79307D0033305F50205818DB71735B5
:1011140001E0130565A9975000E0E780A0FC930760
:1011240010FC7DBF0347B400854703A30403631782
:10113400F7009545E30E03EC154529A0E30A03ECFB
:10114400954519452254B25092540259F249624AC3
:10115400D24A424BB24B4561028363D60B06835796
:10116400440322858507231AF40283470412B1CB72
:10117400AD242285971001E0E780E04A03270408A4
:1011840083274408BA97038744016345070063E350
:101194004701D6972322F4088347B4006397670175
:1011A4002285976001E0E78080908347D4018545DC
:1011B4008507A30EF4009C58E38307D8154582974E
:1011C400BDBB8D2A7DB783572403175700000347FF
:1011D400E72A93168701E1868E0763D70602130771
:1011E400204EB387E7029583E3F477E3A145228594
:1011F400971001E0E780A03A2302A40203A30403AA
:101204008945E31B03F229B5058B11C71307800237
:10121400B387E702D1BF05671307B747B387E70270
:10122400938707049D83C9B7835724031757000086
:101234000347C72493168701E186B30B75418E07D4
:1012440063D0060A1307204EB387E702958363F23F
:10125400FB0C83270900829783574403AA8B2285BA
:101264008507231AF40283470412C1CBBD222285C9
:10127400971001E0E780203BE31C05D8032704080E
:1012840083274408BA97038744016345070063E34F
:101294004701D6972322F4088347D40113F7070F95
:1012A40039CF2285971001E0E780A0EFA30E040058
:1012B40083274408E3FFFBF88347B400639567057D
:1012C4000357240783570403E3FBE7C6228597509B
:1012D40001E0E780C07D9C58E38307C68D45F9BDD6
:1012E400058B11C713078002B387E7028DB7B38755
:1012F4003703938707049D8399BF2D288DBF8507E6
:10130400A30EF40075B79C58E38B07C28D451945AD
:101314007DB5E3CF0BCEA1452285971001E0E78090
:1013240000282302A40203A30403E30303CE91458C
:1013340021B58280797126D206D622D44AD04ECEE7
:1013440052CC56CA5AC85EC68347850203447511F7
:10135400AA843E941374F40F9307400263F6870043
:101364001304B4FD1374F40F03AA841183AAC411E3
:10137400A38B841022865285D685970002E0E780ED
:101384000047058915E503CBD41001498149337B16
:101394006403930B50024A865285D685970002E077
:1013A400E780E044058915C5639169031374F90F57
:1013B400238B8410B250225492540259F249624A47
:1013C400D24A424BB24B456182808509E20993D9E6
:1013D40089410509E31179FDE1BF8327C508035657
:1013E4004503797193D60701BD8EC206C182358E3D
:1013F4001357764093575640898B058B5D8F9357CF
:101404003640918B5D8F93571640A18B5D8F931758
:101414001600C18B5D8F9317360093F707025D8F1B
:10142400931756009355860093F707041E065D8FA5
:101434001376F60F518F93D7554013D63540118A42
:10144400898BD18F13D67540D18F13D61540218A3D
:10145400D18F13961500418AD18F139635001376D8
:101464000602D18F13965500137606049E05D18F7C
:1014740093F5F50FCD8FA20745465D8F3307C7025D
:1014840022D42A8426D252CC56CA032A8411832A0F
:10149400C4115AC806D636974207418393577740FA
:1014A400135557400989858BC98F135537401189C6
:1014B400C98F135517402189C98F13151700418906
:1014C400C98F1315370013750502C98F13155700FB
:1014D40093558700137505041E07C98F1377F70FFB
:1014E400D98F13D5354013D755401189098B498FAE
:1014F40013D57540498F13D515402189498F13950C
:1015040015004189498F1395350013750502498FDC
:1015140013955500137505049E05498F93F5F50F32
:101524004D8F2207D98FB387C7024AD04ECE5EC6ED
:1015340062C4B697C207C18313D7774013D5574007
:101544000989058B498F13D537401189498F13D5E4
:1015540017402189498F139517004189498F1395A5
:10156400370013750502498F1395570093D58700EB
:10157400137505049E07498F93F7F70FD98F13D579
:10158400354013D755401189098B498F13D57540C0
:10159400498F13D515402189498F13951500418929
:1015A400498F1395350013750502498F139555001E
:1015B400137505049E05498F93F5F50F4D8F22078A
:1015C400D98FB387C702130650025285D685B697C2
:1015D400BD8E93940601C18033F6C402137BF60FCB
:1015E400970002E0E780A02005890DED8347D41021
:1015F40001498149B3849702130C5002C1804A8681
:101604005285D685970002E0E780601E0589937BAA
:10161400F90F11C563863403850993F9F90F050998
:10162400E31F89FD230B6411B250225492540259D2
:10163400F249624AD24A424BB24B224C4561828003
:101644005E8BCDB70111975700009387270922CCF1
:1016540003A4C70A26CA06CE2AC42EC6854419E4A2
:101664000145F2406244D24405618280034714007C
:10167400834791006304F7000044D5B719469305E6
:10168400A10013052400EFF06F9EE31795FE0545B6
:10169400C9BF17570000130727F71443411122C687
:1016A4009C5E4AC226C49983858B3A8417590000EC
:1016B400130949F5C9C39C5E97540000938444F709
:1016C40093F7F7F99CDE9757000083C767F693F703
:1016D400070499CB97570000938747DD9C43829773
:1016E4009757000023AEA7F4854717570000A303BC
:1016F400F7F483C7440093F7070491EF975700006A
:101704009387C7F49C43D844F8D3930700FC175736
:1017140000002301F7F283C7640013070008631C69
:10172400F700832709009C439983858BADE3975782
:101734000000238207F01C40985F1183058B09CBBE
:10174400985F3D9B98DF0547975600002384E6EE9B
:10175400985F1D83058B11CB985F1377F7F798DF9C
:101764008547175700002307F7EC83270900D84360
:101774000583058B19C7D843759BD8C3D843799B78
:10178400D8C33244A2441249410173002030930764
:1017940000FC175700002300F7EA71BF1757000039
:1017A400130707E983470700858B89EB83471700F5
:1017B400858B89E783474700858BEDD78280175750
:1017C4000000130767E414439C5E9583858BC5EF83
:1017D40009C69C5ABD832300F600C5C9834715007A
:1017E400CDC7411106C6175600000346C6E493064A
:1017F400000C6304D60297570000938767E383C500
:10180400670097570000938727C69C5B1305300831
:1018140082970945B240410182803E9583479500F5
:10182400854613F6F706630AD60097570000938798
:10183400A7C39C5B9305D00FD1BFE207E18709459D
:10184400E3CA07FC1C43985B460793576701635937
:10185400070293E707C01387970F42074183930654
:10186400201F0145E3E8E6FA1387E19A031707000E
:1018740009C7BA970947B3C7E7022397F19A59BF33
:10188400C207C187C9BF054582801C43985B4607D0
:10189400935767016359070293E707C01387970FAC
:1018A400420741839306201F014563EDE600138739
:1018B400E19A0317070009C7BA970947B3C7E702B4
:1018C4002397F19A8280C207C187C9BF49E5975718
:1018D40000009387A7D79443411122C406C62E87DC
:1018E4003E84FC52FDFF3A85B285976001E0E780B3
:1018F400206F97570000938727D19C43B706800039
:101904009843558F98C3D857719BD8D71C40094723
:1019140098C3B7F700E003A707D16D9B23A8E7D0CE
:1019240003A707D15D9B23A8E7D073005010175776
:1019340000001307E7CF83472700858B89EB834794
:101944003700858B89E783474700858BEDD7B24005
:101954002244410182808D476310F50497570000AB
:10196400938787CA9C43B70680009843558F98C3D2
:10197400D857719BD8D717570000130767CB8347F5
:101984002700858BBDEF83473700858BBDEB8347ED
:101994004700858BEDD782808547E31EF5FC97577A
:1019A40000009387A7CA944335673D07D8C60F1034
:1019B400000017570000130727C51443094698422F
:1019C40031830D8B6313C70298439306E04374D3AA
:1019D400984389671CC7930700F897560000238B28
:1019E400F6C4BD67BD075CC779B798429443318399
:1019F4000D8B09E713076019F8D2D9BF1307E01B51
:101A0400E5BF82805D712AC62EC486C6976001E058
:101A1400E780407E977001E0E780A08E9758000031
:101A2400938888BE83A7080017530000130343C498
:101A34003706330023A40700984B370EFCFF370FFB
:101A440004001367F70398CB9843914F7D1E1377D7
:101A5400F7E798C398438542930E80021377F7E71C
:101A64001367071098C38326030032459846518FA5
:101A740098C617570000130767BD18439306900DC7
:101A8400014634CB1377F51FE84FF576FD16137531
:101A940005E0598DE8CF9843758F98C3A2458147D7
:101AA40003A70800032803009376F60F231C0704FA
:101AB400231007060325C80275992326A8020328C4
:101AC40007001375F607137808F83365A80008C3F0
:101AD40048533365E50148D303558705E3FEAFFE5C
:101AE40048533375C50148D3035707062808329570
:101AF4001377F70F2300E50019EF13D736002E975D
:101B0400034507009D8AB396D2008507C98E93F7D3
:101B1400F70F2300D7000506E314D6F985461148CC
:101B24008548130380026363F8040146814728084B
:101B34003295034505001377F60F63E1A6021355AA
:101B440037002E95034E05001D8B3397E80085075B
:101B54003367C70193F7F70F2300E5000506E31881
:101B640066FC850693F6F60FE39F06FBB6406161BB
:101B74008280175700001307A7A98346B701975718
:101B8400000083C7B7ADB69793F7F70FFD4663EA36
:101B9400F6044C4B97560000A38CF6A6975700000A
:101BA40083C717A705473317F70097560000A38785
:101BB400F6AA6D8F1DEF9756000083C676AAB3F67A
:101BC400D70213050002814733D6F500058A13F8BE
:101BD400F70F09CE6399E60097570000A38A07A37D
:101BE400828081177DB705071377F70F8507E39D7B
:101BF400A7FC8280975700009387478B9C43011171
:101C040022CC4EC606CE26CA4AC852C456C28297B1
:101C1400975700009387C7A3804781496305A406AB
:101C2400BE849757000093872784038747013E8922
:101C340063550706018D135455009757000083C759
:101C4400C79E9379F501636DF402370AC0A8B70AF9
:101C5400405705379C449756000083C6069D13974A
:101C640056003E9783074901158C63C507006363DB
:101C7400470156979757000023A0E79EE37BD4FCC7
:101C84001604B3693401F24062444E85D244424999
:101C9400B249224A924A05618280E37D85F8B707FA
:101CA400C0A833848740229579B79747000093876B
:101CB400E77F9C43411122C406C626C282979757E8
:101CC40000009387E79880476309A406BE8497477A
:101CD4000000938767798387470163D80704018DE0
:101CE400135455009757000083C727946367F4047F
:101CF400493598449757000083C727939396570014
:101D040036971D8C9756000023A8E694E372F4FEE0
:101D14002244B2409244175500000345758F814513
:101D24004101178301E06700C3DEE37A85FAB70750
:101D3400C0A833848740229565B7B24022449244B8
:101D44004101828097570000938787929843B75741
:101D540002009387079F832607091396560063584A
:101D64000600832607091396660063440600FD17E0
:101D7400FDF3828021670507AA876397E50003C7FF
:101D8400C199014565E382800145E5C3F9CD8D071D
:101D9400C207C183F19BC207C18313074003636F6A
:101DA400F7021757000013076792084317570000FC
:101DB4001307479114436398A602174700001307BB
:101DC400A76A185B014555C34111C20706C60545FC
:101DD400DD8D0297B2400145410182801757000012
:101DE4001307878ED9B7035765003DEB03574500AA
:101DF4006368F706B306F740214617580000130836
:101E0400288D637AD602832805000326080093866A
:101E140087001D8FAA9661172392E60023A016015E
:101E24002393060014C1130786FF2312F500975667
:101E3400000023AFE68821672313B50005076397E5
:101E4400E50003C7C1997D17238EE1988325080017
:101E54002105B387F54017570000232BF7868280AE
:101E6400084191BF014585F7828082800DC1975753
:101E740000009387A78503A3070097570000938763
:101E8400678483A8070001479A8763E31701828068
:101E940003A807006369F50A6367A80A93868700A5
:101EA400E367D5FE03D66700A16685066317D600EF
:101EB40083C6C1998506238ED198975500009385D2
:101EC4002581944103D6470023930700B296174512
:101ED4000000232FD57E638A67021745000013058F
:101EE400A57E08416303F5020355670019ED835786
:101EF400470023200701A1063E96210697470000CC
:101F040023A8D77C2312C700BA879843E30117F9A3
:101F1400974600009386467B9442E30AD7F683569D
:101F24006700B5F683D64700035647001843A10659
:101F3400B29698C32392D7009C41A107174700008B
:101F44002328F77882803E87C28781B7011197479B
:101F540000009387A77822CC03A4470B26CA4AC85B
:101F64004EC606CEAA8413092500854915C083C729
:101F7400140003473400858B6304F700405CFDB70D
:101F84001946930544004A85EFE05F8EE31835FF58
:101F94002285F2406244D2444249B24905618280BA
:101FA4004111974700009387677322C403A4470B2A
:101FB40026C24AC006C693042500054901E82285C5
:101FC400B24022449244024941018280A68513050D
:101FD400A40297F001E0E780E034E30225FF405CCF
:101FE400F1BF4111974700009387476F22C403A4B0
:101FF400470B26C24AC006C693042500054901E8DA
:102004002285B24022449244024941018280A6853D
:102014001305A40197F001E0E780C030E30225FF37
:10202400405CF1BF0111974700009387276B22CCD6
:1020340003A4470B26CA4AC806CE2AC42EC6B284B5
:10204400054919E001453DA0034791008347340049
:102054006318F7021946930544001305A100EFE045
:10206400FF80631F2501A6851305A40297F001E0F4
:10207400E780402BF2406244D244424905618280A9
:04208400405CC1B744
:1020880097110020938101D817610020130101F7EF
:102098001305400097E5FF1F938545F617060020B6
:1020A800130606FE63FAC5008322050023A0550027
:1020B80011059105E3EAC5FE17350200130545939E
:1020C800970500209385C5FB1386018A63FAC5002E
:1020D8008322050023A0550011059105E3EAC5FEFA
:1020E8001385018A974500209385056E6377B500AF
:1020F800232005001105E36DB5FEFD42739002BC77
:102108008D42739042809302800873A0023097E258
:10211800FF1F9382A2EE93E23200739052309732FF
:1021280000009382427373901234730020303D4351
:102138002A876373C3029377F700BDEFADE5937603
:1021480006FF3D8ABA960CC34CC30CC74CC741075F
:10215800E36BD7FE11E28280B306C3408A0697027A
:10216800000096966780A6002307B700A306B7006D
:102178002306B700A305B7002305B700A304B700DB
:102188002304B700A303B7002303B700A302B700D3
:102198002302B700A301B7002301B700A300B700CB
:1021A8002300B700828093F5F50F93968500D58DAF
:1021B80093960501D58D61B7939627009702000085
:1021C80096968682E78086FA9680C1171D8F3E967E
:1021D800E374C3F8A5B7B717004083C887058546D9
:1021E80003C89705A38C0704238CD70403C7970556
:1021F80093F8F80F1378F80F13679702A38CE70486
:10220800238DD704371700408347A7059305A705F3
:10221800858BFDFB0565C14637170040054E130346
:10222800F5FF2380C50103C60500058A6DFE035628
:10223800C705FD16C2061346F6FF33766600C1824F
:10224800B297E5F283469705A107918393F6760F37
:1022580013050580A30CD7041D8D230C1705420513
:10226800A30C070541858280B717004003C777058F
:102278001A0592054D8D1377E70F13653500A38B6B
:10228800E7041375F50FA38CA7048280B7170040E5
:1022980003C777051377E70FA38BE704130700F845
:1022A800A38DE7043D47238CE70413075003A38C51
:1022B800E7048280B7160040130670052380C60421
:1022C800930780FA2380F6040100010003C7F60291
:1022D80013678700A387E60203C7F6021377770F11
:1022E800A387E60203C7E6021377C70F2387E60230
:1022F80003C7E602136717002387E6022380C60494
:102308002380F6040100010003C736057D78930E8B
:10231800481F1377870FA389E60403C736053716C6
:102328000040116E13671700A389E6042380F604A2
:1023380083C736051167130F400893E70702A3897F
:10234800F60483D706051308281B930F3004D98F8A
:1023580011672398F6047D17914789421303700586
:10236800930880FA83463605A18AEDDE8356060572
:1023780083463605A18AEDFE83560605B3E6C601F7
:102388002318D60483463605A18AEDDE8355060553
:1023980083462605F98DB306D702B695B386D501CF
:1023A8006371DF04FD1793F7F70F85CFC2959396F6
:1023B8001500B3C6F6036352B0028506858623006E
:1023C800660423001605010001008355C602AE9677
:1023D800C206C1822316D60271B7FD16B3C65602CD
:1023E800F9BFB716004083C7360513873605A18B9A
:1023F800FDDB83D7060583D706051166D18F2398A1
:10240800F604930770052380F604930780FA238067
:10241800F604010001008347070093F7870F2300A4
:10242800F70083470700C98F93F7F70F2300F700DA
:102438003717004083473705A18BEDFFB7170040DA
:1024480003C73705218B6DDF83D6070583C72705AB
:1024580011667D16F18E3306F60285659307C00373
:10246800138705C83696938605FAB396A600B386F1
:10247800F602A1679385559CB3C6F6029307803E82
:10248800B386F602B357A740B306D640B387D70240
:10249800B3C7B7026351D00485070947930670058F
:1024A800B3C7E702371700402300D704930680FA22
:1024B8002300D7049607010001008356C702B69788
:1024C800C207C1832316F7028347370593F7F70D31
:1024D800A309F7048280FD17C9B741112A83014E69
:1024E800930E407E130F0019930F400663E46E0E9F
:1024F8009308001913034006B3781503854E0D4F52
:10250800A14F337365020D891335150063EEBE0EB6
:102518001308F6FF794672984208135808013307E2
:10252800C70213D61700BE0732976146B3F6C60234
:1025380013068070B386C6023697A166F58F4207E8
:102548005D8FB716004083C7F60293F70708A30705
:10255800F1000346F10083C7F60293F70708E394F6
:10256800C7FE8347F100B716004093F7F70FFDC782
:10257800B7170040930670052380D704930680FAA6
:102588002380D7040100010023AA070383C6170389
:1025980011667D1693E60608A388D702D45BC85F48
:1025A80093854703A98EF18EF5FA9306700523806B
:1025B800D704930680FA2380D7040100010098C14C
:1025C80003C7170313670704A388E70223800704D8
:1025D800410182807D133368E3039308E016630E9C
:1025E80008003368F3039308D0166308080093784B
:1025F800330093B818009388D81633081E01131EA9
:102608000801135E0E01DDB56393E5030548638693
:1026180008000148630303002A8871087298FD15B1
:10262800131E0801C205135E0E01C181C5B513F85A
:10263800150063F4BF007908D5B713381800E5BF53
:1026480083C7F60293F70708A307F1000346F100D2
:1026580083C7F60293F70708E394C7FE8347F100A0
:1026680093F7F70FF1DF29B7914763EEB702171712
:1026780002001307A7FF8A05BA959C41BA9782877B
:10268800B717004003A7470B1345F5FF698F23AA27
:10269800E70A03A7070B698F23A8E70A03A7070A16
:1026A800798D23A0A70A8280B717004083A6470B1D
:1026B8001347F5FFF98E23AAD70A83A6070B558D72
:1026C80023A8A70A83A6070A758F23A0E70A828092
:1026D800B717004003A7470B498F23AAE70A03A7A8
:1026E800070B1345F5FF45BFB717004083A6470BF7
:1026F8001347F5FF758F23AAE70A03A7070A598D21
:102708004DB7B717004003A7470B498FEDB791475F
:1027180063EEB70217170200130787F68A05BA9502
:102728009C41BA978287B717004003A7470D134506
:10273800F5FF698F23AAE70C03A7070D698F23A864
:10274800E70C03A7070C798D23A0A70C8280B71785
:10275800004083A6470D1347F5FFF98E23AAD70C2F
:1027680083A6070D558D23A8A70C83A6070C758F84
:1027780023A0E70C8280B717004003A7470D498FB5
:1027880023AAE70C03A7070D1345F5FF45BFB717A5
:10279800004083A6470D1347F5FF758F23AAE70C62
:1027A80003A7070C598D4DB7B717004003A7470D6E
:1027B800498FEDB79357E50093F70730C98FC207E4
:1027C8000547C1836382E5048DC10947638DE5042C
:1027D8000D476380E50637170040231FF708835627
:1027E8002709D58F2319F708828037170040035629
:1027F800670993C6F7FFF18E231BD7088326C70CFA
:10280800558D2326A70CC1BF37170040035667090B
:1028180093C6F7FFF18E231BD7088326870C558DA7
:102828002324A70C4DBF3717004083566709DD8E58
:10283800E1B73717004083566709DD8EE9BFB71740
:10284800004003D7870109C5D98D239CB700828032
:1028580093C5F5FFF98DD5BFB717004003D587009D
:10286800420541819377050491EB9377F50137553C
:10287800E801130505803345F50282809377050C3E
:10288800130700046397E7009377F50137459C1C0D
:10289800CDB72165130505D08280B7F700E08847DA
:1028A800CC478280814737470040A14663C4C700B0
:1028B800328582800345B7C0E38EA6FE3385F500D6
:1028C8000345050085072304A7C0CDB712059A055F
:1028D8004D8D1365C5001375F50FB727004023808C
:1028E800A7408280B727004001E5A3800740828087
:1028F800239CB740239EC740154791E20547A38014
:10290800E7408280411122C406C62A84B13729478C
:10291800B307E502B2408D83B3D7870222449507F7
:10292800B3D7E70237470040C207C1832316F7C071
:1029380041018280716541111305052006C6D9370A
:10294800B7470040130770F82381E7C00D47A381FC
:10295800E7C013070004A380E7C005472387E7C043
:10296800B24041018280B7870040238007001307E7
:10297800C0FC2386E700A386E7001727002003573B
:1029880027F82398E700172700200357A7F7239A6B
:10299800E70017270020035727F6239CE70017278F
:1029A80000200357A7F5239EE70089462381D70215
:1029B80049472383E7022385E7022387E702238920
:1029C800D702A3810700130790022380E700B716F8
:1029D800004003D7A6011367070C239DE6007D5727
:1029E8002383E700130710F8A380E7001D4723811E
:1029F800E7008280B78700402382A70203C76702E7
:102A08001377C70F2383E7028280B78700402384A8
:102A1800A70203C7A7021377C70F2385E70282809F
:102A2800B78700402386A70203C7E7021377C70FBB
:102A38002387E7028280B78700402388A70203C75D
:102A480027031377C70F2389E70282809387C18AF8
:102A58009C43011106CE22CC91C382979387C18EE5
:102A680080439387018B9C4313150401418181C7DF
:102A78002AC6829732459316040117070020035788
:102A880087B8C18213044006637FE50083D741807D
:102A9800014463FAA7001386818A10421DC236C614
:102AA8000296B2462A84228717160200130686BEAB
:102AB80081450145EF10306E2285F2406244056180
:102AC800828005071D8F13150701418113572500C3
:102AD8003385F640E5473305F5029307F7FF3E9542
:102AE8003345E5021374F50F7DBF03A84500411176
:102AF80026C206C622C48347180003480800A94412
:102B0800A207B3E70701C2070D68C1871308289019
:102B18006396070385473284EF705039AA8419ED0C
:102B28009387418A9C4399CB0345140003470400CB
:102B38002205598D1335150005058297B2402244A8
:102B480026859244410182802D452DEFD8414111BF
:102B580022C426C206C68347170003470700B68467
:102B6800A207D98F0D67930697A13284639CD70279
:102B7800F13D9707002083C7E7A86376F50097071C
:102B880000202381A7A885472390F40097070020F9
:102B980083C747A72300F4000145B240224492446A
:102BA80041018280130787902945E398E7FECC45C9
:102BB80089472390F4000946228597E0FF1FE780A4
:102BC80020C7D9BF828083474500858BBDC70111C7
:102BD80022CC2A8403552500938581A106CEEF7067
:102BE800B027058939C503552400014781460546A4
:102BF800ED45EF70A0612AC60DCD97F7FF1F9387AB
:102C0800274883D7A70201462C002314F1008547E3
:102C18002315F1009707002083C7C79E2300F500FE
:102C280003552400EF80700109C5ED452800EF70B9
:102C3800A075F2406244056182808280416541113D
:102C4800938581A17D1506C6EF90C06EB24097F6B8
:102C5800FF1F9386E6474146954517F5FF1F130565
:102C6800254241016F90206223A2A18A82804111EE
:102C780022C406C6854709446313F5028347060044
:102C880001442380F18A170700200347A797637838
:102C9800F70017050000130545F3EFB0501922851A
:102CA800B24022444101828085476303F50209C985
:102CB80009476304E5020D476308E5020945828078
:102CC8009707002083C707942380F5000145828079
:102CD8009387018A83C70700C5BF97F7FF1F83D76C
:102CE800C73A2390F500DDB71387818003570700A3
:102CF8002392E50017F7FF1F130787388356A702AB
:102D08000357A7032383F5002390D5002391E500FB
:102D180075BF411106C61D3B9707002083C7878EE4
:102D2800637CF50097070020238EA78C1705000009
:102D38001305A5E9EFB0B00FB2400145410182800B
:102D480041677917630CE502411122C406C685471D
:102D58002A84639AF50022852244B240938581A192
:102D680041016F90205D89476396F5008545EFB076
:102D7800900675D1B2402244410182808280CC41C4
:102D8800411106C6328503C6150083C50500220613
:102D98004D8E42068D654186138875A2630C060F19
:102DA8006348C804138845A26306060B634AC80033
:102DB800938535A26309B60623900600294679A0B3
:102DC800138855A26308060B938565A2E316B6FE21
:102DD800C1451D4663ECE5064546198E63F3C700F9
:102DE8003E862390C600971502009385E58C89A836
:102DF800138895A26300060F634E060B1388A5A2DD
:102E0800630A060F938505A5E318B6FA99451D468A
:102E180063EEE502198E63F3C7003E862390C60071
:102E28009385018131A89D451D4663E1E502214650
:102E3800198E63F3C7003E862390C6009385418BA5
:102E4800BA9597E0FF1FE780A09E0146B240328501
:102E580041018280AD451D46E3EAE5FE3146198E03
:102E680063F3C7003E862390C6009715020093853A
:102E78006588F9B7B1451D46E3EAE5FC3546198E84
:102E880063F3C7003E862390C6009715020093851A
:102E980065877DB7C1451D46E3EAE5FA4546198EC3
:102EA80063F3C7003E862390C600971502009385FA
:102EB800E58179B7C1451D46E3EAE5F84546198E2F
:102EC80063F3C7003E862390C600971502009385DA
:102ED8006584BDB7C1451D46E3EAE5F64546198E4A
:102EE80063F3C7003E862390C600970502009385CA
:102EF800257FB9B7B5451D46E3EAE5F43946198E8D
:102F080063F3C7003E862390C600970502009385A9
:102F1800A5793DB797F6FF1F9386462F4146CD45C5
:102F280017F5FF1F1305851B6F90E0358280938787
:102F3800018D9C4303C7418C83C6B18201E7814759
:102F48003E85828003D607006316A60003C6670085
:102F5800E308D6FE7D171377F70FA107C5B7B2862A
:102F68002E86AA85170502001305857F6FE0D151CB
:102F78000111930500030D4506CEEF40207D930512
:102F880000051145EF40807C9305C0030545EF40DF
:102F9800E07B85471306F100854513055030A307EC
:102FA800F100EFA0B134F240056182808547631CCF
:102FB800F5001166130686A98945172500200345E3
:102FC800A5946F20B05E89476319F50089451725D8
:102FD8000020034565936F3080058280854763989C
:102FE800F50019E2238FB18A238AC18C82800947B0
:102FF8006399E50019E6238FF18A03D5C18B6F0029
:10300800F00A82809387818C9C43011122CC06CEE2
:103018002E8481CB9C4791C78297F2406244056118
:1030280082806C0013057040EF90013D3246814567
:103038002285EF903156D5B701119397050126CA1D
:1030480006CE22CC4AC84EC652C4C187AE8463D9C4
:103058000708172500200345258BEF20900F2A84A9
:1030680039C9034705009307000D6313F704834725
:1030780025004547638BE7046547639BE70217050F
:1030880002001305656AEFE0314013095400930903
:10309800B400170A0200130A6A6A834509005285B8
:1030A8000509EFE0713EE39A29FF2945EFE0D14198
:1030B8002285EF2070032165258DF2406244D244B9
:1030C8004249B249224A0561828003466500834528
:1030D8007500170502001305E566EFE0F13AC9BF70
:1030E80093F7150085C317F6FF1F1306E61293859D
:1030F800C1811725002003452581EFA0C17013C5A4
:10310800140065BF93F725000145C5DB1931116629
:10311800130686A98945171500200345E57EEF208B
:10312800F04813C5240051BF797126D24ECE06D679
:1031380022D44AD052CC9147AA84AE896314F504AC
:1031480083D7A5001306E100854513055030239E5B
:10315800F18A23070100238F018AEFA03119938791
:10316800818C9C4391C7DC4781C7CE852685829791
:10317800B250225423A0918C02599254F249624AC7
:10318800456182801387018C1843E31AF7FC854553
:1031980003D5C18B7536854503D5C18BEF00C07645
:1031A800C16703DAC18BF917631BFA02054493055B
:1031B800E10013055041238F018AA38581822307EB
:1031C8000100EF9061238347E100B1E303C7418D1C
:1031D8009147E316F7F8693B238A018C49B793872F
:1031E800018D03A9070003C4418C69D00355290048
:1031F80011C99305E100EF70D02C09C54C455285E3
:10320800EF9040137D141374F40F2109F9BF9387CD
:10321800C18C9C4383C74700898BCDDB9305000A8B
:103228000D45EF40A0529305000A1145EF400052AA
:1032380081450545EF4080511306E100854513059A
:10324800503023078100EFA0710A49B70111170513
:1032580000001305A5DE06CE22CCEF205078171407
:1032680000201304646A85471306F100854523008E
:10327800A40013054041A307F100EF90E13E7D55FE
:10328800EF6030427D55EF90C0076931453AF5232C
:10329800170500001305C5D1C13A1705000013052D
:1032A80025C91125034504008545EF20F028F24083
:1032B80062440561828023A4B18C23A6A18C8280FC
:1032C80023A8B18C2382A18C82809387018C9C4394
:1032D800797106D622D426D24AD04ECE52CC114786
:1032E800639BE70483C7E18B414481CF9387018DBA
:1032F8008043B284B68983C7418C03C7B18299EBF6
:1033080055442285B250225492540259F249624AD5
:103318004561828083464400639AA6008346540030
:103328006396B600834664006380E606FD1793F74C
:10333800F70F2104E9B709474144E384E7FC2C006F
:103348001305504123040100EF90010B83478100CE
:103358008DCB930500020D45EF40403F93050003D8
:103368001145EF40A03E95450545EF40203E854775
:1033780030008545130550302304F100EFA0017794
:1033880049B7FD364144B5BF035524009305610094
:10339800EF70301335D54C4503D5C18BEF70C02B7A
:1033A800058939DD1399040113590901014781463B
:1033B8004A86ED4503D5C18B035A0400EF601065BA
:1033C8002AC64D441DDD2686CE85231441012315CA
:1033D800210197D0FF1FE780A04501462C0003D5A7
:1033E800C18BEF8080052A84E30D05F0ED452800A8
:1033F800EF60907939B7C841011122CC06CE3284EA
:1034080003461500034505002206498E19CB0D68B1
:103418001308B8A42D4563090607F2406244056104
:1034280082800D651308D5A463000603130825A23E
:10343800630C060175781308E85C32984208135843
:103448000801854863EE080303D5A50036C632C4D3
:10345800F93CB24615C19387818C9C43224683452B
:10346800550003A30700A2876244F24003454500C4
:10347800368785460561028323900600014571BFA2
:103488001308B5A46317060303D621831D45E37605
:10349800C7F8198E63D3C7003E86CC452390C60073
:1034A80042064182BA95228597D0FF1FE7804038AF
:1034B800F1B79307A5A46318F60091472390F60087
:1034C8001146CC45CDB7930785906317F600894719
:1034D8002390F6000946F5B79307E5A4631AF600AA
:1034E800DC452390160183C707002300F40079B751
:1034F80013057590E314A6F8D9BF011122CC06CEA6
:1035080026CA4AC82317D1002D4429EBDC412E894D
:10351800B28403C4170083C7070022045D8C8D673B
:103528009386D7A46306D400938627A3631FD40287
:103538000355A900ED3A19E101440DA09387818C48
:103548009C43834555000345450003A80700228690
:10355800A6871307E100814602982A842285F24053
:103568006244D2444249056182809386C7A46314A9
:10357800D4028357E10005473544E391E7FE03454C
:10358800060013040008E3EBA7FC9387818C9C4397
:10359800DC43829755B793862790631AD4028356E3
:1035A800E1008547EF7080102A844DF99387018DDB
:1035B8008356A9009C4303C7418C3DDF03D62700EF
:1035C8006302D6047D171377F70FA107FDB793871A
:1035D800E7A4E313F4F68357E10005473544E39F76
:1035E800E7F60345060013040008E3E9A7F6DC45FF
:1035F8002380A7009387818C9C433335A00009055D
:10360800DC4341BF1387818C184303C5470083C53A
:10361800570083C714000328070003C70400A20744
:103628008946D98FC207C18705476383E7008D465E
:103638000D66A6871307E10013062690029839BF86
:10364800411122C441641305F4FF938581A406C681
:1036580026C24AC0EF80104E1305F4FF938581A35C
:10366800EF80504D1305F4FF938581A297F4FF1F57
:10367800938444BBEF80104C97F6FF1F938686D83F
:103688004146F9452685EF801040CC4C2A890945EA
:10369800EFF08FE11387C183938741848345070047
:1036A8000346170083D7070003D7A410138481A506
:1036B8002312F4002314E40083D7A40C03D7A41125
:1036C800A306C400A30EC40003D6A4172310F40055
:1036D8002315E40083D7A40D1387018483460700CC
:1036E80003D5A41403471700231CC40003D6A41849
:1036F8002311F40085472303F4002307F400230A69
:10370800D400230BF400231DC4002302D402230693
:10371800B400A30AE4002318A400230EB40023195C
:103728000400230F0400A302E40203D7A41A23070A
:10373800F402231104022310E40213878183035740
:10374800070023030402231504022316E40203D707
:10375800A41C938581A80D452314E402EFF0CFD46F
:10376800A2852145B13EB24022444A85924402498D
:10377800410182808D67138527A36301A60493877F
:10378800D7A40145631EF6008947639CF500854769
:1037980035456397F60083470700238DF18C014573
:1037A80082808D472945E39DF5FE85473545E39998
:1037B800F6FE83470700238CF18CD5B7854735453E
:1037C800E390F6FE83470700A38BF18CC9BF8D6792
:1037D800138527A36308A6029387D7A46317F60265
:1037E8008947639BF50083C7A18D2300F7008547B0
:1037F8002390F600014582808D476398F50083C7C2
:10380800818DE5B783C7718DCDB723900600DDB7ED
:103818000145828025E303A84500AE888347180048
:1038280003480800A207B3E707010D68930EF8A440
:10383800639AD70391473548639FF60203A5C800EA
:103848004111B285114606C697D0FF1FE78040FE9A
:103858009387818E9C4305458297B24001484285F3
:10386800410182809308289029486396170185476B
:103878006F60D0632D4842858280416541119385F0
:1038880081A97D1506C6EF80F02AB24097F6FF1F82
:10389800938606BE4146994517F5FF1F130545B7A0
:1038A80041016F80501E23A4A18E8280011193854F
:1038B80081A922CC06CE2A84EF60105A058929C135
:1038C800014781460546ED452285EF6030142AC63A
:1038D80005C997F7FF1F9387A7B383D7A7050146A5
:1038E8002C002314F10085472315F100230005005F
:1038F8002285EF70903409C5ED452800EF60D02887
:10390800F24062440561828041677917630CE502E1
:10391800411122C406C685472A84639AF500228588
:103928002244B240938581A941016F80B020894724
:103938006396F5008545EFA0104A75D1B240224440
:10394800410182808280B7170040171700201307B3
:10395800C7FB2394E70617170020130747FC239695
:10396800E706130710FCA380E7068280411106C60C
:10397800EFE07F86814513050010EFE0FFCE894513
:103988000145EFE07F8EB71700403147238CE704ED
:103998000547238DE704A38107067537B24003C5A1
:1039A800D18513060064A14541016F2020401717F7
:1039B8000020130787F597160020938646F681475F
:1039C800035607000907B297E31CD7FE2947B3D768
:1039D800E70223A6F18E828082803D897D15954776
:1039E80063E3A71017070200130707E10A053A95D2
:1039F8001C41011106CEBA9782872C00130540306E
:103A0800EF90D17C2C000545EF5070181705020087
:103A1800130505E3EFE0813BF2400561828003C7AF
:103A280025008D47E31AF7FE2388018E170502004B
:103A3800130505E2C5B703C725009547E31EF7FC44
:103A480083D7A5000D6613060620914503C5A185F9
:103A5800239CF184EF20803513060064A14503C53B
:103A6800A185EF20A03417050200130565DF5DB7B7
:103A780003C725008D47E311F7FA17050200130560
:103A8800E5DE49BF83C72500114717050200130566
:103A980065DF638EE70219476394E70283C5650013
:103AA800170502001305C5DFEFE0011E854730004A
:103AB8008545130550302304F100EFA02103A9BF69
:103AC8001547E395E7FE17050200130525DFEFE02C
:103AD800E12FE9BF83C5250017050200130585DF1F
:103AE800EFE0811A15BF828001112305A10034007F
:103AF80021468545094506CE23140100A30501008A
:103B080002C6EFF08FFCF24005618280BA882A8EE7
:103B18002E8832833E879DE20D661306D6A483C69F
:103B280008006319C30089476396F5008547354542
:103B38006391F6021A86C28572852DB90548639489
:103B48000601C68669B1894701456394F600238852
:103B5800018F828001119397050122CC06CEC1877F
:103B68002E8463DC070003C5A185EF10905E19C1A0
:103B7800EF1090572165218D35A093F7150013C5D7
:103B880015008DE393F7450095C383C7A1851307F7
:103B9800401F81462146A14503D58185EF901140FC
:103BA80013454400F24062440561828093F7850022
:103BB8009DC3014789460946814503D58185EFA004
:103BC800E11EAA8517050200130585C4EFE0C10BA5
:103BD80013458400C1BF93F72500B9C703C5B18554
:103BE800213783C7B185850793F7F70F7147636B53
:103BF800F7020145A38DF184C53DB70702009387FD
:103C0800072074001146854505453EC6EFF0EFEBE9
:103C18001306007D894503C5A185EF2020191345AA
:103C2800240049B79147F1B79397350163DB070043
:103C380093868191114685450545EFF00FE90565A5
:103C48001DBF939725010145E3DE07F49386019193
:103C5800214685450945EFF04FE7096529BF011160
:103C680017050000130545EF06CE22CC26CAEF2023
:103C780000579384A18505442380A40070008545DE
:103C88001305503023068100EF9051661386818416
:103C98009D4513056030EF90716517E6FF1F130609
:103CA800E67ED54513057030EF9051641706020083
:103CB800130686B7D5450145EF60C0108D477000E3
:103CC8009145130570402305F10023048100A305E5
:103CD800810002C6A3040100EF8011193000854558
:103CE80013050040EF805118130691008545130510
:103CF8001040EF8071171306A10085451305204079
:103D0800EF8091161306B100854513055040EF80EA
:103D1800B11599477000854505452306F100EFE088
:103D28001FF5EFF0FF9197E5FF1F93852575138524
:103D38000185EFF04FD803C504008545EF10D07F0B
:103D4800F2406244D244056182809306400517160A
:103D58000020130626C281452D4517C3FF1F6700A3
:103D6800836141119306400517160020130686C08B
:103D78008145294506C697C0FF1FE780C05FB2404E
:103D88001375F50F4101828041111306400597050F
:103D98000200938525BD171500201305A5BD06C68D
:103DA800EFD03163B24041016DBF97170020938770
:103DB80067BC971600209386A6B603C73705631815
:103DC800B700A389A704FD17E399D7FE59BFE31CE1
:103DD800A7FEA389B704C5BF83C7918FCDCF03C7FB
:103DE800319155EB85462383D19083C7219103C731
:103DF800818F89EB19C301458280238CD18EA388DA
:103E0800018ED5BF9946639AD7008946630AD700C1
:103E1800238CD18EA38E018EF9BF89466310D702F9
:103E280003C7118F85466315D700A383F190E1B7C7
:103E38008946E312D7FCA382F19075BF9306C004AC
:103E4800639AD7009307000E6302F7048157238C07
:103E5800F18E55B7F9466398D7009307000F6307AB
:103E6800F702C157EDB7FD466398D7009307100FC7
:103E7800630EF700C557E1BF930600026398D700A9
:103E88009307200F6304F700C957D1B7238C018E1D
:103E9800A388018E41B703C761900545E31EA7F4C7
:103EA800A1FF41112383019006C683C7818F1307A1
:103EB800000E6384E70C636BF7006386A704094769
:103EC800638CE706B2400145410182801307100F59
:103ED8006381E70C1307200F638CE70C1307000FAF
:103EE800E392E7FE238EA18E17060200130686A52D
:103EF80081450145EF00302A971700009387E77343
:103F080023A0F186C1B783C7D18F850793F7F70F31
:103F180015476385E700A38EF18E6DB7170602007B
:103F28001306C69F81450145A38E018E238C018E01
:103F3800EF007026913D79B783C7118F850793F7F6
:103F4800F70F0D476385E700A388F18EA5BF03C768
:103F5800519083C67190170602001306669D81452D
:103F68000145A388018E238C018EEF00D02283C5E2
:103F7800719003C55190153DB1B71707020013079B
:103F8800E7CD91461306000881450145EF00701AF8
:103F980015BF238EA18E170602001306269B8145A6
:103FA8000145EF00501F971700009387876F89BF5F
:103FB800238EA18E170602001306069A8145014535
:103FC800EF00701D971700009387077A15BF4111FE
:103FD80006C622C426C2953B93840190FD57171745
:103FE8000020A30FF79C9C4037140040914593E7AD
:103FF800C70F23A0F1900327840CD98F2324F40C36
:104008008840EFE0CFF09C400327840C970602001D
:104018009386468D93F7F7F7D98F2324F40C1387EB
:10402800418F1C43170602001306468F8C429106E7
:10403800CD8FE39DC6FE23AAF18EB716004003A6D6
:10404800860A2244B240D18F23A4F60A9244084338
:10405800854541016FE04FE15D7156DA938A81AA87
:10406800CAC04EDE52DC5AD85ED662D466D26AD056
:1040780086C6A2C4A6C26ECE970902009389898615
:104088000149D68C171B0020130BCB8E138A019184
:104098009D4B138DC185171C0200130CAC909947DA
:1040A800B307F90283C44190B716004003A609007C
:1040B80083A6460AF18E3387FA00269783450700C0
:1040C800639205108DEEDA97A69783C6C18583C7DC
:1040D800070063F6DB001307F00D6372F702194758
:1040E8003307E9020546669726972300C700238D04
:1040F800C18E1307F00F639DE706A38CC18E0509D7
:10410800B9479109E31DF9F8138714001377F70FDE
:104118002382E190970702009387078A8A0437165B
:104128000040BE948326860C8C40CD8E2324D60C6A
:10413800954663F4E6002382019083C641908A067F
:1041480037160040B6970327C60C9C43B640264452
:10415800D98F2326F60C96440649F259625AD25A48
:10416800425BB25B225C925C025DF24D61618280CF
:104178001307F00E6371F70283260C000547938737
:1041880007F103C60600B317F700D18F2380F600A6
:10419800A38DE18EADB71307F00D637DF7000547DA
:1041A800938707F2B317F70003470A00D98F2388CC
:1041B800F190B1B713871600D296238EE18423803D
:1041C800F60035BF8DDEDA97A69703C407002300F3
:1041D80007000547238DE18E9307F00F6315F40060
:1041E800A38C018E29BF9307F00E63F38702032780
:1041F8000C008547130404F18346070033948700B5
:104208001344F4FF758C23008700A38DF18EC5BD80
:104218009307F00D63FF87008547130404F2339476
:10422800870083470A001344F4FF7D8C238881901C
:10423800F9B5938D01918947214783C62D00639F66
:1042480086003386FB4093853D0013852D003EC6CE
:10425800EFD03118A38B0190B24721478507850D10
:10426800E39DE7FC83470D00FD17238EF18441BDD4
:1042780011456FE02F84411193962500AA852D459D
:1042880006C697C0FF1FE780000FB24001454101F5
:104298008280411122C426C24AC02A842E89B2844F
:1042A800AA85930600200146254506C697C0FF1F2C
:1042B800E780600C931629002686A285294597C0B9
:1042C800FF1FE780400BB240224492440249014557
:1042D80041018280011122CC06CE3714004026CA43
:1042E8004AC84EC652C483447405034AB405834978
:1042F800840503499405EFD07FF98347A40593F417
:10430800F40F137AFA0F93E71700230DF40493F9C7
:10431800F90F1379F90FB717004003C7A705058BE5
:104328006DFF03D5C705A38D4705238C3705A38CDF
:104338002705A38B9704F2406244D2444249B2490C
:10434800224A0561828041119397050122C406C65D
:10435800C1872E8463DA0700EF10A05F19C1EF1040
:10436800A0582165218D11A293F7150013C51500DA
:10437800639D070E93F7250013C525006397070E65
:1043880093F7850081CFEFF08FE2EFF0CFDB1306D4
:104398000064A14503C5D185EF10502193774400EF
:1043A800638B071083C7E1908DCF2387019003C7E4
:1043B800D1908D476315F702A386019083C7A19119
:1043C800B307F040238DF19003C7C191854763126D
:1043D800F70A0946894503C5E185EF10301DEF004E
:1043E800700C9D3983C7A18FB9C7238D018EEFF05B
:1043F800BF9E01CD03C7C19185476315F7080946DC
:10440800914503C5E185EF10701A83C7B18F85C741
:10441800A38D018EA38C0190238D0190A38D019013
:1044280003C7C19185476318F7060946894503C53F
:10443800E185EF10B01783C7C19183C6819003C788
:10444800018F6383F6062384F190BE8617F6010078
:104458001306C65C814501453D2B4146914503C580
:10446800D185EF10B01413454400B24022444101F5
:10447800828003C7018FE314F7F60D46856503C5EF
:10448800A185A1BF03C7018FE311F7F80D46896520
:1044980003C5A1858DBF03C7018FE31EF7F80D463D
:1044A800856503C5A18571B783C79190E387E7FA4E
:1044B800A384E19061BF9377040195C303C7C191B9
:1044C80085476314F700EF10603413060006C145F2
:1044D80003C5D185EF10900D1345040179B79317E3
:1044E800240163D00702EF40A10D593337F60200CB
:1044F800130606E0896503C5D185EF10300B096501
:1045080095B5931714010145E3D107F617F5010096
:1045180013050552EFD0910B13060064916503C58E
:10452800D185EF10B008116535BD1D71494697F565
:1045380001009385E549170502001305E5FA86CEC3
:10454800A2CC97C0FF1FE780203201E917F50100D0
:1045580013054549EFD0910701A0B7F600E0795758
:1045680098CAFD57DCCA0567B7E700E023A0E71043
:104578001306F00290C223A0E718010001001306F9
:10458800C00381454808EF10C05F97070020938754
:10459800A7683ECA896793870780231CF100ED4707
:1045A800A301F10235449307501081460146814525
:1045B80021452312F1022303810297C0FF1FE780E0
:1045C80080DBA167938707E03ECE970700009387BB
:1045D800C7CABEC4970700009387E7CBBEC6894702
:1045E8002304F10297E7FFFF9387672B3EDAB7F5BD
:1045F800070097070000938727CE3EDE814697077E
:104608000000938727C77000E1051945BEC023083D
:10461800810297C0FF1FE78000D658088147994656
:1046280070003E960346060085070507A30AC700E3
:10463800E398D7FED24791C7035781018567637313
:10464800F70001A04808EF10503DAA8501C917F5E9
:1046580001001305653AEFD0216301A0F6406644D6
:1046680025618280130101DE2D4697F501009385AF
:1046780065DF2800232E1120232C8120EFD06155DF
:104688001306D01F814513053101EFD05FAA170526
:104698000000130585CBEF1090341384D1852300D7
:1046A800A400EF0050098D26EFF04FACEF00701515
:1046B80085452800EF004079EFF07F91EF00707991
:1046C8000345040037F60200130606E08965EF107B
:1046D800E06D2800EFD0816F340017F60100130653
:1046E800A63381450145452C8320C121032481211E
:1046F800130101228280B717004003A7870C1367B4
:10470800071023A4E70C03A7870C1367072023A42B
:10471800E70C03A7C70C1367071023A6E70C03A72A
:10472800C70C1367072023A6E70C8280B717004041
:1047380003A7C70C1367071023A6E70C03A7870C6A
:104748001367072023A4E70C03A7870C1367071038
:1047580023A4E70C8280371700408327C70C93E710
:1047680007202326F70C2147B71700409316850129
:10477800E18663DD060483A6870C93E6061023A46E
:10478800D70C03A6870C7D1706051366062023A4FD
:10479800C70C03A6C70C1377F70F1375F50F13662D
:1047A800062023A6C70C9386870C9385C70C5DFF4C
:1047B80083A7870C93E707109CC29C4293E70720C6
:1047C8009CC29C4193E707209CC1828083A6C70CAA
:1047D80093E6061023A6D70C6DB701112EC606CE98
:1047E80022CC2A84093F13058007B537B245014515
:1047F80099C11305000485372285B13F6244F24010
:1048080005612DB7411122C42A84138505FB137550
:10481800F50F814506C6D137135544008145136508
:104828000501653F1375E4002244B24081451365D4
:10483800150041015DB7411122C44AC006C626C20F
:104848001304000B1309800B8145228579378145B4
:10485800014561378145414549379304000885453D
:104868000145FD149D3FE5FC05041374F40FE31D99
:1048780024FDB24022449244024941018280011140
:104888009317850122CC011606CE26CA4AC84EC601
:10489800E1871374F60F63D60700890593F5F50FC2
:1048A8000145850593F5F50FB13F19463304C40258
:1048B800814497F901009389E9171949B3079400CE
:1048C800CE9703C5070085458504013FE39824FF7B
:1048D800F2406244D2444249B249056182800111E2
:1048E80022CC26CA4AC84EC652C406CE2A842E896D
:1048F800B2898144130A8007B387990003C6070069
:1049080009EAF2406244D2444249B249224A056166
:10491800828022852104CA851374F40F8D3763764B
:104928008A0009091379F90F0144850493F4F40FF7
:10493800E1B7011122CC26CA4AC84EC652C456C293
:1049480006CE5AC02A89AE84328AB689BA8A014408
:1049580063EC3401F2406244D2444249B249224AEB
:10496800924A024B05618280A6854A85613D330BD8
:104978008940B3078B0093F7F70F63E64701850477
:1049880093F4F40FF1B7B3878A0003C50700854590
:104998000504A135F9BF5D7126D24AD0AA842E89B3
:1049A8000808B2857018BAC0BEC206D636DEC2C4C0
:1049B800C6C632C622D402C802CA02CC02CEEFD082
:1049C800A1452A848D3D1008CA852685093F83C7DD
:1049D800A19025476376F7029385D1B31306002487
:1049E8001385C1AFEFD0E11E0C08138551D4EFD069
:1049F800A13E2285B25022549254025961618280AC
:104A080085072385F190F5B7B717004003A7870CF2
:104A1800411106C61367072023A4E70C03A7870CD8
:104A28008D45130500201367071023A4E70CEFD06A
:104A38001FCE8D4513050010EFD07FCD1305800CD8
:104A480097C0FF1FE780C08181451305E00A7133D5
:104A5800814513050004513381451305000BB53B0F
:104A680081451305800C953B814513051008B53326
:104A780081451305F00F953381451305100AB13BA5
:104A880081451305600A913B81451305800AB133BE
:104A980081457D45993381451305300D3D3B814561
:104AA8000145253B81451305500D053B81451305FF
:104AB800000F253381451305900D053381451305F6
:104AC8002002213B81451305A00D013B8145094585
:104AD800293381451305B00D093381451305900429
:104AE800ED3981451305D008CD3981455145F5315A
:104AF80081451305F00AD5313D3BB240814501455A
:104B0800410109B3411122C4616426C206C61304D7
:104B1800146AB714004083A7440C139727016358FD
:104B280007000145B24022449244410182807D142D
:104B380005456DD897B0FF1FE780A071E9BF0DC587
:104B4800D1B77D14054501CC97B0FF1FE780607091
:104B580083A7440C13972701E34507FE0145B2409C
:104B68002244924441018280411122C4616426C2D8
:104B780006C61304146AB7140040D9BF011122CC29
:104B8800371400408327840C4AC8096906CE26CA10
:104B98004EC6B3E7270152C42324F40C8326840CA1
:104BA80085648D45C58E2324D40CAA890965EFD068
:104BB8001FB68D450565EFD09FB50327C40C1305B7
:104BC8008007336727012326E40C97B0FF1FE7808F
:104BD80040688327C40C2945C58F2326F40C97B059
:104BE800FF1FE780006709658545EFD05FB2014583
:104BF800B93711C90545F2406244D2444249B24925
:104C0800224A0561828021490144B7140040056A9F
:104C180093F71900B5CB83A7840C0504B3E74701C4
:104C280023A4F40C93D91900F13D69F5093F79F1F2
:104C38007D19E31F09FC05883717004029CC832715
:104C4800C70C8566D58F2326F70C6D3D45F5C53D08
:104C580055F1371400408327840C0567D98F232426
:104C6800F40C4D3541F905658545EFD05FAA01453E
:104C7800F93549F18327440C13973701E34C07F6BC
:104C880051353335A00085BF83A7C40CB3E747016E
:104C980023A6F40C41BF8327870C8566D58F232470
:104CA800F70C65B7371700408327870C8966854559
:104CB800D58F2324F70C09656FD07FA5411122C435
:104CC800371400400327840C26C2896406C6458F22
:104CD8002324E40C91450965EFD07FA38327C40CF6
:104CE800B240C58F2326F40C2244924441018280AD
:104CF80079714AD02A891305200306D622D426D2F0
:104D08004ECE97B0FF1FE780C054693F514597B01A
:104D1800FF1FE780005401451D3509C90545B250FC
:104D2800225492540259F249456182802A84A1444E
:104D3800B7190040C13B7DF119356DF183A7490CC6
:104D480005801374F40F1397370163540700136435
:104D58000408FD14E5F07D3371F1D53361F1B7171F
:104D6800004083A7470C793B55F9D13B2AC65DF52E
:104D7800B1373245230089005DB7011122CC06CE38
:104D88002E84ED3B854719E91305F10095378547D2
:104D980011E58347F100818FB337F000F240624498
:104DA8003E8505618280371700408357E70993964F
:104DB800270163DA06088967231FF70883C7B190BC
:104DC800850793F7F70FA385F19085466397D7007A
:104DD80023860190A38701908280A54663E7F602A7
:104DE80083C7C19085832386F1900327470C9316C8
:104DF800370163DA060493E707F82386F19083C73F
:104E0800F1908507A387F19082802D47639DE70283
:104E1800411106C683C7D19003C7C19081EF218B8A
:104E280019EF693DB240A385019085472387F1902A
:104E38004101828093868191BE962380E600850792
:104E4800A386F190F9BF8280371700408327870C2B
:104E58000111896606CED58F26CA4AC822CC2324DA
:104E6800F70CAA842E8909659145EFD05F8AB93578
:104E780085450565EFD0BF899305A00F1305F00F91
:104E8800ED3D97F50100938565FD19ED1305F100DA
:104E9800853519E50347F1009307A00A6301F70276
:104EA80097F50100938505FD2685EFC0F17205444D
:104EB8002285F2406244D24442490561828013054A
:104EC800F1003D358347F10097F50100938505FC16
:104ED8005D8D1375F50F69F99305A00F1305600F24
:104EE800693D97F501009385E5FB5DFD9305A00FEE
:104EF8001305400F59352A8497F501009385C5FBA2
:104F080045F563020902793B294597B0FF1FE78001
:104F1800203589450965EFD0FF89B7E700E03707F5
:104F2800040023A0E71097F50100938565FA26850C
:104F3800EFC0916AB5BF411106C6B7170040130705
:104F480070052380E704130780FA2380E70403C76A
:104F5800F7021377A70FA387E70203C7F7021367C0
:104F68002700A387E702EFF0AFB01305407E814723
:104F78000147814605468545EFD02FD6B240014509
:104F880041016F10605593F7150091CBB7E700E02A
:104F98003707400023A0E71013C515008280411190
:104FA80022C406C693F725002E8495C797070020CC
:104FB8009387879488431146938581911305050447
:104FC800EFC031411145EFD05FA413452400B24032
:104FD80022444101828093F745000145EDDB9707A4
:104FE80000209387279288432146938501911305D2
:104FF8000504EFC0113E2145EFD0DF9F1345440063
:10500800F9B7411117050000130525F806C622C493
:10501800EF10E01C970700209387079C17070020D4
:105028002320F78E97070020938707A717070020EC
:10503800232AF78C97070020938707AE1384E1850E
:1050480017070020232AF78A970700209387C7B4F9
:105058002300A400170700202322F78AEFD0BF906F
:10506800034504002244B2400146854541016F00D2
:10507800F0538147170600201306C68813F7F70F69
:105088006364A7006FD01F9718423E9783460700B6
:10509800850793C6F6FF2300D704CDB781471706C7
:1050A80000201306668513F7F70F6364A7006FD017
:1050B800DF9518423E9783460700850793C6F6FF9B
:1050C8002300D704CDB781471706002013060683AF
:1050D80013F7F70F6364A7006FD09F9418423E97A9
:1050E80083460700850793C6F6FF2300D704CDB78C
:1050F8008147170600201306A68013F7F70F63648D
:10510800A7006FD05F9318423E9783460704850730
:1051180093C6F6FF2300D708CDB7B787004003C76B
:1051280067001377F70F937627006386064C011103
:1051380006CE22CC26CA4AC84EC603C777009306B5
:10514800000313770703630BD70203C77700914661
:105158001377F7036303D72263EEE60A8546630EE7
:10516800D71A6309071A89466303D71C8D46630358
:10517800D71EB787004009472383E70037870040D9
:1051880083477700E207E18763DF072E930720FC58
:105198002301F70297F6FF1F938686768842034716
:1051A80075008347650022075D8F970700202390CD
:1051B800E7828347150017060020230BF680034972
:1051C800050013760906630A061CDD1705476361A7
:1051D800F72A62091359894181466356090297F7EC
:1051E800FF1F83D7C77E930600043E8763F4F6004B
:1051F8001307000442074183998F9376F70F17F737
:10520800FF1F2316F77CB78700402380D7021307B8
:1052180000FC9DA4930620026305D71263E3E6020F
:10522800930600026306D70493061002E313D7F42B
:1052380003C767021377C70F136727002383E702A3
:105248000DBF930630026301D71293064002E312A2
:10525800D7F203C72703134707042389E70203C7C5
:1052680027031377C70F136727002389E70211B7AE
:1052780017F7FF1F0347C7759546630DD70699466D
:105288006317D70897F7FF1F9387677403D407003E
:1052980013070004BE84637487001304000497F79F
:1052A800FF1F9387E76517F9FF1F1309A972884342
:1052B80042048325090041802286EFC0911183D7DB
:1052C80004009379F40F818F17F7FF1F2311F770EC
:1052D800832709003E9497F7FF1F23AD876EB78792
:1052E80000402380370303C727021347070423819D
:1052F800E70241B503C7370097F6FF1F83C6266D3F
:1053080013770708558FA381E7000947CDB7238096
:105318000702E5BF83C78700A9BD03C777001377D6
:105328000704E30807E403C58700A13399B503C759
:10533800770013770704E30E07E203C58700B93B3C
:105348000DBD03C7A7021377C70F1367270023856F
:10535800E70205B503C7770013770704E30B07E0F7
:1053680003C587008D3331B503C7E7021377C70F2D
:10537800136727002387E702EDBB03C7770013777E
:105388000704E30807DE03C7270313470708238931
:10539800E70203C58700A93BE9BB2946636AF60C07
:1053A80017F601001306C6B38A07B2979C43B29753
:1053B800828783473500834625000946A207D58F93
:1053C80093D687006388C60C6369D6008547638CCB
:1053D800F6021304F00F814789A08D456389B60E44
:1053E80093072002E397F6FE83474500E1E397F72A
:1053F80001009387A7B197F6FF1F23ADF65C014420
:105408009307E00319A897F70100938727BB97F63E
:10541800FF1F23A1F65C0144C947C207C18363F695
:10542800E70017F7FF1F2314F75A97F7FF1F938713
:10543800075A03D607009307000463F4C70013064E
:10544800000497F9FF1F9389E9589314060183A56F
:105458000900C1802686EFC0C17703A609002696F9
:1054680097F7FF1F23A8C7569307F00FE313F4D647
:10547800B78700401307F0FC2381E702B787004095
:1054880009472383E700F2406244D2444249B249C3
:105498000561828097F70100938787AE97F6FF1F13
:1054A80023AAF65201449307B00385BF8546639942
:1054B800D70697F60100938666A917F6FF1F232BD8
:1054C800D6500144238EF19093074003B9B793F760
:1054D800F70F85466380D7028DCBE39CC7EE97F71D
:1054E80001009387E7AF97F6FF1F23A5F64E014407
:1054F800A94725B797F70100938787AD97F6FF1F50
:1055080023AAF64C0144B94709BF97F701009387CE
:10551800A74997F6FF1F23AFF64A01449147F5BD07
:1055280001449307F00FD5BD8347250017F7FF1FE8
:10553800231FF74879B997F7FF1F83C72749230027
:10554800F50017F7FF1F035787488547E3F3E7C8B8
:105558008547E9BF8347250017F7FF1F2308F7464C
:105568008DB91377F9018947E314F7F083474500AC
:105578006381E704636CF7000547E39BE7EE378731
:1055880000408347670293F7370799A0130710086D
:105598006388E70213072008E39CE7EC378700409D
:1055A8008347A70293F7C70B93E727002305F70262
:1055B8000DB1378700408347A70293F73707FDB738
:1055C800378700408347670293F7C70B93E72700A5
:1055D8002303F702FDBE23000500A5B7230005003D
:1055E8009C42A380070017F7FF1F0357473E8947D0
:1055F800E3F1E7BE25BF937617008DC2A3810700AC
:1056080009472381E70249472383E7022385E70205
:105618002387E70205472383E700828093764700C4
:10562800FDDA83C75700918B99C3238E0190B78702
:1056380000401147CDB797D7FF1F9387275517F716
:10564800FF1F1307A716E14694C39107E39EE7FEE1
:105658008280411122C4371400408327840A06C679
:105668008D4593E707402324F40A13050040EFC053
:10567800BFFF8327C40A8145014593E707402326D6
:10568800F40AEFD0AFA4B727004022441307B004B0
:1056980023A6E740B24023A00192410169BF938746
:1056A800019217D8FF1F1308684E9443A1458147FC
:1056B800C2881303807001463387C7003395C6003C
:1056C8004207137505084183130E300311E1614E3B
:1056D8000A0742972320C7010506E31FB6FC0146C7
:1056E800938E87003387CE003395C6004207137523
:1056F80005084183130E300311E1614E0A074697EE
:105708002320C7010506E31FB6FC0146938E070157
:105718003387CE003395C6004207137505084183C9
:10572800130E300311E1614E0A0746972320C70183
:105738000506E31FB6FCE107C207C183E39D67F6D0
:1057480083C7D1911387F6FF99E31387160023A027
:10575800E192BD466303D70009E793B71700A38E0C
:10576800F1908280138701921C433A8593F61700C3
:1057780099CA850723A0F1921307101C6377F708CD
:1057880023A001928280854613D617001307A00430
:1057980063F4F6001307F6FF9306B0043377D702D5
:1057A80093060006E14561483307D70297D6FF1FE5
:1057B8009386C63D3697FD15C20523200701C18192
:1057C8001107F5F913076009B3D7E7021307B00407
:1057D800130830033377E602130600068E07938515
:1057E8004700A1073307C70261463697814663EC35
:1057F800B60063FAF6002320070185061107E3982F
:10580800C6FE1C41BDB710C3CDBF8280411106C67C
:1058180083C7C18F95CB238E018EA38E019023A0C1
:105828000192113DB24017F6FF1F1306A60297D545
:10583800FF1F9385A5354206C20581464182C18175
:10584800054541016FD00F8A938701869C43829753
:10585800D1BF41111305800406C697B0FF1FE7802A
:105868004086371700408327870CB70620008D45F0
:10587800D58F2324F70C37052000EFC05FE9930587
:1058880000080545EFC0BFFBEFD0CF8A17F5010030
:10589800130585C5EFC08153EFE03FC9EFE09FDCFA
:1058A800EF800151EFD09F9AEFE06FBB29469145F9
:1058B80003C5D185E5292946C14503C5D185FD2103
:1058C80097B0FF1FE780E011E5BF23AC05FE1C4140
:1058D80091E7010001000CC18280BA8703A787FF06
:1058E8006DFF23ACB7FE82801DC18346E5FF130719
:1058F800F00F9147639EE600411106C697C0FF1F4F
:10590800E7808056B24081473E85410182809547B5
:105918003E85828001E9014582800145B2402244EA
:1059280041018280411122C42A8421054205930540
:10593800D004418106C697C0FF1FE780604371DD30
:10594800FD5723200500231285002303F5002105B8
:10595800F1B717170020130727AC1C43411122C4C5
:1059680026C24AC006C601440149BA8489E7A1652E
:105978007D2D1DC401A803C7E7FF631AA7020DCC3C
:10598800A1655D2E9840832784FF6319E4021717E9
:1059980000202323F7A8FD57232C04FE230FF4FE31
:1059A8002285B2402244924402494101828011E09A
:1059B8003E8983A787FF5DBF3E84E5BF232CF9FEA0
:1059C800D9BFB1CD411122C406C62A849717002039
:1059D80083C7D7A42E856375F400894763E88700D9
:1059E80021370D45B24022444101828083A785FFBB
:1059F80099E703C7E5FF9307F00F6305F700ED3557
:105A08001545CDB7238F85FE171500201305C5A0B2
:105A18006D3D22852244B240A165410131AE154554
:105A280082809717002023A9079E8280971700205D
:105A38009387C7A29C4399E33E85828003D72700BA
:105A48006316B70003C70700E308A7FEDC47E5B7FE
:105A5800B9CD011106CE22CC26CA8147C14633D71B
:105A6800F540058B21C317170020130727A312053C
:105A780004433E950E05AA9405443314F4009C4053
:105A88004204418089C7C8402EC68297B24523A0E8
:105A9800040023A20400A18DF2406244D2442E8562
:105AA800056182808507E39CD7FA0144EDB72E850E
:105AB800828041111397050122C406C626C24AC036
:105AC80041872E84635E0700693511C1313DA167A6
