:040000006F20C00DA0
:100004000000000000000000900000201C020020FE
:10001400A9BDF9F5940000200000000000000000D4
:10002400960000209800002000000000000000005E
:100034009A000020000000009C0000200000000046
:100044009E000020A0000020D6020020A400002072
:10005400A6000020A8000020FC020020AC00002024
:10006400AE000020B0000020B2000020B400002048
:10007400E2020020B8000020BA000020BC000020EA
:10008400BE000020C0000020C2000020C4000020E8
:1000940001A001A001A001A001A001A001A001A054
:1000A40001A001A001A001A001A001A001A001A044
:1000B40001A001A001A001A001A001A001A001A034
:1000C40001A001A001A0B71700409306700523808A
:1000D400D704130780FA2380E7040100010003C654
:1000E400B7041376F60DA385C7042380070413769B
:1000F400050251CE03C6A700118A1DE22380D7044E
:100104002380E7040100010003C7A7001367470029
:100114002385E7009307004B01000100FD17EDFF65
:10012400B7170040930670052380D704130780FA9D
:100134002380E704010001007D892394A7000100C6
:10014400010001000100238007042380D7042380D9
:10015400E70401000100372700408546A303D78048
:1001640023800704B7170040130770052380E704B2
:10017400130780FA2380E7040100010003C7B704D2
:1001840013670708A385E704238007048280137696
:10019400050425CA03C6A700418A1DE22380D704AB
:1001A4002380E7040100010003C7A70013670701C8
:1001B4002385E7009307007D01000100FD17EDFF93
:1001C400B7170040930670052380D704130780FAFD
:1001D4002380E704010001007D891365050423944D
:1001E400A70001000100010001002380070423800F
:1001F400D7042380E7040100010037270040894623
:10020400B1BF2380D7042380E7040100010003D792
:1002140087001367070C2394E700A9B781460146BA
:10022400814511456D22B7170040130770052380DF
:10023400E704130780FA2380E704010001007D57D7
:100244002396E70203C76704136717002383E704B1
:100254002380070401A0BD473305F50201007D1585
:1002640075FD8280411122C426C206C6AA840144B7
:1002740063179400B24022449244410182800504F1
:100284001305803E4204C13F4180DDB7411106C6DB
:1002940085660146814505451D2A7DF9814601464D
:1002A400814511452D22B71700401307700523809F
:1002B400E704130780FA2380E704010001007D5757
:1002C4002396E70203C76704136717002383E70431
:1002D4002380070401A0975000E0E78000687300C2
:1002E4002030B7170040130700032388E70285472F
:1002F400175700002326F79073002030976000E022
:10030400E78060C273002030411106C6EF00E0723E
:10031400F5BF2303048015472303E480010023026F
:10032400A480828083076480E3CE07FE23030480D5
:10033400828083076480E3CE07FE03454480828085
:1003440083076480E3CE07FE2302A48082804111E8
:1003540026C44AC24EC006C61377F50BAD47AA8918
:100364002E8995446306F70019456537653F8D442A
:100374004E854537FD59FD1463983401B240A244BB
:100384001249824941018280135509011375F50F01
:10039400453F2209CDB7011126CC06CEB70408008B
:1003A40051371545BD37713769372AC6A53F3245E0
:1003B4009377150089EB136515001375F50FF2405B
:1003C400E24405618280FD14E9FC0145CDBF397129
:1003D40026DC4ADA4ED852D656D45AD25ED006DE3D
:1003E40062CE66CCB7E700E07D5783AA070022C639
:1003F40003AA470023A0E71823A2E718B717004071
:10040400130770052380E704130780FA2380E704A9
:1004140083C74704930B75FFB684E20793FBFB0F76
:100424008546AA892E8B328937240040E1870157FB
:1004340063FA76016308D500894613070002631343
:10044400D5000157D98F93F7F70FB71C00402382CB
:10045400FC0411472303E4801305F00F5D3D094CB0
:10046400D135636D7C11B7050700DA95378707002E
:10047400795563F2E504B3879500636EF702370B91
:100484000800A94733EB65016399F90689E48144BF
:10049400513D26850DA0DA850945553D05090345DD
:1004A400F9FFFD14050B693D81C49377FB0FFDF73C
:1004B400DD3569FD7D55B7170040130770052380AE
:1004C400E704130780FA2380E70403C74704418B3A
:1004D4002382E704F250B7E700E023A0571123A2D8
:1004E4004711E25432445259C259325AA25A125B49
:1004F400825B724CE24C21618280A5476395F906C8
:1005040085691309F00FB3069900B3742B01B694EF
:100514001349F9FFB3749900856B33796901416B11
:100524009387F9FFB3F7270199E363FC340193D967
:100534004900C147E3E637FF99BF0569C1697D19E1
:10054400D9B71305800D638869011305000263841C
:10055400790113051008CA85DD3B353D21DD4E992F
:10056400B3843441D9B7DA852D45D533CA94E30031
:1005740099F205097D3BA30FA9FED5BF9387F9FF27
:1005840093F7F70F6361FC0C83C71C04130730084F
:10059400631FF70437070800636BEB04B3079B0082
:1005A400B706100063F5D704334BEB008947639318
:1005B400F9068980D549E38C04ECDA850945413B89
:1005C40011090327C9FF91472320E48003076480AE
:1005D400E34E07FE23033481FD17EDFBFD14110BDD
:1005E40081C49377FB0FE9FF7D3371F5E1B5B7174C
:1005F400004003C75704B70708001377070219E33D
:10060400B78707007955E378FBEA33079B00E3FFDC
:10061400E7F855B58547E382F9F2DA852D45053BC0
:100624009389F4FFE38504E6293393F7390091EBCA
:10063400832604800327090093074900E39AE6E42C
:100644003E89CE84F1BFB5476396F9001305900B3C
:10065400C93135BDB1471305B00AE38BF9FE99479B
:100664006391F904B7050800B365BB002D45C53196
:1006740081448D4BA14975396396740183270480A5
:100684002320F9008504E39834FF8327048013179B
:100694002B01635507002312F900D5BB2322F9006F
:1006A400FDB39D476399F90281451305B0044531B3
:1006B400BD442320090023220900FD599D3993F7E5
:1006C4007400CA9703C70700FD14398D2380A7005F
:1006D400E39634FF6DBBA1476392F9046D398144FD
:1006E400630D0B008D479304C0036308FB00930460
:1006F400000563048B01930440041375C507E308E4
:1007040095D81945393139390545213126850D39B1
:1007140009453D314931E31C05D669BB91476399CD
:10072400F90013056006F536F53E130590090DB77B
:10073400E38F09D4F154A9BB176700000347B7122C
:10074400914763E2E7149767000083C72714918BEE
:10075400639B071297670000938787F3904397661C
:10076400000083C636EF814763CED706011122CC41
:1007740017640000130404EE584426CA06CE976793
:10078400000083C797F2976400009384E4F06365E4
:10079400F70C6800973001E0E780A036FD57630A44
:1007A400F50C32479767000083C737F063F6E70A12
:1007B4005844634107048D2132475C446373F70056
:1007C400BA8717670000034757EE998F3E958387D2
:1007D400440163C60702B707C0A86362F502B707FE
:1007E400405771A01397170032970357070041EF42
:1007F40085079DBF03874401635507061D8D176454
:1008040000001304E4051C4C81CF97670000938714
:10081400270994433707CDFF7D179C46F98F9CC663
:1008240019E13705C0A8DC50829719E91C4C8DC723
:1008340097A001E0E780C087979001E0E78000D5AA
:100844001C4C99CB97670000938787059843B7069C
:1008540033001C47D58F1CC7F2406244D244056163
:100864008280E37DF5F83707C0A8B307F7403E95CB
:1008740079B75C44E3C207FE4526176700000347C7
:10088400D7E25C4499B7828019CD91CD09CE8147D6
:100894003387F500834607003307F50085072300F7
:1008A400D700E397C7FE828019C991C909CA910587
:1008B40083A7C5FF11057D16232EF5FEC5BF8280D3
:1008C400854715C18DC105C28147B306F50033873D
:1008D400F50083C60600034707006398E600850712
:1008E400E315F6FE85473E8582808147EDBF797129
:1008F40097670000938707DA22D4804306D626D26E
:100904004AD04ECE52CC56CA5AC85EC67DC0814427
:10091400176B0000130B8BDC176900001309C9D790
:10092400176A0000130A0AD3B709C0A8B70A4057C8
:100934008357240085E35C4481EC17670000232B74
:10094400F7D4832BC4002285EF1080575E8461A006
:10095400DCC4C5BF83270B0082971C44636FF50278
:100964003307F540635E07020327490219CF0307E3
:100974004901635F07003387A7408327CA00637672
:10098400F7009767000023ADE7CCA2844044A1A000
:100994000147E384A7FECE97F9BF898F63DE07067C
:1009A4009767000023AE07CA83552400034504005B
:1009B400977000E0E78060AD5C405844B1C71444D0
:1009C400B6978306490163C5060063E33701D697EA
:1009D4001CC4A2843A8429FC97670000938787C7C4
:1009E400DC4711476376F704F117176700002329E2
:1009F400F7C6B250225492540259F249624AD24A7A
:100A0400424BB24B4561828091E49767000023A377
:100A1400E7C805BFD8C435B7032749023DD7032724
:100A2400CA00E3F4E7F617670000232BF7C2B1BF4F
:100A34009767000023A607C26DBF411122C4176443
:100A44000000130464C31C4006C626C291C78297E3
:100A54009767000023A207C25C4091C382971C40A1
:100A6400639E07169767000083C7D7DF858BF9CF8E
:100A740097670000A38807DE176700000347B7DE07
:100A8400914763FDE700EF00B0569767000083C706
:100A940097DDF5178A07A2979C4382979767000012
:100AA400938707BF9843176600000346B6BABE840F
:100AB4009767000083C707BA93961700BA9683D640
:100AC4000600D1CE9767000083C7C7B863E3C70A9F
:100AD40097670000238007B81C406391071097674D
:100AE400000083C777D891CF9767000083C7B7D733
:100AF40089EB97670000A38907D6979001E0E78008
:100B0400E0E797670000938767BD9C43E1CBFD57FF
:100B1400176700002326F7B4D93B97670000938733
:100B2400A7B7DC5391C30939976700009387C7BA05
:100B34009C43CDC78297976700009387A7B19C4BCE
:100B44003E959767000023AFA7B049A897670000B8
:100B540083C7C7D3918BB9D3EF10601A81B78507C8
:100B640093F7F70F976600002386F6AEE3E2C7F427
:100B740091BF86073E97976700009387A7AF835579
:100B840007009C432310070017650000034585AC4C
:100B940013172500BA979C4382979767000083C771
:100BA40067AB139717009C40BA9703D70700598D7A
:100BB4002390A7009767000083C7C7A991C785073B
:100BC400176700002308F7A817670000034787A8E2
:100BD4009767000083C717A8E37CF7EEB24022446E
:100BE400924441018280AD6737C70040BD07232688
:100BF400F7200F100000976700009387A7A5884F80
:100C040083278726BD66BD0693C7F7FF99836A05C8
:100C14002326D7205D8D82804111B7170040985F4D
:100C24003AC6945F3247E39CE6FE32454101828036
:100C34000327850F19E3054582808347C50093F791
:100C4400C70F2306F500034687008356C700931594
:100C54008601E18563D8050A137816008355E518E3
:100C64006302080613E617002306C50063F8D502DD
:100C74000348A502A30AB500176600000346D6A2DE
:100C84006376C80093E717012306F5008D8E2316BB
:100C9400D7008547A30CF50001458280104309CE97
:100CA4008345A50217660000034616A063F6C50037
:100CB40093E717012306F500A30AD5008947A30487
:100CC400F700C1BF13E8270023060501E3F5D5F6B5
:100CD4008D8E130810F813661600A304070123046D
:100CE400C7002316D7008346A502176700000347F1
:100CF400B79B63F6E60093E727012306F500A30AF2
:100D0400B50041BF054893E527006314060193E548
:100D140017002306B500A30AD5008947A304F700EA
:100D24001C43A5DB0347A5029767000083C7D79739
:100D3400E371F7F693E505012306B50099BF9767BC
:100D44000000938767AE9C43411122C406C6858B7D
:100D54002A84CDEB4165130525F5974001E0E78032
:100D640000B34DC18347A5002315F5008327041064
:100D7400A5E72320A4102322A4108547231CF402F2
:100D8400232005008347640154412316F5000347DB
:100D9400D4002304E50017670000130767AC184F5D
:100DA4001385170215811C437D151375F50F9CC21D
:100DB4005C43DCC21C479CC65C47DCC61C4B9CCA1B
:100DC4005C4BDCCA1C4F9CCE5C4FDCCE19CD9386A9
:100DD400060213070702C1BF8327441088C3835741
:100DE40084032322A410850751BF9767000083D78B
:100DF400E7B3850717670000231AF7B2B24022440D
:100E0400410182808347C40023090400054593C738
:100E140047002306F400DDB78347E50193F7E70FA6
:100E240091CB014582800145B2402244924402495B
:100E3400410182808347F501EDF78346250103478D
:100E4400C50089CA0346A5029767000083C71786B1
:100E54006367F60093770701E9D7814789C6418B19
:100E64008357C51801C703570519BA97DDDB176700
:100E740000000347A78341111316870106C622C445
:100E840026C24AC06186635006069387C71313D4EB
:100E9400570097670000938767A783A6870897641E
:100EA400000083C444817D59B705C0A883A74608C0
:100EB40003D78607635B06043387E7406373270120
:100EC4003A899442E5F697670000938727819C430B
:100ED4008297E36AA9F43305A94026943334850044
:100EE4001345140091B7058B9387C71209CB8A0762
:100EF4001384F7039307D0073354F40259BF8607CA
:100F04001384F7019307D003C5BFE3F7E7FAAE975D
:100F140065B7176600001306669F032786086304F7
:100F24000746797126D2975400009384E476838827
:100F340044018325060906D622D44AD04ECE52CC8B
:100F440056CA5AC85EC601457D583703C0A88326D1
:100F540047088357870763D20812B387F64063F5BF
:100F64000701BA853E880545184375F309C5976797
:100F7400000023A5B7A203240609856917590000B8
:100F84001309C975370AC0A8B70A4057054B938996
:100F9400B94783270900832B440882976370752F10
:100FA400035784079757000083C7E770B38BAB40A0
:100FB400BA9763EE771F83574403A30E0400228578
:100FC4008507231AF40283470412C5CF8D21228595
:100FD400973001E0E78060DA51E583864401230518
:100FE4000402832744080355840763DE0608B38993
:100FF400A74003270408232E3407BA9763C90600C1
:10100400B706C0A863E5D700B7064057B69783462E
:10101400B4002322F4088547639FF6068357240708
:10102400035604036369F606034604016315D606F2
:101034008326840FADE283268409B1EE0346F400CF
:101044009306000C6319D604B387E70203278408C8
:10105400B3D7E702175700000347D7650507BA97C8
:10106400231CF406B250225492540259F249624AA3
:10107400D24A424BB24B45618280E3F0F6EE9A9637
:10108400E9BD1926A9B7E3F4A7F6B709C0A8BE9924
:10109400B389A940B9BF83270900829797570000F5
:1010A40083C7C7601397870161876358070833852F
:1010B400A94079C1832604086370D50C63550708D9
:1010C4001605B717004083C7F702E207E18763C339
:1010D40007004115175700001307477A1443B567F3
:1010E400BD07DCC60F1000001C4306050967E8D3E2
:1010F40098C7130700F8975600002385E6763D67E6
:101104003D07D8C7979001E0E7800084979001E0FD
:10111400E78060940347B400854781456313F7046F
:10112400177501E013052563976000E0E7804070C0
:10113400930700FD2307F40035B7E3FAA9F6B706D1
:10114400C0A8B699ADB7858B99C79307803E330580
:10115400F5021581BDB79307D0033305F502058168
:101164008DB7174501E013056519976000E0E78026
:10117400206C930710FC7DBF0347B400854703A38D
:1011840004036317F7009545E30E03EC154529A006
:10119400E30A03EC954519452254B250925402597E
:1011A400F249624AD24A424BB24B4561028363D64A
:1011B4000B068357440322858507231AF4028347C9
:1011C4000412B1CBAD242285973001E0E780E0BA68
:1011D4000327040883274408BA9703874401634517
:1011E400070063E34701D6972322F4088347B4003A
:1011F400639767012285977001E0E7808000834749
:10120400D40185458507A30EF4009C58E38307D8D1
:1012140015458297BDBB8D2A7DB783572403175785
:1012240000000347A74893168701E1868E0763D71A
:1012340006021307204EB387E7029583E3F477E3AE
:10124400A1452285973001E0E780A0AA2302A402E9
:1012540003A304038945E31B03F229B5058B11C7D6
:1012640013078002B387E702D1BF05671307B747A7
:10127400B387E702938707049D83C9B78357240381
:10128400175700000347874293168701E186B30B83
:1012940075418E0763D0060A1307204EB387E70211
:1012A400958363F2FB0C83270900829783574403D9
:1012B400AA8B22858507231AF40283470412C1CB23
:1012C400BD222285973001E0E78020ABE31C05D8DE
:1012D4000327040883274408BA9703874401634516
:1012E400070063E34701D6972322F4088347D40118
:1012F40013F7070F39CF2285972001E0E780A05F1D
:10130400A30E040083274408E3FFFBF88347B400DB
:10131400639567050357240783570403E3FBE7C674
:101324002285977001E0E780C0ED9C58E38307C6EF
:101334008D45F9BD058B11C713078002B387E702FA
:101344008DB7B3873703938707049D8399BF2D28EF
:101354008DBF8507A30EF40075B79C58E38B07C2B5
:101364008D4519457DB5E3CF0BCEA1452285973038
:1013740001E0E78000982302A40203A30403E3032B
:1013840003CE914521B58280797126D206D622D426
:101394004AD04ECE52CC56CA5AC85EC6834785023E
:1013A40003447511AA843E941374F40F9307400206
:1013B40063F687001304B4FD1374F40F03AA8411B5
:1013C40083AAC411A38B841022865285D6859720C4
:1013D40002E0E78040B9058915E503CBD410014943
:1013E4008149337B6403930B50024A865285D68528
:1013F400972002E0E78020B7058915C5639169034A
:101404001374F90F238B8410B2502254925402594E
:10141400F249624AD24A424BB24B45618280850905
:10142400E20993D989410509E31179FDE1BF8327D5
:10143400C50803564503797193D60701BD8EC206CC
:10144400C182358E1357764093575640898B058B4E
:101454005D8F93573640918B5D8F93571640A18BC8
:101464005D8F93171600C18B5D8F9317360093F72A
:1014740007025D8F931756009355860093F7070470
:101484001E065D8F1376F60F518F93D7554013D6F2
:101494003540118A898BD18F13D67540D18F13D6DD
:1014A4001540218AD18F13961500418AD18F139646
:1014B400350013760602D18F139655001376060471
:1014C4009E05D18F93F5F50FCD8FA20745465D8F0D
:1014D4003307C70222D42A8426D252CC56CA032AFE
:1014E4008411832AC4115AC806D636974207418309
:1014F40093577740135557400989858BC98F1355E6
:1015040037401189C98F135517402189C98F131585
:1015140017004189C98F1315370013750502C98F48
:101524001315570093558700137505041E07C98FBB
:101534001377F70FD98F13D5354013D75540118939
:10154400098B498F13D57540498F13D515402189CF
:10155400498F139515004189498F139535001375EB
:101564000502498F13955500137505049E05498F8F
:1015740093F5F50F4D8F2207D98FB387C7024AD051
:101584004ECE5EC662C4B697C207C18313D77740F6
:1015940013D557400989058B498F13D537401189D5
:1015A400498F13D517402189498F13951700418915
:1015B400498F1395370013750502498F139557000A
:1015C40093D58700137505049E07498F93F7F70F8A
:1015D400D98F13D5354013D755401189098B498FBD
:1015E40013D57540498F13D515402189498F13951B
:1015F40015004189498F1395350013750502498FEC
:1016040013955500137505049E05498F93F5F50F41
:101614004D8F2207D98FB387C70213065002528514
:10162400D685B697BD8E93940601C18033F6C40265
:10163400137BF60F972002E0E780E09205890DED19
:101644008347D41001498149B3849702130C500293
:10165400C1804A865285D685972002E0E780A09013
:101664000589937BF90F11C563863403850993F9C2
:10167400F90F0509E31F89FD230B6411B2502254AD
:1016840092540259F249624AD24A424BB24B224C1A
:10169400456182805E8BCDB7011197570000938717
:1016A400E72622CC03A4C70A26CA06CE2AC42EC61D
:1016B400854419E40145F2406244D24405618280C4
:1016C40003471400834791006304F7000044D5B72F
:1016D40019469305A10013052400EFF06F9EE3174C
:1016E40095FE0545C9BF175700001307E7141443B7
:1016F400411122C69C5E4AC226C49983858B3A84D2
:101704001759000013090913C9C39C5E97540000BC
:101714009384041593F7F7F99CDE9757000083C769
:10172400271493F7070499CB97570000938707FB77
:101734009C4382979757000023ACA71285471757FD
:101744000000A301F71283C7440093F7070491EF45
:1017540097570000938787129C43D844F8D3930784
:1017640000FC17570000230FF70E83C7640013070C
:101774000008631CF700832709009C439983858B29
:10178400ADE3975700002380070E1C40985F118338
:10179400058B09CB985F3D9B98DF05479756000062
:1017A4002382E60C985F1D83058B11CB985F13771A
:1017B400F7F798DF8547175700002305F70A8327B3
:1017C4000900D8430583058B19C7D843759BD8C333
:1017D400D843799BD8C33244A244124941017300CF
:1017E4002030930700FC17570000230EF70671BF43
:1017F400175700001307C70683470700858B89EB3B
:1018040083471700858B89E783474700858BEDD78E
:101814008280175700001307270214439C5E9583A8
:10182400858BC5EF09C69C5ABD832300F600C5C944
:1018340083471500CDC7411106C61756000003465D
:1018440086029306000C6304D60297570000938720
:10185400270183C56700975700009387E7E39C5BE4
:101864001305300882970945B240410182803E95B4
:1018740083479500854613F6F706630AD600975703
:101884000000938767E19C5B9305D00FD1BFE2070B
:10189400E1870945E3CA07FC1C43985B4607935755
:1018A40067016359070293E707C01387970F42073D
:1018B40041839306201F0145E3E8E6FA1387E19E7E
:1018C4000317070009C7BA970947B3C7E702239765
:1018D400F19E59BFC207C187C9BF054582801C4319
:1018E400985B4607935767016359070293E707C05C
:1018F4001387970F420741839306201F014563ED29
:10190400E6001387E19E0317070009C7BA97094742
:10191400B3C7E7022397F19E8280C207C187C9BF7C
:1019240049E597570000938767F59443411122C412
:1019340006C62E873E84FC52FDFF3A85B285978009
:1019440001E0E78020DF975700009387E7EE9C4390
:10195400B70680009843558F98C3D857719BD8D742
:101964001C40094798C3B7F700E003A707D16D9B54
:1019740023A8E7D003A707D15D9B23A8E7D0730072
:101984005010175700001307A7ED83472700858BD6
:1019940089EB83473700858B89E783474700858B2D
:1019A400EDD7B2402244410182808D476310F50493
:1019B40097570000938747E89C43B70680009843F5
:1019C400558F98C3D857719BD8D717570000130762
:1019D40027E983472700858BBDEF83473700858B35
:1019E400BDEB83474700858BEDD782808547E31E97
:1019F400F5FC97570000938767E8944335673D07E4
:101A0400D8C60F100000175700001307E7E214436D
:101A14000946984231830D8B6313C702984393069A
:101A2400E04374D3984389671CC7930700F897561B
:101A340000002389F6E2BD67BD075CC779B7984209
:101A4400944331830D8B09E713076019F8D2D9BF8A
:101A54001307E01BE5BF82805D712AC62EC486C6CB
:101A6400978001E0E78040EE978001E0E780A0FEE8
:101A740097580000938848DC83A708001753000098
:101A8400130303E23706330023A40700984B370EF1
:101A9400FCFF370F04001367F70398CB9843914F6B
:101AA4007D1E1377F7E798C398438542930E80020F
:101AB4001377F7E71367071098C3832603003245AB
:101AC4009846518F98C617570000130727DB184311
:101AD4009306900D014634CB1377F51FE84FF57646
:101AE400FD16137505E0598DE8CF9843758F98C39B
:101AF400A245814703A70800032803009376F60F45
:101B0400231C0704231007060325C80275992326FE
:101B1400A802032807001375F607137808F833653D
:101B2400A80008C348533365E50148D30355870526
:101B3400E3FEAFFE48533375C50148D30357070688
:101B4400280832951377F70F2300E50019EF13D710
:101B540036002E97034507009D8AB396D200850769
:101B6400C98E93F7F70F2300D7000506E314D6F9BF
:101B7400854611488548130380026363F8040146CF
:101B8400814728083295034505001377F60F63E172
:101B9400A602135537002E95034E05001D8B33976F
:101BA400E80085073367C70193F7F70F2300E500C3
:101BB4000506E31866FC850693F6F60FE39F06FB1D
:101BC400B6406161828017570000130767C78346D8
:101BD400B7019757000083C777CBB69793F7F70FF2
:101BE400FD4663EAF6044C4B97560000A38AF6C4FC
:101BF4009757000083C7D7C405473317F700975694
:101C04000000A385F6C86D8F1DEF9756000083C6AC
:101C140036C8B3F6D70213050002814733D6F50060
:101C2400058A13F8F70F09CE6399E6009757000069
:101C3400A38807C1828081177DB705071377F70F43
:101C44008507E39DA7FC828097570000938707A927
:101C54009C43011122CC4EC606CE26CA4AC852C4A1
:101C640056C2829797570000938787C1804781495E
:101C74006305A406BE84975700009387E7A10387F2
:101C840047013E8963550706018D13545500975744
:101C9400000083C787BC9379F501636DF402370AAA
:101CA400C0A8B70A405705379C449756000083C61E
:101CB400C6BA139756003E9783074901158C63C52E
:101CC40007006363470156979757000023AEE7BAAE
:101CD400E37BD4FC1604B3693401F24062444E85BC
:101CE400D2444249B249224A924A05618280E37D44
:101CF40085F8B707C0A833848740229579B79757EA
:101D040000009387A79D9C43411122C406C626C2A6
:101D14008297975700009387A7B680476309A40664
:101D2400BE8497570000938727978387470163D81A
:101D34000704018D135455009757000083C7E7B17A
:101D44006367F404493598449757000083C7E7B0A4
:101D54009396570036971D8C9756000023A6E6B23B
:101D6400E372F4FE2244B240924417550000034546
:101D740035AD81454101179301E06700C34EE37A15
:101D840085FAB707C0A833848740229565B7B24067
:101D9400224492444101828097570000938747B0C0
:101DA4009843B75702009387079F83260709139622
:101DB4005600635806008326070913966600634499
:101DC4000600FD17FDF3828021670507AA87639744
:101DD400E50003C7C19D014565E382800145E5C374
:101DE400F9CD8D07C207C183F19BC207C1831307D5
:101DF4004003636FF70217570000130727B0084327
:101E040017570000130707AF14436398A602175728
:101E1400000013076788185B014555C34111C207C9
:101E240006C60545DD8D0297B24001454101828019
:101E340017570000130747ACD9B7035765003DEBAC
:101E4400035745006368F706B306F7402146175861
:101E540000001308E8AA637AD60283280500032643
:101E64000800938687001D8FAA9661172392E600C7
:101E740023A016012393060014C1130786FF23121F
:101E8400F5009756000023ADE6A621672313B5009D
:101E940005076397E50003C7C19D7D17238EE19C69
:101EA400832508002105B387F5401757000023292F
:101EB400F7A48280084191BF014585F78280828022
:101EC4000DC197570000938767A303A30700975793
:101ED4000000938727A283A8070001479A8763E33A
:101EE4001701828003A807006369F50A6367A80ADB
:101EF40093868700E367D5FE03D66700A16685064F
:101F04006317D60083C6C19D8506238ED19C975541
:101F140000009385E59E944103D647002393070070
:101F2400B29617550000232DD59C638A6702175576
:101F340000001305659C08416303F502035567001F
:101F440019ED8357470023200701A1063E96210679
:101F54009757000023A6D79A2312C700BA8798433D
:101F6400E30117F997560000938606999442E30A11
:101F7400D7F683566700B5F683D647000356470065
:101F84001843A106B29698C32392D7009C41A10797
:101F9400175700002326F79682803E87C28781B7B1
:101FA4000111975700009387679622CC03A4470B2F
:101FB40026CA4AC84EC606CEAA84130925008549F6
:101FC40015C083C7140003473400858B6304F700EE
:101FD400405CFDB71946930544004A85EFE05F8EE7
:101FE400E31835FF2285F2406244D2444249B249A3
:101FF400056182804111975700009387279122C47D
:1020040003A4470B26C24AC006C69304250005490B
:1020140001E82285B240224492440249410182806F
:10202400A6851305A402971002E0E78020A7E30227
:1020340025FF405CF1BF4111975700009387078D3E
:1020440022C403A4470B26C24AC006C69304250033
:10205400054901E82285B2402244924402494101E3
:102064008280A6851305A401971002E0E78000A3EF
:10207400E30225FF405CF1BF0111975700009387ED
:10208400E78822CC03A4470B26CA4AC806CE2AC432
:102094002EC6B284054919E001453DA003479100CD
:1020A400834734006318F702194693054400130567
:1020B400A100EFE0FF80631F2501A6851305A4029C
:1020C400971002E0E780809DF2406244D244424986
:0820D40005618280405CC1B788
:1020DC0097110020938141D8176100201301C1F1A1
:1020EC001305400097E5FF1F938505F117060020A7
:1020FC00130606FE63FAC5008322050023A05500D3
:10210C0011059105E3EAC5FE174502001305C51C30
:10211C00970500209385C5FB1386018B63FAC500D8
:10212C008322050023A0550011059105E3EAC5FEA5
:10213C001385018B975500209385C58B6377B5006C
:10214C00232005001105E36DB5FEFD42739002BC22
:10215C008D42739042809302800873A0023097E204
:10216C00FF1F938262E993E23200739052309752D0
:10217C0000009382E2AB73901234730020303D4325
:10218C002A876373C3029377F700BDEFADE59376AF
:10219C0006FF3D8ABA960CC34CC30CC74CC741070B
:1021AC00E36BD7FE11E28280B306C3408A06970226
:1021BC00000096966780A6002307B700A306B70019
:1021CC002306B700A305B7002305B700A304B70087
:1021DC002304B700A303B7002303B700A302B7007F
:1021EC002302B700A301B7002301B700A300B70077
:1021FC002300B700828093F5F50F93968500D58D5B
:10220C0093960501D58D61B7939627009702000030
:10221C0096968682E78086FA9680C1171D8F3E9629
:10222C00E374C3F8A5B7B717004003C777051A05C1
:10223C0092054D8D1377E70F13653500A38BE704DB
:10224C001375F50FA38CA7048280B717004003C742
:10225C0077051377E70FA38BE704130700F8A38D1B
:10226C00E7043D47238CE70413075003A38CE704D2
:10227C008280B7160040130670052380C6049307AE
:10228C0080FA2380F6040100010003C7F6021367ED
:10229C008700A387E60203C7F6021377770FA3879D
:1022AC00E60203C7E6021377C70F2387E60203C7CC
:1022BC00E602136717002387E6022380C6042380F7
:1022CC00F6040100010003C736057D78930E481F04
:1022DC001377870FA389E60403C73605371600402A
:1022EC00116E13671700A389E6042380F60483C7D5
:1022FC0036051167130F400893E70702A389F6040C
:10230C0083D706051308281B930F3004D98F116748
:10231C002398F6047D17914789421303700593089F
:10232C0080FA83463605A18AEDDE83560605834680
:10233C003605A18AEDFE83560605B3E6C6012318C1
:10234C00D60483463605A18AEDDE83550605834601
:10235C002605F98DB306D702B695B386D501637100
:10236C00DF04FD1793F7F70F85CFC29593961500F1
:10237C00B3C6F6036352B002850685862300660455
:10238C0023001605010001008355C602AE96C20655
:10239C00C1822316D60271B7FD16B3C65602F9BF19
:1023AC00B716004083C7360513873605A18BFDDBB6
:1023BC0083D7060583D706051166D18F2398F604BB
:1023CC00930770052380F604930780FA2380F604A4
:1023DC00010001008347070093F7870F2300F700E4
:1023EC0083470700C98F93F7F70F2300F7003717C0
:1023FC00004083473705A18BEDFFB717004003C79B
:10240C003705218B6DDF83D6070583C7270511663A
:10241C007D16F18E3306F60285659307C00313878C
:10242C0005C83696938605FAB396A600B386F602CF
:10243C00A1679385559CB3C6F6029307803EB3867D
:10244C00F602B357A740B306D640B387D702B3C73B
:10245C00B7026351D0048507094793067005B3C7CB
:10246C00E702371700402300D704930680FA2300B5
:10247C00D7049607010001008356C702B697C2071E
:10248C00C1832316F7028347370593F7F70DA3098A
:10249C00F7048280FD17C9B7914763EEB70217376F
:1024AC000200130727A48A05BA959C41BA97828724
:1024BC00B717004003A7470B1345F5FF698F23AAF5
:1024CC00E70A03A7070B698F23A8E70A03A7070AE4
:1024DC00798D23A0A70A8280B717004083A6470BEB
:1024EC001347F5FFF98E23AAD70A83A6070B558D40
:1024FC0023A8A70A83A6070A758F23A0E70A828060
:10250C00B717004003A7470B498F23AAE70A03A775
:10251C00070B1345F5FF45BFB717004083A6470BC4
:10252C001347F5FF758F23AAE70A03A7070A598DEE
:10253C004DB7B717004003A7470B498FEDB791472D
:10254C0063EEB702173702001307079B8A05BA958B
:10255C009C41BA978287B717004003A7470D1345D4
:10256C00F5FF698F23AAE70C03A7070D698F23A832
:10257C00E70C03A7070C798D23A0A70C8280B71753
:10258C00004083A6470D1347F5FFF98E23AAD70CFD
:10259C0083A6070D558D23A8A70C83A6070C758F52
:1025AC0023A0E70C8280B717004003A7470D498F83
:1025BC0023AAE70C03A7070D1345F5FF45BFB71773
:1025CC00004083A6470D1347F5FF758F23AAE70C30
:1025DC0003A7070C598D4DB7B717004003A7470D3C
:1025EC00498FEDB79357E50093F70730C98FC207B2
:1025FC000547C1836382E5048DC10947638DE504FA
:10260C000D476380E50637170040231FF7088356F4
:10261C002709D58F2319F7088280371700400356F6
:10262C00670993C6F7FFF18E231BD7088326C70CC7
:10263C00558D2326A70CC1BF3717004003566709D9
:10264C0093C6F7FFF18E231BD7088326870C558D75
:10265C002324A70C4DBF3717004083566709DD8E26
:10266C00E1B73717004083566709DD8EE9BFB7170E
:10267C00004003D7870109C5D98D239CB700828000
:10268C0093C5F5FFF98DD5BFB717004003D587006B
:10269C00420541819377050491EB9377F50137550A
:1026AC00E801130505803345F50282809377050C0C
:1026BC00130700046397E7009377F50137459C1CDB
:1026CC00CDB72165130505D08280B7F700E08847A8
:1026DC00CC478280814737470040A14663C4C7007E
:1026EC00328582800345B7C0E38EA6FE3385F500A4
:1026FC000345050085072304A7C0CDB712059A052D
:10270C004D8D1365C5001375F50FB7270040238059
:10271C00A7408280B727004001E5A3800740828054
:10272C00239CB740239EC740154791E20547A380E1
:10273C00E7408280411122C406C62A84B13729475A
:10274C00B307E502B2408D83B3D7870222449507C5
:10275C00B3D7E70237470040C207C1832316F7C03F
:10276C0041018280716541111305052006C6D937D8
:10277C00B7470040130770F82381E7C00D47A381CA
:10278C00E7C013070004A380E7C005472387E7C011
:10279C00B24041018280B7870040238007001307B5
:1027AC00C0FC2386E700A386E70017270020035709
:1027BC0067302398E700172700200357E72F239A49
:1027CC00E700172700200357672E239CE7001727E5
:1027DC0000200357E72D239EE70089462381D7026B
:1027EC0049472383E7022385E7022387E7022389EE
:1027FC00D702A3810700130790022380E700B716C6
:10280C00004003D7A6011367070C239DE6007D57F4
:10281C002383E700130710F8A380E7001D472381EB
:10282C00E7008280B78700402382A70203C76702B4
:10283C001377C70F2383E7028280B7870040238476
:10284C00A70203C7A7021377C70F2385E70282806D
:10285C00B78700402386A70203C7E7021377C70F89
:10286C002387E7028280B78700402388A70203C72B
:10287C0027031377C70F2389E70282809387C18BC5
:10288C009C43011106CE22CC91C382979387019071
:10289C0080439387018C9C4313150401418181C7AC
:1028AC002AC6829732459707002083D707DB6379C6
:1028BC00F50403D741806378A7049386818B03A327
:1028CC000600630603006244F2400561028385073B
:1028DC00998F139507014181935725001315040116
:1028EC0041816544198D330585021384F7FF2295C8
:1028FC003345F5021375F50FF24062440561828091
:10290C0013054006D5BF0145C5BF03A845004111BD
:10291C0026C206C622C48347180003480800A944EF
:10292C00A207B3E70701C2070D68C18713082890F7
:10293C006396070385473284EF90404CAA8419EDC7
:10294C009387418B9C4399CB0345140003470400A8
:10295C002205598D1335150005058297B240224486
:10296C0026859244410182802D452DEFD84141119D
:10297C0022C426C206C68347170003470700B68445
:10298C00A207D98F0D67930697A13284639CD70257
:10299C00F5359707002083C727CC6376F50097079A
:1029AC000020238BA7CA85472390F40097070020AB
:1029BC0083C787CA2300F4000145B24022449244E5
:1029CC0041018280130787902945E398E7FECC45A7
:1029DC0089472390F4000946228597E0FF1FE78082
:1029EC0020EAD9BF828083474500858BBDC7011182
:1029FC0022CC2A8403552500938581A506CEEF9021
:102A0C00A03A058939C5035524000147814605467E
:102A1C00ED45EF80B0742AC60DCD97F7FF1F938755
:102A2C00276B83D7A70201462C002314F10085479E
:102A3C002315F1009707002083C707C22300F50078
:102A4C0003552400EFA0601409C5ED452800EF9054
:102A5C00A008F24062440561828082804165411188
:102A6C00938581A57D1506C6EFB0C001B24097F6DF
:102A7C00FF1F9386E66A4146954517F5FF1F130520
:102A8C00256541016FA0307523AAA18A828041116E
:102A9C0022C406C6854709446313F5028347060022
:102AAC0001442388F18A170700200347E7BA6378AB
:102ABC00F70017050000130545F3EFD0402C2285D5
:102ACC00B24022444101828085476303F50209C963
:102ADC0009476304E5020D476308E5020945828056
:102AEC009707002083C747B72380F50001458280F4
:102AFC009387018B83C70700C5BF97F7FF1F83D749
:102B0C00C75D2390F500DDB713878180035707005D
:102B1C002392E50017F7FF1F1307875B8356A70265
:102B2C000357A7032383F5002390D5002391E500D9
:102B3C0075BF411106C699339707002083C7C7B1EB
:102B4C00637CF500970700202388A7B017050000C9
:102B5C001305A5E9EFD0A022B240014541018280C6
:102B6C0041677917630CE502411122C406C68547FB
:102B7C002A84639AF50022852244B240938581A56C
:102B8C0041016FA0307089476396F5008545EFD001
:102B9C00801975D1B2402244410182808280CC419F
:102BAC00411106C6328503C6150083C505002206F1
:102BBC004D8E42068D654186138875A2630C060FF7
:102BCC006348C804138845A26306060B634AC80011
:102BDC00938535A26309B60623900600294679A091
:102BEC00138855A26308060B938565A2E316B6FEFF
:102BFC00C1451D4663ECE5064546198E63F3C700D7
:102C0C003E862390C600972502009385253189A81E
:102C1C00138895A26300060F634E060B1388A5A2BA
:102C2C00630A060F938505A5E318B6FA99451D4668
:102C3C0063EEE502198E63F3C7003E862390C6004F
:102C4C009385018131A89D451D4663E1E50221462E
:102C5C00198E63F3C7003E862390C6009385418C82
:102C6C00BA9597E0FF1FE780A0C10146B2403285BC
:102C7C0041018280AD451D46E3EAE5FE3146198EE1
:102C8C0063F3C7003E862390C60097250200938508
:102C9C00A52CF9B7B1451D46E3EAE5FC3546198E7E
:102CAC0063F3C7003E862390C600972502009385E8
:102CBC00A52B7DB7C1451D46E3EAE5FA4546198EBD
:102CCC0063F3C7003E862390C600972502009385C8
:102CDC00252679B7C1451D46E3EAE5F84546198E28
:102CEC0063F3C7003E862390C600972502009385A8
:102CFC00A528BDB7C1451D46E3EAE5F64546198E44
:102D0C0063F3C7003E862390C60097250200938587
:102D1C006523B9B7B5451D46E3EAE5F43946198E86
:102D2C0063F3C7003E862390C60097250200938567
:102D3C00E51D3DB797F6FF1F938646524146CD459C
:102D4C0017F5FF1F1305853E6FA0F048828093870F
:102D5C00018E9C4303C7418D83C6B18201E7814735
:102D6C003E85828003D607006316A60003C6670063
:102D7C00E308D6FE7D171377F70FA107C5B7B28608
:102D8C002E86AA85172502001305C5236F0002673E
:102D9C000111930500030D4506CEEF60201093053D
:102DAC0000051145EF60800F9305C0030545EF60EA
:102DBC00E00E85471306F100854513055030A30737
:102DCC00F100EFC0A147F240056182809387818DAD
:102DDC009C43328791C703A38700630303000283DC
:102DEC0009CB130600199305000203C521866F4019
:102DFC00007082808547631CF5001166130686A956
:102E0C00894517250020034565CB6F40406E8947E7
:102E1C006319F500894517250020034525CA6F4025
:102E2C009015828085476398F50019E22387B18C51
:102E3C002382C18E828009476399E50019E62387B6
:102E4C00F18C03D5C18C6F00B00782800111939770
:102E5C00050126CA06CE22CC4AC84EC652C4C1872A
:102E6C00AE8463D9070817250020034525C5EF401C
:102E7C00C0212A8439C9034705009307000D631349
:102E8C00F704834725004547638BE7046547639B3D
:102E9C00E702172502001305650FEF0022561309F0
:102EAC0054009309B400172A0200130A6A0F8345D1
:102EBC00090052850509EF006254E39A29FF294560
:102ECC00EF00C2572285EF40A0152165258DF240F9
:102EDC006244D2444249B249224A05618280034687
:102EEC00650083457500172502001305E50BEF00FF
:102EFC00E250C9BF93F7150085C317F6FF1F1306E1
:102F0C00A6369385C18117250020034525BBEFC04C
:102F1C00810413C5140065BF93F725000145C5DB7B
:102F2C0009391166130686A9894517250020034522
:102F3C00E5B8EF40C05B13C5240051BF797126D2B0
:102F4C004ECE06D622D44AD052CC9147AA84AE8912
:102F5C006314F50483D7A5001306E100854513051A
:102F6C0050302396F18C230701002387018CEFC08E
:102F7C00E12C9387818D9C4391C7DC4781C7CE851B
:102F8C0026858297B250225423A8918C02599254D0
:102F9C00F249624A456182801387018D1843E31A16
:102FAC00F7FC854503D5C18C653E854503D5C18CA1
:102FBC00EF00C076C16703DAC18CF917631BFA0204
:102FCC0005449305E100130550412387018CA3852B
:102FDC00818223070100EFA031378347E100B1E381
:102FEC0003C7418E9147E316F7F85D332382018EB8
:102FFC0049B79387018E03A9070003C4418D69D09B
:10300C000355290011C99305E100EF90804009C5D3
:10301C004C455285EFA010277D141374F40F210931
:10302C00F9BF9387C18D9C4383C74700898BCDDB48
:10303C009305000A0D45EF5070669305000A114583
:10304C00EF50D06581450545EF5050651306E10002
:10305C0085451305503023078100EFC0211E49B769
:10306C000111170500001305A5DE06CE22CCEF409A
:10307C00900B17240020130464A485471306F10059
:10308C0085452300A40013054041A307F100EFA0E0
:10309C00B1527D55EF80E0557D55EFA0901B59390D
:1030AC00753AF52317050000130505D5F13A1705F8
:1030BC0000001305E5C91125034504008545EF40C3
:1030CC00C03BF24062440561828023ACB18C23AEDC
:1030DC00A18C828023A0B18E238AA18C82809387BD
:1030EC00018D9C43797106D622D426D24AD04ECE7D
:1030FC0052CC1147639BE70483C7E18C414481CFD9
:10310C009387018E8043B284B68983C7418D03C7F0
:10311C00B18299EB55442285B250225492540259F3
:10312C00F249624A4561828083464400639AA60054
:10313C00834654006396B600834664006380E606BB
:10314C00FD1793F7F70F2104E9B709474144E384CE
:10315C00E7FC2C001305504123040100EFA0D11E05
:10316C00834781008DCB930500020D45EF50105322
:10317C00930500031145EF50705295450545EF50EE
:10318C00F051854730008545130550302304F1007C
:10319C00EFC0C10A49B7ED3E4144B5BF0355240009
:1031AC0093056100EF90E02635D54C4503D5C18CD5
:1031BC00EF80903F058939DD1399040113590901FA
:1031CC00014781464A86ED4503D5C18C035A04005C
:1031DC00EF80C0782AC64D441DDD2686CE8523148B
:1031EC0041012315210197D0FF1FE780606901463B
:1031FC002C0003D5C18CEF9050192A84E30D05F0F7
:10320C00ED452800EF80500D39B7C841011122CC93
:10321C0006CE328403461500034505002206498E6E
:10322C0019CB0D681308B8A42D4563090607F240A5
:10323C006244056182800D651308D5A46300060302
:10324C00130825A2630C060175781308E85C329804
:10325C00420813580801854863EE080303D5A500FE
:10326C0036C632C4ED34B24615C19387818D9C436A
:10327C0022468345550003A30700A2876244F2400F
:10328C000345450036878546056102832390060079
:10329C00014571BF1308B5A46317060303D6218338
:1032AC001D45E376C7F8198E63D3C7003E86CC451F
:1032BC002390C60042064182BA95228597D0FF1F03
:1032CC00E780005CF1B79307A5A46318F60091475B
:1032DC002390F6001146CC45CDB793078590631724
:1032EC00F60089472390F6000946F5B79307E5A445
:1032FC00631AF600DC452390160183C707002300F0
:10330C00F40079B713057590E314A6F8D9BF011131
:10331C0022CC06CE26CA4AC82317D1002D4429EB4D
:10332C00DC412E89B28403C4170083C70700220432
:10333C005D8C8D679386D7A46306D400938627A3F0
:10334C00631FD4020355A900193419E101440DA0DF
:10335C009387818D9C43834555000345450003A805
:10336C0007002286A6871307E100814602982A846B
:10337C002285F2406244D2444249056182809386A0
:10338C00C7A46314D4028357E10005473544E39185
:10339C00E7FE0345060013040008E3EBA7FC938744
:1033AC00818D9C43DC43829755B793862790631A93
:1033BC00D4028356E1008547EF8050242A844DF9CE
:1033CC009387018E8356A9009C4303C7418D3DDF33
:1033DC0003D627006302D6047D171377F70FA107D6
:1033EC00FDB79387E7A4E313F4F68357E100054791
:1033FC003544E39FE7F60345060013040008E3E9B0
:10340C00A7F6DC452380A7009387818D9C43333539
:10341C00A0000905DC4341BF1387818D184303C508
:10342C00470083C5570083C714000328070003C750
:10343C000400A2078946D98FC207C1870547638359
:10344C00E7008D460D66A6871307E100130626904C
:10345C00029839BF411122C441641305F4FF9385CE
:10346C0081A806C626C24AC0EFA0C0611305F4FFAE
:10347C00938581A7EFA000611305F4FF938581A6C6
:10348C0097F4FF1F938404DFEFA0C05F97F6FF1F34
:10349C00938646FC4146F9452685EFA0C053CC4C9B
:1034AC002A890945EFF04FE21387C1839387418442
:1034BC00834507000346170083D7070003D7A410E2
:1034CC00138481A92312F4002314E40083D7A40CE1
:1034DC0003D7A411A306C400A30EC40003D6A417DB
:1034EC002310F4002315E40083D7A40D1387018463
:1034FC008346070003D5A41403471700231CC400FC
:10350C0003D6A4182311F40085472303F4002307E2
:10351C00F400230AD400230BF400231DC40023025F
:10352C00D4022306B400A30AE4002318A400230E3B
:10353C00B40023190400230F0400A302E40203D7F0
:10354C00A41A2307F402231104022310E4021387A4
:10355C008183035707002303040223150402231657
:10356C00E40203D7A41C938581AC0D452314E4021B
:10357C00EFF08FD5A2852145B13EB24022444A8559
:10358C0092440249410182808D67138527A3630110
:10359C00A6049387D7A40145631EF6008947639C54
:1035AC00F500854735456397F6008347070023856B
:1035BC00F18E014582808D472945E39DF5FE8547B7
:1035CC003545E399F6FE834707002384F18ED5B782
:1035DC0085473545E390F6FE83470700A383F18EBC
:1035EC00C9BF8D67138527A36308A6029387D7A449
:1035FC006317F6028947639BF50083C7A18E2300EE
:10360C00F70085472390F600014582808D4763982B
:10361C00F50083C7818EE5B783C7718ECDB7239034
:10362C000600DDB70145828025E303A84500AE887E
:10363C008347180003480800A207B3E707010D6889
:10364C00930EF8A4639AD70391473548639FF6020B
:10365C0003A5C8004111B285114606C697D0FF1FBD
:10366C00E78000229387818F9C4305458297B24067
:10367C00014842854101828093082890294863962D
:10368C00170185476F8080772D4842858280416580
:10369C004111938581AD7D1506C6EFA0A03EB240C9
:1036AC0097F6FF1F9386C6E14146994517F5FF1F14
:1036BC00130505DB41016FA0003223ACA18E828083
:1036CC000111938581AD22CC06CE2A84EF80C06D8A
:1036DC00058929C1014781460546ED452285EF80C4
:1036EC00E0272AC605C997F7FF1F938767D783D7AB
:1036FC00A70501462C002314F10085472315F10082
:10370C00230005002285EF90404809C5ED452800AF
:10371C00EF80803CF24062440561828041677917FA
:10372C00630CE502411122C406C685472A84639ABC
:10373C00F50022852244B240938581AD41016FA0F2
:10374C00603489476396F5008545EFC0C05D75D13F
:10375C00B24022444101828082800567930747D59D
:10376C0063F8A702930667DE854763F1A60293060A
:10377C0087E7894763FCA6009306A7F08D4763F79C
:10378C00A6009307D7F9B3B7A70091073E858280AF
:10379C008147EDBFB71700401717002013072732DA
:1037AC002394E706171700201307A7322396E70682
:1037BC00130710FCA380E706828041118545116533
:1037CC0006C6EFE0DFD7814513050010EFE0DFCC34
:1037DC0089450145EFE03FA5B71700403147238CE1
:1037EC00E7040547238DE704A38107066537B2403C
:1037FC0003C5D18613060064A14541016F30304FDB
:10380C00171700201307A72B971600209386662CFA
:10381C008147035607000907B297E31CD7FE2947D7
:10382C00B3D7E7021387C18F18439386870C63E9DC
:10383C00E60013870190184323AEE18E23A0F1908C
:10384C00828001114EC69389019022CC03A40900F9
:10385C0052C406CE228526CA4AC801379387C18F27
:10386C002A8A8843330485409357F4413D8C1D8C40
:10387C00ED35631345039307100363CA870C814529
:10388C0013058007EF10301285451305000EEF105D
:10389C00F00E85450145C1A817270200130747AF55
:1038AC008D461306B00781451305B005EF10102C9B
:1038BC0081451305D005EF10100F814485456393A6
:1038CC0044051305D005EF10100E8144639E44058A
:1038DC0089451305D005EF10100D8144E38D44F993
:1038EC0085452145EF10900911497D1985452D45D8
:1038FC001379F90FEF109008E31909FE850493F47E
:10390C00F40FE9BF4145EF10700711497D1985454A
:10391C001305000D1379F90FEF105006E31809FE8B
:10392C00850493F4F40F59BF85450145EF1010053C
:10393C0011497D1985451305F00F1379F90FEF1017
:10394C00F003E31809FE850493F4F40F41B78145A5
:10395C0013058007EF10300585451305100EEF1089
:10396C00F00185452D45EF1070018D451305F005CF
:10397C00EF107003624403A60900F240D24442499E
:10398C00B249224A91468D451305F00505616F1029
:10399C00D00E82803D897D15954763ECA70E1717D5
:1039AC0002001307A76B0A053A951C41011106CEBC
:1039BC00BA978287938581840545EF70401217155D
:1039CC0002001305E56EEFF0B13711A803C725000F
:1039DC008D47171502001305A56EE306F7FEF2409E
:1039EC000561828003C725009547E31AF7FE03D5CE
:1039FC00A5002390A18683C7C18699E3EFB011304F
:103A0C0085472386F190171502001305656C65BF79
:103A1C0003C725008D47E314F7FC171502001305A7
:103A2C00E56B55B783C72500114717150200130521
:103A3C00656C6384E7041947639AE70283C56500E4
:103A4C00171502001305C56C23860190EFF0111BAE
:103A5C00F9572390F18685471306F1008545130528
:103A6C005030A307F100EFB0617D95BF1547E3948B
:103A7C00E7FE171502001305656BEFF0712CE1BF23
:103A8C0083C52500171502001305C56BEFF0111740
:103A9C00B9B7828001112305A10034002146854568
:103AAC00094506CE23140100A305010002C6EFF060
:103ABC000FE3F24005618280011106CE22CC3A88D8
:103ACC003E87A9E28D679387D7A42A8EAE8832836E
:103ADC0083460800631EF6008947639BF500854703
:103AEC003544639CF60083470700898B238BF19246
:103AFC001A86C6857285493C2A842285F240624426
:103B0C000561828085476395F600C286D93CEDB786
:103B1C0089470144E393F6FE1306F100854513052E
:103B2C005030A3070100EFB06171C1BF0111939731
:103B3C00050122CC06CE26CAC1872E8463DC070081
:103B4C0003C52186EF30605419C1EF30604D2165FB
:103B5C00218D3DA093F7150013C5150095E393F740
:103B6C00450085C783C721861307803E814613060F
:103B7C000005C14503D50186EFB04137134544001C
:103B8C00F2406244D2440561828093F785009DC364
:103B9C00014789460946814503D50186EFB0511886
:103BAC00AA85171502001305E54CEFF031051345F6
:103BBC008400F9B793F70501D1CB6C001305503095
:103BCC00A3050100EFB081550347C1008547631978
:103BDC00F7001306B100854513055030EFB00166B0
:103BEC0093848184A6850545EF60706F31E91305D8
:103BFC00C002854603C6D1848545EF10006883C793
:103C0C00540003D50186FD17A386F190C167F917FF
:103C1C006307F500EFB0910EF9572390F1868347B7
:103C2C00C1000547639BE7001306B10085451305EA
:103C3C005030A305F100EFB061601345040189B762
:103C4C0083C7D1908507A386F184D1BF93F7250054
:103C5C00B9C703C531863D3D83C73186850793F7C8
:103C6C00F70F7147636BF7020145A381F1861D3590
:103C7C00B707020093870720740011468545054558
:103C8C003EC6EFF0CFC51306007D894503C52186DE
:103C9C00EF30F00513452400E5B59147F1B7939744
:103CAC00350163DB07009386019511468545054573
:103CBC00EFF0EFC2056569BD9397250163DB070043
:103CCC0093868194214685450945EFF04FC10965DE
:103CDC0041B593F7050299CF171602001306063B60
:103CEC0081450145EF10700385472387F1901345FB
:103CFC00040279B593F705040145E38307E893873C
:103D0C0081909043814503D50186EFA0A17D134599
:103D1C000404BDB501118D6585461306F10093852C
:103D2C0015802D4506CE97C0FF1FE780C0698347DD
:103D3C00F10019476373F7008547F240A386F184BD
:103D4C000561828001118D65A307A1001306F100A6
:103D5C00854693851580294506CE97C0FF1FE780C1
:103D6C008066F24005618280011117050000130581
:103D7C0025DC06CE22CC26CAEF30F03A938421867D
:103D8C0005442380A400700085451305503023069C
:103D9C008100EFB0A14A138601859D451305603063
:103DAC00EFB0C14917E6FF1F13064673D54513053F
:103DBC007030EFB0A148171602001306E62DD5455A
:103DCC000145EF70207589477000914513057040CF
:103DDC002305F10023048100A3048100A3058100C5
:103DEC0002C6EF90717D3000854513050040EF90C1
:103DFC00B17C13069100854513051040EF90D17BE3
:103E0C001306A100854513052040EF90F17A1306A7
:103E1C00B100854513055040EF90117AA947700009
:103E2C00854505452306F100EFE07FC6EFF08FE2F4
:103E3C0097E5FF1F9385856913858185EFF0EFA8C2
:103E4C0003C504008545EF304063F2406244D24420
:103E5C000561828041119306400517160020130658
:103E6C0026D489652D4506C697C0FF1FE780A0554F
:103E7C00B24089659306400517160020130606CD3F
:103E8C00938505402D45410117C3FF1F6700A353C0
:103E9C0041119306400517160020130666D089655C
:103EAC00294506C622C497C0FF1FE780C05189650B
:103EBC001374F50F9306400517160020130606C958
:103ECC0093850540294597C0FF1FE780C04F418D62
:103EDC00B24022441375F50F410182800111130683
:103EEC0040059715020093852536171500201305FC
:103EFC0025CB06CE22CCEFF00145130640059715D5
:103F0C0002009385A52817150020130525C4EFF092
:103F1C008143BD3F0D641306F10093050480854673
:103F2C002945A307010097C0FF1FE780C0498547BB
:103F3C001306F1009305148085462945A307F1006B
:103F4C0097C0FF1FE7802048F240624405618280E1
:103F5C00971700209387C7C497160020938606BF37
:103F6C0003C737056318B700A389A704FD17E399A6
:103F7C00D7FE39BFE31CA7FEA389B704C5BF83C70F
:103F8C0061916381071A03C7B194631D07188546B5
:103F9C00A383D19283C7A19403C7419189EF19C31D
:103FAC0001458280238AD19083C7519193F7070FE3
:103FBC00A38AF190F5B789466310D70203C75191D4
:103FCC0091466315D700A38AF192D9BFA146E31994
:103FDC00D7FCA382F192E9B719466398C700238AEC
:103FEC00D19083C75191B18BE1B79546639DD700B2
:103FFC009307000B6305F712930700FB238AF190DC
:10400C00A38A019071BF9306C0046399D7009307EC
:10401C00000C6306F710930700FCCDB79306E00283
:10402C006399D7009307000D630BF70E930700FD00
:10403C00F1B7930670026398D7009307000E6300E4
:10404C00F70E815765BFF9466398D7009307100E9A
:10405C006307F70C85575DB7FD466398D700930748
:10406C00200E630EF70A895751BF9306000263981E
:10407C00D7009307300E6304F70A8D5741B79306A8
:10408C0010026398D7009307400E630AF708915704
:10409C00B5B7930620026398D7009307500E6300C0
:1040AC00F7089557A1BF930630026398D700930782
:1040BC00600E6306F706995791B79306A0036398B1
:1040CC00D7009307000F630CF704C15705BF930685
:1040DC00B0036398D7009307100F6302F704C5571A
:1040EC0031BF9306C0036398D7009307200F630872
:1040FC00F702C95721B79306D0036398D7009307EB
:10410C00300F630EF700CD57D5BD9306E0036398CF
:10411C00D7009307400F6304F700D157C5B5238A26
:10412C000190F9BD03C771920545E31CA7E6E39A1C
:10413C0007E64111A383019206C683C74191130779
:10414C00600E6368F7061307100E63F7E72013077A
:10415C00000B638BE712636BF700638AA70A0947AE
:10416C006381E70EB2400145410182801307000DC7
:10417C006383E7121307000E6383E7181307000C21
:10418C00E392E7FE238A019083C7D19181EF8547A3
:10419C00238EF190973700009387679823A8F186B8
:1041AC00EF20703C83C7D19193B71700A38EF19089
:1041BC0055BF1307200F6380E71E636BF7021307CD
:1041CC00000F6387E71A1307100FE39DE7F8238EA0
:1041DC00A190171602001306E60485455145238A63
:1041EC000190EF10601397270000938787294DA249
:1041FC001307400F6383E71E63E0E71C1307F00F00
:10420C00E392E7F6A38A0190238A0190A1BF83C7AA
:10421C005191C10793F7F70F130700056385E7006A
:10422C00A38AF19081B7A38A0190238A01907D31F2
:10423C00171602001306C6FA81450145EF10E02D52
:10424C0041A883C75191910793F7F70F3147E39931
:10425C00E7FC17160200130666F981450145A38A8F
:10426C000190238A0190EF10402B05661306062C53
:10427C009305000203C5D186EF30602783C55193A7
:10428C0003C55192F131F9BD238A019097C0FF1FEC
:10429C00E78040FFC1BD238A019083C7C190E3939F
:1042AC0007EC83C7C18693B717001386C186854573
:1042BC00130550302386F186EFA05178AA861DC1D4
:1042CC0017160200130646F381450145EF10E02452
:1042DC0005661306062C9305000203C5D186EF3044
:1042EC00002149B583C7C18617160200130646F193
:1042FC00E39407F417160200130606F135BF03C545
:10430C00E18613351500238A01902387A18683C784
:10431C00419595C783C7C1909DC3F9473305F502F5
:10432C00014681456905EF10A01583C7E186130589
:10433C00800391C3694505468145EF10601483C71E
:10434C00E186171602001306A6ECE39707EE171684
:10435C000200130666ECCDB593870702A386F184A1
:10436C001306401F238A0190C14503C5218685BFD2
:10437C00238EA19017160200130686EA8545514537
:10438C00238A0190EF005079972700009387A70D9F
:10439C0023A8F186C1BB238EA19017160200130629
:1043AC00A6E885455145238A0190EF00F0769727C2
:1043BC0000009387271CE9BF238EA19017160200DB
:1043CC001306C6E685455145238A0190EF00D0744B
:1043DC00972700009387872465BF238EA19017161B
:1043EC0002001306E6E485455145238A0190EF004F
:1043FC00B072972700009387272F59BF411106C62B
:10440C0022C426C2EFF01FA593840192FD57170713
:10441C000020A30DF77C9C4037140040914593E796
:10442C00C70F23A0F1920327840CD98F2324F40CFB
:10443C008840EFE0CF909C400327840C9716020035
:10444C00938646D193F7F7F7D98F2324F40C13876F
:10445C0001911C4317160200130646D38C42910699
:10446C00CD8FE39DC6FE23A8F190B716004003A69E
:10447C00860A2244B240D18F23A4F60A9244084300
:10448C00854541016FE04F8103D7A1919307F7FF59
:10449C005D71C20786C6A2C4A6C2CAC04EDE52DC7B
:1044AC0056DA5AD85ED662D466D26AD06ECEC18342
:1044BC00AD4663E4F616B1476310F7029707002088
:1044CC009387C768171602001306C6D6854509459B
:1044DC0023A4F186EF00506483D7A1918507239D17
:1044EC00F190138481AE971B0200938BABC6814A6B
:1044FC00A284938C8186170C0020130C6C6A17090C
:10450C0000201309A96493894186138B8194194760
:10451C003387EA0203CA4192B716004003A60B0088
:10452C0083A6460AF18EB307E400D29783C5070031
:10453C006391051ED1E683A70C0083C641863E9786
:10454C009D47529763F8D700034607009307F00D79
:10455C0063F8C70699473386FA028545B387C400CA
:10456C00D2972380B700938701878C43972700004D
:10457C009387C70A639BF50297170200938707D2AC
:10458C00B297D29783C707001306F00F638FC7004B
:10459C000D463386C702938781DCB2973D46238153
:1045AC00C700A380C7002380C7000546A38BC1901A
:1045BC00834707009305F00F6397B70C238BC190CB
:1045CC00850AB947910BE394FAF403C74192930619
:1045DC00170093F6F60F2382D19297170200938758
:1045EC0027D10A07B71500403E9703A6850C184340
:1045FC00518F23A4E50C15476374D70023820192D5
:10460C0083C641928A0637160040B6970327C60C1C
:10461C009C43D98F2326F60C81A883C73193E38260
:10462C0007ECA38901921384819489449309900324
:10463C001D4A214983472400639C370133069A4065
:10464C009305340013052400EFE0F14FA387019488
:10465C0085040504E39024FF83C74186FD1723825C
:10466C00F1868547A38BF190B640264496440649C3
:10467C00F259625AD25A425BB25B225C925C025D86
:10468C00F24D616182801306F00E6374F6021727F7
:10469C0002001307A7BF1443938707F1054703C60E
:1046AC000600B317F700D18F2380F600238CE1901E
:1046BC0001BF1306F00D637DF6000547938707F2E3
:1046CC00B317F70003470B00D98F2384F194CDBDAA
:1046DC009947B387FA02E2973E9A03460A0093077A
:1046EC0090036316F6008547239DF190D1BD938707
:1046FC0016002382F18683470700DA962380F600A2
:10470C0083D7A19193B7D70093C71700238AF1924F
:10471C0045BDE38706EA238007008547A38BF1900C
:10472C0083A70C009306F00FBA97D29783C70700A4
:10473C006395D700238B019061B59306F00E63F25D
:10474C00F60217270200130767B41443938707F187
:10475C00054703C60600B317F70093C7F7FFF18FA1
:10476C00A1B79306F00D63FDF6000547938707F29A
:10477C00B317F70003470B0093C7F7FFF98FB1B7D7
:10478C00B307EC00D29783C7070093069003639F8F
:10479C00D70403D7A191B14763FCE70017160200B9
:1047AC00130686A98545094523A48187EF00D036D9
:1047BC0083C7419391C703D7A191B14763E3E70244
:1047CC0083C741861D47636EF7000547A389E192B5
:1047DC00138717002382E186DA971307900323804F
:1047EC00E700239D0190238A0192D9BB4A97138D30
:1047FC008194954D3A9AFD5603472D006386E70048
:10480C0003460A00631EE6006E8693053D00130501
:10481C002D003EC6EFE03133A3870194B247FD561D
:10482C00FD1D050DE39ADDFC83C70900FD172382EE
:10483C00F18679B3B70703040111938717203EC2A1
:10484C00B7070708938757603EC4A5472316F100A6
:10485C0006CE22CC26CA03C7A1949306A00283C716
:10486C0061926312D7061387C1928DC3FD1793F71C
:10487C00F70F2383F192BA972380070093878192D5
:10488C009C43A946B3D7D70223A4F1928307070010
:10489C0085E3170602001306667F81450145EF008C
:1048AC00D04705442285F2406244D244056182809F
:1048BC009386C1921716020013064698814501454E
:1048CC00EF00B045F9BF99466395D7049307800272
:1048DC000544E319F7FCAA84171602001306469642
:1048EC0081450145EF00704305661306062C9305C0
:1048FC00000203C5D186EF20903F938781929C43A1
:10490C0001449CC0238601922383019223A401922B
:10491C0051BF930627FE93F6F60F25460544E36335
:10492C00D6F814083697034667FD13878192144313
:10493C00294781453307D7020145329723A4E192D9
:10494C00138717001377F70F2383E1929386C19295
:10495C00B697130606032380C70036971716020076
:10496C001306C68D23000700EF00303B25BF15450D
:10497C006FD03F90411193962500AA852D4506C610
:10498C0097C0FF1FE78020A4B240014541018280FF
:10499C00411122C426C24AC02A842E89B284AA8517
:1049AC00930600200146254506C697C0FF1FE780E9
:1049BC0080A1931629002686A285294597C0FF1F42
:1049CC00E78060A0B2402244924402490145410173
:1049DC008280011122CC06CE3714004026CA4AC868
:1049EC004EC652C483447405034AB40583498405F6
:1049FC0003499405EFD07F858347A40593F4F40F06
:104A0C00137AFA0F93E71700230DF40493F9F90FB7
:104A1C001379F90FB717004003C7A705058B6DFF76
:104A2C0003D5C705A38D4705238C3705A38C270514
:104A3C00A38B9704F2406244D2444249B249224AC1
:104A4C000561828041119397050122C406C626C2D6
:104A5C00C1872E8463DA0700EF20206319C1EF2091
:104A6C00205C2165218DCDA893F7150013C5150089
:104A7C006394070E93F7250013C52500639E070C5E
:104A8C0093F78500BDC3EFE0BFD783C7E19099E3EF
:104A9C00EFE03FDBEFE01FD0371700408327470CD8
:104AAC0083C64190B98393C71700858B6387F60241
:104ABC008327470C1167F98F13B717002382E190F6
:104ACC00CDE3171702001307A789914613061005AB
:104ADC00814513058004EF0070090966130606F47E
:104AEC00A14503C5D186EF209020937744006389BC
:104AFC00072C83C4D1910547134444006396E40A00
:104B0C00EFF09F9883C771918DC7A38B0190EFF045
:104B1C000FC705C197170200938707779C431D4762
:104B2C0083C72700638BE7066366F704114763842A
:104B3C00E706938781939C431307200385076360E3
:104B4C00F70623ACF1924146914503C5D186EF207F
:104B5C00101A131504014181B240224492444101C0
:104B6C008280914613061005814513058004EF00E1
:104B7C003006A5B75947638AE7006947E39BE7FA14
:104B8C009707002023A897F46DB7894717070020D3
:104B9C002322F7F479BF8D47D5BF9147C5BF23AC0E
:104BAC000192EF20E02245B783C76194A1C3238310
:104BBC00019483C651948D476398F602A3820194A5
:104BCC0083C72195B307F0402389F19483C741959E
:104BDC006397E70403C7E1866313F7040946894525
:104BEC0003C5F186EF20B010EF001046EFF0DF891F
:104BFC0083C77191D1CBA38B019083C7E19085447E
:104C0C00639997021385819035313DED238701908F
:104C1C00130600199305000403C52186A5A003C73C
:104C2C00C1908547E312F7FC0D46856503C52186C7
:104C3C0055BFEFF0CFB419CD83C74195639E97084C
:104C4C0003C7E186631AF7080946914503C5F18647
:104C5C00EF20F00983C7819185CB0D4681451385E3
:104C6C001195238C0190EF20E06583C74195054792
:104C7C00639EE70603C7E186631AF7060946894572
:104C8C0003C5F186EF20B00683C7419503C7019495
:104C9C006305F70A2380F194170602001306865762
:104CAC0089E7170602001306A66A81452145EF0025
:104CBC00A06683C7419503C7C1906384E70023872F
:104CCC00F1868DCF05CF83C7E1861305800391C391
:104CDC0069450546814525A803C7C1908547E31B57
:104CEC00F7F60D46896503C521869DB703C7C190AC
:104CFC008547E31BF7F80D46856539BF01468145AD
:104D0C006945EF00E0770146814513058003EF000C
:104D1C00207783C74195D1C783C7E186D9C303C622
:104D2C00C19383C77193638EC706854513058003B2
:104D3C00A38BC192EF00807939B583C7C19003C7AB
:104D4C001194E308F7FCA380F19489CB17060200B9
:104D5C001306C64C81451305600291BF170602006D
:104D6C001306065F8145130560027D2303C7E1909E
:104D7C008547E310F7F4170602001306A65D81457C
:104D8C0001452387019023A40190EF00007905666B
:104D9C001306062C9305000203C5D186EF2020755F
:104DAC0009BF83C7C190E38007DA83C7E186E39C20
:104DBC0007D803C6619383C77193E386C7D8B5B789
:104DCC009377040195C303C7419585476314F70096
:104DDC00EF10B05F13060006C14503C5D186EF2066
:104DEC000071134504018DBB9377040281CF170624
:104DFC0002001306E63581450145EF0000721345AC
:104E0C00040299BB9317240163D10702EF40517040
:104E1C00EFF0FFB537F60200130606E0896503C50F
:104E2C00D186EF20C06C096535B993171401014583
:104E3C00E3D407D21705020013054552EFE0417089
:104E4C0013060064916503C5D186EF20406A116595
:104E5C0011B91D714946970502009385E54A17154E
:104E6C0002001305A5F686CEA2CC97C0FF1FE780E3
:104E7C00A0A401E9170502001305454AEFE0416CB7
:104E8C0001A0B7F600E0795798CAFD57DCCA056750
:104E9C00B7E700E023A0E7101306F00290C223A0AE
:104EAC00E718010001001306C00381454808EF20F4
:104EBC006041970700209387E7F83ECA896793877C
:104ECC000780231CF100ED47A301F1023544930741
:104EDC00501081460146814521452312F1022303DE
:104EEC00810297B0FF1FE780004EA167938707E010
:104EFC003ECE97070000938727A8BEC497070000F3
:104F0C00938747A9BEC689472304F10297D7FFFFB1
:104F1C009387E77B3EDAB7F5070097070000938786
:104F2C0087AB3EDE814697070000938787A470000D
:104F3C00E1051945BEC02308810297B0FF1FE78029
:104F4C00804858088147994670003E9603460600F3
:104F5C0085070507A30AC700E398D7FED24791C778
:104F6C000357810185676373F70001A04808EF20A0
:104F7C00501FAA8501C9170502001305653BEFE018
:104F8C00E14701A0F640664425618280130101DEF1
:104F9C002D4697050200938565D42800232E1120F9
:104FAC00232C8120EFE0213A1306D01F81451305F5
:104FBC003101EFD0CF9C170500001305E5A8EF20B9
:104FCC0090161384D1862300A400EF00D0317523F2
:104FDC00EFE0AFFEEF00304185452800EF001021D7
:104FEC00EFF0CFC1EF10D02E0345040037F60200CE
:104FFC00130606E08965EF20804F2800EFE041544E
:10500C00170602001306462385450945312613066B
:10501C003005854551452924EF10902085462A8678
:10502C0085456945992C1306400485451305600296
:10503C00C52AEFE03FCE854603C6D18485451305CE
:10504C00C002252C01468545130580034121170715
:10505C0002001307E7338D461306B007814513058D
:10506C00B00529263400170602001306261D8145BB
:10507C000145A307010055210345040005661306ED
:10508C00062C93050002EF2080468320C1210324C7
:10509C008121130101228280B717004003A7870CDE
:1050AC001367071023A4E70C03A7870C13670720CB
:1050BC0023A4E70C03A7C70C1367071023A6E70C60
:1050CC0003A7C70C1367072023A6E70C8280B7172A
:1050DC00004003A7C70C1367071023A6E70C03A710
:1050EC00870C1367072023A4E70C03A7870C13670F
:1050FC00071023A4E70C8280371700408327C70CC6
:10510C0093E707202326F70C2147B7170040931687
:10511C008501E18663DD060483A6870C93E6061001
:10512C0023A4D70C03A6870C7D170605136606204F
:10513C0023A4C70C03A6C70C1377F70F1375F50F31
:10514C001366062023A6C70C9386870C9385C70C81
:10515C005DFF83A7870C93E707109CC29C4293E7E3
:10516C0007209CC29C4193E707209CC1828083A6A8
:10517C00C70C93E6061023A6D70C6DB701112EC6EB
:10518C0006CE22CC2A84093F13058007B537B245D9
:10519C00014599C11305000485372285B13F62444E
:1051AC00F24005612DB7411122C42A84138505FBF9
:1051BC001375F50F814506C6D1371355440081454B
:1051CC0013650501653F1375E4002244B240814527
:1051DC001365150041015DB7411122C44AC006C6D2
:1051EC0026C21304000B1309800B814522857937E5
:1051FC008145014561378145414549379304000894
:10520C0085450145FD149D3FE5FC05041374F40F21
:10521C00E31D24FDB24022449244024941018280A4
:10522C0001119317850122CC011606CE26CA4AC855
:10523C004EC6E1871374F60F63D60700850593F508
:10524C00F50F01458D3719463304C4028144970983
:10525C0002009389E9191949B3079400CE9703C545
:10526C00070085458504193FE39824FFF24062440A
:10527C00D2444249B24905618280797152CC138A79
:10528C00F6FF22D426D24AD04ECE56CA5AC85EC693
:10529C0062C466C206D62A8BAE89B28B1374FA0F1F
:1052AC00814C01499304F00FA94A194C631F9404D3
:1052BC00B250225492540259F249624AD24A424B99
:1052CC00B24B224C924C45618280B38757037D17B9
:1052DC001377F70FE31B97FEB3D7FB02B3F7570314
:1052EC0033858C0313F6F70F5A951375F50F63126C
:1052FC00090263D04C0389EF13060002CE857D149E
:10530C000537850C1374F40F55B722878547C1B741
:10531C00054913060603DDB7011122CC26CA4AC87B
:10532C004EC652C406CE2A842E89B2898144130AF1
:10533C008007B387990003C6070009EAF24062446C
:10534C00D2444249B249224A05618280228519041D
:10535C00CA851374F40FE93563768A000909137949
:10536C00F90F0144850493F4F40FE1B7011122CC39
:10537C0026CA4AC84EC652C456C206CE5AC02A893C
:10538C00AE84328AB689BA8A014463EC3401F240A5
:10539C006244D2444249B249224A924A024B0561C4
:1053AC008280A6854A850135330B8940B3078B0073
:1053BC0093F7F70F63E64701850493F4F40FF1B705
:1053CC00B3878A0003C5070085450504453BF9BF33
:1053DC00011122CC4AC84EC652C406CE26CA2A890E
:1053EC002E84328AB689636A3401F2406244D24414
:1053FC004249B249224A05618280A2854A856533B9
:10540C00CA8463E6440105041374F40FE9BF8545AF
:10541C0001458504A53393F4F40FE5B7994733059B
:10542C00F5020D8E634BA6003305A64009463345A5
:10543C00C502AA9513F5F50F8280014582804111B2
:10544C0026C28D45AA84014522C406C61304000455
:10545C00993B7D14854501451374F40F053375F89C
:10546C002685EFE0E11D1306000481451375F50F49
:10547C0075372244B240268692448D45410169BD60
:10548C00011132C606CE22CC26CA313B32460DC69D
:10549C00170402001304C4F5970402009384A4F5C6
:1054AC000345842285450504D139E39B84FEF240F3
:1054BC006244D2440561828019447D1485450145BE
:1054CC001374F40FEFF09FCB6DF8D5B7011122CC0C
:1054DC0026CA32C606CEEFF01FCD32469704020024
:1054EC00938464F117040200130484F011CE034575
:1054FC00E42285450504EFF07FC8E39A84FEF24070
:10550C006244D244056182800345442385450504E9
:10551C00EFF0DFC6E31A94FEDDB75D71B2850808C3
:10552C007018BAC0BEC206D622D436DEC2C4C6C6F5
:10553C0032C602C802CA02CC02CEEFE061142A8441
:10554C000808F53D83C7219425476374F7029385BA
:10555C00D1B7130600241385C1B3EFD0D15E0C086C
:10556C00138551D8EFE0A10C2285B2502254616111
:10557C00828085072381F194C5BFB717004003A72C
:10558C00870C411106C61367072023A4E70C03A759
:10559C00870C8D45130500201367071023A4E70C17
:1055AC00EFC0FFF98D4513050010EFC05FF913052F
:1055BC00200397B0FF1FE78060CA81451305E00AFE
:1055CC00EFF0DFBB814513050004EFF03FBB8145D5
:1055DC001305000BEFF09FBA81451305800CEFF01B
:1055EC00FFB9814513051008EFF05FB9814513052C
:1055FC00F00FEFF0BFB881451305100AEFF01FB89C
:10560C0081451305600AEFF07FB781451305800AC9
:10561C00EFF0DFB681457D45EFF05FB681451305B0
:10562C00300DEFF0BFB581450145EFF03FB5814539
:10563C001305500DEFF09FB481451305000FEFF0EB
:10564C00FFB381451305900DEFF05FB38145130552
:10565C002002EFF0BFB281451305A00DEFF01FB291
:10566C0081450945EFF09FB181451305B00DEFF071
:10567C00FFB0814513059004EFF05FB08145130531
:10568C00D008EFF0BFAF81455145EFF03FAF8145FA
:10569C001305F00AEFF09FAEEFF01FB4B240814556
:1056AC00014541016FF03FB0411122C4616426C233
:1056BC0006C61304146AB714004083A7440C13974E
:1056CC002701635807000145B2402244924441012E
:1056DC0082807D1405456DD897B0FF1FE78020B7F9
:1056EC00E9BF0DC5D1B77D14054501CC97B0FF1F9F
:1056FC00E780E0B583A7440C13972701E34507FE29
:10570C000145B2402244924441018280411122C49D
:10571C00616426C206C61304146AB7140040D9BFCC
:10572C00011122CC371400408327840C4AC8096924
:10573C0006CE26CA4EC6B3E7270152C42324F40C66
:10574C008326840C85648D45C58E2324D40CAA89AC
:10575C000965EFC0DFDE8D450565EFC05FDE032711
:10576C00C40C13058007336727012326E40C97B07C
:10577C00FF1FE780C0AD8327C40C2945C58F2326A6
:10578C00F40C97B0FF1FE78080AC09658545EFC02E
:10579C001FDB0145B93711C90545F2406244D244BB
:1057AC004249B249224A0561828021490144B71419
:1057BC000040056A93F71900B5CB83A7840C050448
:1057CC00B3E7470123A4F40C93D91900F13D69F513
:1057DC00093F79F17D19E31F09FC05883717004053
:1057EC0029CC8327C70C8566D58F2326F70C6D3DF6
:1057FC0045F5C53D55F1371400408327840C0567EA
:10580C00D98F2324F40C4D3541F905658545EFC03E
:10581C001FD30145F93549F18327440C1397370100
:10582C00E34C07F651353335A00085BF83A7C40C74
:10583C00B3E7470123A6F40C41BF8327870C856689
:10584C00D58F2324F70C65B7371700408327870CB7
:10585C0089668545D58F2324F70C09656FC03FCE2B
:10586C00411122C4371400400327840C26C28964DA
:10587C0006C6458F2324E40C91450965EFC03FCC47
:10588C008327C40CB240C58F2326F40C22449244C7
:10589C004101828079714AD02A891305200306D6EA
:1058AC0022D426D24ECE97B0FF1FE780409A693F94
:1058BC00514597B0FF1FE780809901451D3509C9F7
:1058CC000545B250225492540259F24945618280E6
:1058DC002A84A144B7190040C13B7DF119356DF103
:1058EC0083A7490C05801374F40F13973701635485
:1058FC00070013640408FD14E5F07D3371F1D53312
:10590C0061F1B717004083A7470CEFF0FFD94DF9B1
:10591C00C93B2AC655F5A93732452300890055B72E
:10592C00011122CC06CE2E84E53B11ED1305F100BE
:10593C00953711E98347F100638387000945F240ED
:10594C006244056182800545DDBF371700408357EF
:10595C00E7099396270163DA06088967231FF7087E
:10596C0083C73194850793F7F70FA381F19485468C
:10597C006397D70023820194A38301948280A54668
:10598C0063E7F60283C7419485832382F19403274E
:10599C00470C9316370163DA060493E707F8238262
:1059AC00F19483C771948507A383F19482802D476A
:1059BC00639DE702411106C683C7519403C7419406
:1059CC0081EF218B19EF693DB240A381019485478A
:1059DC002383F1944101828093860195BE962380A6
:1059EC00E6008507A382F194F9BF82803717004047
:1059FC008327870C0111896606CED58F26CA4AC823
:105A0C0022CC2324F70CAA842E8909659145EFC07A
:105A1C001FB3B93585450565EFC07FB29305A00F5F
:105A2C001305F00FF53D97050200938525C019ED80
:105A3C001305F100853519E50347F1009307A00A1A
:105A4C006301F702970502009385C5BF2685EFD049
:105A5C00113E05442285F2406244D244424905611C
:105A6C0082801305F1003D3597050200938505BF33
:105A7C0071FD8347F10081CB97050200938585BFAB
:105A8C002685EFD0D13A9305A00F1305600F493D41
:105A9C0097050200938585BF55F99305A00F130553
:105AAC00400FBD3D2A8497050200938565BF59FDC3
:105ABC0063030902EFF05FD9294597A0FF1FE78028
:105ACC00E07989450965EFC0FFB1B7E700E037071A
