:040000006F208008E5
:100004000000000000000000900000201C020020FE
:10001400A9BDF9F5940000200000000000000000D4
:10002400960000209800002000000000000000005E
:100034009A000020000000009C0000200000000046
:100044009E000020A00000208C020020A4000020BC
:10005400A6000020A8000020B2020020AC0000206E
:10006400AE000020B0000020B2000020B400002048
:1000740098020020B8000020BA000020BC00002034
:10008400BE000020C0000020C2000020C4000020E8
:1000940001A001A001A001A001A001A001A001A054
:1000A40001A001A001A001A001A001A001A001A044
:1000B40001A001A001A001A001A001A001A001A034
:1000C40001A001A001A0B71700409306700523808A
:1000D400D704130780FA2380E7040100010003C654
:1000E400B7041376F60DA385C7042380070413769B
:1000F400050251CE03C6A700118A1DE22380D7044E
:100104002380E7040100010003C7A7001367470029
:100114002385E7009307004B01000100FD17EDFF65
:10012400B7170040930670052380D704130780FA9D
:100134002380E704010001007D892394A7000100C6
:10014400010001000100238007042380D7042380D9
:10015400E70401000100372700408546A303D78048
:1001640023800704B7170040130770052380E704B2
:10017400130780FA2380E7040100010003C7B704D2
:1001840013670708A385E704238007048280137696
:10019400050425CA03C6A700418A1DE22380D704AB
:1001A4002380E7040100010003C7A70013670701C8
:1001B4002385E7009307007D01000100FD17EDFF93
:1001C400B7170040930670052380D704130780FAFD
:1001D4002380E704010001007D891365050423944D
:1001E400A70001000100010001002380070423800F
:1001F400D7042380E7040100010037270040894623
:10020400B1BF2380D7042380E7040100010003D792
:1002140087001367070C2394E700A9B781460146BA
:1002240081451145992AB7170040130770052380AB
:10023400E704130780FA2380E704010001007D57D7
:100244002396E70203C76704136717002383E704B1
:100254002380070401A0BD473305F50201007D1585
:1002640075FD8280411122C426C206C6AA840144B7
:1002740063179400B24022449244410182800504F1
:100284001305803E4204C13F4180DDB7975000E032
:10029400E780A01673002030B7170040130700034F
:1002A4002388E7028547174700002325F766730074
:1002B4002030975000E0E780C05B730020302303B8
:1002C400048015472303E48001002302A480828074
:1002D40083076480E3CE07FE2303048082808307C0
:1002E4006480E3CE07FE03454480828083076480F4
:1002F400E3CE07FE2302A4808280411126C44AC2B1
:100304004EC006C61377F50BAD47AA892E899544CE
:100314006306F70019456537653F8D444E854537BB
:10032400FD59FD1463983401B240A2441249824934
:1003340041018280135509011375F50F453F2209C8
:10034400CDB7011126CC06CEB704080051371545A8
:10035400BD37713769372AC6A53F324593771500F3
:1003640089EB136515001375F50FF240E24405613E
:100374008280FD14E9FC0145CDBF397126DC4ADADF
:100384004ED852D656D45AD25ED006DE62CE66CC51
:10039400B7E700E07D5783AA070022C603AA4700F7
:1003A40023A0E71823A2E718B71700401307700526
:1003B4002380E704130780FA2380E70483C74704F4
:1003C400930B75FFB684E20793FBFB0F8546AA895E
:1003D4002E8B328937240040E187015763FA760176
:1003E4006308D5008946130700026313D50001573B
:1003F400D98F93F7F70FB71C00402382FC041147F1
:100404002303E4801305F00F5D3D094CD135636D82
:100414007C11B7050700DA9537870700795563F231
:10042400E504B3879500636EF702370B0800A9470C
:1004340033EB65016399F90689E48144513D2685CE
:100444000DA0DA850945553D05090345F9FFFD145D
:10045400050B693D81C49377FB0FFDF7DD3569FD1D
:100464007D55B7170040130770052380E704130771
:1004740080FA2380E70403C74704418B2382E704FF
:10048400F250B7E700E023A0571123A24711E2542A
:1004940032445259C259325AA25A125B825B724C8C
:1004A400E24C21618280A5476395F90685691309A9
:1004B400F00FB3069900B3742B01B6941349F9FFF6
:1004C400B3749900856B33796901416B9387F9FFA4
:1004D400B3F7270199E363FC340193D94900C14779
:1004E400E3E637FF99BF0569C1697D19D9B71305DB
:1004F400800D638869011305000263847901130583
:100504001008CA85DD3B353D21DD4E99B384344165
:10051400D9B7DA852D45D533CA94E30099F2050994
:100524007D3BA30FA9FED5BF9387F9FF93F7F70F80
:100534006361FC0C83C71C0413073008631FF704B2
:1005440037070800636BEB04B3079B00B706100082
:1005540063F5D704334BEB0089476393F90689802D
:10056400D549E38C04ECDA850945413B110903279D
:10057400C9FF91472320E48003076480E34E07FE0C
:1005840023033481FD17EDFBFD14110B81C4937714
:10059400FB0FE9FF7D3371F5E1B5B717004003C7E1
:1005A4005704B70708001377070219E3B787070052
:1005B4007955E378FBEA33079B00E3FFE7F855B589
:1005C4008547E382F9F2DA852D45053B9389F4FFEB
:1005D400E38504E6293393F7390091EB83260480FD
:1005E4000327090093074900E39AE6E43E89CE8491
:1005F400F1BFB5476396F9001305900BC93135BDBA
:10060400B1471305B00AE38BF9FE99476391F904E6
:10061400B7050800B365BB002D45C53181448D4B3A
:10062400A149753963967401832704802320F90056
:100634008504E39834FF8327048013172B01635543
:1006440007002312F900D5BB2322F900FDB39D470F
:100654006399F90281451305B0044531BD44232053
:10066400090023220900FD599D3993F77400CA97A4
:1006740003C70700FD14398D2380A700E39634FFD8
:100684006DBBA1476392F9046D398144630D0B007E
:100694008D479304C0036308FB00930400056304BF
:1006A4008B01930440041375C507E30895D81945D5
:1006B400393139390545213126850D3909453D3111
:1006C4004931E31C05D669BB91476399F9001305C9
:1006D4006006F536F53E130590090DB7E38F09D48E
:1006E400F154A9BB17670000034737E9914763E258
:1006F400E7149767000083C7A7EA918B639B0712EF
:1007040097670000938707CA90439766000083C6E3
:10071400B6C5814763CED706011122CC1764000009
:10072400130484C4584426CA06CE9767000083C7BE
:1007340017C997640000938464C76365F70C680065
:10074400973001E0E78020C2FD57630AF50C324779
:100754009767000083C7B7C663F6E70A5844634146
:1007640007048D2132475C446373F700BA87176727
:1007740000000347D7C4998F3E958387440163C61D
:100784000702B707C0A86362F502B707405771A014
:100794001397170032970357070041EF85079DBF52
:1007A40003874401635507061D8D17640000130475
:1007B40064DC1C4C81CF976700009387A7DF9443C8
:1007C4003707CDFF7D179C46F98F9CC619E1370585
:1007D400C0A8DC50829719E91C4C8DC7979001E0A2
:1007E400E7804013978001E0E78080601C4C99CB40
:1007F40097670000938707DC9843B70633001C47CC
:10080400D58F1CC7F2406244D24405618280E37DE7
:10081400F5F83707C0A8B307F7403E9579B75C44AD
:10082400E3C207FE452617670000034757B95C4437
:1008340099B7828019CD91CD09CE81473387F500D0
:10084400834607003307F50085072300D700E397A5
:10085400C7FE828019C991C909CA910583A7C5FF3A
:1008640011057D16232EF5FEC5BF8280854715C16F
:100874008DC105C28147B306F5003387F50083C6F1
:100884000600034707006398E6008507E315F6FEB4
:1008940085473E8582808147EDBF79719767000067
:1008A400938787B022D4804306D626D24AD04ECE30
:1008B40052CC56CA5AC85EC67DC08144176B00002C
:1008C400130B0BB317690000130949AE176A000034
:1008D400130A8AA9B709C0A8B70A40578357240046
:1008E40085E35C4481EC17670000232FF7AA832B70
:1008F400C4002285EF1080575E8461A0DCC4C5BFAC
:1009040083270B0082971C44636FF5023307F5407D
:10091400635E07020327490219CF03074901635F96
:1009240007003387A7408327CA006376F7009767D9
:10093400000023A1E7A4A2844044A1A00147E384CA
:10094400A7FECE97F9BF898F63DE0706976700007D
:1009540023A207A28355240003450400976000E006
:10096400E78000395C405844B1C71444B697830605
:10097400490163C5060063E33701D6971CC4A2840A
:100984003A8429FC976700009387079EDC47114748
:100994006376F704F11717670000232DF79CB25014
:1009A400225492540259F249624AD24A424BB24BFF
:1009B4004561828091E49767000023A7E79E05BF05
:1009C400D8C435B7032749023DD70327CA00E3F447
:1009D400E7F617670000232FF798B1BF9767000069
:1009E40023AA07986DBF411122C4176400001304A1
:1009F400E4991C4006C626C291C7829797670000F7
:100A040023A607985C4091C382971C40639E0716F7
:100A14009767000083C757B6858BF9CF97670000A7
:100A2400A38C07B417670000034737B5914763FDEC
:100A3400E700EF00B0569767000083C717B4F517B7
:100A44008A07A2979C4382979767000093878795AC
:100A540098431766000003463691BE8497670000EA
:100A640083C7879093961700BA9683D60600D1CE93
:100A74009767000083C7478F63E3C70A976700003F
:100A84002384078E1C40639107109767000083C777
:100A9400F7AE91CF9767000083C737AE89EB9767AE
:100AA4000000A38D07AC978001E0E780607397672F
:100AB40000009387E7939C43E1CBFD571767000041
:100AC400232AF78AD93B976700009387278EDC5344
:100AD40091C3093997670000938747919C43CDC719
:100AE400829797670000938727889C4B3E9597676A
:100AF400000023A3A78849A89767000083C747AAD3
:100B0400918BB9D3EF10601A81B7850793F7F70F6C
:100B140097660000238AF684E3E2C7F491BF860750
:100B24003E979767000093872786835507009C4369
:100B340023100700176500000345058313172500DC
:100B4400BA979C4382979767000083C7E7811397FE
:100B540017009C40BA9703D70700598D2390A7002C
:100B64009767000083C7478091C785071757000020
:100B7400230CF77E175700000347077F97570000A1
:100B840083C7977EE37CF7EEB2402244924441014E
:100B94008280AD6737C70040BD072326F7200F10BA
:100BA4000000975700009387277C884F8327872668
:100BB400BD66BD0693C7F7FF99836A052326D72030
:100BC4005D8D82804111B7170040985F3AC6945FEB
:100BD4003247E39CE6FE3245410182800327850FBC
:100BE40019E3054582808347C50093F7C70F2306A1
:100BF400F500034687008356C70093158601E185F7
:100C040063D8050A137816008355E51863020806AD
:100C140013E617002306C50063F8D5020348A502AE
:100C2400A30AB50017560000034656796376C80038
:100C340093E717012306F5008D8E2316D700854709
:100C4400A30CF50001458280104309CE8345A5021B
:100C5400175600000346967663F6C50093E717011E
:100C64002306F500A30AD5008947A304F700C1BFF2
:100C740013E8270023060501E3F5D5F68D8E130846
:100C840010F813661600A30407012304C7002316F3
:100C9400D7008346A502175700000347377263F64F
:100CA400E60093E727012306F500A30AB50041BF38
:100CB400054893E527006314060193E5170023060E
:100CC400B500A30AD5008947A304F7001C43A5DB9C
:100CD4000347A5029757000083C7576EE371F7F6E1
:100CE40093E505012306B50099BF97670000938734
:100CF400E7849C43411122C406C6858B2A84CDEB2C
:100D04004165130525F5973001E0E780803E4DC12C
:100D14008347A5002315F50083270410A5E72320A6
:100D2400A4102322A4108547231CF40223200500C9
:100D34008347640154412316F5000347D400230478
:100D4400E500176700001307E782184F13851702A1
:100D540015811C437D151375F50F9CC25C43DCC2E1
:100D64001C479CC65C47DCC61C4B9CCA5C4BDCCA5B
:100D74001C4F9CCE5C4FDCCE19CD93860602130724
:100D84000702C1BF8327441088C3835784032322E7
:100D9400A410850751BF9767000083D7A78A8507EA
:100DA400176700002310F78AB24022444101828071
:100DB4008347C40023090400054593C7470023065D
:100DC400F400DDB78347E50193F7E70F91CB0145C5
:100DD40082800145B240224492440249410182800A
:100DE4008347F501EDF7834625010347C50089CA0A
:100DF4000346A5029757000083C7975C6367F60014
:100E040093770701E9D7814789C6418B8357C51872
:100E140001C703570519BA97DDDB175700000347CD
:100E2400275A41111316870106C622C426C24AC096
:100E34006186635006069387C71313D457009757E8
:100E440000009387277E83A687089754000083C4F5
:100E5400C4577D59B705C0A883A7460803D786079A
:100E6400635B06043387E740637327013A8994423E
:100E7400E5F6975700009387A7579C438297E36A48
:100E8400A9F43305A940269433348500134514008E
:100E940091B7058B9387C71209CB8A071384F7038D
:100EA4009307D0073354F40259BF86071384F7011C
:100EB4009307D003C5BFE3F7E7FAAE9765B71756B4
:100EC4000000130626760327860863040746797113
:100ED40026D2975400009384644D8388440183256B
:100EE400060906D622D44AD04ECE52CC56CA5AC887
:100EF4005EC601457D583703C0A88326470883573B
:100F0400870763D20812B387F64063F50701BA85F1
:100F14003E880545184375F309C59757000023AB70
:100F2400B778032406098569175900001309494C49
:100F3400370AC0A8B70A4057054B9389B947832796
:100F44000900832B440882976370752F0357840725
:100F54009757000083C76747B38BAB40BA9763EEDC
:100F6400771F83574403A30E040022858507231AA1
:100F7400F40283470412C5CF8D212285972001E016
:100F8400E780E06551E58386440123050402832755
:100F940044080355840763DE0608B389A740032782
:100FA4000408232E3407BA9763C90600B706C0A8FD
:100FB40063E5D700B7064057B6978346B4002322AB
:100FC400F4088547639FF6068357240703560403F2
:100FD4006369F606034604016315D6068326840F67
:100FE400ADE283268409B1EE0346F4009306000CB7
:100FF4006319D604B387E70203278408B3D7E7024B
:10100400175700000347573C0507BA97231CF406FB
:10101400B250225492540259F249624AD24A424B83
:10102400B24B45618280E3F0F6EE9A96E9BD19264B
:10103400A9B7E3F4A7F6B709C0A8BE99B389A94034
:10104400B9BF8327090082979757000083C74737A2
:10105400139787016187635807083385A94079C1CD
:10106400832604086370D50C635507081605B71763
:10107400004083C7F702E207E18763C30700411515
:10108400175700001307C7501443B567BD07DCC6E4
:101094000F1000001C4306050967E8D398C713071F
:1010A40000F8975600002389E64C3D673D07D8C7F2
:1010B400978001E0E780800F978001E0E780E01FE0
:1010C4000347B400854781456313F704177501E0AE
:1010D4001305A5EE976000E0E780E0FB930700FDB1
:1010E4002307F40035B7E3FAA9F6B706C0A8B69902
:1010F400ADB7858B99C79307803E3305F5021581FB
:10110400BDB79307D0033305F50205818DB71745A5
:1011140001E01305E5A4976000E0E780C0F79307BA
:1011240010FC7DBF0347B400854703A30403631782
:10113400F7009545E30E03EC154529A0E30A03ECFB
:10114400954519452254B25092540259F249624AC3
:10115400D24A424BB24B4561028363D60B06835796
:10116400440322858507231AF40283470412B1CB72
:10117400AD242285972001E0E78060460327040818
:1011840083274408BA97038744016345070063E350
:101194004701D6972322F4088347B4006397670175
:1011A4002285977001E0E780008C8347D401854550
:1011B4008507A30EF4009C58E38307D8154582974E
:1011C400BDBB8D2A7DB783572403175700000347FF
:1011D400271F93168701E1868E0763D7060213073C
:1011E400204EB387E7029583E3F477E3A145228594
:1011F400972001E0E78020362302A40203A304031E
:101204008945E31B03F229B5058B11C71307800237
:10121400B387E702D1BF05671307B747B387E70270
:10122400938707049D83C9B7835724031757000086
:101234000347071993168701E186B30B75418E079F
:1012440063D0060A1307204EB387E702958363F23F
:10125400FB0C83270900829783574403AA8B2285BA
:101264008507231AF40283470412C1CBBD222285C9
:10127400972001E0E780A036E31C05D80327040883
:1012840083274408BA97038744016345070063E34F
:101294004701D6972322F4088347D40113F7070F95
:1012A40039CF2285972001E0E78020EBA30E0400CC
:1012B40083274408E3FFFBF88347B400639567057D
:1012C4000357240783570403E3FBE7C6228597608B
:1012D40001E0E78040799C58E38307C68D45F9BD5A
:1012E400058B11C713078002B387E7028DB7B38755
:1012F4003703938707049D8399BF2D288DBF8507E6
:10130400A30EF40075B79C58E38B07C28D451945AD
:101314007DB5E3CF0BCEA1452285972001E0E78080
:1013240080232302A40203A30403E30303CE914511
:1013340021B58280797126D206D622D44AD04ECEE7
:1013440052CC56CA5AC85EC68347850203447511F7
:10135400AA843E941374F40F9307400263F6870043
:101364001304B4FD1374F40F03AA841183AAC411E3
:10137400A38B841022865285D685971002E0E780DD
:10138400C044058915E503CBD41001498149337B59
:101394006403930B50024A865285D685971002E067
:1013A400E780A042058915C5639169031374F90F99
:1013B400238B8410B250225492540259F249624A47
:1013C400D24A424BB24B456182808509E20993D9E6
:1013D40089410509E31179FDE1BF8327C508035657
:1013E4004503797193D60701BD8EC206C182358E3D
:1013F4001357764093575640898B058B5D8F9357CF
:101404003640918B5D8F93571640A18B5D8F931758
:101414001600C18B5D8F9317360093F707025D8F1B
:10142400931756009355860093F707041E065D8FA5
:101434001376F60F518F93D7554013D63540118A42
:10144400898BD18F13D67540D18F13D61540218A3D
:10145400D18F13961500418AD18F139635001376D8
:101464000602D18F13965500137606049E05D18F7C
:1014740093F5F50FCD8FA20745465D8F3307C7025D
:1014840022D42A8426D252CC56CA032A8411832A0F
:10149400C4115AC806D636974207418393577740FA
:1014A400135557400989858BC98F135537401189C6
:1014B400C98F135517402189C98F13151700418906
:1014C400C98F1315370013750502C98F13155700FB
:1014D40093558700137505041E07C98F1377F70FFB
:1014E400D98F13D5354013D755401189098B498FAE
:1014F40013D57540498F13D515402189498F13950C
:1015040015004189498F1395350013750502498FDC
:1015140013955500137505049E05498F93F5F50F32
:101524004D8F2207D98FB387C7024AD04ECE5EC6ED
:1015340062C4B697C207C18313D7774013D5574007
:101544000989058B498F13D537401189498F13D5E4
:1015540017402189498F139517004189498F1395A5
:10156400370013750502498F1395570093D58700EB
:10157400137505049E07498F93F7F70FD98F13D579
:10158400354013D755401189098B498F13D57540C0
:10159400498F13D515402189498F13951500418929
:1015A400498F1395350013750502498F139555001E
:1015B400137505049E05498F93F5F50F4D8F22078A
:1015C400D98FB387C702130650025285D685B697C2
:1015D400BD8E93940601C18033F6C402137BF60FCB
:1015E400971002E0E780601E05890DED8347D41053
:1015F40001498149B3849702130C5002C1804A8681
:101604005285D685971002E0E780201C0589937BDC
:10161400F90F11C563863403850993F9F90F050998
:10162400E31F89FD230B6411B250225492540259D2
:10163400F249624AD24A424BB24B224C4561828003
:101644005E8BCDB70111975700009387A7FD22CC7D
:1016540003A4C70A26CA06CE2AC42EC6854419E4A2
:101664000145F2406244D24405618280034714007C
:10167400834791006304F7000044D5B719469305E6
:10168400A10013052400EFF06F9EE31795FE0545B6
:10169400C9BF17570000130767EB1443411122C653
:1016A4009C5E4AC226C49983858B3A8417590000EC
:1016B400130989E9C9C39C5E97540000938484EBA1
:1016C40093F7F7F99CDE9757000083C7A7EA93F7CF
:1016D400070499CB97570000938787D19C4382973F
:1016E4009757000023A0A7EA854717570000A305D2
:1016F400F7E883C7440093F7070491EF9757000076
:10170400938707E99C43D844F8D3930700FC175701
:1017140000002303F7E683C7640013070008631C73
:10172400F700832709009C439983858BADE3975782
:101734000000238407E41C40985F1183058B09CBC8
:10174400985F3D9B98DF0547975600002386E6E2A5
:10175400985F1D83058B11CB985F1377F7F798DF9C
:101764008547175700002309F7E083270900D8436A
:101774000583058B19C7D843759BD8C3D843799B78
:10178400D8C33244A2441249410173002030930764
:1017940000FC175700002302F7DE71BF1757000043
:1017A400130747DD83470700858B89EB83471700C1
:1017B400858B89E783474700858BEDD78280175750
:1017C40000001307A7D814439C5E9583858BC5EF4F
:1017D40009C69C5ABD832300F600C5C9834715007A
:1017E400CDC7411106C617560000034606D9930615
:1017F400000C6304D602975700009387A7D783C5CC
:10180400670097570000938767BA9C5B13053008FD
:1018140082970945B240410182803E9583479500F5
:10182400854613F6F706630AD60097570000938798
:10183400E7B79C5B9305D00FD1BFE207E187094569
:10184400E3CA07FC1C43985B460793576701635937
:10185400070293E707C01387970F42074183930654
:10186400201F0145E3E8E6FA1387619E031707008A
:1018740009C7BA970947B3C7E7022393F19E59BF33
:10188400C207C187C9BF054582801C43985B4607D0
:10189400935767016359070293E707C01387970FAC
:1018A400420741839306201F014563EDE600138739
:1018B400619E0317070009C7BA970947B3C7E70230
:1018C4002393F19E8280C207C187C9BF49E5975718
:1018D40000009387E7CB9443411122C406C62E87A8
:1018E4003E84FC52FDFF3A85B285977001E0E780A3
:1018F400A06A97570000938767C59C43B70680008A
:101904009843558F98C3D857719BD8D71C40094723
:1019140098C3B7F700E003A707D16D9B23A8E7D0CE
:1019240003A707D15D9B23A8E7D073005010175776
:101934000000130727C483472700858B89EB83475F
:101944003700858B89E783474700858BEDD7B24005
:101954002244410182808D476310F50497570000AB
:101964009387C7BE9C43B70680009843558F98C39E
:10197400D857719BD8D7175700001307A7BF8347C1
:101984002700858BBDEF83473700858BBDEB8347ED
:101994004700858BEDD782808547E31EF5FC97577A
:1019A40000009387E7BE944335673D07D8C60F1000
:1019B400000017570000130767B9144309469842FB
:1019C40031830D8B6313C70298439306E04374D3AA
:1019D400984389671CC7930700F897560000238D26
:1019E400F6B8BD67BD075CC779B7984294433183A5
:1019F4000D8B09E713076019F8D2D9BF1307E01B51
:101A0400E5BF82805D712AC62EC486C6977001E048
:101A1400E780C079978001E0E780208A975800002A
:101A24009388C8B283A7080017530000130383B830
:101A34003706330023A40700984B370EFCFF370FFB
:101A440004001367F70398CB9843914F7D1E1377D7
:101A5400F7E798C398438542930E80021377F7E71C
:101A64001367071098C38326030032459846518FA5
:101A740098C6175700001307A7B118439306900D93
:101A8400014634CB1377F51FE84FF576FD16137531
:101A940005E0598DE8CF9843758F98C3A2458147D7
:101AA40003A70800032803009376F60F231C0704FA
:101AB400231007060325C80275992326A8020328C4
:101AC40007001375F607137808F83365A80008C3F0
:101AD40048533365E50148D303558705E3FEAFFE5C
:101AE40048533375C50148D3035707062808329570
:101AF4001377F70F2300E50019EF13D736002E975D
:101B0400034507009D8AB396D2008507C98E93F7D3
:101B1400F70F2300D7000506E314D6F985461148CC
:101B24008548130380026363F8040146814728084B
:101B34003295034505001377F60F63E1A6021355AA
:101B440037002E95034E05001D8B3397E80085075B
:101B54003367C70193F7F70F2300E5000506E31881
:101B640066FC850693F6F60FE39F06FBB6406161BB
:101B74008280175700001307E79D8346B7019757E4
:101B8400000083C7F7A1B69793F7F70FFD4663EA02
:101B9400F6044C4B97560000A38EF69A9757000014
:101BA40083C7579B05473317F70097560000A3894F
:101BB400F69E6D8F1DEF9756000083C6B69EB3F652
:101BC400D70213050002814733D6F500058A13F8BE
:101BD400F70F09CE6399E60097570000A38C079787
:101BE400828081177DB705071377F70F8507E39D7B
:101BF400A7FC8280974700009387877F9C4301114D
:101C040022CC4EC606CE26CA4AC852C456C28297B1
:101C14009757000093870798804781496305A40676
:101C2400BE849747000093876778038747013E89FE
:101C340063550706018D135455009757000083C759
:101C440007939379F501636DF402370AC0A8B70AC4
:101C5400405705379C449756000083C64691139716
:101C640056003E9783074901158C63C507006363DB
:101C7400470156979757000023A2E792E37BD4FCD1
:101C84001604B3693401F24062444E85D244424999
:101C9400B249224A924A05618280E37D85F8B707FA
:101CA400C0A833848740229579B79747000093876B
:101CB40027749C43411122C406C626C282979757B3
:101CC40000009387278D80476309A406BE84974745
:101CD40000009387A76D8387470163D80704018DAC
:101CE400135455009757000083C767886367F4044B
:101CF400493598449757000083C7678793965700E0
:101D040036971D8C9756000023AAE688E372F4FEEA
:101D14002244B2409244175500000345B5838145DF
:101D24004101179301E0670043DAE37A85FAB707C4
:101D3400C0A833848740229565B7B24022449244B8
:101D440041018280975700009387C7869843B7570D
:101D540002009387079F832607091396560063584A
:101D64000600832607091396660063440600FD17E0
:101D7400FDF3828021670507AA876397E50003C7FF
:101D8400419D014565E382800145E5C3F9CD8D0799
:101D9400C207C183F19BC207C18313074003636F6A
:101DA400F702175700001307A786084317570000C8
:101DB4001307878514436398A60217470000130787
:101DC400E75E185B014555C34111C20706C60545C8
:101DD400DD8D0297B2400145410182801757000012
:101DE4001307C782D9B7035765003DEB0357450076
:101DF4006368F706B306F740214617580000130836
:101E04006881637AD6028328050003260800938636
:101E140087001D8FAA9661172392E60023A016015E
:101E24002393060014C1130786FF2312F500974677
:101E3400000023A1E67E21672313B50005076397FD
:101E4400E50003C7419D7D17238AE19C8325080093
:101E54002105B387F54017470000232DF77A8280C8
:101E6400084191BF014585F7828082800DC1974763
:101E740000009387E77903A307009747000093873F
:101E8400A77883A8070001479A8763E31701828034
:101E940003A807006369F50A6367A80A93868700A5
:101EA400E367D5FE03D66700A16685066317D600EF
:101EB40083C6419D8506238AD19C9745000093855E
:101EC4006575944103D6470023930700B2961745DE
:101ED40000002321D574638A6702174500001305A7
:101EE400E57208416303F5020355670019ED835752
:101EF400470023200701A1063E96210697470000CC
:101F040023AAD7702312C700BA879843E30117F9AD
:101F1400974600009386866F9442E30AD7F6835669
:101F24006700B5F683D64700035647001843A10659
:101F3400B29698C32392D7009C41A107174700008B
:101F4400232AF76C82803E87C28781B701119747A5
:101F540000009387276D22CC03A4470B26CA4AC8E6
:101F64004EC606CEAA8413092500854915C083C729
:101F7400140003473400858B6304F700405CFDB70D
:101F84001946930544004A85EFE05F8EE31835FF58
:101F94002285F2406244D2444249B24905618280BA
:101FA4004111974700009387E76722C403A4470BB6
:101FB40026C24AC006C693042500054901E82285C5
:101FC400B24022449244024941018280A68513050D
:101FD400A402970002E0E780A032E30225FF405C00
:101FE400F1BF4111974700009387C76322C403A43C
:101FF400470B26C24AC006C693042500054901E8DA
:102004002285B24022449244024941018280A6853D
:102014001305A401970002E0E780802EE30225FF68
:10202400405CF1BF0111974700009387A75F22CC62
:1020340003A4470B26CA4AC806CE2AC42EC6B284B5
:10204400054919E001453DA0034791008347340049
:102054006318F7021946930544001305A100EFE045
:10206400FF80631F2501A6851305A402970002E0E3
:10207400E7800029F2406244D244424905618280EB
:04208400405CC1B744
:1020880097110020938101D817610020130101F7EF
:102098001305400097E5FF1F938545F617060020B6
:1020A800130606FE63FAC5008322050023A0550027
:1020B80011059105E3EAC5FE173502001305856D84
:1020C800970500209385C5FB1386018B63FAC5002D
:1020D8008322050023A0550011059105E3EAC5FEFA
:1020E8001385018B97450020938585626377B5003A
:1020F800232005001105E36DB5FEFD42739002BC77
:102108008D42739042809302800873A0023097E258
:10211800FF1F9382A2EE93E23200739052309742EF
:1021280000009382423873901234730020303D438C
:102138002A876373C3029377F700BDEFADE5937603
:1021480006FF3D8ABA960CC34CC30CC74CC741075F
:10215800E36BD7FE11E28280B306C3408A0697027A
:10216800000096966780A6002307B700A306B7006D
:102178002306B700A305B7002305B700A304B700DB
:102188002304B700A303B7002303B700A302B700D3
:102198002302B700A301B7002301B700A300B700CB
:1021A8002300B700828093F5F50F93968500D58DAF
:1021B80093960501D58D61B7939627009702000085
:1021C80096968682E78086FA9680C1171D8F3E967E
:1021D800E374C3F8A5B7B717004003C777051A0516
:1021E80092054D8D1377E70F13653500A38BE70430
:1021F8001375F50FA38CA7048280B717004003C797
:1022080077051377E70FA38BE704130700F8A38D6F
:10221800E7043D47238CE70413075003A38CE70426
:102228008280B7160040130670052380C604930702
:1022380080FA2380F6040100010003C7F602136741
:102248008700A387E60203C7F6021377770FA387F1
:10225800E60203C7E6021377C70F2387E60203C720
:10226800E602136717002387E6022380C60423804B
:10227800F6040100010003C736057D78930E481F58
:102288001377870FA389E60403C73605371600407E
:10229800116E13671700A389E6042380F60483C729
:1022A80036051167130F400893E70702A389F60460
:1022B80083D706051308281B930F3004D98F11679D
:1022C8002398F6047D1791478942130370059308F4
:1022D80080FA83463605A18AEDDE835606058346D5
:1022E8003605A18AEDFE83560605B3E6C601231816
:1022F800D60483463605A18AEDDE83550605834656
:102308002605F98DB306D702B695B386D501637154
:10231800DF04FD1793F7F70F85CFC2959396150045
:10232800B3C6F6036352B0028506858623006604A9
:1023380023001605010001008355C602AE96C206A9
:10234800C1822316D60271B7FD16B3C65602F9BF6D
:10235800B716004083C7360513873605A18BFDDB0A
:1023680083D7060583D706051166D18F2398F6040F
:10237800930770052380F604930780FA2380F604F8
:10238800010001008347070093F7870F2300F70038
:1023980083470700C98F93F7F70F2300F700371714
:1023A800004083473705A18BEDFFB717004003C7EF
:1023B8003705218B6DDF83D6070583C7270511668F
:1023C8007D16F18E3306F60285659307C0031387E1
:1023D80005C83696938605FAB396A600B386F60224
:1023E800A1679385559CB3C6F6029307803EB386D2
:1023F800F602B357A740B306D640B387D702B3C790
:10240800B7026351D0048507094793067005B3C71F
:10241800E702371700402300D704930680FA230009
:10242800D7049607010001008356C702B697C20772
:10243800C1832316F7028347370593F7F70DA309DE
:10244800F7048280FD17C9B7914763EEB7021727D3
:1024580002001307A7E78A05BA959C41BA978287B5
:10246800B717004003A7470B1345F5FF698F23AA49
:10247800E70A03A7070B698F23A8E70A03A7070A38
:10248800798D23A0A70A8280B717004083A6470B3F
:102498001347F5FFF98E23AAD70A83A6070B558D94
:1024A80023A8A70A83A6070A758F23A0E70A8280B4
:1024B800B717004003A7470B498F23AAE70A03A7CA
:1024C800070B1345F5FF45BFB717004083A6470B19
:1024D8001347F5FF758F23AAE70A03A7070A598D43
:1024E8004DB7B717004003A7470B498FEDB7914782
:1024F80063EEB70217270200130787DE8A05BA952D
:102508009C41BA978287B717004003A7470D134528
:10251800F5FF698F23AAE70C03A7070D698F23A886
:10252800E70C03A7070C798D23A0A70C8280B717A7
:10253800004083A6470D1347F5FFF98E23AAD70C51
:1025480083A6070D558D23A8A70C83A6070C758FA6
:1025580023A0E70C8280B717004003A7470D498FD7
:1025680023AAE70C03A7070D1345F5FF45BFB717C7
:10257800004083A6470D1347F5FF758F23AAE70C84
:1025880003A7070C598D4DB7B717004003A7470D90
:10259800498FEDB79357E50093F70730C98FC20706
:1025A8000547C1836382E5048DC10947638DE5044E
:1025B8000D476380E50637170040231FF708835649
:1025C8002709D58F2319F70882803717004003564B
:1025D800670993C6F7FFF18E231BD7088326C70C1C
:1025E800558D2326A70CC1BF37170040035667092E
:1025F80093C6F7FFF18E231BD7088326870C558DCA
:102608002324A70C4DBF3717004083566709DD8E7A
:10261800E1B73717004083566709DD8EE9BFB71762
:10262800004003D7870109C5D98D239CB700828054
:1026380093C5F5FFF98DD5BFB717004003D58700BF
:10264800420541819377050491EB9377F50137555E
:10265800E801130505803345F50282809377050C60
:10266800130700046397E7009377F50137459C1C2F
:10267800CDB72165130505D08280B7F700E08847FC
:10268800CC478280814737470040A14663C4C700D2
:10269800328582800345B7C0E38EA6FE3385F500F8
:1026A8000345050085072304A7C0CDB712059A0581
:1026B8004D8D1365C5001375F50FB72700402380AE
:1026C800A7408280B727004001E5A38007408280A9
:1026D800239CB740239EC740154791E20547A38036
:1026E800E7408280411122C406C62A84B1372947AF
:1026F800B307E502B2408D83B3D78702224495071A
:10270800B3D7E70237470040C207C1832316F7C093
:1027180041018280716541111305052006C6D9372C
:10272800B7470040130770F82381E7C00D47A3811E
:10273800E7C013070004A380E7C005472387E7C065
:10274800B24041018280B787004023800700130709
:10275800C0FC2386E700A386E7001727002003575D
:10276800E7062398E7001727002003576706239AF0
:10277800E700172700200357E704239CE7001727E3
:10278800002003576704239EE70089462381D70268
:1027980049472383E7022385E7022387E702238942
:1027A800D702A3810700130790022380E700B7161A
:1027B800004003D7A6011367070C239DE6007D5749
:1027C8002383E700130710F8A380E7001D47238140
:1027D800E7008280B78700402382A70203C7670209
:1027E8001377C70F2383E7028280B78700402384CB
:1027F800A70203C7A7021377C70F2385E7028280C2
:10280800B78700402386A70203C7E7021377C70FDD
:102818002387E7028280B78700402388A70203C77F
:1028280027031377C70F2389E70282809387C18B19
:102838009C43011106CE22CC91C3829793870190C5
:1028480080439387018C9C4313150401418181C700
:102858002AC6829732459707002083D7C7DA63795B
:10286800F50403D741806378A7049386818B03A37B
:102878000600630603006244F2400561028385078F
:10288800998F13950701418193572500131504016A
:1028980041816544198D330585021384F7FF22951C
:1028A8003345F5021375F50FF240624405618280E5
:1028B80013054006D5BF0145C5BF03A84500411112
:1028C80026C206C622C48347180003480800A94444
:1028D800A207B3E70701C2070D68C187130828904C
:1028E8006396070385473284EF80D057AA8419ED91
:1028F8009387418B9C4399CB0345140003470400FD
:102908002205598D1335150005058297B2402244DA
:1029180026859244410182802D452DEFD8414111F1
:1029280022C426C206C68347170003470700B68499
:10293800A207D98F0D67930697A13284639CD702AB
:10294800F5359707002083C7E7CB6376F50097072F
:1029580000202389A7CA85472390F4009707002001
:1029680083C747CA2300F4000145B2402244924479
:1029780041018280130787902945E398E7FECC45FB
:1029880089472390F4000946228597E0FF1FE780D6
:1029980020EAD9BF828083474500858BBDC70111D6
:1029A80022CC2A8403552500938501A506CEEF8005
:1029B8003046058939C50355240001478146054637
:1029C800ED45EF8030002AC60DCD97F7FF1F93879E
:1029D800276B83D7A70201462C002314F1008547F3
:1029E8002315F1009707002083C7C7C12300F5000E
:1029F80003552400EF90F01F09C5ED452800EF802E
:102A08003014F24062440561828082804165411140
:102A1800938501A57D1506C6EFA0500DB24097F627
:102A2800FF1F9386E66A4146954517F5FF1F130574
:102A3800256541016FA0B00023AAA18A82804111B7
:102A480022C406C6854709446313F5028347060076
:102A580001442388F18A170700200347A7BA63783F
:102A6800F70017050000130545F3EFC0D03722859E
:102A7800B24022444101828085476303F50209C9B7
:102A880009476304E5020D476308E50209458280AA
:102A98009707002083C707B72380F5000145828088
:102AA8009387018B83C70700C5BF97F7FF1F83D79D
:102AB800C75D2390F500DDB71387818003570700B2
:102AC8002392E50017F7FF1F1307875B8356A702BA
:102AD8000357A7032383F5002390D5002391E5002E
:102AE80075BF411106C699339707002083C787B180
:102AF800637CF500970700202386A7B01705000020
:102B08001305A5E9EFC0302EB2400145410182808E
:102B180041677917630CE502411122C406C685474F
:102B28002A84639AF50022852244B240938501A540
:102B380041016FA0A07B89476396F5008545EFC0EA
:102B4800102575D1B2402244410182808280CC4157
:102B5800411106C6328503C6150083C50500220645
:102B68004D8E42068D654186138875A2630C060F4B
:102B78006348C804138845A26306060B634AC80065
:102B8800938535A26309B60623900600294679A0E5
:102B9800138855A26308060B938565A2E316B6FE53
:102BA800C1451D4663ECE5064546198E63F3C7002B
:102BB8003E862390C600971502009385A57489A8C0
:102BC800138895A26300060F634E060B1388A5A20F
:102BD800630A060F938505A5E318B6FA99451D46BD
:102BE80063EEE502198E63F3C7003E862390C600A4
:102BF8009385018131A89D451D4663E1E502214683
:102C0800198E63F3C7003E862390C6009385418CD6
:102C1800BA9597E0FF1FE780A0C10146B240328510
:102C280041018280AD451D46E3EAE5FE3146198E35
:102C380063F3C7003E862390C6009715020093856C
:102C48002570F9B7B1451D46E3EAE5FC3546198E0E
:102C580063F3C7003E862390C6009715020093854C
:102C6800256F7DB7C1451D46E3EAE5FA4546198E4D
:102C780063F3C7003E862390C6009715020093852C
:102C8800A56979B7C1451D46E3EAE5F84546198EB9
:102C980063F3C7003E862390C6009715020093850C
:102CA800256CBDB7C1451D46E3EAE5F64546198ED4
:102CB80063F3C7003E862390C600971502009385EC
:102CC800E566B9B7B5451D46E3EAE5F43946198E18
:102CD80063F3C7003E862390C600971502009385CC
:102CE80065613DB797F6FF1F938646524146CD452D
:102CF80017F5FF1F1305853E6FA0605482809387E8
:102D0800018E9C4303C7418D83C6B18201E7814789
:102D18003E85828003D607006316A60003C66700B7
:102D2800E308D6FE7D171377F70FA107C5B7B2865C
:102D38002E86AA8517150200130545676FF0917254
:102D48000111930500030D4506CEEF50B01B930506
:102D580000051145EF50101B9305C0030545EF50C2
:102D6800701A85471306F100854513055030A307EF
:102D7800F100EFB03153F240056182809387818D75
:102D88009C43328791C703A3870063030300028330
:102D980009CB130600199305000203C521866F307D
:102DA800B07B82808547631CF5001166130686A9EF
:102DB8008945172500200345E5A16F30F07989473B
:102DC8006319F5008945172500200345A5A06F4024
:102DD8002021828085476398F50019E22387B18C0A
:102DE8002382C18E828009476399E50019E623870B
:102DF800F18C03D5C18C6F00B007828001119397C5
:102E0800050126CA06CE22CC4AC84EC652C4C1877E
:102E1800AE8463D90708172500200345A59BEF302A
:102E2800D02D2A8439C9034705009307000D631381
:102E3800F704834725004547638BE7046547639B91
:102E4800E702171502001305E552EFF0B161130907
:102E580054009309B400171A0200130AEA52834572
:102E6800090052850509EFF0F15FE39A29FF29452A
:102E7800EFF051632285EF30B0212165258DF240B6
:102E88006244D2444249B249224A056182800346DB
:102E9800650083457500171502001305654FEFF0AF
:102EA800715CC9BF93F7150085C317F6FF1F13069A
:102EB800A6369385C181172500200345A591EFB05B
:102EC800111013C5140065BF93F725000145C5DB34
:102ED80009391166130686A9894517250020034577
:102EE800658FEF30706713C5240051BF797126D202
:102EF8004ECE06D622D44AD052CC9147AA84AE8967
:102F08006314F50483D7A5001306E100854513056E
:102F180050302396F18C230701002387018CEFB0F2
:102F280071389387818D9C4391C7DC4781C7CE85D3
:102F380026858297B250225423A8918C0259925424
:102F4800F249624A456182801387018D1843E31A6A
:102F5800F7FC854503D5C18C653E854503D5C18CF5
:102F6800EF00C076C16703DAC18CF917631BFA0258
:102F780005449305E100130550412387018CA3857F
:102F8800818223070100EFA0A1428347E100B1E35A
:102F980003C7418E9147E316F7F85D332382018E0C
:102FA80049B79387018E03A9070003C4418D69D0EF
:102FB8000355290011C99305E100EF80104C09C59C
:102FC8004C455285EFA080327D141374F40F21090B
:102FD800F9BF9387C18D9C4383C74700898BCDDB9D
:102FE8009305000A0D45EF50E0719305000A11455D
:102FF800EF50407181450545EF50C0701306E10060
:1030080085451305503023078100EFB0B12949B732
:103018000111170500001305A5DE06CE22CCEF40EE
:103028002017171400201304E47A85471306F100CB
:1030380085452300A40013054041A307F100EFA034
:10304800215E7D55EF7070617D55EFA000275939DD
:10305800753AF52317050000130505D5F13A17054C
:1030680000001305E5C91125034504008545EF3027
:103078007047F24062440561828023ACB18C23AE74
:10308800A18C828023A0B18E238AA18C8280938711
:10309800018D9C43797106D622D426D24AD04ECED1
:1030A80052CC1147639BE70483C7E18C414481CF2D
:1030B8009387018E8043B284B68983C7418D03C745
:1030C800B18299EB55442285B25022549254025948
:1030D800F249624A4561828083464400639AA600A9
:1030E800834654006396B600834664006380E60610
:1030F800FD1793F7F70F2104E9B709474144E38423
:10310800E7FC2C001305504123040100EFA0412ADD
:10311800834781008DCB930500020D45EF50805EFB
:10312800930500031145EF50E05D95450545EF50C7
:10313800605D854730008545130550302304F10054
:10314800EFB0511649B7ED3E4144B5BF03552400D1
:1031580093056100EF80703235D54C4503D5C18C9D
:10316800EF80004B058939DD1399040113590901D2
:10317800014781464A86ED4503D5C18C035A0400B0
:10318800EF8040042AC64D441DDD2686CE852314D3
:1031980041012315210197D0FF1FE780606901468F
:1031A8002C0003D5C18CEF90C0242A84E30D05F0D0
:1031B800ED452800EF80C01839B7C841011122CC6D
:1031C80006CE328403461500034505002206498EC3
:1031D80019CB0D681308B8A42D4563090607F240FA
:1031E8006244056182800D651308D5A46300060357
:1031F800130825A2630C060175781308E85C329859
:10320800420813580801854863EE080303D5A50052
:1032180036C632C4ED34B24615C19387818D9C43BE
:1032280022468345550003A30700A2876244F24063
:1032380003454500368785460561028323900600CD
:10324800014571BF1308B5A46317060303D621838C
:103258001D45E376C7F8198E63D3C7003E86CC4573
:103268002390C60042064182BA95228597D0FF1F57
:10327800E780005CF1B79307A5A46318F6009147AF
:103288002390F6001146CC45CDB793078590631778
:10329800F60089472390F6000946F5B79307E5A499
:1032A800631AF600DC452390160183C70700230044
:1032B800F40079B713057590E314A6F8D9BF011186
:1032C80022CC06CE26CA4AC82317D1002D4429EBA2
:1032D800DC412E89B28403C4170083C70700220487
:1032E8005D8C8D679386D7A46306D400938627A345
:1032F800631FD4020355A900193419E101440DA034
:103308009387818D9C43834555000345450003A859
:1033180007002286A6871307E100814602982A84BF
:103328002285F2406244D2444249056182809386F4
:10333800C7A46314D4028357E10005473544E391D9
:10334800E7FE0345060013040008E3EBA7FC938798
:10335800818D9C43DC43829755B793862790631AE7
:10336800D4028356E1008547EF80C02F2A844DF9A7
:103378009387018E8356A9009C4303C7418D3DDF87
:1033880003D627006302D6047D171377F70FA1072A
:10339800FDB79387E7A4E313F4F68357E1000547E5
:1033A8003544E39FE7F60345060013040008E3E904
:1033B800A7F6DC452380A7009387818D9C4333358E
:1033C800A0000905DC4341BF1387818D184303C55D
:1033D800470083C5570083C714000328070003C7A5
:1033E8000400A2078946D98FC207C18705476383AE
:1033F800E7008D460D66A6871307E10013062690A1
:10340800029839BF411122C441641305F4FF938522
:1034180001A806C626C24AC0EF90506D1305F4FFF6
:10342800938501A7EF90906C1305F4FF938501A68F
:1034380097F4FF1F938404DFEF90506B97F6FF1FFC
:10344800938646FC4146F9452685EF90505FCC4C63
:103458002A890945EFF04FE21387C1839387418496
:10346800834507000346170083D7070003D7A41036
:10347800138401A92312F4002314E40083D7A40CB5
:1034880003D7A411A306C400A30EC40003D6A4172F
:103498002310F4002315E40083D7A40D13870184B7
:1034A8008346070003D5A41403471700231CC40050
:1034B80003D6A4182311F40085472303F400230737
:1034C800F400230AD400230BF400231DC4002302B4
:1034D800D4022306B400A30AE4002318A400230E90
:1034E800B40023190400230F0400A302E40203D745
:1034F800A41A2307F402231104022310E4021387F9
:1035080081830357070023030402231504022316AB
:10351800E40203D7A41C938501AC0D452314E402EF
:10352800EFF08FD5A2852145B13EB24022444A85AD
:1035380092440249410182808D67138527A3630164
:10354800A6049387D7A40145631EF6008947639CA8
:10355800F500854735456397F600834707002385BF
:10356800F18E014582808D472945E39DF5FE85470B
:103578003545E399F6FE834707002384F18ED5B7D6
:1035880085473545E390F6FE83470700A383F18E10
:10359800C9BF8D67138527A36308A6029387D7A49D
:1035A8006317F6028947639BF50083C7A18E230042
:1035B800F70085472390F600014582808D47639880
:1035C800F50083C7818EE5B783C7718ECDB7239089
:1035D8000600DDB70145828025E303A84500AE88D3
:1035E8008347180003480800A207B3E707010D68DE
:1035F800930EF8A4639AD70391473548639FF60260
:1036080003A5C8004111B285114606C697D0FF1F11
:10361800E78000229387818F9C4305458297B240BB
:103628000148428541018280930828902948639681
:10363800170185476F8000032D48428582804165C8
:103648004111938501AD7D1506C6EF90304AB24011
:1036580097F6FF1F9386C6E14146994517F5FF1F68
:10366800130505DB41016F90903D23ACA18E82804C
:103678000111938501AD22CC06CE2A84EF705079D2
:10368800058929C1014781460546ED452285EF7028
:1036980070332AC605C997F7FF1F938767D783D763
:1036A800A70501462C002314F10085472315F100D6
:1036B800230005002285EF80D05309C5ED45280079
:1036C800EF701048F24062440561828041677917C3
:1036D800630CE502411122C406C685472A84639A11
:1036E800F50022852244B240938501AD41016F90D7
:1036F800F03F89476396F5008545EFB0506975D16D
:10370800B24022444101828082800567930747D5F1
:1037180063F7A7029306E7DF854763F0A6029306DF
:1037280097EA894763FBA600930647F58D4763F63A
:10373800A60091476363E50095473E8582808147EF
:10374800EDBFB7170040171700201307C7082394C9
:10375800E70617170020130747092396E7061307FC
:1037680010FCA380E70682804111814513050010F3
:1037780006C6EFE07FCD89450145EFE0DFA5B71725
:1037880000403147238CE7040547238DE704A381D4
:103798000706453FB24003C5C18613060064A1452C
:1037A80041016F30605B171700201307C702971697
:1037B8000020938686038147035607000907B297BE
:1037C800E31CD7FE13870190184323AEE18E2947E7
:1037D800B3D7E70223A0F190828001114EC69389E6
:1037E800019022CC03A4090052C406CE228526CA21
:1037F8004AC8213F9387C18F2A8A8843330485406A
:103808009357F4413D8C1D8C093763134503930787
:10381800100363CA870C814513058007EF10005C0D
:1038280085451305000EEF10C05885450145C1A810
:10383800171702001307C7EC8D461306B00781451A
:103848001305B005EF10E07581451305D005EF109D
:10385800E05881448545639344051305D005EF106E
:10386800E0578144639E440589451305D005EF1050
:10387800E0568144E38D44F985452145EF106053B6
:1038880011497D1985452D451379F90FEF106052BF
:10389800E31909FE850493F4F40FE9BF4145EF10DD
:1038A800405111497D1985451305000D1379F90F0C
:1038B800EF102050E31809FE850493F4F40F59BF64
:1038C80085450145EF10E04E11497D1985451305E1
:1038D800F00F1379F90FEF10C04DE31809FE8504B6
:1038E80093F4F40F41B7814513058007EF10004F9B
:1038F80085451305100EEF10C04B85452D45EF107B
:10390800404B8D451305F005EF10404D624403A66A
:103918000900F240D2444249B249224A91468D45B3
:103928001305F00505616F10A05882803D897D154B
:10393800954763E7A70E171702001307A7B00A05F4
:103948003A951C41011106CEBA97828793858184E6
:103958000545EF60501F171502001305A5B3EFF0DA
:10396800A14411A803C725008D47171502001305A8
:1039780065B3E306F7FEF2400561828003C72500C0
:103988009547E31AF7FE83D7A5001715020013051C
:1039980065B22390F18685472384F190C9B703C7A0
:1039A80025008D47E319F7FC17150200130545B1EB
:1039B8007DB783C725001147171502001305C5B148
:1039C8006384E7041947639AE70283C565001715FE
:1039D8000200130525B223840190EFF0A128F957BE
:1039E8002390F18685471306F1008545130550306D
:1039F800A307F100EFB0010BBDBF1547E394E7FE45
:103A0800171502001305C5B0EFF0013AE1BF83C5F1
:103A1800250017150200130525B1EFF0A124A1BF59
:103A2800828001112305A1003400214685450945FE
:103A380006CE23140100A305010002C6EFF02FE50E
:103A4800F24005618280011106CE22CC3A883E8779
:103A580085EE32830D661306D6A42A8EAE88834679
:103A680008006319C30089476396F5008547354404
:103A78006397F6001A86C68572857D3C2A8422855E
:103A8800F24062440561828085476395F600C286EC
:103A98000936EDB789470144E393F6FE1306F100B2
:103AA800854513055030A3070100EFA0B17FC1BFC2
:103AB80001119397050122CC06CE26CAC1872E8410
:103AC80063DC070003C52186EF20306319C1EF20AE
:103AD800305C2165218D3DA093F7150013C51500B5
:103AE80095E393F7450085C783C721861307803E72
:103AF800814613060005C14503D50186EFA091450F
:103B080013454400F2406244D2440561828093F731
:103B180085009DC3014789460946814503D501862D
:103B2800EFB08126AA851715020013052593EFF03B
:103B3800611313458400F9B793F70501C9CB6C00ED
:103B480013055030A3050100EFA0D1630347C1005E
:103B580085476319F7001306B100854513055030F2
:103B6800EFA0517493848184A6850545EF60A07DFC
:103B780029E93545854603C6D1848945EF10403388
:103B880083C7540003D50186FD17A384F190C1674C
:103B9800F9176307F500EFB0E11CF9572390F18698
:103BA8008347C1000547639BE7001306B1008545BD
:103BB80013055030A305F100EFA0D16E13450401A1
:103BC80091B783C791908507A386F184D1BF93F7F6
:103BD8002500B9C703C53186A93583C7318685074E
:103BE80093F7F70F7147636BF7020145A381F186DD
:103BF8000D3DB707020093870720740011468545DD
:103C080005453EC6EFF0AFC81306007D894503C5DC
:103C18002186EF30601413452400EDB59147F1B7C4
:103C28009397350163DB0700938681941146854598
:103C38000545EFF0CFC5056571BD9397250163DB99
:103C4800070093860194214685450945EFF02FC466
:103C5800096549B593F7050299CF01451716020082
:103C6800130646818945EF10802E85472385F190FC
:103C78001345040241BD93F705040145E38407E8B1
:103C8800938741909043814503D50186EFA0010CAD
:103C98001345040485BD011117050000130585E1CE
:103CA80006CE22CC26CAEF30A04E93842186054446
:103CB8002380A40070008545130550302306810039
:103CC800EFA0515E138601859D4513056030EFA076
:103CD800715D17E6FF1F1306667BD5451305703027
:103CE800EFA0515C1706020013064679D545014539
:103CF800EF70C0088947700091451305704023058F
:103D0800F10023048100A3048100A305810002C6F9
:103D1800EF9011113000854513050040EF905110C8
:103D280013069100854513051040EF90710F130697
:103D3800A100854513052040EF90910E1306B100B0
:103D4800854513055040EF90B10DA9477000854592
:103D580005452306F100EFE09FCEEFF0AFEA97E5C7
:103D6800FF1F9385A57113858185EFF00FB103C5FA
:103D780004008545EF201077F2406244D244056183
:103D88008280411193064005171600201306C6B21B
:103D980081452D4506C697C0FF1FE780C05DB2402C
:103DA80093064005171600201306C6AB930500407E
:103DB8002D45410117C3FF1F6700E35B41119306BF
:103DC800400517160020130626AF8145294506C66B
:103DD80022C497C0FF1FE780005A1374F50F93069B
:103DE8004005171600201306E6A79305004029454D
:103DF80097C0FF1FE7802058418DB24022441375B9
:103E0800F50F410182804111130640059705020014
:103E18009385857D17150020130505AA06C6EFE0D2
:103E28001159130640059705020093856574171507
:103E38000020130525A3EFE09157B2404101BDBF13
:103E480097170020938747A797160020938686A187
:103E580003C737056318B700A389A704FD17E399BB
:103E6800D7FEA9BFE31CA7FEA389B704C5BF83C7B4
:103E780021916382071603C73194631E0714854690
:103E8800A381D19283C7219403C7019189EF19C3F4
:103E9800014582802388D19083C7119193F7070F3A
:103EA800A388F190F5B789466310D70203C711912B
:103EB80091466315D7002388F192D9BFA146E3192B
:103EC800D7FCA380F192E9B719466398C700238805
:103ED800D19083C71191B18BE1B79306C004639D5C
:103EE800D7009307000C6305F70E930700FC23889F
:103EF800F190A388019069BFF9466398D7009307AA
:103F0800100E6307F70C8557DDB7FD466398D70099
:103F18009307200E630EF70A8957D1BF9306000254
:103F28006398D7009307300E6304F70A8D57C1B71B
:103F3800930610026398D7009307400E630AF708A8
:103F4800915775B7930620026398D7009307500ED0
:103F58006300F708955761BF930630026398D7004E
:103F68009307600E6306F706995751B79306A003A7
:103F78006398D7009307000F630CF704C15785BFF8
:103F88009306B0036398D7009307100F6302F704F2
:103F9800C557B1BF9306C0036398D7009307200F96
:103FA8006308F702C957A1B79306D0036398D700EF
:103FB8009307300F630EF700CD5715BF9306E00344
:103FC8006398D7009307400F6304F700D15705B7EC
:103FD8002388019039BF411122C406C603C4319217
:103FE80005456312A404A1E3A381019283C701914B
:103FF8001307000F6386E716636BF7021307000CBD
:104008006383E7106369F700638FA7060947638C2A
:10401800E70A014509A81387F7011377F70F9546B3
:10402800014563F3E612B24022444101828013073E
:10403800300F638BE716636BF7021307100F638467
:10404800E7141307200FE396E7FC238CA1901706CB
:1040580002001306A6578D454D4523880190EF00B1
:10406800106F972700009387E7E719AA1307400FF7
:10407800638DE7141307F00FE39DE7F8A388019019
:104088002388019079B783C71191C10793F7F70F78
:10409800130700056385E700A388F1909DBFA388F7
:1040A8000190238801908533054681450145EF003D
:1040B800907505661306062C9305000203C5C18694
:1040C800EF209049B9B783C71191910793F7F70F7C
:1040D8003147E393E7FC054681450145A3880190F4
:1040E80023880190EF00307205661306062C9305AD
:1040F800000203C5C186EF20304683C5019303C57E
:1041080011923D3B39B72388019083C7919195E778
:10411800171702001307C787914613060008814541
:104128000145EF001068238C819097270000938742
:10413800672623A8F186EF20204A83C7919193B779
:104148001700A38CF190F1B593870702A386F18439
:104158001306401F23880190C14503C521868DB7EA
:10416800238CA190170602001306C6458D454D45C0
:1041780023880190EF00B05D97270000938727C13F
:1041880023A8F18679B5238CA1901706020013069F
:10419800A6438D454D4523880190EF00505B972736
:1041A8000000938707C5E9BF238CA190170602007A
:1041B800130606428D454D4523880190EF0030597E
:1041C80097270000938787DC65BF238CA19017068B
:1041D8000200130626408D454D4523880190EF00C7
:1041E800105797270000938727E759BF411106C644
:1041F80022C426C2EFF0FFB89384C191FD57170778
:104208000020A301F7709C4037140040914593E7C4
:10421800C70F23AEF1900327840CD98F2324F40C05
:104228008840EFE0CFAC9C400327840C970602003F
:104238009386863093F7F7F7D98F2324F40C1387E6
:10424800C1901C4317060200130686328C42910661
:10425800CD8FE39DC6FE23A6F190B716004003A6B6
:10426800860A2244B240D18F23A4F60A9244084316
:10427800854541016FE04F9D03D761919307F7FF93
:104288005D71C20786C6A2C4A6C2CAC04EDE52DC91
:1042980056DA5AD85ED662D466D26AD06ECEC18358
:1042A800F54663E2F618F9476310F702970700200E
:1042B8009387475B17060200130606328D450545AE
:1042C80023A4F186EF00B04883D761918507239B2B
:1042D800F190138401AE970B0200938BEB25814A72
:1042E800A284938C8186170C0020130CEC5C1709B0
:1042F80000201309295793894186138B0194194784
:104308003387EA0203CA0192B716004003A60B00DE
:1043180083A6460AF18EB307E400D29783C5070047
:104328006396051CD1E683A70C0083C641863E9799
:104338009D47529763F8D700034607009307F00D8F
:1043480063F8C70699473386FA028545B387C400E0
:10435800D2972380B700938701878C439727000063
:104368009387C7C2639BF502970702009387072DBF
:10437800B297D29783C707001306F00F638FC70061
:104388000D463386C702938741B3B2973D462381D2
:10439800C700A380C7002380C7000546A389C19032
:1043A800834707009305F00F6394B70C2389C190E6
:1043B800850AB947910BE394FAF403C7019293066F
:1043C800170093F6F60F2380D19297070200938780
:1043D800272C0A07B71500403E9703A6850C1843FB
:1043E800518F23A4E50C15476374D70023800192ED
:1043F80083C601928A0637160040B6970327C60C73
:104408009C43B6402644D98F2326F60C9644064989
:10441800F259625AD25A425BB25B225C925C025DEC
:10442800F24D6161828083C7F192E38407EAA38732
:104438000192138401948944930990031D4A2149E8
:1044480083472400639C370133069A409305340060
:1044580013052400EFE0A175A383019485040504E6
:10446800E39024FF83C74186FD172382F18695B523
:104478001306F00E6374F602171702001307C72C11
:104488001443938707F1054703C60600B317F700DF
:10449800D18F2380F600238AE19019BF1306F00D0F
:1044A800637DF6000547938707F2B317F7000347C4
:1044B8000B00D98F2380F194E5BD9947B387FA02A1
:1044C800E2973E9A03460A00930790036316F600A4
:1044D8008547239BF190E9BD938716002382F186D7
:1044E80083470700DA962380F600D9B5E38206EC05
:1044F800054623800700A389C19083A70C00930673
:10450800F00FBA97D29783C707006395D70023891E
:10451800019079BD9306F00E63F2F60217170200B8
:10452800130787221443938707F1054703C606003C
:10453800B317F70093C7F7FFF18FA1BF9306F00DEC
:1045480063FDF6000547938707F2B317F7000347A3
:104558000B0093C7F7FFF98FB1BFB307EC00D297F1
:1045680083C60700930790036393F60403D761910A
:10457800F94763FFE70017060200130626068D4574
:10458800054523A48187EF00901C239B01900DB55E
:1045980083C741861D47E36AF7FEA387C192138745
:1045A8001700DA972382E1862380D700F9BF4A975C
:1045B8003A9A138D0194954D7D5783472D00638654
:1045C800F60003460A00631EF6006E8693053D005A
:1045D80013052D0036C6EFE0815DB246A383019432
:1045E8007D57FD1D050DE39AEDFC83C70900FD17F6
:1045F8002382F18675BBB70703040111938717203F
:104608003EC2B7070708938757603EC4A5472316DD
:10461800F10006CE22CC26CA03C721949306A00235
:1046280083C721926311D706138781928DC3FD1723
:1046380093F7F70F2381F192BA97238007009387A6
:1046480041929C43A946B3D7D70223A2F19283078C
:104658000700170602001306E6E199CB17060200C9
:10466800130606F889450145EF00700E13868192FE
:1046780089450145EF00B00D05442285F2406244AA
:10468800D2440561828099466393D70493078002D8
:104698000544E314F7FEAA8417060200130646F43D
:1046A80089450145EF00B00A854603C6D18489458E
:1046B8003545EF00E07F938741929C4301449CC0BD
:1046C800238401922381019223A201927DB793064C
:1046D80027FE93F6F60F25460544E360D6FA14083C
:1046E8003697834667FD1387419210432947938481
:1046F80081923307C70289450145369723A2E19283
:10470800138717001377F70F2381E192A6979386F3
:1047180006032380D700269717060200130646ECE7
:1047280023000700EF00B002268689450145EF0007
:104738001002A1B715456FD0DFAE41119396250041
:10474800AA852D4506C697C0FF1FE780C0C2B240A4
:10475800014541018280411122C426C24AC02A84EF
:104768002E89B284AA85930600200146254506C6EF
:1047780097C0FF1FE78020C0931629002686A285D0
:10478800294597C0FF1FE78000BFB24022449244EA
:104798000249014541018280011122CC06CE37141D
:1047A800004026CA4AC84EC652C483447405034A08
:1047B800B4058349840503499405EFD01FA48347B2
:1047C800A40593F4F40F137AFA0F93E71700230D57
:1047D800F40493F9F90F1379F90FB717004003C7D9
:1047E800A705058B6DFF03D5C705A38D4705238C4A
:1047F8003705A38C2705A38B9704F2406244D24463
:104808004249B249224A05618280411193970501C4
:1048180022C406C626C2C1872E8463DA0700EF20A9
:10482800C00D19C1EF20C0062165218D75A093F731
:10483800150013C51500CDE393F7250013C5250012
:10484800C1EF93F7850095C3EFE0FFF583C7A1900B
:1048580099E3EFE09FF8EFE0DFEE0966130606F450
:10486800A14503C5C186EF20204F93774400638F8D
:10487800071C83C49191854713444400639DF40841
:10488800EFF09F9F83C731918DC7A3890190EFF007
:104898000FDE05C1971702009387C7EA9C431D479F
:1048A80083C727006382E706636DF7021147638BAE
:1048B800E704938741939C431307200385076367A5
:1048C800F70423AAF1924146914503C5C186EF201A
:1048D800A048131504014181B24022449244410189
:1048E80082805947638AE7006947E394E7FC9707A2
:1048F800002023AD97EE75BF8947170700202327AF
:10490800F7EE45BF8D47D5BF9147C5BF23AA019292
:10491800EF1010534DBF03C7D19305CFA38E01925B
:1049280083C6C1930D476394E602238E019203C7A1
:10493800A1943307E0402385E19403C7C19463132E
:10494800F7040946894503C5D186EF20E040EF000A
:10495800F019EFF07F9283C73191C9C3A389019001
:1049680083C7A1908544639897021385419061316C
:1049780035E523850190130600199305000403C546
:10498800218699A803C78190E313F7FC0D46856536
:1049980003C521865DBFEFF08FCD19C983C7C194C8
:1049A800639397060946914503C5D186EF20C03A1F
:1049B80083C7419185C70D46814513859194238A04
:1049C8000190EF20C01603C7C19485476316F7040A
:1049D8000946894503C5D186EF20003883C7C194AD
:1049E80003C781936301F704238CF1921706020031
:1049F800130606D089E7170602001306A6CF8145DD
:104A08001D45B123C9B583C78190E39397FA0D4635
:104A1800896503C5218659BF03C78190E310F7FC58
:104A28000D468565A9BF83C7819003C79193E30CA1
:104A3800F7E8A38CF192170602001306E6CB89E784
:104A480017060200130606CB85455DBF9377040160
:104A580095C303C7C19485476314F700EF10501E30
:104A680013060006C14503C5C186EF20E02E134595
:104A780004019DB59377040281CB01450146814528
:104A880059231345040289BD9317240163D00702F3
:104A9800EF40912E453137F60200130606E089658E
:104AA80003C5C186EF20402B096541B39317140154
:104AB8000145E3D307E217050200130525C4EFE01B
:104AC800A12E13060064916503C5C186EF20C02896
:104AD8001165A1BB1D714946970502009385C5BCA8
:104AE800170502001305457A86CEA2CC97C0FF1F92
:104AF800E78080D701E917050200130525BCEFE020
:104B0800A12A01A0B7F600E0795798CAFD57DCCA78
:104B18000567B7E700E023A0E7101306F00290C28C
:104B280023A0E718010001001306C00381454808C7
:104B3800EF10F07F97070020938747023ECA8967E6
:104B480093870780231CF100ED47A301F102354448
:104B58009307501081460146814521452312F102F1
:104B68002303810297C0FF1FE780E080A167938736
:104B780007E03ECE97070000938767BCBEC497073F
:104B88000000938787BDBEC689472304F10297E7D3
:104B9800FFFF9387C7AE3EDAB7F507009707000017
:104BA8009387C7BF3EDE8146970700009387C7B843
:104BB8007000E1051945BEC02308810297B0FF1FA8
:104BC800E780607B58088147994670003E96034607
:104BD800060085070507A30AC700E398D7FED24752
:104BE80091C70357810185676373F70001A04808DF
:104BF800EF20C05DAA8501C917050200130545AD60
:104C0800EFE0410601A0F640664425618280130169
:104C180001DE2D4697F501009385C54A2800232E0D
:104C28001120232C8120EFD091781306D01F8145C5
:104C380013053101EFD0AFCF17050000130525BDCF
:104C4800EF2000551384C1862300A400EF00501301
:104C58000121EFE07FB1EF00B02285452800EF0089
:104C68003003EFF0AFD8EF1000140345040037F617
:104C78000200130606E08965EF20000E2800EFE029
:104C8800A112854603C6D1848945354515241706E2
:104C980002001306A6948D450545552C17060200FB
:104CA800130646928D454D455D24170702001307EC
:104CB80027A58D461306B00781451305B005D524F1
:104CC8008320C12103248121130101228280B71787
:104CD800004003A7870C1367071023A4E70C03A75A
:104CE800870C1367072023A4E70C03A7C70C1367D7
:104CF800071023A6E70C03A7C70C1367072023A6F2
:104D0800E70C8280B717004003A7C70C136707108A
:104D180023A6E70C03A7870C1367072023A4E70C37
:104D280003A7870C1367071023A4E70C82803717A3
:104D380000408327C70C93E707202326F70C214759
:104D4800B717004093168501E18663DD060483A644
:104D5800870C93E6061023A4D70C03A6870C7D17AF
:104D680006051366062023A4C70C03A6C70C1377F1
:104D7800F70F1375F50F1366062023A6C70C938645
:104D8800870C9385C70C5DFF83A7870C93E70710F3
:104D98009CC29C4293E707209CC29C4193E7072052
:104DA8009CC1828083A6C70C93E6061023A6D70C65
:104DB8006DB701112EC606CE22CC2A84093F1305F1
:104DC8008007B537B245014599C1130500048537F9
:104DD8002285B13F6244F24005612DB7411122C4DA
:104DE8002A84138505FB1375F50F814506C6D1374F
:104DF80013554400814513650501653F1375E400AB
:104E08002244B24081451365150041015DB7411147
:104E180022C44AC006C626C21304000B1309800B1D
:104E2800814522857937814501456137814541456D
:104E380049379304000885450145FD149D3FE5FC6D
:104E480005041374F40FE31D24FDB2402244924478
:104E580002494101828001119317850122CC011674
:104E680006CE26CA4AC84EC6E1871374F60F63D623
:104E78000700850593F5F50F01458D37194633046D
:104E8800C4028144970902009389898D1949B3079F
:104E98009400CE9703C5070085458504193FE3981C
:104EA80024FFF2406244D2444249B24905618280FB
:104EB800797152CC138AF6FF22D426D24AD04ECE2C
:104EC80056CA5AC85EC662C466C206D62A8BAE895E
:104ED800B28B1374FA0F814C01499304F00FA94A5D
:104EE800194C631F9404B250225492540259F24947
:104EF800624AD24A424BB24B224C924C4561828064
:104F0800B38757037D171377F70FE31B97FEB3D7C4
:104F1800FB02B3F7570333858C0313F6F70F5A9543
:104F28001375F50F6312090263D04C0389EF13065A
:104F38000002CE857D140537850C1374F40F55B720
:104F480022878547C1B7054913060603DDB7011156
:104F580022CC26CA4AC84EC652C406CE2A842E89F6
:104F6800B2898144130A8007B387990003C60700F2
:104F780009EAF2406244D2444249B249224A0561F0
:104F8800828022851904CA851374F40FE935637683
:104F98008A0009091379F90F0144850493F4F40F81
:104FA800E1B7011122CC26CA4AC84EC652C456C21D
:104FB80006CE5AC02A89AE84328AB689BA8A014492
:104FC80063EC3401F2406244D2444249B249224A75
:104FD800924A024B05618280A6854A850135330BCA
:104FE8008940B3078B0093F7F70F63E64701850401
:104FF80093F4F40FF1B7B3878A0003C5070085451A
:105008000504453BF9BF011132C606CE22CC26CA9B
:10501800F13332460DC617F401001304647497F493
:105028000100938444740345842285450504513363
:10503800E39B84FEF2406244D244056182801944B5
:105048007D14854501451374F40FA53375F8DDB754
:10505800B717004003A7870C411106C6136707203E
:1050680023A4E70C03A7870C8D45130500201367BD
:10507800071023A4E70CEFD08FC78D451305001048
:10508800EFD0EFC61305200397B0FF1FE780401D40
:1050980081451305E00A313B814513050004113BA6
:1050A80081451305000B313381451305800C1133FD
:1050B800814513051008F53981451305F00FD539D9
:1050C80081451305100AF53181451305600AD5316C
:1050D80081451305800AF13981457D45D9398145D6
:1050E8001305300DF93181450145E131814513053D
:1050F800500DC13181451305000F653981451305F0
:10510800900D453981451305200265318145130508
:10511800A00D453181450945693981451305B00D13
:105128004939814513059004693181451305D00833
:10513800493181455145B53981451305F00A9539FD
:10514800F931B24081450145410149B9411122C4B3
:10515800616426C206C61304146AB714004083A704
:10516800440C13972701635807000145B2402244B5
:105178009244410182807D1405456DD897B0FF1F88
:10518800E780200DE9BF0DC5D1B77D14054501CCD9
:1051980097B0FF1FE780E00B83A7440C1397270104
:1051A800E34507FE0145B240224492444101828012
:1051B800411122C4616426C206C61304146AB714D6
:1051C8000040D9BF011122CC371400408327840C3A
:1051D8004AC8096906CE26CA4EC6B3E7270152C493
:1051E8002324F40C8326840C85648D45C58E2324E2
:1051F800D40CAA890965EFD08FAF8D450565EFD02E
:105208000FAF0327C40C1305800733672701232634
:10521800E40C97B0FF1FE780C0038327C40C29451F
:10522800C58F2326F40C97B0FF1FE780800209651D
:105238008545EFD0CFAB0145B93711C90545F240D7
:105248006244D2444249B249224A056182802149D6
:105258000144B7140040056A93F71900B5CB83A73A
:10526800840C0504B3E7470123A4F40C93D919006F
:10527800F13D69F5093F79F17D19E31F09FC0588BE
:105288003717004029CC8327C70C8566D58F23267E
:10529800F70C6D3D45F5C53D55F1371400408327A2
:1052A800840C0567D98F2324F40C4D3541F9056525
:1052B8008545EFD0CFA30145F93549F18327440C43
:1052C80013973701E34C07F651353335A00085BFF6
:1052D80083A7C40CB3E7470123A6F40C41BF832777
:1052E800870C8566D58F2324F70C65B737170040E0
:1052F8008327870C89668545D58F2324F70C096594
:105308006FD0EF9E411122C4371400400327840C4C
:1053180026C2896406C6458F2324E40C9145096595
:10532800EFD0EF9C8327C40CB240C58F2326F40C22
:10533800224492444101828079714AD02A89130516
:10534800200306D622D426D24ECE97B0FF1FE78080
:1053580040F0693F514597B0FF1FE78080EF014556
:105368001D3509C90545B250225492540259F249D3
:10537800456182802A84A144B7190040C13B7DF170
:1053880019356DF183A7490C05801374F40F139731
:1053980037016354070013640408FD14E5F07D33F6
:1053A80071F1D53361F1B717004083A7470C793BFA
:1053B80055F9D13B2AC65DF5B1373245230089003E
:1053C8005DB7011122CC06CE2E84ED3B854719E945
:1053D8001305F1009537854711E58347F100818F63
:1053E800B337F000F24062443E850561828037178A
:1053F80000408357E7099396270163DA060889670F
:10540800231FF70883C7A193850793F7F70F238D09
:10541800F19285466397D700A38D0192238F01925D
:105428008280A54663E7F60283C7B1938583A38D7F
:10543800F1920327470C9316370163DA060493E7C2
:1054480007F8A38DF19283C7E1938507238FF19223
:1054580082802D47639DE702411106C683C7C19329
:1054680003C7B19381EF218B19EF693DB240238DBA
:1054780001928547A38EF19241018280938681949F
:10548800BE962380E6008507238EF192F9BF8280BD
:10549800371700408327870C0111896606CED58F00
:1054A80026CA4AC822CC2324F70CAA842E89096567
:1054B8009145EFD0CF83B93585450565EFD02F836A
:1054C8009305A00F1305F00FED3D97F501009385A7
:1054D800256C19ED1305F100853519E50347F10031
:1054E8009307A00A6301F70297F501009385C56B3E
:1054F8002685EFD0311A05442285F2406244D24411
:105508004249056182801305F1003D358347F1006A
:1055180097F501009385C56A5D8D1375F50F69F9D7
:105528009305A00F1305600F693D97F5010093855A
:10553800A56A5DFD9305A00F1305400F59352A8410
:1055480097F501009385856A45F563030902EFF035
:10555800FFD9294597B0FF1FE78080D089450965A5
:10556800EFD04F83B7E700E03707040023A0E71028
:1055780097F50100938505692685EFD0B111ADBF78
:10558800411106C6B7170040130770052380E704CA
:10559800130780FA2380E70403C7F7021377A70FDE
:1055A800A387E70203C7F70213672700A387E70269
:1055B800EFF04F98B240014541016F10106D93F71D
:1055C800150091CBB7E700E03707400023A0E710AC
:1055D80013C515008280411122C406C693F7250021
:1055E8002E8495C797F7FF1F9387C71D88431146D9
:1055F8009385819413050504EFD0615B1145EFD0C5
:10560800CF9E13452400B24022444101828093F783
:1056180045009DC397F7FF1F9387871B8843214643
:105628009385019413050504EFD061582145EFD007
:105638006F9A13454400C1BF939735010145E3D4E0
:1056480007FC89472385F194A384F19497F7FF1FFA
:10565800938747178843114693858194130505045A
:10566800EFD0E1541145EFD04F988565130600320D
:1056780003C5D186EF10406E85653345B40061B728
:105688004111170500001305C5F306C622C4EF1023
:10569800303097F7FF1F9387672817F7FF1F2327D7
:1056A800F71297F7FF1F9387673317F7FF1F232119
:1056B800F71297F7FF1F9387673A1384D18617F776
:1056C800FF1F2321F71097F7FF1F93872741230018
:1056D800A40017F7FF1F2329F70EEFD0CF86034545
:1056E80004002244B2400146854541016F10C0665E
:1056F800814717F6FF1F1306A60D13F7F70F63640C
:10570800A7006FD02F8D18423E9783460700850764
:1057180093C6F6FF2300D704CDB7814717F6FF1FBE
:105728001306460A13F7F70F6364A7006FD0EF8BD1
:1057380018423E9783460700850793C6F6FF230065
:10574800D704CDB7411122C417F4FF1F1304C407AF
:105758001C4006C683C60700638EA6001147238037
:10576800E70413075004A380E7040547A381E7046F
:10577800114589A003C6170013075004630CE60AF5
:10578800636FC702930530040147631CB608F5161A
:1057980097F5FF1F9385451219456344D706EFE037
:1057A800EFE11C40094709452380E704130730054A
:1057B800A380E7042244B24041016FD06F841307ED
:1057C80030056309E606930580050147631BB604A7
:1057D8001386D6FF97F5FF1F9385C5081945E35033
:1057E800C7FCB386E70003C8360083C62700B38624
:1057F800A602AE96BA960507238006011377F70F1F
:10580800F9BF3386E7000348360003C6270033068E
:10581800A6022E963A960507230006011377F70F7E
:10582800ADBF11472380E70413075004A380E704A2
:1058380041472DBFB240224441018280814717F67B
:10584800FF1F1306A6F813F7F70F6364A7006FC0CE
:105858009FFC18423E9783460704850793C6F6FFC8
:105868002300D708CDB7B787004003C76700137771
:10587800F70F93762700638A064C011106CE22CCD7
:1058880026CA4AC84EC603C7770093060003137793
:105898000703630BD70203C7770091461377F70313
:1058A8006306D72263EEE60A8546630ED71A6309B4
:1058B800071A89466304D71C8D466305D71EB78728
:1058C800004009472383E700378700408347770074
:1058D800E207E18763D30730930720FC2301F7022F
:1058E80097F6FF1F938686EE884203477500834725
:1058F800650022075D8F97F7FF1F239CE70083470A
:10590800150017F6FF1F2307F60003490500137655
:105918000906630E061CDD1705476365F72A620949
:105928001359894181466356090297F7FF1F83D7A8
:1059380047FE930600043E8763F4F600130700044D
:1059480042074183998F9376F70F17F7FF1F2312AA
:10595800F7FCB78700402380D702130700FCBDA4DB
:10596800930620026307D71263E3E6029306000258
:105978006306D70493061002E313D7F403C767023C
:105988001377C70F136727002383E7020DBF93061A
:1059980030026304D71293064002E312D7F203C71A
:1059A8002703134707042389E70203C7270313774D
:1059B800C70F136727002389E70211B717F7FF1FDF
:1059C800034747F59546630DD70699466317D708E9
:1059D80097F7FF1F9387E7F303D407001307000423
:1059E800BE84637487001304000497F7FF1F93872E
:1059F800E7DD17F9FF1F130929F2884342048325BD
:105A0800090041802286EFD0811A83D70400937958
:105A1800F40F818F17F7FF1F231DF7EE8327090067
:105A28003E9497F7FF1F23A987EEB787004023808E
:105A3800370303C72702134707042381E70241B549
:105A480003C7370097F6FF1F83C6A6EC137707082E
:105A5800558FA381E7000947CDB723800702E5BF2B
:105A680083C78700A9BD03C7770013770704E30836
:105A780007E403C58700EFF0BFC791B503C77700F8
:105A880013770704E30D07E203C58700EFF0FFC8AB
:105A98003DB503C7A7021377C70F136727002385F0
:105AA800E70231BD03C7770013770704E30907E06E
:105AB80003C58700EFF01FC919B503C7E7021377BD
:105AC800C70F136727002387E702D5BB03C77700F3
