:040000006F2040101D
:100004000000000000000000900000201C020020FE
:10001400A9BDF9F5940000200000000000000000D4
:10002400960000209800002000000000000000005E
:100034009A000020000000009C0000200000000046
:100044009E000020A000002006030020A400002041
:10005400A6000020A80000202C030020AC000020F3
:10006400AE000020B0000020B2000020B400002048
:1000740012030020B8000020BA000020BC000020B9
:10008400BE000020C0000020C2000020C4000020E8
:1000940001A001A001A001A001A001A001A001A054
:1000A40001A001A001A001A001A001A001A001A044
:1000B40001A001A001A001A001A001A001A001A034
:1000C40001A001A001A0B71700409306700523808A
:1000D400D704130780FA2380E7040100010003C654
:1000E400B7041376F60DA385C7042380070413769B
:1000F400050251CE03C6A700118A1DE22380D7044E
:100104002380E7040100010003C7A7001367470029
:100114002385E7009307004B01000100FD17EDFF65
:10012400B7170040930670052380D704130780FA9D
:100134002380E704010001007D892394A7000100C6
:10014400010001000100238007042380D7042380D9
:10015400E70401000100372700408546A303D78048
:1001640023800704B7170040130770052380E704B2
:10017400130780FA2380E7040100010003C7B704D2
:1001840013670708A385E704238007048280137696
:10019400050425CA03C6A700418A1DE22380D704AB
:1001A4002380E7040100010003C7A70013670701C8
:1001B4002385E7009307007D01000100FD17EDFF93
:1001C400B7170040930670052380D704130780FAFD
:1001D4002380E704010001007D891365050423944D
:1001E400A70001000100010001002380070423800F
:1001F400D7042380E7040100010037270040894623
:10020400B1BF2380D7042380E7040100010003D792
:1002140087001367070C2394E700A9B781460146BA
:1002240081451145C12AB717004013077005238083
:10023400E704130780FA2380E704010001007D57D7
:100244002396E70203C76704136717002383E704B1
:100254002380070401A0BD473305F50201007D1585
:1002640075FD8280411122C426C206C6AA840144B7
:1002740063179400B24022449244410182800504F1
:100284001305803E4204C13F4180DDB7411106C6DB
:100294008566014681450545B12A7DF981460146B9
:1002A40081451145812AB717004013077005238043
:1002B400E704130780FA2380E704010001007D5757
:1002C4002396E70203C76704136717002383E70431
:1002D4002380070401A0B71700401307700523808B
:1002E400E704130780FA2380E704010001007D5727
:1002F4002396E70203C76704136717002383E70401
:100304002380070401A0976000E0E780C0807300A9
:100314002030B7170040130700032388E7028547FE
:10032400175700002326F79273002030976000E0EF
:10033400E78000E373002030230304801547230380
:10034400E48001002302A480828083076480E3CEDA
:1003540007FE23030480828083076480E3CE07FEC4
:1003640003454480828083076480E3CE07FE230232
:10037400A4808280411126C44AC24EC006C61377A7
:10038400F50BAD47AA892E8995446306F7001945F4
:100394006537653F8D444E854537FD59FD14639897
:1003A4003401B240A244124982494101828013556A
:1003B40009011375F50F453F2209CDB7011126CC6C
:1003C40006CEB704080051371545BD377137693774
:1003D4002AC6A53F32459377150089EB13651500AE
:1003E4001375F50FF240E24405618280FD14E9FCC7
:1003F4000145CDBF397126DC4ADA4ED852D656D4DF
:100404005AD25ED006DE62CE66CCB7E700E07D57F6
:1004140083AA070022C603AA470023A0E71823A241
:10042400E718B7170040130770052380E704130784
:1004340080FA2380E70483C74704930B75FFB684CF
:10044400E20793FBFB0F8546AA892E8B328937245A
:100454000040E187015763FA76016308D5008946B5
:10046400130700026313D5000157D98F93F7F70FD1
:10047400B71C00402382FC0411472303E4801305C6
:10048400F00F5D3D094CD135636D7C11B705070054
:10049400DA9537870700795563F2E504B387950049
:1004A400636EF702370B0800A94733EB65016399C4
:1004B400F90689E48144513D26850DA0DA85094574
:1004C400553D05090345F9FFFD14050B693D81C43C
:1004D4009377FB0FFDF7DD3569FD7D55B7170040B8
:1004E400130770052380E704130780FA2380E704C9
:1004F40003C74704418B2382E704F250B7E700E0C7
:1005040023A0571123A24711E25432445259C2592D
:10051400325AA25A125B825B724CE24C2161828095
:10052400A5476395F90685691309F00FB306990089
:10053400B3742B01B6941349F9FFB3749900856B16
:1005440033796901416B9387F9FFB3F7270199E385
:1005540063FC340193D94900C147E3E637FF99BFEF
:100564000569C1697D19D9B71305800D63886901CF
:10057400130500026384790113051008CA85DD3B65
:10058400353D21DD4E99B3843441D9B7DA852D4503
:10059400D533CA94E30099F205097D3BA30FA9FE64
:1005A400D5BF9387F9FF93F7F70F6361FC0C83C7FB
:1005B4001C0413073008631FF70437070800636B34
:1005C400EB04B3079B00B706100063F5D704334B65
:1005D400EB0089476393F9068980D549E38C04ECE1
:1005E400DA850945413B11090327C9FF91472320B7
:1005F400E48003076480E34E07FE23033481FD1780
:10060400EDFBFD14110B81C49377FB0FE9FF7D33E0
:1006140071F5E1B5B717004003C75704B7070800E1
:100624001377070219E3B78707007955E378FBEAE4
:1006340033079B00E3FFE7F855B58547E382F9F2FA
:10064400DA852D45053B9389F4FFE38504E62933D8
:1006540093F7390091EB832604800327090093075D
:100664004900E39AE6E43E89CE84F1BFB547639638
:10067400F9001305900BC93135BDB1471305B00A14
:10068400E38BF9FE99476391F904B7050800B36554
:10069400BB002D45C53181448D4BA1497539639605
:1006A4007401832704802320F9008504E39834FF30
:1006B4008327048013172B01635507002312F900C5
:1006C400D5BB2322F900FDB39D476399F902814507
:1006D4001305B0044531BD44232009002322090039
:1006E400FD599D3993F77400CA9703C70700FD1499
:1006F400398D2380A700E39634FF6DBBA147639235
:10070400F9046D398144630D0B008D479304C003D4
:100714006308FB009304000563048B019304400405
:100724001375C507E30895D8194539313939054595
:10073400213126850D3909453D314931E31C05D662
:1007440069BB91476399F90013056006F536F53ED8
:10075400130590090DB7E38F09D4F154A9BB1767AA
:10076400000003475715914763E2E71497670000B9
:1007740083C7C716918B639B071297670000938703
:1007840027F690439766000083C6D6F1814763CE6F
:10079400D706011122CC176400001304A4F05844B6
:1007A40026CA06CE9767000083C737F59764000012
:1007B400938484F36365F70C6800973001E0E78065
:1007C4006059FD57630AF50C32479767000083C7E9
:1007D400D7F263F6E70A5844634107048D21324790
:1007E4005C446373F700BA87176700000347F7F0A8
:1007F400998F3E958387440163C60702B707C0A853
:100804006362F502B707405771A013971700329738
:100814000357070041EF85079DBF038744016355D4
:1008240007061D8D17640000130484081C4C81CF37
:10083400976700009387C70B94433707CDFF7D1755
:100844009C46F98F9CC619E13705C0A8DC508297F5
:1008540019E91C4C8DC797A001E0E78080AA979006
:1008640001E0E780C0F71C4C99CB976700009387A1
:1008740027089843B70633001C47D58F1CC7F2409E
:100884006244D24405618280E37DF5F83707C0A84D
:10089400B307F7403E9579B75C44E3C207FE4526AB
:1008A40017670000034777E55C4499B7828019CD48
:1008B40091CD09CE81473387F5008346070033077E
:1008C400F50085072300D700E397C7FE828019C986
:1008D40091C909CA910583A7C5FF11057D16232E69
:1008E400F5FEC5BF8280854715C18DC105C281470C
:1008F400B306F5003387F50083C6060003470700F7
:100904006398E6008507E315F6FE85473E858280F9
:100914008147EDBF7971976700009387A7DC22D4E4
:10092400804306D626D24AD04ECE52CC56CA5AC896
:100934005EC67DC08144176B0000130B2BDF176963
:100944000000130969DA176A0000130AAAD5B70967
:10095400C0A8B70A40578357240085E35C4481EC60
:10096400176700002320F7D8832BC4002285EF10DB
:1009740080575E8461A0DCC4C5BF83270B008297C7
:100984001C44636FF5023307F540635E07020327D7
:10099400490219CF03074901635F07003387A74062
:1009A4008327CA006376F7009767000023A2E7D085
:1009B400A2844044A1A00147E384A7FECE97F9BFD7
:1009C400898F63DE07069767000023A307CE83554C
:1009D400240003450400977000E0E78020D05C40C9
:1009E4005844B1C71444B6978306490163C5060049
:1009F40063E33701D6971CC4A2843A8429FC976721
:100A04000000938727CADC4711476376F704F11780
:100A140017670000232EF7C8B2502254925402598B
:100A2400F249624AD24A424BB24B4561828091E418
:100A34009767000023A8E7CA05BFD8C435B70327C2
:100A440049023DD70327CA00E3F4E7F6176700001D
:100A54002320F7C6B1BF9767000023AB07C46DBF5F
:100A6400411122C417640000130404C61C4006C6C6
:100A740026C291C782979767000023A707C45C40EA
:100A840091C382971C40639E07169767000083C733
:100A940077E2858BF9CF97670000A38D07E017678E
:100AA4000000034757E1914763FDE700EF00B056AC
:100AB4009767000083C737E0F5178A07A2979C431E
:100AC4008297976700009387A7C198431766000031
:100AD400034656BDBE849767000083C7A7BC9396A0
:100AE4001700BA9683D60600D1CE9767000083C755
:100AF40067BB63E3C70A97670000238507BA1C40F6
:100B0400639107109767000083C717DB91CF97673E
:100B1400000083C757DA89EB97670000A38E07D8D4
:100B2400979001E0E780A00A97670000938707C0C9
:100B34009C43E1CBFD5717670000232BF7B6D93B45
:100B440097670000938747BADC5391C309399767C5
:100B54000000938767BD9C43CDC7829797670000C9
:100B6400938747B49C4B3E959767000023A4A7B492
:100B740049A89767000083C767D6918BB9D3EF1054
:100B8400601A81B7850793F7F70F97660000238BE8
:100B9400F6B0E3E2C7F491BF86073E97976700007B
:100BA400938747B2835507009C43231007001765BA
:100BB4000000034525AF13172500BA979C4382977D
:100BC4009767000083C707AE139717009C40BA9736
:100BD40003D70700598D2390A7009767000083C7A8
:100BE40067AC91C7850717670000230DF7AA17673D
:100BF4000000034727AB9767000083C7B7AAE37CCD
:100C0400F7EEB2402244924441018280AD6737C777
:100C14000040BD072326F7200F100000976700004F
:100C2400938747A8884F83278726BD66BD0693C749
:100C3400F7FF99836A052326D7205D8D82804111B1
:100C4400B7170040985F3AC6945F3247E39CE6FECC
:100C54003245410182800327850F19E305458280CF
:100C64008347C50093F7C70F2306F50003468700A3
:100C74008356C70093158601E18563D8050A137866
:100C840016008355E5186302080613E617002306C9
:100C9400C50063F8D5020348A502A30AB500176688
:100CA4000000034676A56376C80093E71701230680
:100CB400F5008D8E2316D7008547A30CF50001455A
:100CC4008280104309CE8345A502176600000346BF
:100CD400B6A263F6C50093E717012306F500A30A3D
:100CE400D5008947A304F700C1BF13E827002306F2
:100CF4000501E3F5D5F68D8E130810F8136616007A
:100D0400A30407012304C7002316D7008346A502C2
:100D1400176700000347579E63F6E60093E7270131
:100D24002306F500A30AB50041BF054893E5270053
:100D34006314060193E517002306B500A30AD50042
:100D44008947A304F7001C43A5DB0347A502976763
:100D5400000083C7779AE371F7F693E5050123064C
:100D6400B50099BF97670000938707B19C43411171
:100D740022C406C6858B2A84CDEB4165130525F56F
:100D8400974001E0E780C0D54DC18347A5002315F6
:100D9400F50083270410A5E72320A4102322A41020
:100DA4008547231CF4022320050083476401544132
:100DB4002316F5000347D4002304E5001767000059
:100DC400130707AF184F1385170215811C437D15B0
:100DD4001375F50F9CC25C43DCC21C479CC65C4780
:100DE400DCC61C4B9CCA5C4BDCCA1C4F9CCE5C4FC3
:100DF400DCCE19CD9386060213070702C1BF8327F1
:100E0400441088C3835784032322A410850751BF49
:100E14009767000083D787B6850717670000231FED
:100E2400F7B4B2402244410182808347C4002309BD
:100E34000400054593C747002306F400DDB7834744
:100E4400E50193F7E70F91CB014582800145B2405C
:100E5400224492440249410182808347F501EDF71F
:100E6400834625010347C50089CA0346A50297673F
:100E7400000083C7B7886367F60093770701E9D753
:100E8400814789C6418B8357C51801C70357051984
:100E9400BA97DDDB17670000034747864111131635
:100EA400870106C622C426C24AC06186635006066C
:100EB4009387C71313D4570097670000938707AA33
:100EC40083A687089764000083C4E4837D59B7052B
:100ED400C0A883A7460803D78607635B0604338745
:100EE400E740637327013A899442E5F69767000067
:100EF4009387C7839C438297E36AA9F43305A94087
:100F04002694333485001345140091B7058B9387D9
:100F1400C71209CB8A071384F7039307D007335406
:100F2400F40259BF86071384F7019307D003C5BFA2
:100F3400E3F7E7FAAE9765B717660000130606A253
:100F44000327860863040746797126D29754000064
:100F540093848479838844018325060906D622D4A0
:100F64004AD04ECE52CC56CA5AC85EC601457D58A8
:100F74003703C0A8832647088357870763D208121C
:100F8400B387F64063F50701BA853E8805451843E3
:100F940075F309C59767000023AAB7A403240609BB
:100FA40085691759000013096978370AC0A8B70A78
:100FB4004057054B9389B94783270900832B44087D
:100FC40082976370752F035784079757000083C770
:100FD4008773B38BAB40BA9763EE771F8357440391
:100FE400A30E040022858507231AF4028347041202
:100FF400C5CF8D212285973001E0E78020FD51E5A2
:101004008386440123050402832744080355840787
:1010140063DE0608B389A74003270408232E340798
:10102400BA9763C90600B706C0A863E5D700B70638
:101034004057B6978346B4002322F4088547639F3C
:10104400F60683572407035604036369F60603462A
:1010540004016315D6068326840FADE28326840932
:10106400B1EE0346F4009306000C6319D604B3876B
:10107400E70203278408B3D7E702175700000347A2
:1010840077680507BA97231CF406B2502254925489
:101094000259F249624AD24A424BB24B45618280BC
:1010A400E3F0F6EE9A96E9BD1926A9B7E3F4A7F69C
:1010B400B709C0A8BE99B389A940B9BF832709005D
:1010C40082979757000083C76763139787016187E7
:1010D400635807083385A94079C1832604086370DF
:1010E400D50C635507081605B717004083C7F702E8
:1010F400E207E18763C30700411517570000130790
:10110400E77C1443B567BD07DCC60F1000001C4321
:1011140006050967E8D398C7130700F89756000037
:10112400238AE6783D673D07D8C7979001E0E780BA
:10113400C0A6979001E0E78020B70347B400854735
:1011440081456313F704178501E01305E58597705E
:1011540000E0E7800093930700FD2307F40035B710
:10116400E3FAA9F6B706C0A8B699ADB7858B99C7B7
:101174009307803E3305F5021581BDB79307D0036D
:101184003305F50205818DB7174501E01305253CAC
:10119400977000E0E780E08E930710FC7DBF034763
:1011A400B400854703A304036317F7009545E30ED2
:1011B40003EC154529A0E30A03EC9545194522548F
:1011C400B25092540259F249624AD24A424BB24B4B
:1011D4004561028363D60B06835744032285850742
:1011E400231AF40283470412B1CBAD24228597302D
:1011F40001E0E780A0DD0327040883274408BA97A9
:10120400038744016345070063E34701D69723221C
:10121400F4088347B400639767012285977001E05F
:10122400E78040238347D40185458507A30EF40056
:101234009C58E38307D815458297BDBB8D2A7DB79B
:1012440083572403175700000347474B931687011E
:10125400E1868E0763D706021307204EB387E702A1
:101264009583E3F477E3A1452285973001E0E78095
:1012740060CD2302A40203A304038945E31B03F204
:1012840029B5058B11C713078002B387E702D1BFC5
:1012940005671307B747B387E702938707049D835E
:1012A400C9B78357240317570000034727459316EC
:1012B4008701E186B30B75418E0763D0060A1307D5
:1012C400204EB387E702958363F2FB0C8327090062
:1012D400829783574403AA8B22858507231AF40235
:1012E40083470412C1CBBD222285973001E0E780F9
:1012F400E0CDE31C05D80327040883274408BA97E4
:10130400038744016345070063E34701D69723221B
:10131400F4088347D40113F7070F39CF2285973098
:1013240001E0E7806082A30E040083274408E3FF02
:10133400FBF88347B4006395670503572407835775
:101344000403E3FBE7C62285977001E0E780801081
:101354009C58E38307C68D45F9BD058B11C7130758
:101364008002B387E7028DB7B387370393870704F7
:101374009D8399BF2D288DBF8507A30EF40075B7F3
:101384009C58E38B07C28D4519457DB5E3CF0BCE41
:10139400A1452285973001E0E780C0BA2302A40268
:1013A40003A30403E30303CE914521B5828079713D
:1013B40026D206D622D44AD04ECE52CC56CA5AC8C9
:1013C4005EC68347850203447511AA843E94137450
:1013D400F40F9307400263F687001304B4FD1374FB
:1013E400F40F03AA841183AAC411A38B8410228648
:1013F4005285D685972002E0E78000DC058915E553
:1014040003CBD41001498149337B6403930B50020D
:101414004A865285D685972002E0E780E0D905897F
:1014240015C5639169031374F90F238B8410B250AB
:10143400225492540259F249624AD24A424BB24B64
:10144400456182808509E20993D989410509E3113F
:1014540079FDE1BF8327C50803564503797193D607
:101464000701BD8EC206C182358E1357764093574D
:101474005640898B058B5D8F93573640918B5D8FDA
:1014840093571640A18B5D8F93171600C18B5D8F08
:101494009317360093F707025D8F93175600935501
:1014A400860093F707041E065D8F1376F60F518F9F
:1014B40093D7554013D63540118A898BD18F13D6D3
:1014C4007540D18F13D61540218AD18F13961500FC
:1014D400418AD18F1396350013760602D18F139665
:1014E4005500137606049E05D18F93F5F50FCD8F25
:1014F400A20745465D8F3307C70222D42A8426D229
:1015040052CC56CA032A8411832AC4115AC806D657
:1015140036974207418393577740135557400989BB
:10152400858BC98F135537401189C98F13551740BF
:101534002189C98F131517004189C98F13153700E5
:1015440013750502C98F131557009355870013753A
:1015540005041E07C98F1377F70FD98F13D53540AC
:1015640013D755401189098B498F13D57540498F7D
:1015740013D515402189498F139515004189498F49
:101584001395350013750502498F1395550013758E
:1015940005049E05498F93F5F50F4D8F2207D98FCA
:1015A400B387C7024AD04ECE5EC662C4B697C2079E
:1015B400C18313D7774013D557400989058B498FC9
:1015C40013D537401189498F13D517402189498F85
:1015D400139517004189498F139537001375050238
:1015E400498F1395570093D58700137505049E07FB
:1015F400498F93F7F70FD98F13D5354013D755403B
:101604001189098B498F13D57540498F13D515401E
:101614002189498F139515004189498F1395350008
:1016240013750502498F13955500137505049E051E
:10163400498F93F5F50F4D8F2207D98FB387C702D2
:10164400130650025285D685B697BD8E9394060133
:10165400C18033F6C402137BF60F972002E0E780C3
:10166400A0B505890DED8347D41001498149B384A0
:101674009702130C5002C1804A865285D685972062
:1016840002E0E78060B30589937BF90F11C5638697
:101694003403850993F9F90F0509E31F89FD230B29
:1016A4006411B250225492540259F249624AD24A05
:1016B400424BB24B224C456182805E8BCDB7011107
:1016C400975700009387872922CC03A4C70A26CA08
:1016D40006CE2AC42EC6854419E40145F24062446C
:1016E400D244056182800347140083479100630458
:1016F400F7000044D5B719469305A100130524004B
:10170400EFF06F9EE31795FE0545C9BF175700001C
:10171400130787171443411122C69C5E4AC226C48C
:101724009983858B3A84175900001309A915C9C3F5
:101734009C5E975400009384A41793F7F7F99CDEFA
:101744009757000083C7C71693F7070499CB975799
:1017540000009387A7FD9C4382979757000023A11D
:10176400A716854717570000A306F71483C744003C
:1017740093F7070491EF97570000938727159C432D
:10178400D844F8D3930700FC175700002304F7123A
:1017940083C7640013070008631CF700832709004C
:1017A4009C439983858BADE39757000023850710ED
:1017B4001C40985F1183058B09CB985F3D9B98DF94
:1017C4000547975600002387E60E985F1D83058B17
:1017D40011CB985F1377F7F798DF85471757000009
:1017E400230AF70C83270900D8430583058B19C7FF
:1017F400D843759BD8C3D843799BD8C33244A244F9
:101804001249410173002030930700FC1757000070
:101814002303F70A71BF17570000130767098347AB
:101824000700858B89EB83471700858B89E78347FE
:101834004700858BEDD78280175700001307C70434
:1018440014439C5E9583858BC5EF09C69C5ABD8362
:101854002300F600C5C983471500CDC7411106C64C
:1018640017560000034626059306000C6304D602AF
:10187400975700009387C70383C5670097570000F5
:10188400938787E69C5B1305300882970945B2402D
:10189400410182803E9583479500854613F6F706FD
:1018A400630AD60097570000938707E49C5B93056F
:1018B400D00FD1BFE207E1870945E3CA07FC1C4307
:1018C400985B4607935767016359070293E707C07C
:1018D4001387970F420741839306201F0145E3E8CE
:1018E400E6FA1387E19F0317070009C7BA97094768
:1018F400B3C7E702239FF19E59BFC207C187C9BF7F
:10190400054582801C43985B4607935767016359DA
:10191400070293E707C01387970F42074183930693
:10192400201F014563EDE6001387E19F03170700BD
:1019340009C7BA970947B3C7E702239FF19E82807C
:10194400C207C187C9BF49E597570000938707F8C5
:101954009443411122C406C62E873E84FC52FDFFE7
:101964003A85B285978001E0E780E001975700004F
:10197400938787F19C43B70680009843558F98C39B
:10198400D857719BD8D71C40094798C3B7F700E0D4
:1019940003A707D16D9B23A8E7D003A707D15D9BBD
:1019A40023A8E7D07300501017570000130747F01F
:1019B40083472700858B89EB83473700858B89E72D
:1019C40083474700858BEDD7B24022444101828092
:1019D4008D476310F504975700009387E7EA9C430B
:1019E400B70680009843558F98C3D857719BD8D7B2
:1019F400175700001307C7EB83472700858BBDEFFC
:101A040083473700858BBDEB83474700858BEDD734
:101A140082808547E31EF5FC97570000938707EB08
:101A2400944335673D07D8C60F10000017570000D0
:101A3400130787E514430946984231830D8B6313DA
:101A4400C70298439306E04374D3984389671CC73D
:101A5400930700F897560000238EF6E4BD67BD0790
:101A64005CC779B79842944331830D8B09E7130718
:101A74006019F8D2D9BF1307E01BE5BF82805D71FE
:101A84002AC62EC486C6978001E0E780001197809D
:101A940001E0E7806021975800009388E8DE83A77F
:101AA4000800175300001303A3E43706330023A4EC
:101AB4000700984B370EFCFF370F04001367F7033A
:101AC40098CB9843914F7D1E1377F7E798C39843BB
:101AD4008542930E80021377F7E71367071098C3C4
:101AE4008326030032459846518F98C61757000045
:101AF4001307C7DD18439306900D014634CB1377C3
:101B0400F51FE84FF576FD16137505E0598DE8CFFE
:101B14009843758F98C3A245814703A708000328FB
:101B240003009376F60F231C0704231007060325EE
:101B3400C80275992326A802032807001375F6071F
:101B4400137808F83365A80008C348533365E501E2
:101B540048D303558705E3FEAFFE48533375C501EB
:101B640048D303570706280832951377F70F230045
:101B7400E50019EF13D736002E97034507009D8A19
:101B8400B396D2008507C98E93F7F70F2300D700C9
:101B94000506E314D6F985461148854813038002E7
:101BA4006363F8040146814728083295034505001C
:101BB4001377F60F63E1A602135537002E95034EF3
:101BC40005001D8B3397E80085073367C70193F73A
:101BD400F70F2300E5000506E31866FC850693F677
:101BE400F60FE39F06FBB640616182801757000041
:101BF400130707CA8346B7019757000083C717CE58
:101C0400B69793F7F70FFD4663EAF6044C4B9756E5
:101C14000000A38FF6C69757000083C777C7054710
:101C24003317F70097560000A38AF6CA6D8F1DEF8D
:101C34009756000083C6D6CAB3F6D702130500022E
:101C4400814733D6F500058A13F8F70F09CE639957
:101C5400E60097570000A38D07C3828081177DB7E4
:101C640005071377F70F8507E39DA7FC8280975735
:101C740000009387A7AB9C43011122CC4EC606CE2D
:101C840026CA4AC852C456C28297975700009387FF
:101C940027C4804781496305A406BE849757000082
:101CA400938787A4038747013E8963550706018DFF
:101CB400135455009757000083C727BF9379F50144
:101CC400636DF402370AC0A8B70A405705379C442D
:101CD4009756000083C666BD139756003E97830748
:101CE4004901158C63C507006363470156979757ED
:101CF400000023A3E7BEE37BD4FC1604B3693401DC
:101D0400F24062444E85D2444249B249224A924A40
:101D140005618280E37D85F8B707C0A833848740D6
:101D2400229579B797570000938747A09C434111A8
:101D340022C406C626C2829797570000938747B9E4
:101D440080476309A406BE84975700009387C79908
:101D54008387470163D80704018D135455009757AF
:101D6400000083C787B46367F404493598449757E0
:101D7400000083C787B39396570036971D8C9756F8
:101D8400000023ABE6B4E372F4FE2244B240924472
:101D9400175500000345D5AF81454101179301E074
:101DA40067008371E37A85FAB707C0A83384874054
:101DB400229565B7B24022449244410182809757EC
:101DC40000009387E7B29843B75702009387079FB1
:101DD40083260709139656006358060083260709CD
:101DE4001396660063440600FD17FDF382802167A5
:101DF4000507AA876397E50003C7C19E014565E30C
:101E040082800145E5C3F9CD8D07C207C183F19BEB
:101E1400C207C18313074003636FF702175700001B
:101E24001307C7B20843175700001307A7B1144399
:101E34006398A602175700001307078B185B014528
:101E440055C34111C20706C60545DD8D0297B24050
:101E5400014541018280175700001307E7AED9B747
:101E6400035765003DEB035745006368F706B30667
:101E7400F740214617580000130888AD637AD6024C
:101E84008328050003260800938687001D8FAA96E1
:101E940061172392E60023A016012393060014C1C0
:101EA400130786FF2312F5009756000023A2E6AA23
:101EB40021672313B50005076397E50003C7C19E97
:101EC4007D172386E19E832508002105B387F5400D
:101ED40017570000232EF7A68280084191BF0145C1
:101EE40085F7828082800DC197570000938707A6EB
:101EF40003A30700975700009387C7A483A807008C
:101F040001479A8763E31701828003A80700636986
:101F1400F50A6367A80A93868700E367D5FE03D6AC
:101F24006700A16685066317D60083C6C19E850631
:101F34002386D19E97550000938585A1944103D6AD
:101F4400470023930700B296175500002322D5A01B
:101F5400638A6702175500001305059F0841630350
:101F6400F5020355670019ED835747002320070145
:101F7400A1063E9621069757000023ABD79C231257
:101F8400C700BA879843E30117F997560000938670
:101F9400A69B9442E30AD7F683566700B5F683D628
:101FA4004700035647001843A106B29698C32392EC
:101FB400D7009C41A10717570000232BF798828074
:101FC4003E87C28781B7011197570000938707990D
:101FD40022CC03A4470B26CA4AC84EC606CEAA84FE
:101FE40013092500854915C083C71400034734002D
:101FF400858B6304F700405CFDB7194693054400E4
:102004004A85EFE05F8EE31835FF2285F240624493
:10201400D2444249B2490561828041119757000078
:102024009387C79322C403A4470B26C24AC006C69B
:1020340093042500054901E82285B24022449244D4
:10204400024941018280A6851305A402971002E08B
:10205400E780E0C9E30225FF405CF1BF41119757D7
:1020640000009387A78F22C403A4470B26C24AC04B
:1020740006C693042500054901E82285B24022449E
:102084009244024941018280A6851305A401971058
:1020940002E0E780C0C5E30225FF405CF1BF011107
:1020A400975700009387878B22CC03A4470B26CA3B
:1020B4004AC806CE2AC42EC6B284054919E0014591
:1020C4003DA003479100834734006318F702194683
:1020D400930544001305A100EFE0FF80631F250171
:1020E400A6851305A402971002E0E78040C0F240E1
:1020F4006244D244424905618280405CC1B7000019
:10210400971100209381C1D917610020130141EF79
:102114001305400097E5FF1F938585EE1706002001
:10212400130606FE63FAC5008322050023A05500AA
:1021340011059105E3EAC5FE174502001305C547DD
:10214400970500209385C5FB1386018C63FAC500AF
:102154008322050023A0550011059105E3EAC5FE7D
:102164001385018C975500209385458E6377B500C0
:10217400232005001105E36DB5FEFD42739002BCFA
:102184008D42739042809302800873A0023097E2DC
:10219400FF1F9382E2E693E232007390523097522B
:1021A40000009382C2CE73901234730020303D43FA
:1021B4002A876373C3029377F700BDEFADE5937687
:1021C40006FF3D8ABA960CC34CC30CC74CC74107E3
:1021D400E36BD7FE11E28280B306C3408A069702FE
:1021E400000096966780A6002307B700A306B700F1
:1021F4002306B700A305B7002305B700A304B7005F
:102204002304B700A303B7002303B700A302B70056
:102214002302B700A301B7002301B700A300B7004E
:102224002300B700828093F5F50F93968500D58D32
:1022340093960501D58D61B7939627009702000008
:1022440096968682E78086FA9680C1171D8F3E9601
:10225400E374C3F8A5B782803D897D15954763EE85
:10226400A70E17370200130767ED0A053A951C41BC
:10227400011106CEBA9782879705002093854542BF
:102284000545EF80702B17350200130565F0EF103C
:10229400C25011A803C725008D4717350200130546
:1022A40025F0E306F7FEF2400561828003C72500AE
:1022B4009547E31AF7FE03D5A500239CA18083C7A5
:1022C400418299E3EFD0214985472382F18C173568
:1022D40002001305E5ED65BF03C725008D47E31430
:1022E400F7FC17350200130565ED55B783C72500C4
:1022F4001147173502001305E5ED6384E704194718
:10230400639AE70283C5650017350200130545EE9D
:102314002382018CEF102234F957239CF1808547E6
:102324001306F100854513055030A307F100EFD0E3
:10233400811695BF1547E394E7FE17350200130590
:10234400E5ECEF108245E1BF83C525001735020097
:10235400130545EDEF102230B9B782800111230532
:10236400A1003400214685450D4506CE2314010005
:10237400A305010002C6EF103023F24005618280FC
:10238400011106CE22CC3A883E87B1E28D6793874D
:10239400D7A42A8EAE88328383460800631EF600D3
:1023A4008947639BF50085473544639DF600834761
:1023B4000700898BA383F18C1A86C6857285EF107A
:1023C40090692A842285F2406244056182808547AF
:1023D4006396F600C286EF10B06DE5B789470144F5
:1023E400E392F6FE1306F100854513055030A3076A
:1023F4000100EFD0410AF9B701119397050122CCEE
:1024040006CE26CAC1872E8463DC070003C5A181DA
:10241400EF40506D19C1EF4050662165218D3DA0FC
:1024240093F7150013C5150095E393F7450085C789
:1024340083C7A1811307803E814613060005C14569
:1024440003D58181EFC0315013454400F24062440A
:10245400D2440561828093F785009DC30147894674
:102464000946814503D58181EFD02131AA851735ED
:102474000200130525CEEF10021E13458400F9B7A0
:1024840093F70501C1CF6C0013055030A30501007B
:10249400EFC0716E0347C10085476319F700130647
:1024A400B100854513055030EFC0F17E970400203C
:1024B4009384041FA6850545EF80100831E91305B0
:1024C400C002854603C651808545EF20707783C7D7
:1024D400540003D58181FD17A382F18CC167F917DC
:1024E4006307F500EFD02127F957239CF180834738
:1024F400C1000547639BE7001306B100854513053A
:102504005030A305F100EFC01179134504013DBF1C
:1025140083C7518C8507A382F180D1BF93F725002F
:10252400B9C703C5B1811D3D83C7B181850793F741
:10253400F70F7147636BF7020145A38DF180393DB5
:10254400B7070200938707207400114685450545A7
:102554003EC6EF1070051306007D894503C5A181B1
:10256400EF50801E13452400D5B59147F1B79397DA
:10257400350163DB070093860196114685450545C1
:10258400EF109002056559BD9397250163DB0700A1
:1025940093868195214685450D45EF10F000096528
:1025A400B5BD9397150163DB0700938641960546F5
:1025B40085450945EF10407F11658DB593F70502F8
:1025C40099CF17360200130666BA81450145EF30EC
:1025D400001185472383F18C1345040285BD93F7CD
:1025E40005040145E38407E69387018C9043814504
:1025F40003D58181EFC0A1141345040481BD0111E9
:102604008D6585461306F100938515802D4506CE0C
:1026140097E0FF1FE78000DE8347F10019476373EB
:10262400F7008547F240A382F180056182800111A1
:102634008D65A307A1001306F100854693851580D7
:10264400294506CE97E0FF1FE780C0DAF240056116
:102654008280011117050000130545DA06CE22CC4D
:1026640026CAEF50E0519384A18105442380A4003D
:10267400700085451305503023068100EFC0B16119
:10268400138681809D4513056030EFC0D160170625
:1026940000201306E6A7D54513057030EFC0B15FDF
:1026A40017360200130646ADD5450145EF90200CC0
:1026B400894770009145130570402305F1002304F8
:1026C4008100A3048100A305810002C6EFB0711448
:1026D4003000854513050040EFB0B1131306910097
:1026E400854513051040EFB0D1121306A1008545AE
:1026F40013052040EFB0F1111306B1008545130511
:102704005040EFB01111A9477000854505452306D7
:10271400F100EF102005EF10D020970500209385DD
:10272400259E13850181EF10E06603C504008545ED
:10273400EF40507AF2406244D244056182804111F4
:1027440006C6EF20006483C731938DC7A389019225
:10275400EF20A00305C1974702009387E7E09C435D
:102764001D4783C727006384E7046362F7021147A8
:10277400638DE7029387C18C9C431307200385076D
:102784006369F702B24023A6F18C41018280594764
:10279400638BE7006947E39FE7FC85471727002021
:1027A4002322F736C1BF8947D5BF8D47C5BF91479F
:1027B400F5B7B24023A6018C41016F4010074111C7
:1027C40006C683C7519603C7418D6301F706238A62
:1027D400F18C17360200130666D089E7173602001B
:1027E400130686AA81452145EF20704F83C7519671
:1027F40003C7418C6384E7002383F18299CB11CB17
:1028040083C761821305800391C3694505468145E9
:1028140011A8014681456945EF20F06201468145D2
:1028240013058003B24041016F20F06183C7418CDE
:1028340003C7518D6301F706A38AF18C89CB173640
:102844000200130626CA81451305600271BF1736BC
:102854000200130666A3814513056002EF20304889
:1028640003C7618C8547E313F7F817360200130694
:10287400E6A1814501452383018C23A0018CEF202F
:10288400106605661306062C9305000203C55182E3
:10289400EF40906BA1BFB24041018280411106C656
:1028A400EF10F04283C7618C99E3EF10704637173D
:1028B40000408327470C83C68192B98393C71700CE
:1028C400858B6387F6028327470C1167F98F13B74B
:1028D40017002384E1928DE3173702001307C7CE54
:1028E400914613061005814513058004EF207044BA
:1028F400B24041016F10F036914613061005814530
:1029040013058004EF203049E5B703C75196854786
:102914006314F7006F4040518280154581A5411131
:1029240093962500AA852D4506C697E0FF1FE780EC
:1029340060ACB240014541018280411122C426C2EB
:102944004AC02A842E89B284AA85930600200146AF
:10295400254506C697E0FF1FE780C0A99316290006
:102964002686A285294597E0FF1FE780A0A8B240EC
:10297400224492440249014541018280011122CC42
:1029840006CE3714004026CA4AC84EC652C48344F1
:102994007405034AB4058349840503499405592BF6
:1029A4008347A40593F4F40F137AFA0F93E71700FF
:1029B400230DF40493F9F90F1379F90FB7170040B5
:1029C40003C7A705058B6DFF03D5C705A38D470571
:1029D400238C3705A38C2705A38B9704F24062440C
:1029E400D2444249B249224A0561828083C7519642
:1029F4000547639CE70003C761826318F700094633
:102A0400A14503C591876F4030548280411106C6A9
:102A140022C4EF20003783C731936387070AA38951
:102A2400019283C7618C0544639087021385018CEE
:102A3400EF20C06F51E92383018C1306001993051D
:102A4400000403C5A18191A8EF10305419CD83C7A8
:102A540051966399870403C761826315F704094695
:102A6400914503C59187EF40304E83C74193A9CF69
:102A74000D46814513851196238A0192EF40302A31
:102A840083C7519605476399E70203C761826315BB
:102A9400F7020946894503C591872244B2404101A2
:102AA4006F40904A03C7418C8547E310F7FC0D46FD
:102AB400896503C5A18145BF03C7418C854763155B
:102AC400F7000D468565B5BFB240224441018280BE
:102AD40083C76195BDC303C781878547631FF70417
:102AE400238B019483C651958D47639CF602A38A78
:102AF400019483C72196B307F04041112381F196D5
:102B040006C683C751966390E70203C76182631CBC
:102B1400F7000946894503C59187EF40F042B2406A
:102B240041016F20B06E03C7418C8547E319F7FE5E
:102B34000D46856503C5A181CDB7828083C75196B3
:102B44008DC383C7618291CF03C6018D83C7818CF6
:102B54006389C7002384C18C8545130580036F20D6
:102B6400503383C7418C91CB83C7618299E703C6F5
:102B7400718C83C7818CE39FC7FC8280411193973A
:102B8400050122C406C626C24AC0C1872E8463DA60
:102B94000700EF40207519C1EF40206E2165218D9B
:102BA40025A893F7150013C515009DE793F7250095
:102BB40013C5250095E393F785008DC79387C181DD
:102BC4009C4382970966130606F4A14503C5518206
:102BD400EF40903713458400B240224492440249A6
:102BE4004101828093F74500B9C303C79193854798
:102BF40097F4FF1F93840454631DF7009C4082974D
:102C04002146914503C55182EF40103413454400D9
:102C1400E1B717F9FF1F1309295183274900829748
:102C24008327090082979C448297DC40C9BF93F7AD
:102C3400050199CF9387C181DC438297130600066F
:102C4400C14503C55182EF4030301345040169B7D3
:102C540093F7050281CF172602001306665D8145AE
:102C64000145EF20D02713450402BDB793972501F2
:102C740063D00702EF70612F4D3137F6020013065F
:102C840006E0896503C55182EF40102C096501BF38
:102C9400939715010145E3D107F4172502001305A5
:102CA400655EEF00922F13060064916503C551829F
:102CB400EF4090291165E5B51D714946972502003D
:102CC40093854557173502001305453E86CEA2CCA1
:102CD40097E0FF1FE78020C101E9172502001305D3
:102CE400A556EF00922B01A0B7F600E0795798CAD9
:102CF400FD57DCCA0567B7E700E023A0E710130619
:102D0400F00290C223A0E718010001001306C003DB
:102D140081454808EF40B0009727002093870718A3
:102D24003ECA896793870780231CF100ED47A301FE
:102D3400F1023544930750108146014681452145EF
:102D44002312F1022303810297D0FF1FE780806AD8
:102D5400A167938707E03ECE97070000938767BC7F
:102D6400BEC497070000938787BDBEC68947230466
:102D7400F10297070000938727643EDAB7F507004E
:102D8400970700009387C7BF3EDE81469707000080
:102D94009387E7B87000E1051945BEC02308810296
:102DA40097D0FF1FE7800065580881479946700057
:102DB4003E960346060085070507A30AC700E39865
:102DC400D7FED24791C70357810185676373F70024
:102DD40001A04808EF40905EAA8501C917250200AA
:102DE4001305C547EF00320701A0F640664425618C
:102DF4008280130101DE2D469725020093858513F9
:102E04002800232E1120232C8120EF006279130641
:102E1400D01F814513053101EFF06FB9170500008C
:102E2400130505D6EF40D055138451822300A40026
:102E3400EF20B067EF20B010EF100065EF2070793D
:102E440085452800EF20D056EF10F06AEF30306E41
:102E54000345040037F60200130606E08965EF40D7
:102E6400B00E2800EF007213172602001306064165
:102E740085450945EF20A066130630058545514573
:102E8400EF206056EF30B05F85462A868545694558
:102E9400EF20005B13064004854513056002EF2014
:102EA4008054EFF0CFF5854603C651808545130560
:102EB400C002EF20E0580146854513058003EF204A
:102EC400407D17270200130727738D461306B007AA
:102ED40081451305B005EF20C065340017260200B4
:102EE4001306063A81450145A3070100EF20207F20
:102EF4000345040005661306062C93050002EF4003
:102F0400B0048320C1210324812113010122828082
:102F1400B717004003C777051A0592054D8D13773F
:102F2400E70F13653500A38BE7041375F50FA38C26
:102F3400A7048280B717004003C777051377E70F0C
:102F4400A38BE704130700F8A38DE7043D47238C04
:102F5400E70413075003A38CE7048280B7160040EC
:102F6400130670052380C604930780FA2380F604B1
:102F74000100010003C7F60213678700A387E60276
:102F840003C7F6021377770FA387E60203C7E602A7
:102F94001377C70F2387E60203C7E60213671700F8
:102FA4002387E6022380C6042380F604010001007F
:102FB40003C736057D78930E481F1377870FA389BF
:102FC400E60403C7360537160040116E1367170071
:102FD400A389E6042380F60483C736051167130F1B
:102FE400400893E70702A389F60483D7060513086C
:102FF400281B930F3004D98F11672398F6047D178B
:103004009147894213037005930880FA8346360575
:10301400A18AEDDE8356060583463605A18AEDFEB8
:1030240083560605B3E6C6012318D604834636053F
:10303400A18AEDDE8355060583462605F98DB30680
:10304400D702B695B386D5016371DF04FD1793F7F4
:10305400F70F85CFC29593961500B3C6F603635256
:10306400B002850685862300660423001605010048
:1030740001008355C602AE96C206C1822316D6024B
:1030840071B7FD16B3C65602F9BFB716004083C721
:10309400360513873605A18BFDDB83D7060583D759
:1030A40006051166D18F2398F604930770052380D3
:1030B400F604930780FA2380F60401000100834795
:1030C400070093F7870F2300F70083470700C98F92
:1030D40093F7F70F2300F7003717004083473705AE
:1030E400A18BEDFFB717004003C73705218B6DDFB8
:1030F40083D6070583C7270511667D16F18E33062F
:10310400F60285659307C003138705C83696938630
:1031140005FAB396A600B386F602A1679385559C7B
:10312400B3C6F6029307803EB386F602B357A740B0
:10313400B306D640B387D702B3C7B7026351D004EE
:103144008507094793067005B3C7E70237170040A0
:103154002300D704930680FA2300D70496070100BE
:1031640001008356C702B697C207C1832316F7022C
:103174008347370593F7F70DA309F7048280FD17FA
:10318400C9B7914763EEB7021727020013078710E8
:103194008A05BA959C41BA978287B717004003A75E
:1031A400470B1345F5FF698F23AAE70A03A7070B0B
:1031B400698F23A8E70A03A7070A798D23A0A70A22
:1031C4008280B717004083A6470B1347F5FFF98E9B
:1031D40023AAD70A83A6070B558D23A8A70A83A67B
:1031E400070A758F23A0E70A8280B717004003A758
:1031F400470B498F23AAE70A03A7070B1345F5FFDB
:1032040045BFB717004083A6470B1347F5FF758FDB
:1032140023AAE70A03A7070A598D4DB7B717004039
:1032240003A7470B498FEDB7914763EEB702172702
:103234000200130767078A05BA959C41BA978287EB
:10324400B717004003A7470D1345F5FF698F23AA5D
:10325400E70C03A7070D698F23A8E70C03A7070C46
:10326400798D23A0A70C8280B717004083A6470D51
:103274001347F5FFF98E23AAD70C83A6070D558DA6
:1032840023A8A70C83A6070C758F23A0E70C8280C4
:10329400B717004003A7470D498F23AAE70C03A7DC
:1032A400070D1345F5FF45BFB717004083A6470D2B
:1032B4001347F5FF758F23AAE70C03A7070C598D55
:1032C4004DB7B717004003A7470D498FEDB7935784
:1032D400E50093F70730C98FC2070547C1836382AE
:1032E400E5048DC10947638DE5040D476380E50658
:1032F40037170040231FF70883562709D58F231952
:10330400F7088280371700400356670993C6F7FF12
:10331400F18E231BD7088326C70C558D2326A70CB3
:10332400C1BF371700400356670993C6F7FFF18EF4
:10333400231BD7088326870C558D2324A70C4DBF48
:103344003717004083566709DD8EE1B73717004011
:1033540083566709DD8EE9BFB717004003D787019D
:1033640009C5D98D239CB700828093C5F5FFF98DDB
:10337400D5BFB717004003D5870042054181937735
:10338400050491EB9377F5013755E80113050580A2
:103394003345F50282809377050C13070004639785
:1033A400E7009377F50137459C1CCDB721651305DC
:1033B40005D08280B7F700E08847CC4782808147F8
:1033C40037470040A14663C4C70032858280034565
:1033D400B7C0E38EA6FE3385F500034505008507D7
:1033E4002304A7C0CDB712059A054D8D1365C500FA
:1033F4001375F50FB72700402380A7408280B727B5
:10340400004001E5A38007408280239CB740239EAF
:10341400C740154791E20547A380E74082804111E8
:1034240022C406C62A84B1372947B307E502B2404D
:103434008D83B3D7870222449507B3D7E702374772
:103444000040C207C1832316F7C041018280716521
:1034540041111305052006C6D937B74700401307A5
:1034640070F82381E7C00D47A381E7C01307000468
:10347400A380E7C005472387E7C0B24041018280AB
:10348400B7870040238007001307C0FC2386E700AA
:10349400A386E700171700200357C76E2398E70099
:1034A400171700200357476E239AE70017170020C9
:1034B4000357C76C239CE700171700200357476C7A
:1034C400239EE70089462381D70249472383E702E5
:1034D4002385E7022387E7022389D702A381070014
:1034E400130790022380E700B716004003D7A60114
:1034F4001367070C239DE6007D572383E70013071A
:1035040010F8A380E7001D472381E7008280B78776
:1035140000402382A70203C767021377C70F2383E0
:10352400E7028280B78700402384A70203C7A7026B
:103534001377C70F2385E7028280B787004023866D
:10354400A70203C7E7021377C70F2387E702828026
:10355400B78700402388A70203C727031377C70F41
:103564002389E70282809387018E9C43011106CE52
:1035740022CC91C382979387419280439387418E53
:103584009C4313150401418181C72AC682973245A1
:1035940083D7A1826379F50403D7C1826378A70432
:1035A4009386C18D03A30600630603006244F240C0
:1035B400056102838507998F13950701418193570C
:1035C40025001315040141816544198D33058502D5
:1035D4001384F7FF22953345F5021375F50FF24076
:1035E40062440561828013054006D5BF0145C5BF0D
:1035F40003A84500411126C206C622C48347180009
:1036040003480800A944A207B3E70701C2070D68ED
:10361400C187130828906396070385473284EF8097
:103624009023AA8419ED9387818D9C4399CB0345FC
:103634001400034704002205598D133515000505B0
:103644008297B240224426859244410182802D45CE
:103654003DE7D841411122C426C206C6834717005C
:1036640003470700B684A207D98F0D67930697A175
:1036740032846396D702C53D83C771826374F500B3
:10368400A383A18285472390F40083C7718223001A
:10369400F4000145B2402244924441018280130760
:1036A40087902945E398E7FECC4589472390F400A9
:1036B4000946228597D0FF1FE780601FD9BF82800B
:1036C40083474500858BADC7011122CC2A8403555D
:1036D4002500938581A606CEEF80B012058929C501
:1036E40003552400014781460546ED45EF80A04C73
:1036F4002AC61DC997F7FF1F938787A483D7A702FC
:1037040001462C002314F10085472315F10083C7DB
:1037140071822300F50003552400EF90A06C09C5C5
:10372400ED452800EF80E060F2406244056182804C
:10373400828041654111938581A67D1506C6EFA05F
:10374400005AB24097F6FF1F938686A441469545DA
:1037540017F5FF1F1305C59E41016FA0604D23ACF3
:10376400A18C8280411122C406C685470944631195
:10377400F502834706000144238BF18C03C7718251
:103784006378F700170500001305C5F3EFC0D004F4
:103794002285B24022444101828085476301F502BB
:1037A40009C909476302E5020D476306E5020945B5
:1037B400828083C771822380F500014582809387CC
:1037C400618D83C70700C5BF97F7FF1F83D7E797AE
:1037D4002390F500DDB71387018303570700239275
:1037E400E50017F7FF1F1307A7958356A702035792
:1037F400A7032383F5002390D5002391E50075BF2B
:10380400411106C68D3383C77182637AF500A383A1
:10381400A182170500001305E5EAEFC0E07BB24082
:1038240001454101828041677917630CE50241112A
:1038340022C406C685472A84639AF5002285224459
:10384400B240938581A641016FA060498947639680
:10385400F5008545EFC0C07275D1B24022444101E4
:1038640082808280CC41411106C6328503C6150090
:1038740083C5050022064D8E42068D654186138858
:1038840075A2630C060F6348C804138845A2630637
:10389400060B634AC800938535A26309B6062390D4
:1038A4000600294679A0138855A26308060B938560
:1038B40065A2E316B6FEC1451D4663ECE506454622
:1038C400198E63F3C7003E862390C6009725020035
:1038D4009385C59F89A8138895A26300060F634E3C
:1038E400060B1388A5A2630A060F938505A5E318A2
:1038F400B6FA99451D4663EEE502198E63F3C700D7
:103904003E862390C6009385818331A89D451D463C
:1039140063E1E5022146198E63F3C7003E862390D6
:10392400C6009385818EBA9597D0FF1FE78020F853
:103934000146B240328541018280AD451D46E3EA2D
:10394400E5FE3146198E63F3C7003E862390C60018
:10395400972502009385459BF9B7B1451D46E3EAD7
:10396400E5FC3546198E63F3C7003E862390C600F6
:10397400972502009385459A7DB7C1451D46E3EA24
:10398400E5FA4546198E63F3C7003E862390C600C8
:10399400972502009385C59479B7C1451D46E3EA8E
:1039A400E5F84546198E63F3C7003E862390C600AA
:1039B4009725020093854597BDB7C1451D46E3EAA7
:1039C400E5F64546198E63F3C7003E862390C6008C
:1039D4009725020093850592B9B7B5451D46E3EADC
:1039E400E5F43946198E63F3C7003E862390C6007A
:1039F400972502009385858C3DB797F6FF1F938624
:103A0400E68C4146CD4517E5FF1F130525796FA0C8
:103A140020228280938741909C4303C7818F83C671
:103A2400318501E781473E85828003D6070063160E
:103A3400A60003C66700E308D6FE7D171377F70FC9
:103A4400A107C5B7B2862E86AA85172502001305DD
:103A540065926FF051400111930500030D4506CEA8
:103A6400EF506069930500051145EF50C068930558
:103A7400C0030545EF50206885471306F1008545CE
:103A840013055030A307F100EFB0F120F2400561B7
:103A940082809387C18F9C43328791C703A3870099
:103AA40063030300028309CB130600199305000284
:103AB40003C5A1816F30504982808547631CF5009E
:103AC4001166130686A98945171500200345050CC0
:103AD4006F30904789476319F50089451715002011
:103AE4000345C50A6F30D06E828085476398F50020
:103AF40019E22389B18E2384C19082800947639996
:103B0400E50019E62389F18E03D5018F6F00300893
:103B1400828001119397050126CA06CE22CC4AC899
:103B24004EC652C4C187AE8463D907081715002056
:103B34000345C505EF30007B2A8439C903470500D6
:103B44009307000D6313F704834725004547638BF0
:103B5400E7046547639BE702171502001305057E1A
:103B6400EFF0712F130954009309B400171A0200DF
:103B7400130A0A7E8345090052850509EFF0B12D29
:103B8400E39A29FF2945EFF011312285EF30E06EE9
:103B94002165258DF2406244D2444249B249224A09
:103BA4000561828003466500834575001715020090
:103BB4001305857AEFF0312AC9BF93F7150085C341
:103BC40017E6FF1F130646719385418417150020DD
:103BD4000345C5FBEFB0C15D13C5140065BF93F782
:103BE40025000145C5DB29391166130686A98945D7
:103BF40017150020034585F9EF30103513C524004F
:103C040051BF797126D24ECE06D622D44AD052CC98
:103C14009147AA84AE896314F50483D7A5001306DB
:103C2400E1008545130550302398F18E23070100E8
:103C34002389018EEFB031069387C18F9C4391C7CE
:103C4400DC4781C7CE8526858297B250225423AAA9
:103C5400918E02599254F249624A456182801387D7
:103C6400418F1843E31AF7FC854503D5018F653E60
:103C7400854503D5018FEF004077C16703DA018FD3
:103C8400F917631BFA0205449305E100130550413B
:103C94002389018EA389818423070100EFA0611089
:103CA4008347E100B1E303C781909147E316F7F836
:103CB4005D332384019049B79387419003A907009A
:103CC40003C4818F69D00355290011C99305E1000C
:103CD400EF80D01909C54C455285EFA040007D14F2
:103CE4001374F40F2109F9BF938701909C4383C790
:103CF4004700898BCDDB9305000A0D45EF50A03FAB
:103D04009305000A1145EF50003F81450545EF50EA
:103D1400803E1306E10085451305503023078100DA
:103D2400EFB0617749B70111170500001305A5DE4F
:103D340006CE22CCEF30D06417140020130404E51F
:103D440085471306F10085452300A400130540416F
:103D5400A307F100EFA0E12B7D55EF70302F7D55C7
:103D6400EF90D0745939EFF0DF9CCD2B170500008C
:103D74001305E5D4EFF0BF9E170500001305A5C990
:103D84002125034504008545EF30D014F2406244F8
:103D94000561828023AEB18E23A0A190828023A2EC
:103DA400B190238CA18E82809387418F9C4379713B
:103DB40006D622D426D24AD04ECE52CC1147639B8B
:103DC400E70483C7218F414481CF93874190804387
:103DD400B284B68983C7818F03C7318599EB554473
:103DE4002285B250225492540259F249624A4561E2
:103DF400828083464400639AA600834654006396F7
:103E0400B600834664006380E606FD1793F7F70F58
:103E14002104E9B709474144E384E7FC2C00130576
:103E2400504123040100EF90D177834781008DCB6B
:103E3400930500020D45EF50002C93050003114536
:103E4400EF50602B95450545EF50E02A854730003B
:103E54008545130550302304F100EFB0C16349B721
:103E6400DD3E4144B5BF0355240093056100EF8056
:103E7400E07F35D54C4503D5018FEF808018058947
:103E840039DD1399040113590901014781464A8612
:103E9400ED4503D5018F035A0400EF70D0512AC6B3
:103EA4004D441DDD2686CE852314410123152101B1
:103EB40097D0FF1FE780A09F01462C0003D5018FF8
:103EC400EF8050722A84E30D05F0ED452800EF7071
:103ED400506639B7C841011122CC06CE328403465C
:103EE4001500034505002206498E19CB0D681308F9
:103EF400B8A42D45630A0607F24062440561828036
:103F04000D651308D5A463000603130825A2630CEA
:103F1400060175781308E85C3298420813580801C2
:103F2400854863EF080303D5A50036C632C4EFF015
:103F34007FAEB24615C19387C18F9C432246834509
:103F4400550003A30700A2876244F24003454500DD
:103F5400368785460561028323900600014569BFC3
:103F64001308B5A46317060303D6A1851D45E3759D
:103F7400C7F8198E63D3C7003E86CC452390C6008C
:103F840042064182BA95228597D0FF1FE78020928E
:103F9400F1B79307A5A46318F60091472390F600A0
:103FA4001146CC45CDB7930785906317F600894732
:103FB4002390F6000946F5B79307E5A4631AF600C3
:103FC400DC452390160183C707002300F40079B76A
:103FD40013057590E314A6F8D9BF011122CC06CEBF
:103FE40026CA4AC82317D1002D4431EBDC412E895F
:103FF400B28403C4170083C7070022045D8C8D6755
:104004009386D7A46306D400938627A36310D404AD
:104014000355A900EFF01FA019E101440DA09387F7
:10402400C18F9C43834555000345450003A8070001
:104034002286A6871307E100814602982A842285F6
:10404400F2406244D2444249056182809386C7A407
:104054006314D4028357E10005473544E391E7FE36
:104064000345060013040008E3EBA7FC9387C18F04
:104074009C43DC43829755B793862790631AD402F6
:104084008356E1008547EF70107D2A844DF99387AC
:1040940041908356A9009C4303C7818F3DDF03D61B
:1040A40027006302D6047D171377F70FA107FDB726
:1040B4009387E7A4E313F4F68357E10005473544F7
:1040C400E39FE7F60345060013040008E3E9A7F6B7
:1040D400DC452380A7009387C18F9C433335A00020
:1040E4000905DC4341BF1387C18F184303C547004B
:1040F40083C5570083C714000328070003C70400BF
:10410400A2078946D98FC207C18705476383E700A1
:104114008D460D66A6871307E100130626900298C4
:1041240039BF411122C441641305F4FF938581A969
:1041340006C626C24AC0EF90903A1305F4FF938551
:1041440081A8EF90D0391305F4FF938581A797E4F4
:10415400FF1F93842419EF90903897E6FF1F9386EE
:1041640066364146F9452685EF90902CCC4C2A8939
:104174000945EFF08FE2138741869387C186834513
:1041840007000346170083D7070003D7A41013843E
:1041940081AA2312F4002314E40083D7A40C03D7C8
:1041A400A411A306C400A30EC40003D6A4172310AD
:1041B400F4002315E40083D7A40D13878186834676
:1041C400070003D5A41403471700231CC40003D617
:1041D400A4182311F40085472303F4002307F400F3
:1041E400230AD400230BF400231DC4002302D402A9
:1041F4002306B400A30AE4002318A400230EB40089
:1042040023190400230F0400A302E40203D7A41A11
:104214002307F402231104022310E4021387018606
:104224000357070023030402231504022316E402A0
:1042340003D7A41C938581AD0D452314E402EFF04C
:10424400CFD5A2852145A13EB24022444A8592445D
:104254000249410182808D67138527A36301A60467
:104264009387D7A40145631EF6008947639CF50034
:10427400854735456397F600834707002387F19008
:10428400014582808D472945E39DF5FE85473545E7
:10429400E399F6FE834707002386F190D5B7854757
:1042A4003545E390F6FE83470700A385F190C9BF27
:1042B4008D67138527A36308A6029387D7A4631782
:1042C400F6028947639BF50083C7E1902300F7005A
:1042D40085472390F600014582808D476398F50059
:1042E40083C7C190E5B783C7B190CDB723900600CB
:1042F400DDB70145828025E303A84500AE888347E6
:10430400180003480800A207B3E707010D68930EDD
:10431400F8A4639AD70391473548639FF60203A52F
:10432400C8004111B285114606C697C0FF1FE78039
:1043340000589387C1919C4305458297B240014838
:104344004285410182809308289029486396170189
:1043540085476F7050502D484285828041654111D8
:10436400938581AE7D1506C6EF907017B24097E62F
:10437400FF1F9386E61B4146994517E5FF1F13056A
:10438400251541016F90D00A23AEA19082800111BE
:10439400938581AE22CC06CE2A84EF70904605899F
:1043A40029C1014781460546ED452285EF70B000DD
:1043B4002AC605C997E7FF1F9387871183D7A705E7
:1043C40001462C002314F10085472315F100230036
:1043D40005002285EF80102109C5ED452800EF7006
:1043E4005015F24062440561828041677917630C7D
:1043F400E502411122C406C685472A84639AF50062
:1044040022852244B240938581AE41016F90300DE4
:1044140089476396F5008545EFB0903675D1B24073
:1044240022444101828082800567930747D563F85F
:10443400A702930667DE854763F1A602930687E722
:10444400894763FCA6009306A7F08D4763F7A6008F
:104454009307D7F9B3B7A70091073E8582808147B8
:10446400EDBFB717004017070020130747722394C6
:10447400E706170700201307C7722396E7061307FA
:1044840010FCA380E706828041118545116506C6AC
:10449400EFE09FD9814513050010EFE09FCE8945D9
:1044A4000145EFE0FFA6B71700403147238CE7042E
:1044B4000547238DE704A38107066537B24003C58A
:1044C400518213060064A14541016F30E0271707AC
:1044D40000201307C76B970600209386866C8147DC
:1044E400035607000907B297E31CD7FE2947B3D741
:1044F400E7021387019218439386870C63E9E60069
:1045040013874192184323A0E19223A2F19282805F
:1045140001114EC69389419222CC03A4090052C4CE
:1045240006CE228526CA4AC80137938701922A8A71
:104534008843330485409357F4413D8C1D8CED35FD
:10454400631345039307100363CA870C814513055E
:104554008007EF00B06185451305000EEF00705E23
:1045640085450145C1A8171702001307E7088D46C2
:104574001306B00781451305B005EF00907B814514
:104584001305D005EF00905E81448545639344058F
:104594001305D005EF00905D8144639E4405894571
:1045A4001305D005EF00905C8144E38D44F9854503
:1045B4002145EF00105911497D1985452D45137981
:1045C400F90FEF001058E31909FE850493F4F40F72
:1045D400E9BF4145EF00F05611497D1985451305A2
:1045E400000D1379F90FEF00D055E31809FE850487
:1045F40093F4F40F59BF85450145EF0090541149D8
:104604007D1985451305F00F1379F90FEF007053E9
:10461400E31809FE850493F4F40F41B781451305AB
:104624008007EF00B05485451305100EEF0070515C
:1046340085452D45EF00F0508D451305F005EF003D
:10464400F052624403A60900F240D2444249B249FE
:10465400224A91468D451305F00505616F00505EB1
:10466400411193064005170600201306E658896594
:104674002D4506C697C0FF1FE780C0D7B2408965A5
:1046840093064005170600201306C651938505407E
:104694002D45410117C3FF1F6700C3D54111930680
:1046A400400517060020130626558965294506C6C8
:1046B40022C497C0FF1FE780E0D389651374F50F08
:1046C40093064005170600201306C64D9385054042
:1046D400294597C0FF1FE780E0D1418DB2402244B5
:1046E4001375F50F410182800111130640059715DA
:1046F4000200938565E1170500201305E54F06CEFA
:1047040022CCEFE0F169130640059715020093856A
:1047140065D3170500201305E548EFE07168BD3F38
:104724000D641306F1009305048085462945A3070B
:10473400010097C0FF1FE780E0CB85471306F10017
:104744009305148085462945A307F10097C0FF1FF0
:10475400E78040CAF24062440561828097070020E6
:1047640093878749970600209386C64303C7370576
:104774006318B700A389A704FD17E399D7FE39BFCF
:10478400E31CA7FEA389B704C5BF411106C683C7AE
:104794002193638E072003C7B195631A07208546CA
:1047A400A381D19483C7A19503C7019389EF19C34A
:1047B4000145F9AC2388D19283C7119393F7070F6E
:1047C400A388F192F5B789466310D70203C7119302
:1047D40091466315D700A388F194D9BFA146E31984
:1047E400D7FCA380F194E9B719466398C7002388DE
:1047F400D19283C71193B18BE1B7D546639BD700A0
:104804009307100B6302F71A930710FB2388F192A6
:1048140099A095466399D7009307000B6306F71890
:10482400930700FBE5B79306D0026399D702930779
:10483400100C630BF716930710FC2388F19283C7BF
:10484400419693E707012382F19697E7FF1F938729
:10485400A78D9C478297A388019299BF9306E00293
:10486400639FD7009307000C6300F714930700FCC1
:104874002388F19283C7419693E78700E9B79306AB
:10488400C0046398D7009307E00F630FF710F9573C
:10489400B5BF930650036399D7009307000D6305D2
:1048A400F710930700FD9DB7DD466399D700930782
:1048B400100D630BF70E930710FD89BF930670026A
:1048C4006398D7009307000E6300F70E81573DBF2E
:1048D400F9466398D7009307100E6307F70C8557C2
:1048E40035B7FD466398D7009307200E630EF70A89
:1048F400895729BF930600026398D7009307300EA7
:104904006304F70A8D5719B7930610026398D7000A
:104914009307400E630AF7089157CDBD9306200212
:104924006398D7009307500E6300F7089557F9BDB5
:10493400930630026398D7009307600E6306F70668
:104944009957E9B59306A0036398D7009307000F1E
:10495400630CF704C1575DBD9306B0036398D70099
:104964009307100F6302F704C5574DB59306C003B0
:104974006398D7009307200F6308F702C95779B5E6
:104984009306D0036398D7009307300F630EF700A4
:10499400CD57ADBD9306E0036398D7009307400F4E
:1049A4006304F700D1579DB5238801926DB503C701
:1049B40031940545631EA70C639C070CA3810194E5
:1049C40083C701931307000E6387E7206361F70A27
:1049D4001307100B6387E7126360F7040947638FBB
:1049E400E70C1307000B6385E712E393A7DC83C787
:1049F4001193C10793F7F70F13070005E392E7DC60
:104A0400A388019223880192C53117160200130668
:104A1400A6A8814501456DAA1307100C6381E71010
:104A2400636DF7001307000CE394E7D82388019221
:104A340083C7419693F7770FCDA81307000D6386BC
:104A4400E7121307100DE395E7D62388019283C775
:104A5400818713B71700238CE1861716020013060B
:104A6400A6A6C5DB17160200130686A65DB71307B4
:104A7400200F638FE7206360F7021307000F63853D
:104A8400E71C6366F71E1307600E01456372F71A8D
:104A9400B240410182801307400F638DE72263EA2D
:104AA400E7201307E00F638BE7081307F00FE39188
:104AB400E7D0A388019223880192DDB983C71193BB
:104AC400910793F7F70F3147E39CE7CE17160200DF
:104AD4001306469D81450145A388019223880192CE
:104AE400EF00F03F05661306062C9305000203C58C
:104AF4005182EF20704583C5119503C51194B939CE
:104B040045B92388019297B0FF1FE780C07C4DB15F
:104B14002388019297B0FF1FE780407751B923881B
:104B2400019283C7419693F7F70E2382F19697D7A4
:104B3400FF1F9387675F9C4782979DB923880192E3
:104B440083C7919381EF8547238CF19297270000C7
:104B54009387C72223AEF186EF20804683C79193C3
:104B640093B71700A38CF192A1B12388019283C754
:104B7400418CE39F07C283C7418293B71700138612
:104B840041828545130550302382F182EFA0B11094
:104B9400AA861DC117160200130686918145014598
:104BA400EF00F03305661306062C9305000203C5D7
:104BB4005182EF207039EDBE83C74182171602007F
:104BC4001306868F89E7171602001306668F814540
:104BD400EF00F030C1BF03C561821335150023888F
:104BE40001922383A18283C7519695C783C7418CC1
:104BF4009DC3F9473305F502014681456905EF0078
:104C0400902483C761821305800391C369450546D7
:104C14008145EF00502383C76182171602001306F3
:104C2400A68BE39807DE171602001306668BD5B32E
:104C340093870702A382F1801306401F2388019201
:104C4400C14503C5A181B5B7238CA19217160200F3
:104C5400130686898545514523880192EF00300863
:104C640097270000938707A623AEF18691B6238C7D
:104C7400A1921716020013066687854551452388BD
:104C84000192EF00D00597270000938767A5E9BF3D
:104C9400238CA1921716020013068685854551457B
:104CA40023880192EF00B00397270000938767B22F
:104CB40065BF238CA192171602001306A6838545AF
:104CC400514523880192EF009001972700009387B4
:104CD400C7BA59BF238CA192171602001306C681C6
:104CE4008545514523880192EF00607F9727000096
:104CF400938767C595BF411106C622C426C2EFF04B
:104D04003F969384C193FD5717070020A30CF7F235
:104D14009C4037140040914593E7C70F23AEF192AE
:104D24000327840CD98F2324F40C8840EFE0CFCFE1
:104D34009C400327840C970602009386266D93F704
:104D4400F7F7D98F2324F40C1387C1921C43170659
:104D540002001306266F8C429106CD8FE39DC6FE9A
:104D640023A6F192B716004003A6860A2244B24055
:104D7400D18F23A4F60A92440843854541016FE08C
:104D84004FC003D761939307F7FF5D71C20786C6CF
:104D9400A2C4A6C2CAC04EDE52DC56DA5AD85ED6C7
:104DA40062D466D26AD06ECEC183AD4663E4F61691
:104DB400B1476310F702970700209387A7DE170611
:104DC40002001306A6738545094523AAF186EF0060
:104DD400007183D761938507239BF192138481AF7C
:104DE400970B0200938B8B62814AA284938C418738
:104DF400170C0020130C4CE017090020130989DA62
:104E040093890187138B819519473387EA0203CA73
:104E14000194B716004003A60B0083A6460AF18E40
:104E2400B307E400D29783C507006391051ED1E65A
:104E340083A70C0083C601873E979D47529763F86A
:104E4400D700034607009307F00D63F8C706994798
:104E54003386FA028545B387C400D2972380B7000E
:104E64009387C1878C4397270000938707A1639B8F
:104E7400F502970702009387676EB297D29783C7AC
:104E840007001306F00F638FC7000D463386C70271
:104E9400938781DDB2973D462381C700A380C70075
:104EA4002380C7000546A389C19283470700930561
:104EB400F00F6397B70C2389C192850AB947910B08
:104EC400E394FAF403C701949306170093F6F60FDC
:104ED4002380D194970702009387876D0A07B7153B
:104EE40000403E9703A6850C1843518F23A4E50C7C
:104EF40015476374D7002380019483C601948A06FE
:104F040037160040B6970327C60C9C43D98F232637
:104F1400F60C81A883C7F194E38207ECA38701947C
:104F2400138481958944930990031D4A2149834739
:104F34002400639C370133069A409305340013051B
:104F44002400EFE0E165A38F019485040504E39058
:104F540024FF83C70187FD172388F1868547A3892A
:104F6400F192B640264496440649F259625AD25AFE
:104F7400425BB25B225C925C025DF24D61618280B5
:104F84001306F00E6374F602171702001307075E88
:104F94001443938707F1054703C60600B317F700C8
:104FA400D18F2380F600238AE19201BF1306F00D0E
:104FB400637DF6000547938707F2B317F7000347AD
:104FC4000B00D98F238CF194CDBD9947B387FA0296
:104FD400E2973E9A03460A00930790036316F6008D
:104FE4008547239BF192D1BD938716002388F186D0
:104FF40083470700DA962380F60083D7619393B73B
:10500400D70093C717002388F19445BDE38706EAC8
:10501400238007008547A389F19283A70C00930698
:10502400F00FBA97D29783C707006395D7002389F7
:10503400019261B59306F00E63F2F60217170200AF
:105044001307C7521443938707F1054703C60600A5
:10505400B317F70093C7F7FFF18FA1B79306F00DCD
:1050640063FDF6000547938707F2B317F70003477C
:105074000B0093C7F7FFF98FB1B7B307EC00D297D2
:1050840083C7070093069003639ED70403D76193F5
:10509400B14763FBE700170602001306261E854589
:1050A400094523AA8187252983C7019591C703D779
:1050B4006193B14763E3E70283C701871D47636ECA
:1050C400F7000547A387E194138717002388E18637
:1050D400DA97130790032380E700239B0192238828
:1050E4000194E1BB4A97138D8195954D3A9AFD56EB
:1050F40003472D006386E70003460A00631EE600AB
:105104006E8693053D0013052D003EC6EFE0414930
:10511400A38F0194B247FD56FD1D050DE39ADDFCF6
:1051240083C70900FD172388F18641BBB707030431
:105134000111938717203EC2B7070708938757606A
:105144003EC4A5472316F10006CE22CC26CA03C7C7
:10515400A1959306A00283C721946310D7061387F1
:1051640081948DC3FD1793F7F70F2381F194BA97B8
:1051740023800700938741949C43A946B3D7D70261
:1051840023A2F1948307070099EF17060200130680
:10519400E6FD81450145A12305442285F240624490
:1051A400D244056182809386819417060200130617
:1051B400260D814501452523C5B799466394D70437
:1051C400930780020544E31AF7FCAA841706020039
:1051D4001306063381450145192305661306062C7B
:1051E4009305000203C55182EF2000569387419432
:1051F4009C4301449CC0238401942381019423A2F1
:10520400019461BF930627FE93F6F60F25460544E5
:10521400E365D6F814083697034667FD138741946F
:105224001443294781453307D7020145329723A206
:10523400E194138717001377F70F2381E194938682
:105244008194B697130606032380C7003697170682
:1052540002001306E6022300070051213DBFB717E1
:10526400004003A7870C1367071023A4E70C03A7C8
:10527400870C1367072023A4E70C03A7C70C136745
:10528400071023A6E70C03A7C70C1367072023A660
:10529400E70C8280B717004003A7C70C13670710F9
:1052A40023A6E70C03A7870C1367072023A4E70CA6
:1052B40003A7870C1367071023A4E70C8280371712
:1052C40000408327C70C93E707202326F70C2147C8
:1052D400B717004093168501E18663DD060483A6B3
:1052E400870C93E6061023A4D70C03A6870C7D171E
:1052F40006051366062023A4C70C03A6C70C137760
:10530400F70F1375F50F1366062023A6C70C9386B3
:10531400870C9385C70C5DFF83A7870C93E7071061
:105324009CC29C4293E707209CC29C4193E70720C0
:105334009CC1828083A6C70C93E6061023A6D70CD3
:105344006DB701112EC606CE22CC2A84093F13055F
:105354008007B537B245014599C113050004853767
:105364002285B13F6244F24005612DB7411122C448
:105374002A84138505FB1375F50F814506C6D137BD
:1053840013554400814513650501653F1375E40019
:105394002244B24081451365150041015DB74111B6
:1053A40022C44AC006C626C21304000B1309800B8C
:1053B40081452285793781450145613781454145DC
:1053C40049379304000885450145FD149D3FE5FCDC
:1053D40005041374F40FE31D24FDB24022449244E7
:1053E40002494101828001119317850122CC0116E3
:1053F40006CE26CA4AC84EC6E1871374F60F63D692
:105404000700850593F5F50F01458D3719463304DB
:10541400C402814497090200938909241949B307F6
:105424009400CE9703C5070085458504193FE3988A
:1054340024FFF2406244D2444249B2490561828069
:10544400797152CC138AF6FF22D426D24AD04ECE9A
:1054540056CA5AC85EC662C466C206D62A8BAE89CC
:10546400B28B1374FA0F814C01499304F00FA94ACB
:10547400194C631F9404B250225492540259F249B5
:10548400624AD24A424BB24B224C924C45618280D2
:10549400B38757037D171377F70FE31B97FEB3D733
:1054A400FB02B3F7570333858C0313F6F70F5A95B2
:1054B4001375F50F6312090263D04C0389EF1306C9
:1054C4000002CE857D140537850C1374F40F55B78F
:1054D40022878547C1B7054913060603DDB70111C5
:1054E40022CC26CA4AC84EC652C406CE2A842E8965
:1054F400B2898144130A8007B387990003C6070061
:1055040009EAF2406244D2444249B249224A05615E
:10551400828022851904CA851374F40FE9356376F1
:105524008A0009091379F90F0144850493F4F40FEF
:10553400E1B7011122CC26CA4AC84EC652C456C28B
:1055440006CE5AC02A89AE84328AB689BA8A014400
:1055540063EC3401F2406244D2444249B249224AE3
:10556400924A024B05618280A6854A850135330B38
:105574008940B3078B0093F7F70F63E6470185046F
:1055840093F4F40FF1B7B3878A0003C50700854588
:105594000504453BF9BF011122CC4AC84EC652C48A
:1055A40006CE26CA2A892E84328AB689636A3401D1
:1055B400F2406244D2444249B249224A056182809F
:1055C400A2854A856533CA8463E6440105041374DD
:1055D400F40FE9BF854501458504A53393F4F40F21
:1055E400E5B799473305F5020D8E634BA6003305E5
:1055F400A64009463345C502AA9513F5F50F8280E6
:1056040001458280411126C28D45AA84014522C4E8
:1056140006C613040004993B7D14854501451374A3
:10562400F40F053375F82685EFE0212713060004EF
:1056340081451375F50F75372244B240268692448E
:105644008D45410169BD011132C606CE22CC26CA60
:10565400313B32460DC6170402001304E4FF9704DD
:1056640002009384C4FF0345842285450504D1398F
:10567400E39B84FEF2406244D24405618280194473
:105684007D14854501451374F40FEFF09FCB6DF83D
:10569400D5B7011122CC26CA32C606CEC13932464C
:1056A400970402009384A4FB170402001304C4FAB1
:1056B40011CE0345E42285450504EFF09FC8E39A23
:1056C40084FEF2406244D24405618280034544234F
:1056D40085450504EFF0FFC6E31A94FEDDB75D715E
:1056E400B28508087018BAC0BEC206D622D436DE07
:1056F400C2C4C6C632C602C802CA02CC02CEEFE099
:10570400C11D2A840808FD3D83C72195254763747C
:10571400F7029385D1B8130600241385C1B4EFD0E2
:1057240031680C08138551D9EFE001162285B25077
:1057340022546161828085072389F194C5BFB7171C
:10574400004003A7870C411106C61367072023A452
:10575400E70C03A7870C8D4513050020136707107A
:1057640023A4E70CEFD05FAC8D4513050010EFD0F8
:10577400BFAB1305200397B0FF1FE780A0AE8145A0
:105784001305E00AEFF0FFBB814513050004EFF0B9
:105794005FBB81451305000BEFF0BFBA81451305CC
:1057A400800CEFF01FBA814513051008EFF07FB9A4
:1057B40081451305F00FEFF0DFB881451305100A9A
:1057C400EFF03FB881451305600AEFF09FB78145BC
:1057D4001305800AEFF0FFB681457D45EFF07FB6F3
:1057E40081451305300DEFF0DFB581450145EFF03C
:1057F4005FB581451305500DEFF0BFB48145130526
:10580400000FEFF01FB481451305900DEFF07FB347
:10581400814513052002EFF0DFB281451305A00D89
:10582400EFF03FB281450945EFF0BFB18145130563
:10583400B00DEFF01FB1814513059004EFF07FB078
:1058440081451305D008EFF0DFAF81455145EFF0F6
:105854005FAF81451305F00AEFF0BFAEEFF03FB440
:10586400B2408145014541016FF05FB0411122C44E
:10587400616426C206C61304146AB714004083A7E1
:10588400440C13972701635807000145B240224492
:105894009244410182807D1405456DD897B0FF1F65
:1058A400E780609BE9BF0DC5D1B77D14054501CCE8
:1058B40097B0FF1FE780209A83A7440C1397270112
:1058C400E34507FE0145B2402244924441018280EF
:1058D400411122C4616426C206C61304146AB714B3
:1058E4000040D9BF011122CC371400408327840C17
:1058F4004AC8096906CE26CA4EC6B3E7270152C470
:105904002324F40C8326840C85648D45C58E2324BE
:10591400D40CAA890965EFD03F918D450565EFD078
:10592400BF900327C40C1305800733672701232680
:10593400E40C97B0FF1FE78000928327C40C29452D
:10594400C58F2326F40C97B0FF1FE780C09009652C
:105954008545EFD07F8D0145B93711C90545F24022
:105964006244D2444249B249224A056182802149B3
:105974000144B7140040056A93F71900B5CB83A717
:10598400840C0504B3E7470123A4F40C93D919004C
:10599400F13D69F5093F79F17D19E31F09FC05889B
:1059A4003717004029CC8327C70C8566D58F23265B
:1059B400F70C6D3D45F5C53D55F13714004083277F
:1059C400840C0567D98F2324F40C4D3541F9056502
:1059D4008545EFD07F850145F93549F18327440C8E
:1059E40013973701E34C07F651353335A00085BFD3
:1059F40083A7C40CB3E7470123A6F40C41BF832754
:105A0400870C8566D58F2324F70C65B737170040BC
:105A14008327870C89668545D58F2324F70C096570
:105A24006FD09F80411122C4371400400327840C97
:105A340026C2896406C6458F2324E40C9145096572
:105A4400EFD08FFE8327C40CB240C58F2326F40CFD
:105A5400224492444101828079714AD02A891305F3
:105A6400200306D622D426D24ECE97A0FF1FE7806D
:105A7400807E693F514597A0FF1FE780C07D0145A7
:105A84001D3509C90545B250225492540259F249B0
:105A9400456182802A84A144B7190040C13B7DF14D
:105AA40019356DF183A7490C05801374F40F13970E
:105AB40037016354070013640408FD14E5F07D33D3
:105AC40071F1D53361F1B717004083A7470CEFF0AC
:105AD400FFD94DF9C93B2AC655F5A93732452300EC
