:040000006F20C0109D
:100004000000000000000000900000201C020020FE
:10001400A9BDF9F5940000200000000000000000D4
:10002400960000209800002000000000000000005E
:100034009A000020000000009C0000200000000046
:100044009E000020A000002006030020A400002041
:10005400A6000020A80000202C030020AC000020F3
:10006400AE000020B0000020B2000020B400002048
:1000740012030020B8000020BA000020BC000020B9
:10008400BE000020C0000020C2000020C4000020E8
:1000940001A001A001A001A001A001A001A001A054
:1000A40001A001A001A001A001A001A001A001A044
:1000B40001A001A001A001A001A001A001A001A034
:1000C40001A001A001A0B71700409306700523808A
:1000D400D704130780FA2380E7040100010003C654
:1000E400B7041376F60DA385C7042380070413769B
:1000F400050251CE03C6A700118A1DE22380D7044E
:100104002380E7040100010003C7A7001367470029
:100114002385E7009307004B01000100FD17EDFF65
:10012400B7170040930670052380D704130780FA9D
:100134002380E704010001007D892394A7000100C6
:10014400010001000100238007042380D7042380D9
:10015400E70401000100372700408546A303D78048
:1001640023800704B7170040130770052380E704B2
:10017400130780FA2380E7040100010003C7B704D2
:1001840013670708A385E704238007048280137696
:10019400050425CA03C6A700418A1DE22380D704AB
:1001A4002380E7040100010003C7A70013670701C8
:1001B4002385E7009307007D01000100FD17EDFF93
:1001C400B7170040930670052380D704130780FAFD
:1001D4002380E704010001007D891365050423944D
:1001E400A70001000100010001002380070423800F
:1001F400D7042380E7040100010037270040894623
:10020400B1BF2380D7042380E7040100010003D792
:1002140087001367070C2394E700A9B781460146BA
:1002240081451145E92AB71700401307700523805B
:10023400E704130780FA2380E704010001007D57D7
:100244002396E70203C76704136717002383E704B1
:100254002380070401A0BD473305F50201007D1585
:1002640075FD8280411122C426C206C6AA840144B7
:1002740063179400B24022449244410182800504F1
:100284001305803E4204C13F4180DDB7411106C6DB
:1002940085660146814505459D227DF981460146D5
:1002A40081451145A92AB71700401307700523801B
:1002B400E704130780FA2380E704010001007D5757
:1002C4002396E70203C76704136717002383E70431
:1002D4002380070401A0B71700401307700523808B
:1002E400E704130780FA2380E704010001007D5727
:1002F4002396E70203C76704136717002383E70401
:100304002380070401A0976000E0E780C0CD73005C
:100314002030B7170040130700032388E7028547FE
:10032400175700002328F79473002030976000E0EB
:10033400E780803173002030411106C6EF00E0727F
:10034400F5BF2303048015472303E480010023023F
:10035400A480828083076480E3CE07FE23030480A5
:10036400828083076480E3CE07FE03454480828055
:1003740083076480E3CE07FE2302A48082804111B8
:1003840026C44AC24EC006C61377F50BAD47AA89E8
:100394002E8995446306F70019456537653F8D44FA
:1003A4004E854537FD59FD1463983401B240A2448B
:1003B4001249824941018280135509011375F50FD1
:1003C400453F2209CDB7011126CC06CEB70408005B
:1003D40051371545BD37713769372AC6A53F3245B0
:1003E4009377150089EB136515001375F50FF2402B
:1003F400E24405618280FD14E9FC0145CDBF3971F9
:1004040026DC4ADA4ED852D656D45AD25ED006DE0C
:1004140062CE66CCB7E700E07D5783AA070022C608
:1004240003AA470023A0E71823A2E718B717004040
:10043400130770052380E704130780FA2380E70479
:1004440083C74704930B75FFB684E20793FBFB0F46
:100454008546AA892E8B328937240040E1870157CB
:1004640063FA76016308D500894613070002631313
:10047400D5000157D98F93F7F70FB71C004023829B
:10048400FC0411472303E4801305F00F5D3D094C80
:10049400D135636D7C11B7050700DA9537870700FE
:1004A400795563F2E504B3879500636EF702370B61
:1004B4000800A94733EB65016399F90689E481448F
:1004C400513D26850DA0DA850945553D05090345AD
:1004D400F9FFFD14050B693D81C49377FB0FFDF70C
:1004E400DD3569FD7D55B71700401307700523807E
:1004F400E704130780FA2380E70403C74704418B0A
:100504002382E704F250B7E700E023A0571123A2A7
:100514004711E25432445259C259325AA25A125B18
:10052400825B724CE24C21618280A5476395F90697
:1005340085691309F00FB3069900B3742B01B694BF
:100544001349F9FFB3749900856B33796901416BE1
:100554009387F9FFB3F7270199E363FC340193D937
:100564004900C147E3E637FF99BF0569C1697D19B1
:10057400D9B71305800D63886901130500026384EC
:10058400790113051008CA85DD3B353D21DD4E99FF
:10059400B3843441D9B7DA852D45D533CA94E30001
:1005A40099F205097D3BA30FA9FED5BF9387F9FFF7
:1005B40093F7F70F6361FC0C83C71C04130730081F
:1005C400631FF70437070800636BEB04B3079B0052
:1005D400B706100063F5D704334BEB0089476393E8
:1005E400F9068980D549E38C04ECDA850945413B59
:1005F40011090327C9FF91472320E480030764807E
:10060400E34E07FE23033481FD17EDFBFD14110BAC
:1006140081C49377FB0FE9FF7D3371F5E1B5B7171B
:10062400004003C75704B70708001377070219E30C
:10063400B78707007955E378FBEA33079B00E3FFAC
:10064400E7F855B58547E382F9F2DA852D45053B90
:100654009389F4FFE38504E6293393F7390091EB9A
:10066400832604800327090093074900E39AE6E4FC
:100674003E89CE84F1BFB5476396F9001305900B0C
:10068400C93135BDB1471305B00AE38BF9FE99476B
:100694006391F904B7050800B365BB002D45C53166
:1006A40081448D4BA1497539639674018327048075
:1006B4002320F9008504E39834FF8327048013176B
:1006C4002B01635507002312F900D5BB2322F9003F
:1006D400FDB39D476399F90281451305B004453183
:1006E400BD442320090023220900FD599D3993F7B5
:1006F4007400CA9703C70700FD14398D2380A7002F
:10070400E39634FF6DBBA1476392F9046D398144CC
:10071400630D0B008D479304C0036308FB0093042F
:10072400000563048B01930440041375C507E308B3
:1007340095D81945393139390545213126850D3981
:1007440009453D314931E31C05D669BB914763999D
:10075400F90013056006F536F53E130590090DB74B
:10076400E38F09D4F154A9BB176700000347F716B8
:10077400914763E2E7149767000083C76718918B7A
:10078400639B0712976700009387C7F790439766A8
:10079400000083C676F3814763CED706011122CCCD
:1007A40017640000130444F2584426CA06CE97671F
:1007B400000083C7D7F697640000938424F563652B
:1007C400F70C6800974001E0E780A0ADFD57630A8D
:1007D400F50C32479767000083C777F463F6E70A9E
:1007E4005844634107048D2132475C446373F70026
:1007F400BA8717670000034797F2998F3E9583875E
:10080400440163C60702B707C0A86362F502B707CD
:10081400405771A01397170032970357070041EF11
:1008240085079DBF03874401635507061D8D176423
:1008340000001304240A1C4C81CF9767000093879F
:10084400670D94433707CDFF7D179C46F98F9CC6EF
:1008540019E13705C0A8DC50829719E91C4C8DC7F3
:1008640097A001E0E78060FF979001E0E780004CEB
:100874001C4C99CB976700009387C7099843B70628
:1008840033001C47D58F1CC7F2406244D244056133
:100894008280E37DF5F83707C0A8B307F7403E959B
:1008A40079B75C44E3C207FE452617670000034797
:1008B40017E75C4499B7828019CD91CD09CE814761
:1008C4003387F500834607003307F50085072300C7
:1008D400D700E397C7FE828019C991C909CA910557
:1008E40083A7C5FF11057D16232EF5FEC5BF8280A3
:1008F400854715C18DC105C28147B306F50033870D
:10090400F50083C60600034707006398E6008507E1
:10091400E315F6FE85473E8582808147EDBF7971F8
:1009240097670000938747DE22D4804306D626D2F9
:100934004AD04ECE52CC56CA5AC85EC67DC08144F7
:10094400176B0000130BCBE017690000130909DCD7
:10095400176A0000130A4AD7B709C0A8B70A405754
:100964008357240085E35C4481EC17670000232D42
:10097400F7D8832BC4002285EF1080575E8461A0D2
:10098400DCC4C5BF83270B0082971C44636FF50248
:100994003307F540635E07020327490219CF0307B3
:1009A4004901635F07003387A7408327CA00637642
:1009B400F7009767000023AFE7D0A2844044A1A0CA
:1009C4000147E384A7FECE97F9BF898F63DE07064C
:1009D4009767000023A007D0835524000345040033
:1009E400977000E0E78040245C405844B1C7144449
:1009F400B6978306490163C5060063E33701D697BA
:100A04001CC4A2843A8429FC976700009387C7CB4F
:100A1400DC4711476376F704F11717670000232BAF
:100A2400F7CAB250225492540259F249624AD24A45
:100A3400424BB24B4561828091E49767000023A545
:100A4400E7CC05BFD8C435B7032749023DD70327F0
:100A5400CA00E3F4E7F617670000232DF7C6B1BF19
:100A64009767000023A807C66DBF411122C417640D
:100A740000001304A4C71C4006C626C291C782976F
:100A84009767000023A407C65C4091C382971C406B
:100A9400639E07169767000083C717E4858BF9CF19
:100AA40097670000A38A07E2176700000347F7E28D
:100AB400914763FDE700EF00B0569767000083C7D6
:100AC400D7E1F5178A07A2979C438297976700009E
:100AD400938747C39843176600000346F6BEBE8457
:100AE4009767000083C747BE93961700BA9683D6CC
:100AF4000600D1CE9767000083C707BD63E3C70A2A
:100B040097670000238207BC1C4063910710976716
:100B1400000083C7B7DC91CF9767000083C7F7DB7A
:100B240089EB97670000A38B07DA979001E0E780D1
:100B3400E05E976700009387A7C19C43E1CBFD5714
:100B4400176700002328F7B8D93B976700009387FD
:100B5400E7BBDC5391C3093997670000938707BF4C
:100B64009C43CDC78297976700009387E7B59C4B5A
:100B74003E959767000023A1A7B649A89767000090
:100B840083C707D8918BB9D3EF10601A81B7850753
:100B940093F7F70F976600002388F6B2E3E2C7F4F1
:100BA40091BF86073E97976700009387E7B3835505
:100BB40007009C4323100700176500000345C5B0D8
:100BC40013172500BA979C4382979767000083C741
:100BD400A7AF139717009C40BA9703D70700598D06
:100BE4002390A7009767000083C707AE91C78507C6
:100BF40017670000230AF7AC176700000347C7AC68
:100C04009767000083C757ACE37CF7EEB2402244F9
:100C1400924441018280AD6737C70040BD07232657
:100C2400F7200F100000976700009387E7A9884F0B
:100C340083278726BD66BD0693C7F7FF99836A0598
:100C44002326D7205D8D82804111B7170040985F1D
:100C54003AC6945F3247E39CE6FE32454101828006
:100C64000327850F19E3054582808347C50093F761
:100C7400C70F2306F500034687008356C700931564
:100C84008601E18563D8050A137816008355E518B3
:100C94006302080613E617002306C50063F8D502AD
:100CA4000348A502A30AB50017660000034616A769
:100CB4006376C80093E717012306F5008D8E23168B
:100CC400D7008547A30CF50001458280104309CE67
:100CD4008345A50217660000034656A463F6C500C3
:100CE40093E717012306F500A30AD5008947A30457
:100CF400F700C1BF13E8270023060501E3F5D5F685
:100D04008D8E130810F813661600A304070123043C
:100D1400C7002316D7008346A502176700000347C0
:100D2400F79F63F6E60093E727012306F500A30A7D
:100D3400B50041BF054893E527006314060193E518
:100D440017002306B500A30AD5008947A304F700BA
:100D54001C43A5DB0347A5029767000083C7179CC4
:100D6400E371F7F693E505012306B50099BF97678C
:100D740000009387A7B29C43411122C406C6858B09
:100D84002A84CDEB4165130525F5974001E0E78002
:100D9400002A4DC18347A5002315F50083270410BD
:100DA400A5E72320A4102322A4108547231CF402C2
:100DB400232005008347640154412316F5000347AB
:100DC400D4002304E500176700001307A7B0184FE9
:100DD4001385170215811C437D151375F50F9CC2ED
:100DE4005C43DCC21C479CC65C47DCC61C4B9CCAEB
:100DF4005C4BDCCA1C4F9CCE5C4FDCCE19CD938679
:100E0400060213070702C1BF8327441088C3835710
:100E140084032322A410850751BF9767000083D75A
:100E240067B8850717670000231EF7B6B24022444F
:100E3400410182808347C40023090400054593C708
:100E440047002306F400DDB78347E50193F7E70F76
:100E540091CB014582800145B2402244924402492B
:100E6400410182808347F501EDF78346250103475D
:100E7400C50089CA0346A5029767000083C7578A3D
:100E84006367F60093770701E9D7814789C6418BE9
:100E94008357C51801C703570519BA97DDDB1767D0
:100EA40000000347E78741111316870106C622C4D1
:100EB40026C24AC06186635006069387C71313D4BB
:100EC4005700976700009387E7AB83A6870897646A
:100ED400000083C484857D59B705C0A883A746084C
:100EE40003D78607635B06043387E74063732701F0
:100EF4003A899442E5F697670000938767859C4397
:100F04008297E36AA9F43305A94026943334850013
:100F14001345140091B7058B9387C71209CB8A0731
:100F24001384F7039307D0073354F40259BF860799
:100F34001384F7019307D003C5BFE3F7E7FAAE972D
:100F440065B7176600001306E6A303278608630443
:100F54000746797126D2975400009384247B8388B2
:100F640044018325060906D622D44AD04ECE52CC5B
:100F740056CA5AC85EC601457D583703C0A88326A1
:100F840047088357870763D20812B387F64063F58F
:100F94000701BA853E880545184375F309C5976767
:100FA400000023A9B7A60324060985691759000080
:100FB4001309097A370AC0A8B70A4057054B938921
:100FC400B94783270900832B440882976370752FE0
:100FD400035784079757000083C72775B38BAB402B
:100FE400BA9763EE771F83574403A30E0400228548
:100FF4008507231AF40283470412C5CF8D21228565
:10100400973001E0E780605151E583864401230570
:101014000402832744080355840763DE0608B38962
:10102400A74003270408232E3407BA9763C9060090
:10103400B706C0A863E5D700B7064057B6978346FE
:10104400B4002322F4088547639FF60683572407D8
:10105400035604036369F606034604016315D606C2
:101064008326840FADE283268409B1EE0346F4009F
:101074009306000C6319D604B387E7020327840898
:10108400B3D7E702175700000347176A0507BA9753
:10109400231CF406B250225492540259F249624A73
:1010A400D24A424BB24B45618280E3F0F6EE9A9607
:1010B400E9BD1926A9B7E3F4A7F6B709C0A8BE99F4
:1010C400B389A940B9BF83270900829797570000C5
:1010D40083C70765139787016187635807083385BA
:1010E400A94079C1832604086370D50C63550708A9
:1010F4001605B717004083C7F702E207E18763C309
:1011040007004115175700001307877E1443B5677E
:10111400BD07DCC60F1000001C4306050967E8D3B1
:1011240098C7130700F8975600002387E67A3D67AF
:101134003D07D8C7979001E0E78000FB979001E056
:10114400E780800B0347B400854781456313F704A8
:10115400178501E0130525DA977000E0E78040E782
:10116400930700FD2307F40035B7E3FAA9F6B706A1
:10117400C0A8B699ADB7858B99C79307803E330550
:10118400F5021581BDB79307D0033305F502058138
:101194008DB7175501E013056590977000E0E7805F
:1011A40020E3930710FC7DBF0347B400854703A3E6
:1011B40004036317F7009545E30E03EC154529A0D6
:1011C400E30A03EC954519452254B250925402594E
:1011D400F249624AD24A424BB24B4561028363D61A
:1011E4000B068357440322858507231AF402834799
:1011F4000412B1CBAD242285973001E0E780E031C1
:101204000327040883274408BA97038744016345E6
:10121400070063E34701D6972322F4088347B40009
:10122400639767012285977001E0E78080778347A1
:10123400D40185458507A30EF4009C58E38307D8A1
:1012440015458297BDBB8D2A7DB783572403175755
:1012540000000347E74C93168701E1868E0763D7A6
:1012640006021307204EB387E7029583E3F477E37E
:10127400A1452285973001E0E780A0212302A40242
:1012840003A304038945E31B03F229B5058B11C7A6
:1012940013078002B387E702D1BF05671307B74777
:1012A400B387E702938707049D83C9B78357240351
:1012B400175700000347C74693168701E186B30B0F
:1012C40075418E0763D0060A1307204EB387E702E1
:1012D400958363F2FB0C83270900829783574403A9
:1012E400AA8B22858507231AF40283470412C1CBF3
:1012F400BD222285973001E0E7802022E31C05D837
:101304000327040883274408BA97038744016345E5
:10131400070063E34701D6972322F4088347D401E7
:1013240013F7070F39CF2285973001E0E780A0D665
:10133400A30E040083274408E3FFFBF88347B400AB
:10134400639567050357240783570403E3FBE7C644
:101354002285977001E0E780C0649C58E38307C648
:101364008D45F9BD058B11C713078002B387E702CA
:101374008DB7B3873703938707049D8399BF2D28BF
:101384008DBF8507A30EF40075B79C58E38B07C285
:101394008D4519457DB5E3CF0BCEA1452285973008
:1013A40001E0E780000F2302A40203A30403E30384
:1013B40003CE914521B58280797126D206D622D4F6
:1013C4004AD04ECE52CC56CA5AC85EC6834785020E
:1013D40003447511AA843E941374F40F93074002D6
:1013E40063F687001304B4FD1374F40F03AA841185
:1013F40083AAC411A38B841022865285D685973084
:1014040002E0E780E0FE058915E503CBD41001492D
:101414008149337B6403930B50024A865285D685F7
:10142400973002E0E780C0FC058915C56391690324
:101434001374F90F238B8410B2502254925402591E
:10144400F249624AD24A424BB24B456182808509D5
:10145400E20993D989410509E31179FDE1BF8327A5
:10146400C50803564503797193D60701BD8EC2069C
:10147400C182358E1357764093575640898B058B1E
:101484005D8F93573640918B5D8F93571640A18B98
:101494005D8F93171600C18B5D8F9317360093F7FA
:1014A40007025D8F931756009355860093F7070440
:1014B4001E065D8F1376F60F518F93D7554013D6C2
:1014C4003540118A898BD18F13D67540D18F13D6AD
:1014D4001540218AD18F13961500418AD18F139616
:1014E400350013760602D18F139655001376060441
:1014F4009E05D18F93F5F50FCD8FA20745465D8FDD
:101504003307C70222D42A8426D252CC56CA032ACD
:101514008411832AC4115AC806D6369742074183D8
:1015240093577740135557400989858BC98F1355B5
:1015340037401189C98F135517402189C98F131555
:1015440017004189C98F1315370013750502C98F18
:101554001315570093558700137505041E07C98F8B
:101564001377F70FD98F13D5354013D75540118909
:10157400098B498F13D57540498F13D5154021899F
:10158400498F139515004189498F139535001375BB
:101594000502498F13955500137505049E05498F5F
:1015A40093F5F50F4D8F2207D98FB387C7024AD021
:1015B4004ECE5EC662C4B697C207C18313D77740C6
:1015C40013D557400989058B498F13D537401189A5
:1015D400498F13D517402189498F139517004189E5
:1015E400498F1395370013750502498F13955700DA
:1015F40093D58700137505049E07498F93F7F70F5A
:10160400D98F13D5354013D755401189098B498F8C
:1016140013D57540498F13D515402189498F1395EA
:1016240015004189498F1395350013750502498FBB
:1016340013955500137505049E05498F93F5F50F11
:101644004D8F2207D98FB387C702130650025285E4
:10165400D685B697BD8E93940601C18033F6C40235
:10166400137BF60F973002E0E78080D805890DEDF3
:101674008347D41001498149B3849702130C500263
:10168400C1804A865285D685973002E0E78040D6ED
:101694000589937BF90F11C563863403850993F992
:1016A400F90F0509E31F89FD230B6411B25022547D
:1016B40092540259F249624AD24A424BB24B224CEA
:1016C400456182805E8BCDB70111975700009387E7
:1016D400672B22CC03A4C70A26CA06CE2AC42EC668
:1016E400854419E40145F2406244D2440561828094
:1016F40003471400834791006304F7000044D5B7FF
:1017040019469305A10013052400EFF06F9EE3171B
:1017140095FE0545C9BF1757000013072719144341
:10172400411122C69C5E4AC226C49983858B3A84A1
:101734001759000013094917C9C39C5E9754000048
:101744009384441993F7F7F99CDE9757000083C7F5
:10175400671893F7070499CB97570000938747FFBF
:101764009C4382979757000023AEA71685471757C7
:101774000000A303F71683C7440093F7070491EF0F
:10178400975700009387C7169C43D844F8D3930710
:1017940000FC175700002301F71483C764001307E4
:1017A4000008631CF700832709009C439983858BF9
:1017B400ADE397570000238207121C40985F118302
:1017C400058B09CB985F3D9B98DF05479756000032
:1017D4002384E610985F1D83058B11CB985F1377E4
:1017E400F7F798DF8547175700002307F70E83277D
:1017F4000900D8430583058B19C7D843759BD8C303
:10180400D843799BD8C33244A2441249410173009E
:101814002030930700FC175700002300F70C71BF1A
:10182400175700001307070B83470700858B89EBC5
:1018340083471700858B89E783474700858BEDD75E
:101844008280175700001307670614439C5E958334
:10185400858BC5EF09C69C5ABD832300F600C5C914
:1018640083471500CDC7411106C61756000003462D
:10187400C6069306000C6304D602975700009387AC
:10188400670583C5670097570000938727E89C5B2B
:101894001305300882970945B240410182803E9584
:1018A40083479500854613F6F706630AD6009757D3
:1018B40000009387A7E59C5B9305D00FD1BFE20797
:1018C400E1870945E3CA07FC1C43985B4607935725
:1018D40067016359070293E707C01387970F42070D
:1018E40041839306201F0145E3E8E6FA138761A0CC
:1018F4000317070009C7BA970947B3C7E702239339
:10190400F1A059BFC207C187C9BF054582801C43E6
:10191400985B4607935767016359070293E707C02B
:101924001387970F420741839306201F014563EDF8
:10193400E600138761A00317070009C7BA97094790
:10194400B3C7E7022393F1A08280C207C187C9BF4E
:1019540049E5975700009387A7F99443411122C49E
:1019640006C62E873E84FC52FDFF3A85B2859780D9
:1019740001E0E780205697570000938727F39C43A4
:10198400B70680009843558F98C3D857719BD8D712
:101994001C40094798C3B7F700E003A707D16D9B24
:1019A40023A8E7D003A707D15D9B23A8E7D0730042
:1019B4005010175700001307E7F183472700858B62
:1019C40089EB83473700858B89E783474700858BFD
:1019D400EDD7B2402244410182808D476310F50463
:1019E40097570000938787EC9C43B7068000984381
:1019F400558F98C3D857719BD8D717570000130732
:101A040067ED83472700858BBDEF83473700858BC0
:101A1400BDEB83474700858BEDD782808547E31E66
:101A2400F5FC975700009387A7EC944335673D076F
:101A3400D8C60F10000017570000130727E71443F8
:101A44000946984231830D8B6313C702984393066A
:101A5400E04374D3984389671CC7930700F89756EB
:101A64000000238BF6E6BD67BD075CC779B79842D3
:101A7400944331830D8B09E713076019F8D2D9BF5A
:101A84001307E01BE5BF82805D712AC62EC486C69B
:101A9400978001E0E7804065978001E0E780C075AA
:101AA40097580000938888E083A708001753000024
:101AB400130343E63706330023A40700984B370E7D
:101AC400FCFF370F04001367F70398CB9843914F3B
:101AD4007D1E1377F7E798C398438542930E8002DF
:101AE4001377F7E71367071098C38326030032457B
:101AF4009846518F98C617570000130767DF18439D
:101B04009306900D014634CB1377F51FE84FF57615
:101B1400FD16137505E0598DE8CF9843758F98C36A
:101B2400A245814703A70800032803009376F60F14
:101B3400231C0704231007060325C80275992326CE
:101B4400A802032807001375F607137808F833650D
:101B5400A80008C348533365E50148D303558705F6
:101B6400E3FEAFFE48533375C50148D30357070658
:101B7400280832951377F70F2300E50019EF13D7E0
:101B840036002E97034507009D8AB396D200850739
:101B9400C98E93F7F70F2300D7000506E314D6F98F
:101BA400854611488548130380026363F80401469F
:101BB400814728083295034505001377F60F63E142
:101BC400A602135537002E95034E05001D8B33973F
:101BD400E80085073367C70193F7F70F2300E50093
:101BE4000506E31866FC850693F6F60FE39F06FBED
:101BF400B64061618280175700001307A7CB834664
:101C0400B7019757000083C7B7CFB69793F7F70F7D
:101C1400FD4663EAF6044C4B97560000A38CF6C8C5
:101C24009757000083C717C905473317F70097561E
:101C34000000A387F6CC6D8F1DEF9756000083C676
:101C440076CCB3F6D70213050002814733D6F500EC
:101C5400058A13F8F70F09CE6399E6009757000039
:101C6400A38A07C5828081177DB705071377F70F0D
:101C74008507E39DA7FC828097570000938747ADB3
:101C84009C43011122CC4EC606CE26CA4AC852C471
:101C940056C28297975700009387C7C580478149EA
:101CA4006305A406BE8497570000938727A603877D
:101CB40047013E8963550706018D13545500975714
:101CC400000083C7C7C09379F501636DF402370A36
:101CD400C0A8B70A405705379C449756000083C6EE
:101CE40006BF139756003E9783074901158C63C5B9
:101CF40007006363470156979757000023A0E7C086
:101D0400E37BD4FC1604B3693401F24062444E858B
:101D1400D2444249B249224A924A05618280E37D13
:101D240085F8B707C0A833848740229579B79757B9
:101D340000009387E7A19C43411122C406C626C232
:101D44008297975700009387E7BA80476309A406F0
:101D5400BE84975700009387679B8387470163D8A6
:101D64000704018D135455009757000083C727B605
:101D74006367F404493598449757000083C727B52F
:101D84009396570036971D8C9756000023A8E6B605
:101D9400E372F4FE2244B240924417550000034516
:101DA40075B18145410117B301E067006394E37A9B
:101DB40085FAB707C0A833848740229565B7B24037
:101DC400224492444101828097570000938787B44C
:101DD4009843B75702009387079F832607091396F2
:101DE4005600635806008326070913966600634469
:101DF4000600FD17FDF3828021670507AA87639714
:101E0400E50003C7419F014565E382800145E5C3C1
:101E1400F9CD8D07C207C183F19BC207C1831307A4
:101E24004003636FF70217570000130767B40843B2
:101E340017570000130747B314436398A6021757B4
:101E440000001307A78C185B014555C34111C20755
:101E540006C60545DD8D0297B240014541018280E9
:101E640017570000130787B0D9B7035765003DEB38
:101E7400035745006368F706B306F7402146175831
:101E84000000130828AF637AD602832805000326CE
:101E94000800938687001D8FAA9661172392E60097
:101EA40023A016012393060014C1130786FF2312EF
:101EB400F5009756000023AFE6AA21672313B50067
:101EC40005076397E50003C7419F7D17238AE19EB9
:101ED400832508002105B387F54017570000232BFD
:101EE400F7A88280084191BF014585F782808280EE
:101EF4000DC1975700009387A7A703A3070097571F
:101F04000000938767A683A8070001479A8763E3C5
:101F14001701828003A807006369F50A6367A80AAA
:101F240093868700E367D5FE03D66700A16685061E
:101F34006317D60083C6419F8506238AD19E975591
:101F44000000938525A3944103D6470023930700FB
:101F5400B29617550000232FD5A0638A6702175540
:101F640000001305A5A008416303F50203556700AB
:101F740019ED8357470023200701A1063E96210649
:101F84009757000023A8D79E2312C700BA87984307
:101F9400E30117F9975600009386469D9442E30A9D
:101FA400D7F683566700B5F683D647000356470035
:101FB4001843A106B29698C32392D7009C41A10767
:101FC400175700002328F79A82803E87C28781B77B
:101FD4000111975700009387E79A22CC03A4470B7B
:101FE40026CA4AC84EC606CEAA84130925008549C6
:101FF40015C083C7140003473400858B6304F700BE
:10200400405CFDB71946930544004A85EFE05F8EB6
:10201400E31835FF2285F2406244D2444249B24972
:10202400056182804111975700009387A79522C4C8
:1020340003A4470B26C24AC006C6930425000549DB
:1020440001E82285B240224492440249410182803F
:10205400A6851305A402972002E0E780C0ECE30202
:1020640025FF405CF1BF411197570000938787918A
:1020740022C403A4470B26C24AC006C69304250003
:10208400054901E82285B2402244924402494101B3
:102094008280A6851305A401972002E0E780A0E8CA
:1020A400E30225FF405CF1BF0111975700009387BD
:1020B400678D22CC03A4470B26CA4AC806CE2AC47D
:1020C4002EC6B284054919E001453DA0034791009D
:1020D400834734006318F702194693054400130537
:1020E400A100EFE0FF80631F2501A6851305A4026C
:1020F400972002E0E78020E3F2406244D244424960
:0821040005618280405CC1B757
:10210C00971100209381C1DA176100201301C1EEF1
:10211C001305400097E5FF1F938505EE1706002079
:10212C00130606FE63FAC5008322050023A05500A2
:10213C0011059105E3EAC5FE175502001305457319
:10214C00970500209385C5FB1386018D63FAC500A6
:10215C008322050023A0550011059105E3EAC5FE75
:10216C001385018D97550020938545906377B500B5
:10217C00232005001105E36DB5FEFD42739002BCF2
:10218C008D42739042809302800873A0023097E2D4
:10219C00FF1F938262E693E23200739052309752A3
:1021AC0000009382222273901234730020303D433E
:1021BC002A876373C3029377F700BDEFADE593767F
:1021CC0006FF3D8ABA960CC34CC30CC74CC74107DB
:1021DC00E36BD7FE11E28280B306C3408A069702F6
:1021EC00000096966780A6002307B700A306B700E9
:1021FC002306B700A305B7002305B700A304B70057
:10220C002304B700A303B7002303B700A302B7004E
:10221C002302B700A301B7002301B700A300B70046
:10222C002300B700828093F5F50F93968500D58D2A
:10223C0093960501D58D61B7939627009702000000
:10224C0096968682E78086FA9680C1171D8F3E96F9
:10225C00E374C3F8A5B782803D897D15954763EE7D
:10226C00A70E17470200130767100A053A951C4181
:10227C00011106CEBA9782879705002093854543B6
:10228C000545EF80D07F1745020013056513EF203D
:10229C00C27311A803C725008D471745020013050B
:1022AC002513E306F7FEF2400561828003C7250083
:1022BC009547E31AF7FE03D5A500239CA18083C79D
:1022CC00018399E3EFE0216C8547238AF18C174554
:1022DC0002001305E51065BF03C725008D47E31405
:1022EC00F7FC174502001305651055B783C7250089
:1022FC001147174502001305E5106384E7041947DD
:10230C00639AE70283C56500174502001305451162
:10231C00238A018CEF202257F957239CF1808547A3
:10232C001306F100854513055030A307F100EFE0CB
:10233C00813995BF1547E394E7FE17450200130555
:10234C00E50FEF208268E1BF83C525001745020029
:10235C0013054510EF202253B9B7828001112305D4
:10236C00A1003400214685450D4506CE23140100FD
:10237C00A305010002C6EF10905EF2400561828059
:10238C00011106CE22CC3A883E87B1E28D67938745
:10239C00D7A42A8EAE88328383460800631EF600CB
:1023AC008947639BF50085473544639DF600834759
:1023BC000700898BA38BF18C1A86C6857285EF205A
:1023CC0000252A842285F24062440561828085477B
:1023DC006396F600C286EF202029E5B789470144B1
:1023EC00E392F6FE1306F100854513055030A30762
:1023FC000100EFE0412DF9B701119397050122CCB3
:10240C0006CE26CAC1872E8463DC070003C5A181D2
:10241C00EF50804119C1EF50803A2165218D3DA0CC
:10242C0093F7150013C5150095E393F7450085C781
:10243C0083C7A1811307803E814613060005C14561
:10244C0003D58181EFD0317313454400F2406244CF
:10245C00D2440561828093F785009DC3014789466C
:10246C000946814503D58181EFE02154AA851745A2
:10247C000200130525F1EF20024113458400F9B742
:10248C0093F70501C1CF6C0013055030A305010073
:10249C00EFE061110347C10085476319F70013068C
:1024AC00B100854513055030EFE0E1219704002081
:1024BC0093840420A6850545EF80705C31E91305F3
:1024CC00C002854603C651808545EF30C04283C7A4
:1024DC00540003D58181FD17A38AF18CC167F917CC
:1024EC006307F500EFE0214AF957239CF1808347FD
:1024FC00C1000547639BE7001306B1008545130532
:10250C005030A305F100EFE0011C134504013DBF61
:10251C0083C7518D8507A382F180D1BF93F7250026
:10252C00B9C703C5B1811D3D83C7B181850793F739
:10253C00F70F7147636BF7020145A38DF180393DAD
:10254C00B70702009387072074001146854505459F
:10255C003EC6EF10D0401306007D894503C5A1810E
:10256C00EF50C07213452400D5B59147F1B793973E
:10257C00350163DC0700938701829443114685453E
:10258C000545EF10D03D056551BD9397250163DCE2
:10259C0007009387C1819443214685450D45EF1073
:1025AC00103C0965A5BD9397150163DC0700938763
:1025BC0041829443054685450945EF10503A116513
:1025CC00B1BD93F7050299CF17460200130606DD3D
:1025DC0081450145EF30605C8547238BF18C1345B9
:1025EC000402ADB593F705040145E38107E6938733
:1025FC00018D9043814503D58181EFD0413713453F
:10260C000404A9B501118D6585461306F100938567
:10261C0015802D4506CE97E0FF1FE780C0DD834770
:10262C00F10019476373F7008547F240A382F180EC
:10263C0005618280797122D40D6406D6A307A100AE
:10264C001304148085461306F100A285294597E0F2
:10265C00FF1FE78040DA85461306F101A2852D4560
:10266C0097E0FF1FE78020D90347F1018347F10072
:10267C00E31AF7FCB2502254456182800111170510
:10268C0000001305A5D706CE22CC26CAEF50B023E6
:10269C009384A18105442380A40070008545130513
:1026AC00503023068100EFE00102138681809D45A6
:1026BC0013056030EFE0210117060020130646A534
:1026CC00D54513057030EFE00100174602001306E4
:1026DC00A6CDD5450145EF90E05D89477000914549
:1026EC00130570402305F10023048100A30481002D
:1026FC00A305810002C6EFC0D13430008545130517
:10270C000040EFC0113413069100854513051040AD
:10271C00EFC031331306A100854513052040EFC0EF
:10272C0051321306B100854513055040EFC071318D
:10273C00A9477000854505452306F100EF10E03DE3
:10274C00EF109059970500209385859B1385018187
:10275C00EF10B01F03C504008545EF50E04BF2406D
:10276C006244D24405618280411106C6EF20702A72
:10277C0083C771948DC7A3830194EF20003E05C1DC
:10278C00975702009387C7099C431D4783C72700AF
:10279C006384E7046362F7021147638DE702938752
:1027AC00C18D9C431307200385076369F702B24070
:1027BC0023AEF18C410182805947638BE700694756
:1027CC00E39FE7FC8547172700202329F734C1BF77
:1027DC008947D5BF8D47C5BF9147F5B7B24023AEEA
:1027EC00018C41016F40B058411106C683C7C19698
:1027FC0003C7418E6307F7042382F18E174602004C
:10280C001306C6F889E7174602001306E6CA814587
:10281C002145EF30201803C7C19683C7418D63044F
:10282C00F7002389E18231CB03C7718ED98FB1C7F1
:10283C0083C721831305800391C3694505468145F0
:10284C00B1A083C7418D03C7518E6309F708A382DA
:10285C00F18EA9C3174602001306C6F38145130572
:10286C006002EF30201383C7C19603C7418D638488
:10287C00E7002389F18291C345FF014681456945F3
:10288C00EF30C0270146814513058003B24041015A
:10289C006F30C02617460200130606C28145130589
:1028AC006002EF30200F03C7618D8547E31DF7FAF7
:1028BC0017460200130686C081450145238B018C07
:1028CC0023A8018CEF30602D05661306062C9305AA
:1028DC00000203C51183EF50603B71B783C7718E43
:1028EC0003C7618E6307F7022383F18E174602003C
:1028FC001306C6EA89E7174602001306A6BC8145F3
:10290C0013059002EF30000983C7C19603C7718E7F
:10291C00B9BFB24041018280411106C6EF10B076BA
:10292C0083C7618D99E3EF10307A37170040832706
:10293C00470C83C6C193B98393C71700858B6387F4
:10294C00F6028327470C1167F98F13B71700238EF4
:10295C00E1928DE317470200130787F291461306A5
:10296C001005814513058004EF300008B240410189
:10297C006F10B06A9146130610058145130580044B
:10298C00EF30C00CE5B703C7C19685476314F70059
:10299C006F40F01A828015456F00B0174111939665
:1029AC002500AA852D4506C697E0FF1FE780A0A449
:1029BC00B240014541018280411122C426C24AC065
:1029CC002A842E89B284AA859306002001462545C7
:1029DC0006C697E0FF1FE78000A293162900268603
:1029EC00A285294597E0FF1FE780E0A0B240224472
:1029FC0092440249014541018280011122CC06CE4C
:102A0C003714004026CA4AC84EC652C483447405C3
:102A1C00034AB4058349840503499405EF00F00C7F
:102A2C008347A40593F4F40F137AFA0F93E7170076
:102A3C00230DF40493F9F90F1379F90FB71700402C
:102A4C0003C7A705058B6DFF03D5C705A38D4705E8
:102A5C00238C3705A38C2705A38B9704F240624483
:102A6C00D2444249B249224A0561828083C7C19649
:102A7C000547639BE70003C721836317F700A14554
:102A8C0003C591886F50401903C7418D8547630D6D
:102A9C00F70003C7718E6319F70093050002172521
:102AAC0000200345250FF9BF8280411106C622C4C0
:102ABC00EF20207683C771946380070EA383019463
:102ACC0083C7618D0544639587021385018DEF20C3
:102ADC0010316313050C2244B240238B018C03C5C7
:102AEC00A181130600199305000441016F50001ACF
:102AFC00EF20A00611CD83C7C1966399870403C745
:102B0C0021836315F704914503C59188EF50C010DC
:102B1C0083C78194D1C32384019493870182884312
:102B2C000D4681450505EF40D07383C7C196054717
:102B3C006391E70403C72183631DF702894503C52D
:102B4C0091882244B24041016F50000D03C7418D62
:102B5C0085476316F700896503C5A18145BF03C787
:102B6C00718EE317F7FAA14517250020034585025E
:102B7C0071BF03C7418D85476316F700856503C593
:102B8C00A181C1B703C7718E6318F700C145172522
:102B9C0000200345250075B7B240224441018280D4
:102BAC0083C7A196B5CF03C781888547631AF706FB
:102BBC002385019683C691968D47639EF602A38466
:102BCC000196938701829443411106C683C7260060
:102BDC00B307F0402381F60083C7C196639FE700DB
:102BEC0003C72183631BF700894503C59188EF5008
:102BFC00A002B24041016F30202D03C7418D8547A3
:102C0C006316F700856503C5A181D5B703C7718E1F
:102C1C00E311F7FEC145172500200345A5F7C1BFF9
:102C2C00828083C7C1968DC383C7218391CF03C68E
:102C3C00118E83C7818D6389C700238CC18C854518
:102C4C00130580036F20907083C7418D91CB83C790
:102C5C00218399E703C6718D83C7818DE39FC7FCE0
:102C6C0083C7718E91CB83C7218399E703C6018EED
:102C7C0083C7818DE393C7FC828041119397050133
:102C8C0022C406C626C24AC0C1872E8463DA070056
:102C9C00EF40903919C1EF4090322165218D25A864
:102CAC0093F7150013C515009DE793F7250013C581
:102CBC00250095E393F785008DC7938781829C430C
:102CCC0082970966130606F4A14503C51183EF40EC
:102CDC00F07B13458400B2402244924402494101E6
:102CEC00828093F74500B9C303C7D194854797F405
:102CFC00FF1F93842445631DF7009C408297214657
:102D0C00914503C51183EF40707813454400E1B73A
:102D1C0017F9FF1F1309494283274900829783271C
:102D2C00090082979C448297DC40C9BF93F7050148
:102D3C0099CF93878182DC43829713060006C145A5
:102D4C0003C51183EF4090741345040169B793F7E1
:102D5C00050281CF173602001306867081450145A6
:102D6C00EF20B06313450402BDB793F7050499C770
:102D7C0085472386F19613C50504B1BF93972501AA
:102D8C0063D00702EF70E172393137F60200130697
:102D9C0006E0896503C51183EF40506F0965FDBDE1
:102DAC00939715010145E3D807F217350200130577
:102DBC006570EF10924113060064916503C5118391
:102DCC00EF40D06C1165D9BD1D7149469735020095
:102DDC0093854569174502001305C55886CEA2CCCC
:102DEC0097E0FF1FE78040B001E91735020013059B
:102DFC00A568EF10923D01A0B7F600E0795798CA8C
:102E0C00FD57DCCA0567B7E700E023A0E7101306FF
:102E1C00F00290C223A0E718010001001306C003C2
:102E2C0081454808EF40F043972700209387C70857
:102E3C003ECA896793870780231CF100ED47A301E5
:102E4C00F1023544930750108146014681452145D6
:102E5C002312F1022303810297D0FF1FE780A059B0
:102E6C00A167938707E03ECE97070000938747B38F
:102E7C00BEC497070000938767B4BEC68947230476
:102E8C00F102971700009387878E3EDAB7F507009B
:102E9C00970700009387A7B63EDE81469707000090
:102EAC009387A7AF7000E1051945BEC023088102C6
:102EBC0097D0FF1FE780205458088147994670002F
:102ECC003E960346060085070507A30AC700E3984C
:102EDC00D7FED24791C70357810185676373F7000B
:102EEC0001A04808EF50E021AA8501C9173502005E
:102EFC001305C559EF10321901A0F640664425613F
:102F0C008280130101DE2D469735020093858525BD
:102F1C002800232E1120232C8120EF10720B130676
:102F2C00D01F814513053101EFF06FA81705000084
:102F3C001305E5D4EF502019138411832300A4004A
:102F4C00EF30E023EF20704BEF10900FEF30603636
:102F5C0085452800EF308012EF20E022EF40802ED4
:102F6C00492C0345040037F60200130606E0896578
:102F7C00EF40D0512800EF105225173602001306EF
:102F8C00E65285450945EF20F020130630058545AE
:102F9C005145EF20B010EF40A01D85462A8685458F
:102FAC006945EF2050151306400485451305600252
:102FBC00EF20D00EEFF00FE5854603C65180854516
:102FCC001305C002EF20301301468545130580031D
:102FDC00EF20D037174702001307878D8D46130655
:102FEC00B00781451305B005EF20102034001736CB
:102FFC0002001306E64B81450145A3070100EF20B3
:10300C00D0390345040005661306062C930500020F
:10301C00EF40D0478320C1210324812113010122D9
:10302C008280011122CC26CA4AC806CE0D49AA8438
:10303C003284630C250791476309F50889476315AA
:10304C00F5022EC6EF80A13BB2458547173502002D
:10305C00130585476388F5006394950217350200C4
:10306C0013054547EF1072166244F2404249A6859B
:10307C00D244173502001305A54905616F10B20043
:10308C00830504001735020013050546EF10A27FD7
:10309C0083471400E39A97FC83472400E39627FDAB
:1030AC00834734002380F18EC1B785471735020062
:1030BC00130585416389F50009496390250317358C
:1030CC00020013052541EF105210914517250020E1
:1030DC00034545ACEF40503441BF8305060017351E
:1030EC0002001305A541EF10027A83471400E39EFA
:1030FC0027FD83472400E39A97FC83473400238001
:10310C00F18EE1B741119397050122C406C6C18720
:10311C002E8463DD0700EF40207119C1EF40206A57
:10312C002165218DB24022444101828093F74500F4
:10313C0095C7EF80C12C9306F00F1306F00F89454D
:10314C0013858183EF70D14EAA85173502001305C4
:10315C00253EEF10427313454400E9B793F7050180
:10316C008DC3EF80C1299387018288439306F00FAA
:10317C001306F00F95457D15EF70B11C1345040136
:10318C0055B793F785008DC3EF8061279387C18175
:10319C0088439306F00F1306F00FA5457D15EF70CD
:1031AC00511A13458400BDBF93F705028DC3EF8000
:1031BC0001259387418288439306F00F1306F00F85
:1031CC0089457D15EF70F11713450402A1BF93F7E4
:1031DC0005040145A1DBEF8081229306F00F130655
:1031EC00F00F854513854183EF70B1151345040429
:1031FC0015BF8D6585461386718E938525802D456B
:10320C0017D3FF1F6700231F797122D40D6406D6D4
:10321C00A307A1001304248085461306F100A285A0
:10322C00294597D0FF1FE780001D85461306F10145
:10323C00A2852D4597D0FF1FE780E01B0347F101C6
:10324C008347F100E31AF7FCB250225445618280A7
:10325C0079711306000281450A8506D6EF4070008D
:10326C0017050000130545EAEF40F065972700208D
:10327C002382A792B7477671938797123EC4B757AC
:10328C005500938757553EC6B7F72400938707D24E
:10329C003EC28567938717842310F10097070000BF
:1032AC00938767D83EC80A85ED57230EF100EF705F
:1032BC008179AA851735020013054526EF10A25C0B
:1032CC00B25045618280B717004003C777051A05D5
:1032DC0092054D8D1377E70F13653500A38BE7042B
:1032EC001375F50FA38CA7048280B717004003C792
:1032FC0077051377E70FA38BE704130700F8A38D6B
:10330C00E7043D47238CE70413075003A38CE70421
:10331C008280B7160040130670052380C6049307FD
:10332C0080FA2380F6040100010003C7F60213673C
:10333C008700A387E60203C7F6021377770FA387EC
:10334C00E60203C7E6021377C70F2387E60203C71B
:10335C00E602136717002387E6022380C604238046
:10336C00F6040100010003C736057D78930E481F53
:10337C001377870FA389E60403C736053716004079
:10338C00116E13671700A389E6042380F60483C724
:10339C0036051167130F400893E70702A389F6045B
:1033AC0083D706051308281B930F3004D98F116798
:1033BC002398F6047D1791478942130370059308EF
:1033CC0080FA83463605A18AEDDE835606058346D0
:1033DC003605A18AEDFE83560605B3E6C601231811
:1033EC00D60483463605A18AEDDE83550605834651
:1033FC002605F98DB306D702B695B386D501637150
:10340C00DF04FD1793F7F70F85CFC2959396150040
:10341C00B3C6F6036352B0028506858623006604A4
:10342C0023001605010001008355C602AE96C206A4
:10343C00C1822316D60271B7FD16B3C65602F9BF68
:10344C00B716004083C7360513873605A18BFDDB05
:10345C0083D7060583D706051166D18F2398F6040A
:10346C00930770052380F604930780FA2380F604F3
:10347C00010001008347070093F7870F2300F70033
:10348C0083470700C98F93F7F70F2300F70037170F
:10349C00004083473705A18BEDFFB717004003C7EA
:1034AC003705218B6DDF83D6070583C7270511668A
:1034BC007D16F18E3306F60285659307C0031387DC
:1034CC0005C83696938605FAB396A600B386F6021F
:1034DC00A1679385559CB3C6F6029307803EB386CD
:1034EC00F602B357A740B306D640B387D702B3C78B
:1034FC00B7026351D0048507094793067005B3C71B
:10350C00E702371700402300D704930680FA230004
:10351C00D7049607010001008356C702B697C2076D
:10352C00C1832316F7028347370593F7F70DA309D9
:10353C00F7048280FD17C9B7914763EEB7021737BE
:10354C000200130727008A05BA959C41BA97828717
:10355C00B717004003A7470B1345F5FF698F23AA44
:10356C00E70A03A7070B698F23A8E70A03A7070A33
:10357C00798D23A0A70A8280B717004083A6470B3A
:10358C001347F5FFF98E23AAD70A83A6070B558D8F
:10359C0023A8A70A83A6070A758F23A0E70A8280AF
:1035AC00B717004003A7470B498F23AAE70A03A7C5
:1035BC00070B1345F5FF45BFB717004083A6470B14
:1035CC001347F5FF758F23AAE70A03A7070A598D3E
:1035DC004DB7B717004003A7470B498FEDB791477D
:1035EC0063EEB70217370200130707F78A05BA957F
:1035FC009C41BA978287B717004003A7470D134524
:10360C00F5FF698F23AAE70C03A7070D698F23A881
:10361C00E70C03A7070C798D23A0A70C8280B717A2
:10362C00004083A6470D1347F5FFF98E23AAD70C4C
:10363C0083A6070D558D23A8A70C83A6070C758FA1
:10364C0023A0E70C8280B717004003A7470D498FD2
:10365C0023AAE70C03A7070D1345F5FF45BFB717C2
:10366C00004083A6470D1347F5FF758F23AAE70C7F
:10367C0003A7070C598D4DB7B717004003A7470D8B
:10368C00498FEDB79357E50093F70730C98FC20701
:10369C000547C1836382E5048DC10947638DE50449
:1036AC000D476380E50637170040231FF708835644
:1036BC002709D58F2319F708828037170040035646
:1036CC00670993C6F7FFF18E231BD7088326C70C17
:1036DC00558D2326A70CC1BF371700400356670929
:1036EC0093C6F7FFF18E231BD7088326870C558DC5
:1036FC002324A70C4DBF3717004083566709DD8E76
:10370C00E1B73717004083566709DD8EE9BFB7175D
:10371C00004003D7870109C5D98D239CB70082804F
:10372C0093C5F5FFF98DD5BFB717004003D58700BA
:10373C00420541819377050491EB9377F501375559
:10374C00E801130505803345F50282809377050C5B
:10375C00130700046397E7009377F50137459C1C2A
:10376C00CDB72165130505D08280B7F700E08847F7
:10377C00CC478280814737470040A14663C4C700CD
:10378C00328582800345B7C0E38EA6FE3385F500F3
:10379C000345050085072304A7C0CDB712059A057C
:1037AC004D8D1365C5001375F50FB72700402380A9
:1037BC00A7408280B727004001E5A38007408280A4
:1037CC00239CB740239EC740154791E20547A38031
:1037DC00E7408280411122C406C62A84B1372947AA
:1037EC00B307E502B2408D83B3D787022244950715
:1037FC00B3D7E70237470040C207C1832316F7C08F
:10380C0041018280716541111305052006C6D93727
:10381C00B7470040130770F82381E7C00D47A38119
:10382C00E7C013070004A380E7C005472387E7C060
:10383C00B24041018280B787004023800700130704
:10384C00C0FC2386E700A386E70017170020035768
:10385C0027352398E700171700200357A734239A1E
:10386C00E7001717002003572733239CE70017178F
:10387C0000200357A732239EE70089462381D702F5
:10388C0049472383E7022385E7022387E70223893D
:10389C00D702A3810700130790022380E700B71615
:1038AC00004003D7A6011367070C239DE6007D5744
:1038BC002383E700130710F8A380E7001D4723813B
:1038CC00E7008280B78700402382A70203C7670204
:1038DC001377C70F2383E7028280B78700402384C6
:1038EC00A70203C7A7021377C70F2385E7028280BD
:1038FC00B78700402386A70203C7E7021377C70FD9
:10390C002387E7028280B78700402388A70203C77A
:10391C0027031377C70F2389E70282809387418F90
:10392C009C43011106CE22CC91C38297938781933D
:10393C0080439387818F9C4313150401418181C778
:10394C002AC68297324583D7C1836379F50403D79E
:10395C00E1836378A7049386018F03A306006306B3
:10396C0003006244F240056102838507998F139529
:10397C0007014181935725001315040141816544CA
:10398C00198D330585021384F7FF22953345F50213
:10399C001375F50FF24062440561828013054006F1
:1039AC00D5BF0145C5BF03A84500411126C206C6B7
:1039BC0022C48347180003480800A944A207B3E7B0
:1039CC000701C2070D68C187130828906396070387
:1039DC0085473284EF80903CAA8419ED9387C18E81
:1039EC009C4399CB03451400034704002205598DD1
:1039FC001335150005058297B24022442685924462
:103A0C00410182802D453DE7D841411122C426C297
:103A1C0006C68347170003470700B684A207D98F51
:103A2C000D67930697A132846396D702C53D83C771
:103A3C00A1836374F500238DA18285472390F40044
:103A4C0083C7A1832300F4000145B2402244924471
:103A5C0041018280130787902945E398E7FECC4506
:103A6C0089472390F4000946228597D0FF1FE780F1
:103A7C0020E4D9BF828083474500858BADC70111F7
:103A8C0022CC2A8403552500938501A706CEEF800E
:103A9C00B02B058929C503552400014781460546ED
:103AAC00ED45EF80A0652AC61DC997E7FF1F9387D8
:103ABC00276A83D7A70201462C002314F1008547FF
:103ACC002315F10083C7A1832300F50003552400BF
:103ADC00EF90B00509C5ED452800EF80E079F24084
:103AEC00624405618280828041654111938501A702
:103AFC007D1506C6EFA00073B24097E6FF1F9386B4
:103B0C00266A4146954517E5FF1F1305656441017B
:103B1C006FA0606623A6A18E8280411122C406C6C6
:103B2C00854709446311F502834706000144238449
:103B3C00F18E03C7A1836378F70017050000130506
:103B4C00C5F3EFC0D01D2285B240224441018280D2
:103B5C0085476301F50209C909476302E5020D4770
:103B6C006306E5020945828083C7A1832380F500A3
:103B7C00014582809387818E83C70700C5BF97E775
:103B8C00FF1F83D7875D2390F500DDB71387018472
:103B9C00035707002392E50017E7FF1F1307475B46
:103BAC008356A7020357A7032383F5002390D50060
:103BBC002391E50075BF411106C68D3383C7A183E0
:103BCC00637AF500238DA182170500001305E5EA41
:103BDC00EFC0F014B2400145410182804167791772
:103BEC00630CE502411122C406C685472A84639AF8
:103BFC00F50022852244B240938501A741016FA0B4
:103C0C00606289476396F5008545EFC0D00B75D18E
:103C1C00B2402244410182808280CC41411106C6CF
:103C2C00328503C6150083C5050022064D8E42065B
:103C3C008D654186138875A2630C060F6348C80412
:103C4C00138845A26306060B634AC800938535A208
:103C5C006309B60623900600294679A0138855A25D
:103C6C006308060B938565A2E316B6FEC1451D4697
:103C7C0063ECE5064546198E63F3C7003E86239038
:103C8C00C600973502009385658F89A8138895A285
:103C9C006300060F634E060B1388A5A2630A060F7A
:103CAC00938505A5E318B6FA99451D4663EEE50222
:103CBC00198E63F3C7003E862390C60093858184DA
:103CCC0031A89D451D4663E1E5022146198E63F33B
:103CDC00C7003E862390C6009385C18FBA9597D0B6
:103CEC00FF1FE780E0BC0146B24032854101828073
:103CFC00AD451D46E3EAE5FE3146198E63F3C70078
:103D0C003E862390C600973502009385E58AF9B765
:103D1C00B1451D46E3EAE5FC3546198E63F3C70051
:103D2C003E862390C600973502009385E5897DB7C2
:103D3C00C1451D46E3EAE5FA4546198E63F3C70013
:103D4C003E862390C600973502009385658479B72B
:103D5C00C1451D46E3EAE5F84546198E63F3C700F5
:103D6C003E862390C600973502009385E586BDB745
:103D7C00C1451D46E3EAE5F64546198E63F3C700D7
:103D8C003E862390C600973502009385A581B9B76E
:103D9C00B5451D46E3EAE5F43946198E63F3C700D1
:103DAC003E862390C600972502009385257C3DB75F
:103DBC0097E6FF1F938686524146CD4517E5FF1FB8
:103DCC001305C53E6FA0203B8280938781919C4355
:103DDC0003C7C19083C6318601E781473E85828047
:103DEC0003D607006316A60003C66700E308D6FED9
:103DFC007D171377F70FA107C5B7B2862E86AA8554
:103E0C0017350200130505826F00F2270111930587
:103E1C0000030D4506CEEF507002930500051145C9
:103E2C00EF50D0019305C0030545EF503001854795
:103E3C001306F100854513055030A307F100EFC0C0
:103E4C009108F24005618280938701919C433287EF
:103E5C0091C703A3870063030300028309CB1306F6
:103E6C0000199305000203C5A1816F303062828076
:103E7C008547631CF5001166130686A9894517153D
:103E8C000020034565D26F30706089476319F500D7
:103E9C00894517150020034525D16F40A007828066
:103EAC0085476398F50019E22383B190238EC19066
:103EBC00828009476399E50019E62383F19003D5C5
:103ECC0041906F005008828001119397050126CA1A
:103EDC0006CE22CC4AC84EC652C4C187AE8463D922
:103EEC00070817150020034525CCEF30F0132A8462
:103EFC0039C9034705009307000D6313F704834783
:103F0C0025004547638BE7046547639BE70217254C
:103F1C0002001305A56DEF00121713095400930945
:103F2C00B400172A0200130AAA6D834509005285B2
:103F3C000509EF005215E39A29FF2945EF00B21845
:103F4C002285EF30D0072165258DF2406244D244A2
:103F5C004249B249224A0561828003466500834585
:103F6C007500172502001305256AEF00D211C9BF91
:103F7C0093F7150085C317E6FF1F1306E6369385E6
:103F8C00418517150020034525C2EFC0614513C5B7
:103F9C00140065BF93F725000145C5DB293911666F
:103FAC00130686A98945171500200345E5BFEF3098
:103FBC00F04D13C5240051BF797126D24ECE06D6D2
:103FCC0022D44AD052CC9147AA84AE896314F5040A
:103FDC0083D7A5001306E1008545130550302392C5
:103FEC00F1902307010023830190EFC0C16D9387EB
:103FFC0001919C4391C7DC4781C7CE85268582976A
:10400C00B250225423A4919002599254F249624A1C
:10401C0045618280138781901843E31AF7FC85452C
:10402C0003D54190653E854503D54190EF006077FF
:10403C00C16703DA4190F917631BFA020544930533
:10404C00E1001305504123830190A381818623074E
:10405C000100EFA011788347E100B1E303C7C191E0
:10406C009147E316F7F85D33238E019049B7938798
:10407C00819103A9070003C4C19069D0035529009D
:10408C0011C99305E100EF80D03209C54C4552852A
:10409C00EFA040197D141374F40F2109F9BF938715
:1040AC0041919C4383C74700898BCDDB9305000A64
:1040BC000D45EF50A0589305000A1145EF500058DC
:1040CC0081450545EF5080571306E10085451305E2
:1040DC00503023078100EFC0015F49B7011117056C
:1040EC0000001305A5DE06CE22CCEF30D07D1714D0
:1040FC000020130464AB85471306F10085452300AB
:10410C00A40013054041A307F100EFB081137D55C6
:10411C00EF7030487D55EFA0C00D5939EFF0DF9CA2
:10412C00D52B170500001305E5D4EFF0BF9E17053E
:10413C0000001305A5C92925034504008545EF306A
:10414C00B02DF24062440561828023A8B19023AA6D
:10415C00A190828023ACB1902386A190828093871A
:10416C0081909C43797106D622D426D24AD04ECE69
:10417C0052CC1147639BE70483C76190414481CFC4
:10418C00938781918043B284B68983C7C19003C75A
:10419C00318699EB55442285B250225492540259DF
:1041AC00F249624A4561828083464400639AA600C4
:1041BC00834654006396B600834664006380E6062B
:1041CC00FD1793F7F70F2104E9B709474144E3843E
:1041DC00E7FC2C001305504123040100EFA0715F94
:1041EC00834781008DCB930500020D45EF500045B0
:1041FC00930500031145EF50604495450545EF507C
:10420C00E043854730008545130550302304F10009
:10421C00EFC0614B49B7DD3E4144B5BF03552400A7
:10422C0093056100EF80F01835D54C4503D54190CE
:10423C00EF808031058939DD139904011359090187
:10424C00014781464A86ED4503D54190035A040047
:10425C00EF70D06A2AC64D441DDD2686CE85231408
:10426C0041012315210197C0FF1FE78060640146BF
:10427C002C0003D54190EF90400B2A84E30D05F000
:10428C00ED452800EF70507F39B7C841011122CCA1
:10429C0006CE328403461500034505002206498EDE
:1042AC0019CB0D681308B8A42D45630A0607F24014
:1042BC006244056182800D651308D5A46300060372
:1042CC00130825A2630C060175781308E85C329874
:1042DC00420813580801854863EF080303D5A5006D
:1042EC0036C632C4EFF07FAEB24615C1938701914A
:1042FC009C4322468345550003A30700A2876244D2
:10430C00F2400345450036878546056102832390BC
:10431C000600014569BF1308B5A46317060303D64D
:10432C00A1861D45E375C7F8198E63D3C7003E8679
:10433C00CC452390C60042064182BA95228597C08F
:10434C00FF1FE780E056F1B79307A5A46318F600AA
:10435C0091472390F6001146CC45CDB79307859035
:10436C006317F60089472390F6000946F5B79307C3
:10437C00E5A4631AF600DC452390160183C70700F9
:10438C002300F40079B713057590E314A6F8D9BF90
:10439C00011122CC06CE26CA4AC82317D1002D44BF
:1043AC0031EBDC412E89B28403C4170083C70700AC
:1043BC0022045D8C8D679386D7A46306D400938604
:1043CC0027A36310D4040355A900EFF01FA019E133
:1043DC0001440DA0938701919C43834555000345EF
:1043EC00450003A807002286A6871307E100814633
:1043FC0002982A842285F2406244D24442490561E3
:10440C0082809386C7A46314D4028357E1000547C6
:10441C003544E391E7FE0345060013040008E3EB83
:10442C00A7FC938701919C43DC43829755B79386F5
:10443C002790631AD4028356E1008547EF8000165B
:10444C002A844DF9938781918356A9009C4303C715
:10445C00C1903DDF03D627006302D6047D17137786
:10446C00F70FA107FDB79387E7A4E313F4F683577F
:10447C00E10005473544E39FE7F6034506001304C6
:10448C000008E3E9A7F6DC452380A7009387019198
:10449C009C433335A0000905DC4341BF13870191D0
:1044AC00184303C5470083C5570083C7140003286E
:1044BC00070003C70400A2078946D98FC207C1872A
:1044CC0005476383E7008D460D66A6871307E10059
:1044DC0013062690029839BF411122C4416413057A
:1044EC00F4FF938501AA06C626C24AC0EF909053EA
:1044FC001305F4FF938501A9EF90D0521305F4FF37
:10450C00938501A897E4FF1F9384C4DEEF9090512C
:10451C0097E6FF1F938606FC4146F9452685EF90EA
:10452C009045CC4C2A890945EFF08FE213874187DF
:10453C009387C187834507000346170083D707007D
:10454C0003D7A410138401AB2312F4002314E4004A
:10455C0083D7A40C03D7A411A306C400A30EC400D4
:10456C0003D6A4172310F4002315E40083D7A40D5D
:10457C00138781878346070003D5A41403471700CC
:10458C00231CC40003D6A4182311F400854723036D
:10459C00F4002307F400230AD400230BF400231D9A
:1045AC00C4002302D4022306B400A30AE400231897
:1045BC00A400230EB40023190400230F0400A3024B
:1045CC00E40203D7A41A2307F402231104022310D4
:1045DC00E402138701870357070023030402231502
:1045EC0004022316E40203D7A41C938501AE0D45E7
:1045FC002314E402EFF0CFD5A2852145EFF09FB54F
:10460C00B24022444A8592440249410182808D671E
:10461C00138527A36301A6049387D7A40145631EC2
:10462C00F6008947639CF500854735456397F6008E
:10463C00834707002381F192014582808D472945EC
:10464C00E39DF5FE85473545E399F6FE8347070064
:10465C002380F192D5B785473545E390F6FE834725
:10466C000700A38FF190C9BF8D67138527A363083B
:10467C00A6029387D7A46317F6028947639BF500BC
:10468C0083C721922300F70085472390F60001454C
:10469C0082808D476398F50083C70192E5B783C785
:1046AC00F191CDB723900600DDB70145828025E35B
:1046BC0003A84500AE888347180003480800A207EA
:1046CC00B3E707010D68930EF8A4639AD7039147DB
:1046DC003548639FF60203A5C8004111B285114607
:1046EC0006C697C0FF1FE780A01C938701939C43CD
:1046FC0005458297B240014842854101828093086A
:10470C00289029486396170185476F7030692D48AA
:10471C004285828041654111938501AF7D1506C6A6
:10472C00EF905030B24097E6FF1F938666E141460A
:10473C00994517E5FF1F1305A5DA41016F90B023CA
:10474C0023A8A19282800111938501AF22CC06CEC1
:10475C002A84EF70705F058929C10147814605469F
:10476C00ED452285EF7090192AC605C997E7FF1F02
:10477C00938707D783D7A70501462C002314F10094
:10478C0085472315F100230005002285EF80F039C1
:10479C0009C5ED452800EF70302EF24062440561EA
:1047AC00828041677917630CE502411122C406C669
:1047BC0085472A84639AF50022852244B24093856A
:1047CC0001AF41016F90102689476396F50085452E
:1047DC00EFB0704F75D1B24022444101828082808B
:1047EC000567930797E763F8A702930617EC8547CD
:1047FC0063F1A6029306B7F0894763FCA600930603
:10480C0037F58D4763F7A6009307D7F9B3B7A70021
:10481C0091073E8582808147EDBFB717004017078F
:10482C000020130787382394E70617070020130787
:10483C0007392396E706130710FCA380E70682804E
:10484C0041118545116506C6EFE07FD981451305F9
:10485C000010EFE07FCE89450145EFE0DFA6B717EA
:10486C0000403147238CE7040547238DE704A381DF
:10487C0007066537B24003C5118313060064A145D2
:10488C0041016F30A040170700201307073297062D
:10489C0000209386C6328147035607000907B2975A
:1048AC00E31CD7FE2947B3D7E7021387419318437C
:1048BC009386870C63E9E60013878193184323AA38
:1048CC00E19223ACF192828001114EC693898193BF
:1048DC0022CC03A4090052C406CE228526CA4AC89B
:1048EC000137938741932A8A884333048540935731
:1048FC00F4413D8C1D8CED35631345039307100378
:10490C0063CA870C814513058007EF0090718545BC
:10491C001305000EEF00506E85450145C1A8172701
:10492C0002001307E7F88D461306B00781451305FF
:10493C00B005EF10600B81451305D005EF00706ECC
:10494C0081448545639344051305D005EF00706DD4
:10495C008144639E440589451305D005EF00706CB6
:10496C008144E38D44F985452145EF00F0681149F8
:10497C007D1985452D451379F90FEF00F067E31983
:10498C0009FE850493F4F40FE9BF4145EF00D066AE
:10499C0011497D1985451305000D1379F90FEF00A9
:1049AC00B065E31809FE850493F4F40F59BF8545EF
:1049BC000145EF00706411497D1985451305F00F11
:1049CC001379F90FEF005063E31809FE850493F493
:1049DC00F40F41B7814513058007EF0090648545BE
:1049EC001305100EEF00506185452D45EF00D0608A
:1049FC008D451305F005EF00D062624403A6090053
:104A0C00F240D2444249B249224A91468D4513059F
:104A1C00F00505616F00306E4111930640051706D5
:104A2C0000201306261F89652D4506C697C0FF1F5B
:104A3C00E780609CB240896593064005170600200C
:104A4C0013060618938505402D45410117C3FF1F1A
:104A5C006700639A41119306400517060020130660
:104A6C00661B8965294506C622C497C0FF1FE780CF
:104A7C00809889651374F50F93064005170600207E
:104A8C001306061493850540294597C0FF1FE78040
:104A9C008096418DB24022441375F50F41018280FE
:104AAC0001111306400597250200938565D1170562
:104ABC0000201305251606CE22CCEFF071511306FB
:104ACC004005972502009385E5C2170500201305C4
:104ADC00250FEFF0F14FBD3F0D641306F100930568
:104AEC00048085462945A307010097C0FF1FE78076
:104AFC00809085471306F10093051480854629455F
:104B0C00A307F10097C0FF1FE780E08E1306F100AA
:104B1C009305248085462945A307010097C0FF1FF4
:104B2C00E780608DF2406244056182809707002027
:104B3C009387470E970600209386860803C7370590
:104B4C006318B700A389A704FD17E399D7FE19B71B
:104B5C00E31CA7FEA389B704C5BF411106C683C7D2
:104B6C006194638E072417D7FF1F0347775C631884
:104B7C0007248546A38BD19497D7FF1F83C7475B28
:104B8C0003C7419499EF09C70145B24041018280A6
:104B9C002382D19483C7519493F7070FA382F19486
:104BAC00E5B789466310D70203C751949146631544
:104BBC00D700A382F196C9BFA146E317D7FCA38AFD
:104BCC00F194D9B719466398C7002382D19483C74F
:104BDC005194B18BE1B7D546639BD7009307100B6B
:104BEC00630CF71C930710FB2382F19495A8C54620
:104BFC006399D7009307200B6300F71C930720FBE6
:104C0C00E5B7C1466399D7009307300B6306F71AD3
:104C1C00930730FBD1BF95466399D7009307000BE0
:104C2C00630CF718930700FBC1B79306D002639C83
:104C3C00D7029307100C6301F718930710FC23821B
:104C4C00F1949387418298438347070093E70701C8
:104C5C002300F70097D7FF1F9387074E9C47829737
:104C6C00A382019415B79306E0026392D7029307CF
:104C7C00000C6303F714930700FC2382F1949387D1
:104C8C00418298438347070093E78700D1B7930687
:104C9C00C0046398D7009307E00F630FF710F95720
:104CAC00A1B7930650036399D7009307000D6305D2
:104CBC00F710930700FD0DBFDD466399D7009307EE
:104CCC00100D630BF70E930710FD39BF930670029E
:104CDC006398D7009307000E6300F70E815729B72E
:104CEC00F9466398D7009307100E6307F70C8557A6
:104CFC00E5BDFD466398D7009307200E630EF70AB7
:104D0C008957DDB5930600026398D7009307300EE0
:104D1C006304F70A8D57C9BD930610026398D70038
:104D2C009307400E630AF70891577DBD9306200246
:104D3C006398D7009307500E6300F70895576DB52D
:104D4C00930630026398D7009307600E6306F7064C
:104D5C00995759BD9306A0036398D7009307000F8A
:104D6C00630CF704C15749B59306B0036398D70099
:104D7C009307100F6302F704C557BDB59306C00324
:104D8C006398D7009307200F6308F702C957A9BD92
:104D9C009306D0036398D7009307300F630EF70088
:104DAC00CD5799B59306E0036398D7009307400F4E
:104DBC006304F700D1570DBD2382019455B503C789
:104DCC0071950545E313A7DCE39107DCA38B0194F4
:104DDC0083C741949306100D6385D73063EFF60EAD
:104DEC009306200B638DD72463EDF6040947638487
:104DFC00E7206369F702E399A7D883C75194C107E9
:104E0C0093F7F70F13070005E39AE7D8A3820194F1
:104E1C00238201947131172602001306E692814514
:104E2C0001456DAC1307000B6386E7221307100BCB
:104E3C00E39CE7D42382019497B0FF1FE7802049BD
:104E4C00A1B39306000C638FD72263E5F602930699
:104E5C00300BE39BD7D22382019483C7718EE395E9
:104E6C00E7D293050004170500200345A5D2EF20D7
:104E7C00B05A19BB1307100C6385E71E1307000DFE
:104E8C00E394E7D02382019483C7418D03C7718ECD
:104E9C00D98FE39B07CE83C7018393B71700138683
:104EAC0001838545130550302388F182EFB0B101A1
:104EBC00AA8663090520172602001306668A814517
:104ECC000145EF00904D05661306062C9305000274
:104EDC0003C51183EF20905B45B91307100F638155
:104EEC00E724636DF70A1307600E6362F708130774
:104EFC00100E63FBE7201307000EE397E7C803C50A
:104F0C00218313351500238201942389A18283C741
:104F1C00C1968DCB83C7418D03C7718ED98F9DC32D
:104F2C00F9473305F502014681456905EF00103D4F
:104F3C0083C721831305800391C3694505468145C9
:104F4C00EF00D03B83C72183172602001306C683CC
:104F5C00E39707EC83C7718E17260200130646836E
:104F6C00E38F07EA17260200130606834DBD1307CD
:104F7C00000FE39BE7C02386A194172602001306BB
:104F8C0026828545514523820194EF00B020972756
:104F9C000000938747C223A6F188FDB61307400F84
:104FAC006382E71C636CF7021307200F638BE7180F
:104FBC001307300FE39AE7BC238201948547171639
:104FCC0002001306A67E854551452386F194EF0019
:104FDC00701C97270000938767D975BF1307E00FE4
:104FEC00638BE70A1307F00FE390E7BAA3820194EF
:104FFC002382019451BE83C75194910793F7F70F05
:10500C003147E39DE7B8171602001306A6748145D5
:10501C000145A382019423820194EF0010380566A8
:10502C001306062C9305000203C51183EF201046CE
:10503C0083C5519603C55195EFF05FAFB1B623828E
:10504C00019483C7718E01456383E7000545EFE04A
:10505C00AF9BDDB32382019497B0FF1FE7808022C2
:10506C0025B6238201949387418298438347070096
:10507C00BD9B2300F70097D7FF1F9387E70B9C4737
:10508C00829719B623820194938741829843834770
:10509C000700DD9BF9BF2382019483C7D19481EF74
:1050AC0085472386F194972700009387871E23A6B4
:1050BC00F188EF20204583C7D19493B71700A386BE
:1050CC00F194D9B483C70183171602001306C6697D
:1050DC0089E7171602001306A6698145EF00F02B2D
:1050EC00DDB32382019483C7818813B7170023840F
:1050FC00E1881716020013062668E38207D21716FA
:10510C0002001306E66721BB93870702A382F18096
:10511C001306401F23820194C14503C5A1815DBBC9
:10512C002386A194171602001306C66785455145C0
:10513C0023820194EF00100697270000938767A93C
:10514C0099BD2386A194171602001306E6658545C2
:10515C00514523820194EF00F003972700009387B9
:10516C0067B615BD2386A194171602001306466474
:10517C008545514523820194EF00D001972700000B
:10518C00938787CB09BD411106C622C426C2EFF016
:10519C00BF8893840195FD5717070020A302F7AC35
:1051AC009C4037140040914593E7C70F23A8F19416
:1051BC000327840CD98F2324F40C8840EFE02FC2F2
:1051CC009C400327840C971602009386264F93F776
:1051DC00F7F7D98F2324F40C138701941C4317166B
:1051EC000200130626518C429106CD8FE39DC6FE1C
:1051FC0023A0F194B716004003A6860A2244B240BD
:10520C00D18F23A4F60A92440843854541016FE0EF
:10521C00AFB203D7A1949307F7FF5D71C20786C69F
:10522C00A2C4A6C2CAC04EDE52DC56DA5AD85ED62A
:10523C0062D466D26AD06ECEC183DD4663E6F616C2
:10524C00E1476310F70297070020938767971716BB
:10525C000200130626568545094523A2F188EF0066
:10526C00607383D7A19485072395F194138401B0BF
:10527C00971B0200938B8B44814AA284938C4188A8
:10528C00170C0020130C0C991709002013094993D3
:10529C009389018817DBFF1F130B0BE91947338721
:1052AC00EA0203CA4195B716004003A60B0083A679
:1052BC00460AF18EB307E400D29783C50700639CBE
:1052CC00051ED1E683A70C0083C601883E979D4737
:1052DC00529763F8D700034607009307F00D63F865
:1052EC00C70699473386FA028545B387C400D2971F
:1052FC002380B7009387C1888C439727000093873E
:10530C00E7A6639BF502971702009387A750B29705
:10531C00D29783C707001306F00F638FC7000D46A3
:10532C003386C702938701DEB2973D462381C700BF
:10533C00A380C7002380C7000546A383C19483477D
:10534C0007009305F00F6390B70E2383C194850A71
:10535C00B947910BE394FAF403C7419593061700F0
:10536C0093F6F60F238AD194971702009387C74FB1
:10537C000A07B71500403E9703A6850C1843518FBA
:10538C0023A4E50C15476374D700238A019483C6C4
:10539C0041958A0637160040B6970327C60C9C43E6
:1053AC00D98F2326F60C8DA083C73196E38007ECAA
:1053BC00FD1793F7F70FA381F196E39907EA17D43A
:1053CC00FF1F130464D6814493099003154A1949AD
:1053DC0083478400639E370133069A4093059400FB
:1053EC0013058400EFF0C13E97D7FF1FA38407D4A9
:1053FC0085040504E39E24FD83C70188FD172380E3
:10540C00F1888547A383F194B64026449644064917
:10541C00F259625AD25A425BB25B225C925C025DD8
:10542C00F24D616182801306F00E6374F602172749
:10543C0002001307273F1443938707F1054703C660
:10544C000600B317F700D18F2380F6002384E19474
:10545C00FDBD1306F00D637FF6000547938707F239
:10546C00B317F70003476B00D98F17D7FF1F230023
:10547C00F7CCF1BD9947B387FA02E2973E9A0346FF
:10548C000A00930790036316F60085472395F19461
:10549C007DBD938716002380F18883470700DA9639
:1054AC002383F60083D7A19493B7970193C7170072
:1054BC002382F19669BDE38C06E8238007008547BB
:1054CC00A383F19483A70C009306F00FBA97D2979D
:1054DC0083C707006395D700238301948DBD930682
:1054EC00F00E63F2F602172702001307A7331443DA
:1054FC00938707F1054703C60600B317F70093C758
:10550C00F7FFF18F91B79306F00D63FDF600054799
:10551C00938707F2B317F70003476B0093C7F7FFA6
:10552C00F98FA1B7B307EC00D29783C70700930696
:10553C009003639ED70403D7A194E14763FBE70074
:10554C0017160200130686F68545094523A28189A4
:10555C00912183C7419691C703D7A194E14763E397
:10556C00E70283C701881D47636EF7001147A381CB
:10557C00E196138717002380E188DA9713079003CD
:10558C002383E7002395019423820196C9B34A979C
:10559C0017DDFF1F130D4DB9954D3A9AFD56034774
:1055AC008D006386E70003460A006310E6026E86F0
:1055BC0093059D0013058D003EC6EFF0612197D732
:1055CC00FF1FA38907B6B247FD56FD1D050DE398D5
:1055DC00DDFC83C70900FD172380F1888DBBB7075D
:1055EC0003040111938717203EC2B707070893875E
:1055FC0057603EC4A5472316F10006CE22CC26CA1E
:10560C0017D7FF1F0347C7B29306A00283C7619544
:10561C006310D7061387C1958DC3FD1793F7F70F4A
:10562C00238BF194BA9723800700938781959C4331
:10563C00A946B3D7D70223ACF1948307070099EF9F
:10564C0017160200130686D581450145B92305447A
:10565C002285F2406244D244056182809386C195D2
:10566C00171602001306C6E4814501453D23C5B754
:10567C0099466394D704930780020544E31AF7FC18
:10568C00AA841716020013062613814501453123FF
:10569C0005661306062C9305000203C51183EF2043
:1056AC00E05E938781959C4301449CC0238E0194BA
:1056BC00238B019423AC019461BF930627FE93F6D0
:1056CC00F60F25460544E365D6F8140836970346CD
:1056DC0067FD138781951443294781453307D7020A
:1056EC000145329723ACE194138717001377F70F1A
:1056FC00238BE1949386C195B697130606032380FA
:10570C00C700369717160200130686DA2300070027
:10571C0069213DBFB717004003A7870C136707101B
:10572C0023A4E70C03A7870C1367072023A4E70C1B
:10573C0003A7C70C1367071023A6E70C03A7C70C16
:10574C001367072023A6E70C8280B717004003A736
:10575C00C70C1367071023A6E70C03A7870C136766
:10576C00072023A4E70C03A7870C1367071023A4B7
:10577C00E70C8280371700408327C70C93E707207C
:10578C002326F70C2147B717004093168501E186B5
:10579C0063DD060483A6870C93E6061023A4D70CBE
:1057AC0003A6870C7D1706051366062023A4C70CD9
:1057BC0003A6C70C1377F70F1375F50F13660620A6
:1057CC0023A6C70C9386870C9385C70C5DFF83A714
:1057DC00870C93E707109CC29C4293E707209CC25E
:1057EC009C4193E707209CC1828083A6C70C93E65B
:1057FC00061023A6D70C6DB701112EC606CE22CCEF
:10580C002A84093F13058007B537B245014599C174
:10581C001305000485372285B13F6244F2400561CF
:10582C002DB7411122C42A84138505FB1375F50F7E
:10583C00814506C6D13713554400814513650501D2
:10584C00653F1375E4002244B24081451365150091
:10585C0041015DB7411122C44AC006C626C21304D9
:10586C00000B1309800B8145228579378145014551
:10587C006137814541454937930400088545014509
:10588C00FD149D3FE5FC05041374F40FE31D24FD8A
:10589C00B240224492440249410182800111931783
:1058AC00850122CC011606CE26CA4AC84EC6E1870F
:1058BC001374F60F63D60700850593F5F50F0145B4
:1058CC008D3719463304C402814497190200938919
:1058DC0029041949B3079400CE9703C507008545E1
:1058EC008504193FE39824FFF2406244D2444249B4
:1058FC00B24905618280797152CC138AF6FF22D4A9
:10590C0026D24AD04ECE56CA5AC85EC662C466C2A9
:10591C0006D62A8BAE89B28B1374FA0F814C0149CF
:10592C009304F00FA94A194C631F9404B2502254EB
:10593C0092540259F249624AD24A424BB24B224C1F
:10594C00924C45618280B38757037D171377F70F0D
:10595C00E31B97FEB3D7FB02B3F7570333858C03D6
:10596C0013F6F70F5A951375F50F6312090263D0EE
:10597C004C0389EF13060002CE857D140537850C88
:10598C001374F40F55B722878547C1B70549130621
:10599C000603DDB7011122CC26CA4AC84EC652C432
:1059AC0006CE2A842E89B2898144130A8007B387D4
:1059BC00990003C6070009EAF2406244D244424906
:1059CC00B249224A0561828022851904CA85137462
:1059DC00F40FE93563768A0009091379F90F01444C
:1059EC00850493F4F40FE1B7011122CC26CA4AC8FE
:1059FC004EC652C456C206CE5AC02A89AE84328ACA
:105A0C00B689BA8A014463EC3401F2406244D24450
:105A1C004249B249224A924A024B05618280A685CC
:105A2C004A850135330B8940B3078B0093F7F70F89
:105A3C0063E64701850493F4F40FF1B7B3878A004A
:105A4C0003C5070085450504453BF9BF011122CC70
:105A5C004AC84EC652C406CE26CA2A892E84328A19
:105A6C00B689636A3401F2406244D2444249B24975
:105A7C00224A05618280A2854A856533CA8463E621
:105A8C00440105041374F40FE9BF854501458504F1
:105A9C00A53393F4F40FE5B799473305F5020D8E52
:105AAC00634BA6003305A64009463345C502AA95AB
:105ABC0013F5F50F828001458280411126C28D4578
:105ACC00AA84014522C406C613040004993B7D1424
