:040000006F20C0109D
:100004000000000000000000900000201C020020FE
:10001400A9BDF9F5940000200000000000000000D4
:10002400960000209800002000000000000000005E
:100034009A000020000000009C0000200000000046
:100044009E000020A000002006030020A400002041
:10005400A6000020A80000202C030020AC000020F3
:10006400AE000020B0000020B2000020B400002048
:1000740012030020B8000020BA000020BC000020B9
:10008400BE000020C0000020C2000020C4000020E8
:1000940001A001A001A001A001A001A001A001A054
:1000A40001A001A001A001A001A001A001A001A044
:1000B40001A001A001A001A001A001A001A001A034
:1000C40001A001A001A0B71700409306700523808A
:1000D400D704130780FA2380E7040100010003C654
:1000E400B7041376F60DA385C7042380070413769B
:1000F400050251CE03C6A700118A1DE22380D7044E
:100104002380E7040100010003C7A7001367470029
:100114002385E7009307004B01000100FD17EDFF65
:10012400B7170040930670052380D704130780FA9D
:100134002380E704010001007D892394A7000100C6
:10014400010001000100238007042380D7042380D9
:10015400E70401000100372700408546A303D78048
:1001640023800704B7170040130770052380E704B2
:10017400130780FA2380E7040100010003C7B704D2
:1001840013670708A385E704238007048280137696
:10019400050425CA03C6A700418A1DE22380D704AB
:1001A4002380E7040100010003C7A70013670701C8
:1001B4002385E7009307007D01000100FD17EDFF93
:1001C400B7170040930670052380D704130780FAFD
:1001D4002380E704010001007D891365050423944D
:1001E400A70001000100010001002380070423800F
:1001F400D7042380E7040100010037270040894623
:10020400B1BF2380D7042380E7040100010003D792
:1002140087001367070C2394E700A9B781460146BA
:1002240081451145E92AB71700401307700523805B
:10023400E704130780FA2380E704010001007D57D7
:100244002396E70203C76704136717002383E704B1
:100254002380070401A0BD473305F50201007D1585
:1002640075FD8280411122C426C206C6AA840144B7
:1002740063179400B24022449244410182800504F1
:100284001305803E4204C13F4180DDB7411106C6DB
:1002940085660146814505459D227DF981460146D5
:1002A40081451145A92AB71700401307700523801B
:1002B400E704130780FA2380E704010001007D5757
:1002C4002396E70203C76704136717002383E70431
:1002D4002380070401A0B71700401307700523808B
:1002E400E704130780FA2380E704010001007D5727
:1002F4002396E70203C76704136717002383E70401
:100304002380070401A0976000E0E78060C57300C4
:100314002030B7170040130700032388E7028547FE
:10032400175700002324F79473002030976000E0EF
:10033400E780202973002030411106C6EF00E072E7
:10034400F5BF2303048015472303E480010023023F
:10035400A480828083076480E3CE07FE23030480A5
:10036400828083076480E3CE07FE03454480828055
:1003740083076480E3CE07FE2302A48082804111B8
:1003840026C44AC24EC006C61377F50BAD47AA89E8
:100394002E8995446306F70019456537653F8D44FA
:1003A4004E854537FD59FD1463983401B240A2448B
:1003B4001249824941018280135509011375F50FD1
:1003C400453F2209CDB7011126CC06CEB70408005B
:1003D40051371545BD37713769372AC6A53F3245B0
:1003E4009377150089EB136515001375F50FF2402B
:1003F400E24405618280FD14E9FC0145CDBF3971F9
:1004040026DC4ADA4ED852D656D45AD25ED006DE0C
:1004140062CE66CCB7E700E07D5783AA070022C608
:1004240003AA470023A0E71823A2E718B717004040
:10043400130770052380E704130780FA2380E70479
:1004440083C74704930B75FFB684E20793FBFB0F46
:100454008546AA892E8B328937240040E1870157CB
:1004640063FA76016308D500894613070002631313
:10047400D5000157D98F93F7F70FB71C004023829B
:10048400FC0411472303E4801305F00F5D3D094C80
:10049400D135636D7C11B7050700DA9537870700FE
:1004A400795563F2E504B3879500636EF702370B61
:1004B4000800A94733EB65016399F90689E481448F
:1004C400513D26850DA0DA850945553D05090345AD
:1004D400F9FFFD14050B693D81C49377FB0FFDF70C
:1004E400DD3569FD7D55B71700401307700523807E
:1004F400E704130780FA2380E70403C74704418B0A
:100504002382E704F250B7E700E023A0571123A2A7
:100514004711E25432445259C259325AA25A125B18
:10052400825B724CE24C21618280A5476395F90697
:1005340085691309F00FB3069900B3742B01B694BF
:100544001349F9FFB3749900856B33796901416BE1
:100554009387F9FFB3F7270199E363FC340193D937
:100564004900C147E3E637FF99BF0569C1697D19B1
:10057400D9B71305800D63886901130500026384EC
:10058400790113051008CA85DD3B353D21DD4E99FF
:10059400B3843441D9B7DA852D45D533CA94E30001
:1005A40099F205097D3BA30FA9FED5BF9387F9FFF7
:1005B40093F7F70F6361FC0C83C71C04130730081F
:1005C400631FF70437070800636BEB04B3079B0052
:1005D400B706100063F5D704334BEB0089476393E8
:1005E400F9068980D549E38C04ECDA850945413B59
:1005F40011090327C9FF91472320E480030764807E
:10060400E34E07FE23033481FD17EDFBFD14110BAC
:1006140081C49377FB0FE9FF7D3371F5E1B5B7171B
:10062400004003C75704B70708001377070219E30C
:10063400B78707007955E378FBEA33079B00E3FFAC
:10064400E7F855B58547E382F9F2DA852D45053B90
:100654009389F4FFE38504E6293393F7390091EB9A
:10066400832604800327090093074900E39AE6E4FC
:100674003E89CE84F1BFB5476396F9001305900B0C
:10068400C93135BDB1471305B00AE38BF9FE99476B
:100694006391F904B7050800B365BB002D45C53166
:1006A40081448D4BA1497539639674018327048075
:1006B4002320F9008504E39834FF8327048013176B
:1006C4002B01635507002312F900D5BB2322F9003F
:1006D400FDB39D476399F90281451305B004453183
:1006E400BD442320090023220900FD599D3993F7B5
:1006F4007400CA9703C70700FD14398D2380A7002F
:10070400E39634FF6DBBA1476392F9046D398144CC
:10071400630D0B008D479304C0036308FB0093042F
:10072400000563048B01930440041375C507E308B3
:1007340095D81945393139390545213126850D3981
:1007440009453D314931E31C05D669BB914763999D
:10075400F90013056006F536F53E130590090DB74B
:10076400E38F09D4F154A9BB176700000347771638
:10077400914763E2E7149767000083C7E717918BFB
:10078400639B071297670000938747F79043976628
:10079400000083C6F6F2814763CED706011122CC4E
:1007A400176400001304C4F1584426CA06CE9767A0
:1007B400000083C757F6976400009384A4F463652C
:1007C400F70C6800974001E0E780E0A1FD57630A59
:1007D400F50C32479767000083C7F7F363F6E70A1F
:1007E4005844634107048D2132475C446373F70026
:1007F400BA8717670000034717F2998F3E958387DE
:10080400440163C60702B707C0A86362F502B707CD
:10081400405771A01397170032970357070041EF11
:1008240085079DBF03874401635507061D8D176423
:1008340000001304A4091C4C81CF97670000938720
:10084400E70C94433707CDFF7D179C46F98F9CC670
:1008540019E13705C0A8DC50829719E91C4C8DC7F3
:1008640097A001E0E780A0F3979001E0E780404083
:100874001C4C99CB97670000938747099843B706A8
:1008840033001C47D58F1CC7F2406244D244056133
:100894008280E37DF5F83707C0A8B307F7403E959B
:1008A40079B75C44E3C207FE452617670000034797
:1008B40097E65C4499B7828019CD91CD09CE8147E2
:1008C4003387F500834607003307F50085072300C7
:1008D400D700E397C7FE828019C991C909CA910557
:1008E40083A7C5FF11057D16232EF5FEC5BF8280A3
:1008F400854715C18DC105C28147B306F50033870D
:10090400F50083C60600034707006398E6008507E1
:10091400E315F6FE85473E8582808147EDBF7971F8
:10092400976700009387C7DD22D4804306D626D27A
:100934004AD04ECE52CC56CA5AC85EC67DC08144F7
:10094400176B0000130B4BE017690000130989DBD8
:10095400176A0000130ACAD6B709C0A8B70A4057D5
:100964008357240085E35C4481EC17670000232946
:10097400F7D8832BC4002285EF1080575E8461A0D2
:10098400DCC4C5BF83270B0082971C44636FF50248
:100994003307F540635E07020327490219CF0307B3
:1009A4004901635F07003387A7408327CA00637642
:1009B400F7009767000023ABE7D0A2844044A1A0CE
:1009C4000147E384A7FECE97F9BF898F63DE07064C
:1009D4009767000023AC07CE835524000345040029
:1009E400977000E0E78080185C405844B1C7144415
:1009F400B6978306490163C5060063E33701D697BA
:100A04001CC4A2843A8429FC97670000938747CBCF
:100A1400DC4711476376F704F117176700002327B3
:100A2400F7CAB250225492540259F249624AD24A45
:100A3400424BB24B4561828091E49767000023A149
:100A4400E7CC05BFD8C435B7032749023DD70327F0
:100A5400CA00E3F4E7F6176700002329F7C6B1BF1D
:100A64009767000023A407C66DBF411122C4176411
:100A74000000130424C71C4006C626C291C78297EF
:100A84009767000023A007C65C4091C382971C406F
:100A9400639E07169767000083C797E3858BF9CF9A
:100AA40097670000A38607E217670000034777E211
:100AB400914763FDE700EF00B0569767000083C7D6
:100AC40057E1F5178A07A2979C438297976700001E
:100AD4009387C7C2984317660000034676BEBE8458
:100AE4009767000083C7C7BD93961700BA9683D64D
:100AF4000600D1CE9767000083C787BC63E3C70AAB
:100B040097670000238E07BA1C406391071097670C
:100B1400000083C737DC91CF9767000083C777DB7A
:100B240089EB97670000A38707DA979001E0E780D5
:100B3400205397670000938727C19C43E1CBFD575F
:100B4400176700002324F7B8D93B97670000938701
:100B540067BBDC5391C3093997670000938787BE4D
:100B64009C43CDC7829797670000938767B59C4BDA
:100B74003E959767000023ADA7B449A89767000086
:100B840083C787D7918BB9D3EF10601A81B78507D4
:100B940093F7F70F976600002384F6B2E3E2C7F4F5
:100BA40091BF86073E9797670000938767B3835585
:100BB40007009C432310070017650000034545B058
:100BC40013172500BA979C4382979767000083C741
:100BD40027AF139717009C40BA9703D70700598D86
:100BE4002390A7009767000083C787AD91C7850747
:100BF400176700002306F7AC17670000034747ACEC
:100C04009767000083C7D7ABE37CF7EEB24022447A
:100C1400924441018280AD6737C70040BD07232657
:100C2400F7200F10000097670000938767A9884F8B
:100C340083278726BD66BD0693C7F7FF99836A0598
:100C44002326D7205D8D82804111B7170040985F1D
:100C54003AC6945F3247E39CE6FE32454101828006
:100C64000327850F19E3054582808347C50093F761
:100C7400C70F2306F500034687008356C700931564
:100C84008601E18563D8050A137816008355E518B3
:100C94006302080613E617002306C50063F8D502AD
:100CA4000348A502A30AB50017660000034696A6EA
:100CB4006376C80093E717012306F5008D8E23168B
:100CC400D7008547A30CF50001458280104309CE67
:100CD4008345A502176600000346D6A363F6C50044
:100CE40093E717012306F500A30AD5008947A30457
:100CF400F700C1BF13E8270023060501E3F5D5F685
:100D04008D8E130810F813661600A304070123043C
:100D1400C7002316D7008346A502176700000347C0
:100D2400779F63F6E60093E727012306F500A30AFD
:100D3400B50041BF054893E527006314060193E518
:100D440017002306B500A30AD5008947A304F700BA
:100D54001C43A5DB0347A5029767000083C7979B45
:100D6400E371F7F693E505012306B50099BF97678C
:100D74000000938727B29C43411122C406C6858B89
:100D84002A84CDEB4165130525F5974001E0E78002
:100D9400401E4DC18347A5002315F5008327041089
:100DA400A5E72320A4102322A4108547231CF402C2
:100DB400232005008347640154412316F5000347AB
:100DC400D4002304E50017670000130727B0184F69
:100DD4001385170215811C437D151375F50F9CC2ED
:100DE4005C43DCC21C479CC65C47DCC61C4B9CCAEB
:100DF4005C4BDCCA1C4F9CCE5C4FDCCE19CD938679
:100E0400060213070702C1BF8327441088C3835710
:100E140084032322A410850751BF9767000083D75A
:100E2400E7B7850717670000231AF7B6B2402244D4
:100E3400410182808347C40023090400054593C708
:100E440047002306F400DDB78347E50193F7E70F76
:100E540091CB014582800145B2402244924402492B
:100E6400410182808347F501EDF78346250103475D
:100E7400C50089CA0346A5029767000083C7D789BE
:100E84006367F60093770701E9D7814789C6418BE9
:100E94008357C51801C703570519BA97DDDB1767D0
:100EA40000000347678741111316870106C622C451
:100EB40026C24AC06186635006069387C71313D4BB
:100EC400570097670000938767AB83A687089764EA
:100ED400000083C404857D59B705C0A883A74608CC
:100EE40003D78607635B06043387E74063732701F0
:100EF4003A899442E5F6976700009387E7849C4318
:100F04008297E36AA9F43305A94026943334850013
:100F14001345140091B7058B9387C71209CB8A0731
:100F24001384F7039307D0073354F40259BF860799
:100F34001384F7019307D003C5BFE3F7E7FAAE972D
:100F440065B717660000130666A3032786086304C3
:100F54000746797126D2975400009384A47A838833
:100F640044018325060906D622D44AD04ECE52CC5B
:100F740056CA5AC85EC601457D583703C0A88326A1
:100F840047088357870763D20812B387F64063F58F
:100F94000701BA853E880545184375F309C5976767
:100FA400000023A5B7A60324060985691759000084
:100FB40013098979370AC0A8B70A4057054B9389A2
:100FC400B94783270900832B440882976370752FE0
:100FD400035784079757000083C7A774B38BAB40AC
:100FE400BA9763EE771F83574403A30E0400228548
:100FF4008507231AF40283470412C5CF8D21228565
:10100400973001E0E780A04551E58386440123053C
:101014000402832744080355840763DE0608B38962
:10102400A74003270408232E3407BA9763C9060090
:10103400B706C0A863E5D700B7064057B6978346FE
:10104400B4002322F4088547639FF60683572407D8
:10105400035604036369F606034604016315D606C2
:101064008326840FADE283268409B1EE0346F4009F
:101074009306000C6319D604B387E7020327840898
:10108400B3D7E70217570000034797690507BA97D4
:10109400231CF406B250225492540259F249624A73
:1010A400D24A424BB24B45618280E3F0F6EE9A9607
:1010B400E9BD1926A9B7E3F4A7F6B709C0A8BE99F4
:1010C400B389A940B9BF83270900829797570000C5
:1010D40083C787641397870161876358070833853B
:1010E400A94079C1832604086370D50C63550708A9
:1010F4001605B717004083C7F702E207E18763C309
:1011040007004115175700001307077E1443B567FE
:10111400BD07DCC60F1000001C4306050967E8D3B1
:1011240098C7130700F8975600002383E67A3D67B3
:101134003D07D8C7979001E0E78040EF979001E022
:10114400E780C0FF0347B400854781456313F70474
:10115400178501E0130565CE977000E0E78080DB1A
:10116400930700FD2307F40035B7E3FAA9F6B706A1
:10117400C0A8B699ADB7858B99C79307803E330550
:10118400F5021581BDB79307D0033305F502058138
:101194008DB7175501E01305A584977000E0E7802B
:1011A40060D7930710FC7DBF0347B400854703A3B2
:1011B40004036317F7009545E30E03EC154529A0D6
:1011C400E30A03EC954519452254B250925402594E
:1011D400F249624AD24A424BB24B4561028363D61A
:1011E4000B068357440322858507231AF402834799
:1011F4000412B1CBAD242285973001E0E78020268C
:101204000327040883274408BA97038744016345E6
:10121400070063E34701D6972322F4088347B40009
:10122400639767012285977001E0E780C06B83476D
:10123400D40185458507A30EF4009C58E38307D8A1
:1012440015458297BDBB8D2A7DB783572403175755
:1012540000000347674C93168701E1868E0763D726
:1012640006021307204EB387E7029583E3F477E37E
:10127400A1452285973001E0E780E0152302A4020E
:1012840003A304038945E31B03F229B5058B11C7A6
:1012940013078002B387E702D1BF05671307B74777
:1012A400B387E702938707049D83C9B78357240351
:1012B400175700000347474693168701E186B30B8F
:1012C40075418E0763D0060A1307204EB387E702E1
:1012D400958363F2FB0C83270900829783574403A9
:1012E400AA8B22858507231AF40283470412C1CBF3
:1012F400BD222285973001E0E7806016E31C05D803
:101304000327040883274408BA97038744016345E5
:10131400070063E34701D6972322F4088347D401E7
:1013240013F7070F39CF2285973001E0E780E0CA31
:10133400A30E040083274408E3FFFBF88347B400AB
:10134400639567050357240783570403E3FBE7C644
:101354002285977001E0E78000599C58E38307C613
:101364008D45F9BD058B11C713078002B387E702CA
:101374008DB7B3873703938707049D8399BF2D28BF
:101384008DBF8507A30EF40075B79C58E38B07C285
:101394008D4519457DB5E3CF0BCEA1452285973008
:1013A40001E0E78040032302A40203A30403E30350
:1013B40003CE914521B58280797126D206D622D4F6
:1013C4004AD04ECE52CC56CA5AC85EC6834785020E
:1013D40003447511AA843E941374F40F93074002D6
:1013E40063F687001304B4FD1374F40F03AA841185
:1013F40083AAC411A38B841022865285D685973084
:1014040002E0E78020F3058915E503CBD4100149F8
:101414008149337B6403930B50024A865285D685F7
:10142400973002E0E78000F1058915C563916903EF
:101434001374F90F238B8410B2502254925402591E
:10144400F249624AD24A424BB24B456182808509D5
:10145400E20993D989410509E31179FDE1BF8327A5
:10146400C50803564503797193D60701BD8EC2069C
:10147400C182358E1357764093575640898B058B1E
:101484005D8F93573640918B5D8F93571640A18B98
:101494005D8F93171600C18B5D8F9317360093F7FA
:1014A40007025D8F931756009355860093F7070440
:1014B4001E065D8F1376F60F518F93D7554013D6C2
:1014C4003540118A898BD18F13D67540D18F13D6AD
:1014D4001540218AD18F13961500418AD18F139616
:1014E400350013760602D18F139655001376060441
:1014F4009E05D18F93F5F50FCD8FA20745465D8FDD
:101504003307C70222D42A8426D252CC56CA032ACD
:101514008411832AC4115AC806D6369742074183D8
:1015240093577740135557400989858BC98F1355B5
:1015340037401189C98F135517402189C98F131555
:1015440017004189C98F1315370013750502C98F18
:101554001315570093558700137505041E07C98F8B
:101564001377F70FD98F13D5354013D75540118909
:10157400098B498F13D57540498F13D5154021899F
:10158400498F139515004189498F139535001375BB
:101594000502498F13955500137505049E05498F5F
:1015A40093F5F50F4D8F2207D98FB387C7024AD021
:1015B4004ECE5EC662C4B697C207C18313D77740C6
:1015C40013D557400989058B498F13D537401189A5
:1015D400498F13D517402189498F139517004189E5
:1015E400498F1395370013750502498F13955700DA
:1015F40093D58700137505049E07498F93F7F70F5A
:10160400D98F13D5354013D755401189098B498F8C
:1016140013D57540498F13D515402189498F1395EA
:1016240015004189498F1395350013750502498FBB
:1016340013955500137505049E05498F93F5F50F11
:101644004D8F2207D98FB387C702130650025285E4
:10165400D685B697BD8E93940601C18033F6C40235
:10166400137BF60F973002E0E780C0CC05890DEDBF
:101674008347D41001498149B3849702130C500263
:10168400C1804A865285D685973002E0E78080CAB9
:101694000589937BF90F11C563863403850993F992
:1016A400F90F0509E31F89FD230B6411B25022547D
:1016B40092540259F249624AD24A424BB24B224CEA
:1016C400456182805E8BCDB70111975700009387E7
:1016D400E72A22CC03A4C70A26CA06CE2AC42EC6E9
:1016E400854419E40145F2406244D2440561828094
:1016F40003471400834791006304F7000044D5B7FF
:1017040019469305A10013052400EFF06F9EE3171B
:1017140095FE0545C9BF175700001307A7181443C2
:10172400411122C69C5E4AC226C49983858B3A84A1
:10173400175900001309C916C9C39C5E97540000C9
:101744009384C41893F7F7F99CDE9757000083C776
:10175400E71793F7070499CB975700009387C7FEC1
:101764009C4382979757000023AAA71685471757CB
:101774000000A30FF71483C7440093F7070491EF05
:1017840097570000938747169C43D844F8D3930790
:1017940000FC17570000230DF71283C764001307DA
:1017A4000008631CF700832709009C439983858BF9
:1017B400ADE397570000238E07101C40985F1183F8
:1017C400058B09CB985F3D9B98DF05479756000032
:1017D4002380E610985F1D83058B11CB985F1377E8
:1017E400F7F798DF8547175700002303F70E832781
:1017F4000900D8430583058B19C7D843759BD8C303
:10180400D843799BD8C33244A2441249410173009E
:101814002030930700FC17570000230CF70A71BF10
:10182400175700001307870A83470700858B89EB46
:1018340083471700858B89E783474700858BEDD75E
:101844008280175700001307E70514439C5E9583B5
:10185400858BC5EF09C69C5ABD832300F600C5C914
:1018640083471500CDC7411106C61756000003462D
:1018740046069306000C6304D6029757000093872C
:10188400E70483C56700975700009387A7E79C5B2D
:101894001305300882970945B240410182803E9584
:1018A40083479500854613F6F706630AD6009757D3
:1018B4000000938727E59C5B9305D00FD1BFE20717
:1018C400E1870945E3CA07FC1C43985B4607935725
:1018D40067016359070293E707C01387970F42070D
:1018E40041839306201F0145E3E8E6FA1387E19F4D
:1018F4000317070009C7BA970947B3C7E702239F2D
:10190400F19E59BFC207C187C9BF054582801C43E8
:10191400985B4607935767016359070293E707C02B
:101924001387970F420741839306201F014563EDF8
:10193400E6001387E19F0317070009C7BA97094711
:10194400B3C7E702239FF19E8280C207C187C9BF44
:1019540049E597570000938727F99443411122C41E
:1019640006C62E873E84FC52FDFF3A85B2859780D9
:1019740001E0E780604A975700009387A7F29C43F1
:10198400B70680009843558F98C3D857719BD8D712
:101994001C40094798C3B7F700E003A707D16D9B24
:1019A40023A8E7D003A707D15D9B23A8E7D0730042
:1019B400501017570000130767F183472700858BE2
:1019C40089EB83473700858B89E783474700858BFD
:1019D400EDD7B2402244410182808D476310F50463
:1019E40097570000938707EC9C43B7068000984301
:1019F400558F98C3D857719BD8D717570000130732
:101A0400E7EC83472700858BBDEF83473700858B41
:101A1400BDEB83474700858BEDD782808547E31E66
:101A2400F5FC97570000938727EC944335673D07EF
:101A3400D8C60F100000175700001307A7E6144379
:101A44000946984231830D8B6313C702984393066A
:101A5400E04374D3984389671CC7930700F89756EB
:101A640000002387F6E6BD67BD075CC779B79842D7
:101A7400944331830D8B09E713076019F8D2D9BF5A
:101A84001307E01BE5BF82805D712AC62EC486C69B
:101A9400978001E0E7808059978001E0E780006A41
:101AA40097580000938808E083A7080017530000A4
:101AB4001303C3E53706330023A40700984B370EFE
:101AC400FCFF370F04001367F70398CB9843914F3B
:101AD4007D1E1377F7E798C398438542930E8002DF
:101AE4001377F7E71367071098C38326030032457B
:101AF4009846518F98C6175700001307E7DE18431E
:101B04009306900D014634CB1377F51FE84FF57615
:101B1400FD16137505E0598DE8CF9843758F98C36A
:101B2400A245814703A70800032803009376F60F14
:101B3400231C0704231007060325C80275992326CE
:101B4400A802032807001375F607137808F833650D
:101B5400A80008C348533365E50148D303558705F6
:101B6400E3FEAFFE48533375C50148D30357070658
:101B7400280832951377F70F2300E50019EF13D7E0
:101B840036002E97034507009D8AB396D200850739
:101B9400C98E93F7F70F2300D7000506E314D6F98F
:101BA400854611488548130380026363F80401469F
:101BB400814728083295034505001377F60F63E142
:101BC400A602135537002E95034E05001D8B33973F
:101BD400E80085073367C70193F7F70F2300E50093
:101BE4000506E31866FC850693F6F60FE39F06FBED
:101BF400B6406161828017570000130727CB8346E4
:101C0400B7019757000083C737CFB69793F7F70FFD
:101C1400FD4663EAF6044C4B97560000A388F6C8C9
:101C24009757000083C797C805473317F70097569F
:101C34000000A383F6CC6D8F1DEF9756000083C67A
:101C4400F6CBB3F6D70213050002814733D6F5006D
:101C5400058A13F8F70F09CE6399E6009757000039
:101C6400A38607C5828081177DB705071377F70F11
:101C74008507E39DA7FC8280975700009387C7AC34
:101C84009C43011122CC4EC606CE26CA4AC852C471
:101C940056C2829797570000938747C5804781496A
:101CA4006305A406BE84975700009387A7A50387FE
:101CB40047013E8963550706018D13545500975714
:101CC400000083C747C09379F501636DF402370AB6
:101CD400C0A8B70A405705379C449756000083C6EE
:101CE40086BE139756003E9783074901158C63C53A
:101CF40007006363470156979757000023ACE7BE7C
:101D0400E37BD4FC1604B3693401F24062444E858B
:101D1400D2444249B249224A924A05618280E37D13
:101D240085F8B707C0A833848740229579B79757B9
:101D34000000938767A19C43411122C406C626C2B2
:101D4400829797570000938767BA80476309A40670
:101D5400BE84975700009387E79A8387470163D827
:101D64000704018D135455009757000083C7A7B586
:101D74006367F404493598449757000083C7A7B4B0
:101D84009396570036971D8C9756000023A4E6B609
:101D9400E372F4FE2244B240924417550000034516
:101DA400F5B08145410117B301E06700A388E37AE8
:101DB40085FAB707C0A833848740229565B7B24037
:101DC400224492444101828097570000938707B4CC
:101DD4009843B75702009387079F832607091396F2
:101DE4005600635806008326070913966600634469
:101DF4000600FD17FDF3828021670507AA87639714
:101E0400E50003C7C19E014565E382800145E5C342
:101E1400F9CD8D07C207C183F19BC207C1831307A4
:101E24004003636FF702175700001307E7B3084333
:101E3400175700001307C7B214436398A602175735
:101E440000001307278C185B014555C34111C207D5
:101E540006C60545DD8D0297B240014541018280E9
:101E640017570000130707B0D9B7035765003DEBB8
:101E7400035745006368F706B306F7402146175831
:101E840000001308A8AE637AD6028328050003264F
:101E94000800938687001D8FAA9661172392E60097
:101EA40023A016012393060014C1130786FF2312EF
:101EB400F5009756000023ABE6AA21672313B5006B
:101EC40005076397E50003C7C19E7D172386E19E3E
:101ED400832508002105B387F54017570000232701
:101EE400F7A88280084191BF014585F782808280EE
:101EF4000DC197570000938727A703A3070097579F
:101F040000009387E7A583A8070001479A8763E346
:101F14001701828003A807006369F50A6367A80AAA
:101F240093868700E367D5FE03D66700A16685061E
:101F34006317D60083C6C19E85062386D19E975516
:101F440000009385A5A2944103D64700239307007C
:101F5400B29617550000232BD5A0638A6702175544
:101F64000000130525A008416303F502035567002B
:101F740019ED8357470023200701A1063E96210649
:101F84009757000023A4D79E2312C700BA8798430B
:101F9400E30117F9975600009386C69C9442E30A1E
:101FA400D7F683566700B5F683D647000356470035
:101FB4001843A106B29698C32392D7009C41A10767
:101FC400175700002324F79A82803E87C28781B77F
:101FD4000111975700009387679A22CC03A4470BFB
:101FE40026CA4AC84EC606CEAA84130925008549C6
:101FF40015C083C7140003473400858B6304F700BE
:10200400405CFDB71946930544004A85EFE05F8EB6
:10201400E31835FF2285F2406244D2444249B24972
:10202400056182804111975700009387279522C448
:1020340003A4470B26C24AC006C6930425000549DB
:1020440001E82285B240224492440249410182803F
:10205400A6851305A402972002E0E78000E1E302CD
:1020640025FF405CF1BF411197570000938707910A
:1020740022C403A4470B26C24AC006C69304250003
:10208400054901E82285B2402244924402494101B3
:102094008280A6851305A401972002E0E780E0DC96
:1020A400E30225FF405CF1BF0111975700009387BD
:1020B400E78C22CC03A4470B26CA4AC806CE2AC4FE
:1020C4002EC6B284054919E001453DA0034791009D
:1020D400834734006318F702194693054400130537
:1020E400A100EFE0FF80631F2501A6851305A4026C
:1020F400972002E0E78060D7F2406244D24442492C
:0821040005618280405CC1B757
:10210C00971100209381C1DA176100201301C1EEF1
:10211C001305400097E5FF1F938505EE1706002079
:10212C00130606FE63FAC5008322050023A05500A2
:10213C0011059105E3EAC5FE1755020013058567E5
:10214C00970500209385C5FB1386818C63FAC50027
:10215C008322050023A0550011059105E3EAC5FE75
:10216C001385818C975500209385C58F6377B500B7
:10217C00232005001105E36DB5FEFD42739002BCF2
:10218C008D42739042809302800873A0023097E2D4
:10219C00FF1F938262E693E23200739052309752A3
:1021AC0000009382621673901234730020303D430A
:1021BC002A876373C3029377F700BDEFADE593767F
:1021CC0006FF3D8ABA960CC34CC30CC74CC74107DB
:1021DC00E36BD7FE11E28280B306C3408A069702F6
:1021EC00000096966780A6002307B700A306B700E9
:1021FC002306B700A305B7002305B700A304B70057
:10220C002304B700A303B7002303B700A302B7004E
:10221C002302B700A301B7002301B700A300B70046
:10222C002300B700828093F5F50F93968500D58D2A
:10223C0093960501D58D61B7939627009702000000
:10224C0096968682E78086FA9680C1171D8F3E96F9
:10225C00E374C3F8A5B782803D897D15954763EE7D
:10226C00A70E174702001307A7040A053A951C414D
:10227C00011106CEBA9782879705002093854543B6
:10228C000545EF801074174502001305A507EF20D4
:10229C00026811A803C725008D47174502001305D6
:1022AC006507E306F7FEF2400561828003C725004F
:1022BC009547E31AF7FE03D5A500239CA18083C79D
:1022CC00018399E3EFE0616085472386F18C174524
:1022DC0002001305250565BF03C725008D47E314D0
:1022EC00F7FC174502001305A50455B783C7250055
:1022FC00114717450200130525056384E7041947A8
:10230C00639AE70283C5650017450200130585052E
:10231C002386018CEF20624BF957239CF180854773
:10232C001306F100854513055030A307F100EFE0CB
:10233C00C12D95BF1547E394E7FE17450200130521
:10234C002504EF20C25CE1BF83C5250017450200C0
:10235C0013058504EF206247B9B78280011123056C
:10236C00A1003400214685450D4506CE23140100FD
:10237C00A305010002C6EF10505BF240056182809C
:10238C00011106CE22CC3A883E87B1E28D67938745
:10239C00D7A42A8EAE88328383460800631EF600CB
:1023AC008947639BF50085473544639DF600834759
:1023BC000700898BA387F18C1A86C6857285EF205E
:1023CC00C0212A842285F2406244056182808547BF
:1023DC006396F600C286EF20E025E5B789470144F5
:1023EC00E392F6FE1306F100854513055030A30762
:1023FC000100EFE08121F9B701119397050122CC7F
:10240C0006CE26CAC1872E8463DC070003C5A181D2
:10241C00EF50C03519C1EF50C02E2165218D3DA064
:10242C0093F7150013C5150095E393F7450085C781
:10243C0083C7A1811307803E814613060005C14561
:10244C0003D58181EFD0716713454400F24062449B
:10245C00D2440561828093F785009DC3014789466C
:10246C000946814503D58181EFE06148AA8517456E
:10247C000200130565E5EF20423513458400F9B7DA
:10248C0093F70501C1CF6C0013055030A305010073
:10249C00EFE0A1050347C10085476319F700130658
:1024AC00B100854513055030EFE02116970400204C
:1024BC0093840420A6850545EF80B05031E91305BF
:1024CC00C002854603C651808545EF30803A83C7EC
:1024DC00540003D58181FD17A386F18CC167F917D0
:1024EC006307F500EFE0613EF957239CF1808347C9
:1024FC00C1000547639BE7001306B1008545130532
:10250C005030A305F100EFE04110134504013DBF2D
:10251C0083C7D18C8507A382F180D1BF93F72500A7
:10252C00B9C703C5B1811D3D83C7B181850793F739
:10253C00F70F7147636BF7020145A38DF180393DAD
:10254C00B70702009387072074001146854505459F
:10255C003EC6EF10903D1306007D894503C5A18151
:10256C00EF50006713452400D5B59147F1B7939709
:10257C00350163DC0700938701829443114685453E
:10258C000545EF10903A056551BD9397250163DC25
:10259C0007009387C1819443214685450D45EF1073
:1025AC00D0380965A5BD9397150163DC07009387A7
:1025BC0041829443054685450945EF101037116556
:1025CC00B1BD93F7050299CF17460200130646D109
:1025DC0081450145EF30205485472387F18C134505
:1025EC000402ADB593F705040145E38107E6938733
:1025FC00818C9043814503D58181EFD0812B13458C
:10260C000404A9B501118D6585461306F100938567
:10261C0015802D4506CE97E0FF1FE780C0DD834770
:10262C00F10019476373F7008547F240A382F180EC
:10263C0005618280797122D40D6406D6A307A100AE
:10264C001304148085461306F100A285294597E0F2
:10265C00FF1FE78040DA85461306F101A2852D4560
:10266C0097E0FF1FE78020D90347F1018347F10072
:10267C00E31AF7FCB2502254456182800111170510
:10268C0000001305A5D706CE22CC26CAEF50F017B2
:10269C009384A18105442380A40070008545130513
:1026AC00503023068100EFD05176138681809D45F2
:1026BC0013056030EFD0717517060020130646A580
:1026CC00D54513057030EFD0517417460200130630
:1026DC00E6C1D5450145EF902052894770009145E0
:1026EC00130570402305F10023048100A30481002D
:1026FC00A305810002C6EFC01129300085451305E2
:10270C000040EFC051281306910085451305104079
:10271C00EFC071271306A100854513052040EFC0BB
:10272C0091261306B100854513055040EFC0B12525
:10273C00A9477000854505452306F100EF10A03A26
:10274C00EF105056970500209385859B13850181CA
:10275C00EF10701C03C504008545EF502040F2407B
:10276C006244D24405618280411106C6EF203022BA
:10277C0083C7F1938DC7A38F0192EF20C03A05C197
:10278C0097570200938707FE9C431D4783C727007A
:10279C006384E7046362F7021147638DE702938752
:1027AC00418D9C431307200385076369F702B240F0
:1027BC0023AAF18C410182805947638BE70069475A
:1027CC00E39FE7FC8547172700202325F734C1BF7B
:1027DC008947D5BF8D47C5BF9147F5B7B24023AAEE
:1027EC00018C41016F40F04C411106C683C74196E4
:1027FC0003C7C18D6307F704238EF18C17460200C3
:10280C00130606ED89E717460200130626BF81451D
:10281C002145EF30E00F03C7419683C7C18C630499
:10282C00F7002389E18231CB03C7F18DD98FB1C772
:10283C0083C721831305800391C3694505468145F0
:10284C00B1A083C7C18C03C7D18D6309F708A38ED0
:10285C00F18CA9C317460200130606E8814513053F
:10286C006002EF30E00A83C7419603C7C18C6384D2
:10287C00E7002389F18291C345FF014681456945F3
:10288C00EF30801F0146814513058003B2404101A2
:10289C006F30801E17460200130646B6814513059D
:1028AC006002EF30E00603C7E18C8547E31DF7FAC1
:1028BC00174602001306C6B4814501452387018CD7
:1028CC0023A4018CEF30202505661306062C9305F6
:1028DC00000203C51183EF50A02F71B783C7F18D90
:1028EC0003C7E18D6307F702238FF18C17460200B3
:1028FC00130606DF89E7174602001306E6B081458A
:10290C0013059002EF30C00083C7419603C7F18DC9
:10291C00B9BFB24041018280411106C6EF107073FD
:10292C0083C7E18C99E3EF10F076371700408327CB
:10293C00470C83C64193B98393C71700858B638774
:10294C00F6028327470C1167F98F13B71700238AF8
:10295C00E1928DE3174702001307C7E69146130671
:10296C001005814513058004EF20D07FB240410152
:10297C006F1070679146130610058145130580048E
:10298C00EF308004E5B703C7419685476314F70021
:10299C006F403011828015456F0070144111939671
:1029AC002500AA852D4506C697E0FF1FE780A0A449
:1029BC00B240014541018280411122C426C24AC065
:1029CC002A842E89B284AA859306002001462545C7
:1029DC0006C697E0FF1FE78000A293162900268603
:1029EC00A285294597E0FF1FE780E0A0B240224472
:1029FC0092440249014541018280011122CC06CE4C
:102A0C003714004026CA4AC84EC652C483447405C3
:102A1C00034AB4058349840503499405EF00B009C2
:102A2C008347A40593F4F40F137AFA0F93E7170076
:102A3C00230DF40493F9F90F1379F90FB71700402C
:102A4C0003C7A705058B6DFF03D5C705A38D4705E8
:102A5C00238C3705A38C2705A38B9704F240624483
:102A6C00D2444249B249224A0561828083C74196C9
:102A7C000547639BE70003C721836317F700A14554
:102A8C0003C551886F50800D03C7C18C8547630DFA
:102A9C00F70003C7F18D6319F700930500021725A2
:102AAC0000200345A50EF9BF8280411106C622C441
:102ABC00EF20E06D83C7F1936380070EA38F019223
:102ACC0083C7E18C0544639587021385818CEF20C5
:102ADC00D0286313050C2244B2402387018C03C514
:102AEC00A181130600199305000441016F50400E9B
:102AFC00EF20600311CD83C741966399870403C708
:102B0C0021836315F704914503C55188EF500005E7
:102B1C0083C70194D1C32380019493870182884396
:102B2C000D4681450505EF40106883C74196054762
:102B3C006391E70403C72183631DF702894503C52D
:102B4C0051882244B24041016F50400103C7C18CEF
:102B5C0085476316F700896503C5A18145BF03C787
:102B6C00F18DE317F7FAA14517250020034505025F
:102B7C0071BF03C7C18C85476316F700856503C514
:102B8C00A181C1B703C7F18D6318F700C1451725A3
:102B9C0000200345A5FF75B7B24022444101828055
:102BAC0083C72196B5CF03C741888547631AF706BB
:102BBC002381019683C611968D47639EF602A380EE
:102BCC000196938701829443411106C683C7260060
:102BDC00B307F0402381F60083C74196639FE7005B
:102BEC0003C72183631BF700894503C55188EF4058
:102BFC00F076B24041016F30E02403C7C18C8547A9
:102C0C006316F700856503C5A181D5B703C7F18DA0
:102C1C00E311F7FEC14517250020034525F7C1BF79
:102C2C00828083C741968DC383C7218391CF03C60E
:102C3C00918D83C7018D6389C7002388C18C85451D
:102C4C00130580036F20506883C7C18C91CB83C759
:102C5C00218399E703C6F18C83C7018DE39FC7FCE1
:102C6C0083C7F18D91CB83C7218399E703C6818DEF
:102C7C0083C7018DE393C7FC8280411193970501B3
:102C8C0022C406C626C24AC0C1872E8463DA070056
:102C9C00EF40D02D19C1EF40D0262165218D25A8FC
:102CAC0093F7150013C515009DE793F7250013C581
:102CBC00250095E393F785008DC7938781829C430C
:102CCC0082970966130606F4A14503C51183EF40EC
:102CDC00307013458400B2402244924402494101B1
:102CEC00828093F74500B9C303C75194854797F485
:102CFC00FF1F93842445631DF7009C408297214657
:102D0C00914503C51183EF40B06C13454400E1B706
:102D1C0017F9FF1F1309494283274900829783271C
:102D2C00090082979C448297DC40C9BF93F7050148
:102D3C0099CF93878182DC43829713060006C145A5
:102D4C0003C51183EF40D0681345040169B793F7AD
:102D5C00050281CF173602001306C6648145014572
:102D6C00EF20705B13450402BDB79397250163D028
:102D7C000702EF704168053137F60200130606E0D2
:102D8C00896503C51183EF40B064096501BF939752
:102D9C0015010145E3D107F4173502001305C5658C
:102DAC00EF10F23613060064916503C51183EF40F2
:102DBC0030621165E5B51D71494697350200938562
:102DCC00A55E174502001305254E86CEA2CC97E0D2
:102DDC00FF1FE78060B101E9173502001305055E9E
:102DEC00EF10F23201A0B7F600E0795798CAFD5700
:102DFC00DCCA0567B7E700E023A0E7101306F00272
:102E0C0090C223A0E718010001001306C0038145FE
:102E1C004808EF40503997270020938767093ECA2E
:102E2C00896793870780231CF100ED47A301F1020A
:102E3C0035449307501081460146814521452312A4
:102E4C00F1022303810297D0FF1FE780C05AA167CC
:102E5C00938707E03ECE97070000938767B4BEC404
:102E6C0097070000938787B5BEC689472304F102F4
:102E7C00971700009387678C3EDAB7F50700970722
:102E8C0000009387C7B73EDE814697070000938703
:102E9C00C7B07000E1051945BEC02308810297D068
:102EAC00FF1FE780405558088147994670003E96B1
:102EBC000346060085070507A30AC700E398D7FE5B
:102ECC00D24791C70357810185676373F70001A04F
:102EDC004808EF504017AA8501C9173502001305A1
:102EEC00254FEF10920E01A0F640664425618280BA
:102EFC00130101DE2D46973502009385E51A280053
:102F0C00232E1120232C8120EF10D2001306D01F6A
:102F1C00814513053101EFF08FA91705000013054A
:102F2C0005D6EF50800E138411832300A400EF30DC
:102F3C00A01CEF205044EF10700DEF30202F854572
:102F4C002800EF30400BEF20C01BEF40E025852C14
:102F5C000345040037F60200130606E08965EF40CE
:102F6C0030472800EF10B21A1736020013064648F5
:102F7C0085450945EF20D019130630058545514587
:102F8C00EF209009EF40001585462A868545694556
:102F9C00EF20300E13064004854513056002EF2028
:102FAC00B007EFF02FE6854603C651808545130523
:102FBC00C002EF20100C0146854513058003EF205D
:102FCC00B030174702001307E7828D461306B0078F
:102FDC0081451305B005EF20F018340017360200B8
:102FEC001306464181450145A3070100EF20B0328D
:102FFC000345040005661306062C93050002EF40FA
:10300C00303D8320C12103248121130101228280C0
:10301C00011122CC26CA4AC806CE0D49AA84328494
:10302C00630C250791476309F50889476315F50279
:10303C002EC6EF800131B2458547173502001305C6
:10304C00E53C6388F500639495021735020013057F
:10305C00A53CEF10D20B6244F2404249A685D24403
:10306C00173502001305053F05616F1002768305C5
:10307C000400173502001305653BEF1002758347FA
:10308C001400E39A97FC83472400E39627FD8347BB
:10309C003400238CF18CC1B785471735020013051A
:1030AC00E5366389F500094963902503173502005D
:1030BC0013058536EF10B205914517250020034501
:1030CC00E5ACEF40B02941BF83050600173502007F
:1030DC0013050537EF10626F83471400E39E27FD3D
:1030EC0083472400E39A97FC83473400238CF18CAC
:1030FC00E1B741119397050122C406C6C1872E84FE
:10310C0063DD0700EF40806619C1EF40805F2165E9
:10311C00218DB24022444101828093F7450095C72E
:10312C00EF8021229306F00F1306F00F89451385CB
:10313C004183EF703144AA8517350200130585339E
:10314C00EF10A26813454400E9B793F705018DC34E
:10315C00EF80211F9387018288439306F00F13069B
:10316C00F00F95457D15EF7011121345040155B7FD
:10317C0093F785008DC3EF80C11C9387C181884371
:10318C009306F00F1306F00FA5457D15EF70B10FE8
:10319C0013458400BDBF93F705020145BDDBEF80ED
:1031AC00411A9387418288439306F00F1306F00F60
:1031BC0089457D15EF70310D1345040299BF8D655E
:1031CC0085461386F18D938525802D4517D3FF1FDA
:1031DC0067006322797122D40D6406D6A307A1007F
:1031EC001304248085461306F100A285294597D047
:1031FC00FF1FE780402085461306F101A2852D456F
:10320C0097D0FF1FE780201F0347F1018347F10090
:10321C00E31AF7FCB250225445618280797113068F
:10322C00000281450A8506D6EF40E07717050000BD
:10323C00130565ECEF40705D972700202388A79459
:10324C00B7477671938797123EC4B757550093874B
:10325C0057553EC6B7D72500938707783EC285677A
:10326C00938707842310F10097070000938787DA70
:10327C003EC80A85ED57230EF100EF700171AA8547
:10328C00173502001305C51DEF102254B2504561CD
:10329C008280B717004003C777051A0592054D8D3C
:1032AC001377E70F13653500A38BE7041375F50F40
:1032BC00A38CA7048280B717004003C77705137748
:1032CC00E70FA38BE704130700F8A38DE7043D4732
:1032DC00238CE70413075003A38CE7048280B716F2
:1032EC000040130670052380C604930780FA2380E0
:1032FC00F6040100010003C7F60213678700A387D9
:10330C00E60203C7F6021377770FA387E60203C71B
:10331C00E6021377C70F2387E60203C7E60213679B
:10332C0017002387E6022380C6042380F6040100DD
:10333C00010003C736057D78930E481F1377870F5E
:10334C00A389E60403C7360537160040116E1367D0
:10335C001700A389E6042380F60483C7360511679A
:10336C00130F400893E70702A389F60483D70605D9
:10337C001308281B930F3004D98F11672398F60478
:10338C007D179147894213037005930880FA834691
:10339C003605A18AEDDE8356060583463605A18ADD
:1033AC00EDFE83560605B3E6C6012318D604834604
:1033BC003605A18AEDDE8355060583462605F98D73
:1033CC00B306D702B695B386D5016371DF04FD173A
:1033DC0093F7F70F85CFC29593961500B3C6F603F6
:1033EC006352B00285068586230066042300160509
:1033FC00010001008355C602AE96C206C182231697
:10340C00D60271B7FD16B3C65602F9BFB716004007
:10341C0083C7360513873605A18BFDDB83D70605DD
:10342C0083D706051166D18F2398F6049307700590
:10343C002380F604930780FA2380F6040100010030
:10344C008347070093F7870F2300F7008347070094
:10345C00C98F93F7F70F2300F70037170040834706
:10346C003705A18BEDFFB717004003C73705218B3C
:10347C006DDF83D6070583C7270511667D16F18E90
:10348C003306F60285659307C003138705C8369685
:10349C00938605FAB396A600B386F602A1679385C8
:1034AC00559CB3C6F6029307803EB386F602B3571B
:1034BC00A740B306D640B387D702B3C7B702635150
:1034CC00D0048507094793067005B3C7E702371781
:1034DC0000402300D704930680FA2300D7049607F4
:1034EC00010001008356C702B697C207C183231699
:1034FC00F7028347370593F7F70DA309F70482808A
:10350C00FD17C9B7914763EEB702173702001307CF
:10351C00A7F78A05BA959C41BA978287B7170040DE
:10352C0003A7470B1345F5FF698F23AAE70A03A7E7
:10353C00070B698F23A8E70A03A7070A798D23A035
:10354C00A70A8280B717004083A6470B1347F5FFE5
:10355C00F98E23AAD70A83A6070B558D23A8A70A91
:10356C0083A6070A758F23A0E70A8280B71700404D
:10357C0003A7470B498F23AAE70A03A7070B134599
:10358C00F5FF45BFB717004083A6470B1347F5FF60
:10359C00758F23AAE70A03A7070A598D4DB7B717EA
:1035AC00004003A7470B498FEDB7914763EEB70275
:1035BC0017370200130787EE8A05BA959C41BA9714
:1035CC008287B717004003A7470D1345F5FF698F96
:1035DC0023AAE70C03A7070D698F23A8E70C03A701
:1035EC00070C798D23A0A70C8280B717004083A607
:1035FC00470D1347F5FFF98E23AAD70C83A6070DA9
:10360C00558D23A8A70C83A6070C758F23A0E70C58
:10361C008280B717004003A7470D498F23AAE70CF8
:10362C0003A7070D1345F5FF45BFB717004083A649
:10363C00470D1347F5FF758F23AAE70C03A7070C5B
:10364C00598D4DB7B717004003A7470D498FEDB7FC
:10365C009357E50093F70730C98FC2070547C1831D
:10366C006382E5048DC10947638DE5040D476380D2
:10367C00E50637170040231FF70883562709D58F17
:10368C002319F7088280371700400356670993C641
:10369C00F7FFF18E231BD7088326C70C558D2326E5
:1036AC00A70CC1BF371700400356670993C6F7FF35
:1036BC00F18E231BD7088326870C558D2324A70C4A
:1036CC004DBF3717004083566709DD8EE1B73717BA
:1036DC00004083566709DD8EE9BFB717004003D75A
:1036EC00870109C5D98D239CB700828093C5F5FF4E
:1036FC00F98DD5BFB717004003D58700420541812E
:10370C009377050491EB9377F5013755E801130591
:10371C0005803345F50282809377050C130700046E
:10372C006397E7009377F50137459C1CCDB721656E
:10373C00130505D08280B7F700E08847CC4782801C
:10374C00814737470040A14663C4C7003285828059
:10375C000345B7C0E38EA6FE3385F500034505008F
:10376C0085072304A7C0CDB712059A054D8D1365A7
:10377C00C5001375F50FB72700402380A740828042
:10378C00B727004001E5A38007408280239CB74007
:10379C00239EC740154791E20547A380E7408280EE
:1037AC00411122C406C62A84B1372947B307E50262
:1037BC00B2408D83B3D7870222449507B3D7E70273
:1037CC0037470040C207C1832316F7C041018280EE
:1037DC00716541111305052006C6D937B74700405E
:1037EC00130770F82381E7C00D47A381E7C01307C7
:1037FC000004A380E7C005472387E7C0B24041011E
:10380C008280B7870040238007001307C0FC238603
:10381C00E700A386E700171700200357E737239824
:10382C00E7001717002003576737239AE70017178D
:10383C0000200357E735239CE70017170020035798
:10384C006735239EE70089462381D70249472383A6
:10385C00E7022385E7022387E7022389D702A381A6
:10386C000700130790022380E700B716004003D728
:10387C00A6011367070C239DE6007D572383E70001
:10388C00130710F8A380E7001D472381E70082800F
:10389C00B78700402382A70203C767021377C70FBD
:1038AC002383E7028280B78700402384A70203C7E3
:1038BC00A7021377C70F2385E7028280B7870040E2
:1038CC002386A70203C7E7021377C70F2387E702F4
:1038DC008280B78700402388A70203C7270313778A
:1038EC00C70F2389E70282809387C18E9C43011105
:1038FC0006CE22CC91C38297938701938043938702
:10390C00018F9C4313150401418181C72AC68297FC
:10391C00324583D781836379F50403D7A183637818
:10392C00A7049386818E03A30600630603006244FA
:10393C00F240056102838507998F13950701418138
:10394C00935725001315040141816544198D3305E6
:10395C0085021384F7FF22953345F5021375F50F95
:10396C00F24062440561828013054006D5BF0145D3
:10397C00C5BF03A84500411126C206C622C4834711
:10398C00180003480800A944A207B3E70701C207BF
:10399C000D68C18713082890639607038547328406
:1039AC00EF801034AA8419ED9387418E9C4399CBF8
:1039BC0003451400034704002205598D13351500E7
:1039CC0005058297B24022442685924441018280AB
:1039DC002D453DE7D841411122C426C206C6834776
:1039EC00170003470700B684A207D98F0D6793060B
:1039FC0097A132846396D702C53D83C761836374F4
:103A0C00F500238BA18285472390F40083C7618343
:103A1C002300F4000145B2402244924441018280CB
:103A2C00130787902945E398E7FECC4589472390F7
:103A3C00F4000946228597D0FF1FE78060E7D9BFC5
:103A4C00828083474500858BADC7011122CC2A8427
:103A5C0003552500938581A606CEEF80302305897A
:103A6C0029C503552400014781460546ED45EF80E5
:103A7C00205D2AC61DC997E7FF1F9387676D83D703
:103A8C00A70201462C002314F10085472315F100F1
:103A9C0083C761832300F50003552400EF90207D3C
:103AAC0009C5ED452800EF806071F2406244056164
:103ABC008280828041654111938581A67D1506C661
:103ACC00EFA0806AB24097E6FF1F9386666D414671
:103ADC00954517E5FF1F1305A56741016FA0E05D34
:103AEC0023A2A18E8280411122C406C685470944B7
:103AFC006311F5028347060001442380F18E03C74E
:103B0C0061836378F700170500001305C5F3EFC058
:103B1C0050152285B24022444101828085476301C1
:103B2C00F50209C909476302E5020D476306E50280
:103B3C000945828083C761832380F500014582801B
:103B4C009387018E83C70700C5BF97E7FF1F83D7F5
:103B5C00C7602390F500DDB71387C18303570700B7
:103B6C002392E50017E7FF1F1307875E8356A70212
:103B7C000357A7032383F5002390D5002391E50079
:103B8C0075BF411106C68D3383C76183637AF50017
:103B9C00238BA182170500001305E5EAEFC0700C1A
:103BAC00B24001454101828041677917630CE502FF
:103BBC00411122C406C685472A84639AF5002285E2
:103BCC002244B240938581A641016FA0E0598947F8
:103BDC006396F5008545EFC0500375D1B240224481
:103BEC00410182808280CC41411106C6328503C6D8
:103BFC00150083C5050022064D8E42068D65418653
:103C0C00138875A2630C060F6348C804138845A279
:103C1C006306060B634AC800938535A26309B60692
:103C2C0023900600294679A0138855A26308060B39
:103C3C00938565A2E316B6FEC1451D4663ECE50609
:103C4C004546198E63F3C7003E862390C600973510
:103C5C0002009385E58689A8138895A26300060F58
:103C6C00634E060B1388A5A2630A060F938505A560
:103C7C00E318B6FA99451D4663EEE502198E63F317
:103C8C00C7003E862390C6009385418431A89D458C
:103C9C001D4663E1E5022146198E63F3C7003E869B
:103CAC002390C6009385418FBA9597D0FF1FE7806C
:103CBC0020C00146B240328541018280AD451D468F
:103CCC00E3EAE5FE3146198E63F3C7003E86239086
:103CDC00C6009735020093856582F9B7B1451D463C
:103CEC00E3EAE5FC3546198E63F3C7003E86239064
:103CFC00C60097350200938565817DB7C1451D4689
:103D0C00E3EAE5FA4546198E63F3C7003E86239035
:103D1C00C600972502009385E57B79B7C1451D4602
:103D2C00E3EAE5F84546198E63F3C7003E86239017
:103D3C00C600972502009385657EBDB7C1451D461B
:103D4C00E3EAE5F64546198E63F3C7003E862390F9
:103D5C00C6009725020093852579B9B7B5451D4650
:103D6C00E3EAE5F43946198E63F3C7003E862390E7
:103D7C00C600972502009385A5733DB797E6FF1FF4
:103D8C009386C6554146CD4517E5FF1F13050542E1
:103D9C006FA0A0328280938701919C4303C741900E
:103DAC0083C6F18501E781473E85828003D60700F3
:103DBC006316A60003C66700E308D6FE7D171377CB
:103DCC00F70FA107C5B7B2862E86AA851725020064
:103DDC00130585796F00721F0111930500030D45C2
:103DEC0006CEEF50E079930500051145EF50407970
:103DFC009305C0030545EF50A07885471306F100E5
:103E0C00854513055030A307F100EFC01100F240B7
:103E1C0005618280938781909C43328791C703A36D
:103E2C00870063030300028309CB13060019930573
:103E3C00000203C5A1816F30B05982808547631C95
:103E4C00F5001166130686A9894517150020034550
:103E5C0025D56F30F05789476319F500894517153B
:103E6C0000200345E5D36F30307F8280854763980F
:103E7C00F50019E2238FB18E238AC1908280094705
:103E8C006399E50019E6238FF18E03D5C18F6F007E
:103E9C005008828001119397050126CA06CE22CCC8
:103EAC004AC84EC652C4C187AE8463D907081715D9
:103EBC0000200345E5CEEF30700B2A8439C9034747
:103ECC0005009307000D6313F7048347250045474E
:103EDC00638BE7046547639BE70217250200130514
:103EEC002565EF00920E130954009309B400172AAC
:103EFC000200130A2A658345090052850509EF0063
:103F0C00D20CE39A29FF2945EF0032102285EF30BD
:103F1C00407F2165258DF2406244D2444249B2492A
:103F2C00224A05618280034665008345750017258A
:103F3C0002001305A561EF005209C9BF93F71500E4
:103F4C0085C317E6FF1F1306263A938501851715BF
:103F5C0000200345E5C4EFC0E13C13C5140065BF68
:103F6C0093F725000145C5DB29391166130686A98F
:103F7C008945171500200345A5C2EF30704513C5C0
:103F8C00240051BF797126D24ECE06D622D44AD007
:103F9C0052CC9147AA84AE896314F50483D7A5004B
:103FAC001306E100854513055030239EF18E23073F
:103FBC000100238F018EEFC04165938781909C4354
:103FCC0091C7DC4781C7CE8526858297B250225493
:103FDC0023A0919002599254F249624A4561828021
:103FEC00138701901843E31AF7FC854503D5C18F5D
:103FFC00653E854503D5C18FEF006077C16703DA55
:10400C00C18FF917631BFA0205449305E1001305F0
:10401C005041238F018EA38F818423070100EFA0D1
:10402C00916F8347E100B1E303C741919147E316D8
:10403C00F7F85D33238A019049B79387019103A95F
:10404C00070003C4419069D00355290011C9930599
:10405C00E100EF80502A09C54C455285EFA0C010F5
:10406C007D141374F40F2109F9BF9387C1909C43FD
:10407C0083C74700898BCDDB9305000A0D45EF50B4
:10408C0020509305000A1145EF50804F814505459E
:10409C00EF50004F1306E100854513055030230700
:1040AC008100EFC0815649B70111170500001305B7
:1040BC00A5DE06CE22CCEF30507517140020130469
:1040CC0024AE85471306F10085452300A400130593
:1040DC004041A307F100EFB0010B7D55EF70B03FED
:1040EC007D55EFA040055939EFF0DF9CD52B170516
:1040FC0000001305E5D4EFF0BF9E17050000130573
:10410C00A5C92925034504008545EF303025F2402B
:10411C0062440561828023A4B19023A6A190828081
:10412C0023A8B1902382A1908280938701909C4315
:10413C00797106D622D426D24AD04ECE52CC114713
:10414C00639BE70483C7E18F414481CF938701913F
:10415C008043B284B68983C7419003C7F18599EB3C
:10416C0055442285B250225492540259F249624A63
:10417C004561828083464400639AA60083465400BE
:10418C006396B600834664006380E606FD1793F7DA
:10419C00F70F2104E9B709474144E384E7FC2C00FD
:1041AC001305504123040100EFA0F1568347810011
:1041BC008DCB930500020D45EF50803C9305000319
:1041CC001145EF50E03B95450545EF50603B854769
:1041DC0030008545130550302304F100EFC0E14257
:1041EC0049B7DD3E4144B5BF03552400930561003A
:1041FC00EF80701035D54C4503D5C18FEF80002969
:10420C00058939DD139904011359090101478146C8
:10421C004A86ED4503D5C18F035A0400EF705062F6
:10422C002AC64D441DDD2686CE8523144101231557
:10423C00210197C0FF1FE780A06701462C0003D522
:10424C00C18FEF90C0022A84E30D05F0ED452800E4
:10425C00EF70D07639B7C841011122CC06CE32842A
:10426C0003461500034505002206498E19CB0D683F
:10427C001308B8A42D45630A0607F2406244056191
:10428C0082800D651308D5A463000603130825A2CC
:10429C00630C060175781308E85C329842081358D1
:1042AC000801854863EF080303D5A50036C632C460
:1042BC00EFF07FAEB24615C1938781909C432246A6
:1042CC008345550003A30700A2876244F2400345CF
:1042DC00450036878546056102832390060001451B
:1042EC0069BF1308B5A46317060303D661861D4581
:1042FC00E375C7F8198E63D3C7003E86CC4523906F
:10430C00C60042064182BA95228597C0FF1FE780FE
:10431C00205AF1B79307A5A46318F6009147239090
:10432C00F6001146CC45CDB7930785906317F60080
:10433C0089472390F6000946F5B79307E5A4631A5D
:10434C00F600DC452390160183C707002300F40018
:10435C0079B713057590E314A6F8D9BF011122CCD7
:10436C0006CE26CA4AC82317D1002D4431EBDC41B6
:10437C002E89B28403C4170083C7070022045D8C06
:10438C008D679386D7A46306D400938627A3631006
:10439C00D4040355A900EFF01FA019E101440DA0AE
:1043AC00938781909C43834555000345450003A8A2
:1043BC0007002286A6871307E100814602982A840B
:1043CC002285F2406244D244424905618280938640
:1043DC00C7A46314D4028357E10005473544E39125
:1043EC00E7FE0345060013040008E3EBA7FC9387E4
:1043FC0081909C43DC43829755B793862790631A30
:10440C00D4028356E1008547EF80800D2A844DF954
:10441C00938701918356A9009C4303C741903DDFCC
:10442C0003D627006302D6047D171377F70FA10775
:10443C00FDB79387E7A4E313F4F68357E100054730
:10444C003544E39FE7F60345060013040008E3E94F
:10445C00A7F6DC452380A700938781909C433335D6
:10446C00A0000905DC4341BF13878190184303C5A5
:10447C00470083C5570083C714000328070003C7F0
:10448C000400A2078946D98FC207C18705476383F9
:10449C00E7008D460D66A6871307E10013062690EC
:1044AC00029839BF411122C441641305F4FF93856E
:1044BC0081A906C626C24AC0EF90104B1305F4FF23
:1044CC00938581A8EF90504A1305F4FF938581A73B
:1044DC0097E4FF1F938404E2EF90104997E6FF1FC7
:1044EC00938646FF4146F9452685EF90103DCC4C0E
:1044FC002A890945EFF08FE213870187938781871B
:10450C00834507000346170083D7070003D7A41081
:10451C00138481AA2312F4002314E40083D7A40C7F
:10452C0003D7A411A306C400A30EC40003D6A4177A
:10453C002310F4002315E40083D7A40D13874187BF
:10454C008346070003D5A41403471700231CC4009B
:10455C0003D6A4182311F40085472303F400230782
:10456C00F400230AD400230BF400231DC4002302FF
:10457C00D4022306B400A30AE4002318A400230EDB
:10458C00B40023190400230F0400A302E40203D790
:10459C00A41A2307F402231104022310E402138744
:1045AC00C1860357070023030402231504022316B4
:1045BC00E40203D7A41C938581AD0D452314E402BA
:1045CC00EFF0CFD5A2852145EFF09FB5B240224444
:1045DC004A8592440249410182808D67138527A345
:1045EC006301A6049387D7A40145631EF60089478F
:1045FC00639CF500854735456397F60083470700B4
:10460C00238DF190014582808D472945E39DF5FE70
:10461C0085473545E399F6FE83470700238CF190D7
:10462C00D5B785473545E390F6FE83470700A38B46
:10463C00F190C9BF8D67138527A36308A6029387E2
:10464C00D7A46317F6028947639BF50083C7A19132
:10465C002300F70085472390F600014582808D47A3
:10466C006398F50083C78191E5B783C77191CDB786
:10467C0023900600DDB70145828025E303A84500A1
:10468C00AE888347180003480800A207B3E7070168
:10469C000D68930EF8A4639AD70391473548639F2E
:1046AC00F60203A5C8004111B285114606C697C093
:1046BC00FF1FE780E01F938781929C4305458297FB
:1046CC00B2400148428541018280930828902948D4
:1046DC006396170185476F70B0602D4842858280C4
:1046EC0041654111938581AE7D1506C6EF90D027AB
:1046FC00B24097E6FF1F9386A6E44146994517E51D
:10470C00FF1F1305E5DD41016F90301B23A4A1921F
:10471C0082800111938581AE22CC06CE2A84EF7063
:10472C00F056058929C1014781460546ED4522858C
:10473C00EF7010112AC605C997E7FF1F938747DA58
:10474C0083D7A70501462C002314F10085472315B8
:10475C00F100230005002285EF80703109C5ED457D
:10476C002800EF70B025F2406244056182804167F9
:10477C007917630CE502411122C406C685472A84C9
:10478C00639AF50022852244B240938581AE4101A3
:10479C006F90901D89476396F5008545EFB0F04604
:1047AC0075D1B24022444101828082800567930713
:1047BC0097E763F8A702930617EC854763F1A60207
:1047CC009306B7F0894763FCA600930637F58D472F
:1047DC0063F7A6009307D7F9B3B7A70091073E85F7
:1047EC0082808147EDBFB7170040170700201307E1
:1047FC00473B2394E706170700201307C73B239674
:10480C00E706130710FCA380E7068280411185455B
:10481C00116506C6EFE07FD9814513050010EFE066
:10482C007FCE89450145EFE0DFA6B7170040314741
:10483C00238CE7040547238DE704A381070665371E
:10484C00B24003C5118313060064A14541016F30CA
:10485C002038170700201307C734970600209386CB
:10486C0086358147035607000907B297E31CD7FE2C
:10487C002947B3D7E7021387C19218439386870C55
:10488C0063E9E60013870193184323A6E19223A85A
:10489C00F192828001114EC69389019322CC03A41C
:1048AC00090052C406CE228526CA4AC8013793870E
:1048BC00C1922A8A8843330485409357F4413D8C36
:1048CC001D8CED35631345039307100363CA870CE6
:1048DC00814513058007EF00906C85451305000E8C
:1048EC00EF00506985450145C1A817270200130741
:1048FC0067F08D461306B00781451305B005EF1020
:10490C00600681451305D005EF007069814485452B
:10491C00639344051305D005EF0070688144639ED2
:10492C00440589451305D005EF0070678144E38D7C
:10493C0044F985452145EF00F06311497D19854502
:10494C002D451379F90FEF00F062E31909FE850488
:10495C0093F4F40FE9BF4145EF00D06111497D1983
:10496C0085451305000D1379F90FEF00B060E318BE
:10497C0009FE850493F4F40F59BF85450145EF00FA
:10498C00705F11497D1985451305F00F1379F90FE7
:10499C00EF00505EE31809FE850493F4F40F41B761
:1049AC00814513058007EF00905F85451305100EB8
:1049BC00EF00505C85452D45EF00D05B8D45130510
:1049CC00F005EF00D05D624403A60900F240D2442A
:1049DC004249B249224A91468D451305F0050561BD
:1049EC006F0030694111930640051706002013062D
:1049FC00E62189652D4506C697C0FF1FE780A09F5D
:104A0C00B240896593064005170600201306C61AA6
:104A1C00938505402D45410117C3FF1F6700A39DDA
:104A2C00411193064005170600201306261E8965C2
:104A3C00294506C622C497C0FF1FE780C09B896525
:104A4C001374F50F93064005170600201306C616BF
:104A5C0093850540294597C0FF1FE780C099418D7C
:104A6C00B24022441375F50F4101828001111306E7
:104A7C004005972502009385E5C81705002013050E
:104A8C00E51806CE22CCEFF0F14813064005972529
:104A9C000200938565BA170500201305E511EFF0A8
:104AAC007147BD3F0D641306F100930504808546E4
:104ABC002945A307010097C0FF1FE780C0938547D6
:104ACC001306F1009305148085462945A307F100D0
:104ADC0097C0FF1FE78020921306F10093052480F6
:104AEC0085462945A307010097C0FF1FE780A090CA
:104AFC00F24062440561828097070020938707117A
:104B0C00970600209386460B03C737056318B7003A
:104B1C00A389A704FD17E399D7FE19B7E31CA7FED9
:104B2C00A389B704C5BF411106C683C7E19363824D
:104B3C00072417D7FF1F0347B75F631C072285465F
:104B4C00A387D19497D7FF1F83C7875E03C7C193F1
:104B5C0089EF19C3014531AE238ED19283C7D1930E
:104B6C0093F7070FA38EF192F5B789466310D7021E
:104B7C0003C7D19391466315D700A38EF194D9BF87
:104B8C00A146E319D7FCA386F194E9B719466398BB
:104B9C00C700238ED19283C7D193B18BE1B7D54691
:104BAC00639BD7009307100B6302F71C930710FB52
:104BBC00238EF19285A0C5466399D7009307200BED
:104BCC006306F71A930720FBE5B795466399D70060
:104BDC009307000B630CF718930700FBD1BF9306E8
:104BEC00D002639CD7029307100C6301F71893074C
:104BFC0010FC238EF19293874182984383470700E0
:104C0C0093E707012300F70097D7FF1F9387C7523D
:104C1C009C478297A38E019235BF9306E002639264
:104C2C00D7029307000C6303F714930700FC238E41
:104C3C00F1929387418298438347070093E787005B
:104C4C00D1B79306C0046398D7009307E00F630FA6
:104C5C00F710F957B1BF930650036399D700930728
:104C6C00000D6305F710930700FD99B7DD466399B6
:104C7C00D7009307100D630BF70E930710FD0DBFB4
:104C8C00930670026398D7009307000E6300F70E2B
:104C9C00815739BFF9466398D7009307100E630705
:104CAC00F70C855731B7FD466398D7009307200E54
:104CBC00630EF70A8957EDBD930600026398D7007F
:104CCC009307300E6304F70A8D57DDB59306100277
:104CDC006398D7009307400E630AF7089157C9BD34
:104CEC00930620026398D7009307500E6300F708D1
:104CFC0095577DBD930630026398D7009307600EDD
:104D0C006306F70699576DB59306A0036398D70011
:104D1C009307000F630CF704C15759BD9306B003FA
:104D2C006398D7009307100F6302F704C55749B572
:104D3C009306C0036398D7009307200F6308F7020C
:104D4C00C957BDB59306D0036398D7009307300FAE
:104D5C00630EF700CD57A9BD9306E0036398D70007
:104D6C009307400F6304F700D15799B5238E019236
:104D7C0055B503C7F1940545631DA70E639B070E3C
:104D8C00A387019483C7C1939306000E6380D72435
:104D9C0063E0F60C9306200B6387D71463EDF604DF
:104DAC000947638EE70E6369F702E395A7DA83C7B9
:104DBC00D193C10793F7F70F13070005E394E7DAD4
:104DCC00A38E0192238E01925531172602001306F1
:104DDC00E68B81450145C5AA1307000B6380E712DA
:104DEC001307100BE398E7D6238E019297B0FF1FA1
:104DFC00E780E04D85B31307100C6388E710636FF1
:104E0C00F7001307000CE397E7D4238E01929387E6
:104E1C004182984383470700DD9B01A21307000DD5
:104E2C00638DE7121307100DE396E7D2238E0192E0
:104E3C0083C7418813B717002382E1881726020025
:104E4C001306C687D9D7172602001306A68751B7B3
:104E5C001307200F6384E7246360F7021307000F26
:104E6C00638AE71E636BF7201307600E01456377B7
:104E7C00F71CB240410182801307400F6382E72682
:104E8C0063EFE7221307E00F6382E70A1307F00FC3
:104E9C00E392E7CCA38E0192238E019265B983C76E
:104EAC00D193910793F7F70F3147E39DE7CA171694
:104EBC0002001306667E81450145A38E0192238E66
:104ECC000192EF00504505661306062C930500026F
:104EDC0003C51183EF20D04F83C5D19503C5D19461
:104EEC00EFF09FC185B9238E019283C7F18D0145E7
:104EFC006383E7000545EFE0EFADCDBD238E019256
:104F0C0097B0FF1FE7800038B1B1238E01929387D1
:104F1C004182984383470700BD9B2300F70097D736
:104F2C00FF1F938767219C4782972DB1238E019297
:104F3C0083C7519481EF85472382F1949727000012
:104F4C009387672B23A4F188EF20005083C75194DB
:104F5C0093B71700A382F194F5BE238E019283C7F9
:104F6C00C18C03C7F18DD98FE39607BE83C701832C
:104F7C0093B717001386018385451305503023889A
:104F8C00F182EFB08168AA861DC1171602001306C4
:104F9C00667181450145EF00103805661306062C35
:104FAC009305000203C51183EF20904265B683C7B9
:104FBC000183171602001306666F89E717160200A5
:104FCC001306466F8145EF001035C1BF03C5218321
:104FDC0013351500238E01922389A18283C7419634
:104FEC008DCB83C7C18C03C7F18DD98F9DC3F94776
:104FFC003305F502014681456905EF00F02783C7AB
:10500C0021831305800391C3694505468145EF0053
:10501C00B02683C72183171602001306266BE39A6A
:10502C0007DA83C7F18D171602001306A66AE3820E
:10503C0007DA171602001306666A61BB938707022C
:10504C00A382F1801306401F238E0192C14503C534
:10505C00A18199BF2382A1941716020013068668BA
:10506C0085455145238E0192EF00900A9727000049
:10507C009387A7AA23A4F188F1BC2382A1941716C5
:10508C0002001306666685455145238E0192EF009A
:10509C00300897270000938707AAE9BF2382A194C1
:1050AC00171602001306866485455145238E01921E
:1050BC00EF00100697270000938707B765BF238280
:1050CC00A194171602001306A66285455145238E3E
:1050DC000192EF00F00397270000938767BF59BF39
:1050EC002382A194171602001306C660854551450C
:1050FC00238E0192EF00D00197270000938707CAF7
:10510C0095BF411106C622C426C2EFF0BF8D938411
:10511C008194FD5717070020A300F7B49C40371467
:10512C000040914593E7C70F23A4F1940327840C07
:10513C00D98F2324F40C8840EFE02FC79C40032721
:10514C00840C971602009386A64B93F7F7F7D98F2A
:10515C002324F40C138781931C43171602001306A7
:10516C00A64D8C429106CD8FE39DC6FE23ACF192E9
:10517C00B716004003A6860A2244B240D18F23A45E
:10518C00F60A92440843854541016FE0AFB703D757
:10519C0021949307F7FF5D71C20786C6A2C4A6C20D
:1051AC00CAC04EDE52DC56DA5AD85ED662D466D20B
:1051BC006AD06ECEC183DD4663E6F616E147631016
:1051CC00F702970700209387279F171602001306F4
:1051DC00A6528545094523A0F188EF00607383D75B
:1051EC00219485072391F194138481AF971B0200BE
:1051FC00938B0B41814AA284938C0188170C00205D
:10520C00130CCCA0170900201309099B9389C187A3
:10521C0017DBFF1F130B4BF119473387EA0203CA45
:10522C00C194B716004003A60B0083A6460AF18E64
:10523C00B307E400D29783C50700639C051ED1E633
:10524C0083A70C0083C6C1873E979D47529763F88E
:10525C00D700034607009307F00D63F8C70699477C
:10526C003386FA028545B387C400D2972380B700F2
:10527C00938781888C4397270000938767A5639B4E
:10528C00F502971702009387274DB297D29783C7E1
:10529C0007001306F00F638FC7000D463386C70255
:1052AC00938781DDB2973D462381C700A380C70059
:1052BC002380C7000546A38FC1928347070093053F
:1052CC00F00F6390B70E238FC192850AB947910BEB
:1052DC00E394FAF403C7C1949306170093F6F60F00
:1052EC002386D194971702009387474C0A07B7156A
:1052FC0000403E9703A6850C1843518F23A4E50C60
:10530C0015476374D7002386019483C6C1948A061B
:10531C0037160040B6970327C60C9C43D98F23261B
:10532C00F60C8DA083C7B195E38007ECFD1793F7BE
:10533C00F70FA38DF194E39907EA17D4FF1F130419
:10534C00A4DE814493099003154A194983478400CC
:10535C00639E370133069A4093059400130584002D
:10536C00EFF0413B97D7FF1FA38607DC85040504AC
:10537C00E39E24FD83C7C187FD17238EF1868547E5
:10538C00A38FF192B640264496440649F259625ACC
:10539C00D25A425BB25B225C925C025DF24D61615F
:1053AC0082801306F00E6374F602172702001307AF
:1053BC00A73B1443938707F1054703C60600B317B1
:1053CC00F700D18F2380F6002380E194FDBD1306F6
:1053DC00F00D637FF6000547938707F2B317F700CC
:1053EC0003476B00D98F17D7FF1F2302F7D4F1BDEA
:1053FC009947B387FA02E2973E9A03460A0093074D
:10540C0090036316F60085472391F1947DBD938735
:10541C001600238EF18683470700DA962383F60065
:10542C0083D7219493B7970193C71700238EF194D8
:10543C0069BDE38C06E8238007008547A38FF192B2
:10544C0083A70C009306F00FBA97D29783C7070077
:10545C006395D700238F01928DBD9306F00E63F2F6
:10546C00F60217270200130727301443938707F11E
:10547C00054703C60600B317F70093C7F7FFF18F74
:10548C0091B79306F00D63FDF6000547938707F27D
:10549C00B317F70003476B0093C7F7FFF98FA1B75A
:1054AC00B307EC00D29783C7070093069003639E63
:1054BC00D70403D72194E14763FBE70017160200DA
:1054CC00130606F38545094523A08189912183C7DD
:1054DC00C19591C703D72194E14763E3E70283C7E2
:1054EC00C1871D47636EF7001147A38DE1941387A5
:1054FC001700238EE186DA97130790032383E700C6
:10550C0023910194238E0194C9B34A9717DDFF1F91
:10551C00130D8DC1954D3A9AFD5603478D00638648
:10552C00E70003460A006310E6026E8693059D00B1
:10553C0013058D003EC6EFF0E11D97D7FF1FA38B1F
:10554C0007BEB247FD56FD1D050DE398DDFC83C774
:10555C000900FD17238EF1868DBBB70703040111DB
:10556C00938717203EC2B7070708938757603EC43E
:10557C00A5472316F10006CE22CC26CA17D7FF1F4B
:10558C00034707BB9306A00283C7E1946310D706B9
:10559C00138741958DC3FD1793F7F70F2387F1946C
:1055AC00BA9723800700938701959C43A946B3D7EC
:1055BC00D70223A8F1948307070099EF171602006E
:1055CC00130606D281450145B92305442285F240D4
:1055DC006244D2440561828093864195171602007D
:1055EC00130646E1814501453D23C5B799466394B1
:1055FC00D704930780020544E31AF7FCAA84171614
:10560C0002001306A60F81450145312305661306DA
:10561C00062C9305000203C51183EF20605B938772
:10562C0001959C4301449CC0238A019423870194D7
:10563C0023A8019461BF930627FE93F6F60F254627
:10564C000544E365D6F814083697034667FD1387BF
:10565C0001951443294781453307D70201453297F9
:10566C0023A8E194138717001377F70F2387E1948E
:10567C0093864195B697130606032380C700369789
:10568C0017160200130606D72300070069213DBF39
:10569C00B717004003A7870C1367071023A4E70C68
:1056AC0003A7870C1367072023A4E70C03A7C70CD9
:1056BC001367071023A6E70C03A7C70C1367072073
:1056CC0023A6E70C8280B717004003A7C70C13670B
:1056DC00071023A6E70C03A7870C1367072023A446
:1056EC00E70C03A7870C1367071023A4E70C828031
:1056FC00371700408327C70C93E707202326F70CA6
:10570C002147B717004093168501E18663DD060437
:10571C0083A6870C93E6061023A4D70C03A6870C4C
:10572C007D1706051366062023A4C70C03A6C70C19
:10573C001377F70F1375F50F1366062023A6C70C06
:10574C009386870C9385C70C5DFF83A7870C93E723
:10575C0007109CC29C4293E707209CC29C4193E794
:10576C0007209CC1828083A6C70C93E6061023A653
:10577C00D70C6DB701112EC606CE22CC2A84093F58
:10578C0013058007B537B245014599C113050004CF
:10579C0085372285B13F6244F24005612DB7411136
:1057AC0022C42A84138505FB1375F50F814506C6A3
:1057BC00D13713554400814513650501653F1375B9
:1057CC00E4002244B24081451365150041015DB7E8
:1057DC00411122C44AC006C626C21304000B130989
:1057EC00800B81452285793781450145613781459B
:1057FC00414549379304000885450145FD149D3FFB
:10580C00E5FC05041374F40FE31D24FDB24022449F
:10581C00924402494101828001119317850122CCE7
:10582C00011606CE26CA4AC84EC6E1871374F60F77
:10583C0063D60700850593F5F50F01458D3719469D
:10584C003304C4028144971902009389A9001949B1
:10585C00B3079400CE9703C5070085458504193F0F
:10586C00E39824FFF2406244D2444249B2490561B4
:10587C008280797152CC138AF6FF22D426D24AD078
:10588C004ECE56CA5AC85EC662C466C206D62A8BAB
:10589C00AE89B28B1374FA0F814C01499304F00F4B
:1058AC00A94A194C631F9404B250225492540259C1
:1058BC00F249624AD24A424BB24B224C924C45615D
:1058CC008280B38757037D171377F70FE31B97FE7F
:1058DC00B3D7FB02B3F7570333858C0313F6F70FDB
:1058EC005A951375F50F6312090263D04C0389EFB7
:1058FC0013060002CE857D140537850C1374F40F46
:10590C0055B722878547C1B7054913060603DDB78E
:10591C00011122CC26CA4AC84EC652C406CE2A84CD
:10592C002E89B2898144130A8007B387990003C674
:10593C00070009EAF2406244D2444249B249224A81
:10594C000561828022851904CA851374F40FE93528
:10595C0063768A0009091379F90F0144850493F4DD
:10596C00F40FE1B7011122CC26CA4AC84EC652C464
:10597C0056C206CE5AC02A89AE84328AB689BA8AF1
:10598C00014463EC3401F2406244D2444249B249CE
:10599C00224A924A024B05618280A6854A850135CE
:1059AC00330B8940B3078B0093F7F70F63E647017E
:1059BC00850493F4F40FF1B7B3878A0003C507008D
:1059CC0085450504453BF9BF011122CC4AC84EC69A
:1059DC0052C406CE26CA2A892E84328AB689636AB4
:1059EC003401F2406244D2444249B249224A056130
:1059FC008280A2854A856533CA8463E64401050426
:105A0C001374F40FE9BF854501458504A53393F460
:105A1C00F40FE5B799473305F5020D8E634BA600DD
:105A2C003305A64009463345C502AA9513F5F50F73
:105A3C00828001458280411126C28D45AA84014590
:105A4C0022C406C613040004993B7D148545014508
:105A5C001374F40F053375F82685EFE0517B1306AC
:105A6C00000481451375F50F75372244B240268624
:105A7C0092448D45410169BD011132C606CE22CC3E
:105A8C0026CAEFF0DFD1324615C6171402001304F4
:105A9C0064DC97140200938444DC0345842285451E
:105AAC000504EFF03FCDE39A84FEF2406244D24409
:105ABC000561828019447D14854501451374F40FEA
:105ACC00EFF05FCB6DF8D5B7011122CC26CA32C6E8
