:040000006F20400825
:100004000000000000000000900000201C020020FE
:10001400A9BDF9F5940000200000000000000000D4
:10002400960000209800002000000000000000005E
:100034009A000020000000009C0000200000000046
:100044009E000020A00000208C020020A4000020BC
:10005400A6000020A8000020AE020020AC00002072
:10006400AE000020B0000020B2000020B400002048
:1000740098020020B8000020BA000020BC00002034
:10008400BE000020C0000020C2000020C4000020E8
:1000940001A001A001A001A001A001A001A001A054
:1000A40001A001A001A001A001A001A001A001A044
:1000B40001A001A001A001A001A001A001A001A034
:1000C40001A001A001A0B71700409306700523808A
:1000D400D704130780FA2380E7040100010003C654
:1000E400B7041376F60DA385C7042380070413769B
:1000F400050251CE03C6A700118A1DE22380D7044E
:100104002380E7040100010003C7A7001367470029
:100114002385E7009307004B01000100FD17EDFF65
:10012400B7170040930670052380D704130780FA9D
:100134002380E704010001007D892394A7000100C6
:10014400010001000100238007042380D7042380D9
:10015400E70401000100372700408546A303D78048
:1001640023800704B7170040130770052380E704B2
:10017400130780FA2380E7040100010003C7B704D2
:1001840013670708A385E704238007048280137696
:10019400050425CA03C6A700418A1DE22380D704AB
:1001A4002380E7040100010003C7A70013670701C8
:1001B4002385E7009307007D01000100FD17EDFF93
:1001C400B7170040930670052380D704130780FAFD
:1001D4002380E704010001007D891365050423944D
:1001E400A70001000100010001002380070423800F
:1001F400D7042380E7040100010037270040894623
:10020400B1BF2380D7042380E7040100010003D792
:1002140087001367070C2394E700A9B781460146BA
:1002240081451145892AB7170040130770052380BB
:10023400E704130780FA2380E704010001007D57D7
:100244002396E70203C76704136717002383E704B1
:100254002380070401A0BD473305F50201007D1585
:1002640075FD8280411122C426C206C6AA840144B7
:1002740063179400B24022449244410182800504F1
:100284001305803E4204C13F4180DDB7974000E042
:10029400E780C05A73002030B717004013070003EB
:1002A4002388E702854723A0F1C6730020309750C6
:1002B40000E0E780C08C73002030230304801547DE
:1002C4002303E48001002302A480828083076480E6
:1002D400E3CE07FE23030480828083076480E3CE99
:1002E40007FE03454480828083076480E3CE07FED3
:1002F4002302A4808280411126C44AC24EC006C68D
:100304001377F50BAD47AA892E8995446306F70048
:1003140019456537653F8D444E854537FD59FD14B4
:1003240063983401B240A244124982494101828057
:10033400135509011375F50F453F2209CDB7011176
:1003440026CC06CEB704080051371545BD377137A2
:1003540069372AC6A53F32459377150089EB1365A3
:1003640015001375F50FF240E24405618280FD1417
:10037400E9FC0145CDBF397126DC4ADA4ED852D6A4
:1003840056D45AD25ED006DE62CE66CCB7E700E021
:100394007D5783AA070022C603AA470023A0E718B3
:1003A40023A2E718B7170040130770052380E7045A
:1003B400130780FA2380E70483C74704930B75FF70
:1003C400B684E20793FBFB0F8546AA892E8B3289FC
:1003D40037240040E187015763FA76016308D500AA
:1003E4008946130700026313D5000157D98F93F789
:1003F400F70FB71C00402382FC0411472303E48059
:100404001305F00F5D3D094CD135636D7C11B705C3
:100414000700DA9537870700795563F2E504B38757
:100424009500636EF702370B0800A94733EB6501AB
:100434006399F90689E48144513D26850DA0DA8546
:100444000945553D05090345F9FFFD14050B693DB3
:1004540081C49377FB0FFDF7DD3569FD7D55B71733
:100464000040130770052380E704130780FA2380F4
:10047400E70403C74704418B2382E704F250B7E73C
:1004840000E023A0571123A24711E25432445259E9
:10049400C259325AA25A125B825B724CE24C2161FD
:1004A4008280A5476395F90685691309F00FB306A1
:1004B4009900B3742B01B6941349F9FFB3749900EE
:1004C400856B33796901416B9387F9FFB3F7270192
:1004D40099E363FC340193D94900C147E3E637FF4C
:1004E40099BF0569C1697D19D9B71305800D638862
:1004F4006901130500026384790113051008CA8594
:10050400DD3B353D21DD4E99B3843441D9B7DA85DD
:100514002D45D533CA94E30099F205097D3BA30F19
:10052400A9FED5BF9387F9FF93F7F70F6361FC0C1E
:1005340083C71C0413073008631FF7043707080038
:10054400636BEB04B3079B00B706100063F5D70495
:10055400334BEB0089476393F9068980D549E38CD3
:1005640004ECDA850945413B11090327C9FF91478A
:100574002320E48003076480E34E07FE23033481D1
:10058400FD17EDFBFD14110B81C49377FB0FE9FFFD
:100594007D3371F5E1B5B717004003C75704B707BA
:1005A40008001377070219E3B78707007955E37842
:1005B400FBEA33079B00E3FFE7F855B58547E38281
:1005C400F9F2DA852D45053B9389F4FFE38504E6CA
:1005D400293393F7390091EB83260480032709001C
:1005E40093074900E39AE6E43E89CE84F1BFB54718
:1005F4006396F9001305900BC93135BDB147130556
:10060400B00AE38BF9FE99476391F904B705080032
:10061400B365BB002D45C53181448D4BA149753966
:1006240063967401832704802320F9008504E398EA
:1006340034FF8327048013172B016355070023120B
:10064400F900D5BB2322F900FDB39D476399F90254
:1006540081451305B0044531BD44232009002322FC
:100664000900FD599D3993F77400CA9703C7070021
:10067400FD14398D2380A700E39634FF6DBBA14799
:100684006392F9046D398144630D0B008D47930423
:10069400C0036308FB009304000563048B01930407
:1006A40040041375C507E30895D81945393139391C
:1006B4000545213126850D3909453D314931E31C74
:1006C40005D669BB91476399F90013056006F536B1
:1006D400F53E130590090DB7E38F09D4F154A9BB76
:1006E400174700000347F7FE914763E2E714974773
:1006F400000083C76700918B639B07129747000034
:100704009387C7DF90439746000083C676DB814713
:1007140063CED706011122CC17440000130444DA37
:10072400584426CA06CE9747000083C7D7DE9744AD
:100734000000938424DD6365F70C6800971001E0E2
:10074400E780A033FD57630AF50C32479747000052
:1007540083C777DC63F6E70A5844634107048D21B5
:1007640032475C446373F700BA87174700000347B6
:1007740097DA998F3E958387440163C60702B707CA
:10078400C0A86362F502B707405771A0139717001A
:1007940032970357070041EF85079DBF0387440144
:1007A400635507061D8D17440000130424F21C4CE6
:1007B40081CF97470000938767F594433707CDFFB0
:1007C4007D179C46F98F9CC619E13705C0A8DC50FB
:1007D400829719E91C4C8DC7978001E0E780C0849B
:1007E400977001E0E78000D21C4C99CB974700003A
:1007F4009387C7F19843B70633001C47D58F1CC7AE
:10080400F2406244D24405618280E37DF5F8370703
:10081400C0A8B307F7403E9579B75C44E3C207FE2E
:10082400452617470000034717CF5C4499B78280D9
:1008340019CD91CD09CE81473387F5008346070052
:100844003307F50085072300D700E397C7FE8280AE
:1008540019C991C909CA910583A7C5FF11057D1658
:10086400232EF5FEC5BF8280854715C18DC105C203
:100874008147B306F5003387F50083C606000347B6
:1008840007006398E6008507E315F6FE85473E8575
:1008940082808147EDBF797197470000938747C6EF
:1008A40022D4804306D626D24AD04ECE52CC56CA43
:1008B4005AC85EC67DC08144174B0000130BCBC8D9
:1008C40017490000130909C4174A0000130A4ABF54
:1008D400B709C0A8B70A40578357240085E35C448E
:1008E40081EC17470000232DF7C0832BC400228519
:1008F400EF1080575E8461A0DCC4C5BF83270B0062
:1009040082971C44636FF5023307F540635E070268
:100914000327490219CF03074901635F070033879F
:10092400A7408327CA006376F7009747000023AFE8
:10093400E7B8A2844044A1A00147E384A7FECE9770
:10094400F9BF898F63DE07069747000023A007B825
:100954008355240003450400975000E0E78060BA03
:100964005C405844B1C71444B6978306490163C533
:10097400060063E33701D6971CC4A2843A8429FC99
:10098400974700009387C7B3DC4711476376F704A2
:10099400F11717470000232BF7B2B2502254925498
:1009A4000259F249624AD24A424BB24B45618280B3
:1009B40091E49747000023A5E7B405BFD8C435B731
:1009C400032749023DD70327CA00E3F4E7F6174794
:1009D4000000232DF7AEB1BF9747000023A807AE50
:1009E4006DBF411122C4174400001304A4AF1C407E
:1009F40006C626C291C782979747000023A407AE74
:100A04005C4091C382971C40639E07169747000081
:100A140083C717CC858BF9CF97470000A38A07CAF1
:100A2400174700000347F7CA914763FDE700EF004B
:100A3400B0569747000083C7D7C9F5178A07A2970E
:100A44009C43829797470000938747AB9843174688
:100A540000000346F6A6BE849747000083C747A656
:100A640093961700BA9683D60600D1CE9747000016
:100A740083C707A563E3C70A97470000238207A437
:100A84001C40639107109747000083C7B7C491CFF8
:100A94009747000083C7F7C389EB97470000A38BF0
:100AA40007C2977001E0E780E0E49747000093876E
:100AB400A7A99C43E1CBFD57174700002328F7A0C3
:100AC400D93B974700009387E7A3DC5391C30939C7
:100AD40097470000938707A79C43CDC78297974702
:100AE40000009387E79D9C4B3E959747000023A108
:100AF400A79E49A89747000083C707C0918BB9D325
:100B0400EF10601A81B7850793F7F70F9746000037
:100B14002388F69AE3E2C7F491BF86073E97974786
:100B240000009387E79B835507009C43231007002D
:100B3400174500000345C59813172500BA979C4331
:100B440082979747000083C7A797139717009C4085
:100B5400BA9703D70700598D2390A7009747000041
:100B640083C7079691C7850717470000230AF794A0
:100B7400174700000347C7949747000083C757945B
:100B8400E37CF7EEB2402244924441018280AD6797
:100B940037C70040BD072326F7200F1000009747F2
:100BA40000009387E791884F83278726BD66BD069B
:100BB40093C7F7FF99836A052326D7205D8D82802A
:100BC4004111B7170040985F3AC6945F3247E39CDF
:100BD400E6FE3245410182800327850F19E305456E
:100BE40082808347C50093F7C70F2306F5000346A9
:100BF40087008356C70093158601E18563D8050AEB
:100C0400137816008355E5186302080613E61700E7
:100C14002306C50063F8D5020348A502A30AB5005C
:100C2400174600000346168F6376C80093E7170142
:100C34002306F5008D8E2316D7008547A30CF500F7
:100C440001458280104309CE8345A5021746000062
:100C54000346568C63F6C50093E717012306F50097
:100C6400A30AD5008947A304F700C1BF13E82700EE
:100C740023060501E3F5D5F68D8E130810F81366E7
:100C84001600A30407012304C7002316D7008346D4
:100C9400A502174700000347F78763F6E60093E7CA
:100CA40027012306F500A30AB50041BF054893E5D3
:100CB40027006314060193E517002306B500A30A71
:100CC400D5008947A304F7001C43A5DB0347A5020D
:100CD4009747000083C71784E371F7F693E505018E
:100CE4002306B50099BF974700009387A79A9C43B2
:100CF400411122C406C6858B2A84CDEB41651305B8
:100D040025F5972001E0E78000B04DC18347A50099
:100D14002315F50083270410A5E72320A41023221C
:100D2400A4108547231CF402232005008347640193
:100D340054412316F5000347D4002304E500174764
:100D440000001307A798184F1385170215811C4339
:100D54007D151375F50F9CC25C43DCC21C479CC611
:100D64005C47DCC61C4B9CCA5C4BDCCA1C4F9CCE4B
:100D74005C4FDCCE19CD9386060213070702C1BF70
:100D84008327441088C3835784032322A410850730
:100D940051BF9747000083D767A085071747000016
:100DA400231EF79EB2402244410182808347C4003F
:100DB40023090400054593C747002306F400DDB763
:100DC4008347E50193F7E70F91CB01458280014505
:100DD400B240224492440249410182808347F50192
:100DE400EDF7834625010347C50089CA0346A502DA
:100DF4009737000083C757726367F600937707013C
:100E0400E9D7814789C6418B8357C51801C7035762
:100E14000519BA97DDDB173700000347E76F411167
:100E24001316870106C622C426C24AC061866350CF
:100E340006069387C71313D4570097470000938778
:100E4400E79383A687089734000083C4846D7D5993
:100E5400B705C0A883A7460803D78607635B0604C3
:100E64003387E740637327013A899442E5F697375D
:100E740000009387676D9C438297E36AA9F4330566
:100E8400A9402694333485001345140091B7058B8B
:100E94009387C71209CB8A071384F7039307D007F4
:100EA4003354F40259BF86071384F7019307D00320
:100EB400C5BFE3F7E7FAAE9765B717460000130618
:100EC400E68B0327860863040746797126D2973494
:100ED400000093842463838844018325060906D68D
:100EE40022D44AD04ECE52CC56CA5AC85EC6014508
:100EF4007D583703C0A8832647088357870763D2E2
:100F04000812B387F64063F50701BA853E880545A4
:100F1400184375F309C59747000023A9B78E032426
:100F2400060985691739000013090962370AC0A840
:100F3400B70A4057054B9389B94783270900832B88
:100F4400440882976370752F03578407973700000E
:100F540083C7275DB38BAB40BA9763EE771F835784
:100F64004403A30E040022858507231AF402834751
:100F74000412C5CF8D212285971001E0E78060D748
:100F840051E583864401230504028327440803555D
:100F9400840763DE0608B389A74003270408232EC9
:100FA4003407BA9763C90600B706C0A863E5D7003B
:100FB400B7064057B6978346B4002322F408854702
:100FC400639FF60683572407035604036369F606F2
:100FD400034604016315D6068326840FADE28326F7
:100FE4008409B1EE0346F4009306000C6319D60499
:100FF400B387E70203278408B3D7E7021737000053
:10100400034717520507BA97231CF406B25022541B
:1010140092540259F249624AD24A424BB24B456158
:101024008280E3F0F6EE9A96E9BD1926A9B7E3F4B7
:10103400A7F6B709C0A8BE99B389A940B9BF832749
:10104400090082979737000083C7074D13978701DC
:101054006187635807083385A94079C1832604084A
:101064006370D50C635507081605B717004083C78E
:10107400F702E207E18763C3070041151737000051
:10108400130787661443B567BD07DCC60F1000005D
:101094001C4306050967E8D398C7130700F8973679
:1010A40000002387E6623D673D07D8C7977001E0DB
:1010B400E7800081977001E0E78060910347B40006
:1010C400854781456313F704175501E0130525602F
:1010D400974000E0E780A07C930700FD2307F4001D
:1010E40035B7E3FAA9F6B706C0A8B699ADB7858BAC
:1010F40099C79307803E3305F5021581BDB7930761
:10110400D0033305F50205818DB7172501E01305DA
:101114006516974000E0E7808078930710FC7DBF58
:101124000347B400854703A304036317F7009545F9
:10113400E30E03EC154529A0E30A03EC9545194594
:101144002254B25092540259F249624AD24A424B52
:10115400B24B4561028363D60B0683574403228551
:101164008507231AF40283470412B1CBAD242285E8
:10117400971001E0E780E0B70327040883274408B9
:10118400BA97038744016345070063E34701D69791
:101194002322F4088347B40063976701228597509C
:1011A40001E0E78080FD8347D40185458507A30ED0
:1011B400F4009C58E38307D815458297BDBB8D2A5C
:1011C4007DB783572403173700000347E73493168A
:1011D4008701E1868E0763D706021307204EB38783
:1011E400E7029583E3F477E3A1452285971001E0B4
:1011F400E780A0A72302A40203A304038945E31BF9
:1012040003F229B5058B11C713078002B387E702E0
:10121400D1BF05671307B747B387E702938707046E
:101224009D83C9B783572403173700000347C72E8C
:1012340093168701E186B30B75418E0763D0060AC6
:101244001307204EB387E702958363F2FB0C8327D1
:101254000900829783574403AA8B22858507231AA2
:10126400F40283470412C1CBBD222285971001E00A
:10127400E78020A8E31C05D8032704088327440833
:10128400BA97038744016345070063E34701D69790
:101294002322F4088347D40113F7070F39CF22859B
:1012A400970001E0E780A05CA30E040083274408B4
:1012B400E3FFFBF88347B4006395670503572407EE
:1012C40083570403E3FBE7C62285975001E0E780D8
:1012D400C0EA9C58E38307C68D45F9BD058B11C749
:1012E40013078002B387E7028DB7B3873703938769
:1012F40007049D8399BF2D288DBF8507A30EF40095
:1013040075B79C58E38B07C28D4519457DB5E3CF6E
:101314000BCEA1452285971001E0E78000952302BA
:10132400A40203A30403E30303CE914521B5828001
:10133400797126D206D622D44AD04ECE52CC56CA81
:101344005AC85EC68347850203447511AA843E9435
:101354001374F40F9307400263F687001304B4FD7B
:101364001374F40F03AA841183AAC411A38B8410E9
:1013740022865285D685970002E0E78000B1058970
:1013840015E503CBD41001498149337B6403930BE6
:1013940050024A865285D685970002E0E780E0AE87
:1013A400058915C5639169031374F90F238B8410A0
:1013B400B250225492540259F249624AD24A424BE0
:1013C400B24B456182808509E20993D989410509B7
:1013D400E31179FDE1BF8327C508035645037971FD
:1013E40093D60701BD8EC206C182358E135776404F
:1013F40093575640898B058B5D8F93573640918B5D
:101404005D8F93571640A18B5D8F93171600C18B88
:101414005D8F9317360093F707025D8F931756007D
:101424009355860093F707041E065D8F1376F60F17
:10143400518F93D7554013D63540118A898BD18F5C
:1014440013D67540D18F13D61540218AD18F1396A8
:101454001500418AD18F1396350013760602D18F79
:1014640013965500137606049E05D18F93F5F50F58
:10147400CD8FA20745465D8F3307C70222D42A8445
:1014840026D252CC56CA032A8411832AC4115AC8BC
:1014940006D63697420741839357774013555740F2
:1014A4000989858BC98F135537401189C98F135505
:1014B40017402189C98F131517004189C98F131546
:1014C400370013750502C98F13155700935587000C
:1014D400137505041E07C98F1377F70FD98F13D51A
:1014E400354013D755401189098B498F13D5754061
:1014F400498F13D515402189498F139515004189CA
:10150400498F1395350013750502498F13955500BE
:10151400137505049E05498F93F5F50F4D8F22072A
:10152400D98FB387C7024AD04ECE5EC662C4B6977F
:10153400C207C18313D7774013D557400989058B58
:10154400498F13D537401189498F13D51740218905
:10155400498F139517004189498F139537001375E7
:101564000502498F1395570093D587001375050419
:101574009E07498F93F7F70FD98F13D5354013D7AB
:1015840055401189098B498F13D57540498F13D55F
:1015940015402189498F139515004189498F139569
:1015A400350013750502498F13955500137505040D
:1015B4009E05498F93F5F50F4D8F2207D98FB38779
:1015C400C702130650025285D685B697BD8E9394F2
:1015D4000601C18033F6C402137BF60F970002E0C4
:1015E400E780A08A05890DED8347D410014981491C
:1015F400B3849702130C5002C1804A865285D68563
:10160400970002E0E78060880589937BF90F11C594
:1016140063863403850993F9F90F0509E31F89FDEE
:10162400230B6411B250225492540259F249624A73
:10163400D24A424BB24B224C456182805E8BCDB77D
:101644000111973700009387671322CC03A4C70ABC
:1016540026CA06CE2AC42EC6854419E40145F240A2
:101664006244D24405618280034714008347910099
:101674006304F7000044D5B719469305A100130588
:101684002400EFF06F9EE31795FE0545C9BF173799
:101694000000130727011443411122C69C5E4AC26D
:1016A40026C49983858B3A8417390000130949FFAE
:1016B400C9C39C5E973400009384440193F7F7F9FF
:1016C4009CDE9737000083C7670093F7070499CB24
:1016D40097370000938747E79C438297973700002A
:1016E40023AEA7FE854717370000A303F7FE83C781
:1016F400440093F7070491EF973700009387C7FEE0
:101704009C43D844F8D3930700FC17370000230107
:10171400F7FC83C7640013070008631CF7008327E2
:1017240009009C439983858BADE39737000023829E
:1017340007FA1C40985F1183058B09CB985F3D9B8A
:1017440098DF0547973600002384E6F8985F1D83E9
:10175400058B11CB985F1377F7F798DF8547173719
:1017640000002307F7F683270900D8430583058B78
:1017740019C7D843759BD8C3D843799BD8C332447F
:10178400A2441249410173002030930700FC17372B
:1017940000002300F7F471BF17370000130707F3A5
:1017A40083470700858B89EB83471700858B89E77F
:1017B40083474700858BEDD78280173700001307D6
:1017C40067EE14439C5E9583858BC5EF09C69C5ACE
:1017D400BD832300F600C5C983471500CDC7411159
:1017E40006C6173600000346C6EE9306000C6304D3
:1017F400D60297370000938767ED83C56700973754
:101804000000938727D09C5B130530088297094515
:10181400B240410182803E9583479500854613F688
:10182400F706630AD600973700009387A7CD9C5B21
:101834009305D00FD1BFE207E1870945E3CA07FC4E
:101844001C43985B4607935767016359070293E764
:1018540007C01387970F420741839306201F014552
:10186400E3E8E6FA1387E1990317070009C7BA9773
:101874000947B3C7E702239FF19859BFC207C1873D
:10188400C9BF054582801C43985B4607935767018F
:101894006359070293E707C01387970F42074183F1
:1018A4009306201F014563EDE6001387E1990317B2
:1018B400070009C7BA970947B3C7E702239FF198FE
:1018C4008280C207C187C9BF49E597370000938763
:1018D400A7E19443411122C406C62E873E84FC52DC
:1018E400FDFF3A85B285976001E0E78020DC9737F9
:1018F4000000938727DB9C43B70680009843558FED
:1019040098C3D857719BD8D71C40094798C3B7F7D9
:1019140000E003A707D16D9B23A8E7D003A707D155
:101924005D9B23A8E7D073005010173700001307FE
:10193400E7D983472700858B89EB83473700858B5D
:1019440089E783474700858BEDD7B24022444101A4
:1019540082808D476310F50497370000938787D4FE
:101964009C43B70680009843558F98C3D857719B02
:10197400D8D717370000130767D583472700858B0F
:10198400BDEF83473700858BBDEB83474700858BCD
:10199400EDD782808547E31EF5FC973700009387D7
:1019A400A7D4944335673D07D8C60F1000001737F6
:1019B4000000130727CF14430946984231830D8B47
:1019C4006313C70298439306E04374D3984389672B
:1019D4001CC7930700F897360000238BF6CEBD672B
:1019E400BD075CC779B79842944331830D8B09E7EF
:1019F40013076019F8D2D9BF1307E01BE5BF828033
:101A04005D712AC62EC486C6976001E0E78040EB6C
:101A1400976001E0E780A0FB97380000938888C8AE
:101A240083A7080017330000130343CE370633009F
:101A340023A40700984B370EFCFF370F04001367ED
:101A4400F70398CB9843914F7D1E1377F7E798C31C
:101A540098438542930E80021377F7E713670710C4
:101A640098C38326030032459846518F98C617378A
:101A74000000130767C718439306900D014634CB43
:101A84001377F51FE84FF576FD16137505E0598DAC
:101A9400E8CF9843758F98C3A245814703A70800F0
:101AA400032803009376F60F231C0704231007066C
:101AB4000325C80275992326A80203280700137575
:101AC400F607137808F83365A80008C3485333654C
:101AD400E50148D303558705E3FEAFFE485333754C
:101AE400C50148D303570706280832951377F70F23
:101AF4002300E50019EF13D736002E97034507009E
:101B04009D8AB396D2008507C98E93F7F70F2300F9
:101B1400D7000506E314D6F9854611488548130312
:101B240080026363F804014681472808329503451F
:101B340005001377F60F63E1A602135537002E95BF
:101B4400034E05001D8B3397E80085073367C701F3
:101B540093F7F70F2300E5000506E31866FC8506F6
:101B640093F6F60FE39F06FBB64061618280173758
:101B740000001307A7B38346B7019737000083C754
:101B8400B7B7B69793F7F70FFD4663EAF6044C4BE5
:101B940097360000A38CF6B09737000083C717B1BF
:101BA40005473317F70097360000A387F6B46D8F07
:101BB4001DEF9736000083C676B4B3F6D70213053B
:101BC4000002814733D6F500058A13F8F70F09CED2
:101BD4006399E60097370000A38A07AD82808117D6
:101BE4007DB705071377F70F8507E39DA7FC828070
:101BF40097370000938747959C43011122CC4EC62A
:101C040006CE26CA4AC852C456C2829797370000E5
:101C14009387C7AD804781496305A406BE8497377F
:101C240000009387278E038747013E896355070683
:101C3400018D135455009737000083C7C7A89379C3
:101C4400F501636DF402370AC0A8B70A4057053797
:101C54009C449736000083C606A7139756003E9708
:101C640083074901158C63C50700636347015697D1
:101C74009737000023A0E7A8E37BD4FC1604B369DC
:101C84003401F24062444E85D2444249B249224A68
:101C9400924A05618280E37D85F8B707C0A8338442
:101CA4008740229579B7973700009387E7899C434B
:101CB400411122C406C626C2829797370000938733
:101CC400E7A280476309A406BE8497370000938780
:101CD40067838387470163D80704018D1354550034
:101CE4009737000083C7279E6367F40449359844F7
:101CF4009737000083C7279D9396570036971D8C0E
:101D04009736000023A8E69EE372F4FE2244B24014
:101D140092441735000003457599814541011773B5
:101D240001E06700C34BE37A85FAB707C0A83384A0
:101D34008740229565B7B240224492444101828093
:101D4400973700009387879C9843B757020093877F
:101D5400079F8326070913965600635806008326B7
:101D640007091396660063440600FD17FDF382809D
:101D740021670507AA876397E50003C7C198014552
:101D840065E382800145E5C3F9CD8D07C207C183B0
:101D9400F19BC207C18313074003636FF702173730
:101DA40000001307679C0843173700001307479B7D
:101DB40014436398A602172700001307A774185B3F
:101DC400014555C34111C20706C60545DD8D02977D
:101DD400B2400145410182801737000013078798FC
:101DE400D9B7035765003DEB035745006368F70611
:101DF400B306F74021461738000013082897637A82
:101E0400D6028328050003260800938687001D8FC9
:101E1400AA9661172392E60023A0160123930600D5
:101E240014C1130786FF2312F5009736000023AF71
:101E3400E69221672313B50005076397E50003C7FE
:101E4400C1987D172386E198832508002105B3876F
:101E5400F54017370000232BF7908280084191BF8B
:101E6400014585F7828082800DC1973700009387F2
:101E7400A78F03A30700973700009387678E83A873
:101E8400070001479A8763E31701828003A80700CC
:101E94006369F50A6367A80A93868700E367D5FE3A
:101EA40003D66700A16685066317D60083C6C1986A
:101EB40085062386D198973500009385258B944118
:101EC40003D6470023930700B29617350000232F4B
:101ED400D588638A6702173500001305A588084171
:101EE4006303F5020355670019ED83574700232068
:101EF4000701A1063E9621069737000023A8D7863E
:101F04002312C700BA879843E30117F997360000F4
:101F1400938646859442E30AD7F683566700B5F65E
:101F240083D64700035647001843A106B29698C3C8
:101F34002392D7009C41A107173700002328F7827A
:101F440082803E87C28781B701119737000093874B
:101F5400E78222CC03A4470B26CA4AC84EC606CE43
:101F6400AA8413092500854915C083C714000347B3
:101F74003400858B6304F700405CFDB71946930574
:101F840044004A85EFE05F8EE31835FF2285F24076
:101F94006244D2444249B249056182804111972783
:101FA40000009387A77D22C403A4470B26C24AC01E
:101FB40006C693042500054901E82285B24022445F
:101FC4009244024941018280A6851305A40297F038
:101FD40001E0E780E09EE30225FF405CF1BF411190
:101FE400972700009387877922C403A4470B26C24E
:101FF4004AC006C693042500054901E82285B2407B
:1020040022449244024941018280A6851305A40119
:1020140097F001E0E780C09AE30225FF405CF1BF3E
:102024000111972700009387677522CC03A4470BFF
:1020340026CA4AC806CE2AC42EC6B284054919E067
:1020440001453DA003479100834734006318F7021C
:102054001946930544001305A100EFE0FF80631FB8
:102064002501A6851305A40297F001E0E7804095B9
:10207400F2406244D244424905618280405CC1B767
:1020840097110020938141D817610020130141F773
:102094001305400097E5FF1F938585F6170600207A
:1020A400130606FE63FAC5008322050023A055002B
:1020B40011059105E3EAC5FE1715020013058554C1
:1020C400970500209385C5FB1386018A63FAC50032
:1020D4008322050023A0550011059105E3EAC5FEFE
:1020E4001385018A97250020938545786377B50089
:1020F400232005001105E36DB5FEFD42739002BC7B
:102104008D42739042809302800873A0023097E25C
:10211400FF1F9382E2EE93E23200739052309732C3
:102124000000938202F073901234730020303367FE
:10213400B500FD530D8B79E7B7877F7F9387F7F75A
:1021440010419441B372F6003363F600BE92B3E2D9
:1021540062006397720C6318D6065041D441B3727F
:10216400F6003363F600BE92B3E262006398720A2B
:10217400631BD60410459445B372F6003363F6002E
:10218400BE92B3E262006391720A631ED6025045A6
:10219400D445B372F6003363F600BE92B3E2620034
:1021A400639A72086311D60210499449B372F60017
:1021B4003363F600BE92B3E2620063937208510582
:1021C400D105E30FD6F61317060193970601631C96
:1021D400F7001357060193D706013305F7409375AB
:1021E400F50F91E982804183C1833305F7409375EC
:1021F400F50F91E182801377F70F93F7F70F33050B
:10220400F74082800346050083C605000505850561
:102214006313D60065FA3305D64082801105910513
:10222400E312D6FE014582802105A105E31CD6FCFC
:10223400014582803105B105E316D6FC0145828053
:102244004105C105E310D6FC014582803D432A8740
:102254006373C3029377F700BDEFADE5937606FF92
:102264003D8ABA960CC34CC30CC74CC74107E36BF9
:10227400D7FE11E28280B306C3408A0697020000AB
:1022840096966780A6002307B700A306B700230627
:10229400B700A305B7002305B700A304B7002304C0
:1022A400B700A303B7002303B700A302B7002302B8
:1022B400B700A301B7002301B700A300B7002300B0
:1022C400B700828093F5F50F93968500D58D93968C
:1022D4000501D58D61B79396270097020000969665
:1022E4008682E78086FA9680C1171D8F3E96E37436
:1022F400C3F8A5B7B717004003C777051377E70FEF
:10230400A38BE704130700F8A38DE7043D47238C50
:10231400E70413075003A38CE7048280B716004038
:10232400130670052380C604930780FA2380F604FD
:102334000100010003C7F60213678700A387E602C2
:1023440003C7F6021377770FA387E60203C7E602F3
:102354001377C70F2387E60203C7E6021367170044
:102364002387E6022380C6042380F60401000100CB
:1023740003C736057D78930E481F1377870FA3890B
:10238400E60403C7360537160040116E13671700BD
:10239400A389E6042380F60483C736051167130F67
:1023A400400893E70702A389F60483D706051308B8
:1023B400281B930F3004D98F11672398F6047D17D7
:1023C4009147894213037005930880FA83463605C2
:1023D400A18AEDDE8356060583463605A18AEDFE05
:1023E40083560605B3E6C6012318D604834636058C
:1023F400A18AEDDE8355060583462605F98DB306CD
:10240400D702B695B386D5016371DF04FD1793F740
:10241400F70F85CFC29593961500B3C6F6036352A2
:10242400B002850685862300660423001605010094
:1024340001008355C602AE96C206C1822316D60297
:1024440071B7FD16B3C65602F9BFB716004083C76D
:10245400360513873605A18BFDDB83D7060583D7A5
:1024640006051166D18F2398F6049307700523801F
:10247400F604930780FA2380F604010001008347E1
:10248400070093F7870F2300F70083470700C98FDE
:1024940093F7F70F2300F7003717004083473705FA
:1024A400A18BEDFFB717004003C73705218B6DDF04
:1024B40083D6070583C7270511667D16F18E33067B
:1024C400F60285659307C003138705C8369693867D
:1024D40005FAB396A600B386F602A1679385559CC8
:1024E400B3C6F6029307803EB386F602B357A740FD
:1024F400B306D640B387D702B3C7B7026351D0043B
:102504008507094793067005B3C7E70237170040EC
:102514002300D704930680FA2300D704960701000A
:1025240001008356C702B697C207C1832316F70278
:102534008347370593F7F70DA309F7048280FD1746
:10254400C9B741112A83014E930E407E130F00191F
:10255400930F400663E46E0E9308001913034006BC
:10256400B3781503854E0D4FA14F337365020D8962
:102574001335150063EEBE0E1308F6FF7946729804
:102584004208135808013307C70213D61700BE07C1
:1025940032976146B3F6C60213068070B386C6024C
:1025A4003697A166F58F42075D8FB716004083C743
:1025B400F60293F70708A307F1000346F10083C767
:1025C400F60293F70708E394C7FE8347F100B716B2
:1025D400004093F7F70FFDC7B71700409306700547
:1025E4002380D704930680FA2380D70401000100D6
:1025F40023AA070383C6170311667D1693E606080C
:10260400A388D702D45BC85F93854703A98EF18E54
:10261400F5FA930670052380D704930680FA238085
:10262400D7040100010098C103C717031367070407
:10263400A388E70223800704410182807D13336865
:10264400E3039308E016630E08003368F30393086A
:10265400D016630808009378330093B81800938861
:10266400D81633081E01131E0801135E0E01DDB5D2
:102674006393E50305486386080001486303030088
:102684002A8871087298FD15131E0801C205135E8D
:102694000E01C181C5B513F8150063F4BF007908B4
:1026A400D5B713381800E5BF83C7F60293F70708B8
:1026B400A307F1000346F10083C7F60293F7070866
:1026C400E394C7FE8347F10093F7F70FF1DF29B7CF
:1026D400914763EEB70217070200130767FC8A05E8
:1026E400BA959C41BA978287B717004003A7470B56
:1026F4001345F5FF698F23AAE70A03A7070B698F20
:1027040023A8E70A03A7070A798D23A0A70A8280D2
:10271400B717004083A6470B1347F5FFF98E23AA8A
:10272400D70A83A6070B558D23A8A70A83A6070AF1
:10273400758F23A0E70A8280B717004003A7470BD1
:10274400498F23AAE70A03A7070B1345F5FF45BFE3
:10275400B717004083A6470B1347F5FF758F23AACD
:10276400E70A03A7070A598D4DB7B717004003A717
:10277400470B498FEDB7914763EEB7021707020085
:10278400130747F38A05BA959C41BA978287B7170E
:10279400004003A7470D1345F5FF698F23AAE70CF3
:1027A40003A7070D698F23A8E70C03A7070C798DEE
:1027B40023A0A70C8280B717004083A6470D1347B8
:1027C400F5FFF98E23AAD70C83A6070D558D23A8F0
:1027D400A70C83A6070C758F23A0E70C8280B7177C
:1027E400004003A7470D498F23AAE70C03A7070D51
:1027F4001345F5FF45BFB717004083A6470D1347A0
:10280400F5FF758F23AAE70C03A7070C598D4DB765
:10281400B717004003A7470D498FEDB79357E5005D
:1028240093F70730C98FC2070547C1836382E50464
:102834008DC10947638DE5040D476380E5063717AD
:102844000040231FF70883562709D58F2319F7085B
:102854008280371700400356670993C6F7FFF18E4D
:10286400231BD7088326C70C558D2326A70CC1BF6D
:10287400371700400356670993C6F7FFF18E231BF1
:10288400D7088326870C558D2324A70C4DBF3717F3
:10289400004083566709DD8EE1B737170040835641
:1028A4006709DD8EE9BFB717004003D587004205ED
:1028B40041819377050491EB9377F5013755E8014E
:1028C400130505803345F50282809377050C1307C1
:1028D40000046397E7009377F50137459C1CCDB757
:1028E4002165130505D08280B7F700E08847CC47FF
:1028F4008280814737370040A14663C4C7003285D0
:1029040082800345B740E38EA6FE3385F500034578
:10291400050085072304A740CDB7411122C406C68C
:102924002A8451372947B307E502B2408D83B3D7D0
:10293400870222449507B3D7E70237370040C2071E
:10294400C1832316F740410182807165411113054B
:10295400052006C6D937B7370040130770F823811E
:10296400E7400D47A381E74013070004A380E74035
:1029740005472387E740B24041018280B787004082
:10298400238007001307C0FC2386E700A386E70023
:1029940003D781BA2398E70003D7C1BA239AE70083
:1029A40003D701BA239CE70003D741BA239EE7006B
:1029B40089462381D70249472383E7022385E70217
:1029C4002387E7022389D702A38107001307900214
:1029D4002380E700B716004003D7A6011367070C4E
:1029E400239DE6007D572383E700130710F8A38097
:1029F400E7001D472381E7008280B78700402382D8
:102A0400A70203C767021377C70F2383E7028280F5
:102A1400B78700402384A70203C7A7021377C70F11
:102A24002385E7028280B78700402386A70203C775
:102A3400E7021377C70F2387E7028280B787004036
:102A44002388A70203C727031377C70F2389E70245
:102A540082809387C18A9C43411106C691C38297A1
:102A64009387018B9C4391C38297170700200357D8
:102A7400C7B99307C01263F7E70403D541809306EF
:102A8400B01263E4A6049386818A03A30600630755
:102A94000300B2401305C012410102830507098FE8
:102AA4003385A740E5473305F5024207418309838F
:102AB4009307F7FF3E953345E5021375F50FB240D2
:102AC4004101828013054006DDBF0145CDBF03A847
:102AD4004500411126C206C622C483471800034894
:102AE4000800A944A207B3E70701C2070D68C1871C
:102AF400130828906396070385473284EF700035E6
:102B0400AA8419ED9387418A9C4399CB0345140009
:102B1400034704002205598D1335150005058297D6
:102B2400B240224426859244410182802D452DEFF6
:102B3400D841411122C426C206C683471700034761
:102B44000700B684A207D98F0D67930697A1328434
:102B5400639CD702FD3D9707002083C7E7AA6376ED
:102B6400F500970700202381A7AA85472390F40046
:102B74009707002083C747A92300F4000145B2400A
:102B84002244924441018280130787902945E398A7
:102B9400E7FECC4589472390F4000946228597E057
:102BA400FF1FE780E0C8D9BF828083474500858B3B
:102BB400BDC7011122CC2A8403552500938581A029
:102BC40006CEEF706023058939C5035524000147FB
:102BD40081460546ED45EF60B05D2AC60DCD97F7F9
:102BE400FF1F9387E74983D7A70201462C002314CC
:102BF400F10085472315F1009707002083C7C7A07C
:102C04002300F50003552400EF70F07B09C5ED4562
:102C14002800EF60B071F2406244056182808280D6
:102C240041654111938581A07D1506C6EF805063EF
:102C3400B24097F6FF1F9386A6494146954517F57E
:102C4400FF1F1305E54341016F80B05623A2A18AFB
:102C54008280411122C406C6854709446313F502E4
:102C64008347060001442380F18A170700200347A5
:102C7400A7996378F70017050000130545F3EFB033
:102C840000082285B24022444101828085476303C3
:102C9400F50209C909476304E5020D476308E50223
:102CA400094582809707002083C707962380F50093
:102CB400014582809387018A83C70700C5BF97F7C0
:102CC400FF1F83D7873C2390F500DDB713878180EE
:102CD400035707002392E50017F7FF1F1307473A2E
:102CE4008356A7020357A7032383F5002390D50037
:102CF4002391E50075BF411106C6A13B970700204B
:102D040083C78790637CF50097070020238EA78EE6
:102D1400170500001305A5E9EFA0707EB240014538
:102D24004101828041677917630CE502411122C495
:102D340006C685472A84639AF50022852244B24058
:102D4400938581A041016F80B05189476396F50056
:102D54008545EFA0507575D1B2402244410182806F
:102D64008280CC41411106C6328503C6150083C555
:102D7400050022064D8E42068D654186138875A294
:102D8400630C060F6348C804138845A26306060B48
:102D9400634AC800938535A26309B60623900600EA
:102DA400294679A0138855A26308060B938565A26A
:102DB400E316B6FEC1451D4663ECE5064546198E8D
:102DC40063F3C7003E862390C600970502009385EF
:102DD400A59089A8138895A26300060F634E060B7D
:102DE4001388A5A2630A060F938505A5E318B6FA0E
:102DF40099451D4663EEE502198E63F3C7003E86CE
:102E04002390C6009385018131A89D451D4663E149
:102E1400E5022146198E63F3C7003E862390C6005F
:102E24009385418BBA9597E0FF1FE78060A0014628
:102E3400B240328541018280AD451D46E3EAE5FE9C
:102E44003146198E63F3C7003E862390C60097056A
:102E540002009385258CF9B7B1451D46E3EAE5FCEC
:102E64003546198E63F3C7003E862390C600970546
:102E740002009385258B7DB7C1451D46E3EAE5FA3B
:102E84004546198E63F3C7003E862390C600970516
:102E940002009385A58579B7C1451D46E3EAE5F8A7
:102EA4004546198E63F3C7003E862390C6009705F6
:102EB400020093852588BDB7C1451D46E3EAE5F6C2
:102EC4004546198E63F3C7003E862390C6009705D6
:102ED40002009385E582B9B7B5451D46E3EAE5F4FA
:102EE4003946198E63F3C7003E862390C60097F5D2
:102EF40001009385657D3DB797F6FF1F93860631E4
:102F04004146CD4517F5FF1F1305451D6F80702AF7
:102F140082809387018D9C4303C7418C83C6B18211
:102F240001E781473E85828003D607006316A60029
:102F340003C66700E308D6FE7D171377F70FA107D2
:102F4400C5B7B2862E86AA851705020013054583E8
:102F54006FE0813D0111930500030D4506CEEF306E
:102F6400907A930500051145EF30F0799305C0037D
:102F74000545EF30507985471306F1008545130563
:102F84005030A307F100EFA06120F2400561828078
:102F94008547631AF5001166130686A9894503C59A
:102FA40001BB6F20C05C89476317F500894503C5E1
:102FB40001BB6F20D003828085476398F50019E236
:102FC400238FB18A238AC18C828009476399E500E3
:102FD40019E6238FF18A03D5C18B6F00F009828033
:102FE4009387818C9C43011122CC06CE2E8481CB05
:102FF4009C4791C78297F2406244056182806C00CD
:1030040013057040EF80512B324681452285EF90A5
:103014006143D5B701119397050126CA06CE22CC88
:103024004AC84EC652C4C187AE8463D7070803C5D5
:1030340001BBEF20600D2A8439C9034705009307BB
:10304400000D6313F704834725004547638BE704AA
:103054006547639BE70217F501001305E56EEFE092
:10306400A12C130954009309B40017FA0100130AA0
:10307400EA6E8345090052850509EFE0E12AE39AE7
:1030840029FF2945EFE0412E2285EF2040012165EB
:10309400258DF2406244D2444249B249224A056134
:1030A4008280034665008345750017F5010013050A
:1030B400656BEFE06127C9BF93F7150091CF17F651
:1030C400FF1F130666159385C18103C501BBEF90ED
:1030D400115E13C5140075BF93F725000145D5DBB8
:1030E40019391166130686A9894503C501BBEF206A
:1030F400004813C5240071BF797126D24ECE06D67E
:1031040022D44AD052CC9147AA84AE896314F504E0
:1031140083D7A5001306E100854513055030239E8F
:10312400F18A23070100238F018AEFA021069387E8
:10313400818C9C4391C7DC4781C7CE8526858297C5
:10314400B250225423A0918C02599254F249624AFB
:10315400456182801387018C1843E31AF7FC854587
:1031640003D5C18BC136854503D5C18BEF0080766D
:10317400C16703DAC18BF917631BFA02054493058F
:10318400E10013055041238F018AA385818223071F
:103194000100EF8071128347E100B1E303C7418D61
:1031A4009147E316F7F87D33238A018C49B7938757
:1031B400018D03A9070003C4418C69D0035529007C
:1031C40011C99305E100EF70802809C54C4552856B
:1031D400EF8010097D141374F40F2109F9BF93874C
:1031E400C18C9C4383C74700898BCDDB9305000AC0
:1031F4000D45EF3050519305000A1145EF30B050A2
:1032040081450545EF3030501306E100854513052F
:10321400503023078100EF90717749B701111705EA
:103224000000130565DF06CE22CCEF20207713843F
:1032340001BB85471306F10085452300A40013054F
:103244004041A307F100EF80B12D7D55EF60A03F11
:103254007D55EF80C07D4D31E132F5231705000027
:10326400130545D3E532170500001305A5CA11253A
:10327400034504008545EF204028F240624405617F
:10328400828023A4B18C23A6A18C828023A8B18C34
:103294002382A18C82809387018C9C43797106D60A
:1032A40022D426D24AD04ECE52CC1147639BE70497
:1032B40083C7E18B414481CF9387018D8043B284DE
:1032C400B68983C7418C03C7B18299EB55442285E3
:1032D400B250225492540259F249624A45618280A2
:1032E40083464400639AA600834654006396B6005E
:1032F400834664006380E606FD1793F7F70F210405
:10330400E9B709474144E384E7FC2C001305504125
:1033140023040100EF80417A834781008DCB93051C
:1033240000020D45EF30303E930500031145EF30A8
:10333400903D95450545EF30103D85473000854566
:10334400130550302304F100EF90516449B719314B
:103354004144B5BF0355240093056100EF70200F6D
:1033640035D54C4503D5C18BEF601029058939DD6E
:103374001399040113590901014781464A86ED4511
:1033840003D5C18B035A0400EF6080622AC64D4402
:103394001DDD2686CE85231441012315210197D0F6
:1033A400FF1FE780E04801462C0003D5C18BEF7076
:1033B40090012A84E30D05F0ED452800EF600077C5
:1033C40039B7C841011122CC06CE32840346150018
:1033D400034505002206498E19CB0D681308B8A4CD
:1033E4002D4563090607F2406244056182800D653C
:1033F4001308D5A463000603130825A2630C060171
:1034040075781308E85C3298420813580801854817
:1034140063EE080303D5A50036C632C4DD3CB246CC
:1034240015C19387818C9C4322468345550003A391
:103434000700A2876244F24003454500368785466B
:103444000561028323900600014571BF1308B5A4EA
:103454006317060303D621831D45E376C7F8198E47
:1034640063D3C7003E86CC452390C6004206418202
:10347400BA95228597D0FF1FE780803BF1B7930769
:10348400A5A46318F60091472390F6001146CC4595
:10349400CDB7930785906317F60089472390F6000C
:1034A4000946F5B79307E5A4631AF600DC452390B3
:1034B400160183C707002300F40079B7130575903C
:1034C400E314A6F8D9BF011122CC06CE26CA4AC8F5
:1034D4002317D1002D4429EBDC412E89B28403C487
:1034E400170083C7070022045D8C8D679386D7A4D9
:1034F4006306D400938627A3631FD4020355A9004F
:10350400093C19E101440DA09387818C9C438345B8
:1035140055000345450003A807002286A687130724
:10352400E100814602982A842285F2406244D24412
:103534004249056182809386C7A46314D4028357E9
:10354400E10005473544E391E7FE03450600130413
:103554000008E3EBA7FC9387818C9C43DC438297B0
:1035640055B793862790631AD4028356E1008547A2
:10357400EF60D00D2A844DF99387018D8356A900FD
:103584009C4303C7418C3DDF03D627006302D60466
:103594007D171377F70FA107FDB79387E7A4E3130C
:1035A400F4F68357E10005473544E39FE7F6034506
:1035B400060013040008E3E9A7F6DC452380A7000E
:1035C4009387818C9C433335A0000905DC4341BFBC
:1035D4001387818C184303C5470083C5570083C7ED
:1035E40014000328070003C70400A2078946D98FE3
:1035F400C207C18705476383E7008D460D66A6872A
:103604001307E10013062690029839BF411122C422
:1036140041641305F4FF938581A306C626C24AC0FC
:10362400EF8000441305F4FF938581A2EF804043AB
:103634001305F4FF938581A197F4FF1F938484BE3F
:10364400EF80004297F6FF1F9386C6DB4146F9459B
:103654002685EF800036CC4C2A890945EFF00FE32C
:103664001387C1839387418483450700034617006A
:1036740083D7070003D7A410138481A42312F40072
:103684002314E40083D7A40C03D7A411A306C40015
:10369400A30EC40003D6A4172310F4002315E400DA
:1036A40083D7A40D138701848346070003D5A4148C
:1036B40003471700231CC40003D6A4182311F400E5
:1036C40085472303F4002307F400230AD400230BC3
:1036D400F400231DC4002302D4022306B400A30A69
:1036E400E4002318A400230EB40023190400230FBC
:1036F4000400A302E40203D7A41A2307F40223114B
:1037040004022310E4021387818303570700230371
:103714000402231504022316E40203D7A41C938590
:1037240081A70D452314E402EFF04FD6A28521456D
:10373400B13EB24022444A8592440249410182800A
:103744008D67138527A36301A6049387D7A4014536
:10375400631EF6008947639CF500854735456397EA
:10376400F60083470700238DF18C014582808D4745
:103774002945E39DF5FE85473545E399F6FE8347E4
:103784000700238CF18CD5B785473545E390F6FEC9
:1037940083470700A38BF18CC9BF8D67138527A3CB
:1037A4006308A6029387D7A46317F6028947639B2D
:1037B400F50083C7A18D2300F70085472390F60009
:1037C400014582808D476398F50083C7818DE5B7F5
:1037D40083C7718DCDB723900600DDB70145828084
:1037E40025E303A84500AE88834718000348080072
:1037F400A207B3E707010D68930EF8A4639AD703F1
:1038040091473548639FF60203A5C8004111B2856C
:10381400114606C697D0FF1FE78080019387818EEB
:103824009C4305458297B24001484285410182800C
:103834009308289029486396170185476F600061B3
:103844002D484285828041654111938581A87D156B
:1038540006C6EF80E020B24097F6FF1F938646C16C
:103864004146994517F5FF1F130585BA41016F803D
:10387400401423A4A18E82800111938581A822CCB7
:1038840006CE2A84EF604057058929C10147814645
:103894000546ED452285EF60A0112AC605C997F7B4
:1038A400FF1F9387E7B683D7A70501462C0023148F
:1038B400F10085472315F100230005002285EF70F0
:1038C400803009C5ED452800EF604026F24062448F
:1038D4000561828041677917630CE502411122C4B6
:1038E40006C685472A84639AF50022852244B2409D
:1038F400938581A841016F80A01689476396F500DE
:103904008545EFA0403A75D1B240224441018280FE
:10391400828082803D897D15954763E3A71017F760
:103924000100130767EF0A053A951C41011106CE01
:10393400BA9782872C0013054030EF9021732C0036
:103944000545EF50402017F50100130565F1EFD050
:10395400F131F2400561828003C725008D47E31AE7
:10396400F7FE2386018E17F50100130565F0C5B730
:1039740003C725009547E31EF7FC83D7A5000D6612
:1039840013060620914503C5A185239CF184EF10FD
:10399400103E13060064A14503C5A185EF10303D18
:1039A40017F501001305C5ED5DB703C725008D4765
:1039B400E311F7FA17F50100130545ED49BF83C775
:1039C4002500114717F501001305C5ED638EE702C5
:1039D40019476394E70283C5650017F501001305D1
:1039E40025EEEFD07114854730008545130550301E
:1039F4002304F100EF908179A9BF1547E395E7FE11
:103A040017F50100130585EDEFD05126E9BF83C5F5
:103A1400250017F501001305E5EDEFD0F11015BFF2
:103A2400828001112305A100340021468545094502
:103A340006CE23140100A305010002C6EFF0BF85E2
:103A4400F24005618280411106C622C43A883E874D
:103A54008DEA32830D661306D6A42A8EAE88834679
:103A640008006319C30089476396F5008547354408
:103A7400639CF6022244B2401A86C68572854101CF
:103A8400C1B185476397F6002244B240C286410122
:103A940029B3894701446399F6001306401FA145E1
:103AA40003C5C1C5EF10B02C2285B24022444101A8
:103AB400828001119397050122CC06CEC1872E8402
:103AC40063DC070003C5A185EF10006419C1EF1082
:103AD400005D2165218D35A093F7150013C51500F0
:103AE4008DE393F7450095C383C7A1851307401F52
:103AF40081462146A14503D58185EF90A134134524
:103B04004400F24062440561828093F785009DC3BE
:103B1400014789460946814503D58185EF901113F4
:103B2400AA8517F501001305A5D0EFD0E17F134551
:103B34008400C1BF93F72500B9C703C5B185D53546
:103B440083C7B185850793F7F70F7147636BF70256
:103B54000145A38DF184F135B7070200938707204F
:103B640074001146854505453EC6EFF0CFF21306B5
:103B7400007D894503C5A185EF10701F13452400FE
:103B840049B79147F1B79397350163DB07009386F3
:103B9400C190114685450545EFF0EFEF05651DBF62
:103BA400939725010145E3DE07F49386419021466E
:103BB40085450945EFF02FEE096529BF0111170569
:103BC4000000130545EF06CE22CC26CAEF10105D87
:103BD4009384A18505442380A400700085451305C2
:103BE400503023068100EF90615A138681849D45ED
:103BF40013056030EF90815917F6FF1F13060689ED
:103C0400D54513057030EF90615817F6010013067F
:103C1400A6C3D5450145EF50B0158D4770009145B9
:103C2400130570402305F10023048100A3058100DE
:103C340002C6A3040100EF80A10E300085451305E0
:103C44000040EF80E10D13069100854513051040F7
:103C5400EF80010D1306A100854513052040EF8078
:103C6400210C1306B100854513055040EF80410B2C
:103C740099477000854505452306F100EFE07FFD77
:103C8400EFF0DF9897E5FF1F9385457F1385018546
:103C9400EFF02FDF03C504008545EF101006F24056
:103CA4006244D2440561828041111306800A97F56B
:103CB40001009385A5C8138541BB06C622C426C24C
:103CC400EFD0215B9384818F9C4037140040914551
:103CD40093E7C70F23ACF18E0327840CD98F2324D9
:103CE400F40C8840EFE03FA99C400327840C97F62E
:103CF4000100938626C193F7F7F7D98F2324F40C98
:103D04001387018F1C4317F60100130626C38C4248
:103D14009106CD8FE39DC6FE23A8F18EB716004011
:103D240003A6860C2244B240D18F23A4F60C9244FD
:103D34000843854541016FE0BF995D7156DA938A66
:103D440081A9CAC04EDE52DC5AD85ED662D466D28D
:103D54006AD086C6A2C4A6C26ECE97F90100938922
:103D640069BA0149194BD68C938B41BB138A419094
:103D74001D4C138DC185B307690303C4C18FB716E6
:103D8400004003A6090083A6460AF18E3387FA0091
:103D9400229783450700F1ED8DEEA2978607DE9703
:103DA40003C7C18583D707006376EC009306F00D43
:103DB40063F1F602B30669030546E696A2962380EC
:103DC400C600A38AC18E9306F00F639DD706238A8B
:103DD400C18E0509B9479109E31FF9F813071400C7
:103DE4001377F70F238EE18E97F70100938787BF30
:103DF4000A04371600403E948326860C0C40CD8E70
:103E04002324D60C954663F4E600238E018E83C6E4
:103E1400C18F8A0637160040B6970327C60C9C4309
:103E2400B6402644D98F2326F60C96440649F25907
:103E3400625AD25A425BB25B225C925C025DF24DE2
:103E4400616182809306F00D63FDF6000547938758
:103E540007F2B317F70003470A00D98F2382F190C2
:103E64008DBF930617005297238ED1842300F70049
:103E74008DB7A5D2A2978607DE9783D407002300C7
:103E840007000547A38AE18E9307F00F6395F400BA
:103E9400238A018E3DBF9307F00D63FD9700938441
:103EA40004F2854703470A00B397970093C7F7FFC7
:103EB400F98F6DB7938D41908947214783C62D00B3
:103EC400639F96003306FC4093853D0013852D00C7
:103ED4003EC6EFD0013AA3850190B247214785073A
:103EE400850DE39DE7FC83470D00FD17238EF184C8
:103EF400CDB5797122D426D24AD04ECE52CC56CAF0
:103F040006D6137915001384C1AE85449389E18FD5
:103F1400138AD18F914A631009022254B2509254E9
:103F24000259F249624AD24A03C5C1C501468545D0
:103F340045616F10C063B3779900A9C783470A002E
:103F440003C7090023000400E58FD98F238FF18E66
:103F54002312D4002301C400A300B40099E1230078
:103F6400540136C632C42EC2EF1060588347040091
:103F7400B2462246924593E7270008C42300F40082
:103F840033499900860493F4F40F310469B79377A5
:103F940015001387D18F9DC78547B7160040639DD1
:103FA400F50083A7860CF99B23A4F60C834707002E
:103FB4005D8DA38EA18E828083A7860C93E7170064
:103FC40023A4F60CE5F5834707001345F5FF7D8D23
:103FD400CDB7011122CC26CA4AC84EC652C406CE59
:103FE400AE89937415001389C1AE0544214A89E84A
:103FF400F2406244D2444249B249224A0561828075
:10400400B3F7840089CFCE856396490183450900BF
:1040140093C5150022852300B900A18C8D3F0604A9
:104024001374F40F3109E1B7AA8711C909CA81CA07
:104034009307300663E3C7006DBD854559BF8145CD
:104044003E85EDBFA14763EFB70297F60100938663
:10405400E69A1397250036971C43411106C6B69776
:1040640082879306803E154685457D3FB2400145D3
:10407400410182809306803E154693052003F5B7DF
:10408400893FEDB701458280371700408327070C2D
:10409400411122C493E7170006C62320F70C2A8493
:1040A400814505453D3785476319F4008566938648
:1040B40006FA7946A94505452D3DB2402244238C94
:1040C40001AE4101828083C781AF6397070E41111E
:1040D40026C29384C1AE83C7040006C622C44AC064
:1040E400898B6381070CEF10804090442A896361B7
:1040F400C50C03C7C1AE9377170003C4E1AEBDCFAF
:1041040093074006818F799B8145054513F4F70F8A
:104114002386E1AEAD3D83C6C1AE93F746008DE381
:1041240003C7D1AE9307F00F630CF7007D17137725
:10413400F70FA386E1AE09E793C626002386D1AE26
:1041440083C70400898BB9C383D701AFB3878702C0
:1041540013074006B3D7E702139607014182B3075A
:10416400260123AAF1AE1DCE2244B2409244024954
:1041740003C5C1C5854541016F10603F1367170032
:10418400854505452386E1AE19355DBF1384E18F6E
:104194008345040005458589753583470400F99BEB
:1041A400238FF18EB240224492440249410182801D
:1041B400098E4206418245BF828011456FE00F9609
:1041C400411193962500AA852D4506C697C0FF1F69
:1041D400E780601AB240014541018280411122C446
:1041E40026C24AC02A842E89B284AA859306002056
:1041F4000146254506C697C0FF1FE780C0179316E2
:1042040029002686A285294597C0FF1FE780A016AE
:10421400B240224492440249014541018280011185
:1042240022CC06CE3714004026CA4AC84EC652C411
:1042340083447405034AB4058349840503499405FA
:10424400EFE04F8B8347A40593F4F40F137AFA0F2E
:1042540093E71700230DF40493F9F90F1379F90F79
:10426400B717004003C7A705058B6DFF03D5C70526
:10427400A38D4705238C3705A38C2705A38B9704AF
:10428400F2406244D2444249B249224A05618280E2
:1042940041119397050122C406C6C1872E8463DAAF
:1042A4000700EF00706619C1EF00705F2165218D72
:1042B40039A093F7150081CB393513451400B2406A
:1042C40022444101828093F7250013C52500E5FBB4
:1042D40093F7850099C785472386F18E13C585001A
:1042E400F9BF93F74500D1C783C7219095C72381B0
:1042F400019003C711908D47631FF700A3800190BD
:1043040003C7019185476314F7040946894503C52A
:10431400D185EF10C025E926EFF03FA283C7518F66
:1043240091CFA38A018E03C701918547631AF702CF
:104334000946914503C5D185EF1060234146914557
:1043440003C5C1C5EF10A022134544008DBF03C7A8
:10435400C18EE312F7FC0D46856503C5A18555BFE3
:1043640003C7C18EE31CF7FC0D46896503C5A1850F
:10437400E1B79397250163D00702EF307111353D02
:1043840037F60200130606E0896503C5C1C5EF10C0
:10439400001E096529BF939715010145E3D107F272
:1043A40017E501001305C56CEFD0410C130600643A
:1043B400916503C5C1C5EF10801B1165CDBD1D718D
:1043C400494697E501009385A56517F50100130596
:1043D40025D386CEA2CC97C0FF1FE780E04801E931
:1043E40017E5010013050565EFD0410801A0B7F6F4
:1043F40000E0795798CAFD57DCCA0567B7E700E0C3
:1044040023A0E7101306F00290C223A0E7180100CE
:1044140001001306C00381454808EF00F07197F7C7
:10442400FF1F938767893ECA896793870780231C88
:10443400F100ED47A301F102354493075010814682
:104444000146814521452312F1022303810297C0CD
:10445400FF1FE78040F2A167938707E03ECE9707EE
:104464000000938727D6BEC497070000938747D7D9
:10447400BEC689472304F10297E7FFFF93870747E6
:104484003EDAB7F5070097070000938787D93EDE29
:10449400814697070000938787D27000E10519458C
:1044A400BEC02308810297C0FF1FE780C0EC5808F4
:1044B4008147994670003E96034606008507050726
:1044C400A30AC700E398D7FED24791C703578101D7
:1044D40085676373F70001A04808EF10E04FAA85D1
:1044E40001C917E5010013052556EFC0F16301A0CA
:1044F400F640664425618280130101DE1705000041
:10450400130545D9232E1120EF104049238EA1C451
:104514006D29B52B85452800D1262800EFC01175DB
:10452400EFF08FF897E50100938505542800A30761
:104534000100EFD0DFBF15E10545EFF0FFB437F61A
:104544000200130606E0896503C5C1C5EF10200209
:104554008320C1211301012282800145F9BF011189
:1045640022CC371400408327840C4EC6896906CEBA
:10457400B3E7370126CA4AC82324F40C8326840CE3
:1045840005698D45B3E626012324D40CAA84096564
:10459400EFE06F9E8D450565EFE0EF9D0327C40CAA
:1045A40013058007336737012326E40C97C0FF1FE8
:1045B400E78060CA8327C40C2945B3E72701232673
:1045C400F40C97C0FF1FE78000C985450965616445
:1045D400EFE06F9A1304146A371900408327490CDB
:1045E400139727016347070CA1460147B7170040FB
:1045F400856513F6140071C603A6870C05074D8E56
:1046040023A4C70C858003A6470C13152601E35C7D
:1046140005FE03A6470C13152601E34C05FEFD1603
:10462400E9FA058B4DC703A7C70C8566558F23A6EA
:10463400E70C371700408327470C93962701E3DCE8
:1046440006FEB717004003A7470C93162701E3CCD7
:1046540006FE03A7870C8566558F23A4E70C37173E
:1046640000408327470C93962701E3DC06FE85452B
:104674000565EFE04F90B717004083A6470C1396EB
:104684002601E34C06FE83A7470C139737016347C3
:104694000704371700408327470C93962701E3DC70
:1046A40006FE0145F2406244D2444249B2490561E2
:1046B40082807D1405C4054597C0FF1FE780A0B91B
:1046C40031BF03A6C70C4D8E23A6C70C25BF03A775
:1046D400870C8566558F23A4E70CA1BF0545D9B780
:1046E400371700408327870C89668545D58F232497
:1046F400F70C09656FE02F88411122C4371400407C
:104704000327840C26C2896406C6458F2324E40C3F
:1047140091450965EFE02F868327C40CB240C58F0D
:104724002326F40C2244924441018280411126C282
:10473400AA841305200306C622C44AC097C0FF1FDB
:10474400E78060B1713F5145616497C0FF1FE78006
:1047540080B01304146A371900408327490C139757
:104764002701634B0708A1470144371700408326FC
:10477400470C13962601E35C06FE0326470C9315AB
:104784002601E3CC05FE8326470C058013963601EB
:1047940063560600136404F81374F40FFD17E1FB69
:1047A400371700408327470C93962701E3DC06FE66
:1047B400B717004083A6470C13962601E34C06FE68
:1047C40083A7470C371700408327470C939627018C
:1047D400E3DC06FE371700408327470C9396270136
:1047E400E3CC06FE113F014523808400B2402244FD
:1047F40092440249410182807D14054565D897C0E1
:10480400FF1FE78040A591BF011122CC06CE2E8464
:10481400B933854719E91305F100093F854711E5C7
:104824008347F100818FB337F000F24062443E8544
:1048340005618280371700408357E7099396270163
:1048440063DD06088967231FF70883C7F18F85078F
:1048540093F7F70FA38FF18E85466397D7002380D4
:104864000190A38101908280A54663E7F60283C785
:10487400019085832380F1900327470C9316370119
:1048840063DD060493E707F82380F19083C7319032
:104894008507A381F19082802D476390E70483C646
:1048A4000190411103C7119093F7860006C6D98F72
:1048B40091CB93071700A380F1909387C190BA9787
:1048C4002380D700153DB240A38F018E238601902B
:1048D40085472381F190410182808280371700400F
:1048E4008327870C0111896606CED58F26CA4AC84C
:1048F40022CC2324F70CAA842E8909659145EFD094
:104904009FE7DD3B85450565EFD0FFE69305A00FE6
:104914001305F00FD53D97E501009385A51519ED15
:104924001305F100213519E50347F1009307A00AA7
:104934006301F70297E50100938545152685EFC0CD
:10494400B13305442285F2406244D24442490561B0
:1049540082801305F100D93B8347F10097E50100FC
:10496400938545145D8D1375F50F69F99305A00FB3
:104974001305600F513D97E50100938525145DFDF6
:104984009305A00F1305400F41352A8497E50100D4
:104994009385051445F5630209029933294597C0A7
:1049A400FF1FE780208C89450965EFD03FE7B7E713
:1049B40000E03707040023A0E71097E50100938582
:1049C400A5122685EFC0512BB5BF411106C6B717F6
:1049D4000040130770052380E704130780FA23803F
:1049E400E70403C7F7021377A70FA387E70203C7F8
:1049F400F70213672700A387E702EFF00FFC130504
:104A0400407E81470147814605468545EFD07FB307
:104A1400B240014541016F10E02793F7150091CB97
:104A2400B7E700E03707400023A0E71013C51500DF
:104A34008280411122C406C693F725002E8485C7BF
:104A4400938701BA884311469385C19013050504E1
:104A5400EFC031021145EFD0BFFB13452400B24033
:104A640022444101828093F745000145EDDB9387A1
:104A7400C1BA884321469385419013050504EFC0CC
:104A8400417F2145EFD07FF713454400C9BF411151
:104A9400170500001305A5F806C622C4EF00107020
:104AA400938701C723A4F1BA938701D323A6F1BA4C
:104AB400938701DB1384D18523A0F1BA938701E3A3
:104AC4002300A40023A2F1BAEFD05FEB0345040056
:104AD4002244B2400146854541016F005029814777
:104AE4001386C1BA13F7F70F6364A7006FD0FFF002
:104AF40018423E9783460700850793C6F6FF2300B6
:104B0400D704CDB78147138601BA13F7F70F63644F
:104B1400A7006FD0FFEF18423E9783460700850732
:104B240093C6F6FF2300D704CDB78147138641BA55
:104B340013F7F70F6364A7006FD0FFEE18423E9798
:104B440083460700850793C6F6FF2300D704CDB735
:104B54008147138681BA13F7F70F6364A7006FD0F8
:104B6400FFED18423E9783460704850793C6F6FF78
:104B74002300D708CDB7B787004003C76700137772
:104B8400F70F93762700638C0644011106CE22CCDE
:104B940026CA4AC84EC603C7770093060003137794
:104BA4000703630BD70203C7770091461377F70314
:104BB400630BD71E63E4E60A85466306D7186301D0
:104BC40007188946630BD7188D46630BD71AB78726
:104BD400004009472383E700378700408347770075
:104BE400E207E18763DB072A930720FC2301F7022E
:104BF400938681BA8842034775008347650022077C
:104C04005D8F2393E1C6834715002384F1C60349CE
:104C14000500137609066308061ADD170547636362
:104C2400F72662091359894181466352090283D7E1
:104C340061C6930600043E8763F4F600130700047C
:104C440042074183998F9376F70F2393F1C6B78771
:104C540000402380D702130700FC0DAC930620020A
:104C64006307D71063E3E602930600026306D704E2
:104C740093061002E31DD7F403C767021377C70F27
:104C8400136727002383E70299B79306300263036F
:104C9400D71093064002E31CD7F203C72703134738
:104CA40007042389E70203C727031377C70F136792
:104CB40027002389E70221BF03C781C69546630302
:104CC400D7069946631BD706938761C603D40700AA
:104CD40013070004BE8463748700130400049387DD
:104CE40081BA1389C1C688434204832509004180DF
:104CF4002286EFC0015883D704009379F40F818F83
:104D04002393F1C6832709003E9423A681C6B7875F
:104D140000402380370303C7270213470704238176
:104D2400E70275B503C7370083C661C61377070862
:104D3400558FA381E7000947DDB723800702E5BF4C
:104D440083C7870069B503C7770013770704E300B7
:104D540007E803C5870061339DBD03C77700137758
:104D64000704E30607E603C58700693B8DB503C75F
:104D7400A7021377C70F136727002385E70281BDB6
:104D840003C7770013770704E30307E403C5870029
:104D9400693B35BD03C7E7021377C70F13672700C5
:104DA4002387E7022DB503C7770013770704E300D1
:104DB40007E203C72703134707082389E70203C54C
:104DC4008700793329B52946636EF60A17E6010090
:104DD400130686D28A07B2979C43B2978287834789
:104DE4003500834625000946A207D58F93D6870050
:104DF400638CC60A6369D6008547638AF602130486
:104E0400F00F81472DA88D456387B60C93072002C8
:104E1400E397F6FE83474500D5E397E701009387C0
:104E240067D023A6F1C601449307E00309A897E7D6
:104E34000100938727DA23A6F1C60144C947C207B4
:104E4400C18363F4E7002393F1C6938761C603D655
:104E540007009307000463F4C70013060004938952
:104E6400C1C69314060183A50900C1802686EFC03C
:104E7400414003A60900269623A6C1C69307F00F56
:104E8400E311F4DAB78700401307F0FC2381E7024B
:104E9400B787004009472383E700F2406244D244C5
:104EA4004249B2490561828097E701009387C7CEE2
:104EB40023A6F1C601449307B00351B78546639F07
:104EC400D70497E701009387E7C923A6F1C60144F5
:104ED40093074003ADB793F7F70F8546638ED7006A
:104EE4008DC7E39EC7F097E701009387E7D023A619
:104EF400F1C60144A947A1B797E701009387C7CE3C
:104F040023A6F1C60144B9471DBF97E70100938763
:104F1400E76A23A6F1C60144914715B701449307F4
:104F2400F00F31BF834725002393F1C6DDB983C752
:104F340041C62300F50003D761C68547E3F3E7CEF6
:104F44008547DDB7834725002382F1C6D9B9137796
:104F5400F9018947E318F7F2834745006381E704C1
:104F6400636CF7000547E39FE7F03787004083470A
:104F7400670293F7370799A0130710086388E702BD
:104F840013072008E390E7F0378700408347A70220
:104F940093F7C70B93E727002305F70259B1378727
:104FA40000408347A70293F73707FDB737870040D0
:104FB4008347670293F7C70B93E727002303F7029E
:104FC4008DB12300050085BF230005009C42A3800A
:104FD400070003D761C68947E3F5E7C4B1B7937601
:104FE40017008DC2A381070009472381E7024947BF
:104FF4002383E7022385E7022387E7020547238308
:10500400E700828093764700FDDA03C757000983DF
:1050140013471700058B2388E1901147CDB7411141
:105024001305800406C697B0FF1FE780C009371731
:1050340000408327870A8D451305002093E7072046
:105044002324F70AEFD0CFE8EFD03F9017E5010013
:105054001305050BEFC08141EFF06FB6EFF0CFC938
:10506400EF80013FEFE08F9BEFE05FB5294691456C
:1050740003C5C1C5ED2997C0FF1FE7808096E5BF32
:1050840023AC05FE1C4191E7010001000CC18280A4
:10509400BA8703A787FF6DFF23ACB7FE82801DC1CB
:1050A4008346E5FF1307F00F9147639EE600411125
:1050B40006C697D0FF1FE78020DBB24081473E85BC
:1050C4004101828095473E85828001E901458280C5
:1050D4000145B240224441018280411122C42A8404
:1050E400210542059305D004418106C697D0FF1FD0
:1050F400E78000C871DDFD572320050023128500D9
:105104002303F5002105F1B717F7FF1F1307C73A6B
:105114001C43411122C426C24AC006C601440149A7
:10512400BA8489E7A165E1251DC401A803C7E7FF87
:10513400631AA7020DCCA165C9269840832784FF72
:105144006319E40217F7FF1F2328F736FD57232CB2
:1051540004FE230FF4FE2285B24022449244024905
:105164004101828011E03E8983A787FF5DBF3E84B1
:10517400E5BF232CF9FED9BFB1CD411122C406C627
:105184002A8497F7FF1F83C777332E856375F4004E
:10519400894763E8870021370D45B2402244410125
:1051A400828083A785FF99E703C7E5FF9307F00F84
:1051B4006305F700ED351545CDB7238F85FE17F54B
:1051C400FF1F1305652F6D3D22852244B240A16562
:1051D400410125A61545828097F7FF1F23AE072CB2
:1051E400828097F7FF1F938767319C4399E33E853D
:1051F400828003D727006316B70003C70700E308BC
:10520400A7FEDC47E5B7B9CD011106CE22CC26CAEC
:105214008147C14633D7F540058B21C317F7FF1FDC
:105224001307C731120504433E950E05AA9405449D
:105234003314F4009C404204418089C7C8402EC600
:105244008297B24523A0040023A20400A18DF2405A
:105254006244D2442E85056182808507E39CD7FA97
:105264000144EDB72E85828041111397050122C4B4
:1052740006C626C24AC041872E84635E070069358C
:1052840011C1313DA1673D8C2285B2402244924434
:10529400024941018280EDD9AA8701474146B356AC
:1052A400E440858A9DCA97F6FF1F9386262903A9A1
:1052B40006009207BA978E073E9985448327090012
:1052C40003254900B394E400C2048297C1802320DB
:1052D400090023220900258C45BF0507E311C7FCFB
:1052E4008144D5BF97F7FF1F938787219C534111B2
:1052F40022C406C61384018695C7829723A0A1867B
:105304000840B74703009387D73F3305F502B7A793
:105314002600938737ECB24022443E9523A0A18611
:105324004101828097F7FF1F9387471918409C4BD0
:10533400BA9723A0F186E9B701C919C62A960505CB
:10534400A30FB5FEE31DA6FE828081473307F50057
:105354000307070019E33E8582808507C5BF011155
:105364002E8626CAAA84131506019305F0044181EA
:1053740022CC06CE32C697D0FF1FE780609F2A84D6
:1053840019C53246A68597B0FF1FE780604A22857B
:10539400F2406244D244056182809307F6FFBE95D1
:1053A4002A966313C5008280FD1583C71500050581
:1053B400A30FF5FEFDB7AA87014581CF09CE3E961E
:1053C400850703C7F7FF6317B700E31BF6FE054520
:1053D40082808280014582806309051097F7FF1F50
:1053E400938747169C43797122D44AD04ECE52CC2F
:1053F40056CA5AC806D626D25EC662C466C23A8B5C
:10540400368A3284AE8AAA89829797F7FF1F9387D8
:10541400270F038747013E89635707003305A440DC
:10542400635B050001A0E37BA4FEB707C0A8A297B5
:105434003385A740F5B797F7FF1F93872710984345
:10544400BE8B8144C147139C3400B3068701944248
:1054540093FCF40FD1E6C165938505F0414597D0DF
:10546400FF1FE780E09015E58327090399EF0145C5
:10547400B250225492540259F249624AD24A424BDF
:10548400B24B224C924C45618280814511458297F2
:10549400F9BF97F7FF1F93876706984315EF97F7B0
:1054A400FF1F23ADA7042300050083A70B000547B6
:1054B400B31497002326050000C523119500232269
:1054C4006501E29723A0370123A25701E3010AFAF9
:1054D40023009A0169BF3E875C47F5FF48C7E1B7DF
:1054E4008504E392F4F6214561B70945828097F774
:1054F400FF1F9387A7FC884B828097F7FF1F83C702
:10550400F7FB6371F50217F7FF1F1307E7FE931705
:10551400150008433E9583570500DD8D2310B50023
:10552400014582800D45828097F7FF1F83C717F9D5
:105534006373F50217F7FF1F130707FC9317150092
:10554400084393C5F5FF3E9583570500FD8D231051
:10555400B500014582800D45828097F7FF1F938730
:10556400A7F99C430605AA9703D50700828097F7FD
:10557400FF1F83C7B7F46364F5000145828097F782
:10558400FF1F938727FC9C43011122CC26CA4AC8DB
:105594004EC652C406CE3284AE89AA84829797F747
:1055A400FF1F83C727F7139A8701135A8A412A8951
:1055B400635E0A02930510273305B4023334B40240
:1055C40015816E04418D2A9963490A00B707C0A862
:1055D4006365F900B70740573E99CE852685EFF0FD
:1055E4005FC005C5232425010545A1A0858B89C776
:1055F40051453305A402C1BF654681461315940085
:1056040093557401EFB0710D7DBF93E504F0C205AD
:10561400C181414597C0FF1FE78080751DE197F761
:10562400FF1F9387E7ED9C5B81C7A6851145829791
:105634000145F2406244D2444249B249224A0561DA
:10564400828097F7FF1F938767EB9C4385E797F763
:10565400FF1F23A5A7EA8547232605002324250148
:105664002311350123009500A300F5002322050032
:10567400A5BFBA87D84775FFC8C7F1BF9307F00223
:1056840063EEA70497F7FF1F938747EB9C43131719
:105694003500BA979C430947B9C3011126CA9354EC
:1056A400450022CC2A84268506CE2EC67D359377E6
:1056B400F4003355F54005890947324611E905459B
:1056C400B317F50093950701C18126854D35014730
:1056D400F2406244D2443A850561828009473A85A2
:1056E400828051C9797122D426D24AD04ECE52CC6E
:1056F40056CA5AC85EC662C406D6B689B28A2E8A0B
:105704002A8993040008414417FBFF1F130B0BE382
:10571400054C930B000383270B00A6979C43A1E73A
:105724009375F400B315BC00C2055686C1811355A8
:105734004400353D0DC983270B000145BE9423A0C9
:10574400240123A244016384090023808900B25008
:10575400225492540259F249624AD24A424BB24B01
:10576400224C4561828005041374F40FA104E314F0
:1057740074FB2145E9BF09458280411122C426C238
:105784004AC006C6AA842E893284D533CA852685A2
:10579400EFF03FA539C997F7FF1F83C7A7D7139722
:1057A40087016187AA84635307029307102733058F
:1057B400F4023334F40215816E04418DC8C00145EE
:1057C400B24022449244024941018280858B89C7B8
:1057D40051453305A402DDB765468146131594008F
:1057E40093557401EFB0616FD1BF2145D1BF411111
:1057F40022C426C24AC006C6AA842E89EFF07F9E20
:105804002A8419C123110500CA852685313B014527
:1058140011E01945B2402244924402494101828078
:105824009307F00263E7A704411126C297F4FF1F10
:105834009384C4D0984022C41314350022971C4387
:1058440006C609478DC39377F5008545B395F500E2
:10585400C205C1811181613F9C400147A29723A0E9
:10586400070023A20700B240224492443A85410132
:10587400828009473A858280411106C697F7FF1F47
:1058840023A0A7CC0295B24097F7FF1F23A2A7C479
:10589400014541018280954763E9B7008A0597F77E
:1058A400FF1F9387E7C3BE9588C18280411106C656
:1058B40022C426C2EF7091436146814517F5FF1F4C
:1058C400130505C2EFF05FA713060002814517F523
:1058D400FF1F1305A5BEEFF03FA697F7FF1F23AFE9
:1058E40007C097F7FF1F23AD07C497F7FF1F83C7B0
:1058F400E7C213D527008D8B3E958D473305F502FE
:1059040017F4FF1F130484BB99479305101097F4F1
:10591400FF1F9384A4BC39051375F50F2301A4005C
:105924003305F5021305051897C0FF1FE7804044AF
:1059340097F7FF1F23A4A7C0834724001305051866
:1059440088C08A073E9597F7FF1F23A7A7BAEFF0F1
:10595400BF88834714009440170600001306E68AA4
:1059640013972700369710C3138717001377F70F81
:105974000A073697170600001306468F10C31387CD
:105984003700890793F7F70FA300E400B2402244DD
:105994008A07B69790C392444101828097F7FF1F0C
:1059A40083C7D7B117F7FF1F034767B163F3E70254
:1059B40017F7FF1F130787B218439386170017F6CC
:1059C400FF1FA30DD6AE93962700369708C33E85D6
:1059D40082809307F00FE5BF1C416387071441776A
:1059E4007D8FB706002089476311D71403574500FC
:1059F400630D0712411122C419462A849305F00F3E
:105A0400590506C6EFF03F9B05478D476309E5102E
:105A14001306C003814517F5FF1F130565AEEFF0AC
:105A2400BF911306C003A28517F5FF1F130545ADEB
:105A340097B0FF1FE780C0DF17F7FF1F035707ADBD
:105A440097F7FF1F9387C7AB19E71307002097F653
:105A5400FF1F239DE6AA17F7FF1F034747AB11E774
:105A6400054797F6FF1F2384E6AA17F7FF1F03478E
:105A740017AA11E76D4797F6FF1FA38AE6A817F741
:105A8400FF1F0347E7A811E7154797F6FF1F238178
:105A9400E6A817F7FF1F0347B7A711E7054797F6CF
:105AA400FF1FA387E6A617F7FF1F0347B7A619E74B
:105AB40003C7070197F6FF1FA38EE6A417F7FF1F7E
:105AC400034727A511E7354797F6FF1F2383E6A46D
:105AD40017F7FF1F0347A7A419E71307800297F6D8
